{"contracts/TRIS.sol":{"TRIS":{"abi":[{"inputs":[{"internalType":"bytes32","name":"_merkleRoot","type":"bytes32"}],"stateMutability":"nonpayable","type":"constructor"},{"anonymous":false,"inputs":[{"indexed":true,"internalType":"address","name":"owner","type":"address"},{"indexed":true,"internalType":"address","name":"approved","type":"address"},{"indexed":true,"internalType":"uint256","name":"tokenId","type":"uint256"}],"name":"Approval","type":"event"},{"anonymous":false,"inputs":[{"indexed":true,"internalType":"address","name":"owner","type":"address"},{"indexed":true,"internalType":"address","name":"operator","type":"address"},{"indexed":false,"internalType":"bool","name":"approved","type":"bool"}],"name":"ApprovalForAll","type":"event"},{"anonymous":false,"inputs":[{"indexed":true,"internalType":"address","name":"previousOwner","type":"address"},{"indexed":true,"internalType":"address","name":"newOwner","type":"address"}],"name":"OwnershipTransferred","type":"event"},{"anonymous":false,"inputs":[{"indexed":true,"internalType":"address","name":"from","type":"address"},{"indexed":true,"internalType":"address","name":"to","type":"address"},{"indexed":true,"internalType":"uint256","name":"tokenId","type":"uint256"}],"name":"Transfer","type":"event"},{"inputs":[],"name":"DOMAIN_SEPARATOR","outputs":[{"internalType":"bytes32","name":"","type":"bytes32"}],"stateMutability":"view","type":"function"},{"inputs":[],"name":"PERMIT_TYPEHASH","outputs":[{"internalType":"bytes32","name":"","type":"bytes32"}],"stateMutability":"view","type":"function"},{"inputs":[],"name":"__baseURI","outputs":[{"internalType":"string","name":"","type":"string"}],"stateMutability":"view","type":"function"},{"inputs":[{"internalType":"address","name":"_to","type":"address"},{"internalType":"uint256","name":"_tokenId","type":"uint256"}],"name":"adminMint","outputs":[],"stateMutability":"nonpayable","type":"function"},{"inputs":[{"internalType":"address","name":"to","type":"address"},{"internalType":"uint256","name":"tokenId","type":"uint256"}],"name":"approve","outputs":[],"stateMutability":"nonpayable","type":"function"},{"inputs":[{"internalType":"address","name":"owner","type":"address"}],"name":"balanceOf","outputs":[{"internalType":"uint256","name":"","type":"uint256"}],"stateMutability":"view","type":"function"},{"inputs":[{"internalType":"address","name":"","type":"address"}],"name":"claimed","outputs":[{"internalType":"bool","name":"","type":"bool"}],"stateMutability":"view","type":"function"},{"inputs":[{"internalType":"uint256","name":"tokenId","type":"uint256"}],"name":"getApproved","outputs":[{"internalType":"address","name":"","type":"address"}],"stateMutability":"view","type":"function"},{"inputs":[{"internalType":"address","name":"owner","type":"address"},{"internalType":"address","name":"operator","type":"address"}],"name":"isApprovedForAll","outputs":[{"internalType":"bool","name":"","type":"bool"}],"stateMutability":"view","type":"function"},{"inputs":[],"name":"merkleRoot","outputs":[{"internalType":"bytes32","name":"","type":"bytes32"}],"stateMutability":"view","type":"function"},{"inputs":[{"internalType":"bytes32[]","name":"merkleProof","type":"bytes32[]"}],"name":"mint","outputs":[],"stateMutability":"payable","type":"function"},{"inputs":[],"name":"name","outputs":[{"internalType":"string","name":"","type":"string"}],"stateMutability":"view","type":"function"},{"inputs":[],"name":"nextTokenId","outputs":[{"internalType":"uint256","name":"","type":"uint256"}],"stateMutability":"view","type":"function"},{"inputs":[{"internalType":"uint256","name":"","type":"uint256"}],"name":"nonces","outputs":[{"internalType":"uint256","name":"","type":"uint256"}],"stateMutability":"view","type":"function"},{"inputs":[],"name":"owner","outputs":[{"internalType":"address","name":"","type":"address"}],"stateMutability":"view","type":"function"},{"inputs":[{"internalType":"uint256","name":"tokenId","type":"uint256"}],"name":"ownerOf","outputs":[{"internalType":"address","name":"","type":"address"}],"stateMutability":"view","type":"function"},{"inputs":[{"internalType":"address","name":"spender","type":"address"},{"internalType":"uint256","name":"tokenId","type":"uint256"},{"internalType":"uint256","name":"deadline","type":"uint256"},{"internalType":"uint8","name":"v","type":"uint8"},{"internalType":"bytes32","name":"r","type":"bytes32"},{"internalType":"bytes32","name":"s","type":"bytes32"}],"name":"permit","outputs":[],"stateMutability":"payable","type":"function"},{"inputs":[],"name":"renounceOwnership","outputs":[],"stateMutability":"nonpayable","type":"function"},{"inputs":[{"internalType":"address","name":"from","type":"address"},{"internalType":"address","name":"to","type":"address"},{"internalType":"uint256","name":"tokenId","type":"uint256"}],"name":"safeTransferFrom","outputs":[],"stateMutability":"nonpayable","type":"function"},{"inputs":[{"internalType":"address","name":"from","type":"address"},{"internalType":"address","name":"to","type":"address"},{"internalType":"uint256","name":"tokenId","type":"uint256"},{"internalType":"bytes","name":"data","type":"bytes"}],"name":"safeTransferFrom","outputs":[],"stateMutability":"nonpayable","type":"function"},{"inputs":[{"internalType":"address","name":"operator","type":"address"},{"internalType":"bool","name":"approved","type":"bool"}],"name":"setApprovalForAll","outputs":[],"stateMutability":"nonpayable","type":"function"},{"inputs":[{"internalType":"string","name":"_uri","type":"string"}],"name":"setBaseURI","outputs":[],"stateMutability":"nonpayable","type":"function"},{"inputs":[{"internalType":"bytes4","name":"interfaceId","type":"bytes4"}],"name":"supportsInterface","outputs":[{"internalType":"bool","name":"","type":"bool"}],"stateMutability":"view","type":"function"},{"inputs":[],"name":"symbol","outputs":[{"internalType":"string","name":"","type":"string"}],"stateMutability":"view","type":"function"},{"inputs":[{"internalType":"uint256","name":"index","type":"uint256"}],"name":"tokenByIndex","outputs":[{"internalType":"uint256","name":"","type":"uint256"}],"stateMutability":"view","type":"function"},{"inputs":[{"internalType":"address","name":"owner","type":"address"},{"internalType":"uint256","name":"index","type":"uint256"}],"name":"tokenOfOwnerByIndex","outputs":[{"internalType":"uint256","name":"","type":"uint256"}],"stateMutability":"view","type":"function"},{"inputs":[{"internalType":"uint256","name":"tokenId","type":"uint256"}],"name":"tokenURI","outputs":[{"internalType":"string","name":"","type":"string"}],"stateMutability":"view","type":"function"},{"inputs":[],"name":"totalSupply","outputs":[{"internalType":"uint256","name":"","type":"uint256"}],"stateMutability":"view","type":"function"},{"inputs":[{"internalType":"address","name":"from","type":"address"},{"internalType":"address","name":"to","type":"address"},{"internalType":"uint256","name":"tokenId","type":"uint256"}],"name":"transferFrom","outputs":[],"stateMutability":"nonpayable","type":"function"},{"inputs":[{"internalType":"address","name":"newOwner","type":"address"}],"name":"transferOwnership","outputs":[],"stateMutability":"nonpayable","type":"function"},{"inputs":[],"name":"version","outputs":[{"internalType":"string","name":"","type":"string"}],"stateMutability":"pure","type":"function"}],"devdoc":{"events":{"Approval(address,address,uint256)":{"details":"Emitted when `owner` enables `approved` to manage the `tokenId` token."},"ApprovalForAll(address,address,bool)":{"details":"Emitted when `owner` enables or disables (`approved`) `operator` to manage all of its assets."},"Transfer(address,address,uint256)":{"details":"Emitted when `tokenId` token is transferred from `from` to `to`."}},"kind":"dev","methods":{"DOMAIN_SEPARATOR()":{"returns":{"_0":"The domain seperator used in encoding of permit signature"}},"approve(address,uint256)":{"details":"See {IERC721-approve}."},"balanceOf(address)":{"details":"See {IERC721-balanceOf}."},"getApproved(uint256)":{"details":"See {IERC721-getApproved}."},"isApprovedForAll(address,address)":{"details":"See {IERC721-isApprovedForAll}."},"name()":{"details":"See {IERC721Metadata-name}."},"owner()":{"details":"Returns the address of the current owner."},"ownerOf(uint256)":{"details":"See {IERC721-ownerOf}."},"permit(address,uint256,uint256,uint8,bytes32,bytes32)":{"params":{"deadline":"The deadline timestamp by which the call must be mined for the approve to work","r":"Must produce valid secp256k1 signature from the holder along with `v` and `s`","s":"Must produce valid secp256k1 signature from the holder along with `r` and `v`","spender":"The account that is being approved","tokenId":"The ID of the token that is being approved for spending","v":"Must produce valid secp256k1 signature from the holder along with `r` and `s`"}},"renounceOwnership()":{"details":"Leaves the contract without owner. It will not be possible to call `onlyOwner` functions. Can only be called by the current owner. NOTE: Renouncing ownership will leave the contract without an owner, thereby disabling any functionality that is only available to the owner."},"safeTransferFrom(address,address,uint256)":{"details":"See {IERC721-safeTransferFrom}."},"safeTransferFrom(address,address,uint256,bytes)":{"details":"See {IERC721-safeTransferFrom}."},"setApprovalForAll(address,bool)":{"details":"See {IERC721-setApprovalForAll}."},"supportsInterface(bytes4)":{"details":"See {IERC165-supportsInterface}."},"symbol()":{"details":"See {IERC721Metadata-symbol}."},"tokenByIndex(uint256)":{"details":"See {IERC721Enumerable-tokenByIndex}."},"tokenOfOwnerByIndex(address,uint256)":{"details":"See {IERC721Enumerable-tokenOfOwnerByIndex}."},"tokenURI(uint256)":{"details":"See {IERC721Metadata-tokenURI}."},"totalSupply()":{"details":"See {IERC721Enumerable-totalSupply}."},"transferFrom(address,address,uint256)":{"details":"See {IERC721-transferFrom}."},"transferOwnership(address)":{"details":"Transfers ownership of the contract to a new account (`newOwner`). Can only be called by the current owner."}},"version":1},"evm":{"bytecode":{"linkReferences":{},"object":"60e060405234801562000010575f80fd5b5060405162004d1438038062004d14833981810160405281019062000036919062000294565b6040518060400160405280600481526020017f54524953000000000000000000000000000000000000000000000000000000008152506040518060400160405280600481526020017f54524953000000000000000000000000000000000000000000000000000000008152506040518060400160405280600181526020017f31000000000000000000000000000000000000000000000000000000000000008152508282815f9081620000ea919062000528565b508060019081620000fc919062000528565b505050828051906020012060808181525050808051906020012060a0818152505050505062000140620001346200017960201b60201c565b6200018060201b60201c565b8060c081815250506200017260405180608001604052806043815260200162004cd1604391396200024360201b60201c565b506200060c565b5f33905090565b5f600a5f9054906101000a900473ffffffffffffffffffffffffffffffffffffffff16905081600a5f6101000a81548173ffffffffffffffffffffffffffffffffffffffff021916908373ffffffffffffffffffffffffffffffffffffffff1602179055508173ffffffffffffffffffffffffffffffffffffffff168173ffffffffffffffffffffffffffffffffffffffff167f8be0079c531659141344cd1fd0a4f28419497f9722a3daafe3b4186f6b6457e060405160405180910390a35050565b80600e908162000254919062000528565b5050565b5f80fd5b5f819050919050565b62000270816200025c565b81146200027b575f80fd5b50565b5f815190506200028e8162000265565b92915050565b5f60208284031215620002ac57620002ab62000258565b5b5f620002bb848285016200027e565b91505092915050565b5f81519050919050565b7f4e487b71000000000000000000000000000000000000000000000000000000005f52604160045260245ffd5b7f4e487b71000000000000000000000000000000000000000000000000000000005f52602260045260245ffd5b5f60028204905060018216806200034057607f821691505b602082108103620003565762000355620002fb565b5b50919050565b5f819050815f5260205f209050919050565b5f6020601f8301049050919050565b5f82821b905092915050565b5f60088302620003ba7fffffffffffffffffffffffffffffffffffffffffffffffffffffffffffffffff826200037d565b620003c686836200037d565b95508019841693508086168417925050509392505050565b5f819050919050565b5f819050919050565b5f620004106200040a6200040484620003de565b620003e7565b620003de565b9050919050565b5f819050919050565b6200042b83620003f0565b620004436200043a8262000417565b84845462000389565b825550505050565b5f90565b620004596200044b565b6200046681848462000420565b505050565b5b818110156200048d57620004815f826200044f565b6001810190506200046c565b5050565b601f821115620004dc57620004a6816200035c565b620004b1846200036e565b81016020851015620004c1578190505b620004d9620004d0856200036e565b8301826200046b565b50505b505050565b5f82821c905092915050565b5f620004fe5f1984600802620004e1565b1980831691505092915050565b5f620005188383620004ed565b9150826002028217905092915050565b6200053382620002c4565b67ffffffffffffffff8111156200054f576200054e620002ce565b5b6200055b825462000328565b6200056882828562000491565b5f60209050601f8311600181146200059e575f841562000589578287015190505b6200059585826200050b565b86555062000604565b601f198416620005ae866200035c565b5f5b82811015620005d757848901518255600182019150602085019450602081019050620005b0565b86831015620005f75784890151620005f3601f891682620004ed565b8355505b6001600288020188555050505b505050505050565b60805160a05160c0516146936200063e5f395f8181610a48015261142a01525f610b7501525f610b5401526146935ff3fe6080604052600436106101d7575f3560e01c80636352211e11610101578063a22cb46511610094578063c884ef8311610063578063c884ef831461069d578063e58306f9146106d9578063e985e9c514610701578063f2fde38b1461073d576101d7565b8063a22cb465146105f5578063b77a147b1461061d578063b88d4fde14610639578063c87b56dd14610661576101d7565b806375794a3c116100d057806375794a3c1461055b5780637ac2ff7b146105855780638da5cb5b146105a157806395d89b41146105cb576101d7565b80636352211e146104a35780636e34a482146104df57806370a0823114610509578063715018a614610545576101d7565b80632eb4a7ab1161017957806342842e0e1161014857806342842e0e146103ed5780634f6ccce71461041557806354fd4d501461045157806355f804b31461047b576101d7565b80632eb4a7ab146103335780632f745c591461035d57806330adf81f146103995780633644e515146103c3576101d7565b8063095ea7b3116101b5578063095ea7b31461027d578063141a468c146102a557806318160ddd146102e157806323b872dd1461030b576101d7565b806301ffc9a7146101db57806306fdde0314610217578063081812fc14610241575b5f80fd5b3480156101e6575f80fd5b5061020160048036038101906101fc9190612c49565b610765565b60405161020e9190612c8e565b60405180910390f35b348015610222575f80fd5b5061022b6107de565b6040516102389190612d31565b60405180910390f35b34801561024c575f80fd5b5061026760048036038101906102629190612d84565b61086d565b6040516102749190612dee565b60405180910390f35b348015610288575f80fd5b506102a3600480360381019061029e9190612e31565b6108af565b005b3480156102b0575f80fd5b506102cb60048036038101906102c69190612d84565b6109c5565b6040516102d89190612e7e565b60405180910390f35b3480156102ec575f80fd5b506102f56109da565b6040516103029190612e7e565b60405180910390f35b348015610316575f80fd5b50610331600480360381019061032c9190612e97565b6109e6565b005b34801561033e575f80fd5b50610347610a46565b6040516103549190612eff565b60405180910390f35b348015610368575f80fd5b50610383600480360381019061037e9190612e31565b610a6a565b6040516103909190612e7e565b60405180910390f35b3480156103a4575f80fd5b506103ad610b0a565b6040516103ba9190612eff565b60405180910390f35b3480156103ce575f80fd5b506103d7610b30565b6040516103e49190612eff565b60405180910390f35b3480156103f8575f80fd5b50610413600480360381019061040e9190612e97565b610bcc565b005b348015610420575f80fd5b5061043b60048036038101906104369190612d84565b610beb565b6040516104489190612e7e565b60405180910390f35b34801561045c575f80fd5b50610465610c59565b6040516104729190612d31565b60405180910390f35b348015610486575f80fd5b506104a1600480360381019061049c9190613044565b610c96565b005b3480156104ae575f80fd5b506104c960048036038101906104c49190612d84565b610caa565b6040516104d69190612dee565b60405180910390f35b3480156104ea575f80fd5b506104f3610d2e565b6040516105009190612d31565b60405180910390f35b348015610514575f80fd5b5061052f600480360381019061052a919061308b565b610dba565b60405161053c9190612e7e565b60405180910390f35b348015610550575f80fd5b50610559610e6e565b005b348015610566575f80fd5b5061056f610e81565b60405161057c9190612e7e565b60405180910390f35b61059f600480360381019061059a9190613116565b610e87565b005b3480156105ac575f80fd5b506105b561122e565b6040516105c29190612dee565b60405180910390f35b3480156105d6575f80fd5b506105df611256565b6040516105ec9190612d31565b60405180910390f35b348015610600575f80fd5b5061061b600480360381019061061691906131c9565b6112e6565b005b61063760048036038101906106329190613264565b6112fc565b005b348015610644575f80fd5b5061065f600480360381019061065a919061334d565b6114c0565b005b34801561066c575f80fd5b5061068760048036038101906106829190612d84565b611522565b6040516106949190612d31565b60405180910390f35b3480156106a8575f80fd5b506106c360048036038101906106be919061308b565b611587565b6040516106d09190612c8e565b60405180910390f35b3480156106e4575f80fd5b506106ff60048036038101906106fa9190612e31565b6115a4565b005b34801561070c575f80fd5b50610727600480360381019061072291906133cd565b6115ba565b6040516107349190612c8e565b60405180910390f35b348015610748575f80fd5b50610763600480360381019061075e919061308b565b611648565b005b5f7f780e9d63000000000000000000000000000000000000000000000000000000007bffffffffffffffffffffffffffffffffffffffffffffffffffffffff1916827bffffffffffffffffffffffffffffffffffffffffffffffffffffffff191614806107d757506107d6826116ca565b5b9050919050565b60605f80546107ec90613438565b80601f016020809104026020016040519081016040528092919081815260200182805461081890613438565b80156108635780601f1061083a57610100808354040283529160200191610863565b820191905f5260205f20905b81548152906001019060200180831161084657829003601f168201915b5050505050905090565b5f610877826117ab565b60045f8381526020019081526020015f205f9054906101000a900473ffffffffffffffffffffffffffffffffffffffff169050919050565b5f6108b982610caa565b90508073ffffffffffffffffffffffffffffffffffffffff168373ffffffffffffffffffffffffffffffffffffffff1603610929576040517f08c379a0000000000000000000000000000000000000000000000000000000008152600401610920906134d8565b60405180910390fd5b8073ffffffffffffffffffffffffffffffffffffffff166109486117f6565b73ffffffffffffffffffffffffffffffffffffffff1614806109775750610976816109716117f6565b6115ba565b5b6109b6576040517f08c379a00000000000000000000000000000000000000000000000000000000081526004016109ad90613566565b60405180910390fd5b6109c083836117fd565b505050565b600d602052805f5260405f205f915090505481565b5f600880549050905090565b6109f76109f16117f6565b826118b3565b610a36576040517f08c379a0000000000000000000000000000000000000000000000000000000008152600401610a2d906135f4565b60405180910390fd5b610a41838383611947565b505050565b7f000000000000000000000000000000000000000000000000000000000000000081565b5f610a7483610dba565b8210610ab5576040517f08c379a0000000000000000000000000000000000000000000000000000000008152600401610aac90613682565b60405180910390fd5b60065f8473ffffffffffffffffffffffffffffffffffffffff1673ffffffffffffffffffffffffffffffffffffffff1681526020019081526020015f205f8381526020019081526020015f2054905092915050565b7f49ecf333e5b8c95c40fdafc95c1ad136e8914a8fb55e9dc8bb01eaa83a2df9ad5f1b81565b5f7f8b73c3c69bb8fe3d512ecc4cf759cc79239f7b179b0ffacaa9a75d522b39400f7f00000000000000000000000000000000000000000000000000000000000000007f0000000000000000000000000000000000000000000000000000000000000000610b9c611c33565b30604051602001610bb19594939291906136e2565b60405160208183030381529060405280519060200120905090565b610be683838360405180602001604052805f8152506114c0565b505050565b5f610bf46109da565b8210610c35576040517f08c379a0000000000000000000000000000000000000000000000000000000008152600401610c2c906137a3565b60405180910390fd5b60088281548110610c4957610c486137c1565b5b905f5260205f2001549050919050565b60606040518060400160405280600181526020017f3100000000000000000000000000000000000000000000000000000000000000815250905090565b610c9e611c3a565b610ca781611cb8565b50565b5f80610cb583611ccb565b90505f73ffffffffffffffffffffffffffffffffffffffff168173ffffffffffffffffffffffffffffffffffffffff1603610d25576040517f08c379a0000000000000000000000000000000000000000000000000000000008152600401610d1c90613838565b60405180910390fd5b80915050919050565b600e8054610d3b90613438565b80601f0160208091040260200160405190810160405280929190818152602001828054610d6790613438565b8015610db25780601f10610d8957610100808354040283529160200191610db2565b820191905f5260205f20905b815481529060010190602001808311610d9557829003601f168201915b505050505081565b5f8073ffffffffffffffffffffffffffffffffffffffff168273ffffffffffffffffffffffffffffffffffffffff1603610e29576040517f08c379a0000000000000000000000000000000000000000000000000000000008152600401610e20906138c6565b60405180910390fd5b60035f8373ffffffffffffffffffffffffffffffffffffffff1673ffffffffffffffffffffffffffffffffffffffff1681526020019081526020015f20549050919050565b610e76611c3a565b610e7f5f611d04565b565b600b5481565b83610e90611dc7565b1115610ed1576040517f08c379a0000000000000000000000000000000000000000000000000000000008152600401610ec89061392e565b60405180910390fd5b5f610eda610b30565b7f49ecf333e5b8c95c40fdafc95c1ad136e8914a8fb55e9dc8bb01eaa83a2df9ad5f1b8888610f088a611dce565b89604051602001610f1d95949392919061394c565b60405160208183030381529060405280519060200120604051602001610f44929190613a11565b6040516020818303038152906040528051906020012090505f610f6687610caa565b90508073ffffffffffffffffffffffffffffffffffffffff168873ffffffffffffffffffffffffffffffffffffffff1603610fd6576040517f08c379a0000000000000000000000000000000000000000000000000000000008152600401610fcd90613ab7565b60405180910390fd5b610fdf81611e13565b156110ed57631626ba7e60e01b8173ffffffffffffffffffffffffffffffffffffffff16631626ba7e8487878a60405160200161101e93929190613b09565b6040516020818303038152906040526040518363ffffffff1660e01b815260040161104a929190613b97565b602060405180830381865afa158015611065573d5f803e3d5ffd5b505050506040513d601f19601f820116820180604052508101906110899190613bd9565b7bffffffffffffffffffffffffffffffffffffffffffffffffffffffff1916146110e8576040517f08c379a00000000000000000000000000000000000000000000000000000000081526004016110df90613c4e565b60405180910390fd5b61121a565b5f6001838787876040515f81526020016040526040516111109493929190613c7b565b6020604051602081039080840390855afa158015611130573d5f803e3d5ffd5b5050506020604051035190505f73ffffffffffffffffffffffffffffffffffffffff168173ffffffffffffffffffffffffffffffffffffffff16036111aa576040517f08c379a00000000000000000000000000000000000000000000000000000000081526004016111a190613d08565b60405180910390fd5b8173ffffffffffffffffffffffffffffffffffffffff168173ffffffffffffffffffffffffffffffffffffffff1614611218576040517f08c379a000000000000000000000000000000000000000000000000000000000815260040161120f90613c4e565b60405180910390fd5b505b61122488886117fd565b5050505050505050565b5f600a5f9054906101000a900473ffffffffffffffffffffffffffffffffffffffff16905090565b60606001805461126590613438565b80601f016020809104026020016040519081016040528092919081815260200182805461129190613438565b80156112dc5780601f106112b3576101008083540402835291602001916112dc565b820191905f5260205f20905b8154815290600101906020018083116112bf57829003601f168201915b5050505050905090565b6112f86112f16117f6565b8383611e35565b5050565b5f1515600c5f3373ffffffffffffffffffffffffffffffffffffffff1673ffffffffffffffffffffffffffffffffffffffff1681526020019081526020015f205f9054906101000a900460ff1615151461138b576040517f08c379a000000000000000000000000000000000000000000000000000000000815260040161138290613d70565b60405180910390fd5b6001600c5f3373ffffffffffffffffffffffffffffffffffffffff1673ffffffffffffffffffffffffffffffffffffffff1681526020019081526020015f205f6101000a81548160ff021916908315150217905550600115156114578383808060200260200160405190810160405280939291908181526020018383602002808284375f81840152601f19601f820116905080830192505050505050507f000000000000000000000000000000000000000000000000000000000000000061145233611f9c565b611fbd565b151514611499576040517f08c379a000000000000000000000000000000000000000000000000000000000815260040161149090613dd8565b60405180910390fd5b600b5f8154809291906114ab90613e23565b91905055506114bc33600b54611fd3565b5050565b6114d16114cb6117f6565b836118b3565b611510576040517f08c379a0000000000000000000000000000000000000000000000000000000008152600401611507906135f4565b60405180910390fd5b61151c848484846121e6565b50505050565b606061152d826117ab565b5f611536612242565b90505f8151116115545760405180602001604052805f81525061157f565b8061155e846122d2565b60405160200161156f929190613e9a565b6040516020818303038152906040525b915050919050565b600c602052805f5260405f205f915054906101000a900460ff1681565b6115ac611c3a565b6115b68282611fd3565b5050565b5f60055f8473ffffffffffffffffffffffffffffffffffffffff1673ffffffffffffffffffffffffffffffffffffffff1681526020019081526020015f205f8373ffffffffffffffffffffffffffffffffffffffff1673ffffffffffffffffffffffffffffffffffffffff1681526020019081526020015f205f9054906101000a900460ff16905092915050565b611650611c3a565b5f73ffffffffffffffffffffffffffffffffffffffff168173ffffffffffffffffffffffffffffffffffffffff16036116be576040517f08c379a00000000000000000000000000000000000000000000000000000000081526004016116b590613f2d565b60405180910390fd5b6116c781611d04565b50565b5f7f80ac58cd000000000000000000000000000000000000000000000000000000007bffffffffffffffffffffffffffffffffffffffffffffffffffffffff1916827bffffffffffffffffffffffffffffffffffffffffffffffffffffffff1916148061179457507f5b5e139f000000000000000000000000000000000000000000000000000000007bffffffffffffffffffffffffffffffffffffffffffffffffffffffff1916827bffffffffffffffffffffffffffffffffffffffffffffffffffffffff1916145b806117a457506117a38261239c565b5b9050919050565b6117b481612405565b6117f3576040517f08c379a00000000000000000000000000000000000000000000000000000000081526004016117ea90613838565b60405180910390fd5b50565b5f33905090565b8160045f8381526020019081526020015f205f6101000a81548173ffffffffffffffffffffffffffffffffffffffff021916908373ffffffffffffffffffffffffffffffffffffffff160217905550808273ffffffffffffffffffffffffffffffffffffffff1661186d83610caa565b73ffffffffffffffffffffffffffffffffffffffff167f8c5be1e5ebec7d5bd14f71427d1e84f3dd0314c0f7b2291e5b200ac8c7c3b92560405160405180910390a45050565b5f806118be83610caa565b90508073ffffffffffffffffffffffffffffffffffffffff168473ffffffffffffffffffffffffffffffffffffffff16148061190057506118ff81856115ba565b5b8061193e57508373ffffffffffffffffffffffffffffffffffffffff166119268461086d565b73ffffffffffffffffffffffffffffffffffffffff16145b91505092915050565b8273ffffffffffffffffffffffffffffffffffffffff1661196782610caa565b73ffffffffffffffffffffffffffffffffffffffff16146119bd576040517f08c379a00000000000000000000000000000000000000000000000000000000081526004016119b490613fbb565b60405180910390fd5b5f73ffffffffffffffffffffffffffffffffffffffff168273ffffffffffffffffffffffffffffffffffffffff1603611a2b576040517f08c379a0000000000000000000000000000000000000000000000000000000008152600401611a2290614049565b60405180910390fd5b611a388383836001612445565b8273ffffffffffffffffffffffffffffffffffffffff16611a5882610caa565b73ffffffffffffffffffffffffffffffffffffffff1614611aae576040517f08c379a0000000000000000000000000000000000000000000000000000000008152600401611aa590613fbb565b60405180910390fd5b60045f8281526020019081526020015f205f6101000a81549073ffffffffffffffffffffffffffffffffffffffff0219169055600160035f8573ffffffffffffffffffffffffffffffffffffffff1673ffffffffffffffffffffffffffffffffffffffff1681526020019081526020015f205f8282540392505081905550600160035f8473ffffffffffffffffffffffffffffffffffffffff1673ffffffffffffffffffffffffffffffffffffffff1681526020019081526020015f205f82825401925050819055508160025f8381526020019081526020015f205f6101000a81548173ffffffffffffffffffffffffffffffffffffffff021916908373ffffffffffffffffffffffffffffffffffffffff160217905550808273ffffffffffffffffffffffffffffffffffffffff168473ffffffffffffffffffffffffffffffffffffffff167fddf252ad1be2c89b69c2b068fc378daa952ba7f163c4a11628f55a4df523b3ef60405160405180910390a4611c2e83838360016125a0565b505050565b5f46905090565b611c426117f6565b73ffffffffffffffffffffffffffffffffffffffff16611c6061122e565b73ffffffffffffffffffffffffffffffffffffffff1614611cb6576040517f08c379a0000000000000000000000000000000000000000000000000000000008152600401611cad906140b1565b60405180910390fd5b565b80600e9081611cc79190614263565b5050565b5f60025f8381526020019081526020015f205f9054906101000a900473ffffffffffffffffffffffffffffffffffffffff169050919050565b5f600a5f9054906101000a900473ffffffffffffffffffffffffffffffffffffffff16905081600a5f6101000a81548173ffffffffffffffffffffffffffffffffffffffff021916908373ffffffffffffffffffffffffffffffffffffffff1602179055508173ffffffffffffffffffffffffffffffffffffffff168173ffffffffffffffffffffffffffffffffffffffff167f8be0079c531659141344cd1fd0a4f28419497f9722a3daafe3b4186f6b6457e060405160405180910390a35050565b5f42905090565b5f80600d5f8481526020019081526020015f20549050600d5f8481526020019081526020015f205f815480929190611e0590613e23565b919050555080915050919050565b5f808273ffffffffffffffffffffffffffffffffffffffff163b119050919050565b8173ffffffffffffffffffffffffffffffffffffffff168373ffffffffffffffffffffffffffffffffffffffff1603611ea3576040517f08c379a0000000000000000000000000000000000000000000000000000000008152600401611e9a9061437c565b60405180910390fd5b8060055f8573ffffffffffffffffffffffffffffffffffffffff1673ffffffffffffffffffffffffffffffffffffffff1681526020019081526020015f205f8473ffffffffffffffffffffffffffffffffffffffff1673ffffffffffffffffffffffffffffffffffffffff1681526020019081526020015f205f6101000a81548160ff0219169083151502179055508173ffffffffffffffffffffffffffffffffffffffff168373ffffffffffffffffffffffffffffffffffffffff167f17307eab39ab6107e8899845ad3d59bd9653f200f220920489ca2b5937696c3183604051611f8f9190612c8e565b60405180910390a3505050565b5f8173ffffffffffffffffffffffffffffffffffffffff165f1b9050919050565b5f82611fc985846125a6565b1490509392505050565b5f73ffffffffffffffffffffffffffffffffffffffff168273ffffffffffffffffffffffffffffffffffffffff1603612041576040517f08c379a0000000000000000000000000000000000000000000000000000000008152600401612038906143e4565b60405180910390fd5b61204a81612405565b1561208a576040517f08c379a00000000000000000000000000000000000000000000000000000000081526004016120819061444c565b60405180910390fd5b6120975f83836001612445565b6120a081612405565b156120e0576040517f08c379a00000000000000000000000000000000000000000000000000000000081526004016120d79061444c565b60405180910390fd5b600160035f8473ffffffffffffffffffffffffffffffffffffffff1673ffffffffffffffffffffffffffffffffffffffff1681526020019081526020015f205f82825401925050819055508160025f8381526020019081526020015f205f6101000a81548173ffffffffffffffffffffffffffffffffffffffff021916908373ffffffffffffffffffffffffffffffffffffffff160217905550808273ffffffffffffffffffffffffffffffffffffffff165f73ffffffffffffffffffffffffffffffffffffffff167fddf252ad1be2c89b69c2b068fc378daa952ba7f163c4a11628f55a4df523b3ef60405160405180910390a46121e25f838360016125a0565b5050565b6121f1848484611947565b6121fd848484846125fa565b61223c576040517f08c379a0000000000000000000000000000000000000000000000000000000008152600401612233906144da565b60405180910390fd5b50505050565b6060600e805461225190613438565b80601f016020809104026020016040519081016040528092919081815260200182805461227d90613438565b80156122c85780601f1061229f576101008083540402835291602001916122c8565b820191905f5260205f20905b8154815290600101906020018083116122ab57829003601f168201915b5050505050905090565b60605f60016122e08461277c565b0190505f8167ffffffffffffffff8111156122fe576122fd612f20565b5b6040519080825280601f01601f1916602001820160405280156123305781602001600182028036833780820191505090505b5090505f82602001820190505b600115612391578080600190039150507f3031323334353637383961626364656600000000000000000000000000000000600a86061a8153600a8581612386576123856144f8565b5b0494505f850361233d575b819350505050919050565b5f7f01ffc9a7000000000000000000000000000000000000000000000000000000007bffffffffffffffffffffffffffffffffffffffffffffffffffffffff1916827bffffffffffffffffffffffffffffffffffffffffffffffffffffffff1916149050919050565b5f8073ffffffffffffffffffffffffffffffffffffffff1661242683611ccb565b73ffffffffffffffffffffffffffffffffffffffff1614159050919050565b612451848484846128cd565b6001811115612495576040517f08c379a000000000000000000000000000000000000000000000000000000000815260040161248c90614595565b60405180910390fd5b5f8290505f73ffffffffffffffffffffffffffffffffffffffff168573ffffffffffffffffffffffffffffffffffffffff16036124da576124d5816128d3565b612519565b8373ffffffffffffffffffffffffffffffffffffffff168573ffffffffffffffffffffffffffffffffffffffff1614612518576125178582612917565b5b5b5f73ffffffffffffffffffffffffffffffffffffffff168473ffffffffffffffffffffffffffffffffffffffff160361255a5761255581612a6d565b612599565b8473ffffffffffffffffffffffffffffffffffffffff168473ffffffffffffffffffffffffffffffffffffffff1614612598576125978482612b2d565b5b5b5050505050565b50505050565b5f808290505f5b84518110156125ef576125da828683815181106125cd576125cc6137c1565b5b6020026020010151612ba5565b915080806125e790613e23565b9150506125ad565b508091505092915050565b5f61261a8473ffffffffffffffffffffffffffffffffffffffff16611e13565b1561276f578373ffffffffffffffffffffffffffffffffffffffff1663150b7a026126436117f6565b8786866040518563ffffffff1660e01b815260040161266594939291906145b3565b6020604051808303815f875af19250505080156126a057506040513d601f19601f8201168201806040525081019061269d9190613bd9565b60015b61271f573d805f81146126ce576040519150601f19603f3d011682016040523d82523d5f602084013e6126d3565b606091505b505f815103612717576040517f08c379a000000000000000000000000000000000000000000000000000000000815260040161270e906144da565b60405180910390fd5b805181602001fd5b63150b7a0260e01b7bffffffffffffffffffffffffffffffffffffffffffffffffffffffff1916817bffffffffffffffffffffffffffffffffffffffffffffffffffffffff191614915050612774565b600190505b949350505050565b5f805f90507a184f03e93ff9f4daa797ed6e38ed64bf6a1f01000000000000000083106127d8577a184f03e93ff9f4daa797ed6e38ed64bf6a1f01000000000000000083816127ce576127cd6144f8565b5b0492506040810190505b6d04ee2d6d415b85acef81000000008310612815576d04ee2d6d415b85acef8100000000838161280b5761280a6144f8565b5b0492506020810190505b662386f26fc10000831061284457662386f26fc10000838161283a576128396144f8565b5b0492506010810190505b6305f5e100831061286d576305f5e1008381612863576128626144f8565b5b0492506008810190505b6127108310612892576127108381612888576128876144f8565b5b0492506004810190505b606483106128b557606483816128ab576128aa6144f8565b5b0492506002810190505b600a83106128c4576001810190505b80915050919050565b50505050565b60088054905060095f8381526020019081526020015f2081905550600881908060018154018082558091505060019003905f5260205f20015f909190919091505550565b5f600161292384610dba565b61292d91906145fd565b90505f60075f8481526020019081526020015f20549050818114612a04575f60065f8673ffffffffffffffffffffffffffffffffffffffff1673ffffffffffffffffffffffffffffffffffffffff1681526020019081526020015f205f8481526020019081526020015f205490508060065f8773ffffffffffffffffffffffffffffffffffffffff1673ffffffffffffffffffffffffffffffffffffffff1681526020019081526020015f205f8481526020019081526020015f20819055508160075f8381526020019081526020015f2081905550505b60075f8481526020019081526020015f205f905560065f8573ffffffffffffffffffffffffffffffffffffffff1673ffffffffffffffffffffffffffffffffffffffff1681526020019081526020015f205f8381526020019081526020015f205f905550505050565b5f6001600880549050612a8091906145fd565b90505f60095f8481526020019081526020015f205490505f60088381548110612aac57612aab6137c1565b5b905f5260205f20015490508060088381548110612acc57612acb6137c1565b5b905f5260205f2001819055508160095f8381526020019081526020015f208190555060095f8581526020019081526020015f205f90556008805480612b1457612b13614630565b5b600190038181905f5260205f20015f9055905550505050565b5f612b3783610dba565b90508160065f8573ffffffffffffffffffffffffffffffffffffffff1673ffffffffffffffffffffffffffffffffffffffff1681526020019081526020015f205f8381526020019081526020015f20819055508060075f8481526020019081526020015f2081905550505050565b5f818310612bbc57612bb78284612bcf565b612bc7565b612bc68383612bcf565b5b905092915050565b5f825f528160205260405f20905092915050565b5f604051905090565b5f80fd5b5f80fd5b5f7fffffffff0000000000000000000000000000000000000000000000000000000082169050919050565b612c2881612bf4565b8114612c32575f80fd5b50565b5f81359050612c4381612c1f565b92915050565b5f60208284031215612c5e57612c5d612bec565b5b5f612c6b84828501612c35565b91505092915050565b5f8115159050919050565b612c8881612c74565b82525050565b5f602082019050612ca15f830184612c7f565b92915050565b5f81519050919050565b5f82825260208201905092915050565b5f5b83811015612cde578082015181840152602081019050612cc3565b5f8484015250505050565b5f601f19601f8301169050919050565b5f612d0382612ca7565b612d0d8185612cb1565b9350612d1d818560208601612cc1565b612d2681612ce9565b840191505092915050565b5f6020820190508181035f830152612d498184612cf9565b905092915050565b5f819050919050565b612d6381612d51565b8114612d6d575f80fd5b50565b5f81359050612d7e81612d5a565b92915050565b5f60208284031215612d9957612d98612bec565b5b5f612da684828501612d70565b91505092915050565b5f73ffffffffffffffffffffffffffffffffffffffff82169050919050565b5f612dd882612daf565b9050919050565b612de881612dce565b82525050565b5f602082019050612e015f830184612ddf565b92915050565b612e1081612dce565b8114612e1a575f80fd5b50565b5f81359050612e2b81612e07565b92915050565b5f8060408385031215612e4757612e46612bec565b5b5f612e5485828601612e1d565b9250506020612e6585828601612d70565b9150509250929050565b612e7881612d51565b82525050565b5f602082019050612e915f830184612e6f565b92915050565b5f805f60608486031215612eae57612ead612bec565b5b5f612ebb86828701612e1d565b9350506020612ecc86828701612e1d565b9250506040612edd86828701612d70565b9150509250925092565b5f819050919050565b612ef981612ee7565b82525050565b5f602082019050612f125f830184612ef0565b92915050565b5f80fd5b5f80fd5b7f4e487b71000000000000000000000000000000000000000000000000000000005f52604160045260245ffd5b612f5682612ce9565b810181811067ffffffffffffffff82111715612f7557612f74612f20565b5b80604052505050565b5f612f87612be3565b9050612f938282612f4d565b919050565b5f67ffffffffffffffff821115612fb257612fb1612f20565b5b612fbb82612ce9565b9050602081019050919050565b828183375f83830152505050565b5f612fe8612fe384612f98565b612f7e565b90508281526020810184848401111561300457613003612f1c565b5b61300f848285612fc8565b509392505050565b5f82601f83011261302b5761302a612f18565b5b813561303b848260208601612fd6565b91505092915050565b5f6020828403121561305957613058612bec565b5b5f82013567ffffffffffffffff81111561307657613075612bf0565b5b61308284828501613017565b91505092915050565b5f602082840312156130a05761309f612bec565b5b5f6130ad84828501612e1d565b91505092915050565b5f60ff82169050919050565b6130cb816130b6565b81146130d5575f80fd5b50565b5f813590506130e6816130c2565b92915050565b6130f581612ee7565b81146130ff575f80fd5b50565b5f81359050613110816130ec565b92915050565b5f805f805f8060c087890312156131305761312f612bec565b5b5f61313d89828a01612e1d565b965050602061314e89828a01612d70565b955050604061315f89828a01612d70565b945050606061317089828a016130d8565b935050608061318189828a01613102565b92505060a061319289828a01613102565b9150509295509295509295565b6131a881612c74565b81146131b2575f80fd5b50565b5f813590506131c38161319f565b92915050565b5f80604083850312156131df576131de612bec565b5b5f6131ec85828601612e1d565b92505060206131fd858286016131b5565b9150509250929050565b5f80fd5b5f80fd5b5f8083601f84011261322457613223612f18565b5b8235905067ffffffffffffffff81111561324157613240613207565b5b60208301915083602082028301111561325d5761325c61320b565b5b9250929050565b5f806020838503121561327a57613279612bec565b5b5f83013567ffffffffffffffff81111561329757613296612bf0565b5b6132a38582860161320f565b92509250509250929050565b5f67ffffffffffffffff8211156132c9576132c8612f20565b5b6132d282612ce9565b9050602081019050919050565b5f6132f16132ec846132af565b612f7e565b90508281526020810184848401111561330d5761330c612f1c565b5b613318848285612fc8565b509392505050565b5f82601f83011261333457613333612f18565b5b81356133448482602086016132df565b91505092915050565b5f805f806080858703121561336557613364612bec565b5b5f61337287828801612e1d565b945050602061338387828801612e1d565b935050604061339487828801612d70565b925050606085013567ffffffffffffffff8111156133b5576133b4612bf0565b5b6133c187828801613320565b91505092959194509250565b5f80604083850312156133e3576133e2612bec565b5b5f6133f085828601612e1d565b925050602061340185828601612e1d565b9150509250929050565b7f4e487b71000000000000000000000000000000000000000000000000000000005f52602260045260245ffd5b5f600282049050600182168061344f57607f821691505b6020821081036134625761346161340b565b5b50919050565b7f4552433732313a20617070726f76616c20746f2063757272656e74206f776e655f8201527f7200000000000000000000000000000000000000000000000000000000000000602082015250565b5f6134c2602183612cb1565b91506134cd82613468565b604082019050919050565b5f6020820190508181035f8301526134ef816134b6565b9050919050565b7f4552433732313a20617070726f76652063616c6c6572206973206e6f7420746f5f8201527f6b656e206f776e6572206f7220617070726f76656420666f7220616c6c000000602082015250565b5f613550603d83612cb1565b915061355b826134f6565b604082019050919050565b5f6020820190508181035f83015261357d81613544565b9050919050565b7f4552433732313a2063616c6c6572206973206e6f7420746f6b656e206f776e655f8201527f72206f7220617070726f76656400000000000000000000000000000000000000602082015250565b5f6135de602d83612cb1565b91506135e982613584565b604082019050919050565b5f6020820190508181035f83015261360b816135d2565b9050919050565b7f455243373231456e756d657261626c653a206f776e657220696e646578206f755f8201527f74206f6620626f756e6473000000000000000000000000000000000000000000602082015250565b5f61366c602b83612cb1565b915061367782613612565b604082019050919050565b5f6020820190508181035f83015261369981613660565b9050919050565b5f819050919050565b5f819050919050565b5f6136cc6136c76136c2846136a0565b6136a9565b612d51565b9050919050565b6136dc816136b2565b82525050565b5f60a0820190506136f55f8301886136d3565b6137026020830187612ef0565b61370f6040830186612ef0565b61371c6060830185612e6f565b6137296080830184612ddf565b9695505050505050565b7f455243373231456e756d657261626c653a20676c6f62616c20696e646578206f5f8201527f7574206f6620626f756e64730000000000000000000000000000000000000000602082015250565b5f61378d602c83612cb1565b915061379882613733565b604082019050919050565b5f6020820190508181035f8301526137ba81613781565b9050919050565b7f4e487b71000000000000000000000000000000000000000000000000000000005f52603260045260245ffd5b7f4552433732313a20696e76616c696420746f6b656e20494400000000000000005f82015250565b5f613822601883612cb1565b915061382d826137ee565b602082019050919050565b5f6020820190508181035f83015261384f81613816565b9050919050565b7f4552433732313a2061646472657373207a65726f206973206e6f7420612076615f8201527f6c6964206f776e65720000000000000000000000000000000000000000000000602082015250565b5f6138b0602983612cb1565b91506138bb82613856565b604082019050919050565b5f6020820190508181035f8301526138dd816138a4565b9050919050565b7f5065726d697420657870697265640000000000000000000000000000000000005f82015250565b5f613918600e83612cb1565b9150613923826138e4565b602082019050919050565b5f6020820190508181035f8301526139458161390c565b9050919050565b5f60a08201905061395f5f830188612ef0565b61396c6020830187612ddf565b6139796040830186612e6f565b6139866060830185612e6f565b6139936080830184612e6f565b9695505050505050565b5f81905092915050565b7f19010000000000000000000000000000000000000000000000000000000000005f82015250565b5f6139db60028361399d565b91506139e6826139a7565b600282019050919050565b5f819050919050565b613a0b613a0682612ee7565b6139f1565b82525050565b5f613a1b826139cf565b9150613a2782856139fa565b602082019150613a3782846139fa565b6020820191508190509392505050565b7f4552433732315065726d69743a20617070726f76616c20746f2063757272656e5f8201527f74206f776e657200000000000000000000000000000000000000000000000000602082015250565b5f613aa1602783612cb1565b9150613aac82613a47565b604082019050919050565b5f6020820190508181035f830152613ace81613a95565b9050919050565b5f8160f81b9050919050565b5f613aeb82613ad5565b9050919050565b613b03613afe826130b6565b613ae1565b82525050565b5f613b1482866139fa565b602082019150613b2482856139fa565b602082019150613b348284613af2565b600182019150819050949350505050565b5f81519050919050565b5f82825260208201905092915050565b5f613b6982613b45565b613b738185613b4f565b9350613b83818560208601612cc1565b613b8c81612ce9565b840191505092915050565b5f604082019050613baa5f830185612ef0565b8181036020830152613bbc8184613b5f565b90509392505050565b5f81519050613bd381612c1f565b92915050565b5f60208284031215613bee57613bed612bec565b5b5f613bfb84828501613bc5565b91505092915050565b7f556e617574686f72697a656400000000000000000000000000000000000000005f82015250565b5f613c38600c83612cb1565b9150613c4382613c04565b602082019050919050565b5f6020820190508181035f830152613c6581613c2c565b9050919050565b613c75816130b6565b82525050565b5f608082019050613c8e5f830187612ef0565b613c9b6020830186613c6c565b613ca86040830185612ef0565b613cb56060830184612ef0565b95945050505050565b7f496e76616c6964207369676e61747572650000000000000000000000000000005f82015250565b5f613cf2601183612cb1565b9150613cfd82613cbe565b602082019050919050565b5f6020820190508181035f830152613d1f81613ce6565b9050919050565b7f616c726561647920636c61696d656400000000000000000000000000000000005f82015250565b5f613d5a600f83612cb1565b9150613d6582613d26565b602082019050919050565b5f6020820190508181035f830152613d8781613d4e565b9050919050565b7f696e76616c6964206d65726b6c652070726f6f660000000000000000000000005f82015250565b5f613dc2601483612cb1565b9150613dcd82613d8e565b602082019050919050565b5f6020820190508181035f830152613def81613db6565b9050919050565b7f4e487b71000000000000000000000000000000000000000000000000000000005f52601160045260245ffd5b5f613e2d82612d51565b91507fffffffffffffffffffffffffffffffffffffffffffffffffffffffffffffffff8203613e5f57613e5e613df6565b5b600182019050919050565b5f613e7482612ca7565b613e7e818561399d565b9350613e8e818560208601612cc1565b80840191505092915050565b5f613ea58285613e6a565b9150613eb18284613e6a565b91508190509392505050565b7f4f776e61626c653a206e6577206f776e657220697320746865207a65726f20615f8201527f6464726573730000000000000000000000000000000000000000000000000000602082015250565b5f613f17602683612cb1565b9150613f2282613ebd565b604082019050919050565b5f6020820190508181035f830152613f4481613f0b565b9050919050565b7f4552433732313a207472616e736665722066726f6d20696e636f7272656374205f8201527f6f776e6572000000000000000000000000000000000000000000000000000000602082015250565b5f613fa5602583612cb1565b9150613fb082613f4b565b604082019050919050565b5f6020820190508181035f830152613fd281613f99565b9050919050565b7f4552433732313a207472616e7366657220746f20746865207a65726f206164645f8201527f7265737300000000000000000000000000000000000000000000000000000000602082015250565b5f614033602483612cb1565b915061403e82613fd9565b604082019050919050565b5f6020820190508181035f83015261406081614027565b9050919050565b7f4f776e61626c653a2063616c6c6572206973206e6f7420746865206f776e65725f82015250565b5f61409b602083612cb1565b91506140a682614067565b602082019050919050565b5f6020820190508181035f8301526140c88161408f565b9050919050565b5f819050815f5260205f209050919050565b5f6020601f8301049050919050565b5f82821b905092915050565b5f6008830261412b7fffffffffffffffffffffffffffffffffffffffffffffffffffffffffffffffff826140f0565b61413586836140f0565b95508019841693508086168417925050509392505050565b5f61416761416261415d84612d51565b6136a9565b612d51565b9050919050565b5f819050919050565b6141808361414d565b61419461418c8261416e565b8484546140fc565b825550505050565b5f90565b6141a861419c565b6141b3818484614177565b505050565b5b818110156141d6576141cb5f826141a0565b6001810190506141b9565b5050565b601f82111561421b576141ec816140cf565b6141f5846140e1565b81016020851015614204578190505b614218614210856140e1565b8301826141b8565b50505b505050565b5f82821c905092915050565b5f61423b5f1984600802614220565b1980831691505092915050565b5f614253838361422c565b9150826002028217905092915050565b61426c82612ca7565b67ffffffffffffffff81111561428557614284612f20565b5b61428f8254613438565b61429a8282856141da565b5f60209050601f8311600181146142cb575f84156142b9578287015190505b6142c38582614248565b86555061432a565b601f1984166142d9866140cf565b5f5b82811015614300578489015182556001820191506020850194506020810190506142db565b8683101561431d5784890151614319601f89168261422c565b8355505b6001600288020188555050505b505050505050565b7f4552433732313a20617070726f766520746f2063616c6c6572000000000000005f82015250565b5f614366601983612cb1565b915061437182614332565b602082019050919050565b5f6020820190508181035f8301526143938161435a565b9050919050565b7f4552433732313a206d696e7420746f20746865207a65726f20616464726573735f82015250565b5f6143ce602083612cb1565b91506143d98261439a565b602082019050919050565b5f6020820190508181035f8301526143fb816143c2565b9050919050565b7f4552433732313a20746f6b656e20616c7265616479206d696e746564000000005f82015250565b5f614436601c83612cb1565b915061444182614402565b602082019050919050565b5f6020820190508181035f8301526144638161442a565b9050919050565b7f4552433732313a207472616e7366657220746f206e6f6e2045524337323152655f8201527f63656976657220696d706c656d656e7465720000000000000000000000000000602082015250565b5f6144c4603283612cb1565b91506144cf8261446a565b604082019050919050565b5f6020820190508181035f8301526144f1816144b8565b9050919050565b7f4e487b71000000000000000000000000000000000000000000000000000000005f52601260045260245ffd5b7f455243373231456e756d657261626c653a20636f6e73656375746976652074725f8201527f616e7366657273206e6f7420737570706f727465640000000000000000000000602082015250565b5f61457f603583612cb1565b915061458a82614525565b604082019050919050565b5f6020820190508181035f8301526145ac81614573565b9050919050565b5f6080820190506145c65f830187612ddf565b6145d36020830186612ddf565b6145e06040830185612e6f565b81810360608301526145f28184613b5f565b905095945050505050565b5f61460782612d51565b915061461283612d51565b925082820390508181111561462a57614629613df6565b5b92915050565b7f4e487b71000000000000000000000000000000000000000000000000000000005f52603160045260245ffdfea2646970667358221220a8e996ddcb78d0307ed367171e521d0935191dfe9bfd506939edb9e3be28564a64736f6c63430008140033697066733a2f2f62616679626569656e69616c6b6472707076646664616e7a7569776e7434356d346868636b617978727676686b747272766d6f77776b77723435612f","opcodes":"PUSH1 0xE0 PUSH1 0x40 MSTORE CALLVALUE DUP1 ISZERO PUSH3 0x10 JUMPI PUSH0 DUP1 REVERT JUMPDEST POP PUSH1 0x40 MLOAD PUSH3 0x4D14 CODESIZE SUB DUP1 PUSH3 0x4D14 DUP4 CODECOPY DUP2 DUP2 ADD PUSH1 0x40 MSTORE DUP2 ADD SWAP1 PUSH3 0x36 SWAP2 SWAP1 PUSH3 0x294 JUMP JUMPDEST PUSH1 0x40 MLOAD DUP1 PUSH1 0x40 ADD PUSH1 0x40 MSTORE DUP1 PUSH1 0x4 DUP2 MSTORE PUSH1 0x20 ADD PUSH32 0x5452495300000000000000000000000000000000000000000000000000000000 DUP2 MSTORE POP PUSH1 0x40 MLOAD DUP1 PUSH1 0x40 ADD PUSH1 0x40 MSTORE DUP1 PUSH1 0x4 DUP2 MSTORE PUSH1 0x20 ADD PUSH32 0x5452495300000000000000000000000000000000000000000000000000000000 DUP2 MSTORE POP PUSH1 0x40 MLOAD DUP1 PUSH1 0x40 ADD PUSH1 0x40 MSTORE DUP1 PUSH1 0x1 DUP2 MSTORE PUSH1 0x20 ADD PUSH32 0x3100000000000000000000000000000000000000000000000000000000000000 DUP2 MSTORE POP DUP3 DUP3 DUP2 PUSH0 SWAP1 DUP2 PUSH3 0xEA SWAP2 SWAP1 PUSH3 0x528 JUMP JUMPDEST POP DUP1 PUSH1 0x1 SWAP1 DUP2 PUSH3 0xFC SWAP2 SWAP1 PUSH3 0x528 JUMP JUMPDEST POP POP POP DUP3 DUP1 MLOAD SWAP1 PUSH1 0x20 ADD KECCAK256 PUSH1 0x80 DUP2 DUP2 MSTORE POP POP DUP1 DUP1 MLOAD SWAP1 PUSH1 0x20 ADD KECCAK256 PUSH1 0xA0 DUP2 DUP2 MSTORE POP POP POP POP POP PUSH3 0x140 PUSH3 0x134 PUSH3 0x179 PUSH1 0x20 SHL PUSH1 0x20 SHR JUMP JUMPDEST PUSH3 0x180 PUSH1 0x20 SHL PUSH1 0x20 SHR JUMP JUMPDEST DUP1 PUSH1 0xC0 DUP2 DUP2 MSTORE POP POP PUSH3 0x172 PUSH1 0x40 MLOAD DUP1 PUSH1 0x80 ADD PUSH1 0x40 MSTORE DUP1 PUSH1 0x43 DUP2 MSTORE PUSH1 0x20 ADD PUSH3 0x4CD1 PUSH1 0x43 SWAP2 CODECOPY PUSH3 0x243 PUSH1 0x20 SHL PUSH1 0x20 SHR JUMP JUMPDEST POP PUSH3 0x60C JUMP JUMPDEST PUSH0 CALLER SWAP1 POP SWAP1 JUMP JUMPDEST PUSH0 PUSH1 0xA PUSH0 SWAP1 SLOAD SWAP1 PUSH2 0x100 EXP SWAP1 DIV PUSH20 0xFFFFFFFFFFFFFFFFFFFFFFFFFFFFFFFFFFFFFFFF AND SWAP1 POP DUP2 PUSH1 0xA PUSH0 PUSH2 0x100 EXP DUP2 SLOAD DUP2 PUSH20 0xFFFFFFFFFFFFFFFFFFFFFFFFFFFFFFFFFFFFFFFF MUL NOT AND SWAP1 DUP4 PUSH20 0xFFFFFFFFFFFFFFFFFFFFFFFFFFFFFFFFFFFFFFFF AND MUL OR SWAP1 SSTORE POP DUP2 PUSH20 0xFFFFFFFFFFFFFFFFFFFFFFFFFFFFFFFFFFFFFFFF AND DUP2 PUSH20 0xFFFFFFFFFFFFFFFFFFFFFFFFFFFFFFFFFFFFFFFF AND PUSH32 0x8BE0079C531659141344CD1FD0A4F28419497F9722A3DAAFE3B4186F6B6457E0 PUSH1 0x40 MLOAD PUSH1 0x40 MLOAD DUP1 SWAP2 SUB SWAP1 LOG3 POP POP JUMP JUMPDEST DUP1 PUSH1 0xE SWAP1 DUP2 PUSH3 0x254 SWAP2 SWAP1 PUSH3 0x528 JUMP JUMPDEST POP POP JUMP JUMPDEST PUSH0 DUP1 REVERT JUMPDEST PUSH0 DUP2 SWAP1 POP SWAP2 SWAP1 POP JUMP JUMPDEST PUSH3 0x270 DUP2 PUSH3 0x25C JUMP JUMPDEST DUP2 EQ PUSH3 0x27B JUMPI PUSH0 DUP1 REVERT JUMPDEST POP JUMP JUMPDEST PUSH0 DUP2 MLOAD SWAP1 POP PUSH3 0x28E DUP2 PUSH3 0x265 JUMP JUMPDEST SWAP3 SWAP2 POP POP JUMP JUMPDEST PUSH0 PUSH1 0x20 DUP3 DUP5 SUB SLT ISZERO PUSH3 0x2AC JUMPI PUSH3 0x2AB PUSH3 0x258 JUMP JUMPDEST JUMPDEST PUSH0 PUSH3 0x2BB DUP5 DUP3 DUP6 ADD PUSH3 0x27E JUMP JUMPDEST SWAP2 POP POP SWAP3 SWAP2 POP POP JUMP JUMPDEST PUSH0 DUP2 MLOAD SWAP1 POP SWAP2 SWAP1 POP JUMP JUMPDEST PUSH32 0x4E487B7100000000000000000000000000000000000000000000000000000000 PUSH0 MSTORE PUSH1 0x41 PUSH1 0x4 MSTORE PUSH1 0x24 PUSH0 REVERT JUMPDEST PUSH32 0x4E487B7100000000000000000000000000000000000000000000000000000000 PUSH0 MSTORE PUSH1 0x22 PUSH1 0x4 MSTORE PUSH1 0x24 PUSH0 REVERT JUMPDEST PUSH0 PUSH1 0x2 DUP3 DIV SWAP1 POP PUSH1 0x1 DUP3 AND DUP1 PUSH3 0x340 JUMPI PUSH1 0x7F DUP3 AND SWAP2 POP JUMPDEST PUSH1 0x20 DUP3 LT DUP2 SUB PUSH3 0x356 JUMPI PUSH3 0x355 PUSH3 0x2FB JUMP JUMPDEST JUMPDEST POP SWAP2 SWAP1 POP JUMP JUMPDEST PUSH0 DUP2 SWAP1 POP DUP2 PUSH0 MSTORE PUSH1 0x20 PUSH0 KECCAK256 SWAP1 POP SWAP2 SWAP1 POP JUMP JUMPDEST PUSH0 PUSH1 0x20 PUSH1 0x1F DUP4 ADD DIV SWAP1 POP SWAP2 SWAP1 POP JUMP JUMPDEST PUSH0 DUP3 DUP3 SHL SWAP1 POP SWAP3 SWAP2 POP POP JUMP JUMPDEST PUSH0 PUSH1 0x8 DUP4 MUL PUSH3 0x3BA PUSH32 0xFFFFFFFFFFFFFFFFFFFFFFFFFFFFFFFFFFFFFFFFFFFFFFFFFFFFFFFFFFFFFFFF DUP3 PUSH3 0x37D JUMP JUMPDEST PUSH3 0x3C6 DUP7 DUP4 PUSH3 0x37D JUMP JUMPDEST SWAP6 POP DUP1 NOT DUP5 AND SWAP4 POP DUP1 DUP7 AND DUP5 OR SWAP3 POP POP POP SWAP4 SWAP3 POP POP POP JUMP JUMPDEST PUSH0 DUP2 SWAP1 POP SWAP2 SWAP1 POP JUMP JUMPDEST PUSH0 DUP2 SWAP1 POP SWAP2 SWAP1 POP JUMP JUMPDEST PUSH0 PUSH3 0x410 PUSH3 0x40A PUSH3 0x404 DUP5 PUSH3 0x3DE JUMP JUMPDEST PUSH3 0x3E7 JUMP JUMPDEST PUSH3 0x3DE JUMP JUMPDEST SWAP1 POP SWAP2 SWAP1 POP JUMP JUMPDEST PUSH0 DUP2 SWAP1 POP SWAP2 SWAP1 POP JUMP JUMPDEST PUSH3 0x42B DUP4 PUSH3 0x3F0 JUMP JUMPDEST PUSH3 0x443 PUSH3 0x43A DUP3 PUSH3 0x417 JUMP JUMPDEST DUP5 DUP5 SLOAD PUSH3 0x389 JUMP JUMPDEST DUP3 SSTORE POP POP POP POP JUMP JUMPDEST PUSH0 SWAP1 JUMP JUMPDEST PUSH3 0x459 PUSH3 0x44B JUMP JUMPDEST PUSH3 0x466 DUP2 DUP5 DUP5 PUSH3 0x420 JUMP JUMPDEST POP POP POP JUMP JUMPDEST JUMPDEST DUP2 DUP2 LT ISZERO PUSH3 0x48D JUMPI PUSH3 0x481 PUSH0 DUP3 PUSH3 0x44F JUMP JUMPDEST PUSH1 0x1 DUP2 ADD SWAP1 POP PUSH3 0x46C JUMP JUMPDEST POP POP JUMP JUMPDEST PUSH1 0x1F DUP3 GT ISZERO PUSH3 0x4DC JUMPI PUSH3 0x4A6 DUP2 PUSH3 0x35C JUMP JUMPDEST PUSH3 0x4B1 DUP5 PUSH3 0x36E JUMP JUMPDEST DUP2 ADD PUSH1 0x20 DUP6 LT ISZERO PUSH3 0x4C1 JUMPI DUP2 SWAP1 POP JUMPDEST PUSH3 0x4D9 PUSH3 0x4D0 DUP6 PUSH3 0x36E JUMP JUMPDEST DUP4 ADD DUP3 PUSH3 0x46B JUMP JUMPDEST POP POP JUMPDEST POP POP POP JUMP JUMPDEST PUSH0 DUP3 DUP3 SHR SWAP1 POP SWAP3 SWAP2 POP POP JUMP JUMPDEST PUSH0 PUSH3 0x4FE PUSH0 NOT DUP5 PUSH1 0x8 MUL PUSH3 0x4E1 JUMP JUMPDEST NOT DUP1 DUP4 AND SWAP2 POP POP SWAP3 SWAP2 POP POP JUMP JUMPDEST PUSH0 PUSH3 0x518 DUP4 DUP4 PUSH3 0x4ED JUMP JUMPDEST SWAP2 POP DUP3 PUSH1 0x2 MUL DUP3 OR SWAP1 POP SWAP3 SWAP2 POP POP JUMP JUMPDEST PUSH3 0x533 DUP3 PUSH3 0x2C4 JUMP JUMPDEST PUSH8 0xFFFFFFFFFFFFFFFF DUP2 GT ISZERO PUSH3 0x54F JUMPI PUSH3 0x54E PUSH3 0x2CE JUMP JUMPDEST JUMPDEST PUSH3 0x55B DUP3 SLOAD PUSH3 0x328 JUMP JUMPDEST PUSH3 0x568 DUP3 DUP3 DUP6 PUSH3 0x491 JUMP JUMPDEST PUSH0 PUSH1 0x20 SWAP1 POP PUSH1 0x1F DUP4 GT PUSH1 0x1 DUP2 EQ PUSH3 0x59E JUMPI PUSH0 DUP5 ISZERO PUSH3 0x589 JUMPI DUP3 DUP8 ADD MLOAD SWAP1 POP JUMPDEST PUSH3 0x595 DUP6 DUP3 PUSH3 0x50B JUMP JUMPDEST DUP7 SSTORE POP PUSH3 0x604 JUMP JUMPDEST PUSH1 0x1F NOT DUP5 AND PUSH3 0x5AE DUP7 PUSH3 0x35C JUMP JUMPDEST PUSH0 JUMPDEST DUP3 DUP2 LT ISZERO PUSH3 0x5D7 JUMPI DUP5 DUP10 ADD MLOAD DUP3 SSTORE PUSH1 0x1 DUP3 ADD SWAP2 POP PUSH1 0x20 DUP6 ADD SWAP5 POP PUSH1 0x20 DUP2 ADD SWAP1 POP PUSH3 0x5B0 JUMP JUMPDEST DUP7 DUP4 LT ISZERO PUSH3 0x5F7 JUMPI DUP5 DUP10 ADD MLOAD PUSH3 0x5F3 PUSH1 0x1F DUP10 AND DUP3 PUSH3 0x4ED JUMP JUMPDEST DUP4 SSTORE POP JUMPDEST PUSH1 0x1 PUSH1 0x2 DUP9 MUL ADD DUP9 SSTORE POP POP POP JUMPDEST POP POP POP POP POP POP JUMP JUMPDEST PUSH1 0x80 MLOAD PUSH1 0xA0 MLOAD PUSH1 0xC0 MLOAD PUSH2 0x4693 PUSH3 0x63E PUSH0 CODECOPY PUSH0 DUP2 DUP2 PUSH2 0xA48 ADD MSTORE PUSH2 0x142A ADD MSTORE PUSH0 PUSH2 0xB75 ADD MSTORE PUSH0 PUSH2 0xB54 ADD MSTORE PUSH2 0x4693 PUSH0 RETURN INVALID PUSH1 0x80 PUSH1 0x40 MSTORE PUSH1 0x4 CALLDATASIZE LT PUSH2 0x1D7 JUMPI PUSH0 CALLDATALOAD PUSH1 0xE0 SHR DUP1 PUSH4 0x6352211E GT PUSH2 0x101 JUMPI DUP1 PUSH4 0xA22CB465 GT PUSH2 0x94 JUMPI DUP1 PUSH4 0xC884EF83 GT PUSH2 0x63 JUMPI DUP1 PUSH4 0xC884EF83 EQ PUSH2 0x69D JUMPI DUP1 PUSH4 0xE58306F9 EQ PUSH2 0x6D9 JUMPI DUP1 PUSH4 0xE985E9C5 EQ PUSH2 0x701 JUMPI DUP1 PUSH4 0xF2FDE38B EQ PUSH2 0x73D JUMPI PUSH2 0x1D7 JUMP JUMPDEST DUP1 PUSH4 0xA22CB465 EQ PUSH2 0x5F5 JUMPI DUP1 PUSH4 0xB77A147B EQ PUSH2 0x61D JUMPI DUP1 PUSH4 0xB88D4FDE EQ PUSH2 0x639 JUMPI DUP1 PUSH4 0xC87B56DD EQ PUSH2 0x661 JUMPI PUSH2 0x1D7 JUMP JUMPDEST DUP1 PUSH4 0x75794A3C GT PUSH2 0xD0 JUMPI DUP1 PUSH4 0x75794A3C EQ PUSH2 0x55B JUMPI DUP1 PUSH4 0x7AC2FF7B EQ PUSH2 0x585 JUMPI DUP1 PUSH4 0x8DA5CB5B EQ PUSH2 0x5A1 JUMPI DUP1 PUSH4 0x95D89B41 EQ PUSH2 0x5CB JUMPI PUSH2 0x1D7 JUMP JUMPDEST DUP1 PUSH4 0x6352211E EQ PUSH2 0x4A3 JUMPI DUP1 PUSH4 0x6E34A482 EQ PUSH2 0x4DF JUMPI DUP1 PUSH4 0x70A08231 EQ PUSH2 0x509 JUMPI DUP1 PUSH4 0x715018A6 EQ PUSH2 0x545 JUMPI PUSH2 0x1D7 JUMP JUMPDEST DUP1 PUSH4 0x2EB4A7AB GT PUSH2 0x179 JUMPI DUP1 PUSH4 0x42842E0E GT PUSH2 0x148 JUMPI DUP1 PUSH4 0x42842E0E EQ PUSH2 0x3ED JUMPI DUP1 PUSH4 0x4F6CCCE7 EQ PUSH2 0x415 JUMPI DUP1 PUSH4 0x54FD4D50 EQ PUSH2 0x451 JUMPI DUP1 PUSH4 0x55F804B3 EQ PUSH2 0x47B JUMPI PUSH2 0x1D7 JUMP JUMPDEST DUP1 PUSH4 0x2EB4A7AB EQ PUSH2 0x333 JUMPI DUP1 PUSH4 0x2F745C59 EQ PUSH2 0x35D JUMPI DUP1 PUSH4 0x30ADF81F EQ PUSH2 0x399 JUMPI DUP1 PUSH4 0x3644E515 EQ PUSH2 0x3C3 JUMPI PUSH2 0x1D7 JUMP JUMPDEST DUP1 PUSH4 0x95EA7B3 GT PUSH2 0x1B5 JUMPI DUP1 PUSH4 0x95EA7B3 EQ PUSH2 0x27D JUMPI DUP1 PUSH4 0x141A468C EQ PUSH2 0x2A5 JUMPI DUP1 PUSH4 0x18160DDD EQ PUSH2 0x2E1 JUMPI DUP1 PUSH4 0x23B872DD EQ PUSH2 0x30B JUMPI PUSH2 0x1D7 JUMP JUMPDEST DUP1 PUSH4 0x1FFC9A7 EQ PUSH2 0x1DB JUMPI DUP1 PUSH4 0x6FDDE03 EQ PUSH2 0x217 JUMPI DUP1 PUSH4 0x81812FC EQ PUSH2 0x241 JUMPI JUMPDEST PUSH0 DUP1 REVERT JUMPDEST CALLVALUE DUP1 ISZERO PUSH2 0x1E6 JUMPI PUSH0 DUP1 REVERT JUMPDEST POP PUSH2 0x201 PUSH1 0x4 DUP1 CALLDATASIZE SUB DUP2 ADD SWAP1 PUSH2 0x1FC SWAP2 SWAP1 PUSH2 0x2C49 JUMP JUMPDEST PUSH2 0x765 JUMP JUMPDEST PUSH1 0x40 MLOAD PUSH2 0x20E SWAP2 SWAP1 PUSH2 0x2C8E JUMP JUMPDEST PUSH1 0x40 MLOAD DUP1 SWAP2 SUB SWAP1 RETURN JUMPDEST CALLVALUE DUP1 ISZERO PUSH2 0x222 JUMPI PUSH0 DUP1 REVERT JUMPDEST POP PUSH2 0x22B PUSH2 0x7DE JUMP JUMPDEST PUSH1 0x40 MLOAD PUSH2 0x238 SWAP2 SWAP1 PUSH2 0x2D31 JUMP JUMPDEST PUSH1 0x40 MLOAD DUP1 SWAP2 SUB SWAP1 RETURN JUMPDEST CALLVALUE DUP1 ISZERO PUSH2 0x24C JUMPI PUSH0 DUP1 REVERT JUMPDEST POP PUSH2 0x267 PUSH1 0x4 DUP1 CALLDATASIZE SUB DUP2 ADD SWAP1 PUSH2 0x262 SWAP2 SWAP1 PUSH2 0x2D84 JUMP JUMPDEST PUSH2 0x86D JUMP JUMPDEST PUSH1 0x40 MLOAD PUSH2 0x274 SWAP2 SWAP1 PUSH2 0x2DEE JUMP JUMPDEST PUSH1 0x40 MLOAD DUP1 SWAP2 SUB SWAP1 RETURN JUMPDEST CALLVALUE DUP1 ISZERO PUSH2 0x288 JUMPI PUSH0 DUP1 REVERT JUMPDEST POP PUSH2 0x2A3 PUSH1 0x4 DUP1 CALLDATASIZE SUB DUP2 ADD SWAP1 PUSH2 0x29E SWAP2 SWAP1 PUSH2 0x2E31 JUMP JUMPDEST PUSH2 0x8AF JUMP JUMPDEST STOP JUMPDEST CALLVALUE DUP1 ISZERO PUSH2 0x2B0 JUMPI PUSH0 DUP1 REVERT JUMPDEST POP PUSH2 0x2CB PUSH1 0x4 DUP1 CALLDATASIZE SUB DUP2 ADD SWAP1 PUSH2 0x2C6 SWAP2 SWAP1 PUSH2 0x2D84 JUMP JUMPDEST PUSH2 0x9C5 JUMP JUMPDEST PUSH1 0x40 MLOAD PUSH2 0x2D8 SWAP2 SWAP1 PUSH2 0x2E7E JUMP JUMPDEST PUSH1 0x40 MLOAD DUP1 SWAP2 SUB SWAP1 RETURN JUMPDEST CALLVALUE DUP1 ISZERO PUSH2 0x2EC JUMPI PUSH0 DUP1 REVERT JUMPDEST POP PUSH2 0x2F5 PUSH2 0x9DA JUMP JUMPDEST PUSH1 0x40 MLOAD PUSH2 0x302 SWAP2 SWAP1 PUSH2 0x2E7E JUMP JUMPDEST PUSH1 0x40 MLOAD DUP1 SWAP2 SUB SWAP1 RETURN JUMPDEST CALLVALUE DUP1 ISZERO PUSH2 0x316 JUMPI PUSH0 DUP1 REVERT JUMPDEST POP PUSH2 0x331 PUSH1 0x4 DUP1 CALLDATASIZE SUB DUP2 ADD SWAP1 PUSH2 0x32C SWAP2 SWAP1 PUSH2 0x2E97 JUMP JUMPDEST PUSH2 0x9E6 JUMP JUMPDEST STOP JUMPDEST CALLVALUE DUP1 ISZERO PUSH2 0x33E JUMPI PUSH0 DUP1 REVERT JUMPDEST POP PUSH2 0x347 PUSH2 0xA46 JUMP JUMPDEST PUSH1 0x40 MLOAD PUSH2 0x354 SWAP2 SWAP1 PUSH2 0x2EFF JUMP JUMPDEST PUSH1 0x40 MLOAD DUP1 SWAP2 SUB SWAP1 RETURN JUMPDEST CALLVALUE DUP1 ISZERO PUSH2 0x368 JUMPI PUSH0 DUP1 REVERT JUMPDEST POP PUSH2 0x383 PUSH1 0x4 DUP1 CALLDATASIZE SUB DUP2 ADD SWAP1 PUSH2 0x37E SWAP2 SWAP1 PUSH2 0x2E31 JUMP JUMPDEST PUSH2 0xA6A JUMP JUMPDEST PUSH1 0x40 MLOAD PUSH2 0x390 SWAP2 SWAP1 PUSH2 0x2E7E JUMP JUMPDEST PUSH1 0x40 MLOAD DUP1 SWAP2 SUB SWAP1 RETURN JUMPDEST CALLVALUE DUP1 ISZERO PUSH2 0x3A4 JUMPI PUSH0 DUP1 REVERT JUMPDEST POP PUSH2 0x3AD PUSH2 0xB0A JUMP JUMPDEST PUSH1 0x40 MLOAD PUSH2 0x3BA SWAP2 SWAP1 PUSH2 0x2EFF JUMP JUMPDEST PUSH1 0x40 MLOAD DUP1 SWAP2 SUB SWAP1 RETURN JUMPDEST CALLVALUE DUP1 ISZERO PUSH2 0x3CE JUMPI PUSH0 DUP1 REVERT JUMPDEST POP PUSH2 0x3D7 PUSH2 0xB30 JUMP JUMPDEST PUSH1 0x40 MLOAD PUSH2 0x3E4 SWAP2 SWAP1 PUSH2 0x2EFF JUMP JUMPDEST PUSH1 0x40 MLOAD DUP1 SWAP2 SUB SWAP1 RETURN JUMPDEST CALLVALUE DUP1 ISZERO PUSH2 0x3F8 JUMPI PUSH0 DUP1 REVERT JUMPDEST POP PUSH2 0x413 PUSH1 0x4 DUP1 CALLDATASIZE SUB DUP2 ADD SWAP1 PUSH2 0x40E SWAP2 SWAP1 PUSH2 0x2E97 JUMP JUMPDEST PUSH2 0xBCC JUMP JUMPDEST STOP JUMPDEST CALLVALUE DUP1 ISZERO PUSH2 0x420 JUMPI PUSH0 DUP1 REVERT JUMPDEST POP PUSH2 0x43B PUSH1 0x4 DUP1 CALLDATASIZE SUB DUP2 ADD SWAP1 PUSH2 0x436 SWAP2 SWAP1 PUSH2 0x2D84 JUMP JUMPDEST PUSH2 0xBEB JUMP JUMPDEST PUSH1 0x40 MLOAD PUSH2 0x448 SWAP2 SWAP1 PUSH2 0x2E7E JUMP JUMPDEST PUSH1 0x40 MLOAD DUP1 SWAP2 SUB SWAP1 RETURN JUMPDEST CALLVALUE DUP1 ISZERO PUSH2 0x45C JUMPI PUSH0 DUP1 REVERT JUMPDEST POP PUSH2 0x465 PUSH2 0xC59 JUMP JUMPDEST PUSH1 0x40 MLOAD PUSH2 0x472 SWAP2 SWAP1 PUSH2 0x2D31 JUMP JUMPDEST PUSH1 0x40 MLOAD DUP1 SWAP2 SUB SWAP1 RETURN JUMPDEST CALLVALUE DUP1 ISZERO PUSH2 0x486 JUMPI PUSH0 DUP1 REVERT JUMPDEST POP PUSH2 0x4A1 PUSH1 0x4 DUP1 CALLDATASIZE SUB DUP2 ADD SWAP1 PUSH2 0x49C SWAP2 SWAP1 PUSH2 0x3044 JUMP JUMPDEST PUSH2 0xC96 JUMP JUMPDEST STOP JUMPDEST CALLVALUE DUP1 ISZERO PUSH2 0x4AE JUMPI PUSH0 DUP1 REVERT JUMPDEST POP PUSH2 0x4C9 PUSH1 0x4 DUP1 CALLDATASIZE SUB DUP2 ADD SWAP1 PUSH2 0x4C4 SWAP2 SWAP1 PUSH2 0x2D84 JUMP JUMPDEST PUSH2 0xCAA JUMP JUMPDEST PUSH1 0x40 MLOAD PUSH2 0x4D6 SWAP2 SWAP1 PUSH2 0x2DEE JUMP JUMPDEST PUSH1 0x40 MLOAD DUP1 SWAP2 SUB SWAP1 RETURN JUMPDEST CALLVALUE DUP1 ISZERO PUSH2 0x4EA JUMPI PUSH0 DUP1 REVERT JUMPDEST POP PUSH2 0x4F3 PUSH2 0xD2E JUMP JUMPDEST PUSH1 0x40 MLOAD PUSH2 0x500 SWAP2 SWAP1 PUSH2 0x2D31 JUMP JUMPDEST PUSH1 0x40 MLOAD DUP1 SWAP2 SUB SWAP1 RETURN JUMPDEST CALLVALUE DUP1 ISZERO PUSH2 0x514 JUMPI PUSH0 DUP1 REVERT JUMPDEST POP PUSH2 0x52F PUSH1 0x4 DUP1 CALLDATASIZE SUB DUP2 ADD SWAP1 PUSH2 0x52A SWAP2 SWAP1 PUSH2 0x308B JUMP JUMPDEST PUSH2 0xDBA JUMP JUMPDEST PUSH1 0x40 MLOAD PUSH2 0x53C SWAP2 SWAP1 PUSH2 0x2E7E JUMP JUMPDEST PUSH1 0x40 MLOAD DUP1 SWAP2 SUB SWAP1 RETURN JUMPDEST CALLVALUE DUP1 ISZERO PUSH2 0x550 JUMPI PUSH0 DUP1 REVERT JUMPDEST POP PUSH2 0x559 PUSH2 0xE6E JUMP JUMPDEST STOP JUMPDEST CALLVALUE DUP1 ISZERO PUSH2 0x566 JUMPI PUSH0 DUP1 REVERT JUMPDEST POP PUSH2 0x56F PUSH2 0xE81 JUMP JUMPDEST PUSH1 0x40 MLOAD PUSH2 0x57C SWAP2 SWAP1 PUSH2 0x2E7E JUMP JUMPDEST PUSH1 0x40 MLOAD DUP1 SWAP2 SUB SWAP1 RETURN JUMPDEST PUSH2 0x59F PUSH1 0x4 DUP1 CALLDATASIZE SUB DUP2 ADD SWAP1 PUSH2 0x59A SWAP2 SWAP1 PUSH2 0x3116 JUMP JUMPDEST PUSH2 0xE87 JUMP JUMPDEST STOP JUMPDEST CALLVALUE DUP1 ISZERO PUSH2 0x5AC JUMPI PUSH0 DUP1 REVERT JUMPDEST POP PUSH2 0x5B5 PUSH2 0x122E JUMP JUMPDEST PUSH1 0x40 MLOAD PUSH2 0x5C2 SWAP2 SWAP1 PUSH2 0x2DEE JUMP JUMPDEST PUSH1 0x40 MLOAD DUP1 SWAP2 SUB SWAP1 RETURN JUMPDEST CALLVALUE DUP1 ISZERO PUSH2 0x5D6 JUMPI PUSH0 DUP1 REVERT JUMPDEST POP PUSH2 0x5DF PUSH2 0x1256 JUMP JUMPDEST PUSH1 0x40 MLOAD PUSH2 0x5EC SWAP2 SWAP1 PUSH2 0x2D31 JUMP JUMPDEST PUSH1 0x40 MLOAD DUP1 SWAP2 SUB SWAP1 RETURN JUMPDEST CALLVALUE DUP1 ISZERO PUSH2 0x600 JUMPI PUSH0 DUP1 REVERT JUMPDEST POP PUSH2 0x61B PUSH1 0x4 DUP1 CALLDATASIZE SUB DUP2 ADD SWAP1 PUSH2 0x616 SWAP2 SWAP1 PUSH2 0x31C9 JUMP JUMPDEST PUSH2 0x12E6 JUMP JUMPDEST STOP JUMPDEST PUSH2 0x637 PUSH1 0x4 DUP1 CALLDATASIZE SUB DUP2 ADD SWAP1 PUSH2 0x632 SWAP2 SWAP1 PUSH2 0x3264 JUMP JUMPDEST PUSH2 0x12FC JUMP JUMPDEST STOP JUMPDEST CALLVALUE DUP1 ISZERO PUSH2 0x644 JUMPI PUSH0 DUP1 REVERT JUMPDEST POP PUSH2 0x65F PUSH1 0x4 DUP1 CALLDATASIZE SUB DUP2 ADD SWAP1 PUSH2 0x65A SWAP2 SWAP1 PUSH2 0x334D JUMP JUMPDEST PUSH2 0x14C0 JUMP JUMPDEST STOP JUMPDEST CALLVALUE DUP1 ISZERO PUSH2 0x66C JUMPI PUSH0 DUP1 REVERT JUMPDEST POP PUSH2 0x687 PUSH1 0x4 DUP1 CALLDATASIZE SUB DUP2 ADD SWAP1 PUSH2 0x682 SWAP2 SWAP1 PUSH2 0x2D84 JUMP JUMPDEST PUSH2 0x1522 JUMP JUMPDEST PUSH1 0x40 MLOAD PUSH2 0x694 SWAP2 SWAP1 PUSH2 0x2D31 JUMP JUMPDEST PUSH1 0x40 MLOAD DUP1 SWAP2 SUB SWAP1 RETURN JUMPDEST CALLVALUE DUP1 ISZERO PUSH2 0x6A8 JUMPI PUSH0 DUP1 REVERT JUMPDEST POP PUSH2 0x6C3 PUSH1 0x4 DUP1 CALLDATASIZE SUB DUP2 ADD SWAP1 PUSH2 0x6BE SWAP2 SWAP1 PUSH2 0x308B JUMP JUMPDEST PUSH2 0x1587 JUMP JUMPDEST PUSH1 0x40 MLOAD PUSH2 0x6D0 SWAP2 SWAP1 PUSH2 0x2C8E JUMP JUMPDEST PUSH1 0x40 MLOAD DUP1 SWAP2 SUB SWAP1 RETURN JUMPDEST CALLVALUE DUP1 ISZERO PUSH2 0x6E4 JUMPI PUSH0 DUP1 REVERT JUMPDEST POP PUSH2 0x6FF PUSH1 0x4 DUP1 CALLDATASIZE SUB DUP2 ADD SWAP1 PUSH2 0x6FA SWAP2 SWAP1 PUSH2 0x2E31 JUMP JUMPDEST PUSH2 0x15A4 JUMP JUMPDEST STOP JUMPDEST CALLVALUE DUP1 ISZERO PUSH2 0x70C JUMPI PUSH0 DUP1 REVERT JUMPDEST POP PUSH2 0x727 PUSH1 0x4 DUP1 CALLDATASIZE SUB DUP2 ADD SWAP1 PUSH2 0x722 SWAP2 SWAP1 PUSH2 0x33CD JUMP JUMPDEST PUSH2 0x15BA JUMP JUMPDEST PUSH1 0x40 MLOAD PUSH2 0x734 SWAP2 SWAP1 PUSH2 0x2C8E JUMP JUMPDEST PUSH1 0x40 MLOAD DUP1 SWAP2 SUB SWAP1 RETURN JUMPDEST CALLVALUE DUP1 ISZERO PUSH2 0x748 JUMPI PUSH0 DUP1 REVERT JUMPDEST POP PUSH2 0x763 PUSH1 0x4 DUP1 CALLDATASIZE SUB DUP2 ADD SWAP1 PUSH2 0x75E SWAP2 SWAP1 PUSH2 0x308B JUMP JUMPDEST PUSH2 0x1648 JUMP JUMPDEST STOP JUMPDEST PUSH0 PUSH32 0x780E9D6300000000000000000000000000000000000000000000000000000000 PUSH28 0xFFFFFFFFFFFFFFFFFFFFFFFFFFFFFFFFFFFFFFFFFFFFFFFFFFFFFFFF NOT AND DUP3 PUSH28 0xFFFFFFFFFFFFFFFFFFFFFFFFFFFFFFFFFFFFFFFFFFFFFFFFFFFFFFFF NOT AND EQ DUP1 PUSH2 0x7D7 JUMPI POP PUSH2 0x7D6 DUP3 PUSH2 0x16CA JUMP JUMPDEST JUMPDEST SWAP1 POP SWAP2 SWAP1 POP JUMP JUMPDEST PUSH1 0x60 PUSH0 DUP1 SLOAD PUSH2 0x7EC SWAP1 PUSH2 0x3438 JUMP JUMPDEST DUP1 PUSH1 0x1F ADD PUSH1 0x20 DUP1 SWAP2 DIV MUL PUSH1 0x20 ADD PUSH1 0x40 MLOAD SWAP1 DUP2 ADD PUSH1 0x40 MSTORE DUP1 SWAP3 SWAP2 SWAP1 DUP2 DUP2 MSTORE PUSH1 0x20 ADD DUP3 DUP1 SLOAD PUSH2 0x818 SWAP1 PUSH2 0x3438 JUMP JUMPDEST DUP1 ISZERO PUSH2 0x863 JUMPI DUP1 PUSH1 0x1F LT PUSH2 0x83A JUMPI PUSH2 0x100 DUP1 DUP4 SLOAD DIV MUL DUP4 MSTORE SWAP2 PUSH1 0x20 ADD SWAP2 PUSH2 0x863 JUMP JUMPDEST DUP3 ADD SWAP2 SWAP1 PUSH0 MSTORE PUSH1 0x20 PUSH0 KECCAK256 SWAP1 JUMPDEST DUP2 SLOAD DUP2 MSTORE SWAP1 PUSH1 0x1 ADD SWAP1 PUSH1 0x20 ADD DUP1 DUP4 GT PUSH2 0x846 JUMPI DUP3 SWAP1 SUB PUSH1 0x1F AND DUP3 ADD SWAP2 JUMPDEST POP POP POP POP POP SWAP1 POP SWAP1 JUMP JUMPDEST PUSH0 PUSH2 0x877 DUP3 PUSH2 0x17AB JUMP JUMPDEST PUSH1 0x4 PUSH0 DUP4 DUP2 MSTORE PUSH1 0x20 ADD SWAP1 DUP2 MSTORE PUSH1 0x20 ADD PUSH0 KECCAK256 PUSH0 SWAP1 SLOAD SWAP1 PUSH2 0x100 EXP SWAP1 DIV PUSH20 0xFFFFFFFFFFFFFFFFFFFFFFFFFFFFFFFFFFFFFFFF AND SWAP1 POP SWAP2 SWAP1 POP JUMP JUMPDEST PUSH0 PUSH2 0x8B9 DUP3 PUSH2 0xCAA JUMP JUMPDEST SWAP1 POP DUP1 PUSH20 0xFFFFFFFFFFFFFFFFFFFFFFFFFFFFFFFFFFFFFFFF AND DUP4 PUSH20 0xFFFFFFFFFFFFFFFFFFFFFFFFFFFFFFFFFFFFFFFF AND SUB PUSH2 0x929 JUMPI PUSH1 0x40 MLOAD PUSH32 0x8C379A000000000000000000000000000000000000000000000000000000000 DUP2 MSTORE PUSH1 0x4 ADD PUSH2 0x920 SWAP1 PUSH2 0x34D8 JUMP JUMPDEST PUSH1 0x40 MLOAD DUP1 SWAP2 SUB SWAP1 REVERT JUMPDEST DUP1 PUSH20 0xFFFFFFFFFFFFFFFFFFFFFFFFFFFFFFFFFFFFFFFF AND PUSH2 0x948 PUSH2 0x17F6 JUMP JUMPDEST PUSH20 0xFFFFFFFFFFFFFFFFFFFFFFFFFFFFFFFFFFFFFFFF AND EQ DUP1 PUSH2 0x977 JUMPI POP PUSH2 0x976 DUP2 PUSH2 0x971 PUSH2 0x17F6 JUMP JUMPDEST PUSH2 0x15BA JUMP JUMPDEST JUMPDEST PUSH2 0x9B6 JUMPI PUSH1 0x40 MLOAD PUSH32 0x8C379A000000000000000000000000000000000000000000000000000000000 DUP2 MSTORE PUSH1 0x4 ADD PUSH2 0x9AD SWAP1 PUSH2 0x3566 JUMP JUMPDEST PUSH1 0x40 MLOAD DUP1 SWAP2 SUB SWAP1 REVERT JUMPDEST PUSH2 0x9C0 DUP4 DUP4 PUSH2 0x17FD JUMP JUMPDEST POP POP POP JUMP JUMPDEST PUSH1 0xD PUSH1 0x20 MSTORE DUP1 PUSH0 MSTORE PUSH1 0x40 PUSH0 KECCAK256 PUSH0 SWAP2 POP SWAP1 POP SLOAD DUP2 JUMP JUMPDEST PUSH0 PUSH1 0x8 DUP1 SLOAD SWAP1 POP SWAP1 POP SWAP1 JUMP JUMPDEST PUSH2 0x9F7 PUSH2 0x9F1 PUSH2 0x17F6 JUMP JUMPDEST DUP3 PUSH2 0x18B3 JUMP JUMPDEST PUSH2 0xA36 JUMPI PUSH1 0x40 MLOAD PUSH32 0x8C379A000000000000000000000000000000000000000000000000000000000 DUP2 MSTORE PUSH1 0x4 ADD PUSH2 0xA2D SWAP1 PUSH2 0x35F4 JUMP JUMPDEST PUSH1 0x40 MLOAD DUP1 SWAP2 SUB SWAP1 REVERT JUMPDEST PUSH2 0xA41 DUP4 DUP4 DUP4 PUSH2 0x1947 JUMP JUMPDEST POP POP POP JUMP JUMPDEST PUSH32 0x0 DUP2 JUMP JUMPDEST PUSH0 PUSH2 0xA74 DUP4 PUSH2 0xDBA JUMP JUMPDEST DUP3 LT PUSH2 0xAB5 JUMPI PUSH1 0x40 MLOAD PUSH32 0x8C379A000000000000000000000000000000000000000000000000000000000 DUP2 MSTORE PUSH1 0x4 ADD PUSH2 0xAAC SWAP1 PUSH2 0x3682 JUMP JUMPDEST PUSH1 0x40 MLOAD DUP1 SWAP2 SUB SWAP1 REVERT JUMPDEST PUSH1 0x6 PUSH0 DUP5 PUSH20 0xFFFFFFFFFFFFFFFFFFFFFFFFFFFFFFFFFFFFFFFF AND PUSH20 0xFFFFFFFFFFFFFFFFFFFFFFFFFFFFFFFFFFFFFFFF AND DUP2 MSTORE PUSH1 0x20 ADD SWAP1 DUP2 MSTORE PUSH1 0x20 ADD PUSH0 KECCAK256 PUSH0 DUP4 DUP2 MSTORE PUSH1 0x20 ADD SWAP1 DUP2 MSTORE PUSH1 0x20 ADD PUSH0 KECCAK256 SLOAD SWAP1 POP SWAP3 SWAP2 POP POP JUMP JUMPDEST PUSH32 0x49ECF333E5B8C95C40FDAFC95C1AD136E8914A8FB55E9DC8BB01EAA83A2DF9AD PUSH0 SHL DUP2 JUMP JUMPDEST PUSH0 PUSH32 0x8B73C3C69BB8FE3D512ECC4CF759CC79239F7B179B0FFACAA9A75D522B39400F PUSH32 0x0 PUSH32 0x0 PUSH2 0xB9C PUSH2 0x1C33 JUMP JUMPDEST ADDRESS PUSH1 0x40 MLOAD PUSH1 0x20 ADD PUSH2 0xBB1 SWAP6 SWAP5 SWAP4 SWAP3 SWAP2 SWAP1 PUSH2 0x36E2 JUMP JUMPDEST PUSH1 0x40 MLOAD PUSH1 0x20 DUP2 DUP4 SUB SUB DUP2 MSTORE SWAP1 PUSH1 0x40 MSTORE DUP1 MLOAD SWAP1 PUSH1 0x20 ADD KECCAK256 SWAP1 POP SWAP1 JUMP JUMPDEST PUSH2 0xBE6 DUP4 DUP4 DUP4 PUSH1 0x40 MLOAD DUP1 PUSH1 0x20 ADD PUSH1 0x40 MSTORE DUP1 PUSH0 DUP2 MSTORE POP PUSH2 0x14C0 JUMP JUMPDEST POP POP POP JUMP JUMPDEST PUSH0 PUSH2 0xBF4 PUSH2 0x9DA JUMP JUMPDEST DUP3 LT PUSH2 0xC35 JUMPI PUSH1 0x40 MLOAD PUSH32 0x8C379A000000000000000000000000000000000000000000000000000000000 DUP2 MSTORE PUSH1 0x4 ADD PUSH2 0xC2C SWAP1 PUSH2 0x37A3 JUMP JUMPDEST PUSH1 0x40 MLOAD DUP1 SWAP2 SUB SWAP1 REVERT JUMPDEST PUSH1 0x8 DUP3 DUP2 SLOAD DUP2 LT PUSH2 0xC49 JUMPI PUSH2 0xC48 PUSH2 0x37C1 JUMP JUMPDEST JUMPDEST SWAP1 PUSH0 MSTORE PUSH1 0x20 PUSH0 KECCAK256 ADD SLOAD SWAP1 POP SWAP2 SWAP1 POP JUMP JUMPDEST PUSH1 0x60 PUSH1 0x40 MLOAD DUP1 PUSH1 0x40 ADD PUSH1 0x40 MSTORE DUP1 PUSH1 0x1 DUP2 MSTORE PUSH1 0x20 ADD PUSH32 0x3100000000000000000000000000000000000000000000000000000000000000 DUP2 MSTORE POP SWAP1 POP SWAP1 JUMP JUMPDEST PUSH2 0xC9E PUSH2 0x1C3A JUMP JUMPDEST PUSH2 0xCA7 DUP2 PUSH2 0x1CB8 JUMP JUMPDEST POP JUMP JUMPDEST PUSH0 DUP1 PUSH2 0xCB5 DUP4 PUSH2 0x1CCB JUMP JUMPDEST SWAP1 POP PUSH0 PUSH20 0xFFFFFFFFFFFFFFFFFFFFFFFFFFFFFFFFFFFFFFFF AND DUP2 PUSH20 0xFFFFFFFFFFFFFFFFFFFFFFFFFFFFFFFFFFFFFFFF AND SUB PUSH2 0xD25 JUMPI PUSH1 0x40 MLOAD PUSH32 0x8C379A000000000000000000000000000000000000000000000000000000000 DUP2 MSTORE PUSH1 0x4 ADD PUSH2 0xD1C SWAP1 PUSH2 0x3838 JUMP JUMPDEST PUSH1 0x40 MLOAD DUP1 SWAP2 SUB SWAP1 REVERT JUMPDEST DUP1 SWAP2 POP POP SWAP2 SWAP1 POP JUMP JUMPDEST PUSH1 0xE DUP1 SLOAD PUSH2 0xD3B SWAP1 PUSH2 0x3438 JUMP JUMPDEST DUP1 PUSH1 0x1F ADD PUSH1 0x20 DUP1 SWAP2 DIV MUL PUSH1 0x20 ADD PUSH1 0x40 MLOAD SWAP1 DUP2 ADD PUSH1 0x40 MSTORE DUP1 SWAP3 SWAP2 SWAP1 DUP2 DUP2 MSTORE PUSH1 0x20 ADD DUP3 DUP1 SLOAD PUSH2 0xD67 SWAP1 PUSH2 0x3438 JUMP JUMPDEST DUP1 ISZERO PUSH2 0xDB2 JUMPI DUP1 PUSH1 0x1F LT PUSH2 0xD89 JUMPI PUSH2 0x100 DUP1 DUP4 SLOAD DIV MUL DUP4 MSTORE SWAP2 PUSH1 0x20 ADD SWAP2 PUSH2 0xDB2 JUMP JUMPDEST DUP3 ADD SWAP2 SWAP1 PUSH0 MSTORE PUSH1 0x20 PUSH0 KECCAK256 SWAP1 JUMPDEST DUP2 SLOAD DUP2 MSTORE SWAP1 PUSH1 0x1 ADD SWAP1 PUSH1 0x20 ADD DUP1 DUP4 GT PUSH2 0xD95 JUMPI DUP3 SWAP1 SUB PUSH1 0x1F AND DUP3 ADD SWAP2 JUMPDEST POP POP POP POP POP DUP2 JUMP JUMPDEST PUSH0 DUP1 PUSH20 0xFFFFFFFFFFFFFFFFFFFFFFFFFFFFFFFFFFFFFFFF AND DUP3 PUSH20 0xFFFFFFFFFFFFFFFFFFFFFFFFFFFFFFFFFFFFFFFF AND SUB PUSH2 0xE29 JUMPI PUSH1 0x40 MLOAD PUSH32 0x8C379A000000000000000000000000000000000000000000000000000000000 DUP2 MSTORE PUSH1 0x4 ADD PUSH2 0xE20 SWAP1 PUSH2 0x38C6 JUMP JUMPDEST PUSH1 0x40 MLOAD DUP1 SWAP2 SUB SWAP1 REVERT JUMPDEST PUSH1 0x3 PUSH0 DUP4 PUSH20 0xFFFFFFFFFFFFFFFFFFFFFFFFFFFFFFFFFFFFFFFF AND PUSH20 0xFFFFFFFFFFFFFFFFFFFFFFFFFFFFFFFFFFFFFFFF AND DUP2 MSTORE PUSH1 0x20 ADD SWAP1 DUP2 MSTORE PUSH1 0x20 ADD PUSH0 KECCAK256 SLOAD SWAP1 POP SWAP2 SWAP1 POP JUMP JUMPDEST PUSH2 0xE76 PUSH2 0x1C3A JUMP JUMPDEST PUSH2 0xE7F PUSH0 PUSH2 0x1D04 JUMP JUMPDEST JUMP JUMPDEST PUSH1 0xB SLOAD DUP2 JUMP JUMPDEST DUP4 PUSH2 0xE90 PUSH2 0x1DC7 JUMP JUMPDEST GT ISZERO PUSH2 0xED1 JUMPI PUSH1 0x40 MLOAD PUSH32 0x8C379A000000000000000000000000000000000000000000000000000000000 DUP2 MSTORE PUSH1 0x4 ADD PUSH2 0xEC8 SWAP1 PUSH2 0x392E JUMP JUMPDEST PUSH1 0x40 MLOAD DUP1 SWAP2 SUB SWAP1 REVERT JUMPDEST PUSH0 PUSH2 0xEDA PUSH2 0xB30 JUMP JUMPDEST PUSH32 0x49ECF333E5B8C95C40FDAFC95C1AD136E8914A8FB55E9DC8BB01EAA83A2DF9AD PUSH0 SHL DUP9 DUP9 PUSH2 0xF08 DUP11 PUSH2 0x1DCE JUMP JUMPDEST DUP10 PUSH1 0x40 MLOAD PUSH1 0x20 ADD PUSH2 0xF1D SWAP6 SWAP5 SWAP4 SWAP3 SWAP2 SWAP1 PUSH2 0x394C JUMP JUMPDEST PUSH1 0x40 MLOAD PUSH1 0x20 DUP2 DUP4 SUB SUB DUP2 MSTORE SWAP1 PUSH1 0x40 MSTORE DUP1 MLOAD SWAP1 PUSH1 0x20 ADD KECCAK256 PUSH1 0x40 MLOAD PUSH1 0x20 ADD PUSH2 0xF44 SWAP3 SWAP2 SWAP1 PUSH2 0x3A11 JUMP JUMPDEST PUSH1 0x40 MLOAD PUSH1 0x20 DUP2 DUP4 SUB SUB DUP2 MSTORE SWAP1 PUSH1 0x40 MSTORE DUP1 MLOAD SWAP1 PUSH1 0x20 ADD KECCAK256 SWAP1 POP PUSH0 PUSH2 0xF66 DUP8 PUSH2 0xCAA JUMP JUMPDEST SWAP1 POP DUP1 PUSH20 0xFFFFFFFFFFFFFFFFFFFFFFFFFFFFFFFFFFFFFFFF AND DUP9 PUSH20 0xFFFFFFFFFFFFFFFFFFFFFFFFFFFFFFFFFFFFFFFF AND SUB PUSH2 0xFD6 JUMPI PUSH1 0x40 MLOAD PUSH32 0x8C379A000000000000000000000000000000000000000000000000000000000 DUP2 MSTORE PUSH1 0x4 ADD PUSH2 0xFCD SWAP1 PUSH2 0x3AB7 JUMP JUMPDEST PUSH1 0x40 MLOAD DUP1 SWAP2 SUB SWAP1 REVERT JUMPDEST PUSH2 0xFDF DUP2 PUSH2 0x1E13 JUMP JUMPDEST ISZERO PUSH2 0x10ED JUMPI PUSH4 0x1626BA7E PUSH1 0xE0 SHL DUP2 PUSH20 0xFFFFFFFFFFFFFFFFFFFFFFFFFFFFFFFFFFFFFFFF AND PUSH4 0x1626BA7E DUP5 DUP8 DUP8 DUP11 PUSH1 0x40 MLOAD PUSH1 0x20 ADD PUSH2 0x101E SWAP4 SWAP3 SWAP2 SWAP1 PUSH2 0x3B09 JUMP JUMPDEST PUSH1 0x40 MLOAD PUSH1 0x20 DUP2 DUP4 SUB SUB DUP2 MSTORE SWAP1 PUSH1 0x40 MSTORE PUSH1 0x40 MLOAD DUP4 PUSH4 0xFFFFFFFF AND PUSH1 0xE0 SHL DUP2 MSTORE PUSH1 0x4 ADD PUSH2 0x104A SWAP3 SWAP2 SWAP1 PUSH2 0x3B97 JUMP JUMPDEST PUSH1 0x20 PUSH1 0x40 MLOAD DUP1 DUP4 SUB DUP2 DUP7 GAS STATICCALL ISZERO DUP1 ISZERO PUSH2 0x1065 JUMPI RETURNDATASIZE PUSH0 DUP1 RETURNDATACOPY RETURNDATASIZE PUSH0 REVERT JUMPDEST POP POP POP POP PUSH1 0x40 MLOAD RETURNDATASIZE PUSH1 0x1F NOT PUSH1 0x1F DUP3 ADD AND DUP3 ADD DUP1 PUSH1 0x40 MSTORE POP DUP2 ADD SWAP1 PUSH2 0x1089 SWAP2 SWAP1 PUSH2 0x3BD9 JUMP JUMPDEST PUSH28 0xFFFFFFFFFFFFFFFFFFFFFFFFFFFFFFFFFFFFFFFFFFFFFFFFFFFFFFFF NOT AND EQ PUSH2 0x10E8 JUMPI PUSH1 0x40 MLOAD PUSH32 0x8C379A000000000000000000000000000000000000000000000000000000000 DUP2 MSTORE PUSH1 0x4 ADD PUSH2 0x10DF SWAP1 PUSH2 0x3C4E JUMP JUMPDEST PUSH1 0x40 MLOAD DUP1 SWAP2 SUB SWAP1 REVERT JUMPDEST PUSH2 0x121A JUMP JUMPDEST PUSH0 PUSH1 0x1 DUP4 DUP8 DUP8 DUP8 PUSH1 0x40 MLOAD PUSH0 DUP2 MSTORE PUSH1 0x20 ADD PUSH1 0x40 MSTORE PUSH1 0x40 MLOAD PUSH2 0x1110 SWAP5 SWAP4 SWAP3 SWAP2 SWAP1 PUSH2 0x3C7B JUMP JUMPDEST PUSH1 0x20 PUSH1 0x40 MLOAD PUSH1 0x20 DUP2 SUB SWAP1 DUP1 DUP5 SUB SWAP1 DUP6 GAS STATICCALL ISZERO DUP1 ISZERO PUSH2 0x1130 JUMPI RETURNDATASIZE PUSH0 DUP1 RETURNDATACOPY RETURNDATASIZE PUSH0 REVERT JUMPDEST POP POP POP PUSH1 0x20 PUSH1 0x40 MLOAD SUB MLOAD SWAP1 POP PUSH0 PUSH20 0xFFFFFFFFFFFFFFFFFFFFFFFFFFFFFFFFFFFFFFFF AND DUP2 PUSH20 0xFFFFFFFFFFFFFFFFFFFFFFFFFFFFFFFFFFFFFFFF AND SUB PUSH2 0x11AA JUMPI PUSH1 0x40 MLOAD PUSH32 0x8C379A000000000000000000000000000000000000000000000000000000000 DUP2 MSTORE PUSH1 0x4 ADD PUSH2 0x11A1 SWAP1 PUSH2 0x3D08 JUMP JUMPDEST PUSH1 0x40 MLOAD DUP1 SWAP2 SUB SWAP1 REVERT JUMPDEST DUP2 PUSH20 0xFFFFFFFFFFFFFFFFFFFFFFFFFFFFFFFFFFFFFFFF AND DUP2 PUSH20 0xFFFFFFFFFFFFFFFFFFFFFFFFFFFFFFFFFFFFFFFF AND EQ PUSH2 0x1218 JUMPI PUSH1 0x40 MLOAD PUSH32 0x8C379A000000000000000000000000000000000000000000000000000000000 DUP2 MSTORE PUSH1 0x4 ADD PUSH2 0x120F SWAP1 PUSH2 0x3C4E JUMP JUMPDEST PUSH1 0x40 MLOAD DUP1 SWAP2 SUB SWAP1 REVERT JUMPDEST POP JUMPDEST PUSH2 0x1224 DUP9 DUP9 PUSH2 0x17FD JUMP JUMPDEST POP POP POP POP POP POP POP POP JUMP JUMPDEST PUSH0 PUSH1 0xA PUSH0 SWAP1 SLOAD SWAP1 PUSH2 0x100 EXP SWAP1 DIV PUSH20 0xFFFFFFFFFFFFFFFFFFFFFFFFFFFFFFFFFFFFFFFF AND SWAP1 POP SWAP1 JUMP JUMPDEST PUSH1 0x60 PUSH1 0x1 DUP1 SLOAD PUSH2 0x1265 SWAP1 PUSH2 0x3438 JUMP JUMPDEST DUP1 PUSH1 0x1F ADD PUSH1 0x20 DUP1 SWAP2 DIV MUL PUSH1 0x20 ADD PUSH1 0x40 MLOAD SWAP1 DUP2 ADD PUSH1 0x40 MSTORE DUP1 SWAP3 SWAP2 SWAP1 DUP2 DUP2 MSTORE PUSH1 0x20 ADD DUP3 DUP1 SLOAD PUSH2 0x1291 SWAP1 PUSH2 0x3438 JUMP JUMPDEST DUP1 ISZERO PUSH2 0x12DC JUMPI DUP1 PUSH1 0x1F LT PUSH2 0x12B3 JUMPI PUSH2 0x100 DUP1 DUP4 SLOAD DIV MUL DUP4 MSTORE SWAP2 PUSH1 0x20 ADD SWAP2 PUSH2 0x12DC JUMP JUMPDEST DUP3 ADD SWAP2 SWAP1 PUSH0 MSTORE PUSH1 0x20 PUSH0 KECCAK256 SWAP1 JUMPDEST DUP2 SLOAD DUP2 MSTORE SWAP1 PUSH1 0x1 ADD SWAP1 PUSH1 0x20 ADD DUP1 DUP4 GT PUSH2 0x12BF JUMPI DUP3 SWAP1 SUB PUSH1 0x1F AND DUP3 ADD SWAP2 JUMPDEST POP POP POP POP POP SWAP1 POP SWAP1 JUMP JUMPDEST PUSH2 0x12F8 PUSH2 0x12F1 PUSH2 0x17F6 JUMP JUMPDEST DUP4 DUP4 PUSH2 0x1E35 JUMP JUMPDEST POP POP JUMP JUMPDEST PUSH0 ISZERO ISZERO PUSH1 0xC PUSH0 CALLER PUSH20 0xFFFFFFFFFFFFFFFFFFFFFFFFFFFFFFFFFFFFFFFF AND PUSH20 0xFFFFFFFFFFFFFFFFFFFFFFFFFFFFFFFFFFFFFFFF AND DUP2 MSTORE PUSH1 0x20 ADD SWAP1 DUP2 MSTORE PUSH1 0x20 ADD PUSH0 KECCAK256 PUSH0 SWAP1 SLOAD SWAP1 PUSH2 0x100 EXP SWAP1 DIV PUSH1 0xFF AND ISZERO ISZERO EQ PUSH2 0x138B JUMPI PUSH1 0x40 MLOAD PUSH32 0x8C379A000000000000000000000000000000000000000000000000000000000 DUP2 MSTORE PUSH1 0x4 ADD PUSH2 0x1382 SWAP1 PUSH2 0x3D70 JUMP JUMPDEST PUSH1 0x40 MLOAD DUP1 SWAP2 SUB SWAP1 REVERT JUMPDEST PUSH1 0x1 PUSH1 0xC PUSH0 CALLER PUSH20 0xFFFFFFFFFFFFFFFFFFFFFFFFFFFFFFFFFFFFFFFF AND PUSH20 0xFFFFFFFFFFFFFFFFFFFFFFFFFFFFFFFFFFFFFFFF AND DUP2 MSTORE PUSH1 0x20 ADD SWAP1 DUP2 MSTORE PUSH1 0x20 ADD PUSH0 KECCAK256 PUSH0 PUSH2 0x100 EXP DUP2 SLOAD DUP2 PUSH1 0xFF MUL NOT AND SWAP1 DUP4 ISZERO ISZERO MUL OR SWAP1 SSTORE POP PUSH1 0x1 ISZERO ISZERO PUSH2 0x1457 DUP4 DUP4 DUP1 DUP1 PUSH1 0x20 MUL PUSH1 0x20 ADD PUSH1 0x40 MLOAD SWAP1 DUP2 ADD PUSH1 0x40 MSTORE DUP1 SWAP4 SWAP3 SWAP2 SWAP1 DUP2 DUP2 MSTORE PUSH1 0x20 ADD DUP4 DUP4 PUSH1 0x20 MUL DUP1 DUP3 DUP5 CALLDATACOPY PUSH0 DUP2 DUP5 ADD MSTORE PUSH1 0x1F NOT PUSH1 0x1F DUP3 ADD AND SWAP1 POP DUP1 DUP4 ADD SWAP3 POP POP POP POP POP POP POP PUSH32 0x0 PUSH2 0x1452 CALLER PUSH2 0x1F9C JUMP JUMPDEST PUSH2 0x1FBD JUMP JUMPDEST ISZERO ISZERO EQ PUSH2 0x1499 JUMPI PUSH1 0x40 MLOAD PUSH32 0x8C379A000000000000000000000000000000000000000000000000000000000 DUP2 MSTORE PUSH1 0x4 ADD PUSH2 0x1490 SWAP1 PUSH2 0x3DD8 JUMP JUMPDEST PUSH1 0x40 MLOAD DUP1 SWAP2 SUB SWAP1 REVERT JUMPDEST PUSH1 0xB PUSH0 DUP2 SLOAD DUP1 SWAP3 SWAP2 SWAP1 PUSH2 0x14AB SWAP1 PUSH2 0x3E23 JUMP JUMPDEST SWAP2 SWAP1 POP SSTORE POP PUSH2 0x14BC CALLER PUSH1 0xB SLOAD PUSH2 0x1FD3 JUMP JUMPDEST POP POP JUMP JUMPDEST PUSH2 0x14D1 PUSH2 0x14CB PUSH2 0x17F6 JUMP JUMPDEST DUP4 PUSH2 0x18B3 JUMP JUMPDEST PUSH2 0x1510 JUMPI PUSH1 0x40 MLOAD PUSH32 0x8C379A000000000000000000000000000000000000000000000000000000000 DUP2 MSTORE PUSH1 0x4 ADD PUSH2 0x1507 SWAP1 PUSH2 0x35F4 JUMP JUMPDEST PUSH1 0x40 MLOAD DUP1 SWAP2 SUB SWAP1 REVERT JUMPDEST PUSH2 0x151C DUP5 DUP5 DUP5 DUP5 PUSH2 0x21E6 JUMP JUMPDEST POP POP POP POP JUMP JUMPDEST PUSH1 0x60 PUSH2 0x152D DUP3 PUSH2 0x17AB JUMP JUMPDEST PUSH0 PUSH2 0x1536 PUSH2 0x2242 JUMP JUMPDEST SWAP1 POP PUSH0 DUP2 MLOAD GT PUSH2 0x1554 JUMPI PUSH1 0x40 MLOAD DUP1 PUSH1 0x20 ADD PUSH1 0x40 MSTORE DUP1 PUSH0 DUP2 MSTORE POP PUSH2 0x157F JUMP JUMPDEST DUP1 PUSH2 0x155E DUP5 PUSH2 0x22D2 JUMP JUMPDEST PUSH1 0x40 MLOAD PUSH1 0x20 ADD PUSH2 0x156F SWAP3 SWAP2 SWAP1 PUSH2 0x3E9A JUMP JUMPDEST PUSH1 0x40 MLOAD PUSH1 0x20 DUP2 DUP4 SUB SUB DUP2 MSTORE SWAP1 PUSH1 0x40 MSTORE JUMPDEST SWAP2 POP POP SWAP2 SWAP1 POP JUMP JUMPDEST PUSH1 0xC PUSH1 0x20 MSTORE DUP1 PUSH0 MSTORE PUSH1 0x40 PUSH0 KECCAK256 PUSH0 SWAP2 POP SLOAD SWAP1 PUSH2 0x100 EXP SWAP1 DIV PUSH1 0xFF AND DUP2 JUMP JUMPDEST PUSH2 0x15AC PUSH2 0x1C3A JUMP JUMPDEST PUSH2 0x15B6 DUP3 DUP3 PUSH2 0x1FD3 JUMP JUMPDEST POP POP JUMP JUMPDEST PUSH0 PUSH1 0x5 PUSH0 DUP5 PUSH20 0xFFFFFFFFFFFFFFFFFFFFFFFFFFFFFFFFFFFFFFFF AND PUSH20 0xFFFFFFFFFFFFFFFFFFFFFFFFFFFFFFFFFFFFFFFF AND DUP2 MSTORE PUSH1 0x20 ADD SWAP1 DUP2 MSTORE PUSH1 0x20 ADD PUSH0 KECCAK256 PUSH0 DUP4 PUSH20 0xFFFFFFFFFFFFFFFFFFFFFFFFFFFFFFFFFFFFFFFF AND PUSH20 0xFFFFFFFFFFFFFFFFFFFFFFFFFFFFFFFFFFFFFFFF AND DUP2 MSTORE PUSH1 0x20 ADD SWAP1 DUP2 MSTORE PUSH1 0x20 ADD PUSH0 KECCAK256 PUSH0 SWAP1 SLOAD SWAP1 PUSH2 0x100 EXP SWAP1 DIV PUSH1 0xFF AND SWAP1 POP SWAP3 SWAP2 POP POP JUMP JUMPDEST PUSH2 0x1650 PUSH2 0x1C3A JUMP JUMPDEST PUSH0 PUSH20 0xFFFFFFFFFFFFFFFFFFFFFFFFFFFFFFFFFFFFFFFF AND DUP2 PUSH20 0xFFFFFFFFFFFFFFFFFFFFFFFFFFFFFFFFFFFFFFFF AND SUB PUSH2 0x16BE JUMPI PUSH1 0x40 MLOAD PUSH32 0x8C379A000000000000000000000000000000000000000000000000000000000 DUP2 MSTORE PUSH1 0x4 ADD PUSH2 0x16B5 SWAP1 PUSH2 0x3F2D JUMP JUMPDEST PUSH1 0x40 MLOAD DUP1 SWAP2 SUB SWAP1 REVERT JUMPDEST PUSH2 0x16C7 DUP2 PUSH2 0x1D04 JUMP JUMPDEST POP JUMP JUMPDEST PUSH0 PUSH32 0x80AC58CD00000000000000000000000000000000000000000000000000000000 PUSH28 0xFFFFFFFFFFFFFFFFFFFFFFFFFFFFFFFFFFFFFFFFFFFFFFFFFFFFFFFF NOT AND DUP3 PUSH28 0xFFFFFFFFFFFFFFFFFFFFFFFFFFFFFFFFFFFFFFFFFFFFFFFFFFFFFFFF NOT AND EQ DUP1 PUSH2 0x1794 JUMPI POP PUSH32 0x5B5E139F00000000000000000000000000000000000000000000000000000000 PUSH28 0xFFFFFFFFFFFFFFFFFFFFFFFFFFFFFFFFFFFFFFFFFFFFFFFFFFFFFFFF NOT AND DUP3 PUSH28 0xFFFFFFFFFFFFFFFFFFFFFFFFFFFFFFFFFFFFFFFFFFFFFFFFFFFFFFFF NOT AND EQ JUMPDEST DUP1 PUSH2 0x17A4 JUMPI POP PUSH2 0x17A3 DUP3 PUSH2 0x239C JUMP JUMPDEST JUMPDEST SWAP1 POP SWAP2 SWAP1 POP JUMP JUMPDEST PUSH2 0x17B4 DUP2 PUSH2 0x2405 JUMP JUMPDEST PUSH2 0x17F3 JUMPI PUSH1 0x40 MLOAD PUSH32 0x8C379A000000000000000000000000000000000000000000000000000000000 DUP2 MSTORE PUSH1 0x4 ADD PUSH2 0x17EA SWAP1 PUSH2 0x3838 JUMP JUMPDEST PUSH1 0x40 MLOAD DUP1 SWAP2 SUB SWAP1 REVERT JUMPDEST POP JUMP JUMPDEST PUSH0 CALLER SWAP1 POP SWAP1 JUMP JUMPDEST DUP2 PUSH1 0x4 PUSH0 DUP4 DUP2 MSTORE PUSH1 0x20 ADD SWAP1 DUP2 MSTORE PUSH1 0x20 ADD PUSH0 KECCAK256 PUSH0 PUSH2 0x100 EXP DUP2 SLOAD DUP2 PUSH20 0xFFFFFFFFFFFFFFFFFFFFFFFFFFFFFFFFFFFFFFFF MUL NOT AND SWAP1 DUP4 PUSH20 0xFFFFFFFFFFFFFFFFFFFFFFFFFFFFFFFFFFFFFFFF AND MUL OR SWAP1 SSTORE POP DUP1 DUP3 PUSH20 0xFFFFFFFFFFFFFFFFFFFFFFFFFFFFFFFFFFFFFFFF AND PUSH2 0x186D DUP4 PUSH2 0xCAA JUMP JUMPDEST PUSH20 0xFFFFFFFFFFFFFFFFFFFFFFFFFFFFFFFFFFFFFFFF AND PUSH32 0x8C5BE1E5EBEC7D5BD14F71427D1E84F3DD0314C0F7B2291E5B200AC8C7C3B925 PUSH1 0x40 MLOAD PUSH1 0x40 MLOAD DUP1 SWAP2 SUB SWAP1 LOG4 POP POP JUMP JUMPDEST PUSH0 DUP1 PUSH2 0x18BE DUP4 PUSH2 0xCAA JUMP JUMPDEST SWAP1 POP DUP1 PUSH20 0xFFFFFFFFFFFFFFFFFFFFFFFFFFFFFFFFFFFFFFFF AND DUP5 PUSH20 0xFFFFFFFFFFFFFFFFFFFFFFFFFFFFFFFFFFFFFFFF AND EQ DUP1 PUSH2 0x1900 JUMPI POP PUSH2 0x18FF DUP2 DUP6 PUSH2 0x15BA JUMP JUMPDEST JUMPDEST DUP1 PUSH2 0x193E JUMPI POP DUP4 PUSH20 0xFFFFFFFFFFFFFFFFFFFFFFFFFFFFFFFFFFFFFFFF AND PUSH2 0x1926 DUP5 PUSH2 0x86D JUMP JUMPDEST PUSH20 0xFFFFFFFFFFFFFFFFFFFFFFFFFFFFFFFFFFFFFFFF AND EQ JUMPDEST SWAP2 POP POP SWAP3 SWAP2 POP POP JUMP JUMPDEST DUP3 PUSH20 0xFFFFFFFFFFFFFFFFFFFFFFFFFFFFFFFFFFFFFFFF AND PUSH2 0x1967 DUP3 PUSH2 0xCAA JUMP JUMPDEST PUSH20 0xFFFFFFFFFFFFFFFFFFFFFFFFFFFFFFFFFFFFFFFF AND EQ PUSH2 0x19BD JUMPI PUSH1 0x40 MLOAD PUSH32 0x8C379A000000000000000000000000000000000000000000000000000000000 DUP2 MSTORE PUSH1 0x4 ADD PUSH2 0x19B4 SWAP1 PUSH2 0x3FBB JUMP JUMPDEST PUSH1 0x40 MLOAD DUP1 SWAP2 SUB SWAP1 REVERT JUMPDEST PUSH0 PUSH20 0xFFFFFFFFFFFFFFFFFFFFFFFFFFFFFFFFFFFFFFFF AND DUP3 PUSH20 0xFFFFFFFFFFFFFFFFFFFFFFFFFFFFFFFFFFFFFFFF AND SUB PUSH2 0x1A2B JUMPI PUSH1 0x40 MLOAD PUSH32 0x8C379A000000000000000000000000000000000000000000000000000000000 DUP2 MSTORE PUSH1 0x4 ADD PUSH2 0x1A22 SWAP1 PUSH2 0x4049 JUMP JUMPDEST PUSH1 0x40 MLOAD DUP1 SWAP2 SUB SWAP1 REVERT JUMPDEST PUSH2 0x1A38 DUP4 DUP4 DUP4 PUSH1 0x1 PUSH2 0x2445 JUMP JUMPDEST DUP3 PUSH20 0xFFFFFFFFFFFFFFFFFFFFFFFFFFFFFFFFFFFFFFFF AND PUSH2 0x1A58 DUP3 PUSH2 0xCAA JUMP JUMPDEST PUSH20 0xFFFFFFFFFFFFFFFFFFFFFFFFFFFFFFFFFFFFFFFF AND EQ PUSH2 0x1AAE JUMPI PUSH1 0x40 MLOAD PUSH32 0x8C379A000000000000000000000000000000000000000000000000000000000 DUP2 MSTORE PUSH1 0x4 ADD PUSH2 0x1AA5 SWAP1 PUSH2 0x3FBB JUMP JUMPDEST PUSH1 0x40 MLOAD DUP1 SWAP2 SUB SWAP1 REVERT JUMPDEST PUSH1 0x4 PUSH0 DUP3 DUP2 MSTORE PUSH1 0x20 ADD SWAP1 DUP2 MSTORE PUSH1 0x20 ADD PUSH0 KECCAK256 PUSH0 PUSH2 0x100 EXP DUP2 SLOAD SWAP1 PUSH20 0xFFFFFFFFFFFFFFFFFFFFFFFFFFFFFFFFFFFFFFFF MUL NOT AND SWAP1 SSTORE PUSH1 0x1 PUSH1 0x3 PUSH0 DUP6 PUSH20 0xFFFFFFFFFFFFFFFFFFFFFFFFFFFFFFFFFFFFFFFF AND PUSH20 0xFFFFFFFFFFFFFFFFFFFFFFFFFFFFFFFFFFFFFFFF AND DUP2 MSTORE PUSH1 0x20 ADD SWAP1 DUP2 MSTORE PUSH1 0x20 ADD PUSH0 KECCAK256 PUSH0 DUP3 DUP3 SLOAD SUB SWAP3 POP POP DUP2 SWAP1 SSTORE POP PUSH1 0x1 PUSH1 0x3 PUSH0 DUP5 PUSH20 0xFFFFFFFFFFFFFFFFFFFFFFFFFFFFFFFFFFFFFFFF AND PUSH20 0xFFFFFFFFFFFFFFFFFFFFFFFFFFFFFFFFFFFFFFFF AND DUP2 MSTORE PUSH1 0x20 ADD SWAP1 DUP2 MSTORE PUSH1 0x20 ADD PUSH0 KECCAK256 PUSH0 DUP3 DUP3 SLOAD ADD SWAP3 POP POP DUP2 SWAP1 SSTORE POP DUP2 PUSH1 0x2 PUSH0 DUP4 DUP2 MSTORE PUSH1 0x20 ADD SWAP1 DUP2 MSTORE PUSH1 0x20 ADD PUSH0 KECCAK256 PUSH0 PUSH2 0x100 EXP DUP2 SLOAD DUP2 PUSH20 0xFFFFFFFFFFFFFFFFFFFFFFFFFFFFFFFFFFFFFFFF MUL NOT AND SWAP1 DUP4 PUSH20 0xFFFFFFFFFFFFFFFFFFFFFFFFFFFFFFFFFFFFFFFF AND MUL OR SWAP1 SSTORE POP DUP1 DUP3 PUSH20 0xFFFFFFFFFFFFFFFFFFFFFFFFFFFFFFFFFFFFFFFF AND DUP5 PUSH20 0xFFFFFFFFFFFFFFFFFFFFFFFFFFFFFFFFFFFFFFFF AND PUSH32 0xDDF252AD1BE2C89B69C2B068FC378DAA952BA7F163C4A11628F55A4DF523B3EF PUSH1 0x40 MLOAD PUSH1 0x40 MLOAD DUP1 SWAP2 SUB SWAP1 LOG4 PUSH2 0x1C2E DUP4 DUP4 DUP4 PUSH1 0x1 PUSH2 0x25A0 JUMP JUMPDEST POP POP POP JUMP JUMPDEST PUSH0 CHAINID SWAP1 POP SWAP1 JUMP JUMPDEST PUSH2 0x1C42 PUSH2 0x17F6 JUMP JUMPDEST PUSH20 0xFFFFFFFFFFFFFFFFFFFFFFFFFFFFFFFFFFFFFFFF AND PUSH2 0x1C60 PUSH2 0x122E JUMP JUMPDEST PUSH20 0xFFFFFFFFFFFFFFFFFFFFFFFFFFFFFFFFFFFFFFFF AND EQ PUSH2 0x1CB6 JUMPI PUSH1 0x40 MLOAD PUSH32 0x8C379A000000000000000000000000000000000000000000000000000000000 DUP2 MSTORE PUSH1 0x4 ADD PUSH2 0x1CAD SWAP1 PUSH2 0x40B1 JUMP JUMPDEST PUSH1 0x40 MLOAD DUP1 SWAP2 SUB SWAP1 REVERT JUMPDEST JUMP JUMPDEST DUP1 PUSH1 0xE SWAP1 DUP2 PUSH2 0x1CC7 SWAP2 SWAP1 PUSH2 0x4263 JUMP JUMPDEST POP POP JUMP JUMPDEST PUSH0 PUSH1 0x2 PUSH0 DUP4 DUP2 MSTORE PUSH1 0x20 ADD SWAP1 DUP2 MSTORE PUSH1 0x20 ADD PUSH0 KECCAK256 PUSH0 SWAP1 SLOAD SWAP1 PUSH2 0x100 EXP SWAP1 DIV PUSH20 0xFFFFFFFFFFFFFFFFFFFFFFFFFFFFFFFFFFFFFFFF AND SWAP1 POP SWAP2 SWAP1 POP JUMP JUMPDEST PUSH0 PUSH1 0xA PUSH0 SWAP1 SLOAD SWAP1 PUSH2 0x100 EXP SWAP1 DIV PUSH20 0xFFFFFFFFFFFFFFFFFFFFFFFFFFFFFFFFFFFFFFFF AND SWAP1 POP DUP2 PUSH1 0xA PUSH0 PUSH2 0x100 EXP DUP2 SLOAD DUP2 PUSH20 0xFFFFFFFFFFFFFFFFFFFFFFFFFFFFFFFFFFFFFFFF MUL NOT AND SWAP1 DUP4 PUSH20 0xFFFFFFFFFFFFFFFFFFFFFFFFFFFFFFFFFFFFFFFF AND MUL OR SWAP1 SSTORE POP DUP2 PUSH20 0xFFFFFFFFFFFFFFFFFFFFFFFFFFFFFFFFFFFFFFFF AND DUP2 PUSH20 0xFFFFFFFFFFFFFFFFFFFFFFFFFFFFFFFFFFFFFFFF AND PUSH32 0x8BE0079C531659141344CD1FD0A4F28419497F9722A3DAAFE3B4186F6B6457E0 PUSH1 0x40 MLOAD PUSH1 0x40 MLOAD DUP1 SWAP2 SUB SWAP1 LOG3 POP POP JUMP JUMPDEST PUSH0 TIMESTAMP SWAP1 POP SWAP1 JUMP JUMPDEST PUSH0 DUP1 PUSH1 0xD PUSH0 DUP5 DUP2 MSTORE PUSH1 0x20 ADD SWAP1 DUP2 MSTORE PUSH1 0x20 ADD PUSH0 KECCAK256 SLOAD SWAP1 POP PUSH1 0xD PUSH0 DUP5 DUP2 MSTORE PUSH1 0x20 ADD SWAP1 DUP2 MSTORE PUSH1 0x20 ADD PUSH0 KECCAK256 PUSH0 DUP2 SLOAD DUP1 SWAP3 SWAP2 SWAP1 PUSH2 0x1E05 SWAP1 PUSH2 0x3E23 JUMP JUMPDEST SWAP2 SWAP1 POP SSTORE POP DUP1 SWAP2 POP POP SWAP2 SWAP1 POP JUMP JUMPDEST PUSH0 DUP1 DUP3 PUSH20 0xFFFFFFFFFFFFFFFFFFFFFFFFFFFFFFFFFFFFFFFF AND EXTCODESIZE GT SWAP1 POP SWAP2 SWAP1 POP JUMP JUMPDEST DUP2 PUSH20 0xFFFFFFFFFFFFFFFFFFFFFFFFFFFFFFFFFFFFFFFF AND DUP4 PUSH20 0xFFFFFFFFFFFFFFFFFFFFFFFFFFFFFFFFFFFFFFFF AND SUB PUSH2 0x1EA3 JUMPI PUSH1 0x40 MLOAD PUSH32 0x8C379A000000000000000000000000000000000000000000000000000000000 DUP2 MSTORE PUSH1 0x4 ADD PUSH2 0x1E9A SWAP1 PUSH2 0x437C JUMP JUMPDEST PUSH1 0x40 MLOAD DUP1 SWAP2 SUB SWAP1 REVERT JUMPDEST DUP1 PUSH1 0x5 PUSH0 DUP6 PUSH20 0xFFFFFFFFFFFFFFFFFFFFFFFFFFFFFFFFFFFFFFFF AND PUSH20 0xFFFFFFFFFFFFFFFFFFFFFFFFFFFFFFFFFFFFFFFF AND DUP2 MSTORE PUSH1 0x20 ADD SWAP1 DUP2 MSTORE PUSH1 0x20 ADD PUSH0 KECCAK256 PUSH0 DUP5 PUSH20 0xFFFFFFFFFFFFFFFFFFFFFFFFFFFFFFFFFFFFFFFF AND PUSH20 0xFFFFFFFFFFFFFFFFFFFFFFFFFFFFFFFFFFFFFFFF AND DUP2 MSTORE PUSH1 0x20 ADD SWAP1 DUP2 MSTORE PUSH1 0x20 ADD PUSH0 KECCAK256 PUSH0 PUSH2 0x100 EXP DUP2 SLOAD DUP2 PUSH1 0xFF MUL NOT AND SWAP1 DUP4 ISZERO ISZERO MUL OR SWAP1 SSTORE POP DUP2 PUSH20 0xFFFFFFFFFFFFFFFFFFFFFFFFFFFFFFFFFFFFFFFF AND DUP4 PUSH20 0xFFFFFFFFFFFFFFFFFFFFFFFFFFFFFFFFFFFFFFFF AND PUSH32 0x17307EAB39AB6107E8899845AD3D59BD9653F200F220920489CA2B5937696C31 DUP4 PUSH1 0x40 MLOAD PUSH2 0x1F8F SWAP2 SWAP1 PUSH2 0x2C8E JUMP JUMPDEST PUSH1 0x40 MLOAD DUP1 SWAP2 SUB SWAP1 LOG3 POP POP POP JUMP JUMPDEST PUSH0 DUP2 PUSH20 0xFFFFFFFFFFFFFFFFFFFFFFFFFFFFFFFFFFFFFFFF AND PUSH0 SHL SWAP1 POP SWAP2 SWAP1 POP JUMP JUMPDEST PUSH0 DUP3 PUSH2 0x1FC9 DUP6 DUP5 PUSH2 0x25A6 JUMP JUMPDEST EQ SWAP1 POP SWAP4 SWAP3 POP POP POP JUMP JUMPDEST PUSH0 PUSH20 0xFFFFFFFFFFFFFFFFFFFFFFFFFFFFFFFFFFFFFFFF AND DUP3 PUSH20 0xFFFFFFFFFFFFFFFFFFFFFFFFFFFFFFFFFFFFFFFF AND SUB PUSH2 0x2041 JUMPI PUSH1 0x40 MLOAD PUSH32 0x8C379A000000000000000000000000000000000000000000000000000000000 DUP2 MSTORE PUSH1 0x4 ADD PUSH2 0x2038 SWAP1 PUSH2 0x43E4 JUMP JUMPDEST PUSH1 0x40 MLOAD DUP1 SWAP2 SUB SWAP1 REVERT JUMPDEST PUSH2 0x204A DUP2 PUSH2 0x2405 JUMP JUMPDEST ISZERO PUSH2 0x208A JUMPI PUSH1 0x40 MLOAD PUSH32 0x8C379A000000000000000000000000000000000000000000000000000000000 DUP2 MSTORE PUSH1 0x4 ADD PUSH2 0x2081 SWAP1 PUSH2 0x444C JUMP JUMPDEST PUSH1 0x40 MLOAD DUP1 SWAP2 SUB SWAP1 REVERT JUMPDEST PUSH2 0x2097 PUSH0 DUP4 DUP4 PUSH1 0x1 PUSH2 0x2445 JUMP JUMPDEST PUSH2 0x20A0 DUP2 PUSH2 0x2405 JUMP JUMPDEST ISZERO PUSH2 0x20E0 JUMPI PUSH1 0x40 MLOAD PUSH32 0x8C379A000000000000000000000000000000000000000000000000000000000 DUP2 MSTORE PUSH1 0x4 ADD PUSH2 0x20D7 SWAP1 PUSH2 0x444C JUMP JUMPDEST PUSH1 0x40 MLOAD DUP1 SWAP2 SUB SWAP1 REVERT JUMPDEST PUSH1 0x1 PUSH1 0x3 PUSH0 DUP5 PUSH20 0xFFFFFFFFFFFFFFFFFFFFFFFFFFFFFFFFFFFFFFFF AND PUSH20 0xFFFFFFFFFFFFFFFFFFFFFFFFFFFFFFFFFFFFFFFF AND DUP2 MSTORE PUSH1 0x20 ADD SWAP1 DUP2 MSTORE PUSH1 0x20 ADD PUSH0 KECCAK256 PUSH0 DUP3 DUP3 SLOAD ADD SWAP3 POP POP DUP2 SWAP1 SSTORE POP DUP2 PUSH1 0x2 PUSH0 DUP4 DUP2 MSTORE PUSH1 0x20 ADD SWAP1 DUP2 MSTORE PUSH1 0x20 ADD PUSH0 KECCAK256 PUSH0 PUSH2 0x100 EXP DUP2 SLOAD DUP2 PUSH20 0xFFFFFFFFFFFFFFFFFFFFFFFFFFFFFFFFFFFFFFFF MUL NOT AND SWAP1 DUP4 PUSH20 0xFFFFFFFFFFFFFFFFFFFFFFFFFFFFFFFFFFFFFFFF AND MUL OR SWAP1 SSTORE POP DUP1 DUP3 PUSH20 0xFFFFFFFFFFFFFFFFFFFFFFFFFFFFFFFFFFFFFFFF AND PUSH0 PUSH20 0xFFFFFFFFFFFFFFFFFFFFFFFFFFFFFFFFFFFFFFFF AND PUSH32 0xDDF252AD1BE2C89B69C2B068FC378DAA952BA7F163C4A11628F55A4DF523B3EF PUSH1 0x40 MLOAD PUSH1 0x40 MLOAD DUP1 SWAP2 SUB SWAP1 LOG4 PUSH2 0x21E2 PUSH0 DUP4 DUP4 PUSH1 0x1 PUSH2 0x25A0 JUMP JUMPDEST POP POP JUMP JUMPDEST PUSH2 0x21F1 DUP5 DUP5 DUP5 PUSH2 0x1947 JUMP JUMPDEST PUSH2 0x21FD DUP5 DUP5 DUP5 DUP5 PUSH2 0x25FA JUMP JUMPDEST PUSH2 0x223C JUMPI PUSH1 0x40 MLOAD PUSH32 0x8C379A000000000000000000000000000000000000000000000000000000000 DUP2 MSTORE PUSH1 0x4 ADD PUSH2 0x2233 SWAP1 PUSH2 0x44DA JUMP JUMPDEST PUSH1 0x40 MLOAD DUP1 SWAP2 SUB SWAP1 REVERT JUMPDEST POP POP POP POP JUMP JUMPDEST PUSH1 0x60 PUSH1 0xE DUP1 SLOAD PUSH2 0x2251 SWAP1 PUSH2 0x3438 JUMP JUMPDEST DUP1 PUSH1 0x1F ADD PUSH1 0x20 DUP1 SWAP2 DIV MUL PUSH1 0x20 ADD PUSH1 0x40 MLOAD SWAP1 DUP2 ADD PUSH1 0x40 MSTORE DUP1 SWAP3 SWAP2 SWAP1 DUP2 DUP2 MSTORE PUSH1 0x20 ADD DUP3 DUP1 SLOAD PUSH2 0x227D SWAP1 PUSH2 0x3438 JUMP JUMPDEST DUP1 ISZERO PUSH2 0x22C8 JUMPI DUP1 PUSH1 0x1F LT PUSH2 0x229F JUMPI PUSH2 0x100 DUP1 DUP4 SLOAD DIV MUL DUP4 MSTORE SWAP2 PUSH1 0x20 ADD SWAP2 PUSH2 0x22C8 JUMP JUMPDEST DUP3 ADD SWAP2 SWAP1 PUSH0 MSTORE PUSH1 0x20 PUSH0 KECCAK256 SWAP1 JUMPDEST DUP2 SLOAD DUP2 MSTORE SWAP1 PUSH1 0x1 ADD SWAP1 PUSH1 0x20 ADD DUP1 DUP4 GT PUSH2 0x22AB JUMPI DUP3 SWAP1 SUB PUSH1 0x1F AND DUP3 ADD SWAP2 JUMPDEST POP POP POP POP POP SWAP1 POP SWAP1 JUMP JUMPDEST PUSH1 0x60 PUSH0 PUSH1 0x1 PUSH2 0x22E0 DUP5 PUSH2 0x277C JUMP JUMPDEST ADD SWAP1 POP PUSH0 DUP2 PUSH8 0xFFFFFFFFFFFFFFFF DUP2 GT ISZERO PUSH2 0x22FE JUMPI PUSH2 0x22FD PUSH2 0x2F20 JUMP JUMPDEST JUMPDEST PUSH1 0x40 MLOAD SWAP1 DUP1 DUP3 MSTORE DUP1 PUSH1 0x1F ADD PUSH1 0x1F NOT AND PUSH1 0x20 ADD DUP3 ADD PUSH1 0x40 MSTORE DUP1 ISZERO PUSH2 0x2330 JUMPI DUP2 PUSH1 0x20 ADD PUSH1 0x1 DUP3 MUL DUP1 CALLDATASIZE DUP4 CALLDATACOPY DUP1 DUP3 ADD SWAP2 POP POP SWAP1 POP JUMPDEST POP SWAP1 POP PUSH0 DUP3 PUSH1 0x20 ADD DUP3 ADD SWAP1 POP JUMPDEST PUSH1 0x1 ISZERO PUSH2 0x2391 JUMPI DUP1 DUP1 PUSH1 0x1 SWAP1 SUB SWAP2 POP POP PUSH32 0x3031323334353637383961626364656600000000000000000000000000000000 PUSH1 0xA DUP7 MOD BYTE DUP2 MSTORE8 PUSH1 0xA DUP6 DUP2 PUSH2 0x2386 JUMPI PUSH2 0x2385 PUSH2 0x44F8 JUMP JUMPDEST JUMPDEST DIV SWAP5 POP PUSH0 DUP6 SUB PUSH2 0x233D JUMPI JUMPDEST DUP2 SWAP4 POP POP POP POP SWAP2 SWAP1 POP JUMP JUMPDEST PUSH0 PUSH32 0x1FFC9A700000000000000000000000000000000000000000000000000000000 PUSH28 0xFFFFFFFFFFFFFFFFFFFFFFFFFFFFFFFFFFFFFFFFFFFFFFFFFFFFFFFF NOT AND DUP3 PUSH28 0xFFFFFFFFFFFFFFFFFFFFFFFFFFFFFFFFFFFFFFFFFFFFFFFFFFFFFFFF NOT AND EQ SWAP1 POP SWAP2 SWAP1 POP JUMP JUMPDEST PUSH0 DUP1 PUSH20 0xFFFFFFFFFFFFFFFFFFFFFFFFFFFFFFFFFFFFFFFF AND PUSH2 0x2426 DUP4 PUSH2 0x1CCB JUMP JUMPDEST PUSH20 0xFFFFFFFFFFFFFFFFFFFFFFFFFFFFFFFFFFFFFFFF AND EQ ISZERO SWAP1 POP SWAP2 SWAP1 POP JUMP JUMPDEST PUSH2 0x2451 DUP5 DUP5 DUP5 DUP5 PUSH2 0x28CD JUMP JUMPDEST PUSH1 0x1 DUP2 GT ISZERO PUSH2 0x2495 JUMPI PUSH1 0x40 MLOAD PUSH32 0x8C379A000000000000000000000000000000000000000000000000000000000 DUP2 MSTORE PUSH1 0x4 ADD PUSH2 0x248C SWAP1 PUSH2 0x4595 JUMP JUMPDEST PUSH1 0x40 MLOAD DUP1 SWAP2 SUB SWAP1 REVERT JUMPDEST PUSH0 DUP3 SWAP1 POP PUSH0 PUSH20 0xFFFFFFFFFFFFFFFFFFFFFFFFFFFFFFFFFFFFFFFF AND DUP6 PUSH20 0xFFFFFFFFFFFFFFFFFFFFFFFFFFFFFFFFFFFFFFFF AND SUB PUSH2 0x24DA JUMPI PUSH2 0x24D5 DUP2 PUSH2 0x28D3 JUMP JUMPDEST PUSH2 0x2519 JUMP JUMPDEST DUP4 PUSH20 0xFFFFFFFFFFFFFFFFFFFFFFFFFFFFFFFFFFFFFFFF AND DUP6 PUSH20 0xFFFFFFFFFFFFFFFFFFFFFFFFFFFFFFFFFFFFFFFF AND EQ PUSH2 0x2518 JUMPI PUSH2 0x2517 DUP6 DUP3 PUSH2 0x2917 JUMP JUMPDEST JUMPDEST JUMPDEST PUSH0 PUSH20 0xFFFFFFFFFFFFFFFFFFFFFFFFFFFFFFFFFFFFFFFF AND DUP5 PUSH20 0xFFFFFFFFFFFFFFFFFFFFFFFFFFFFFFFFFFFFFFFF AND SUB PUSH2 0x255A JUMPI PUSH2 0x2555 DUP2 PUSH2 0x2A6D JUMP JUMPDEST PUSH2 0x2599 JUMP JUMPDEST DUP5 PUSH20 0xFFFFFFFFFFFFFFFFFFFFFFFFFFFFFFFFFFFFFFFF AND DUP5 PUSH20 0xFFFFFFFFFFFFFFFFFFFFFFFFFFFFFFFFFFFFFFFF AND EQ PUSH2 0x2598 JUMPI PUSH2 0x2597 DUP5 DUP3 PUSH2 0x2B2D JUMP JUMPDEST JUMPDEST JUMPDEST POP POP POP POP POP JUMP JUMPDEST POP POP POP POP JUMP JUMPDEST PUSH0 DUP1 DUP3 SWAP1 POP PUSH0 JUMPDEST DUP5 MLOAD DUP2 LT ISZERO PUSH2 0x25EF JUMPI PUSH2 0x25DA DUP3 DUP7 DUP4 DUP2 MLOAD DUP2 LT PUSH2 0x25CD JUMPI PUSH2 0x25CC PUSH2 0x37C1 JUMP JUMPDEST JUMPDEST PUSH1 0x20 MUL PUSH1 0x20 ADD ADD MLOAD PUSH2 0x2BA5 JUMP JUMPDEST SWAP2 POP DUP1 DUP1 PUSH2 0x25E7 SWAP1 PUSH2 0x3E23 JUMP JUMPDEST SWAP2 POP POP PUSH2 0x25AD JUMP JUMPDEST POP DUP1 SWAP2 POP POP SWAP3 SWAP2 POP POP JUMP JUMPDEST PUSH0 PUSH2 0x261A DUP5 PUSH20 0xFFFFFFFFFFFFFFFFFFFFFFFFFFFFFFFFFFFFFFFF AND PUSH2 0x1E13 JUMP JUMPDEST ISZERO PUSH2 0x276F JUMPI DUP4 PUSH20 0xFFFFFFFFFFFFFFFFFFFFFFFFFFFFFFFFFFFFFFFF AND PUSH4 0x150B7A02 PUSH2 0x2643 PUSH2 0x17F6 JUMP JUMPDEST DUP8 DUP7 DUP7 PUSH1 0x40 MLOAD DUP6 PUSH4 0xFFFFFFFF AND PUSH1 0xE0 SHL DUP2 MSTORE PUSH1 0x4 ADD PUSH2 0x2665 SWAP5 SWAP4 SWAP3 SWAP2 SWAP1 PUSH2 0x45B3 JUMP JUMPDEST PUSH1 0x20 PUSH1 0x40 MLOAD DUP1 DUP4 SUB DUP2 PUSH0 DUP8 GAS CALL SWAP3 POP POP POP DUP1 ISZERO PUSH2 0x26A0 JUMPI POP PUSH1 0x40 MLOAD RETURNDATASIZE PUSH1 0x1F NOT PUSH1 0x1F DUP3 ADD AND DUP3 ADD DUP1 PUSH1 0x40 MSTORE POP DUP2 ADD SWAP1 PUSH2 0x269D SWAP2 SWAP1 PUSH2 0x3BD9 JUMP JUMPDEST PUSH1 0x1 JUMPDEST PUSH2 0x271F JUMPI RETURNDATASIZE DUP1 PUSH0 DUP2 EQ PUSH2 0x26CE JUMPI PUSH1 0x40 MLOAD SWAP2 POP PUSH1 0x1F NOT PUSH1 0x3F RETURNDATASIZE ADD AND DUP3 ADD PUSH1 0x40 MSTORE RETURNDATASIZE DUP3 MSTORE RETURNDATASIZE PUSH0 PUSH1 0x20 DUP5 ADD RETURNDATACOPY PUSH2 0x26D3 JUMP JUMPDEST PUSH1 0x60 SWAP2 POP JUMPDEST POP PUSH0 DUP2 MLOAD SUB PUSH2 0x2717 JUMPI PUSH1 0x40 MLOAD PUSH32 0x8C379A000000000000000000000000000000000000000000000000000000000 DUP2 MSTORE PUSH1 0x4 ADD PUSH2 0x270E SWAP1 PUSH2 0x44DA JUMP JUMPDEST PUSH1 0x40 MLOAD DUP1 SWAP2 SUB SWAP1 REVERT JUMPDEST DUP1 MLOAD DUP2 PUSH1 0x20 ADD REVERT JUMPDEST PUSH4 0x150B7A02 PUSH1 0xE0 SHL PUSH28 0xFFFFFFFFFFFFFFFFFFFFFFFFFFFFFFFFFFFFFFFFFFFFFFFFFFFFFFFF NOT AND DUP2 PUSH28 0xFFFFFFFFFFFFFFFFFFFFFFFFFFFFFFFFFFFFFFFFFFFFFFFFFFFFFFFF NOT AND EQ SWAP2 POP POP PUSH2 0x2774 JUMP JUMPDEST PUSH1 0x1 SWAP1 POP JUMPDEST SWAP5 SWAP4 POP POP POP POP JUMP JUMPDEST PUSH0 DUP1 PUSH0 SWAP1 POP PUSH27 0x184F03E93FF9F4DAA797ED6E38ED64BF6A1F010000000000000000 DUP4 LT PUSH2 0x27D8 JUMPI PUSH27 0x184F03E93FF9F4DAA797ED6E38ED64BF6A1F010000000000000000 DUP4 DUP2 PUSH2 0x27CE JUMPI PUSH2 0x27CD PUSH2 0x44F8 JUMP JUMPDEST JUMPDEST DIV SWAP3 POP PUSH1 0x40 DUP2 ADD SWAP1 POP JUMPDEST PUSH14 0x4EE2D6D415B85ACEF8100000000 DUP4 LT PUSH2 0x2815 JUMPI PUSH14 0x4EE2D6D415B85ACEF8100000000 DUP4 DUP2 PUSH2 0x280B JUMPI PUSH2 0x280A PUSH2 0x44F8 JUMP JUMPDEST JUMPDEST DIV SWAP3 POP PUSH1 0x20 DUP2 ADD SWAP1 POP JUMPDEST PUSH7 0x2386F26FC10000 DUP4 LT PUSH2 0x2844 JUMPI PUSH7 0x2386F26FC10000 DUP4 DUP2 PUSH2 0x283A JUMPI PUSH2 0x2839 PUSH2 0x44F8 JUMP JUMPDEST JUMPDEST DIV SWAP3 POP PUSH1 0x10 DUP2 ADD SWAP1 POP JUMPDEST PUSH4 0x5F5E100 DUP4 LT PUSH2 0x286D JUMPI PUSH4 0x5F5E100 DUP4 DUP2 PUSH2 0x2863 JUMPI PUSH2 0x2862 PUSH2 0x44F8 JUMP JUMPDEST JUMPDEST DIV SWAP3 POP PUSH1 0x8 DUP2 ADD SWAP1 POP JUMPDEST PUSH2 0x2710 DUP4 LT PUSH2 0x2892 JUMPI PUSH2 0x2710 DUP4 DUP2 PUSH2 0x2888 JUMPI PUSH2 0x2887 PUSH2 0x44F8 JUMP JUMPDEST JUMPDEST DIV SWAP3 POP PUSH1 0x4 DUP2 ADD SWAP1 POP JUMPDEST PUSH1 0x64 DUP4 LT PUSH2 0x28B5 JUMPI PUSH1 0x64 DUP4 DUP2 PUSH2 0x28AB JUMPI PUSH2 0x28AA PUSH2 0x44F8 JUMP JUMPDEST JUMPDEST DIV SWAP3 POP PUSH1 0x2 DUP2 ADD SWAP1 POP JUMPDEST PUSH1 0xA DUP4 LT PUSH2 0x28C4 JUMPI PUSH1 0x1 DUP2 ADD SWAP1 POP JUMPDEST DUP1 SWAP2 POP POP SWAP2 SWAP1 POP JUMP JUMPDEST POP POP POP POP JUMP JUMPDEST PUSH1 0x8 DUP1 SLOAD SWAP1 POP PUSH1 0x9 PUSH0 DUP4 DUP2 MSTORE PUSH1 0x20 ADD SWAP1 DUP2 MSTORE PUSH1 0x20 ADD PUSH0 KECCAK256 DUP2 SWAP1 SSTORE POP PUSH1 0x8 DUP2 SWAP1 DUP1 PUSH1 0x1 DUP2 SLOAD ADD DUP1 DUP3 SSTORE DUP1 SWAP2 POP POP PUSH1 0x1 SWAP1 SUB SWAP1 PUSH0 MSTORE PUSH1 0x20 PUSH0 KECCAK256 ADD PUSH0 SWAP1 SWAP2 SWAP1 SWAP2 SWAP1 SWAP2 POP SSTORE POP JUMP JUMPDEST PUSH0 PUSH1 0x1 PUSH2 0x2923 DUP5 PUSH2 0xDBA JUMP JUMPDEST PUSH2 0x292D SWAP2 SWAP1 PUSH2 0x45FD JUMP JUMPDEST SWAP1 POP PUSH0 PUSH1 0x7 PUSH0 DUP5 DUP2 MSTORE PUSH1 0x20 ADD SWAP1 DUP2 MSTORE PUSH1 0x20 ADD PUSH0 KECCAK256 SLOAD SWAP1 POP DUP2 DUP2 EQ PUSH2 0x2A04 JUMPI PUSH0 PUSH1 0x6 PUSH0 DUP7 PUSH20 0xFFFFFFFFFFFFFFFFFFFFFFFFFFFFFFFFFFFFFFFF AND PUSH20 0xFFFFFFFFFFFFFFFFFFFFFFFFFFFFFFFFFFFFFFFF AND DUP2 MSTORE PUSH1 0x20 ADD SWAP1 DUP2 MSTORE PUSH1 0x20 ADD PUSH0 KECCAK256 PUSH0 DUP5 DUP2 MSTORE PUSH1 0x20 ADD SWAP1 DUP2 MSTORE PUSH1 0x20 ADD PUSH0 KECCAK256 SLOAD SWAP1 POP DUP1 PUSH1 0x6 PUSH0 DUP8 PUSH20 0xFFFFFFFFFFFFFFFFFFFFFFFFFFFFFFFFFFFFFFFF AND PUSH20 0xFFFFFFFFFFFFFFFFFFFFFFFFFFFFFFFFFFFFFFFF AND DUP2 MSTORE PUSH1 0x20 ADD SWAP1 DUP2 MSTORE PUSH1 0x20 ADD PUSH0 KECCAK256 PUSH0 DUP5 DUP2 MSTORE PUSH1 0x20 ADD SWAP1 DUP2 MSTORE PUSH1 0x20 ADD PUSH0 KECCAK256 DUP2 SWAP1 SSTORE POP DUP2 PUSH1 0x7 PUSH0 DUP4 DUP2 MSTORE PUSH1 0x20 ADD SWAP1 DUP2 MSTORE PUSH1 0x20 ADD PUSH0 KECCAK256 DUP2 SWAP1 SSTORE POP POP JUMPDEST PUSH1 0x7 PUSH0 DUP5 DUP2 MSTORE PUSH1 0x20 ADD SWAP1 DUP2 MSTORE PUSH1 0x20 ADD PUSH0 KECCAK256 PUSH0 SWAP1 SSTORE PUSH1 0x6 PUSH0 DUP6 PUSH20 0xFFFFFFFFFFFFFFFFFFFFFFFFFFFFFFFFFFFFFFFF AND PUSH20 0xFFFFFFFFFFFFFFFFFFFFFFFFFFFFFFFFFFFFFFFF AND DUP2 MSTORE PUSH1 0x20 ADD SWAP1 DUP2 MSTORE PUSH1 0x20 ADD PUSH0 KECCAK256 PUSH0 DUP4 DUP2 MSTORE PUSH1 0x20 ADD SWAP1 DUP2 MSTORE PUSH1 0x20 ADD PUSH0 KECCAK256 PUSH0 SWAP1 SSTORE POP POP POP POP JUMP JUMPDEST PUSH0 PUSH1 0x1 PUSH1 0x8 DUP1 SLOAD SWAP1 POP PUSH2 0x2A80 SWAP2 SWAP1 PUSH2 0x45FD JUMP JUMPDEST SWAP1 POP PUSH0 PUSH1 0x9 PUSH0 DUP5 DUP2 MSTORE PUSH1 0x20 ADD SWAP1 DUP2 MSTORE PUSH1 0x20 ADD PUSH0 KECCAK256 SLOAD SWAP1 POP PUSH0 PUSH1 0x8 DUP4 DUP2 SLOAD DUP2 LT PUSH2 0x2AAC JUMPI PUSH2 0x2AAB PUSH2 0x37C1 JUMP JUMPDEST JUMPDEST SWAP1 PUSH0 MSTORE PUSH1 0x20 PUSH0 KECCAK256 ADD SLOAD SWAP1 POP DUP1 PUSH1 0x8 DUP4 DUP2 SLOAD DUP2 LT PUSH2 0x2ACC JUMPI PUSH2 0x2ACB PUSH2 0x37C1 JUMP JUMPDEST JUMPDEST SWAP1 PUSH0 MSTORE PUSH1 0x20 PUSH0 KECCAK256 ADD DUP2 SWAP1 SSTORE POP DUP2 PUSH1 0x9 PUSH0 DUP4 DUP2 MSTORE PUSH1 0x20 ADD SWAP1 DUP2 MSTORE PUSH1 0x20 ADD PUSH0 KECCAK256 DUP2 SWAP1 SSTORE POP PUSH1 0x9 PUSH0 DUP6 DUP2 MSTORE PUSH1 0x20 ADD SWAP1 DUP2 MSTORE PUSH1 0x20 ADD PUSH0 KECCAK256 PUSH0 SWAP1 SSTORE PUSH1 0x8 DUP1 SLOAD DUP1 PUSH2 0x2B14 JUMPI PUSH2 0x2B13 PUSH2 0x4630 JUMP JUMPDEST JUMPDEST PUSH1 0x1 SWAP1 SUB DUP2 DUP2 SWAP1 PUSH0 MSTORE PUSH1 0x20 PUSH0 KECCAK256 ADD PUSH0 SWAP1 SSTORE SWAP1 SSTORE POP POP POP POP JUMP JUMPDEST PUSH0 PUSH2 0x2B37 DUP4 PUSH2 0xDBA JUMP JUMPDEST SWAP1 POP DUP2 PUSH1 0x6 PUSH0 DUP6 PUSH20 0xFFFFFFFFFFFFFFFFFFFFFFFFFFFFFFFFFFFFFFFF AND PUSH20 0xFFFFFFFFFFFFFFFFFFFFFFFFFFFFFFFFFFFFFFFF AND DUP2 MSTORE PUSH1 0x20 ADD SWAP1 DUP2 MSTORE PUSH1 0x20 ADD PUSH0 KECCAK256 PUSH0 DUP4 DUP2 MSTORE PUSH1 0x20 ADD SWAP1 DUP2 MSTORE PUSH1 0x20 ADD PUSH0 KECCAK256 DUP2 SWAP1 SSTORE POP DUP1 PUSH1 0x7 PUSH0 DUP5 DUP2 MSTORE PUSH1 0x20 ADD SWAP1 DUP2 MSTORE PUSH1 0x20 ADD PUSH0 KECCAK256 DUP2 SWAP1 SSTORE POP POP POP POP JUMP JUMPDEST PUSH0 DUP2 DUP4 LT PUSH2 0x2BBC JUMPI PUSH2 0x2BB7 DUP3 DUP5 PUSH2 0x2BCF JUMP JUMPDEST PUSH2 0x2BC7 JUMP JUMPDEST PUSH2 0x2BC6 DUP4 DUP4 PUSH2 0x2BCF JUMP JUMPDEST JUMPDEST SWAP1 POP SWAP3 SWAP2 POP POP JUMP JUMPDEST PUSH0 DUP3 PUSH0 MSTORE DUP2 PUSH1 0x20 MSTORE PUSH1 0x40 PUSH0 KECCAK256 SWAP1 POP SWAP3 SWAP2 POP POP JUMP JUMPDEST PUSH0 PUSH1 0x40 MLOAD SWAP1 POP SWAP1 JUMP JUMPDEST PUSH0 DUP1 REVERT JUMPDEST PUSH0 DUP1 REVERT JUMPDEST PUSH0 PUSH32 0xFFFFFFFF00000000000000000000000000000000000000000000000000000000 DUP3 AND SWAP1 POP SWAP2 SWAP1 POP JUMP JUMPDEST PUSH2 0x2C28 DUP2 PUSH2 0x2BF4 JUMP JUMPDEST DUP2 EQ PUSH2 0x2C32 JUMPI PUSH0 DUP1 REVERT JUMPDEST POP JUMP JUMPDEST PUSH0 DUP2 CALLDATALOAD SWAP1 POP PUSH2 0x2C43 DUP2 PUSH2 0x2C1F JUMP JUMPDEST SWAP3 SWAP2 POP POP JUMP JUMPDEST PUSH0 PUSH1 0x20 DUP3 DUP5 SUB SLT ISZERO PUSH2 0x2C5E JUMPI PUSH2 0x2C5D PUSH2 0x2BEC JUMP JUMPDEST JUMPDEST PUSH0 PUSH2 0x2C6B DUP5 DUP3 DUP6 ADD PUSH2 0x2C35 JUMP JUMPDEST SWAP2 POP POP SWAP3 SWAP2 POP POP JUMP JUMPDEST PUSH0 DUP2 ISZERO ISZERO SWAP1 POP SWAP2 SWAP1 POP JUMP JUMPDEST PUSH2 0x2C88 DUP2 PUSH2 0x2C74 JUMP JUMPDEST DUP3 MSTORE POP POP JUMP JUMPDEST PUSH0 PUSH1 0x20 DUP3 ADD SWAP1 POP PUSH2 0x2CA1 PUSH0 DUP4 ADD DUP5 PUSH2 0x2C7F JUMP JUMPDEST SWAP3 SWAP2 POP POP JUMP JUMPDEST PUSH0 DUP2 MLOAD SWAP1 POP SWAP2 SWAP1 POP JUMP JUMPDEST PUSH0 DUP3 DUP3 MSTORE PUSH1 0x20 DUP3 ADD SWAP1 POP SWAP3 SWAP2 POP POP JUMP JUMPDEST PUSH0 JUMPDEST DUP4 DUP2 LT ISZERO PUSH2 0x2CDE JUMPI DUP1 DUP3 ADD MLOAD DUP2 DUP5 ADD MSTORE PUSH1 0x20 DUP2 ADD SWAP1 POP PUSH2 0x2CC3 JUMP JUMPDEST PUSH0 DUP5 DUP5 ADD MSTORE POP POP POP POP JUMP JUMPDEST PUSH0 PUSH1 0x1F NOT PUSH1 0x1F DUP4 ADD AND SWAP1 POP SWAP2 SWAP1 POP JUMP JUMPDEST PUSH0 PUSH2 0x2D03 DUP3 PUSH2 0x2CA7 JUMP JUMPDEST PUSH2 0x2D0D DUP2 DUP6 PUSH2 0x2CB1 JUMP JUMPDEST SWAP4 POP PUSH2 0x2D1D DUP2 DUP6 PUSH1 0x20 DUP7 ADD PUSH2 0x2CC1 JUMP JUMPDEST PUSH2 0x2D26 DUP2 PUSH2 0x2CE9 JUMP JUMPDEST DUP5 ADD SWAP2 POP POP SWAP3 SWAP2 POP POP JUMP JUMPDEST PUSH0 PUSH1 0x20 DUP3 ADD SWAP1 POP DUP2 DUP2 SUB PUSH0 DUP4 ADD MSTORE PUSH2 0x2D49 DUP2 DUP5 PUSH2 0x2CF9 JUMP JUMPDEST SWAP1 POP SWAP3 SWAP2 POP POP JUMP JUMPDEST PUSH0 DUP2 SWAP1 POP SWAP2 SWAP1 POP JUMP JUMPDEST PUSH2 0x2D63 DUP2 PUSH2 0x2D51 JUMP JUMPDEST DUP2 EQ PUSH2 0x2D6D JUMPI PUSH0 DUP1 REVERT JUMPDEST POP JUMP JUMPDEST PUSH0 DUP2 CALLDATALOAD SWAP1 POP PUSH2 0x2D7E DUP2 PUSH2 0x2D5A JUMP JUMPDEST SWAP3 SWAP2 POP POP JUMP JUMPDEST PUSH0 PUSH1 0x20 DUP3 DUP5 SUB SLT ISZERO PUSH2 0x2D99 JUMPI PUSH2 0x2D98 PUSH2 0x2BEC JUMP JUMPDEST JUMPDEST PUSH0 PUSH2 0x2DA6 DUP5 DUP3 DUP6 ADD PUSH2 0x2D70 JUMP JUMPDEST SWAP2 POP POP SWAP3 SWAP2 POP POP JUMP JUMPDEST PUSH0 PUSH20 0xFFFFFFFFFFFFFFFFFFFFFFFFFFFFFFFFFFFFFFFF DUP3 AND SWAP1 POP SWAP2 SWAP1 POP JUMP JUMPDEST PUSH0 PUSH2 0x2DD8 DUP3 PUSH2 0x2DAF JUMP JUMPDEST SWAP1 POP SWAP2 SWAP1 POP JUMP JUMPDEST PUSH2 0x2DE8 DUP2 PUSH2 0x2DCE JUMP JUMPDEST DUP3 MSTORE POP POP JUMP JUMPDEST PUSH0 PUSH1 0x20 DUP3 ADD SWAP1 POP PUSH2 0x2E01 PUSH0 DUP4 ADD DUP5 PUSH2 0x2DDF JUMP JUMPDEST SWAP3 SWAP2 POP POP JUMP JUMPDEST PUSH2 0x2E10 DUP2 PUSH2 0x2DCE JUMP JUMPDEST DUP2 EQ PUSH2 0x2E1A JUMPI PUSH0 DUP1 REVERT JUMPDEST POP JUMP JUMPDEST PUSH0 DUP2 CALLDATALOAD SWAP1 POP PUSH2 0x2E2B DUP2 PUSH2 0x2E07 JUMP JUMPDEST SWAP3 SWAP2 POP POP JUMP JUMPDEST PUSH0 DUP1 PUSH1 0x40 DUP4 DUP6 SUB SLT ISZERO PUSH2 0x2E47 JUMPI PUSH2 0x2E46 PUSH2 0x2BEC JUMP JUMPDEST JUMPDEST PUSH0 PUSH2 0x2E54 DUP6 DUP3 DUP7 ADD PUSH2 0x2E1D JUMP JUMPDEST SWAP3 POP POP PUSH1 0x20 PUSH2 0x2E65 DUP6 DUP3 DUP7 ADD PUSH2 0x2D70 JUMP JUMPDEST SWAP2 POP POP SWAP3 POP SWAP3 SWAP1 POP JUMP JUMPDEST PUSH2 0x2E78 DUP2 PUSH2 0x2D51 JUMP JUMPDEST DUP3 MSTORE POP POP JUMP JUMPDEST PUSH0 PUSH1 0x20 DUP3 ADD SWAP1 POP PUSH2 0x2E91 PUSH0 DUP4 ADD DUP5 PUSH2 0x2E6F JUMP JUMPDEST SWAP3 SWAP2 POP POP JUMP JUMPDEST PUSH0 DUP1 PUSH0 PUSH1 0x60 DUP5 DUP7 SUB SLT ISZERO PUSH2 0x2EAE JUMPI PUSH2 0x2EAD PUSH2 0x2BEC JUMP JUMPDEST JUMPDEST PUSH0 PUSH2 0x2EBB DUP7 DUP3 DUP8 ADD PUSH2 0x2E1D JUMP JUMPDEST SWAP4 POP POP PUSH1 0x20 PUSH2 0x2ECC DUP7 DUP3 DUP8 ADD PUSH2 0x2E1D JUMP JUMPDEST SWAP3 POP POP PUSH1 0x40 PUSH2 0x2EDD DUP7 DUP3 DUP8 ADD PUSH2 0x2D70 JUMP JUMPDEST SWAP2 POP POP SWAP3 POP SWAP3 POP SWAP3 JUMP JUMPDEST PUSH0 DUP2 SWAP1 POP SWAP2 SWAP1 POP JUMP JUMPDEST PUSH2 0x2EF9 DUP2 PUSH2 0x2EE7 JUMP JUMPDEST DUP3 MSTORE POP POP JUMP JUMPDEST PUSH0 PUSH1 0x20 DUP3 ADD SWAP1 POP PUSH2 0x2F12 PUSH0 DUP4 ADD DUP5 PUSH2 0x2EF0 JUMP JUMPDEST SWAP3 SWAP2 POP POP JUMP JUMPDEST PUSH0 DUP1 REVERT JUMPDEST PUSH0 DUP1 REVERT JUMPDEST PUSH32 0x4E487B7100000000000000000000000000000000000000000000000000000000 PUSH0 MSTORE PUSH1 0x41 PUSH1 0x4 MSTORE PUSH1 0x24 PUSH0 REVERT JUMPDEST PUSH2 0x2F56 DUP3 PUSH2 0x2CE9 JUMP JUMPDEST DUP2 ADD DUP2 DUP2 LT PUSH8 0xFFFFFFFFFFFFFFFF DUP3 GT OR ISZERO PUSH2 0x2F75 JUMPI PUSH2 0x2F74 PUSH2 0x2F20 JUMP JUMPDEST JUMPDEST DUP1 PUSH1 0x40 MSTORE POP POP POP JUMP JUMPDEST PUSH0 PUSH2 0x2F87 PUSH2 0x2BE3 JUMP JUMPDEST SWAP1 POP PUSH2 0x2F93 DUP3 DUP3 PUSH2 0x2F4D JUMP JUMPDEST SWAP2 SWAP1 POP JUMP JUMPDEST PUSH0 PUSH8 0xFFFFFFFFFFFFFFFF DUP3 GT ISZERO PUSH2 0x2FB2 JUMPI PUSH2 0x2FB1 PUSH2 0x2F20 JUMP JUMPDEST JUMPDEST PUSH2 0x2FBB DUP3 PUSH2 0x2CE9 JUMP JUMPDEST SWAP1 POP PUSH1 0x20 DUP2 ADD SWAP1 POP SWAP2 SWAP1 POP JUMP JUMPDEST DUP3 DUP2 DUP4 CALLDATACOPY PUSH0 DUP4 DUP4 ADD MSTORE POP POP POP JUMP JUMPDEST PUSH0 PUSH2 0x2FE8 PUSH2 0x2FE3 DUP5 PUSH2 0x2F98 JUMP JUMPDEST PUSH2 0x2F7E JUMP JUMPDEST SWAP1 POP DUP3 DUP2 MSTORE PUSH1 0x20 DUP2 ADD DUP5 DUP5 DUP5 ADD GT ISZERO PUSH2 0x3004 JUMPI PUSH2 0x3003 PUSH2 0x2F1C JUMP JUMPDEST JUMPDEST PUSH2 0x300F DUP5 DUP3 DUP6 PUSH2 0x2FC8 JUMP JUMPDEST POP SWAP4 SWAP3 POP POP POP JUMP JUMPDEST PUSH0 DUP3 PUSH1 0x1F DUP4 ADD SLT PUSH2 0x302B JUMPI PUSH2 0x302A PUSH2 0x2F18 JUMP JUMPDEST JUMPDEST DUP2 CALLDATALOAD PUSH2 0x303B DUP5 DUP3 PUSH1 0x20 DUP7 ADD PUSH2 0x2FD6 JUMP JUMPDEST SWAP2 POP POP SWAP3 SWAP2 POP POP JUMP JUMPDEST PUSH0 PUSH1 0x20 DUP3 DUP5 SUB SLT ISZERO PUSH2 0x3059 JUMPI PUSH2 0x3058 PUSH2 0x2BEC JUMP JUMPDEST JUMPDEST PUSH0 DUP3 ADD CALLDATALOAD PUSH8 0xFFFFFFFFFFFFFFFF DUP2 GT ISZERO PUSH2 0x3076 JUMPI PUSH2 0x3075 PUSH2 0x2BF0 JUMP JUMPDEST JUMPDEST PUSH2 0x3082 DUP5 DUP3 DUP6 ADD PUSH2 0x3017 JUMP JUMPDEST SWAP2 POP POP SWAP3 SWAP2 POP POP JUMP JUMPDEST PUSH0 PUSH1 0x20 DUP3 DUP5 SUB SLT ISZERO PUSH2 0x30A0 JUMPI PUSH2 0x309F PUSH2 0x2BEC JUMP JUMPDEST JUMPDEST PUSH0 PUSH2 0x30AD DUP5 DUP3 DUP6 ADD PUSH2 0x2E1D JUMP JUMPDEST SWAP2 POP POP SWAP3 SWAP2 POP POP JUMP JUMPDEST PUSH0 PUSH1 0xFF DUP3 AND SWAP1 POP SWAP2 SWAP1 POP JUMP JUMPDEST PUSH2 0x30CB DUP2 PUSH2 0x30B6 JUMP JUMPDEST DUP2 EQ PUSH2 0x30D5 JUMPI PUSH0 DUP1 REVERT JUMPDEST POP JUMP JUMPDEST PUSH0 DUP2 CALLDATALOAD SWAP1 POP PUSH2 0x30E6 DUP2 PUSH2 0x30C2 JUMP JUMPDEST SWAP3 SWAP2 POP POP JUMP JUMPDEST PUSH2 0x30F5 DUP2 PUSH2 0x2EE7 JUMP JUMPDEST DUP2 EQ PUSH2 0x30FF JUMPI PUSH0 DUP1 REVERT JUMPDEST POP JUMP JUMPDEST PUSH0 DUP2 CALLDATALOAD SWAP1 POP PUSH2 0x3110 DUP2 PUSH2 0x30EC JUMP JUMPDEST SWAP3 SWAP2 POP POP JUMP JUMPDEST PUSH0 DUP1 PUSH0 DUP1 PUSH0 DUP1 PUSH1 0xC0 DUP8 DUP10 SUB SLT ISZERO PUSH2 0x3130 JUMPI PUSH2 0x312F PUSH2 0x2BEC JUMP JUMPDEST JUMPDEST PUSH0 PUSH2 0x313D DUP10 DUP3 DUP11 ADD PUSH2 0x2E1D JUMP JUMPDEST SWAP7 POP POP PUSH1 0x20 PUSH2 0x314E DUP10 DUP3 DUP11 ADD PUSH2 0x2D70 JUMP JUMPDEST SWAP6 POP POP PUSH1 0x40 PUSH2 0x315F DUP10 DUP3 DUP11 ADD PUSH2 0x2D70 JUMP JUMPDEST SWAP5 POP POP PUSH1 0x60 PUSH2 0x3170 DUP10 DUP3 DUP11 ADD PUSH2 0x30D8 JUMP JUMPDEST SWAP4 POP POP PUSH1 0x80 PUSH2 0x3181 DUP10 DUP3 DUP11 ADD PUSH2 0x3102 JUMP JUMPDEST SWAP3 POP POP PUSH1 0xA0 PUSH2 0x3192 DUP10 DUP3 DUP11 ADD PUSH2 0x3102 JUMP JUMPDEST SWAP2 POP POP SWAP3 SWAP6 POP SWAP3 SWAP6 POP SWAP3 SWAP6 JUMP JUMPDEST PUSH2 0x31A8 DUP2 PUSH2 0x2C74 JUMP JUMPDEST DUP2 EQ PUSH2 0x31B2 JUMPI PUSH0 DUP1 REVERT JUMPDEST POP JUMP JUMPDEST PUSH0 DUP2 CALLDATALOAD SWAP1 POP PUSH2 0x31C3 DUP2 PUSH2 0x319F JUMP JUMPDEST SWAP3 SWAP2 POP POP JUMP JUMPDEST PUSH0 DUP1 PUSH1 0x40 DUP4 DUP6 SUB SLT ISZERO PUSH2 0x31DF JUMPI PUSH2 0x31DE PUSH2 0x2BEC JUMP JUMPDEST JUMPDEST PUSH0 PUSH2 0x31EC DUP6 DUP3 DUP7 ADD PUSH2 0x2E1D JUMP JUMPDEST SWAP3 POP POP PUSH1 0x20 PUSH2 0x31FD DUP6 DUP3 DUP7 ADD PUSH2 0x31B5 JUMP JUMPDEST SWAP2 POP POP SWAP3 POP SWAP3 SWAP1 POP JUMP JUMPDEST PUSH0 DUP1 REVERT JUMPDEST PUSH0 DUP1 REVERT JUMPDEST PUSH0 DUP1 DUP4 PUSH1 0x1F DUP5 ADD SLT PUSH2 0x3224 JUMPI PUSH2 0x3223 PUSH2 0x2F18 JUMP JUMPDEST JUMPDEST DUP3 CALLDATALOAD SWAP1 POP PUSH8 0xFFFFFFFFFFFFFFFF DUP2 GT ISZERO PUSH2 0x3241 JUMPI PUSH2 0x3240 PUSH2 0x3207 JUMP JUMPDEST JUMPDEST PUSH1 0x20 DUP4 ADD SWAP2 POP DUP4 PUSH1 0x20 DUP3 MUL DUP4 ADD GT ISZERO PUSH2 0x325D JUMPI PUSH2 0x325C PUSH2 0x320B JUMP JUMPDEST JUMPDEST SWAP3 POP SWAP3 SWAP1 POP JUMP JUMPDEST PUSH0 DUP1 PUSH1 0x20 DUP4 DUP6 SUB SLT ISZERO PUSH2 0x327A JUMPI PUSH2 0x3279 PUSH2 0x2BEC JUMP JUMPDEST JUMPDEST PUSH0 DUP4 ADD CALLDATALOAD PUSH8 0xFFFFFFFFFFFFFFFF DUP2 GT ISZERO PUSH2 0x3297 JUMPI PUSH2 0x3296 PUSH2 0x2BF0 JUMP JUMPDEST JUMPDEST PUSH2 0x32A3 DUP6 DUP3 DUP7 ADD PUSH2 0x320F JUMP JUMPDEST SWAP3 POP SWAP3 POP POP SWAP3 POP SWAP3 SWAP1 POP JUMP JUMPDEST PUSH0 PUSH8 0xFFFFFFFFFFFFFFFF DUP3 GT ISZERO PUSH2 0x32C9 JUMPI PUSH2 0x32C8 PUSH2 0x2F20 JUMP JUMPDEST JUMPDEST PUSH2 0x32D2 DUP3 PUSH2 0x2CE9 JUMP JUMPDEST SWAP1 POP PUSH1 0x20 DUP2 ADD SWAP1 POP SWAP2 SWAP1 POP JUMP JUMPDEST PUSH0 PUSH2 0x32F1 PUSH2 0x32EC DUP5 PUSH2 0x32AF JUMP JUMPDEST PUSH2 0x2F7E JUMP JUMPDEST SWAP1 POP DUP3 DUP2 MSTORE PUSH1 0x20 DUP2 ADD DUP5 DUP5 DUP5 ADD GT ISZERO PUSH2 0x330D JUMPI PUSH2 0x330C PUSH2 0x2F1C JUMP JUMPDEST JUMPDEST PUSH2 0x3318 DUP5 DUP3 DUP6 PUSH2 0x2FC8 JUMP JUMPDEST POP SWAP4 SWAP3 POP POP POP JUMP JUMPDEST PUSH0 DUP3 PUSH1 0x1F DUP4 ADD SLT PUSH2 0x3334 JUMPI PUSH2 0x3333 PUSH2 0x2F18 JUMP JUMPDEST JUMPDEST DUP2 CALLDATALOAD PUSH2 0x3344 DUP5 DUP3 PUSH1 0x20 DUP7 ADD PUSH2 0x32DF JUMP JUMPDEST SWAP2 POP POP SWAP3 SWAP2 POP POP JUMP JUMPDEST PUSH0 DUP1 PUSH0 DUP1 PUSH1 0x80 DUP6 DUP8 SUB SLT ISZERO PUSH2 0x3365 JUMPI PUSH2 0x3364 PUSH2 0x2BEC JUMP JUMPDEST JUMPDEST PUSH0 PUSH2 0x3372 DUP8 DUP3 DUP9 ADD PUSH2 0x2E1D JUMP JUMPDEST SWAP5 POP POP PUSH1 0x20 PUSH2 0x3383 DUP8 DUP3 DUP9 ADD PUSH2 0x2E1D JUMP JUMPDEST SWAP4 POP POP PUSH1 0x40 PUSH2 0x3394 DUP8 DUP3 DUP9 ADD PUSH2 0x2D70 JUMP JUMPDEST SWAP3 POP POP PUSH1 0x60 DUP6 ADD CALLDATALOAD PUSH8 0xFFFFFFFFFFFFFFFF DUP2 GT ISZERO PUSH2 0x33B5 JUMPI PUSH2 0x33B4 PUSH2 0x2BF0 JUMP JUMPDEST JUMPDEST PUSH2 0x33C1 DUP8 DUP3 DUP9 ADD PUSH2 0x3320 JUMP JUMPDEST SWAP2 POP POP SWAP3 SWAP6 SWAP2 SWAP5 POP SWAP3 POP JUMP JUMPDEST PUSH0 DUP1 PUSH1 0x40 DUP4 DUP6 SUB SLT ISZERO PUSH2 0x33E3 JUMPI PUSH2 0x33E2 PUSH2 0x2BEC JUMP JUMPDEST JUMPDEST PUSH0 PUSH2 0x33F0 DUP6 DUP3 DUP7 ADD PUSH2 0x2E1D JUMP JUMPDEST SWAP3 POP POP PUSH1 0x20 PUSH2 0x3401 DUP6 DUP3 DUP7 ADD PUSH2 0x2E1D JUMP JUMPDEST SWAP2 POP POP SWAP3 POP SWAP3 SWAP1 POP JUMP JUMPDEST PUSH32 0x4E487B7100000000000000000000000000000000000000000000000000000000 PUSH0 MSTORE PUSH1 0x22 PUSH1 0x4 MSTORE PUSH1 0x24 PUSH0 REVERT JUMPDEST PUSH0 PUSH1 0x2 DUP3 DIV SWAP1 POP PUSH1 0x1 DUP3 AND DUP1 PUSH2 0x344F JUMPI PUSH1 0x7F DUP3 AND SWAP2 POP JUMPDEST PUSH1 0x20 DUP3 LT DUP2 SUB PUSH2 0x3462 JUMPI PUSH2 0x3461 PUSH2 0x340B JUMP JUMPDEST JUMPDEST POP SWAP2 SWAP1 POP JUMP JUMPDEST PUSH32 0x4552433732313A20617070726F76616C20746F2063757272656E74206F776E65 PUSH0 DUP3 ADD MSTORE PUSH32 0x7200000000000000000000000000000000000000000000000000000000000000 PUSH1 0x20 DUP3 ADD MSTORE POP JUMP JUMPDEST PUSH0 PUSH2 0x34C2 PUSH1 0x21 DUP4 PUSH2 0x2CB1 JUMP JUMPDEST SWAP2 POP PUSH2 0x34CD DUP3 PUSH2 0x3468 JUMP JUMPDEST PUSH1 0x40 DUP3 ADD SWAP1 POP SWAP2 SWAP1 POP JUMP JUMPDEST PUSH0 PUSH1 0x20 DUP3 ADD SWAP1 POP DUP2 DUP2 SUB PUSH0 DUP4 ADD MSTORE PUSH2 0x34EF DUP2 PUSH2 0x34B6 JUMP JUMPDEST SWAP1 POP SWAP2 SWAP1 POP JUMP JUMPDEST PUSH32 0x4552433732313A20617070726F76652063616C6C6572206973206E6F7420746F PUSH0 DUP3 ADD MSTORE PUSH32 0x6B656E206F776E6572206F7220617070726F76656420666F7220616C6C000000 PUSH1 0x20 DUP3 ADD MSTORE POP JUMP JUMPDEST PUSH0 PUSH2 0x3550 PUSH1 0x3D DUP4 PUSH2 0x2CB1 JUMP JUMPDEST SWAP2 POP PUSH2 0x355B DUP3 PUSH2 0x34F6 JUMP JUMPDEST PUSH1 0x40 DUP3 ADD SWAP1 POP SWAP2 SWAP1 POP JUMP JUMPDEST PUSH0 PUSH1 0x20 DUP3 ADD SWAP1 POP DUP2 DUP2 SUB PUSH0 DUP4 ADD MSTORE PUSH2 0x357D DUP2 PUSH2 0x3544 JUMP JUMPDEST SWAP1 POP SWAP2 SWAP1 POP JUMP JUMPDEST PUSH32 0x4552433732313A2063616C6C6572206973206E6F7420746F6B656E206F776E65 PUSH0 DUP3 ADD MSTORE PUSH32 0x72206F7220617070726F76656400000000000000000000000000000000000000 PUSH1 0x20 DUP3 ADD MSTORE POP JUMP JUMPDEST PUSH0 PUSH2 0x35DE PUSH1 0x2D DUP4 PUSH2 0x2CB1 JUMP JUMPDEST SWAP2 POP PUSH2 0x35E9 DUP3 PUSH2 0x3584 JUMP JUMPDEST PUSH1 0x40 DUP3 ADD SWAP1 POP SWAP2 SWAP1 POP JUMP JUMPDEST PUSH0 PUSH1 0x20 DUP3 ADD SWAP1 POP DUP2 DUP2 SUB PUSH0 DUP4 ADD MSTORE PUSH2 0x360B DUP2 PUSH2 0x35D2 JUMP JUMPDEST SWAP1 POP SWAP2 SWAP1 POP JUMP JUMPDEST PUSH32 0x455243373231456E756D657261626C653A206F776E657220696E646578206F75 PUSH0 DUP3 ADD MSTORE PUSH32 0x74206F6620626F756E6473000000000000000000000000000000000000000000 PUSH1 0x20 DUP3 ADD MSTORE POP JUMP JUMPDEST PUSH0 PUSH2 0x366C PUSH1 0x2B DUP4 PUSH2 0x2CB1 JUMP JUMPDEST SWAP2 POP PUSH2 0x3677 DUP3 PUSH2 0x3612 JUMP JUMPDEST PUSH1 0x40 DUP3 ADD SWAP1 POP SWAP2 SWAP1 POP JUMP JUMPDEST PUSH0 PUSH1 0x20 DUP3 ADD SWAP1 POP DUP2 DUP2 SUB PUSH0 DUP4 ADD MSTORE PUSH2 0x3699 DUP2 PUSH2 0x3660 JUMP JUMPDEST SWAP1 POP SWAP2 SWAP1 POP JUMP JUMPDEST PUSH0 DUP2 SWAP1 POP SWAP2 SWAP1 POP JUMP JUMPDEST PUSH0 DUP2 SWAP1 POP SWAP2 SWAP1 POP JUMP JUMPDEST PUSH0 PUSH2 0x36CC PUSH2 0x36C7 PUSH2 0x36C2 DUP5 PUSH2 0x36A0 JUMP JUMPDEST PUSH2 0x36A9 JUMP JUMPDEST PUSH2 0x2D51 JUMP JUMPDEST SWAP1 POP SWAP2 SWAP1 POP JUMP JUMPDEST PUSH2 0x36DC DUP2 PUSH2 0x36B2 JUMP JUMPDEST DUP3 MSTORE POP POP JUMP JUMPDEST PUSH0 PUSH1 0xA0 DUP3 ADD SWAP1 POP PUSH2 0x36F5 PUSH0 DUP4 ADD DUP9 PUSH2 0x36D3 JUMP JUMPDEST PUSH2 0x3702 PUSH1 0x20 DUP4 ADD DUP8 PUSH2 0x2EF0 JUMP JUMPDEST PUSH2 0x370F PUSH1 0x40 DUP4 ADD DUP7 PUSH2 0x2EF0 JUMP JUMPDEST PUSH2 0x371C PUSH1 0x60 DUP4 ADD DUP6 PUSH2 0x2E6F JUMP JUMPDEST PUSH2 0x3729 PUSH1 0x80 DUP4 ADD DUP5 PUSH2 0x2DDF JUMP JUMPDEST SWAP7 SWAP6 POP POP POP POP POP POP JUMP JUMPDEST PUSH32 0x455243373231456E756D657261626C653A20676C6F62616C20696E646578206F PUSH0 DUP3 ADD MSTORE PUSH32 0x7574206F6620626F756E64730000000000000000000000000000000000000000 PUSH1 0x20 DUP3 ADD MSTORE POP JUMP JUMPDEST PUSH0 PUSH2 0x378D PUSH1 0x2C DUP4 PUSH2 0x2CB1 JUMP JUMPDEST SWAP2 POP PUSH2 0x3798 DUP3 PUSH2 0x3733 JUMP JUMPDEST PUSH1 0x40 DUP3 ADD SWAP1 POP SWAP2 SWAP1 POP JUMP JUMPDEST PUSH0 PUSH1 0x20 DUP3 ADD SWAP1 POP DUP2 DUP2 SUB PUSH0 DUP4 ADD MSTORE PUSH2 0x37BA DUP2 PUSH2 0x3781 JUMP JUMPDEST SWAP1 POP SWAP2 SWAP1 POP JUMP JUMPDEST PUSH32 0x4E487B7100000000000000000000000000000000000000000000000000000000 PUSH0 MSTORE PUSH1 0x32 PUSH1 0x4 MSTORE PUSH1 0x24 PUSH0 REVERT JUMPDEST PUSH32 0x4552433732313A20696E76616C696420746F6B656E2049440000000000000000 PUSH0 DUP3 ADD MSTORE POP JUMP JUMPDEST PUSH0 PUSH2 0x3822 PUSH1 0x18 DUP4 PUSH2 0x2CB1 JUMP JUMPDEST SWAP2 POP PUSH2 0x382D DUP3 PUSH2 0x37EE JUMP JUMPDEST PUSH1 0x20 DUP3 ADD SWAP1 POP SWAP2 SWAP1 POP JUMP JUMPDEST PUSH0 PUSH1 0x20 DUP3 ADD SWAP1 POP DUP2 DUP2 SUB PUSH0 DUP4 ADD MSTORE PUSH2 0x384F DUP2 PUSH2 0x3816 JUMP JUMPDEST SWAP1 POP SWAP2 SWAP1 POP JUMP JUMPDEST PUSH32 0x4552433732313A2061646472657373207A65726F206973206E6F742061207661 PUSH0 DUP3 ADD MSTORE PUSH32 0x6C6964206F776E65720000000000000000000000000000000000000000000000 PUSH1 0x20 DUP3 ADD MSTORE POP JUMP JUMPDEST PUSH0 PUSH2 0x38B0 PUSH1 0x29 DUP4 PUSH2 0x2CB1 JUMP JUMPDEST SWAP2 POP PUSH2 0x38BB DUP3 PUSH2 0x3856 JUMP JUMPDEST PUSH1 0x40 DUP3 ADD SWAP1 POP SWAP2 SWAP1 POP JUMP JUMPDEST PUSH0 PUSH1 0x20 DUP3 ADD SWAP1 POP DUP2 DUP2 SUB PUSH0 DUP4 ADD MSTORE PUSH2 0x38DD DUP2 PUSH2 0x38A4 JUMP JUMPDEST SWAP1 POP SWAP2 SWAP1 POP JUMP JUMPDEST PUSH32 0x5065726D69742065787069726564000000000000000000000000000000000000 PUSH0 DUP3 ADD MSTORE POP JUMP JUMPDEST PUSH0 PUSH2 0x3918 PUSH1 0xE DUP4 PUSH2 0x2CB1 JUMP JUMPDEST SWAP2 POP PUSH2 0x3923 DUP3 PUSH2 0x38E4 JUMP JUMPDEST PUSH1 0x20 DUP3 ADD SWAP1 POP SWAP2 SWAP1 POP JUMP JUMPDEST PUSH0 PUSH1 0x20 DUP3 ADD SWAP1 POP DUP2 DUP2 SUB PUSH0 DUP4 ADD MSTORE PUSH2 0x3945 DUP2 PUSH2 0x390C JUMP JUMPDEST SWAP1 POP SWAP2 SWAP1 POP JUMP JUMPDEST PUSH0 PUSH1 0xA0 DUP3 ADD SWAP1 POP PUSH2 0x395F PUSH0 DUP4 ADD DUP9 PUSH2 0x2EF0 JUMP JUMPDEST PUSH2 0x396C PUSH1 0x20 DUP4 ADD DUP8 PUSH2 0x2DDF JUMP JUMPDEST PUSH2 0x3979 PUSH1 0x40 DUP4 ADD DUP7 PUSH2 0x2E6F JUMP JUMPDEST PUSH2 0x3986 PUSH1 0x60 DUP4 ADD DUP6 PUSH2 0x2E6F JUMP JUMPDEST PUSH2 0x3993 PUSH1 0x80 DUP4 ADD DUP5 PUSH2 0x2E6F JUMP JUMPDEST SWAP7 SWAP6 POP POP POP POP POP POP JUMP JUMPDEST PUSH0 DUP2 SWAP1 POP SWAP3 SWAP2 POP POP JUMP JUMPDEST PUSH32 0x1901000000000000000000000000000000000000000000000000000000000000 PUSH0 DUP3 ADD MSTORE POP JUMP JUMPDEST PUSH0 PUSH2 0x39DB PUSH1 0x2 DUP4 PUSH2 0x399D JUMP JUMPDEST SWAP2 POP PUSH2 0x39E6 DUP3 PUSH2 0x39A7 JUMP JUMPDEST PUSH1 0x2 DUP3 ADD SWAP1 POP SWAP2 SWAP1 POP JUMP JUMPDEST PUSH0 DUP2 SWAP1 POP SWAP2 SWAP1 POP JUMP JUMPDEST PUSH2 0x3A0B PUSH2 0x3A06 DUP3 PUSH2 0x2EE7 JUMP JUMPDEST PUSH2 0x39F1 JUMP JUMPDEST DUP3 MSTORE POP POP JUMP JUMPDEST PUSH0 PUSH2 0x3A1B DUP3 PUSH2 0x39CF JUMP JUMPDEST SWAP2 POP PUSH2 0x3A27 DUP3 DUP6 PUSH2 0x39FA JUMP JUMPDEST PUSH1 0x20 DUP3 ADD SWAP2 POP PUSH2 0x3A37 DUP3 DUP5 PUSH2 0x39FA JUMP JUMPDEST PUSH1 0x20 DUP3 ADD SWAP2 POP DUP2 SWAP1 POP SWAP4 SWAP3 POP POP POP JUMP JUMPDEST PUSH32 0x4552433732315065726D69743A20617070726F76616C20746F2063757272656E PUSH0 DUP3 ADD MSTORE PUSH32 0x74206F776E657200000000000000000000000000000000000000000000000000 PUSH1 0x20 DUP3 ADD MSTORE POP JUMP JUMPDEST PUSH0 PUSH2 0x3AA1 PUSH1 0x27 DUP4 PUSH2 0x2CB1 JUMP JUMPDEST SWAP2 POP PUSH2 0x3AAC DUP3 PUSH2 0x3A47 JUMP JUMPDEST PUSH1 0x40 DUP3 ADD SWAP1 POP SWAP2 SWAP1 POP JUMP JUMPDEST PUSH0 PUSH1 0x20 DUP3 ADD SWAP1 POP DUP2 DUP2 SUB PUSH0 DUP4 ADD MSTORE PUSH2 0x3ACE DUP2 PUSH2 0x3A95 JUMP JUMPDEST SWAP1 POP SWAP2 SWAP1 POP JUMP JUMPDEST PUSH0 DUP2 PUSH1 0xF8 SHL SWAP1 POP SWAP2 SWAP1 POP JUMP JUMPDEST PUSH0 PUSH2 0x3AEB DUP3 PUSH2 0x3AD5 JUMP JUMPDEST SWAP1 POP SWAP2 SWAP1 POP JUMP JUMPDEST PUSH2 0x3B03 PUSH2 0x3AFE DUP3 PUSH2 0x30B6 JUMP JUMPDEST PUSH2 0x3AE1 JUMP JUMPDEST DUP3 MSTORE POP POP JUMP JUMPDEST PUSH0 PUSH2 0x3B14 DUP3 DUP7 PUSH2 0x39FA JUMP JUMPDEST PUSH1 0x20 DUP3 ADD SWAP2 POP PUSH2 0x3B24 DUP3 DUP6 PUSH2 0x39FA JUMP JUMPDEST PUSH1 0x20 DUP3 ADD SWAP2 POP PUSH2 0x3B34 DUP3 DUP5 PUSH2 0x3AF2 JUMP JUMPDEST PUSH1 0x1 DUP3 ADD SWAP2 POP DUP2 SWAP1 POP SWAP5 SWAP4 POP POP POP POP JUMP JUMPDEST PUSH0 DUP2 MLOAD SWAP1 POP SWAP2 SWAP1 POP JUMP JUMPDEST PUSH0 DUP3 DUP3 MSTORE PUSH1 0x20 DUP3 ADD SWAP1 POP SWAP3 SWAP2 POP POP JUMP JUMPDEST PUSH0 PUSH2 0x3B69 DUP3 PUSH2 0x3B45 JUMP JUMPDEST PUSH2 0x3B73 DUP2 DUP6 PUSH2 0x3B4F JUMP JUMPDEST SWAP4 POP PUSH2 0x3B83 DUP2 DUP6 PUSH1 0x20 DUP7 ADD PUSH2 0x2CC1 JUMP JUMPDEST PUSH2 0x3B8C DUP2 PUSH2 0x2CE9 JUMP JUMPDEST DUP5 ADD SWAP2 POP POP SWAP3 SWAP2 POP POP JUMP JUMPDEST PUSH0 PUSH1 0x40 DUP3 ADD SWAP1 POP PUSH2 0x3BAA PUSH0 DUP4 ADD DUP6 PUSH2 0x2EF0 JUMP JUMPDEST DUP2 DUP2 SUB PUSH1 0x20 DUP4 ADD MSTORE PUSH2 0x3BBC DUP2 DUP5 PUSH2 0x3B5F JUMP JUMPDEST SWAP1 POP SWAP4 SWAP3 POP POP POP JUMP JUMPDEST PUSH0 DUP2 MLOAD SWAP1 POP PUSH2 0x3BD3 DUP2 PUSH2 0x2C1F JUMP JUMPDEST SWAP3 SWAP2 POP POP JUMP JUMPDEST PUSH0 PUSH1 0x20 DUP3 DUP5 SUB SLT ISZERO PUSH2 0x3BEE JUMPI PUSH2 0x3BED PUSH2 0x2BEC JUMP JUMPDEST JUMPDEST PUSH0 PUSH2 0x3BFB DUP5 DUP3 DUP6 ADD PUSH2 0x3BC5 JUMP JUMPDEST SWAP2 POP POP SWAP3 SWAP2 POP POP JUMP JUMPDEST PUSH32 0x556E617574686F72697A65640000000000000000000000000000000000000000 PUSH0 DUP3 ADD MSTORE POP JUMP JUMPDEST PUSH0 PUSH2 0x3C38 PUSH1 0xC DUP4 PUSH2 0x2CB1 JUMP JUMPDEST SWAP2 POP PUSH2 0x3C43 DUP3 PUSH2 0x3C04 JUMP JUMPDEST PUSH1 0x20 DUP3 ADD SWAP1 POP SWAP2 SWAP1 POP JUMP JUMPDEST PUSH0 PUSH1 0x20 DUP3 ADD SWAP1 POP DUP2 DUP2 SUB PUSH0 DUP4 ADD MSTORE PUSH2 0x3C65 DUP2 PUSH2 0x3C2C JUMP JUMPDEST SWAP1 POP SWAP2 SWAP1 POP JUMP JUMPDEST PUSH2 0x3C75 DUP2 PUSH2 0x30B6 JUMP JUMPDEST DUP3 MSTORE POP POP JUMP JUMPDEST PUSH0 PUSH1 0x80 DUP3 ADD SWAP1 POP PUSH2 0x3C8E PUSH0 DUP4 ADD DUP8 PUSH2 0x2EF0 JUMP JUMPDEST PUSH2 0x3C9B PUSH1 0x20 DUP4 ADD DUP7 PUSH2 0x3C6C JUMP JUMPDEST PUSH2 0x3CA8 PUSH1 0x40 DUP4 ADD DUP6 PUSH2 0x2EF0 JUMP JUMPDEST PUSH2 0x3CB5 PUSH1 0x60 DUP4 ADD DUP5 PUSH2 0x2EF0 JUMP JUMPDEST SWAP6 SWAP5 POP POP POP POP POP JUMP JUMPDEST PUSH32 0x496E76616C6964207369676E6174757265000000000000000000000000000000 PUSH0 DUP3 ADD MSTORE POP JUMP JUMPDEST PUSH0 PUSH2 0x3CF2 PUSH1 0x11 DUP4 PUSH2 0x2CB1 JUMP JUMPDEST SWAP2 POP PUSH2 0x3CFD DUP3 PUSH2 0x3CBE JUMP JUMPDEST PUSH1 0x20 DUP3 ADD SWAP1 POP SWAP2 SWAP1 POP JUMP JUMPDEST PUSH0 PUSH1 0x20 DUP3 ADD SWAP1 POP DUP2 DUP2 SUB PUSH0 DUP4 ADD MSTORE PUSH2 0x3D1F DUP2 PUSH2 0x3CE6 JUMP JUMPDEST SWAP1 POP SWAP2 SWAP1 POP JUMP JUMPDEST PUSH32 0x616C726561647920636C61696D65640000000000000000000000000000000000 PUSH0 DUP3 ADD MSTORE POP JUMP JUMPDEST PUSH0 PUSH2 0x3D5A PUSH1 0xF DUP4 PUSH2 0x2CB1 JUMP JUMPDEST SWAP2 POP PUSH2 0x3D65 DUP3 PUSH2 0x3D26 JUMP JUMPDEST PUSH1 0x20 DUP3 ADD SWAP1 POP SWAP2 SWAP1 POP JUMP JUMPDEST PUSH0 PUSH1 0x20 DUP3 ADD SWAP1 POP DUP2 DUP2 SUB PUSH0 DUP4 ADD MSTORE PUSH2 0x3D87 DUP2 PUSH2 0x3D4E JUMP JUMPDEST SWAP1 POP SWAP2 SWAP1 POP JUMP JUMPDEST PUSH32 0x696E76616C6964206D65726B6C652070726F6F66000000000000000000000000 PUSH0 DUP3 ADD MSTORE POP JUMP JUMPDEST PUSH0 PUSH2 0x3DC2 PUSH1 0x14 DUP4 PUSH2 0x2CB1 JUMP JUMPDEST SWAP2 POP PUSH2 0x3DCD DUP3 PUSH2 0x3D8E JUMP JUMPDEST PUSH1 0x20 DUP3 ADD SWAP1 POP SWAP2 SWAP1 POP JUMP JUMPDEST PUSH0 PUSH1 0x20 DUP3 ADD SWAP1 POP DUP2 DUP2 SUB PUSH0 DUP4 ADD MSTORE PUSH2 0x3DEF DUP2 PUSH2 0x3DB6 JUMP JUMPDEST SWAP1 POP SWAP2 SWAP1 POP JUMP JUMPDEST PUSH32 0x4E487B7100000000000000000000000000000000000000000000000000000000 PUSH0 MSTORE PUSH1 0x11 PUSH1 0x4 MSTORE PUSH1 0x24 PUSH0 REVERT JUMPDEST PUSH0 PUSH2 0x3E2D DUP3 PUSH2 0x2D51 JUMP JUMPDEST SWAP2 POP PUSH32 0xFFFFFFFFFFFFFFFFFFFFFFFFFFFFFFFFFFFFFFFFFFFFFFFFFFFFFFFFFFFFFFFF DUP3 SUB PUSH2 0x3E5F JUMPI PUSH2 0x3E5E PUSH2 0x3DF6 JUMP JUMPDEST JUMPDEST PUSH1 0x1 DUP3 ADD SWAP1 POP SWAP2 SWAP1 POP JUMP JUMPDEST PUSH0 PUSH2 0x3E74 DUP3 PUSH2 0x2CA7 JUMP JUMPDEST PUSH2 0x3E7E DUP2 DUP6 PUSH2 0x399D JUMP JUMPDEST SWAP4 POP PUSH2 0x3E8E DUP2 DUP6 PUSH1 0x20 DUP7 ADD PUSH2 0x2CC1 JUMP JUMPDEST DUP1 DUP5 ADD SWAP2 POP POP SWAP3 SWAP2 POP POP JUMP JUMPDEST PUSH0 PUSH2 0x3EA5 DUP3 DUP6 PUSH2 0x3E6A JUMP JUMPDEST SWAP2 POP PUSH2 0x3EB1 DUP3 DUP5 PUSH2 0x3E6A JUMP JUMPDEST SWAP2 POP DUP2 SWAP1 POP SWAP4 SWAP3 POP POP POP JUMP JUMPDEST PUSH32 0x4F776E61626C653A206E6577206F776E657220697320746865207A65726F2061 PUSH0 DUP3 ADD MSTORE PUSH32 0x6464726573730000000000000000000000000000000000000000000000000000 PUSH1 0x20 DUP3 ADD MSTORE POP JUMP JUMPDEST PUSH0 PUSH2 0x3F17 PUSH1 0x26 DUP4 PUSH2 0x2CB1 JUMP JUMPDEST SWAP2 POP PUSH2 0x3F22 DUP3 PUSH2 0x3EBD JUMP JUMPDEST PUSH1 0x40 DUP3 ADD SWAP1 POP SWAP2 SWAP1 POP JUMP JUMPDEST PUSH0 PUSH1 0x20 DUP3 ADD SWAP1 POP DUP2 DUP2 SUB PUSH0 DUP4 ADD MSTORE PUSH2 0x3F44 DUP2 PUSH2 0x3F0B JUMP JUMPDEST SWAP1 POP SWAP2 SWAP1 POP JUMP JUMPDEST PUSH32 0x4552433732313A207472616E736665722066726F6D20696E636F727265637420 PUSH0 DUP3 ADD MSTORE PUSH32 0x6F776E6572000000000000000000000000000000000000000000000000000000 PUSH1 0x20 DUP3 ADD MSTORE POP JUMP JUMPDEST PUSH0 PUSH2 0x3FA5 PUSH1 0x25 DUP4 PUSH2 0x2CB1 JUMP JUMPDEST SWAP2 POP PUSH2 0x3FB0 DUP3 PUSH2 0x3F4B JUMP JUMPDEST PUSH1 0x40 DUP3 ADD SWAP1 POP SWAP2 SWAP1 POP JUMP JUMPDEST PUSH0 PUSH1 0x20 DUP3 ADD SWAP1 POP DUP2 DUP2 SUB PUSH0 DUP4 ADD MSTORE PUSH2 0x3FD2 DUP2 PUSH2 0x3F99 JUMP JUMPDEST SWAP1 POP SWAP2 SWAP1 POP JUMP JUMPDEST PUSH32 0x4552433732313A207472616E7366657220746F20746865207A65726F20616464 PUSH0 DUP3 ADD MSTORE PUSH32 0x7265737300000000000000000000000000000000000000000000000000000000 PUSH1 0x20 DUP3 ADD MSTORE POP JUMP JUMPDEST PUSH0 PUSH2 0x4033 PUSH1 0x24 DUP4 PUSH2 0x2CB1 JUMP JUMPDEST SWAP2 POP PUSH2 0x403E DUP3 PUSH2 0x3FD9 JUMP JUMPDEST PUSH1 0x40 DUP3 ADD SWAP1 POP SWAP2 SWAP1 POP JUMP JUMPDEST PUSH0 PUSH1 0x20 DUP3 ADD SWAP1 POP DUP2 DUP2 SUB PUSH0 DUP4 ADD MSTORE PUSH2 0x4060 DUP2 PUSH2 0x4027 JUMP JUMPDEST SWAP1 POP SWAP2 SWAP1 POP JUMP JUMPDEST PUSH32 0x4F776E61626C653A2063616C6C6572206973206E6F7420746865206F776E6572 PUSH0 DUP3 ADD MSTORE POP JUMP JUMPDEST PUSH0 PUSH2 0x409B PUSH1 0x20 DUP4 PUSH2 0x2CB1 JUMP JUMPDEST SWAP2 POP PUSH2 0x40A6 DUP3 PUSH2 0x4067 JUMP JUMPDEST PUSH1 0x20 DUP3 ADD SWAP1 POP SWAP2 SWAP1 POP JUMP JUMPDEST PUSH0 PUSH1 0x20 DUP3 ADD SWAP1 POP DUP2 DUP2 SUB PUSH0 DUP4 ADD MSTORE PUSH2 0x40C8 DUP2 PUSH2 0x408F JUMP JUMPDEST SWAP1 POP SWAP2 SWAP1 POP JUMP JUMPDEST PUSH0 DUP2 SWAP1 POP DUP2 PUSH0 MSTORE PUSH1 0x20 PUSH0 KECCAK256 SWAP1 POP SWAP2 SWAP1 POP JUMP JUMPDEST PUSH0 PUSH1 0x20 PUSH1 0x1F DUP4 ADD DIV SWAP1 POP SWAP2 SWAP1 POP JUMP JUMPDEST PUSH0 DUP3 DUP3 SHL SWAP1 POP SWAP3 SWAP2 POP POP JUMP JUMPDEST PUSH0 PUSH1 0x8 DUP4 MUL PUSH2 0x412B PUSH32 0xFFFFFFFFFFFFFFFFFFFFFFFFFFFFFFFFFFFFFFFFFFFFFFFFFFFFFFFFFFFFFFFF DUP3 PUSH2 0x40F0 JUMP JUMPDEST PUSH2 0x4135 DUP7 DUP4 PUSH2 0x40F0 JUMP JUMPDEST SWAP6 POP DUP1 NOT DUP5 AND SWAP4 POP DUP1 DUP7 AND DUP5 OR SWAP3 POP POP POP SWAP4 SWAP3 POP POP POP JUMP JUMPDEST PUSH0 PUSH2 0x4167 PUSH2 0x4162 PUSH2 0x415D DUP5 PUSH2 0x2D51 JUMP JUMPDEST PUSH2 0x36A9 JUMP JUMPDEST PUSH2 0x2D51 JUMP JUMPDEST SWAP1 POP SWAP2 SWAP1 POP JUMP JUMPDEST PUSH0 DUP2 SWAP1 POP SWAP2 SWAP1 POP JUMP JUMPDEST PUSH2 0x4180 DUP4 PUSH2 0x414D JUMP JUMPDEST PUSH2 0x4194 PUSH2 0x418C DUP3 PUSH2 0x416E JUMP JUMPDEST DUP5 DUP5 SLOAD PUSH2 0x40FC JUMP JUMPDEST DUP3 SSTORE POP POP POP POP JUMP JUMPDEST PUSH0 SWAP1 JUMP JUMPDEST PUSH2 0x41A8 PUSH2 0x419C JUMP JUMPDEST PUSH2 0x41B3 DUP2 DUP5 DUP5 PUSH2 0x4177 JUMP JUMPDEST POP POP POP JUMP JUMPDEST JUMPDEST DUP2 DUP2 LT ISZERO PUSH2 0x41D6 JUMPI PUSH2 0x41CB PUSH0 DUP3 PUSH2 0x41A0 JUMP JUMPDEST PUSH1 0x1 DUP2 ADD SWAP1 POP PUSH2 0x41B9 JUMP JUMPDEST POP POP JUMP JUMPDEST PUSH1 0x1F DUP3 GT ISZERO PUSH2 0x421B JUMPI PUSH2 0x41EC DUP2 PUSH2 0x40CF JUMP JUMPDEST PUSH2 0x41F5 DUP5 PUSH2 0x40E1 JUMP JUMPDEST DUP2 ADD PUSH1 0x20 DUP6 LT ISZERO PUSH2 0x4204 JUMPI DUP2 SWAP1 POP JUMPDEST PUSH2 0x4218 PUSH2 0x4210 DUP6 PUSH2 0x40E1 JUMP JUMPDEST DUP4 ADD DUP3 PUSH2 0x41B8 JUMP JUMPDEST POP POP JUMPDEST POP POP POP JUMP JUMPDEST PUSH0 DUP3 DUP3 SHR SWAP1 POP SWAP3 SWAP2 POP POP JUMP JUMPDEST PUSH0 PUSH2 0x423B PUSH0 NOT DUP5 PUSH1 0x8 MUL PUSH2 0x4220 JUMP JUMPDEST NOT DUP1 DUP4 AND SWAP2 POP POP SWAP3 SWAP2 POP POP JUMP JUMPDEST PUSH0 PUSH2 0x4253 DUP4 DUP4 PUSH2 0x422C JUMP JUMPDEST SWAP2 POP DUP3 PUSH1 0x2 MUL DUP3 OR SWAP1 POP SWAP3 SWAP2 POP POP JUMP JUMPDEST PUSH2 0x426C DUP3 PUSH2 0x2CA7 JUMP JUMPDEST PUSH8 0xFFFFFFFFFFFFFFFF DUP2 GT ISZERO PUSH2 0x4285 JUMPI PUSH2 0x4284 PUSH2 0x2F20 JUMP JUMPDEST JUMPDEST PUSH2 0x428F DUP3 SLOAD PUSH2 0x3438 JUMP JUMPDEST PUSH2 0x429A DUP3 DUP3 DUP6 PUSH2 0x41DA JUMP JUMPDEST PUSH0 PUSH1 0x20 SWAP1 POP PUSH1 0x1F DUP4 GT PUSH1 0x1 DUP2 EQ PUSH2 0x42CB JUMPI PUSH0 DUP5 ISZERO PUSH2 0x42B9 JUMPI DUP3 DUP8 ADD MLOAD SWAP1 POP JUMPDEST PUSH2 0x42C3 DUP6 DUP3 PUSH2 0x4248 JUMP JUMPDEST DUP7 SSTORE POP PUSH2 0x432A JUMP JUMPDEST PUSH1 0x1F NOT DUP5 AND PUSH2 0x42D9 DUP7 PUSH2 0x40CF JUMP JUMPDEST PUSH0 JUMPDEST DUP3 DUP2 LT ISZERO PUSH2 0x4300 JUMPI DUP5 DUP10 ADD MLOAD DUP3 SSTORE PUSH1 0x1 DUP3 ADD SWAP2 POP PUSH1 0x20 DUP6 ADD SWAP5 POP PUSH1 0x20 DUP2 ADD SWAP1 POP PUSH2 0x42DB JUMP JUMPDEST DUP7 DUP4 LT ISZERO PUSH2 0x431D JUMPI DUP5 DUP10 ADD MLOAD PUSH2 0x4319 PUSH1 0x1F DUP10 AND DUP3 PUSH2 0x422C JUMP JUMPDEST DUP4 SSTORE POP JUMPDEST PUSH1 0x1 PUSH1 0x2 DUP9 MUL ADD DUP9 SSTORE POP POP POP JUMPDEST POP POP POP POP POP POP JUMP JUMPDEST PUSH32 0x4552433732313A20617070726F766520746F2063616C6C657200000000000000 PUSH0 DUP3 ADD MSTORE POP JUMP JUMPDEST PUSH0 PUSH2 0x4366 PUSH1 0x19 DUP4 PUSH2 0x2CB1 JUMP JUMPDEST SWAP2 POP PUSH2 0x4371 DUP3 PUSH2 0x4332 JUMP JUMPDEST PUSH1 0x20 DUP3 ADD SWAP1 POP SWAP2 SWAP1 POP JUMP JUMPDEST PUSH0 PUSH1 0x20 DUP3 ADD SWAP1 POP DUP2 DUP2 SUB PUSH0 DUP4 ADD MSTORE PUSH2 0x4393 DUP2 PUSH2 0x435A JUMP JUMPDEST SWAP1 POP SWAP2 SWAP1 POP JUMP JUMPDEST PUSH32 0x4552433732313A206D696E7420746F20746865207A65726F2061646472657373 PUSH0 DUP3 ADD MSTORE POP JUMP JUMPDEST PUSH0 PUSH2 0x43CE PUSH1 0x20 DUP4 PUSH2 0x2CB1 JUMP JUMPDEST SWAP2 POP PUSH2 0x43D9 DUP3 PUSH2 0x439A JUMP JUMPDEST PUSH1 0x20 DUP3 ADD SWAP1 POP SWAP2 SWAP1 POP JUMP JUMPDEST PUSH0 PUSH1 0x20 DUP3 ADD SWAP1 POP DUP2 DUP2 SUB PUSH0 DUP4 ADD MSTORE PUSH2 0x43FB DUP2 PUSH2 0x43C2 JUMP JUMPDEST SWAP1 POP SWAP2 SWAP1 POP JUMP JUMPDEST PUSH32 0x4552433732313A20746F6B656E20616C7265616479206D696E74656400000000 PUSH0 DUP3 ADD MSTORE POP JUMP JUMPDEST PUSH0 PUSH2 0x4436 PUSH1 0x1C DUP4 PUSH2 0x2CB1 JUMP JUMPDEST SWAP2 POP PUSH2 0x4441 DUP3 PUSH2 0x4402 JUMP JUMPDEST PUSH1 0x20 DUP3 ADD SWAP1 POP SWAP2 SWAP1 POP JUMP JUMPDEST PUSH0 PUSH1 0x20 DUP3 ADD SWAP1 POP DUP2 DUP2 SUB PUSH0 DUP4 ADD MSTORE PUSH2 0x4463 DUP2 PUSH2 0x442A JUMP JUMPDEST SWAP1 POP SWAP2 SWAP1 POP JUMP JUMPDEST PUSH32 0x4552433732313A207472616E7366657220746F206E6F6E204552433732315265 PUSH0 DUP3 ADD MSTORE PUSH32 0x63656976657220696D706C656D656E7465720000000000000000000000000000 PUSH1 0x20 DUP3 ADD MSTORE POP JUMP JUMPDEST PUSH0 PUSH2 0x44C4 PUSH1 0x32 DUP4 PUSH2 0x2CB1 JUMP JUMPDEST SWAP2 POP PUSH2 0x44CF DUP3 PUSH2 0x446A JUMP JUMPDEST PUSH1 0x40 DUP3 ADD SWAP1 POP SWAP2 SWAP1 POP JUMP JUMPDEST PUSH0 PUSH1 0x20 DUP3 ADD SWAP1 POP DUP2 DUP2 SUB PUSH0 DUP4 ADD MSTORE PUSH2 0x44F1 DUP2 PUSH2 0x44B8 JUMP JUMPDEST SWAP1 POP SWAP2 SWAP1 POP JUMP JUMPDEST PUSH32 0x4E487B7100000000000000000000000000000000000000000000000000000000 PUSH0 MSTORE PUSH1 0x12 PUSH1 0x4 MSTORE PUSH1 0x24 PUSH0 REVERT JUMPDEST PUSH32 0x455243373231456E756D657261626C653A20636F6E7365637574697665207472 PUSH0 DUP3 ADD MSTORE PUSH32 0x616E7366657273206E6F7420737570706F727465640000000000000000000000 PUSH1 0x20 DUP3 ADD MSTORE POP JUMP JUMPDEST PUSH0 PUSH2 0x457F PUSH1 0x35 DUP4 PUSH2 0x2CB1 JUMP JUMPDEST SWAP2 POP PUSH2 0x458A DUP3 PUSH2 0x4525 JUMP JUMPDEST PUSH1 0x40 DUP3 ADD SWAP1 POP SWAP2 SWAP1 POP JUMP JUMPDEST PUSH0 PUSH1 0x20 DUP3 ADD SWAP1 POP DUP2 DUP2 SUB PUSH0 DUP4 ADD MSTORE PUSH2 0x45AC DUP2 PUSH2 0x4573 JUMP JUMPDEST SWAP1 POP SWAP2 SWAP1 POP JUMP JUMPDEST PUSH0 PUSH1 0x80 DUP3 ADD SWAP1 POP PUSH2 0x45C6 PUSH0 DUP4 ADD DUP8 PUSH2 0x2DDF JUMP JUMPDEST PUSH2 0x45D3 PUSH1 0x20 DUP4 ADD DUP7 PUSH2 0x2DDF JUMP JUMPDEST PUSH2 0x45E0 PUSH1 0x40 DUP4 ADD DUP6 PUSH2 0x2E6F JUMP JUMPDEST DUP2 DUP2 SUB PUSH1 0x60 DUP4 ADD MSTORE PUSH2 0x45F2 DUP2 DUP5 PUSH2 0x3B5F JUMP JUMPDEST SWAP1 POP SWAP6 SWAP5 POP POP POP POP POP JUMP JUMPDEST PUSH0 PUSH2 0x4607 DUP3 PUSH2 0x2D51 JUMP JUMPDEST SWAP2 POP PUSH2 0x4612 DUP4 PUSH2 0x2D51 JUMP JUMPDEST SWAP3 POP DUP3 DUP3 SUB SWAP1 POP DUP2 DUP2 GT ISZERO PUSH2 0x462A JUMPI PUSH2 0x4629 PUSH2 0x3DF6 JUMP JUMPDEST JUMPDEST SWAP3 SWAP2 POP POP JUMP JUMPDEST PUSH32 0x4E487B7100000000000000000000000000000000000000000000000000000000 PUSH0 MSTORE PUSH1 0x31 PUSH1 0x4 MSTORE PUSH1 0x24 PUSH0 REVERT INVALID LOG2 PUSH5 0x6970667358 0x22 SLT KECCAK256 0xA8 0xE9 SWAP7 0xDD 0xCB PUSH25 0xD0307ED367171E521D0935191DFE9BFD506939EDB9E3BE2856 0x4A PUSH5 0x736F6C6343 STOP ADDMOD EQ STOP CALLER PUSH10 0x7066733A2F2F62616679 PUSH3 0x656965 PUSH15 0x69616C6B6472707076646664616E7A PUSH22 0x69776E7434356D346868636B617978727676686B7472 PUSH19 0x766D6F77776B77723435612F00000000000000 "},"gasEstimates":{"creation":{"codeDepositCost":"3613400","executionCost":"infinite","totalCost":"infinite"},"external":{"DOMAIN_SEPARATOR()":"infinite","PERMIT_TYPEHASH()":"420","__baseURI()":"infinite","adminMint(address,uint256)":"infinite","approve(address,uint256)":"infinite","balanceOf(address)":"2954","claimed(address)":"2877","getApproved(uint256)":"5305","isApprovedForAll(address,address)":"infinite","merkleRoot()":"infinite","mint(bytes32[])":"infinite","name()":"infinite","nextTokenId()":"2470","nonces(uint256)":"infinite","owner()":"2604","ownerOf(uint256)":"3029","permit(address,uint256,uint256,uint8,bytes32,bytes32)":"infinite","renounceOwnership()":"30502","safeTransferFrom(address,address,uint256)":"infinite","safeTransferFrom(address,address,uint256,bytes)":"infinite","setApprovalForAll(address,bool)":"infinite","setBaseURI(string)":"infinite","supportsInterface(bytes4)":"898","symbol()":"infinite","tokenByIndex(uint256)":"infinite","tokenOfOwnerByIndex(address,uint256)":"infinite","tokenURI(uint256)":"infinite","totalSupply()":"2530","transferFrom(address,address,uint256)":"infinite","transferOwnership(address)":"30841","version()":"infinite"},"internal":{"_baseURI()":"infinite","_getAndIncrementNonce(uint256)":"26652","_setBaseURI(string memory)":"infinite","toBytes32(address)":"38"}},"methodIdentifiers":{"DOMAIN_SEPARATOR()":"3644e515","PERMIT_TYPEHASH()":"30adf81f","__baseURI()":"6e34a482","adminMint(address,uint256)":"e58306f9","approve(address,uint256)":"095ea7b3","balanceOf(address)":"70a08231","claimed(address)":"c884ef83","getApproved(uint256)":"081812fc","isApprovedForAll(address,address)":"e985e9c5","merkleRoot()":"2eb4a7ab","mint(bytes32[])":"b77a147b","name()":"06fdde03","nextTokenId()":"75794a3c","nonces(uint256)":"141a468c","owner()":"8da5cb5b","ownerOf(uint256)":"6352211e","permit(address,uint256,uint256,uint8,bytes32,bytes32)":"7ac2ff7b","renounceOwnership()":"715018a6","safeTransferFrom(address,address,uint256)":"42842e0e","safeTransferFrom(address,address,uint256,bytes)":"b88d4fde","setApprovalForAll(address,bool)":"a22cb465","setBaseURI(string)":"55f804b3","supportsInterface(bytes4)":"01ffc9a7","symbol()":"95d89b41","tokenByIndex(uint256)":"4f6ccce7","tokenOfOwnerByIndex(address,uint256)":"2f745c59","tokenURI(uint256)":"c87b56dd","totalSupply()":"18160ddd","transferFrom(address,address,uint256)":"23b872dd","transferOwnership(address)":"f2fde38b","version()":"54fd4d50"}},"storageLayout":{"storage":[{"astId":138,"contract":"contracts/TRIS.sol:TRIS","label":"_name","offset":0,"slot":"0","type":"t_string_storage"},{"astId":140,"contract":"contracts/TRIS.sol:TRIS","label":"_symbol","offset":0,"slot":"1","type":"t_string_storage"},{"astId":144,"contract":"contracts/TRIS.sol:TRIS","label":"_owners","offset":0,"slot":"2","type":"t_mapping(t_uint256,t_address)"},{"astId":148,"contract":"contracts/TRIS.sol:TRIS","label":"_balances","offset":0,"slot":"3","type":"t_mapping(t_address,t_uint256)"},{"astId":152,"contract":"contracts/TRIS.sol:TRIS","label":"_tokenApprovals","offset":0,"slot":"4","type":"t_mapping(t_uint256,t_address)"},{"astId":158,"contract":"contracts/TRIS.sol:TRIS","label":"_operatorApprovals","offset":0,"slot":"5","type":"t_mapping(t_address,t_mapping(t_address,t_bool))"},{"astId":1188,"contract":"contracts/TRIS.sol:TRIS","label":"_ownedTokens","offset":0,"slot":"6","type":"t_mapping(t_address,t_mapping(t_uint256,t_uint256))"},{"astId":1192,"contract":"contracts/TRIS.sol:TRIS","label":"_ownedTokensIndex","offset":0,"slot":"7","type":"t_mapping(t_uint256,t_uint256)"},{"astId":1195,"contract":"contracts/TRIS.sol:TRIS","label":"_allTokens","offset":0,"slot":"8","type":"t_array(t_uint256)dyn_storage"},{"astId":1199,"contract":"contracts/TRIS.sol:TRIS","label":"_allTokensIndex","offset":0,"slot":"9","type":"t_mapping(t_uint256,t_uint256)"},{"astId":7,"contract":"contracts/TRIS.sol:TRIS","label":"_owner","offset":0,"slot":"10","type":"t_address"},{"astId":3694,"contract":"contracts/TRIS.sol:TRIS","label":"nextTokenId","offset":0,"slot":"11","type":"t_uint256"},{"astId":3698,"contract":"contracts/TRIS.sol:TRIS","label":"claimed","offset":0,"slot":"12","type":"t_mapping(t_address,t_bool)"},{"astId":3702,"contract":"contracts/TRIS.sol:TRIS","label":"nonces","offset":0,"slot":"13","type":"t_mapping(t_uint256,t_uint256)"},{"astId":3704,"contract":"contracts/TRIS.sol:TRIS","label":"__baseURI","offset":0,"slot":"14","type":"t_string_storage"}],"types":{"t_address":{"encoding":"inplace","label":"address","numberOfBytes":"20"},"t_array(t_uint256)dyn_storage":{"base":"t_uint256","encoding":"dynamic_array","label":"uint256[]","numberOfBytes":"32"},"t_bool":{"encoding":"inplace","label":"bool","numberOfBytes":"1"},"t_mapping(t_address,t_bool)":{"encoding":"mapping","key":"t_address","label":"mapping(address => bool)","numberOfBytes":"32","value":"t_bool"},"t_mapping(t_address,t_mapping(t_address,t_bool))":{"encoding":"mapping","key":"t_address","label":"mapping(address => mapping(address => bool))","numberOfBytes":"32","value":"t_mapping(t_address,t_bool)"},"t_mapping(t_address,t_mapping(t_uint256,t_uint256))":{"encoding":"mapping","key":"t_address","label":"mapping(address => mapping(uint256 => uint256))","numberOfBytes":"32","value":"t_mapping(t_uint256,t_uint256)"},"t_mapping(t_address,t_uint256)":{"encoding":"mapping","key":"t_address","label":"mapping(address => uint256)","numberOfBytes":"32","value":"t_uint256"},"t_mapping(t_uint256,t_address)":{"encoding":"mapping","key":"t_uint256","label":"mapping(uint256 => address)","numberOfBytes":"32","value":"t_address"},"t_mapping(t_uint256,t_uint256)":{"encoding":"mapping","key":"t_uint256","label":"mapping(uint256 => uint256)","numberOfBytes":"32","value":"t_uint256"},"t_string_storage":{"encoding":"bytes","label":"string","numberOfBytes":"32"},"t_uint256":{"encoding":"inplace","label":"uint256","numberOfBytes":"32"}}},"userdoc":{"kind":"user","methods":{"DOMAIN_SEPARATOR()":{"notice":"The domain separator used in the permit signature"},"PERMIT_TYPEHASH()":{"notice":"The permit typehash used in the permit signature"},"permit(address,uint256,uint256,uint8,bytes32,bytes32)":{"notice":"Approve of a specific token ID for spending by spender via signature"}},"version":1}}}}