{"contracts/TRIS.sol":{"TRIS":{"abi":[{"inputs":[],"stateMutability":"nonpayable","type":"constructor"},{"anonymous":false,"inputs":[{"indexed":true,"internalType":"address","name":"owner","type":"address"},{"indexed":true,"internalType":"address","name":"approved","type":"address"},{"indexed":true,"internalType":"uint256","name":"tokenId","type":"uint256"}],"name":"Approval","type":"event"},{"anonymous":false,"inputs":[{"indexed":true,"internalType":"address","name":"owner","type":"address"},{"indexed":true,"internalType":"address","name":"operator","type":"address"},{"indexed":false,"internalType":"bool","name":"approved","type":"bool"}],"name":"ApprovalForAll","type":"event"},{"anonymous":false,"inputs":[{"indexed":true,"internalType":"address","name":"previousOwner","type":"address"},{"indexed":true,"internalType":"address","name":"newOwner","type":"address"}],"name":"OwnershipTransferred","type":"event"},{"anonymous":false,"inputs":[{"indexed":true,"internalType":"address","name":"from","type":"address"},{"indexed":true,"internalType":"address","name":"to","type":"address"},{"indexed":true,"internalType":"uint256","name":"tokenId","type":"uint256"}],"name":"Transfer","type":"event"},{"inputs":[],"name":"DOMAIN_SEPARATOR","outputs":[{"internalType":"bytes32","name":"","type":"bytes32"}],"stateMutability":"view","type":"function"},{"inputs":[],"name":"PERMIT_TYPEHASH","outputs":[{"internalType":"bytes32","name":"","type":"bytes32"}],"stateMutability":"view","type":"function"},{"inputs":[],"name":"__baseURI","outputs":[{"internalType":"string","name":"","type":"string"}],"stateMutability":"view","type":"function"},{"inputs":[{"internalType":"address","name":"to","type":"address"},{"internalType":"uint256","name":"tokenId","type":"uint256"}],"name":"approve","outputs":[],"stateMutability":"nonpayable","type":"function"},{"inputs":[{"internalType":"address","name":"owner","type":"address"}],"name":"balanceOf","outputs":[{"internalType":"uint256","name":"","type":"uint256"}],"stateMutability":"view","type":"function"},{"inputs":[{"internalType":"uint256","name":"tokenId","type":"uint256"}],"name":"getApproved","outputs":[{"internalType":"address","name":"","type":"address"}],"stateMutability":"view","type":"function"},{"inputs":[{"internalType":"address","name":"owner","type":"address"},{"internalType":"address","name":"operator","type":"address"}],"name":"isApprovedForAll","outputs":[{"internalType":"bool","name":"","type":"bool"}],"stateMutability":"view","type":"function"},{"inputs":[],"name":"isWhitelistActive","outputs":[{"internalType":"bool","name":"","type":"bool"}],"stateMutability":"view","type":"function"},{"inputs":[{"internalType":"address","name":"_to","type":"address"},{"internalType":"uint256","name":"_tokenId","type":"uint256"}],"name":"mint","outputs":[],"stateMutability":"nonpayable","type":"function"},{"inputs":[],"name":"name","outputs":[{"internalType":"string","name":"","type":"string"}],"stateMutability":"view","type":"function"},{"inputs":[{"internalType":"uint256","name":"","type":"uint256"}],"name":"nonces","outputs":[{"internalType":"uint256","name":"","type":"uint256"}],"stateMutability":"view","type":"function"},{"inputs":[],"name":"owner","outputs":[{"internalType":"address","name":"","type":"address"}],"stateMutability":"view","type":"function"},{"inputs":[{"internalType":"uint256","name":"tokenId","type":"uint256"}],"name":"ownerOf","outputs":[{"internalType":"address","name":"","type":"address"}],"stateMutability":"view","type":"function"},{"inputs":[{"internalType":"address","name":"spender","type":"address"},{"internalType":"uint256","name":"tokenId","type":"uint256"},{"internalType":"uint256","name":"deadline","type":"uint256"},{"internalType":"uint8","name":"v","type":"uint8"},{"internalType":"bytes32","name":"r","type":"bytes32"},{"internalType":"bytes32","name":"s","type":"bytes32"}],"name":"permit","outputs":[],"stateMutability":"payable","type":"function"},{"inputs":[],"name":"renounceOwnership","outputs":[],"stateMutability":"nonpayable","type":"function"},{"inputs":[{"internalType":"address","name":"from","type":"address"},{"internalType":"address","name":"to","type":"address"},{"internalType":"uint256","name":"tokenId","type":"uint256"}],"name":"safeTransferFrom","outputs":[],"stateMutability":"nonpayable","type":"function"},{"inputs":[{"internalType":"address","name":"from","type":"address"},{"internalType":"address","name":"to","type":"address"},{"internalType":"uint256","name":"tokenId","type":"uint256"},{"internalType":"bytes","name":"data","type":"bytes"}],"name":"safeTransferFrom","outputs":[],"stateMutability":"nonpayable","type":"function"},{"inputs":[{"internalType":"address","name":"operator","type":"address"},{"internalType":"bool","name":"approved","type":"bool"}],"name":"setApprovalForAll","outputs":[],"stateMutability":"nonpayable","type":"function"},{"inputs":[{"internalType":"string","name":"_uri","type":"string"}],"name":"setBaseURI","outputs":[],"stateMutability":"nonpayable","type":"function"},{"inputs":[{"internalType":"bytes32","name":"value","type":"bytes32"}],"name":"setWhitelistMerkleRoot","outputs":[],"stateMutability":"nonpayable","type":"function"},{"inputs":[],"name":"startWhitelistMint","outputs":[],"stateMutability":"nonpayable","type":"function"},{"inputs":[{"internalType":"bytes4","name":"interfaceId","type":"bytes4"}],"name":"supportsInterface","outputs":[{"internalType":"bool","name":"","type":"bool"}],"stateMutability":"view","type":"function"},{"inputs":[],"name":"symbol","outputs":[{"internalType":"string","name":"","type":"string"}],"stateMutability":"view","type":"function"},{"inputs":[{"internalType":"uint256","name":"index","type":"uint256"}],"name":"tokenByIndex","outputs":[{"internalType":"uint256","name":"","type":"uint256"}],"stateMutability":"view","type":"function"},{"inputs":[{"internalType":"address","name":"owner","type":"address"},{"internalType":"uint256","name":"index","type":"uint256"}],"name":"tokenOfOwnerByIndex","outputs":[{"internalType":"uint256","name":"","type":"uint256"}],"stateMutability":"view","type":"function"},{"inputs":[{"internalType":"uint256","name":"tokenId","type":"uint256"}],"name":"tokenURI","outputs":[{"internalType":"string","name":"","type":"string"}],"stateMutability":"view","type":"function"},{"inputs":[],"name":"totalSupply","outputs":[{"internalType":"uint256","name":"","type":"uint256"}],"stateMutability":"view","type":"function"},{"inputs":[{"internalType":"address","name":"from","type":"address"},{"internalType":"address","name":"to","type":"address"},{"internalType":"uint256","name":"tokenId","type":"uint256"}],"name":"transferFrom","outputs":[],"stateMutability":"nonpayable","type":"function"},{"inputs":[{"internalType":"address","name":"newOwner","type":"address"}],"name":"transferOwnership","outputs":[],"stateMutability":"nonpayable","type":"function"},{"inputs":[],"name":"version","outputs":[{"internalType":"string","name":"","type":"string"}],"stateMutability":"pure","type":"function"},{"inputs":[],"name":"whitelistMerkleRoot","outputs":[{"internalType":"bytes32","name":"","type":"bytes32"}],"stateMutability":"view","type":"function"},{"inputs":[{"internalType":"uint256","name":"_index","type":"uint256"},{"internalType":"address","name":"_to","type":"address"},{"internalType":"uint256","name":"_tokenId","type":"uint256"},{"internalType":"bytes32[]","name":"proof","type":"bytes32[]"}],"name":"whitelistMint","outputs":[],"stateMutability":"payable","type":"function"}],"devdoc":{"events":{"Approval(address,address,uint256)":{"details":"Emitted when `owner` enables `approved` to manage the `tokenId` token."},"ApprovalForAll(address,address,bool)":{"details":"Emitted when `owner` enables or disables (`approved`) `operator` to manage all of its assets."},"Transfer(address,address,uint256)":{"details":"Emitted when `tokenId` token is transferred from `from` to `to`."}},"kind":"dev","methods":{"DOMAIN_SEPARATOR()":{"returns":{"_0":"The domain seperator used in encoding of permit signature"}},"approve(address,uint256)":{"details":"See {IERC721-approve}."},"balanceOf(address)":{"details":"See {IERC721-balanceOf}."},"getApproved(uint256)":{"details":"See {IERC721-getApproved}."},"isApprovedForAll(address,address)":{"details":"See {IERC721-isApprovedForAll}."},"name()":{"details":"See {IERC721Metadata-name}."},"owner()":{"details":"Returns the address of the current owner."},"ownerOf(uint256)":{"details":"See {IERC721-ownerOf}."},"permit(address,uint256,uint256,uint8,bytes32,bytes32)":{"params":{"deadline":"The deadline timestamp by which the call must be mined for the approve to work","r":"Must produce valid secp256k1 signature from the holder along with `v` and `s`","s":"Must produce valid secp256k1 signature from the holder along with `r` and `v`","spender":"The account that is being approved","tokenId":"The ID of the token that is being approved for spending","v":"Must produce valid secp256k1 signature from the holder along with `r` and `s`"}},"renounceOwnership()":{"details":"Leaves the contract without owner. It will not be possible to call `onlyOwner` functions. Can only be called by the current owner. NOTE: Renouncing ownership will leave the contract without an owner, thereby disabling any functionality that is only available to the owner."},"safeTransferFrom(address,address,uint256)":{"details":"See {IERC721-safeTransferFrom}."},"safeTransferFrom(address,address,uint256,bytes)":{"details":"See {IERC721-safeTransferFrom}."},"setApprovalForAll(address,bool)":{"details":"See {IERC721-setApprovalForAll}."},"supportsInterface(bytes4)":{"details":"See {IERC165-supportsInterface}."},"symbol()":{"details":"See {IERC721Metadata-symbol}."},"tokenByIndex(uint256)":{"details":"See {IERC721Enumerable-tokenByIndex}."},"tokenOfOwnerByIndex(address,uint256)":{"details":"See {IERC721Enumerable-tokenOfOwnerByIndex}."},"tokenURI(uint256)":{"details":"See {IERC721Metadata-tokenURI}."},"totalSupply()":{"details":"See {IERC721Enumerable-totalSupply}."},"transferFrom(address,address,uint256)":{"details":"See {IERC721-transferFrom}."},"transferOwnership(address)":{"details":"Transfers ownership of the contract to a new account (`newOwner`). Can only be called by the current owner."}},"version":1},"evm":{"bytecode":{"linkReferences":{},"object":"60c060405234801562000010575f80fd5b506040518060400160405280600481526020017f54524953000000000000000000000000000000000000000000000000000000008152506040518060400160405280600481526020017f54524953000000000000000000000000000000000000000000000000000000008152506040518060400160405280600181526020017f31000000000000000000000000000000000000000000000000000000000000008152508282815f9081620000c591906200048e565b508060019081620000d791906200048e565b505050828051906020012060808181525050808051906020012060a081815250505050506200011b6200010f6200014b60201b60201c565b6200015260201b60201c565b6200014560405180608001604052806043815260200162004b7c604391396200021560201b60201c565b62000572565b5f33905090565b5f600a5f9054906101000a900473ffffffffffffffffffffffffffffffffffffffff16905081600a5f6101000a81548173ffffffffffffffffffffffffffffffffffffffff021916908373ffffffffffffffffffffffffffffffffffffffff1602179055508173ffffffffffffffffffffffffffffffffffffffff168173ffffffffffffffffffffffffffffffffffffffff167f8be0079c531659141344cd1fd0a4f28419497f9722a3daafe3b4186f6b6457e060405160405180910390a35050565b80600d90816200022691906200048e565b5050565b5f81519050919050565b7f4e487b71000000000000000000000000000000000000000000000000000000005f52604160045260245ffd5b7f4e487b71000000000000000000000000000000000000000000000000000000005f52602260045260245ffd5b5f6002820490506001821680620002a657607f821691505b602082108103620002bc57620002bb62000261565b5b50919050565b5f819050815f5260205f209050919050565b5f6020601f8301049050919050565b5f82821b905092915050565b5f60088302620003207fffffffffffffffffffffffffffffffffffffffffffffffffffffffffffffffff82620002e3565b6200032c8683620002e3565b95508019841693508086168417925050509392505050565b5f819050919050565b5f819050919050565b5f62000376620003706200036a8462000344565b6200034d565b62000344565b9050919050565b5f819050919050565b620003918362000356565b620003a9620003a0826200037d565b848454620002ef565b825550505050565b5f90565b620003bf620003b1565b620003cc81848462000386565b505050565b5b81811015620003f357620003e75f82620003b5565b600181019050620003d2565b5050565b601f82111562000442576200040c81620002c2565b6200041784620002d4565b8101602085101562000427578190505b6200043f6200043685620002d4565b830182620003d1565b50505b505050565b5f82821c905092915050565b5f620004645f198460080262000447565b1980831691505092915050565b5f6200047e838362000453565b9150826002028217905092915050565b62000499826200022a565b67ffffffffffffffff811115620004b557620004b462000234565b5b620004c182546200028e565b620004ce828285620003f7565b5f60209050601f83116001811462000504575f8415620004ef578287015190505b620004fb858262000471565b8655506200056a565b601f1984166200051486620002c2565b5f5b828110156200053d5784890151825560018201915060208501945060208101905062000516565b868310156200055d578489015162000559601f89168262000453565b8355505b6001600288020188555050505b505050505050565b60805160a0516145e8620005945f395f610b5e01525f610b3d01526145e85ff3fe6080604052600436106101e2575f3560e01c80636352211e11610101578063aa98e0c611610094578063bf477c1611610063578063bf477c16146106b6578063c87b56dd146106d2578063e985e9c51461070e578063f2fde38b1461074a576101e2565b8063aa98e0c614610626578063b70196d714610650578063b88d4fde14610666578063bd32fb661461068e576101e2565b80637ac2ff7b116100d05780637ac2ff7b1461058e5780638da5cb5b146105aa57806395d89b41146105d4578063a22cb465146105fe576101e2565b80636352211e146104d65780636e34a4821461051257806370a082311461053c578063715018a614610578576101e2565b806330adf81f116101795780634f6ccce7116101485780634f6ccce71461041e578063524513d61461045a57806354fd4d501461048457806355f804b3146104ae576101e2565b806330adf81f1461037a5780633644e515146103a457806340c10f19146103ce57806342842e0e146103f6576101e2565b8063141a468c116101b5578063141a468c146102b057806318160ddd146102ec57806323b872dd146103165780632f745c591461033e576101e2565b806301ffc9a7146101e657806306fdde0314610222578063081812fc1461024c578063095ea7b314610288575b5f80fd5b3480156101f1575f80fd5b5061020c60048036038101906102079190612b06565b610772565b6040516102199190612b4b565b60405180910390f35b34801561022d575f80fd5b506102366107eb565b6040516102439190612bee565b60405180910390f35b348015610257575f80fd5b50610272600480360381019061026d9190612c41565b61087a565b60405161027f9190612cab565b60405180910390f35b348015610293575f80fd5b506102ae60048036038101906102a99190612cee565b6108bc565b005b3480156102bb575f80fd5b506102d660048036038101906102d19190612c41565b6109d2565b6040516102e39190612d3b565b60405180910390f35b3480156102f7575f80fd5b506103006109e7565b60405161030d9190612d3b565b60405180910390f35b348015610321575f80fd5b5061033c60048036038101906103379190612d54565b6109f3565b005b348015610349575f80fd5b50610364600480360381019061035f9190612cee565b610a53565b6040516103719190612d3b565b60405180910390f35b348015610385575f80fd5b5061038e610af3565b60405161039b9190612dbc565b60405180910390f35b3480156103af575f80fd5b506103b8610b19565b6040516103c59190612dbc565b60405180910390f35b3480156103d9575f80fd5b506103f460048036038101906103ef9190612cee565b610bb5565b005b348015610401575f80fd5b5061041c60048036038101906104179190612d54565b610bcb565b005b348015610429575f80fd5b50610444600480360381019061043f9190612c41565b610bea565b6040516104519190612d3b565b60405180910390f35b348015610465575f80fd5b5061046e610c58565b60405161047b9190612b4b565b60405180910390f35b34801561048f575f80fd5b50610498610c6e565b6040516104a59190612bee565b60405180910390f35b3480156104b9575f80fd5b506104d460048036038101906104cf9190612f01565b610cab565b005b3480156104e1575f80fd5b506104fc60048036038101906104f79190612c41565b610cbf565b6040516105099190612cab565b60405180910390f35b34801561051d575f80fd5b50610526610d43565b6040516105339190612bee565b60405180910390f35b348015610547575f80fd5b50610562600480360381019061055d9190612f48565b610dcf565b60405161056f9190612d3b565b60405180910390f35b348015610583575f80fd5b5061058c610e83565b005b6105a860048036038101906105a39190612fd3565b610e96565b005b3480156105b5575f80fd5b506105be61123d565b6040516105cb9190612cab565b60405180910390f35b3480156105df575f80fd5b506105e8611265565b6040516105f59190612bee565b60405180910390f35b348015610609575f80fd5b50610624600480360381019061061f9190613086565b6112f5565b005b348015610631575f80fd5b5061063a61130b565b6040516106479190612dbc565b60405180910390f35b34801561065b575f80fd5b50610664611311565b005b348015610671575f80fd5b5061068c60048036038101906106879190613162565b611336565b005b348015610699575f80fd5b506106b460048036038101906106af91906131e2565b611398565b005b6106d060048036038101906106cb91906132d1565b6113aa565b005b3480156106dd575f80fd5b506106f860048036038101906106f39190612c41565b6113e7565b6040516107059190612bee565b60405180910390f35b348015610719575f80fd5b50610734600480360381019061072f9190613351565b61144c565b6040516107419190612b4b565b60405180910390f35b348015610755575f80fd5b50610770600480360381019061076b9190612f48565b6114da565b005b5f7f780e9d63000000000000000000000000000000000000000000000000000000007bffffffffffffffffffffffffffffffffffffffffffffffffffffffff1916827bffffffffffffffffffffffffffffffffffffffffffffffffffffffff191614806107e457506107e38261155c565b5b9050919050565b60605f80546107f9906133bc565b80601f0160208091040260200160405190810160405280929190818152602001828054610825906133bc565b80156108705780601f1061084757610100808354040283529160200191610870565b820191905f5260205f20905b81548152906001019060200180831161085357829003601f168201915b5050505050905090565b5f6108848261163d565b60045f8381526020019081526020015f205f9054906101000a900473ffffffffffffffffffffffffffffffffffffffff169050919050565b5f6108c682610cbf565b90508073ffffffffffffffffffffffffffffffffffffffff168373ffffffffffffffffffffffffffffffffffffffff1603610936576040517f08c379a000000000000000000000000000000000000000000000000000000000815260040161092d9061345c565b60405180910390fd5b8073ffffffffffffffffffffffffffffffffffffffff16610955611688565b73ffffffffffffffffffffffffffffffffffffffff16148061098457506109838161097e611688565b61144c565b5b6109c3576040517f08c379a00000000000000000000000000000000000000000000000000000000081526004016109ba906134ea565b60405180910390fd5b6109cd838361168f565b505050565b600c602052805f5260405f205f915090505481565b5f600880549050905090565b610a046109fe611688565b82611745565b610a43576040517f08c379a0000000000000000000000000000000000000000000000000000000008152600401610a3a90613578565b60405180910390fd5b610a4e8383836117d9565b505050565b5f610a5d83610dcf565b8210610a9e576040517f08c379a0000000000000000000000000000000000000000000000000000000008152600401610a9590613606565b60405180910390fd5b60065f8473ffffffffffffffffffffffffffffffffffffffff1673ffffffffffffffffffffffffffffffffffffffff1681526020019081526020015f205f8381526020019081526020015f2054905092915050565b7f49ecf333e5b8c95c40fdafc95c1ad136e8914a8fb55e9dc8bb01eaa83a2df9ad5f1b81565b5f7f8b73c3c69bb8fe3d512ecc4cf759cc79239f7b179b0ffacaa9a75d522b39400f7f00000000000000000000000000000000000000000000000000000000000000007f0000000000000000000000000000000000000000000000000000000000000000610b85611ac5565b30604051602001610b9a959493929190613666565b60405160208183030381529060405280519060200120905090565b610bbd611acc565b610bc78282611b4a565b5050565b610be583838360405180602001604052805f815250611336565b505050565b5f610bf36109e7565b8210610c34576040517f08c379a0000000000000000000000000000000000000000000000000000000008152600401610c2b90613727565b60405180910390fd5b60088281548110610c4857610c47613745565b5b905f5260205f2001549050919050565b5f600a60149054906101000a900460ff16905090565b60606040518060400160405280600181526020017f3100000000000000000000000000000000000000000000000000000000000000815250905090565b610cb3611acc565b610cbc81611d5d565b50565b5f80610cca83611d70565b90505f73ffffffffffffffffffffffffffffffffffffffff168173ffffffffffffffffffffffffffffffffffffffff1603610d3a576040517f08c379a0000000000000000000000000000000000000000000000000000000008152600401610d31906137bc565b60405180910390fd5b80915050919050565b600d8054610d50906133bc565b80601f0160208091040260200160405190810160405280929190818152602001828054610d7c906133bc565b8015610dc75780601f10610d9e57610100808354040283529160200191610dc7565b820191905f5260205f20905b815481529060010190602001808311610daa57829003601f168201915b505050505081565b5f8073ffffffffffffffffffffffffffffffffffffffff168273ffffffffffffffffffffffffffffffffffffffff1603610e3e576040517f08c379a0000000000000000000000000000000000000000000000000000000008152600401610e359061384a565b60405180910390fd5b60035f8373ffffffffffffffffffffffffffffffffffffffff1673ffffffffffffffffffffffffffffffffffffffff1681526020019081526020015f20549050919050565b610e8b611acc565b610e945f611da9565b565b83610e9f611e6c565b1115610ee0576040517f08c379a0000000000000000000000000000000000000000000000000000000008152600401610ed7906138b2565b60405180910390fd5b5f610ee9610b19565b7f49ecf333e5b8c95c40fdafc95c1ad136e8914a8fb55e9dc8bb01eaa83a2df9ad5f1b8888610f178a611e73565b89604051602001610f2c9594939291906138d0565b60405160208183030381529060405280519060200120604051602001610f53929190613995565b6040516020818303038152906040528051906020012090505f610f7587610cbf565b90508073ffffffffffffffffffffffffffffffffffffffff168873ffffffffffffffffffffffffffffffffffffffff1603610fe5576040517f08c379a0000000000000000000000000000000000000000000000000000000008152600401610fdc90613a3b565b60405180910390fd5b610fee81611eb8565b156110fc57631626ba7e60e01b8173ffffffffffffffffffffffffffffffffffffffff16631626ba7e8487878a60405160200161102d93929190613a8d565b6040516020818303038152906040526040518363ffffffff1660e01b8152600401611059929190613b1b565b602060405180830381865afa158015611074573d5f803e3d5ffd5b505050506040513d601f19601f820116820180604052508101906110989190613b5d565b7bffffffffffffffffffffffffffffffffffffffffffffffffffffffff1916146110f7576040517f08c379a00000000000000000000000000000000000000000000000000000000081526004016110ee90613bd2565b60405180910390fd5b611229565b5f6001838787876040515f815260200160405260405161111f9493929190613bff565b6020604051602081039080840390855afa15801561113f573d5f803e3d5ffd5b5050506020604051035190505f73ffffffffffffffffffffffffffffffffffffffff168173ffffffffffffffffffffffffffffffffffffffff16036111b9576040517f08c379a00000000000000000000000000000000000000000000000000000000081526004016111b090613c8c565b60405180910390fd5b8173ffffffffffffffffffffffffffffffffffffffff168173ffffffffffffffffffffffffffffffffffffffff1614611227576040517f08c379a000000000000000000000000000000000000000000000000000000000815260040161121e90613bd2565b60405180910390fd5b505b611233888861168f565b5050505050505050565b5f600a5f9054906101000a900473ffffffffffffffffffffffffffffffffffffffff16905090565b606060018054611274906133bc565b80601f01602080910402602001604051908101604052809291908181526020018280546112a0906133bc565b80156112eb5780601f106112c2576101008083540402835291602001916112eb565b820191905f5260205f20905b8154815290600101906020018083116112ce57829003601f168201915b5050505050905090565b611307611300611688565b8383611eda565b5050565b600b5481565b611319611acc565b6001600a60146101000a81548160ff021916908315150217905550565b611347611341611688565b83611745565b611386576040517f08c379a000000000000000000000000000000000000000000000000000000000815260040161137d90613578565b60405180910390fd5b61139284848484612041565b50505050565b6113a0611acc565b80600b8190555050565b600a60149054906101000a900460ff16156113c3575f80fd5b6113cf8185858561209d565b6113d7575f80fd5b6113e18383611b4a565b50505050565b60606113f28261163d565b5f6113fb6120e9565b90505f8151116114195760405180602001604052805f815250611444565b8061142384612179565b604051602001611434929190613cda565b6040516020818303038152906040525b915050919050565b5f60055f8473ffffffffffffffffffffffffffffffffffffffff1673ffffffffffffffffffffffffffffffffffffffff1681526020019081526020015f205f8373ffffffffffffffffffffffffffffffffffffffff1673ffffffffffffffffffffffffffffffffffffffff1681526020019081526020015f205f9054906101000a900460ff16905092915050565b6114e2611acc565b5f73ffffffffffffffffffffffffffffffffffffffff168173ffffffffffffffffffffffffffffffffffffffff1603611550576040517f08c379a000000000000000000000000000000000000000000000000000000000815260040161154790613d6d565b60405180910390fd5b61155981611da9565b50565b5f7f80ac58cd000000000000000000000000000000000000000000000000000000007bffffffffffffffffffffffffffffffffffffffffffffffffffffffff1916827bffffffffffffffffffffffffffffffffffffffffffffffffffffffff1916148061162657507f5b5e139f000000000000000000000000000000000000000000000000000000007bffffffffffffffffffffffffffffffffffffffffffffffffffffffff1916827bffffffffffffffffffffffffffffffffffffffffffffffffffffffff1916145b80611636575061163582612243565b5b9050919050565b611646816122ac565b611685576040517f08c379a000000000000000000000000000000000000000000000000000000000815260040161167c906137bc565b60405180910390fd5b50565b5f33905090565b8160045f8381526020019081526020015f205f6101000a81548173ffffffffffffffffffffffffffffffffffffffff021916908373ffffffffffffffffffffffffffffffffffffffff160217905550808273ffffffffffffffffffffffffffffffffffffffff166116ff83610cbf565b73ffffffffffffffffffffffffffffffffffffffff167f8c5be1e5ebec7d5bd14f71427d1e84f3dd0314c0f7b2291e5b200ac8c7c3b92560405160405180910390a45050565b5f8061175083610cbf565b90508073ffffffffffffffffffffffffffffffffffffffff168473ffffffffffffffffffffffffffffffffffffffff1614806117925750611791818561144c565b5b806117d057508373ffffffffffffffffffffffffffffffffffffffff166117b88461087a565b73ffffffffffffffffffffffffffffffffffffffff16145b91505092915050565b8273ffffffffffffffffffffffffffffffffffffffff166117f982610cbf565b73ffffffffffffffffffffffffffffffffffffffff161461184f576040517f08c379a000000000000000000000000000000000000000000000000000000000815260040161184690613dfb565b60405180910390fd5b5f73ffffffffffffffffffffffffffffffffffffffff168273ffffffffffffffffffffffffffffffffffffffff16036118bd576040517f08c379a00000000000000000000000000000000000000000000000000000000081526004016118b490613e89565b60405180910390fd5b6118ca83838360016122ec565b8273ffffffffffffffffffffffffffffffffffffffff166118ea82610cbf565b73ffffffffffffffffffffffffffffffffffffffff1614611940576040517f08c379a000000000000000000000000000000000000000000000000000000000815260040161193790613dfb565b60405180910390fd5b60045f8281526020019081526020015f205f6101000a81549073ffffffffffffffffffffffffffffffffffffffff0219169055600160035f8573ffffffffffffffffffffffffffffffffffffffff1673ffffffffffffffffffffffffffffffffffffffff1681526020019081526020015f205f8282540392505081905550600160035f8473ffffffffffffffffffffffffffffffffffffffff1673ffffffffffffffffffffffffffffffffffffffff1681526020019081526020015f205f82825401925050819055508160025f8381526020019081526020015f205f6101000a81548173ffffffffffffffffffffffffffffffffffffffff021916908373ffffffffffffffffffffffffffffffffffffffff160217905550808273ffffffffffffffffffffffffffffffffffffffff168473ffffffffffffffffffffffffffffffffffffffff167fddf252ad1be2c89b69c2b068fc378daa952ba7f163c4a11628f55a4df523b3ef60405160405180910390a4611ac08383836001612447565b505050565b5f46905090565b611ad4611688565b73ffffffffffffffffffffffffffffffffffffffff16611af261123d565b73ffffffffffffffffffffffffffffffffffffffff1614611b48576040517f08c379a0000000000000000000000000000000000000000000000000000000008152600401611b3f90613ef1565b60405180910390fd5b565b5f73ffffffffffffffffffffffffffffffffffffffff168273ffffffffffffffffffffffffffffffffffffffff1603611bb8576040517f08c379a0000000000000000000000000000000000000000000000000000000008152600401611baf90613f59565b60405180910390fd5b611bc1816122ac565b15611c01576040517f08c379a0000000000000000000000000000000000000000000000000000000008152600401611bf890613fc1565b60405180910390fd5b611c0e5f838360016122ec565b611c17816122ac565b15611c57576040517f08c379a0000000000000000000000000000000000000000000000000000000008152600401611c4e90613fc1565b60405180910390fd5b600160035f8473ffffffffffffffffffffffffffffffffffffffff1673ffffffffffffffffffffffffffffffffffffffff1681526020019081526020015f205f82825401925050819055508160025f8381526020019081526020015f205f6101000a81548173ffffffffffffffffffffffffffffffffffffffff021916908373ffffffffffffffffffffffffffffffffffffffff160217905550808273ffffffffffffffffffffffffffffffffffffffff165f73ffffffffffffffffffffffffffffffffffffffff167fddf252ad1be2c89b69c2b068fc378daa952ba7f163c4a11628f55a4df523b3ef60405160405180910390a4611d595f83836001612447565b5050565b80600d9081611d6c9190614173565b5050565b5f60025f8381526020019081526020015f205f9054906101000a900473ffffffffffffffffffffffffffffffffffffffff169050919050565b5f600a5f9054906101000a900473ffffffffffffffffffffffffffffffffffffffff16905081600a5f6101000a81548173ffffffffffffffffffffffffffffffffffffffff021916908373ffffffffffffffffffffffffffffffffffffffff1602179055508173ffffffffffffffffffffffffffffffffffffffff168173ffffffffffffffffffffffffffffffffffffffff167f8be0079c531659141344cd1fd0a4f28419497f9722a3daafe3b4186f6b6457e060405160405180910390a35050565b5f42905090565b5f80600c5f8481526020019081526020015f20549050600c5f8481526020019081526020015f205f815480929190611eaa9061426f565b919050555080915050919050565b5f808273ffffffffffffffffffffffffffffffffffffffff163b119050919050565b8173ffffffffffffffffffffffffffffffffffffffff168373ffffffffffffffffffffffffffffffffffffffff1603611f48576040517f08c379a0000000000000000000000000000000000000000000000000000000008152600401611f3f90614300565b60405180910390fd5b8060055f8573ffffffffffffffffffffffffffffffffffffffff1673ffffffffffffffffffffffffffffffffffffffff1681526020019081526020015f205f8473ffffffffffffffffffffffffffffffffffffffff1673ffffffffffffffffffffffffffffffffffffffff1681526020019081526020015f205f6101000a81548160ff0219169083151502179055508173ffffffffffffffffffffffffffffffffffffffff168373ffffffffffffffffffffffffffffffffffffffff167f17307eab39ab6107e8899845ad3d59bd9653f200f220920489ca2b5937696c31836040516120349190612b4b565b60405180910390a3505050565b61204c8484846117d9565b6120588484848461244d565b612097576040517f08c379a000000000000000000000000000000000000000000000000000000000815260040161208e9061438e565b60405180910390fd5b50505050565b5f6120df600b548585856040516020016120b993929190614411565b60405160208183030381529060405280519060200120876125cf9092919063ffffffff16565b9050949350505050565b6060600d80546120f8906133bc565b80601f0160208091040260200160405190810160405280929190818152602001828054612124906133bc565b801561216f5780601f106121465761010080835404028352916020019161216f565b820191905f5260205f20905b81548152906001019060200180831161215257829003601f168201915b5050505050905090565b60605f6001612187846125e5565b0190505f8167ffffffffffffffff8111156121a5576121a4612ddd565b5b6040519080825280601f01601f1916602001820160405280156121d75781602001600182028036833780820191505090505b5090505f82602001820190505b600115612238578080600190039150507f3031323334353637383961626364656600000000000000000000000000000000600a86061a8153600a858161222d5761222c61444d565b5b0494505f85036121e4575b819350505050919050565b5f7f01ffc9a7000000000000000000000000000000000000000000000000000000007bffffffffffffffffffffffffffffffffffffffffffffffffffffffff1916827bffffffffffffffffffffffffffffffffffffffffffffffffffffffff1916149050919050565b5f8073ffffffffffffffffffffffffffffffffffffffff166122cd83611d70565b73ffffffffffffffffffffffffffffffffffffffff1614159050919050565b6122f884848484612736565b600181111561233c576040517f08c379a0000000000000000000000000000000000000000000000000000000008152600401612333906144ea565b60405180910390fd5b5f8290505f73ffffffffffffffffffffffffffffffffffffffff168573ffffffffffffffffffffffffffffffffffffffff16036123815761237c8161273c565b6123c0565b8373ffffffffffffffffffffffffffffffffffffffff168573ffffffffffffffffffffffffffffffffffffffff16146123bf576123be8582612780565b5b5b5f73ffffffffffffffffffffffffffffffffffffffff168473ffffffffffffffffffffffffffffffffffffffff1603612401576123fc816128d6565b612440565b8473ffffffffffffffffffffffffffffffffffffffff168473ffffffffffffffffffffffffffffffffffffffff161461243f5761243e8482612996565b5b5b5050505050565b50505050565b5f61246d8473ffffffffffffffffffffffffffffffffffffffff16611eb8565b156125c2578373ffffffffffffffffffffffffffffffffffffffff1663150b7a02612496611688565b8786866040518563ffffffff1660e01b81526004016124b89493929190614508565b6020604051808303815f875af19250505080156124f357506040513d601f19601f820116820180604052508101906124f09190613b5d565b60015b612572573d805f8114612521576040519150601f19603f3d011682016040523d82523d5f602084013e612526565b606091505b505f81510361256a576040517f08c379a00000000000000000000000000000000000000000000000000000000081526004016125619061438e565b60405180910390fd5b805181602001fd5b63150b7a0260e01b7bffffffffffffffffffffffffffffffffffffffffffffffffffffffff1916817bffffffffffffffffffffffffffffffffffffffffffffffffffffffff1916149150506125c7565b600190505b949350505050565b5f826125db8584612a0e565b1490509392505050565b5f805f90507a184f03e93ff9f4daa797ed6e38ed64bf6a1f0100000000000000008310612641577a184f03e93ff9f4daa797ed6e38ed64bf6a1f01000000000000000083816126375761263661444d565b5b0492506040810190505b6d04ee2d6d415b85acef8100000000831061267e576d04ee2d6d415b85acef810000000083816126745761267361444d565b5b0492506020810190505b662386f26fc1000083106126ad57662386f26fc1000083816126a3576126a261444d565b5b0492506010810190505b6305f5e10083106126d6576305f5e10083816126cc576126cb61444d565b5b0492506008810190505b61271083106126fb5761271083816126f1576126f061444d565b5b0492506004810190505b6064831061271e57606483816127145761271361444d565b5b0492506002810190505b600a831061272d576001810190505b80915050919050565b50505050565b60088054905060095f8381526020019081526020015f2081905550600881908060018154018082558091505060019003905f5260205f20015f909190919091505550565b5f600161278c84610dcf565b6127969190614552565b90505f60075f8481526020019081526020015f2054905081811461286d575f60065f8673ffffffffffffffffffffffffffffffffffffffff1673ffffffffffffffffffffffffffffffffffffffff1681526020019081526020015f205f8481526020019081526020015f205490508060065f8773ffffffffffffffffffffffffffffffffffffffff1673ffffffffffffffffffffffffffffffffffffffff1681526020019081526020015f205f8481526020019081526020015f20819055508160075f8381526020019081526020015f2081905550505b60075f8481526020019081526020015f205f905560065f8573ffffffffffffffffffffffffffffffffffffffff1673ffffffffffffffffffffffffffffffffffffffff1681526020019081526020015f205f8381526020019081526020015f205f905550505050565b5f60016008805490506128e99190614552565b90505f60095f8481526020019081526020015f205490505f6008838154811061291557612914613745565b5b905f5260205f2001549050806008838154811061293557612934613745565b5b905f5260205f2001819055508160095f8381526020019081526020015f208190555060095f8581526020019081526020015f205f9055600880548061297d5761297c614585565b5b600190038181905f5260205f20015f9055905550505050565b5f6129a083610dcf565b90508160065f8573ffffffffffffffffffffffffffffffffffffffff1673ffffffffffffffffffffffffffffffffffffffff1681526020019081526020015f205f8381526020019081526020015f20819055508060075f8481526020019081526020015f2081905550505050565b5f808290505f5b8451811015612a5757612a4282868381518110612a3557612a34613745565b5b6020026020010151612a62565b91508080612a4f9061426f565b915050612a15565b508091505092915050565b5f818310612a7957612a748284612a8c565b612a84565b612a838383612a8c565b5b905092915050565b5f825f528160205260405f20905092915050565b5f604051905090565b5f80fd5b5f80fd5b5f7fffffffff0000000000000000000000000000000000000000000000000000000082169050919050565b612ae581612ab1565b8114612aef575f80fd5b50565b5f81359050612b0081612adc565b92915050565b5f60208284031215612b1b57612b1a612aa9565b5b5f612b2884828501612af2565b91505092915050565b5f8115159050919050565b612b4581612b31565b82525050565b5f602082019050612b5e5f830184612b3c565b92915050565b5f81519050919050565b5f82825260208201905092915050565b5f5b83811015612b9b578082015181840152602081019050612b80565b5f8484015250505050565b5f601f19601f8301169050919050565b5f612bc082612b64565b612bca8185612b6e565b9350612bda818560208601612b7e565b612be381612ba6565b840191505092915050565b5f6020820190508181035f830152612c068184612bb6565b905092915050565b5f819050919050565b612c2081612c0e565b8114612c2a575f80fd5b50565b5f81359050612c3b81612c17565b92915050565b5f60208284031215612c5657612c55612aa9565b5b5f612c6384828501612c2d565b91505092915050565b5f73ffffffffffffffffffffffffffffffffffffffff82169050919050565b5f612c9582612c6c565b9050919050565b612ca581612c8b565b82525050565b5f602082019050612cbe5f830184612c9c565b92915050565b612ccd81612c8b565b8114612cd7575f80fd5b50565b5f81359050612ce881612cc4565b92915050565b5f8060408385031215612d0457612d03612aa9565b5b5f612d1185828601612cda565b9250506020612d2285828601612c2d565b9150509250929050565b612d3581612c0e565b82525050565b5f602082019050612d4e5f830184612d2c565b92915050565b5f805f60608486031215612d6b57612d6a612aa9565b5b5f612d7886828701612cda565b9350506020612d8986828701612cda565b9250506040612d9a86828701612c2d565b9150509250925092565b5f819050919050565b612db681612da4565b82525050565b5f602082019050612dcf5f830184612dad565b92915050565b5f80fd5b5f80fd5b7f4e487b71000000000000000000000000000000000000000000000000000000005f52604160045260245ffd5b612e1382612ba6565b810181811067ffffffffffffffff82111715612e3257612e31612ddd565b5b80604052505050565b5f612e44612aa0565b9050612e508282612e0a565b919050565b5f67ffffffffffffffff821115612e6f57612e6e612ddd565b5b612e7882612ba6565b9050602081019050919050565b828183375f83830152505050565b5f612ea5612ea084612e55565b612e3b565b905082815260208101848484011115612ec157612ec0612dd9565b5b612ecc848285612e85565b509392505050565b5f82601f830112612ee857612ee7612dd5565b5b8135612ef8848260208601612e93565b91505092915050565b5f60208284031215612f1657612f15612aa9565b5b5f82013567ffffffffffffffff811115612f3357612f32612aad565b5b612f3f84828501612ed4565b91505092915050565b5f60208284031215612f5d57612f5c612aa9565b5b5f612f6a84828501612cda565b91505092915050565b5f60ff82169050919050565b612f8881612f73565b8114612f92575f80fd5b50565b5f81359050612fa381612f7f565b92915050565b612fb281612da4565b8114612fbc575f80fd5b50565b5f81359050612fcd81612fa9565b92915050565b5f805f805f8060c08789031215612fed57612fec612aa9565b5b5f612ffa89828a01612cda565b965050602061300b89828a01612c2d565b955050604061301c89828a01612c2d565b945050606061302d89828a01612f95565b935050608061303e89828a01612fbf565b92505060a061304f89828a01612fbf565b9150509295509295509295565b61306581612b31565b811461306f575f80fd5b50565b5f813590506130808161305c565b92915050565b5f806040838503121561309c5761309b612aa9565b5b5f6130a985828601612cda565b92505060206130ba85828601613072565b9150509250929050565b5f67ffffffffffffffff8211156130de576130dd612ddd565b5b6130e782612ba6565b9050602081019050919050565b5f613106613101846130c4565b612e3b565b90508281526020810184848401111561312257613121612dd9565b5b61312d848285612e85565b509392505050565b5f82601f83011261314957613148612dd5565b5b81356131598482602086016130f4565b91505092915050565b5f805f806080858703121561317a57613179612aa9565b5b5f61318787828801612cda565b945050602061319887828801612cda565b93505060406131a987828801612c2d565b925050606085013567ffffffffffffffff8111156131ca576131c9612aad565b5b6131d687828801613135565b91505092959194509250565b5f602082840312156131f7576131f6612aa9565b5b5f61320484828501612fbf565b91505092915050565b5f67ffffffffffffffff82111561322757613226612ddd565b5b602082029050602081019050919050565b5f80fd5b5f61324e6132498461320d565b612e3b565b9050808382526020820190506020840283018581111561327157613270613238565b5b835b8181101561329a57806132868882612fbf565b845260208401935050602081019050613273565b5050509392505050565b5f82601f8301126132b8576132b7612dd5565b5b81356132c884826020860161323c565b91505092915050565b5f805f80608085870312156132e9576132e8612aa9565b5b5f6132f687828801612c2d565b945050602061330787828801612cda565b935050604061331887828801612c2d565b925050606085013567ffffffffffffffff81111561333957613338612aad565b5b613345878288016132a4565b91505092959194509250565b5f806040838503121561336757613366612aa9565b5b5f61337485828601612cda565b925050602061338585828601612cda565b9150509250929050565b7f4e487b71000000000000000000000000000000000000000000000000000000005f52602260045260245ffd5b5f60028204905060018216806133d357607f821691505b6020821081036133e6576133e561338f565b5b50919050565b7f4552433732313a20617070726f76616c20746f2063757272656e74206f776e655f8201527f7200000000000000000000000000000000000000000000000000000000000000602082015250565b5f613446602183612b6e565b9150613451826133ec565b604082019050919050565b5f6020820190508181035f8301526134738161343a565b9050919050565b7f4552433732313a20617070726f76652063616c6c6572206973206e6f7420746f5f8201527f6b656e206f776e6572206f7220617070726f76656420666f7220616c6c000000602082015250565b5f6134d4603d83612b6e565b91506134df8261347a565b604082019050919050565b5f6020820190508181035f830152613501816134c8565b9050919050565b7f4552433732313a2063616c6c6572206973206e6f7420746f6b656e206f776e655f8201527f72206f7220617070726f76656400000000000000000000000000000000000000602082015250565b5f613562602d83612b6e565b915061356d82613508565b604082019050919050565b5f6020820190508181035f83015261358f81613556565b9050919050565b7f455243373231456e756d657261626c653a206f776e657220696e646578206f755f8201527f74206f6620626f756e6473000000000000000000000000000000000000000000602082015250565b5f6135f0602b83612b6e565b91506135fb82613596565b604082019050919050565b5f6020820190508181035f83015261361d816135e4565b9050919050565b5f819050919050565b5f819050919050565b5f61365061364b61364684613624565b61362d565b612c0e565b9050919050565b61366081613636565b82525050565b5f60a0820190506136795f830188613657565b6136866020830187612dad565b6136936040830186612dad565b6136a06060830185612d2c565b6136ad6080830184612c9c565b9695505050505050565b7f455243373231456e756d657261626c653a20676c6f62616c20696e646578206f5f8201527f7574206f6620626f756e64730000000000000000000000000000000000000000602082015250565b5f613711602c83612b6e565b915061371c826136b7565b604082019050919050565b5f6020820190508181035f83015261373e81613705565b9050919050565b7f4e487b71000000000000000000000000000000000000000000000000000000005f52603260045260245ffd5b7f4552433732313a20696e76616c696420746f6b656e20494400000000000000005f82015250565b5f6137a6601883612b6e565b91506137b182613772565b602082019050919050565b5f6020820190508181035f8301526137d38161379a565b9050919050565b7f4552433732313a2061646472657373207a65726f206973206e6f7420612076615f8201527f6c6964206f776e65720000000000000000000000000000000000000000000000602082015250565b5f613834602983612b6e565b915061383f826137da565b604082019050919050565b5f6020820190508181035f83015261386181613828565b9050919050565b7f5065726d697420657870697265640000000000000000000000000000000000005f82015250565b5f61389c600e83612b6e565b91506138a782613868565b602082019050919050565b5f6020820190508181035f8301526138c981613890565b9050919050565b5f60a0820190506138e35f830188612dad565b6138f06020830187612c9c565b6138fd6040830186612d2c565b61390a6060830185612d2c565b6139176080830184612d2c565b9695505050505050565b5f81905092915050565b7f19010000000000000000000000000000000000000000000000000000000000005f82015250565b5f61395f600283613921565b915061396a8261392b565b600282019050919050565b5f819050919050565b61398f61398a82612da4565b613975565b82525050565b5f61399f82613953565b91506139ab828561397e565b6020820191506139bb828461397e565b6020820191508190509392505050565b7f4552433732315065726d69743a20617070726f76616c20746f2063757272656e5f8201527f74206f776e657200000000000000000000000000000000000000000000000000602082015250565b5f613a25602783612b6e565b9150613a30826139cb565b604082019050919050565b5f6020820190508181035f830152613a5281613a19565b9050919050565b5f8160f81b9050919050565b5f613a6f82613a59565b9050919050565b613a87613a8282612f73565b613a65565b82525050565b5f613a98828661397e565b602082019150613aa8828561397e565b602082019150613ab88284613a76565b600182019150819050949350505050565b5f81519050919050565b5f82825260208201905092915050565b5f613aed82613ac9565b613af78185613ad3565b9350613b07818560208601612b7e565b613b1081612ba6565b840191505092915050565b5f604082019050613b2e5f830185612dad565b8181036020830152613b408184613ae3565b90509392505050565b5f81519050613b5781612adc565b92915050565b5f60208284031215613b7257613b71612aa9565b5b5f613b7f84828501613b49565b91505092915050565b7f556e617574686f72697a656400000000000000000000000000000000000000005f82015250565b5f613bbc600c83612b6e565b9150613bc782613b88565b602082019050919050565b5f6020820190508181035f830152613be981613bb0565b9050919050565b613bf981612f73565b82525050565b5f608082019050613c125f830187612dad565b613c1f6020830186613bf0565b613c2c6040830185612dad565b613c396060830184612dad565b95945050505050565b7f496e76616c6964207369676e61747572650000000000000000000000000000005f82015250565b5f613c76601183612b6e565b9150613c8182613c42565b602082019050919050565b5f6020820190508181035f830152613ca381613c6a565b9050919050565b5f613cb482612b64565b613cbe8185613921565b9350613cce818560208601612b7e565b80840191505092915050565b5f613ce58285613caa565b9150613cf18284613caa565b91508190509392505050565b7f4f776e61626c653a206e6577206f776e657220697320746865207a65726f20615f8201527f6464726573730000000000000000000000000000000000000000000000000000602082015250565b5f613d57602683612b6e565b9150613d6282613cfd565b604082019050919050565b5f6020820190508181035f830152613d8481613d4b565b9050919050565b7f4552433732313a207472616e736665722066726f6d20696e636f7272656374205f8201527f6f776e6572000000000000000000000000000000000000000000000000000000602082015250565b5f613de5602583612b6e565b9150613df082613d8b565b604082019050919050565b5f6020820190508181035f830152613e1281613dd9565b9050919050565b7f4552433732313a207472616e7366657220746f20746865207a65726f206164645f8201527f7265737300000000000000000000000000000000000000000000000000000000602082015250565b5f613e73602483612b6e565b9150613e7e82613e19565b604082019050919050565b5f6020820190508181035f830152613ea081613e67565b9050919050565b7f4f776e61626c653a2063616c6c6572206973206e6f7420746865206f776e65725f82015250565b5f613edb602083612b6e565b9150613ee682613ea7565b602082019050919050565b5f6020820190508181035f830152613f0881613ecf565b9050919050565b7f4552433732313a206d696e7420746f20746865207a65726f20616464726573735f82015250565b5f613f43602083612b6e565b9150613f4e82613f0f565b602082019050919050565b5f6020820190508181035f830152613f7081613f37565b9050919050565b7f4552433732313a20746f6b656e20616c7265616479206d696e746564000000005f82015250565b5f613fab601c83612b6e565b9150613fb682613f77565b602082019050919050565b5f6020820190508181035f830152613fd881613f9f565b9050919050565b5f819050815f5260205f209050919050565b5f6020601f8301049050919050565b5f82821b905092915050565b5f6008830261403b7fffffffffffffffffffffffffffffffffffffffffffffffffffffffffffffffff82614000565b6140458683614000565b95508019841693508086168417925050509392505050565b5f61407761407261406d84612c0e565b61362d565b612c0e565b9050919050565b5f819050919050565b6140908361405d565b6140a461409c8261407e565b84845461400c565b825550505050565b5f90565b6140b86140ac565b6140c3818484614087565b505050565b5b818110156140e6576140db5f826140b0565b6001810190506140c9565b5050565b601f82111561412b576140fc81613fdf565b61410584613ff1565b81016020851015614114578190505b61412861412085613ff1565b8301826140c8565b50505b505050565b5f82821c905092915050565b5f61414b5f1984600802614130565b1980831691505092915050565b5f614163838361413c565b9150826002028217905092915050565b61417c82612b64565b67ffffffffffffffff81111561419557614194612ddd565b5b61419f82546133bc565b6141aa8282856140ea565b5f60209050601f8311600181146141db575f84156141c9578287015190505b6141d38582614158565b86555061423a565b601f1984166141e986613fdf565b5f5b82811015614210578489015182556001820191506020850194506020810190506141eb565b8683101561422d5784890151614229601f89168261413c565b8355505b6001600288020188555050505b505050505050565b7f4e487b71000000000000000000000000000000000000000000000000000000005f52601160045260245ffd5b5f61427982612c0e565b91507fffffffffffffffffffffffffffffffffffffffffffffffffffffffffffffffff82036142ab576142aa614242565b5b600182019050919050565b7f4552433732313a20617070726f766520746f2063616c6c6572000000000000005f82015250565b5f6142ea601983612b6e565b91506142f5826142b6565b602082019050919050565b5f6020820190508181035f830152614317816142de565b9050919050565b7f4552433732313a207472616e7366657220746f206e6f6e2045524337323152655f8201527f63656976657220696d706c656d656e7465720000000000000000000000000000602082015250565b5f614378603283612b6e565b91506143838261431e565b604082019050919050565b5f6020820190508181035f8301526143a58161436c565b9050919050565b5f819050919050565b6143c66143c182612c0e565b6143ac565b82525050565b5f8160601b9050919050565b5f6143e2826143cc565b9050919050565b5f6143f3826143d8565b9050919050565b61440b61440682612c8b565b6143e9565b82525050565b5f61441c82866143b5565b60208201915061442c82856143fa565b60148201915061443c82846143b5565b602082019150819050949350505050565b7f4e487b71000000000000000000000000000000000000000000000000000000005f52601260045260245ffd5b7f455243373231456e756d657261626c653a20636f6e73656375746976652074725f8201527f616e7366657273206e6f7420737570706f727465640000000000000000000000602082015250565b5f6144d4603583612b6e565b91506144df8261447a565b604082019050919050565b5f6020820190508181035f830152614501816144c8565b9050919050565b5f60808201905061451b5f830187612c9c565b6145286020830186612c9c565b6145356040830185612d2c565b81810360608301526145478184613ae3565b905095945050505050565b5f61455c82612c0e565b915061456783612c0e565b925082820390508181111561457f5761457e614242565b5b92915050565b7f4e487b71000000000000000000000000000000000000000000000000000000005f52603160045260245ffdfea26469706673582212208dc1b043711f73e7a4eeefd56f7b874dc6ebf5b21aec2fbaa52ae620f523d06964736f6c63430008140033697066733a2f2f62616679626569657a7062717136666176707337346572776e3335697263616532787171646d637a786a7337696d6f73646b6e3661686d75786d652f","opcodes":"PUSH1 0xC0 PUSH1 0x40 MSTORE CALLVALUE DUP1 ISZERO PUSH3 0x10 JUMPI PUSH0 DUP1 REVERT JUMPDEST POP PUSH1 0x40 MLOAD DUP1 PUSH1 0x40 ADD PUSH1 0x40 MSTORE DUP1 PUSH1 0x4 DUP2 MSTORE PUSH1 0x20 ADD PUSH32 0x5452495300000000000000000000000000000000000000000000000000000000 DUP2 MSTORE POP PUSH1 0x40 MLOAD DUP1 PUSH1 0x40 ADD PUSH1 0x40 MSTORE DUP1 PUSH1 0x4 DUP2 MSTORE PUSH1 0x20 ADD PUSH32 0x5452495300000000000000000000000000000000000000000000000000000000 DUP2 MSTORE POP PUSH1 0x40 MLOAD DUP1 PUSH1 0x40 ADD PUSH1 0x40 MSTORE DUP1 PUSH1 0x1 DUP2 MSTORE PUSH1 0x20 ADD PUSH32 0x3100000000000000000000000000000000000000000000000000000000000000 DUP2 MSTORE POP DUP3 DUP3 DUP2 PUSH0 SWAP1 DUP2 PUSH3 0xC5 SWAP2 SWAP1 PUSH3 0x48E JUMP JUMPDEST POP DUP1 PUSH1 0x1 SWAP1 DUP2 PUSH3 0xD7 SWAP2 SWAP1 PUSH3 0x48E JUMP JUMPDEST POP POP POP DUP3 DUP1 MLOAD SWAP1 PUSH1 0x20 ADD KECCAK256 PUSH1 0x80 DUP2 DUP2 MSTORE POP POP DUP1 DUP1 MLOAD SWAP1 PUSH1 0x20 ADD KECCAK256 PUSH1 0xA0 DUP2 DUP2 MSTORE POP POP POP POP POP PUSH3 0x11B PUSH3 0x10F PUSH3 0x14B PUSH1 0x20 SHL PUSH1 0x20 SHR JUMP JUMPDEST PUSH3 0x152 PUSH1 0x20 SHL PUSH1 0x20 SHR JUMP JUMPDEST PUSH3 0x145 PUSH1 0x40 MLOAD DUP1 PUSH1 0x80 ADD PUSH1 0x40 MSTORE DUP1 PUSH1 0x43 DUP2 MSTORE PUSH1 0x20 ADD PUSH3 0x4B7C PUSH1 0x43 SWAP2 CODECOPY PUSH3 0x215 PUSH1 0x20 SHL PUSH1 0x20 SHR JUMP JUMPDEST PUSH3 0x572 JUMP JUMPDEST PUSH0 CALLER SWAP1 POP SWAP1 JUMP JUMPDEST PUSH0 PUSH1 0xA PUSH0 SWAP1 SLOAD SWAP1 PUSH2 0x100 EXP SWAP1 DIV PUSH20 0xFFFFFFFFFFFFFFFFFFFFFFFFFFFFFFFFFFFFFFFF AND SWAP1 POP DUP2 PUSH1 0xA PUSH0 PUSH2 0x100 EXP DUP2 SLOAD DUP2 PUSH20 0xFFFFFFFFFFFFFFFFFFFFFFFFFFFFFFFFFFFFFFFF MUL NOT AND SWAP1 DUP4 PUSH20 0xFFFFFFFFFFFFFFFFFFFFFFFFFFFFFFFFFFFFFFFF AND MUL OR SWAP1 SSTORE POP DUP2 PUSH20 0xFFFFFFFFFFFFFFFFFFFFFFFFFFFFFFFFFFFFFFFF AND DUP2 PUSH20 0xFFFFFFFFFFFFFFFFFFFFFFFFFFFFFFFFFFFFFFFF AND PUSH32 0x8BE0079C531659141344CD1FD0A4F28419497F9722A3DAAFE3B4186F6B6457E0 PUSH1 0x40 MLOAD PUSH1 0x40 MLOAD DUP1 SWAP2 SUB SWAP1 LOG3 POP POP JUMP JUMPDEST DUP1 PUSH1 0xD SWAP1 DUP2 PUSH3 0x226 SWAP2 SWAP1 PUSH3 0x48E JUMP JUMPDEST POP POP JUMP JUMPDEST PUSH0 DUP2 MLOAD SWAP1 POP SWAP2 SWAP1 POP JUMP JUMPDEST PUSH32 0x4E487B7100000000000000000000000000000000000000000000000000000000 PUSH0 MSTORE PUSH1 0x41 PUSH1 0x4 MSTORE PUSH1 0x24 PUSH0 REVERT JUMPDEST PUSH32 0x4E487B7100000000000000000000000000000000000000000000000000000000 PUSH0 MSTORE PUSH1 0x22 PUSH1 0x4 MSTORE PUSH1 0x24 PUSH0 REVERT JUMPDEST PUSH0 PUSH1 0x2 DUP3 DIV SWAP1 POP PUSH1 0x1 DUP3 AND DUP1 PUSH3 0x2A6 JUMPI PUSH1 0x7F DUP3 AND SWAP2 POP JUMPDEST PUSH1 0x20 DUP3 LT DUP2 SUB PUSH3 0x2BC JUMPI PUSH3 0x2BB PUSH3 0x261 JUMP JUMPDEST JUMPDEST POP SWAP2 SWAP1 POP JUMP JUMPDEST PUSH0 DUP2 SWAP1 POP DUP2 PUSH0 MSTORE PUSH1 0x20 PUSH0 KECCAK256 SWAP1 POP SWAP2 SWAP1 POP JUMP JUMPDEST PUSH0 PUSH1 0x20 PUSH1 0x1F DUP4 ADD DIV SWAP1 POP SWAP2 SWAP1 POP JUMP JUMPDEST PUSH0 DUP3 DUP3 SHL SWAP1 POP SWAP3 SWAP2 POP POP JUMP JUMPDEST PUSH0 PUSH1 0x8 DUP4 MUL PUSH3 0x320 PUSH32 0xFFFFFFFFFFFFFFFFFFFFFFFFFFFFFFFFFFFFFFFFFFFFFFFFFFFFFFFFFFFFFFFF DUP3 PUSH3 0x2E3 JUMP JUMPDEST PUSH3 0x32C DUP7 DUP4 PUSH3 0x2E3 JUMP JUMPDEST SWAP6 POP DUP1 NOT DUP5 AND SWAP4 POP DUP1 DUP7 AND DUP5 OR SWAP3 POP POP POP SWAP4 SWAP3 POP POP POP JUMP JUMPDEST PUSH0 DUP2 SWAP1 POP SWAP2 SWAP1 POP JUMP JUMPDEST PUSH0 DUP2 SWAP1 POP SWAP2 SWAP1 POP JUMP JUMPDEST PUSH0 PUSH3 0x376 PUSH3 0x370 PUSH3 0x36A DUP5 PUSH3 0x344 JUMP JUMPDEST PUSH3 0x34D JUMP JUMPDEST PUSH3 0x344 JUMP JUMPDEST SWAP1 POP SWAP2 SWAP1 POP JUMP JUMPDEST PUSH0 DUP2 SWAP1 POP SWAP2 SWAP1 POP JUMP JUMPDEST PUSH3 0x391 DUP4 PUSH3 0x356 JUMP JUMPDEST PUSH3 0x3A9 PUSH3 0x3A0 DUP3 PUSH3 0x37D JUMP JUMPDEST DUP5 DUP5 SLOAD PUSH3 0x2EF JUMP JUMPDEST DUP3 SSTORE POP POP POP POP JUMP JUMPDEST PUSH0 SWAP1 JUMP JUMPDEST PUSH3 0x3BF PUSH3 0x3B1 JUMP JUMPDEST PUSH3 0x3CC DUP2 DUP5 DUP5 PUSH3 0x386 JUMP JUMPDEST POP POP POP JUMP JUMPDEST JUMPDEST DUP2 DUP2 LT ISZERO PUSH3 0x3F3 JUMPI PUSH3 0x3E7 PUSH0 DUP3 PUSH3 0x3B5 JUMP JUMPDEST PUSH1 0x1 DUP2 ADD SWAP1 POP PUSH3 0x3D2 JUMP JUMPDEST POP POP JUMP JUMPDEST PUSH1 0x1F DUP3 GT ISZERO PUSH3 0x442 JUMPI PUSH3 0x40C DUP2 PUSH3 0x2C2 JUMP JUMPDEST PUSH3 0x417 DUP5 PUSH3 0x2D4 JUMP JUMPDEST DUP2 ADD PUSH1 0x20 DUP6 LT ISZERO PUSH3 0x427 JUMPI DUP2 SWAP1 POP JUMPDEST PUSH3 0x43F PUSH3 0x436 DUP6 PUSH3 0x2D4 JUMP JUMPDEST DUP4 ADD DUP3 PUSH3 0x3D1 JUMP JUMPDEST POP POP JUMPDEST POP POP POP JUMP JUMPDEST PUSH0 DUP3 DUP3 SHR SWAP1 POP SWAP3 SWAP2 POP POP JUMP JUMPDEST PUSH0 PUSH3 0x464 PUSH0 NOT DUP5 PUSH1 0x8 MUL PUSH3 0x447 JUMP JUMPDEST NOT DUP1 DUP4 AND SWAP2 POP POP SWAP3 SWAP2 POP POP JUMP JUMPDEST PUSH0 PUSH3 0x47E DUP4 DUP4 PUSH3 0x453 JUMP JUMPDEST SWAP2 POP DUP3 PUSH1 0x2 MUL DUP3 OR SWAP1 POP SWAP3 SWAP2 POP POP JUMP JUMPDEST PUSH3 0x499 DUP3 PUSH3 0x22A JUMP JUMPDEST PUSH8 0xFFFFFFFFFFFFFFFF DUP2 GT ISZERO PUSH3 0x4B5 JUMPI PUSH3 0x4B4 PUSH3 0x234 JUMP JUMPDEST JUMPDEST PUSH3 0x4C1 DUP3 SLOAD PUSH3 0x28E JUMP JUMPDEST PUSH3 0x4CE DUP3 DUP3 DUP6 PUSH3 0x3F7 JUMP JUMPDEST PUSH0 PUSH1 0x20 SWAP1 POP PUSH1 0x1F DUP4 GT PUSH1 0x1 DUP2 EQ PUSH3 0x504 JUMPI PUSH0 DUP5 ISZERO PUSH3 0x4EF JUMPI DUP3 DUP8 ADD MLOAD SWAP1 POP JUMPDEST PUSH3 0x4FB DUP6 DUP3 PUSH3 0x471 JUMP JUMPDEST DUP7 SSTORE POP PUSH3 0x56A JUMP JUMPDEST PUSH1 0x1F NOT DUP5 AND PUSH3 0x514 DUP7 PUSH3 0x2C2 JUMP JUMPDEST PUSH0 JUMPDEST DUP3 DUP2 LT ISZERO PUSH3 0x53D JUMPI DUP5 DUP10 ADD MLOAD DUP3 SSTORE PUSH1 0x1 DUP3 ADD SWAP2 POP PUSH1 0x20 DUP6 ADD SWAP5 POP PUSH1 0x20 DUP2 ADD SWAP1 POP PUSH3 0x516 JUMP JUMPDEST DUP7 DUP4 LT ISZERO PUSH3 0x55D JUMPI DUP5 DUP10 ADD MLOAD PUSH3 0x559 PUSH1 0x1F DUP10 AND DUP3 PUSH3 0x453 JUMP JUMPDEST DUP4 SSTORE POP JUMPDEST PUSH1 0x1 PUSH1 0x2 DUP9 MUL ADD DUP9 SSTORE POP POP POP JUMPDEST POP POP POP POP POP POP JUMP JUMPDEST PUSH1 0x80 MLOAD PUSH1 0xA0 MLOAD PUSH2 0x45E8 PUSH3 0x594 PUSH0 CODECOPY PUSH0 PUSH2 0xB5E ADD MSTORE PUSH0 PUSH2 0xB3D ADD MSTORE PUSH2 0x45E8 PUSH0 RETURN INVALID PUSH1 0x80 PUSH1 0x40 MSTORE PUSH1 0x4 CALLDATASIZE LT PUSH2 0x1E2 JUMPI PUSH0 CALLDATALOAD PUSH1 0xE0 SHR DUP1 PUSH4 0x6352211E GT PUSH2 0x101 JUMPI DUP1 PUSH4 0xAA98E0C6 GT PUSH2 0x94 JUMPI DUP1 PUSH4 0xBF477C16 GT PUSH2 0x63 JUMPI DUP1 PUSH4 0xBF477C16 EQ PUSH2 0x6B6 JUMPI DUP1 PUSH4 0xC87B56DD EQ PUSH2 0x6D2 JUMPI DUP1 PUSH4 0xE985E9C5 EQ PUSH2 0x70E JUMPI DUP1 PUSH4 0xF2FDE38B EQ PUSH2 0x74A JUMPI PUSH2 0x1E2 JUMP JUMPDEST DUP1 PUSH4 0xAA98E0C6 EQ PUSH2 0x626 JUMPI DUP1 PUSH4 0xB70196D7 EQ PUSH2 0x650 JUMPI DUP1 PUSH4 0xB88D4FDE EQ PUSH2 0x666 JUMPI DUP1 PUSH4 0xBD32FB66 EQ PUSH2 0x68E JUMPI PUSH2 0x1E2 JUMP JUMPDEST DUP1 PUSH4 0x7AC2FF7B GT PUSH2 0xD0 JUMPI DUP1 PUSH4 0x7AC2FF7B EQ PUSH2 0x58E JUMPI DUP1 PUSH4 0x8DA5CB5B EQ PUSH2 0x5AA JUMPI DUP1 PUSH4 0x95D89B41 EQ PUSH2 0x5D4 JUMPI DUP1 PUSH4 0xA22CB465 EQ PUSH2 0x5FE JUMPI PUSH2 0x1E2 JUMP JUMPDEST DUP1 PUSH4 0x6352211E EQ PUSH2 0x4D6 JUMPI DUP1 PUSH4 0x6E34A482 EQ PUSH2 0x512 JUMPI DUP1 PUSH4 0x70A08231 EQ PUSH2 0x53C JUMPI DUP1 PUSH4 0x715018A6 EQ PUSH2 0x578 JUMPI PUSH2 0x1E2 JUMP JUMPDEST DUP1 PUSH4 0x30ADF81F GT PUSH2 0x179 JUMPI DUP1 PUSH4 0x4F6CCCE7 GT PUSH2 0x148 JUMPI DUP1 PUSH4 0x4F6CCCE7 EQ PUSH2 0x41E JUMPI DUP1 PUSH4 0x524513D6 EQ PUSH2 0x45A JUMPI DUP1 PUSH4 0x54FD4D50 EQ PUSH2 0x484 JUMPI DUP1 PUSH4 0x55F804B3 EQ PUSH2 0x4AE JUMPI PUSH2 0x1E2 JUMP JUMPDEST DUP1 PUSH4 0x30ADF81F EQ PUSH2 0x37A JUMPI DUP1 PUSH4 0x3644E515 EQ PUSH2 0x3A4 JUMPI DUP1 PUSH4 0x40C10F19 EQ PUSH2 0x3CE JUMPI DUP1 PUSH4 0x42842E0E EQ PUSH2 0x3F6 JUMPI PUSH2 0x1E2 JUMP JUMPDEST DUP1 PUSH4 0x141A468C GT PUSH2 0x1B5 JUMPI DUP1 PUSH4 0x141A468C EQ PUSH2 0x2B0 JUMPI DUP1 PUSH4 0x18160DDD EQ PUSH2 0x2EC JUMPI DUP1 PUSH4 0x23B872DD EQ PUSH2 0x316 JUMPI DUP1 PUSH4 0x2F745C59 EQ PUSH2 0x33E JUMPI PUSH2 0x1E2 JUMP JUMPDEST DUP1 PUSH4 0x1FFC9A7 EQ PUSH2 0x1E6 JUMPI DUP1 PUSH4 0x6FDDE03 EQ PUSH2 0x222 JUMPI DUP1 PUSH4 0x81812FC EQ PUSH2 0x24C JUMPI DUP1 PUSH4 0x95EA7B3 EQ PUSH2 0x288 JUMPI JUMPDEST PUSH0 DUP1 REVERT JUMPDEST CALLVALUE DUP1 ISZERO PUSH2 0x1F1 JUMPI PUSH0 DUP1 REVERT JUMPDEST POP PUSH2 0x20C PUSH1 0x4 DUP1 CALLDATASIZE SUB DUP2 ADD SWAP1 PUSH2 0x207 SWAP2 SWAP1 PUSH2 0x2B06 JUMP JUMPDEST PUSH2 0x772 JUMP JUMPDEST PUSH1 0x40 MLOAD PUSH2 0x219 SWAP2 SWAP1 PUSH2 0x2B4B JUMP JUMPDEST PUSH1 0x40 MLOAD DUP1 SWAP2 SUB SWAP1 RETURN JUMPDEST CALLVALUE DUP1 ISZERO PUSH2 0x22D JUMPI PUSH0 DUP1 REVERT JUMPDEST POP PUSH2 0x236 PUSH2 0x7EB JUMP JUMPDEST PUSH1 0x40 MLOAD PUSH2 0x243 SWAP2 SWAP1 PUSH2 0x2BEE JUMP JUMPDEST PUSH1 0x40 MLOAD DUP1 SWAP2 SUB SWAP1 RETURN JUMPDEST CALLVALUE DUP1 ISZERO PUSH2 0x257 JUMPI PUSH0 DUP1 REVERT JUMPDEST POP PUSH2 0x272 PUSH1 0x4 DUP1 CALLDATASIZE SUB DUP2 ADD SWAP1 PUSH2 0x26D SWAP2 SWAP1 PUSH2 0x2C41 JUMP JUMPDEST PUSH2 0x87A JUMP JUMPDEST PUSH1 0x40 MLOAD PUSH2 0x27F SWAP2 SWAP1 PUSH2 0x2CAB JUMP JUMPDEST PUSH1 0x40 MLOAD DUP1 SWAP2 SUB SWAP1 RETURN JUMPDEST CALLVALUE DUP1 ISZERO PUSH2 0x293 JUMPI PUSH0 DUP1 REVERT JUMPDEST POP PUSH2 0x2AE PUSH1 0x4 DUP1 CALLDATASIZE SUB DUP2 ADD SWAP1 PUSH2 0x2A9 SWAP2 SWAP1 PUSH2 0x2CEE JUMP JUMPDEST PUSH2 0x8BC JUMP JUMPDEST STOP JUMPDEST CALLVALUE DUP1 ISZERO PUSH2 0x2BB JUMPI PUSH0 DUP1 REVERT JUMPDEST POP PUSH2 0x2D6 PUSH1 0x4 DUP1 CALLDATASIZE SUB DUP2 ADD SWAP1 PUSH2 0x2D1 SWAP2 SWAP1 PUSH2 0x2C41 JUMP JUMPDEST PUSH2 0x9D2 JUMP JUMPDEST PUSH1 0x40 MLOAD PUSH2 0x2E3 SWAP2 SWAP1 PUSH2 0x2D3B JUMP JUMPDEST PUSH1 0x40 MLOAD DUP1 SWAP2 SUB SWAP1 RETURN JUMPDEST CALLVALUE DUP1 ISZERO PUSH2 0x2F7 JUMPI PUSH0 DUP1 REVERT JUMPDEST POP PUSH2 0x300 PUSH2 0x9E7 JUMP JUMPDEST PUSH1 0x40 MLOAD PUSH2 0x30D SWAP2 SWAP1 PUSH2 0x2D3B JUMP JUMPDEST PUSH1 0x40 MLOAD DUP1 SWAP2 SUB SWAP1 RETURN JUMPDEST CALLVALUE DUP1 ISZERO PUSH2 0x321 JUMPI PUSH0 DUP1 REVERT JUMPDEST POP PUSH2 0x33C PUSH1 0x4 DUP1 CALLDATASIZE SUB DUP2 ADD SWAP1 PUSH2 0x337 SWAP2 SWAP1 PUSH2 0x2D54 JUMP JUMPDEST PUSH2 0x9F3 JUMP JUMPDEST STOP JUMPDEST CALLVALUE DUP1 ISZERO PUSH2 0x349 JUMPI PUSH0 DUP1 REVERT JUMPDEST POP PUSH2 0x364 PUSH1 0x4 DUP1 CALLDATASIZE SUB DUP2 ADD SWAP1 PUSH2 0x35F SWAP2 SWAP1 PUSH2 0x2CEE JUMP JUMPDEST PUSH2 0xA53 JUMP JUMPDEST PUSH1 0x40 MLOAD PUSH2 0x371 SWAP2 SWAP1 PUSH2 0x2D3B JUMP JUMPDEST PUSH1 0x40 MLOAD DUP1 SWAP2 SUB SWAP1 RETURN JUMPDEST CALLVALUE DUP1 ISZERO PUSH2 0x385 JUMPI PUSH0 DUP1 REVERT JUMPDEST POP PUSH2 0x38E PUSH2 0xAF3 JUMP JUMPDEST PUSH1 0x40 MLOAD PUSH2 0x39B SWAP2 SWAP1 PUSH2 0x2DBC JUMP JUMPDEST PUSH1 0x40 MLOAD DUP1 SWAP2 SUB SWAP1 RETURN JUMPDEST CALLVALUE DUP1 ISZERO PUSH2 0x3AF JUMPI PUSH0 DUP1 REVERT JUMPDEST POP PUSH2 0x3B8 PUSH2 0xB19 JUMP JUMPDEST PUSH1 0x40 MLOAD PUSH2 0x3C5 SWAP2 SWAP1 PUSH2 0x2DBC JUMP JUMPDEST PUSH1 0x40 MLOAD DUP1 SWAP2 SUB SWAP1 RETURN JUMPDEST CALLVALUE DUP1 ISZERO PUSH2 0x3D9 JUMPI PUSH0 DUP1 REVERT JUMPDEST POP PUSH2 0x3F4 PUSH1 0x4 DUP1 CALLDATASIZE SUB DUP2 ADD SWAP1 PUSH2 0x3EF SWAP2 SWAP1 PUSH2 0x2CEE JUMP JUMPDEST PUSH2 0xBB5 JUMP JUMPDEST STOP JUMPDEST CALLVALUE DUP1 ISZERO PUSH2 0x401 JUMPI PUSH0 DUP1 REVERT JUMPDEST POP PUSH2 0x41C PUSH1 0x4 DUP1 CALLDATASIZE SUB DUP2 ADD SWAP1 PUSH2 0x417 SWAP2 SWAP1 PUSH2 0x2D54 JUMP JUMPDEST PUSH2 0xBCB JUMP JUMPDEST STOP JUMPDEST CALLVALUE DUP1 ISZERO PUSH2 0x429 JUMPI PUSH0 DUP1 REVERT JUMPDEST POP PUSH2 0x444 PUSH1 0x4 DUP1 CALLDATASIZE SUB DUP2 ADD SWAP1 PUSH2 0x43F SWAP2 SWAP1 PUSH2 0x2C41 JUMP JUMPDEST PUSH2 0xBEA JUMP JUMPDEST PUSH1 0x40 MLOAD PUSH2 0x451 SWAP2 SWAP1 PUSH2 0x2D3B JUMP JUMPDEST PUSH1 0x40 MLOAD DUP1 SWAP2 SUB SWAP1 RETURN JUMPDEST CALLVALUE DUP1 ISZERO PUSH2 0x465 JUMPI PUSH0 DUP1 REVERT JUMPDEST POP PUSH2 0x46E PUSH2 0xC58 JUMP JUMPDEST PUSH1 0x40 MLOAD PUSH2 0x47B SWAP2 SWAP1 PUSH2 0x2B4B JUMP JUMPDEST PUSH1 0x40 MLOAD DUP1 SWAP2 SUB SWAP1 RETURN JUMPDEST CALLVALUE DUP1 ISZERO PUSH2 0x48F JUMPI PUSH0 DUP1 REVERT JUMPDEST POP PUSH2 0x498 PUSH2 0xC6E JUMP JUMPDEST PUSH1 0x40 MLOAD PUSH2 0x4A5 SWAP2 SWAP1 PUSH2 0x2BEE JUMP JUMPDEST PUSH1 0x40 MLOAD DUP1 SWAP2 SUB SWAP1 RETURN JUMPDEST CALLVALUE DUP1 ISZERO PUSH2 0x4B9 JUMPI PUSH0 DUP1 REVERT JUMPDEST POP PUSH2 0x4D4 PUSH1 0x4 DUP1 CALLDATASIZE SUB DUP2 ADD SWAP1 PUSH2 0x4CF SWAP2 SWAP1 PUSH2 0x2F01 JUMP JUMPDEST PUSH2 0xCAB JUMP JUMPDEST STOP JUMPDEST CALLVALUE DUP1 ISZERO PUSH2 0x4E1 JUMPI PUSH0 DUP1 REVERT JUMPDEST POP PUSH2 0x4FC PUSH1 0x4 DUP1 CALLDATASIZE SUB DUP2 ADD SWAP1 PUSH2 0x4F7 SWAP2 SWAP1 PUSH2 0x2C41 JUMP JUMPDEST PUSH2 0xCBF JUMP JUMPDEST PUSH1 0x40 MLOAD PUSH2 0x509 SWAP2 SWAP1 PUSH2 0x2CAB JUMP JUMPDEST PUSH1 0x40 MLOAD DUP1 SWAP2 SUB SWAP1 RETURN JUMPDEST CALLVALUE DUP1 ISZERO PUSH2 0x51D JUMPI PUSH0 DUP1 REVERT JUMPDEST POP PUSH2 0x526 PUSH2 0xD43 JUMP JUMPDEST PUSH1 0x40 MLOAD PUSH2 0x533 SWAP2 SWAP1 PUSH2 0x2BEE JUMP JUMPDEST PUSH1 0x40 MLOAD DUP1 SWAP2 SUB SWAP1 RETURN JUMPDEST CALLVALUE DUP1 ISZERO PUSH2 0x547 JUMPI PUSH0 DUP1 REVERT JUMPDEST POP PUSH2 0x562 PUSH1 0x4 DUP1 CALLDATASIZE SUB DUP2 ADD SWAP1 PUSH2 0x55D SWAP2 SWAP1 PUSH2 0x2F48 JUMP JUMPDEST PUSH2 0xDCF JUMP JUMPDEST PUSH1 0x40 MLOAD PUSH2 0x56F SWAP2 SWAP1 PUSH2 0x2D3B JUMP JUMPDEST PUSH1 0x40 MLOAD DUP1 SWAP2 SUB SWAP1 RETURN JUMPDEST CALLVALUE DUP1 ISZERO PUSH2 0x583 JUMPI PUSH0 DUP1 REVERT JUMPDEST POP PUSH2 0x58C PUSH2 0xE83 JUMP JUMPDEST STOP JUMPDEST PUSH2 0x5A8 PUSH1 0x4 DUP1 CALLDATASIZE SUB DUP2 ADD SWAP1 PUSH2 0x5A3 SWAP2 SWAP1 PUSH2 0x2FD3 JUMP JUMPDEST PUSH2 0xE96 JUMP JUMPDEST STOP JUMPDEST CALLVALUE DUP1 ISZERO PUSH2 0x5B5 JUMPI PUSH0 DUP1 REVERT JUMPDEST POP PUSH2 0x5BE PUSH2 0x123D JUMP JUMPDEST PUSH1 0x40 MLOAD PUSH2 0x5CB SWAP2 SWAP1 PUSH2 0x2CAB JUMP JUMPDEST PUSH1 0x40 MLOAD DUP1 SWAP2 SUB SWAP1 RETURN JUMPDEST CALLVALUE DUP1 ISZERO PUSH2 0x5DF JUMPI PUSH0 DUP1 REVERT JUMPDEST POP PUSH2 0x5E8 PUSH2 0x1265 JUMP JUMPDEST PUSH1 0x40 MLOAD PUSH2 0x5F5 SWAP2 SWAP1 PUSH2 0x2BEE JUMP JUMPDEST PUSH1 0x40 MLOAD DUP1 SWAP2 SUB SWAP1 RETURN JUMPDEST CALLVALUE DUP1 ISZERO PUSH2 0x609 JUMPI PUSH0 DUP1 REVERT JUMPDEST POP PUSH2 0x624 PUSH1 0x4 DUP1 CALLDATASIZE SUB DUP2 ADD SWAP1 PUSH2 0x61F SWAP2 SWAP1 PUSH2 0x3086 JUMP JUMPDEST PUSH2 0x12F5 JUMP JUMPDEST STOP JUMPDEST CALLVALUE DUP1 ISZERO PUSH2 0x631 JUMPI PUSH0 DUP1 REVERT JUMPDEST POP PUSH2 0x63A PUSH2 0x130B JUMP JUMPDEST PUSH1 0x40 MLOAD PUSH2 0x647 SWAP2 SWAP1 PUSH2 0x2DBC JUMP JUMPDEST PUSH1 0x40 MLOAD DUP1 SWAP2 SUB SWAP1 RETURN JUMPDEST CALLVALUE DUP1 ISZERO PUSH2 0x65B JUMPI PUSH0 DUP1 REVERT JUMPDEST POP PUSH2 0x664 PUSH2 0x1311 JUMP JUMPDEST STOP JUMPDEST CALLVALUE DUP1 ISZERO PUSH2 0x671 JUMPI PUSH0 DUP1 REVERT JUMPDEST POP PUSH2 0x68C PUSH1 0x4 DUP1 CALLDATASIZE SUB DUP2 ADD SWAP1 PUSH2 0x687 SWAP2 SWAP1 PUSH2 0x3162 JUMP JUMPDEST PUSH2 0x1336 JUMP JUMPDEST STOP JUMPDEST CALLVALUE DUP1 ISZERO PUSH2 0x699 JUMPI PUSH0 DUP1 REVERT JUMPDEST POP PUSH2 0x6B4 PUSH1 0x4 DUP1 CALLDATASIZE SUB DUP2 ADD SWAP1 PUSH2 0x6AF SWAP2 SWAP1 PUSH2 0x31E2 JUMP JUMPDEST PUSH2 0x1398 JUMP JUMPDEST STOP JUMPDEST PUSH2 0x6D0 PUSH1 0x4 DUP1 CALLDATASIZE SUB DUP2 ADD SWAP1 PUSH2 0x6CB SWAP2 SWAP1 PUSH2 0x32D1 JUMP JUMPDEST PUSH2 0x13AA JUMP JUMPDEST STOP JUMPDEST CALLVALUE DUP1 ISZERO PUSH2 0x6DD JUMPI PUSH0 DUP1 REVERT JUMPDEST POP PUSH2 0x6F8 PUSH1 0x4 DUP1 CALLDATASIZE SUB DUP2 ADD SWAP1 PUSH2 0x6F3 SWAP2 SWAP1 PUSH2 0x2C41 JUMP JUMPDEST PUSH2 0x13E7 JUMP JUMPDEST PUSH1 0x40 MLOAD PUSH2 0x705 SWAP2 SWAP1 PUSH2 0x2BEE JUMP JUMPDEST PUSH1 0x40 MLOAD DUP1 SWAP2 SUB SWAP1 RETURN JUMPDEST CALLVALUE DUP1 ISZERO PUSH2 0x719 JUMPI PUSH0 DUP1 REVERT JUMPDEST POP PUSH2 0x734 PUSH1 0x4 DUP1 CALLDATASIZE SUB DUP2 ADD SWAP1 PUSH2 0x72F SWAP2 SWAP1 PUSH2 0x3351 JUMP JUMPDEST PUSH2 0x144C JUMP JUMPDEST PUSH1 0x40 MLOAD PUSH2 0x741 SWAP2 SWAP1 PUSH2 0x2B4B JUMP JUMPDEST PUSH1 0x40 MLOAD DUP1 SWAP2 SUB SWAP1 RETURN JUMPDEST CALLVALUE DUP1 ISZERO PUSH2 0x755 JUMPI PUSH0 DUP1 REVERT JUMPDEST POP PUSH2 0x770 PUSH1 0x4 DUP1 CALLDATASIZE SUB DUP2 ADD SWAP1 PUSH2 0x76B SWAP2 SWAP1 PUSH2 0x2F48 JUMP JUMPDEST PUSH2 0x14DA JUMP JUMPDEST STOP JUMPDEST PUSH0 PUSH32 0x780E9D6300000000000000000000000000000000000000000000000000000000 PUSH28 0xFFFFFFFFFFFFFFFFFFFFFFFFFFFFFFFFFFFFFFFFFFFFFFFFFFFFFFFF NOT AND DUP3 PUSH28 0xFFFFFFFFFFFFFFFFFFFFFFFFFFFFFFFFFFFFFFFFFFFFFFFFFFFFFFFF NOT AND EQ DUP1 PUSH2 0x7E4 JUMPI POP PUSH2 0x7E3 DUP3 PUSH2 0x155C JUMP JUMPDEST JUMPDEST SWAP1 POP SWAP2 SWAP1 POP JUMP JUMPDEST PUSH1 0x60 PUSH0 DUP1 SLOAD PUSH2 0x7F9 SWAP1 PUSH2 0x33BC JUMP JUMPDEST DUP1 PUSH1 0x1F ADD PUSH1 0x20 DUP1 SWAP2 DIV MUL PUSH1 0x20 ADD PUSH1 0x40 MLOAD SWAP1 DUP2 ADD PUSH1 0x40 MSTORE DUP1 SWAP3 SWAP2 SWAP1 DUP2 DUP2 MSTORE PUSH1 0x20 ADD DUP3 DUP1 SLOAD PUSH2 0x825 SWAP1 PUSH2 0x33BC JUMP JUMPDEST DUP1 ISZERO PUSH2 0x870 JUMPI DUP1 PUSH1 0x1F LT PUSH2 0x847 JUMPI PUSH2 0x100 DUP1 DUP4 SLOAD DIV MUL DUP4 MSTORE SWAP2 PUSH1 0x20 ADD SWAP2 PUSH2 0x870 JUMP JUMPDEST DUP3 ADD SWAP2 SWAP1 PUSH0 MSTORE PUSH1 0x20 PUSH0 KECCAK256 SWAP1 JUMPDEST DUP2 SLOAD DUP2 MSTORE SWAP1 PUSH1 0x1 ADD SWAP1 PUSH1 0x20 ADD DUP1 DUP4 GT PUSH2 0x853 JUMPI DUP3 SWAP1 SUB PUSH1 0x1F AND DUP3 ADD SWAP2 JUMPDEST POP POP POP POP POP SWAP1 POP SWAP1 JUMP JUMPDEST PUSH0 PUSH2 0x884 DUP3 PUSH2 0x163D JUMP JUMPDEST PUSH1 0x4 PUSH0 DUP4 DUP2 MSTORE PUSH1 0x20 ADD SWAP1 DUP2 MSTORE PUSH1 0x20 ADD PUSH0 KECCAK256 PUSH0 SWAP1 SLOAD SWAP1 PUSH2 0x100 EXP SWAP1 DIV PUSH20 0xFFFFFFFFFFFFFFFFFFFFFFFFFFFFFFFFFFFFFFFF AND SWAP1 POP SWAP2 SWAP1 POP JUMP JUMPDEST PUSH0 PUSH2 0x8C6 DUP3 PUSH2 0xCBF JUMP JUMPDEST SWAP1 POP DUP1 PUSH20 0xFFFFFFFFFFFFFFFFFFFFFFFFFFFFFFFFFFFFFFFF AND DUP4 PUSH20 0xFFFFFFFFFFFFFFFFFFFFFFFFFFFFFFFFFFFFFFFF AND SUB PUSH2 0x936 JUMPI PUSH1 0x40 MLOAD PUSH32 0x8C379A000000000000000000000000000000000000000000000000000000000 DUP2 MSTORE PUSH1 0x4 ADD PUSH2 0x92D SWAP1 PUSH2 0x345C JUMP JUMPDEST PUSH1 0x40 MLOAD DUP1 SWAP2 SUB SWAP1 REVERT JUMPDEST DUP1 PUSH20 0xFFFFFFFFFFFFFFFFFFFFFFFFFFFFFFFFFFFFFFFF AND PUSH2 0x955 PUSH2 0x1688 JUMP JUMPDEST PUSH20 0xFFFFFFFFFFFFFFFFFFFFFFFFFFFFFFFFFFFFFFFF AND EQ DUP1 PUSH2 0x984 JUMPI POP PUSH2 0x983 DUP2 PUSH2 0x97E PUSH2 0x1688 JUMP JUMPDEST PUSH2 0x144C JUMP JUMPDEST JUMPDEST PUSH2 0x9C3 JUMPI PUSH1 0x40 MLOAD PUSH32 0x8C379A000000000000000000000000000000000000000000000000000000000 DUP2 MSTORE PUSH1 0x4 ADD PUSH2 0x9BA SWAP1 PUSH2 0x34EA JUMP JUMPDEST PUSH1 0x40 MLOAD DUP1 SWAP2 SUB SWAP1 REVERT JUMPDEST PUSH2 0x9CD DUP4 DUP4 PUSH2 0x168F JUMP JUMPDEST POP POP POP JUMP JUMPDEST PUSH1 0xC PUSH1 0x20 MSTORE DUP1 PUSH0 MSTORE PUSH1 0x40 PUSH0 KECCAK256 PUSH0 SWAP2 POP SWAP1 POP SLOAD DUP2 JUMP JUMPDEST PUSH0 PUSH1 0x8 DUP1 SLOAD SWAP1 POP SWAP1 POP SWAP1 JUMP JUMPDEST PUSH2 0xA04 PUSH2 0x9FE PUSH2 0x1688 JUMP JUMPDEST DUP3 PUSH2 0x1745 JUMP JUMPDEST PUSH2 0xA43 JUMPI PUSH1 0x40 MLOAD PUSH32 0x8C379A000000000000000000000000000000000000000000000000000000000 DUP2 MSTORE PUSH1 0x4 ADD PUSH2 0xA3A SWAP1 PUSH2 0x3578 JUMP JUMPDEST PUSH1 0x40 MLOAD DUP1 SWAP2 SUB SWAP1 REVERT JUMPDEST PUSH2 0xA4E DUP4 DUP4 DUP4 PUSH2 0x17D9 JUMP JUMPDEST POP POP POP JUMP JUMPDEST PUSH0 PUSH2 0xA5D DUP4 PUSH2 0xDCF JUMP JUMPDEST DUP3 LT PUSH2 0xA9E JUMPI PUSH1 0x40 MLOAD PUSH32 0x8C379A000000000000000000000000000000000000000000000000000000000 DUP2 MSTORE PUSH1 0x4 ADD PUSH2 0xA95 SWAP1 PUSH2 0x3606 JUMP JUMPDEST PUSH1 0x40 MLOAD DUP1 SWAP2 SUB SWAP1 REVERT JUMPDEST PUSH1 0x6 PUSH0 DUP5 PUSH20 0xFFFFFFFFFFFFFFFFFFFFFFFFFFFFFFFFFFFFFFFF AND PUSH20 0xFFFFFFFFFFFFFFFFFFFFFFFFFFFFFFFFFFFFFFFF AND DUP2 MSTORE PUSH1 0x20 ADD SWAP1 DUP2 MSTORE PUSH1 0x20 ADD PUSH0 KECCAK256 PUSH0 DUP4 DUP2 MSTORE PUSH1 0x20 ADD SWAP1 DUP2 MSTORE PUSH1 0x20 ADD PUSH0 KECCAK256 SLOAD SWAP1 POP SWAP3 SWAP2 POP POP JUMP JUMPDEST PUSH32 0x49ECF333E5B8C95C40FDAFC95C1AD136E8914A8FB55E9DC8BB01EAA83A2DF9AD PUSH0 SHL DUP2 JUMP JUMPDEST PUSH0 PUSH32 0x8B73C3C69BB8FE3D512ECC4CF759CC79239F7B179B0FFACAA9A75D522B39400F PUSH32 0x0 PUSH32 0x0 PUSH2 0xB85 PUSH2 0x1AC5 JUMP JUMPDEST ADDRESS PUSH1 0x40 MLOAD PUSH1 0x20 ADD PUSH2 0xB9A SWAP6 SWAP5 SWAP4 SWAP3 SWAP2 SWAP1 PUSH2 0x3666 JUMP JUMPDEST PUSH1 0x40 MLOAD PUSH1 0x20 DUP2 DUP4 SUB SUB DUP2 MSTORE SWAP1 PUSH1 0x40 MSTORE DUP1 MLOAD SWAP1 PUSH1 0x20 ADD KECCAK256 SWAP1 POP SWAP1 JUMP JUMPDEST PUSH2 0xBBD PUSH2 0x1ACC JUMP JUMPDEST PUSH2 0xBC7 DUP3 DUP3 PUSH2 0x1B4A JUMP JUMPDEST POP POP JUMP JUMPDEST PUSH2 0xBE5 DUP4 DUP4 DUP4 PUSH1 0x40 MLOAD DUP1 PUSH1 0x20 ADD PUSH1 0x40 MSTORE DUP1 PUSH0 DUP2 MSTORE POP PUSH2 0x1336 JUMP JUMPDEST POP POP POP JUMP JUMPDEST PUSH0 PUSH2 0xBF3 PUSH2 0x9E7 JUMP JUMPDEST DUP3 LT PUSH2 0xC34 JUMPI PUSH1 0x40 MLOAD PUSH32 0x8C379A000000000000000000000000000000000000000000000000000000000 DUP2 MSTORE PUSH1 0x4 ADD PUSH2 0xC2B SWAP1 PUSH2 0x3727 JUMP JUMPDEST PUSH1 0x40 MLOAD DUP1 SWAP2 SUB SWAP1 REVERT JUMPDEST PUSH1 0x8 DUP3 DUP2 SLOAD DUP2 LT PUSH2 0xC48 JUMPI PUSH2 0xC47 PUSH2 0x3745 JUMP JUMPDEST JUMPDEST SWAP1 PUSH0 MSTORE PUSH1 0x20 PUSH0 KECCAK256 ADD SLOAD SWAP1 POP SWAP2 SWAP1 POP JUMP JUMPDEST PUSH0 PUSH1 0xA PUSH1 0x14 SWAP1 SLOAD SWAP1 PUSH2 0x100 EXP SWAP1 DIV PUSH1 0xFF AND SWAP1 POP SWAP1 JUMP JUMPDEST PUSH1 0x60 PUSH1 0x40 MLOAD DUP1 PUSH1 0x40 ADD PUSH1 0x40 MSTORE DUP1 PUSH1 0x1 DUP2 MSTORE PUSH1 0x20 ADD PUSH32 0x3100000000000000000000000000000000000000000000000000000000000000 DUP2 MSTORE POP SWAP1 POP SWAP1 JUMP JUMPDEST PUSH2 0xCB3 PUSH2 0x1ACC JUMP JUMPDEST PUSH2 0xCBC DUP2 PUSH2 0x1D5D JUMP JUMPDEST POP JUMP JUMPDEST PUSH0 DUP1 PUSH2 0xCCA DUP4 PUSH2 0x1D70 JUMP JUMPDEST SWAP1 POP PUSH0 PUSH20 0xFFFFFFFFFFFFFFFFFFFFFFFFFFFFFFFFFFFFFFFF AND DUP2 PUSH20 0xFFFFFFFFFFFFFFFFFFFFFFFFFFFFFFFFFFFFFFFF AND SUB PUSH2 0xD3A JUMPI PUSH1 0x40 MLOAD PUSH32 0x8C379A000000000000000000000000000000000000000000000000000000000 DUP2 MSTORE PUSH1 0x4 ADD PUSH2 0xD31 SWAP1 PUSH2 0x37BC JUMP JUMPDEST PUSH1 0x40 MLOAD DUP1 SWAP2 SUB SWAP1 REVERT JUMPDEST DUP1 SWAP2 POP POP SWAP2 SWAP1 POP JUMP JUMPDEST PUSH1 0xD DUP1 SLOAD PUSH2 0xD50 SWAP1 PUSH2 0x33BC JUMP JUMPDEST DUP1 PUSH1 0x1F ADD PUSH1 0x20 DUP1 SWAP2 DIV MUL PUSH1 0x20 ADD PUSH1 0x40 MLOAD SWAP1 DUP2 ADD PUSH1 0x40 MSTORE DUP1 SWAP3 SWAP2 SWAP1 DUP2 DUP2 MSTORE PUSH1 0x20 ADD DUP3 DUP1 SLOAD PUSH2 0xD7C SWAP1 PUSH2 0x33BC JUMP JUMPDEST DUP1 ISZERO PUSH2 0xDC7 JUMPI DUP1 PUSH1 0x1F LT PUSH2 0xD9E JUMPI PUSH2 0x100 DUP1 DUP4 SLOAD DIV MUL DUP4 MSTORE SWAP2 PUSH1 0x20 ADD SWAP2 PUSH2 0xDC7 JUMP JUMPDEST DUP3 ADD SWAP2 SWAP1 PUSH0 MSTORE PUSH1 0x20 PUSH0 KECCAK256 SWAP1 JUMPDEST DUP2 SLOAD DUP2 MSTORE SWAP1 PUSH1 0x1 ADD SWAP1 PUSH1 0x20 ADD DUP1 DUP4 GT PUSH2 0xDAA JUMPI DUP3 SWAP1 SUB PUSH1 0x1F AND DUP3 ADD SWAP2 JUMPDEST POP POP POP POP POP DUP2 JUMP JUMPDEST PUSH0 DUP1 PUSH20 0xFFFFFFFFFFFFFFFFFFFFFFFFFFFFFFFFFFFFFFFF AND DUP3 PUSH20 0xFFFFFFFFFFFFFFFFFFFFFFFFFFFFFFFFFFFFFFFF AND SUB PUSH2 0xE3E JUMPI PUSH1 0x40 MLOAD PUSH32 0x8C379A000000000000000000000000000000000000000000000000000000000 DUP2 MSTORE PUSH1 0x4 ADD PUSH2 0xE35 SWAP1 PUSH2 0x384A JUMP JUMPDEST PUSH1 0x40 MLOAD DUP1 SWAP2 SUB SWAP1 REVERT JUMPDEST PUSH1 0x3 PUSH0 DUP4 PUSH20 0xFFFFFFFFFFFFFFFFFFFFFFFFFFFFFFFFFFFFFFFF AND PUSH20 0xFFFFFFFFFFFFFFFFFFFFFFFFFFFFFFFFFFFFFFFF AND DUP2 MSTORE PUSH1 0x20 ADD SWAP1 DUP2 MSTORE PUSH1 0x20 ADD PUSH0 KECCAK256 SLOAD SWAP1 POP SWAP2 SWAP1 POP JUMP JUMPDEST PUSH2 0xE8B PUSH2 0x1ACC JUMP JUMPDEST PUSH2 0xE94 PUSH0 PUSH2 0x1DA9 JUMP JUMPDEST JUMP JUMPDEST DUP4 PUSH2 0xE9F PUSH2 0x1E6C JUMP JUMPDEST GT ISZERO PUSH2 0xEE0 JUMPI PUSH1 0x40 MLOAD PUSH32 0x8C379A000000000000000000000000000000000000000000000000000000000 DUP2 MSTORE PUSH1 0x4 ADD PUSH2 0xED7 SWAP1 PUSH2 0x38B2 JUMP JUMPDEST PUSH1 0x40 MLOAD DUP1 SWAP2 SUB SWAP1 REVERT JUMPDEST PUSH0 PUSH2 0xEE9 PUSH2 0xB19 JUMP JUMPDEST PUSH32 0x49ECF333E5B8C95C40FDAFC95C1AD136E8914A8FB55E9DC8BB01EAA83A2DF9AD PUSH0 SHL DUP9 DUP9 PUSH2 0xF17 DUP11 PUSH2 0x1E73 JUMP JUMPDEST DUP10 PUSH1 0x40 MLOAD PUSH1 0x20 ADD PUSH2 0xF2C SWAP6 SWAP5 SWAP4 SWAP3 SWAP2 SWAP1 PUSH2 0x38D0 JUMP JUMPDEST PUSH1 0x40 MLOAD PUSH1 0x20 DUP2 DUP4 SUB SUB DUP2 MSTORE SWAP1 PUSH1 0x40 MSTORE DUP1 MLOAD SWAP1 PUSH1 0x20 ADD KECCAK256 PUSH1 0x40 MLOAD PUSH1 0x20 ADD PUSH2 0xF53 SWAP3 SWAP2 SWAP1 PUSH2 0x3995 JUMP JUMPDEST PUSH1 0x40 MLOAD PUSH1 0x20 DUP2 DUP4 SUB SUB DUP2 MSTORE SWAP1 PUSH1 0x40 MSTORE DUP1 MLOAD SWAP1 PUSH1 0x20 ADD KECCAK256 SWAP1 POP PUSH0 PUSH2 0xF75 DUP8 PUSH2 0xCBF JUMP JUMPDEST SWAP1 POP DUP1 PUSH20 0xFFFFFFFFFFFFFFFFFFFFFFFFFFFFFFFFFFFFFFFF AND DUP9 PUSH20 0xFFFFFFFFFFFFFFFFFFFFFFFFFFFFFFFFFFFFFFFF AND SUB PUSH2 0xFE5 JUMPI PUSH1 0x40 MLOAD PUSH32 0x8C379A000000000000000000000000000000000000000000000000000000000 DUP2 MSTORE PUSH1 0x4 ADD PUSH2 0xFDC SWAP1 PUSH2 0x3A3B JUMP JUMPDEST PUSH1 0x40 MLOAD DUP1 SWAP2 SUB SWAP1 REVERT JUMPDEST PUSH2 0xFEE DUP2 PUSH2 0x1EB8 JUMP JUMPDEST ISZERO PUSH2 0x10FC JUMPI PUSH4 0x1626BA7E PUSH1 0xE0 SHL DUP2 PUSH20 0xFFFFFFFFFFFFFFFFFFFFFFFFFFFFFFFFFFFFFFFF AND PUSH4 0x1626BA7E DUP5 DUP8 DUP8 DUP11 PUSH1 0x40 MLOAD PUSH1 0x20 ADD PUSH2 0x102D SWAP4 SWAP3 SWAP2 SWAP1 PUSH2 0x3A8D JUMP JUMPDEST PUSH1 0x40 MLOAD PUSH1 0x20 DUP2 DUP4 SUB SUB DUP2 MSTORE SWAP1 PUSH1 0x40 MSTORE PUSH1 0x40 MLOAD DUP4 PUSH4 0xFFFFFFFF AND PUSH1 0xE0 SHL DUP2 MSTORE PUSH1 0x4 ADD PUSH2 0x1059 SWAP3 SWAP2 SWAP1 PUSH2 0x3B1B JUMP JUMPDEST PUSH1 0x20 PUSH1 0x40 MLOAD DUP1 DUP4 SUB DUP2 DUP7 GAS STATICCALL ISZERO DUP1 ISZERO PUSH2 0x1074 JUMPI RETURNDATASIZE PUSH0 DUP1 RETURNDATACOPY RETURNDATASIZE PUSH0 REVERT JUMPDEST POP POP POP POP PUSH1 0x40 MLOAD RETURNDATASIZE PUSH1 0x1F NOT PUSH1 0x1F DUP3 ADD AND DUP3 ADD DUP1 PUSH1 0x40 MSTORE POP DUP2 ADD SWAP1 PUSH2 0x1098 SWAP2 SWAP1 PUSH2 0x3B5D JUMP JUMPDEST PUSH28 0xFFFFFFFFFFFFFFFFFFFFFFFFFFFFFFFFFFFFFFFFFFFFFFFFFFFFFFFF NOT AND EQ PUSH2 0x10F7 JUMPI PUSH1 0x40 MLOAD PUSH32 0x8C379A000000000000000000000000000000000000000000000000000000000 DUP2 MSTORE PUSH1 0x4 ADD PUSH2 0x10EE SWAP1 PUSH2 0x3BD2 JUMP JUMPDEST PUSH1 0x40 MLOAD DUP1 SWAP2 SUB SWAP1 REVERT JUMPDEST PUSH2 0x1229 JUMP JUMPDEST PUSH0 PUSH1 0x1 DUP4 DUP8 DUP8 DUP8 PUSH1 0x40 MLOAD PUSH0 DUP2 MSTORE PUSH1 0x20 ADD PUSH1 0x40 MSTORE PUSH1 0x40 MLOAD PUSH2 0x111F SWAP5 SWAP4 SWAP3 SWAP2 SWAP1 PUSH2 0x3BFF JUMP JUMPDEST PUSH1 0x20 PUSH1 0x40 MLOAD PUSH1 0x20 DUP2 SUB SWAP1 DUP1 DUP5 SUB SWAP1 DUP6 GAS STATICCALL ISZERO DUP1 ISZERO PUSH2 0x113F JUMPI RETURNDATASIZE PUSH0 DUP1 RETURNDATACOPY RETURNDATASIZE PUSH0 REVERT JUMPDEST POP POP POP PUSH1 0x20 PUSH1 0x40 MLOAD SUB MLOAD SWAP1 POP PUSH0 PUSH20 0xFFFFFFFFFFFFFFFFFFFFFFFFFFFFFFFFFFFFFFFF AND DUP2 PUSH20 0xFFFFFFFFFFFFFFFFFFFFFFFFFFFFFFFFFFFFFFFF AND SUB PUSH2 0x11B9 JUMPI PUSH1 0x40 MLOAD PUSH32 0x8C379A000000000000000000000000000000000000000000000000000000000 DUP2 MSTORE PUSH1 0x4 ADD PUSH2 0x11B0 SWAP1 PUSH2 0x3C8C JUMP JUMPDEST PUSH1 0x40 MLOAD DUP1 SWAP2 SUB SWAP1 REVERT JUMPDEST DUP2 PUSH20 0xFFFFFFFFFFFFFFFFFFFFFFFFFFFFFFFFFFFFFFFF AND DUP2 PUSH20 0xFFFFFFFFFFFFFFFFFFFFFFFFFFFFFFFFFFFFFFFF AND EQ PUSH2 0x1227 JUMPI PUSH1 0x40 MLOAD PUSH32 0x8C379A000000000000000000000000000000000000000000000000000000000 DUP2 MSTORE PUSH1 0x4 ADD PUSH2 0x121E SWAP1 PUSH2 0x3BD2 JUMP JUMPDEST PUSH1 0x40 MLOAD DUP1 SWAP2 SUB SWAP1 REVERT JUMPDEST POP JUMPDEST PUSH2 0x1233 DUP9 DUP9 PUSH2 0x168F JUMP JUMPDEST POP POP POP POP POP POP POP POP JUMP JUMPDEST PUSH0 PUSH1 0xA PUSH0 SWAP1 SLOAD SWAP1 PUSH2 0x100 EXP SWAP1 DIV PUSH20 0xFFFFFFFFFFFFFFFFFFFFFFFFFFFFFFFFFFFFFFFF AND SWAP1 POP SWAP1 JUMP JUMPDEST PUSH1 0x60 PUSH1 0x1 DUP1 SLOAD PUSH2 0x1274 SWAP1 PUSH2 0x33BC JUMP JUMPDEST DUP1 PUSH1 0x1F ADD PUSH1 0x20 DUP1 SWAP2 DIV MUL PUSH1 0x20 ADD PUSH1 0x40 MLOAD SWAP1 DUP2 ADD PUSH1 0x40 MSTORE DUP1 SWAP3 SWAP2 SWAP1 DUP2 DUP2 MSTORE PUSH1 0x20 ADD DUP3 DUP1 SLOAD PUSH2 0x12A0 SWAP1 PUSH2 0x33BC JUMP JUMPDEST DUP1 ISZERO PUSH2 0x12EB JUMPI DUP1 PUSH1 0x1F LT PUSH2 0x12C2 JUMPI PUSH2 0x100 DUP1 DUP4 SLOAD DIV MUL DUP4 MSTORE SWAP2 PUSH1 0x20 ADD SWAP2 PUSH2 0x12EB JUMP JUMPDEST DUP3 ADD SWAP2 SWAP1 PUSH0 MSTORE PUSH1 0x20 PUSH0 KECCAK256 SWAP1 JUMPDEST DUP2 SLOAD DUP2 MSTORE SWAP1 PUSH1 0x1 ADD SWAP1 PUSH1 0x20 ADD DUP1 DUP4 GT PUSH2 0x12CE JUMPI DUP3 SWAP1 SUB PUSH1 0x1F AND DUP3 ADD SWAP2 JUMPDEST POP POP POP POP POP SWAP1 POP SWAP1 JUMP JUMPDEST PUSH2 0x1307 PUSH2 0x1300 PUSH2 0x1688 JUMP JUMPDEST DUP4 DUP4 PUSH2 0x1EDA JUMP JUMPDEST POP POP JUMP JUMPDEST PUSH1 0xB SLOAD DUP2 JUMP JUMPDEST PUSH2 0x1319 PUSH2 0x1ACC JUMP JUMPDEST PUSH1 0x1 PUSH1 0xA PUSH1 0x14 PUSH2 0x100 EXP DUP2 SLOAD DUP2 PUSH1 0xFF MUL NOT AND SWAP1 DUP4 ISZERO ISZERO MUL OR SWAP1 SSTORE POP JUMP JUMPDEST PUSH2 0x1347 PUSH2 0x1341 PUSH2 0x1688 JUMP JUMPDEST DUP4 PUSH2 0x1745 JUMP JUMPDEST PUSH2 0x1386 JUMPI PUSH1 0x40 MLOAD PUSH32 0x8C379A000000000000000000000000000000000000000000000000000000000 DUP2 MSTORE PUSH1 0x4 ADD PUSH2 0x137D SWAP1 PUSH2 0x3578 JUMP JUMPDEST PUSH1 0x40 MLOAD DUP1 SWAP2 SUB SWAP1 REVERT JUMPDEST PUSH2 0x1392 DUP5 DUP5 DUP5 DUP5 PUSH2 0x2041 JUMP JUMPDEST POP POP POP POP JUMP JUMPDEST PUSH2 0x13A0 PUSH2 0x1ACC JUMP JUMPDEST DUP1 PUSH1 0xB DUP2 SWAP1 SSTORE POP POP JUMP JUMPDEST PUSH1 0xA PUSH1 0x14 SWAP1 SLOAD SWAP1 PUSH2 0x100 EXP SWAP1 DIV PUSH1 0xFF AND ISZERO PUSH2 0x13C3 JUMPI PUSH0 DUP1 REVERT JUMPDEST PUSH2 0x13CF DUP2 DUP6 DUP6 DUP6 PUSH2 0x209D JUMP JUMPDEST PUSH2 0x13D7 JUMPI PUSH0 DUP1 REVERT JUMPDEST PUSH2 0x13E1 DUP4 DUP4 PUSH2 0x1B4A JUMP JUMPDEST POP POP POP POP JUMP JUMPDEST PUSH1 0x60 PUSH2 0x13F2 DUP3 PUSH2 0x163D JUMP JUMPDEST PUSH0 PUSH2 0x13FB PUSH2 0x20E9 JUMP JUMPDEST SWAP1 POP PUSH0 DUP2 MLOAD GT PUSH2 0x1419 JUMPI PUSH1 0x40 MLOAD DUP1 PUSH1 0x20 ADD PUSH1 0x40 MSTORE DUP1 PUSH0 DUP2 MSTORE POP PUSH2 0x1444 JUMP JUMPDEST DUP1 PUSH2 0x1423 DUP5 PUSH2 0x2179 JUMP JUMPDEST PUSH1 0x40 MLOAD PUSH1 0x20 ADD PUSH2 0x1434 SWAP3 SWAP2 SWAP1 PUSH2 0x3CDA JUMP JUMPDEST PUSH1 0x40 MLOAD PUSH1 0x20 DUP2 DUP4 SUB SUB DUP2 MSTORE SWAP1 PUSH1 0x40 MSTORE JUMPDEST SWAP2 POP POP SWAP2 SWAP1 POP JUMP JUMPDEST PUSH0 PUSH1 0x5 PUSH0 DUP5 PUSH20 0xFFFFFFFFFFFFFFFFFFFFFFFFFFFFFFFFFFFFFFFF AND PUSH20 0xFFFFFFFFFFFFFFFFFFFFFFFFFFFFFFFFFFFFFFFF AND DUP2 MSTORE PUSH1 0x20 ADD SWAP1 DUP2 MSTORE PUSH1 0x20 ADD PUSH0 KECCAK256 PUSH0 DUP4 PUSH20 0xFFFFFFFFFFFFFFFFFFFFFFFFFFFFFFFFFFFFFFFF AND PUSH20 0xFFFFFFFFFFFFFFFFFFFFFFFFFFFFFFFFFFFFFFFF AND DUP2 MSTORE PUSH1 0x20 ADD SWAP1 DUP2 MSTORE PUSH1 0x20 ADD PUSH0 KECCAK256 PUSH0 SWAP1 SLOAD SWAP1 PUSH2 0x100 EXP SWAP1 DIV PUSH1 0xFF AND SWAP1 POP SWAP3 SWAP2 POP POP JUMP JUMPDEST PUSH2 0x14E2 PUSH2 0x1ACC JUMP JUMPDEST PUSH0 PUSH20 0xFFFFFFFFFFFFFFFFFFFFFFFFFFFFFFFFFFFFFFFF AND DUP2 PUSH20 0xFFFFFFFFFFFFFFFFFFFFFFFFFFFFFFFFFFFFFFFF AND SUB PUSH2 0x1550 JUMPI PUSH1 0x40 MLOAD PUSH32 0x8C379A000000000000000000000000000000000000000000000000000000000 DUP2 MSTORE PUSH1 0x4 ADD PUSH2 0x1547 SWAP1 PUSH2 0x3D6D JUMP JUMPDEST PUSH1 0x40 MLOAD DUP1 SWAP2 SUB SWAP1 REVERT JUMPDEST PUSH2 0x1559 DUP2 PUSH2 0x1DA9 JUMP JUMPDEST POP JUMP JUMPDEST PUSH0 PUSH32 0x80AC58CD00000000000000000000000000000000000000000000000000000000 PUSH28 0xFFFFFFFFFFFFFFFFFFFFFFFFFFFFFFFFFFFFFFFFFFFFFFFFFFFFFFFF NOT AND DUP3 PUSH28 0xFFFFFFFFFFFFFFFFFFFFFFFFFFFFFFFFFFFFFFFFFFFFFFFFFFFFFFFF NOT AND EQ DUP1 PUSH2 0x1626 JUMPI POP PUSH32 0x5B5E139F00000000000000000000000000000000000000000000000000000000 PUSH28 0xFFFFFFFFFFFFFFFFFFFFFFFFFFFFFFFFFFFFFFFFFFFFFFFFFFFFFFFF NOT AND DUP3 PUSH28 0xFFFFFFFFFFFFFFFFFFFFFFFFFFFFFFFFFFFFFFFFFFFFFFFFFFFFFFFF NOT AND EQ JUMPDEST DUP1 PUSH2 0x1636 JUMPI POP PUSH2 0x1635 DUP3 PUSH2 0x2243 JUMP JUMPDEST JUMPDEST SWAP1 POP SWAP2 SWAP1 POP JUMP JUMPDEST PUSH2 0x1646 DUP2 PUSH2 0x22AC JUMP JUMPDEST PUSH2 0x1685 JUMPI PUSH1 0x40 MLOAD PUSH32 0x8C379A000000000000000000000000000000000000000000000000000000000 DUP2 MSTORE PUSH1 0x4 ADD PUSH2 0x167C SWAP1 PUSH2 0x37BC JUMP JUMPDEST PUSH1 0x40 MLOAD DUP1 SWAP2 SUB SWAP1 REVERT JUMPDEST POP JUMP JUMPDEST PUSH0 CALLER SWAP1 POP SWAP1 JUMP JUMPDEST DUP2 PUSH1 0x4 PUSH0 DUP4 DUP2 MSTORE PUSH1 0x20 ADD SWAP1 DUP2 MSTORE PUSH1 0x20 ADD PUSH0 KECCAK256 PUSH0 PUSH2 0x100 EXP DUP2 SLOAD DUP2 PUSH20 0xFFFFFFFFFFFFFFFFFFFFFFFFFFFFFFFFFFFFFFFF MUL NOT AND SWAP1 DUP4 PUSH20 0xFFFFFFFFFFFFFFFFFFFFFFFFFFFFFFFFFFFFFFFF AND MUL OR SWAP1 SSTORE POP DUP1 DUP3 PUSH20 0xFFFFFFFFFFFFFFFFFFFFFFFFFFFFFFFFFFFFFFFF AND PUSH2 0x16FF DUP4 PUSH2 0xCBF JUMP JUMPDEST PUSH20 0xFFFFFFFFFFFFFFFFFFFFFFFFFFFFFFFFFFFFFFFF AND PUSH32 0x8C5BE1E5EBEC7D5BD14F71427D1E84F3DD0314C0F7B2291E5B200AC8C7C3B925 PUSH1 0x40 MLOAD PUSH1 0x40 MLOAD DUP1 SWAP2 SUB SWAP1 LOG4 POP POP JUMP JUMPDEST PUSH0 DUP1 PUSH2 0x1750 DUP4 PUSH2 0xCBF JUMP JUMPDEST SWAP1 POP DUP1 PUSH20 0xFFFFFFFFFFFFFFFFFFFFFFFFFFFFFFFFFFFFFFFF AND DUP5 PUSH20 0xFFFFFFFFFFFFFFFFFFFFFFFFFFFFFFFFFFFFFFFF AND EQ DUP1 PUSH2 0x1792 JUMPI POP PUSH2 0x1791 DUP2 DUP6 PUSH2 0x144C JUMP JUMPDEST JUMPDEST DUP1 PUSH2 0x17D0 JUMPI POP DUP4 PUSH20 0xFFFFFFFFFFFFFFFFFFFFFFFFFFFFFFFFFFFFFFFF AND PUSH2 0x17B8 DUP5 PUSH2 0x87A JUMP JUMPDEST PUSH20 0xFFFFFFFFFFFFFFFFFFFFFFFFFFFFFFFFFFFFFFFF AND EQ JUMPDEST SWAP2 POP POP SWAP3 SWAP2 POP POP JUMP JUMPDEST DUP3 PUSH20 0xFFFFFFFFFFFFFFFFFFFFFFFFFFFFFFFFFFFFFFFF AND PUSH2 0x17F9 DUP3 PUSH2 0xCBF JUMP JUMPDEST PUSH20 0xFFFFFFFFFFFFFFFFFFFFFFFFFFFFFFFFFFFFFFFF AND EQ PUSH2 0x184F JUMPI PUSH1 0x40 MLOAD PUSH32 0x8C379A000000000000000000000000000000000000000000000000000000000 DUP2 MSTORE PUSH1 0x4 ADD PUSH2 0x1846 SWAP1 PUSH2 0x3DFB JUMP JUMPDEST PUSH1 0x40 MLOAD DUP1 SWAP2 SUB SWAP1 REVERT JUMPDEST PUSH0 PUSH20 0xFFFFFFFFFFFFFFFFFFFFFFFFFFFFFFFFFFFFFFFF AND DUP3 PUSH20 0xFFFFFFFFFFFFFFFFFFFFFFFFFFFFFFFFFFFFFFFF AND SUB PUSH2 0x18BD JUMPI PUSH1 0x40 MLOAD PUSH32 0x8C379A000000000000000000000000000000000000000000000000000000000 DUP2 MSTORE PUSH1 0x4 ADD PUSH2 0x18B4 SWAP1 PUSH2 0x3E89 JUMP JUMPDEST PUSH1 0x40 MLOAD DUP1 SWAP2 SUB SWAP1 REVERT JUMPDEST PUSH2 0x18CA DUP4 DUP4 DUP4 PUSH1 0x1 PUSH2 0x22EC JUMP JUMPDEST DUP3 PUSH20 0xFFFFFFFFFFFFFFFFFFFFFFFFFFFFFFFFFFFFFFFF AND PUSH2 0x18EA DUP3 PUSH2 0xCBF JUMP JUMPDEST PUSH20 0xFFFFFFFFFFFFFFFFFFFFFFFFFFFFFFFFFFFFFFFF AND EQ PUSH2 0x1940 JUMPI PUSH1 0x40 MLOAD PUSH32 0x8C379A000000000000000000000000000000000000000000000000000000000 DUP2 MSTORE PUSH1 0x4 ADD PUSH2 0x1937 SWAP1 PUSH2 0x3DFB JUMP JUMPDEST PUSH1 0x40 MLOAD DUP1 SWAP2 SUB SWAP1 REVERT JUMPDEST PUSH1 0x4 PUSH0 DUP3 DUP2 MSTORE PUSH1 0x20 ADD SWAP1 DUP2 MSTORE PUSH1 0x20 ADD PUSH0 KECCAK256 PUSH0 PUSH2 0x100 EXP DUP2 SLOAD SWAP1 PUSH20 0xFFFFFFFFFFFFFFFFFFFFFFFFFFFFFFFFFFFFFFFF MUL NOT AND SWAP1 SSTORE PUSH1 0x1 PUSH1 0x3 PUSH0 DUP6 PUSH20 0xFFFFFFFFFFFFFFFFFFFFFFFFFFFFFFFFFFFFFFFF AND PUSH20 0xFFFFFFFFFFFFFFFFFFFFFFFFFFFFFFFFFFFFFFFF AND DUP2 MSTORE PUSH1 0x20 ADD SWAP1 DUP2 MSTORE PUSH1 0x20 ADD PUSH0 KECCAK256 PUSH0 DUP3 DUP3 SLOAD SUB SWAP3 POP POP DUP2 SWAP1 SSTORE POP PUSH1 0x1 PUSH1 0x3 PUSH0 DUP5 PUSH20 0xFFFFFFFFFFFFFFFFFFFFFFFFFFFFFFFFFFFFFFFF AND PUSH20 0xFFFFFFFFFFFFFFFFFFFFFFFFFFFFFFFFFFFFFFFF AND DUP2 MSTORE PUSH1 0x20 ADD SWAP1 DUP2 MSTORE PUSH1 0x20 ADD PUSH0 KECCAK256 PUSH0 DUP3 DUP3 SLOAD ADD SWAP3 POP POP DUP2 SWAP1 SSTORE POP DUP2 PUSH1 0x2 PUSH0 DUP4 DUP2 MSTORE PUSH1 0x20 ADD SWAP1 DUP2 MSTORE PUSH1 0x20 ADD PUSH0 KECCAK256 PUSH0 PUSH2 0x100 EXP DUP2 SLOAD DUP2 PUSH20 0xFFFFFFFFFFFFFFFFFFFFFFFFFFFFFFFFFFFFFFFF MUL NOT AND SWAP1 DUP4 PUSH20 0xFFFFFFFFFFFFFFFFFFFFFFFFFFFFFFFFFFFFFFFF AND MUL OR SWAP1 SSTORE POP DUP1 DUP3 PUSH20 0xFFFFFFFFFFFFFFFFFFFFFFFFFFFFFFFFFFFFFFFF AND DUP5 PUSH20 0xFFFFFFFFFFFFFFFFFFFFFFFFFFFFFFFFFFFFFFFF AND PUSH32 0xDDF252AD1BE2C89B69C2B068FC378DAA952BA7F163C4A11628F55A4DF523B3EF PUSH1 0x40 MLOAD PUSH1 0x40 MLOAD DUP1 SWAP2 SUB SWAP1 LOG4 PUSH2 0x1AC0 DUP4 DUP4 DUP4 PUSH1 0x1 PUSH2 0x2447 JUMP JUMPDEST POP POP POP JUMP JUMPDEST PUSH0 CHAINID SWAP1 POP SWAP1 JUMP JUMPDEST PUSH2 0x1AD4 PUSH2 0x1688 JUMP JUMPDEST PUSH20 0xFFFFFFFFFFFFFFFFFFFFFFFFFFFFFFFFFFFFFFFF AND PUSH2 0x1AF2 PUSH2 0x123D JUMP JUMPDEST PUSH20 0xFFFFFFFFFFFFFFFFFFFFFFFFFFFFFFFFFFFFFFFF AND EQ PUSH2 0x1B48 JUMPI PUSH1 0x40 MLOAD PUSH32 0x8C379A000000000000000000000000000000000000000000000000000000000 DUP2 MSTORE PUSH1 0x4 ADD PUSH2 0x1B3F SWAP1 PUSH2 0x3EF1 JUMP JUMPDEST PUSH1 0x40 MLOAD DUP1 SWAP2 SUB SWAP1 REVERT JUMPDEST JUMP JUMPDEST PUSH0 PUSH20 0xFFFFFFFFFFFFFFFFFFFFFFFFFFFFFFFFFFFFFFFF AND DUP3 PUSH20 0xFFFFFFFFFFFFFFFFFFFFFFFFFFFFFFFFFFFFFFFF AND SUB PUSH2 0x1BB8 JUMPI PUSH1 0x40 MLOAD PUSH32 0x8C379A000000000000000000000000000000000000000000000000000000000 DUP2 MSTORE PUSH1 0x4 ADD PUSH2 0x1BAF SWAP1 PUSH2 0x3F59 JUMP JUMPDEST PUSH1 0x40 MLOAD DUP1 SWAP2 SUB SWAP1 REVERT JUMPDEST PUSH2 0x1BC1 DUP2 PUSH2 0x22AC JUMP JUMPDEST ISZERO PUSH2 0x1C01 JUMPI PUSH1 0x40 MLOAD PUSH32 0x8C379A000000000000000000000000000000000000000000000000000000000 DUP2 MSTORE PUSH1 0x4 ADD PUSH2 0x1BF8 SWAP1 PUSH2 0x3FC1 JUMP JUMPDEST PUSH1 0x40 MLOAD DUP1 SWAP2 SUB SWAP1 REVERT JUMPDEST PUSH2 0x1C0E PUSH0 DUP4 DUP4 PUSH1 0x1 PUSH2 0x22EC JUMP JUMPDEST PUSH2 0x1C17 DUP2 PUSH2 0x22AC JUMP JUMPDEST ISZERO PUSH2 0x1C57 JUMPI PUSH1 0x40 MLOAD PUSH32 0x8C379A000000000000000000000000000000000000000000000000000000000 DUP2 MSTORE PUSH1 0x4 ADD PUSH2 0x1C4E SWAP1 PUSH2 0x3FC1 JUMP JUMPDEST PUSH1 0x40 MLOAD DUP1 SWAP2 SUB SWAP1 REVERT JUMPDEST PUSH1 0x1 PUSH1 0x3 PUSH0 DUP5 PUSH20 0xFFFFFFFFFFFFFFFFFFFFFFFFFFFFFFFFFFFFFFFF AND PUSH20 0xFFFFFFFFFFFFFFFFFFFFFFFFFFFFFFFFFFFFFFFF AND DUP2 MSTORE PUSH1 0x20 ADD SWAP1 DUP2 MSTORE PUSH1 0x20 ADD PUSH0 KECCAK256 PUSH0 DUP3 DUP3 SLOAD ADD SWAP3 POP POP DUP2 SWAP1 SSTORE POP DUP2 PUSH1 0x2 PUSH0 DUP4 DUP2 MSTORE PUSH1 0x20 ADD SWAP1 DUP2 MSTORE PUSH1 0x20 ADD PUSH0 KECCAK256 PUSH0 PUSH2 0x100 EXP DUP2 SLOAD DUP2 PUSH20 0xFFFFFFFFFFFFFFFFFFFFFFFFFFFFFFFFFFFFFFFF MUL NOT AND SWAP1 DUP4 PUSH20 0xFFFFFFFFFFFFFFFFFFFFFFFFFFFFFFFFFFFFFFFF AND MUL OR SWAP1 SSTORE POP DUP1 DUP3 PUSH20 0xFFFFFFFFFFFFFFFFFFFFFFFFFFFFFFFFFFFFFFFF AND PUSH0 PUSH20 0xFFFFFFFFFFFFFFFFFFFFFFFFFFFFFFFFFFFFFFFF AND PUSH32 0xDDF252AD1BE2C89B69C2B068FC378DAA952BA7F163C4A11628F55A4DF523B3EF PUSH1 0x40 MLOAD PUSH1 0x40 MLOAD DUP1 SWAP2 SUB SWAP1 LOG4 PUSH2 0x1D59 PUSH0 DUP4 DUP4 PUSH1 0x1 PUSH2 0x2447 JUMP JUMPDEST POP POP JUMP JUMPDEST DUP1 PUSH1 0xD SWAP1 DUP2 PUSH2 0x1D6C SWAP2 SWAP1 PUSH2 0x4173 JUMP JUMPDEST POP POP JUMP JUMPDEST PUSH0 PUSH1 0x2 PUSH0 DUP4 DUP2 MSTORE PUSH1 0x20 ADD SWAP1 DUP2 MSTORE PUSH1 0x20 ADD PUSH0 KECCAK256 PUSH0 SWAP1 SLOAD SWAP1 PUSH2 0x100 EXP SWAP1 DIV PUSH20 0xFFFFFFFFFFFFFFFFFFFFFFFFFFFFFFFFFFFFFFFF AND SWAP1 POP SWAP2 SWAP1 POP JUMP JUMPDEST PUSH0 PUSH1 0xA PUSH0 SWAP1 SLOAD SWAP1 PUSH2 0x100 EXP SWAP1 DIV PUSH20 0xFFFFFFFFFFFFFFFFFFFFFFFFFFFFFFFFFFFFFFFF AND SWAP1 POP DUP2 PUSH1 0xA PUSH0 PUSH2 0x100 EXP DUP2 SLOAD DUP2 PUSH20 0xFFFFFFFFFFFFFFFFFFFFFFFFFFFFFFFFFFFFFFFF MUL NOT AND SWAP1 DUP4 PUSH20 0xFFFFFFFFFFFFFFFFFFFFFFFFFFFFFFFFFFFFFFFF AND MUL OR SWAP1 SSTORE POP DUP2 PUSH20 0xFFFFFFFFFFFFFFFFFFFFFFFFFFFFFFFFFFFFFFFF AND DUP2 PUSH20 0xFFFFFFFFFFFFFFFFFFFFFFFFFFFFFFFFFFFFFFFF AND PUSH32 0x8BE0079C531659141344CD1FD0A4F28419497F9722A3DAAFE3B4186F6B6457E0 PUSH1 0x40 MLOAD PUSH1 0x40 MLOAD DUP1 SWAP2 SUB SWAP1 LOG3 POP POP JUMP JUMPDEST PUSH0 TIMESTAMP SWAP1 POP SWAP1 JUMP JUMPDEST PUSH0 DUP1 PUSH1 0xC PUSH0 DUP5 DUP2 MSTORE PUSH1 0x20 ADD SWAP1 DUP2 MSTORE PUSH1 0x20 ADD PUSH0 KECCAK256 SLOAD SWAP1 POP PUSH1 0xC PUSH0 DUP5 DUP2 MSTORE PUSH1 0x20 ADD SWAP1 DUP2 MSTORE PUSH1 0x20 ADD PUSH0 KECCAK256 PUSH0 DUP2 SLOAD DUP1 SWAP3 SWAP2 SWAP1 PUSH2 0x1EAA SWAP1 PUSH2 0x426F JUMP JUMPDEST SWAP2 SWAP1 POP SSTORE POP DUP1 SWAP2 POP POP SWAP2 SWAP1 POP JUMP JUMPDEST PUSH0 DUP1 DUP3 PUSH20 0xFFFFFFFFFFFFFFFFFFFFFFFFFFFFFFFFFFFFFFFF AND EXTCODESIZE GT SWAP1 POP SWAP2 SWAP1 POP JUMP JUMPDEST DUP2 PUSH20 0xFFFFFFFFFFFFFFFFFFFFFFFFFFFFFFFFFFFFFFFF AND DUP4 PUSH20 0xFFFFFFFFFFFFFFFFFFFFFFFFFFFFFFFFFFFFFFFF AND SUB PUSH2 0x1F48 JUMPI PUSH1 0x40 MLOAD PUSH32 0x8C379A000000000000000000000000000000000000000000000000000000000 DUP2 MSTORE PUSH1 0x4 ADD PUSH2 0x1F3F SWAP1 PUSH2 0x4300 JUMP JUMPDEST PUSH1 0x40 MLOAD DUP1 SWAP2 SUB SWAP1 REVERT JUMPDEST DUP1 PUSH1 0x5 PUSH0 DUP6 PUSH20 0xFFFFFFFFFFFFFFFFFFFFFFFFFFFFFFFFFFFFFFFF AND PUSH20 0xFFFFFFFFFFFFFFFFFFFFFFFFFFFFFFFFFFFFFFFF AND DUP2 MSTORE PUSH1 0x20 ADD SWAP1 DUP2 MSTORE PUSH1 0x20 ADD PUSH0 KECCAK256 PUSH0 DUP5 PUSH20 0xFFFFFFFFFFFFFFFFFFFFFFFFFFFFFFFFFFFFFFFF AND PUSH20 0xFFFFFFFFFFFFFFFFFFFFFFFFFFFFFFFFFFFFFFFF AND DUP2 MSTORE PUSH1 0x20 ADD SWAP1 DUP2 MSTORE PUSH1 0x20 ADD PUSH0 KECCAK256 PUSH0 PUSH2 0x100 EXP DUP2 SLOAD DUP2 PUSH1 0xFF MUL NOT AND SWAP1 DUP4 ISZERO ISZERO MUL OR SWAP1 SSTORE POP DUP2 PUSH20 0xFFFFFFFFFFFFFFFFFFFFFFFFFFFFFFFFFFFFFFFF AND DUP4 PUSH20 0xFFFFFFFFFFFFFFFFFFFFFFFFFFFFFFFFFFFFFFFF AND PUSH32 0x17307EAB39AB6107E8899845AD3D59BD9653F200F220920489CA2B5937696C31 DUP4 PUSH1 0x40 MLOAD PUSH2 0x2034 SWAP2 SWAP1 PUSH2 0x2B4B JUMP JUMPDEST PUSH1 0x40 MLOAD DUP1 SWAP2 SUB SWAP1 LOG3 POP POP POP JUMP JUMPDEST PUSH2 0x204C DUP5 DUP5 DUP5 PUSH2 0x17D9 JUMP JUMPDEST PUSH2 0x2058 DUP5 DUP5 DUP5 DUP5 PUSH2 0x244D JUMP JUMPDEST PUSH2 0x2097 JUMPI PUSH1 0x40 MLOAD PUSH32 0x8C379A000000000000000000000000000000000000000000000000000000000 DUP2 MSTORE PUSH1 0x4 ADD PUSH2 0x208E SWAP1 PUSH2 0x438E JUMP JUMPDEST PUSH1 0x40 MLOAD DUP1 SWAP2 SUB SWAP1 REVERT JUMPDEST POP POP POP POP JUMP JUMPDEST PUSH0 PUSH2 0x20DF PUSH1 0xB SLOAD DUP6 DUP6 DUP6 PUSH1 0x40 MLOAD PUSH1 0x20 ADD PUSH2 0x20B9 SWAP4 SWAP3 SWAP2 SWAP1 PUSH2 0x4411 JUMP JUMPDEST PUSH1 0x40 MLOAD PUSH1 0x20 DUP2 DUP4 SUB SUB DUP2 MSTORE SWAP1 PUSH1 0x40 MSTORE DUP1 MLOAD SWAP1 PUSH1 0x20 ADD KECCAK256 DUP8 PUSH2 0x25CF SWAP1 SWAP3 SWAP2 SWAP1 PUSH4 0xFFFFFFFF AND JUMP JUMPDEST SWAP1 POP SWAP5 SWAP4 POP POP POP POP JUMP JUMPDEST PUSH1 0x60 PUSH1 0xD DUP1 SLOAD PUSH2 0x20F8 SWAP1 PUSH2 0x33BC JUMP JUMPDEST DUP1 PUSH1 0x1F ADD PUSH1 0x20 DUP1 SWAP2 DIV MUL PUSH1 0x20 ADD PUSH1 0x40 MLOAD SWAP1 DUP2 ADD PUSH1 0x40 MSTORE DUP1 SWAP3 SWAP2 SWAP1 DUP2 DUP2 MSTORE PUSH1 0x20 ADD DUP3 DUP1 SLOAD PUSH2 0x2124 SWAP1 PUSH2 0x33BC JUMP JUMPDEST DUP1 ISZERO PUSH2 0x216F JUMPI DUP1 PUSH1 0x1F LT PUSH2 0x2146 JUMPI PUSH2 0x100 DUP1 DUP4 SLOAD DIV MUL DUP4 MSTORE SWAP2 PUSH1 0x20 ADD SWAP2 PUSH2 0x216F JUMP JUMPDEST DUP3 ADD SWAP2 SWAP1 PUSH0 MSTORE PUSH1 0x20 PUSH0 KECCAK256 SWAP1 JUMPDEST DUP2 SLOAD DUP2 MSTORE SWAP1 PUSH1 0x1 ADD SWAP1 PUSH1 0x20 ADD DUP1 DUP4 GT PUSH2 0x2152 JUMPI DUP3 SWAP1 SUB PUSH1 0x1F AND DUP3 ADD SWAP2 JUMPDEST POP POP POP POP POP SWAP1 POP SWAP1 JUMP JUMPDEST PUSH1 0x60 PUSH0 PUSH1 0x1 PUSH2 0x2187 DUP5 PUSH2 0x25E5 JUMP JUMPDEST ADD SWAP1 POP PUSH0 DUP2 PUSH8 0xFFFFFFFFFFFFFFFF DUP2 GT ISZERO PUSH2 0x21A5 JUMPI PUSH2 0x21A4 PUSH2 0x2DDD JUMP JUMPDEST JUMPDEST PUSH1 0x40 MLOAD SWAP1 DUP1 DUP3 MSTORE DUP1 PUSH1 0x1F ADD PUSH1 0x1F NOT AND PUSH1 0x20 ADD DUP3 ADD PUSH1 0x40 MSTORE DUP1 ISZERO PUSH2 0x21D7 JUMPI DUP2 PUSH1 0x20 ADD PUSH1 0x1 DUP3 MUL DUP1 CALLDATASIZE DUP4 CALLDATACOPY DUP1 DUP3 ADD SWAP2 POP POP SWAP1 POP JUMPDEST POP SWAP1 POP PUSH0 DUP3 PUSH1 0x20 ADD DUP3 ADD SWAP1 POP JUMPDEST PUSH1 0x1 ISZERO PUSH2 0x2238 JUMPI DUP1 DUP1 PUSH1 0x1 SWAP1 SUB SWAP2 POP POP PUSH32 0x3031323334353637383961626364656600000000000000000000000000000000 PUSH1 0xA DUP7 MOD BYTE DUP2 MSTORE8 PUSH1 0xA DUP6 DUP2 PUSH2 0x222D JUMPI PUSH2 0x222C PUSH2 0x444D JUMP JUMPDEST JUMPDEST DIV SWAP5 POP PUSH0 DUP6 SUB PUSH2 0x21E4 JUMPI JUMPDEST DUP2 SWAP4 POP POP POP POP SWAP2 SWAP1 POP JUMP JUMPDEST PUSH0 PUSH32 0x1FFC9A700000000000000000000000000000000000000000000000000000000 PUSH28 0xFFFFFFFFFFFFFFFFFFFFFFFFFFFFFFFFFFFFFFFFFFFFFFFFFFFFFFFF NOT AND DUP3 PUSH28 0xFFFFFFFFFFFFFFFFFFFFFFFFFFFFFFFFFFFFFFFFFFFFFFFFFFFFFFFF NOT AND EQ SWAP1 POP SWAP2 SWAP1 POP JUMP JUMPDEST PUSH0 DUP1 PUSH20 0xFFFFFFFFFFFFFFFFFFFFFFFFFFFFFFFFFFFFFFFF AND PUSH2 0x22CD DUP4 PUSH2 0x1D70 JUMP JUMPDEST PUSH20 0xFFFFFFFFFFFFFFFFFFFFFFFFFFFFFFFFFFFFFFFF AND EQ ISZERO SWAP1 POP SWAP2 SWAP1 POP JUMP JUMPDEST PUSH2 0x22F8 DUP5 DUP5 DUP5 DUP5 PUSH2 0x2736 JUMP JUMPDEST PUSH1 0x1 DUP2 GT ISZERO PUSH2 0x233C JUMPI PUSH1 0x40 MLOAD PUSH32 0x8C379A000000000000000000000000000000000000000000000000000000000 DUP2 MSTORE PUSH1 0x4 ADD PUSH2 0x2333 SWAP1 PUSH2 0x44EA JUMP JUMPDEST PUSH1 0x40 MLOAD DUP1 SWAP2 SUB SWAP1 REVERT JUMPDEST PUSH0 DUP3 SWAP1 POP PUSH0 PUSH20 0xFFFFFFFFFFFFFFFFFFFFFFFFFFFFFFFFFFFFFFFF AND DUP6 PUSH20 0xFFFFFFFFFFFFFFFFFFFFFFFFFFFFFFFFFFFFFFFF AND SUB PUSH2 0x2381 JUMPI PUSH2 0x237C DUP2 PUSH2 0x273C JUMP JUMPDEST PUSH2 0x23C0 JUMP JUMPDEST DUP4 PUSH20 0xFFFFFFFFFFFFFFFFFFFFFFFFFFFFFFFFFFFFFFFF AND DUP6 PUSH20 0xFFFFFFFFFFFFFFFFFFFFFFFFFFFFFFFFFFFFFFFF AND EQ PUSH2 0x23BF JUMPI PUSH2 0x23BE DUP6 DUP3 PUSH2 0x2780 JUMP JUMPDEST JUMPDEST JUMPDEST PUSH0 PUSH20 0xFFFFFFFFFFFFFFFFFFFFFFFFFFFFFFFFFFFFFFFF AND DUP5 PUSH20 0xFFFFFFFFFFFFFFFFFFFFFFFFFFFFFFFFFFFFFFFF AND SUB PUSH2 0x2401 JUMPI PUSH2 0x23FC DUP2 PUSH2 0x28D6 JUMP JUMPDEST PUSH2 0x2440 JUMP JUMPDEST DUP5 PUSH20 0xFFFFFFFFFFFFFFFFFFFFFFFFFFFFFFFFFFFFFFFF AND DUP5 PUSH20 0xFFFFFFFFFFFFFFFFFFFFFFFFFFFFFFFFFFFFFFFF AND EQ PUSH2 0x243F JUMPI PUSH2 0x243E DUP5 DUP3 PUSH2 0x2996 JUMP JUMPDEST JUMPDEST JUMPDEST POP POP POP POP POP JUMP JUMPDEST POP POP POP POP JUMP JUMPDEST PUSH0 PUSH2 0x246D DUP5 PUSH20 0xFFFFFFFFFFFFFFFFFFFFFFFFFFFFFFFFFFFFFFFF AND PUSH2 0x1EB8 JUMP JUMPDEST ISZERO PUSH2 0x25C2 JUMPI DUP4 PUSH20 0xFFFFFFFFFFFFFFFFFFFFFFFFFFFFFFFFFFFFFFFF AND PUSH4 0x150B7A02 PUSH2 0x2496 PUSH2 0x1688 JUMP JUMPDEST DUP8 DUP7 DUP7 PUSH1 0x40 MLOAD DUP6 PUSH4 0xFFFFFFFF AND PUSH1 0xE0 SHL DUP2 MSTORE PUSH1 0x4 ADD PUSH2 0x24B8 SWAP5 SWAP4 SWAP3 SWAP2 SWAP1 PUSH2 0x4508 JUMP JUMPDEST PUSH1 0x20 PUSH1 0x40 MLOAD DUP1 DUP4 SUB DUP2 PUSH0 DUP8 GAS CALL SWAP3 POP POP POP DUP1 ISZERO PUSH2 0x24F3 JUMPI POP PUSH1 0x40 MLOAD RETURNDATASIZE PUSH1 0x1F NOT PUSH1 0x1F DUP3 ADD AND DUP3 ADD DUP1 PUSH1 0x40 MSTORE POP DUP2 ADD SWAP1 PUSH2 0x24F0 SWAP2 SWAP1 PUSH2 0x3B5D JUMP JUMPDEST PUSH1 0x1 JUMPDEST PUSH2 0x2572 JUMPI RETURNDATASIZE DUP1 PUSH0 DUP2 EQ PUSH2 0x2521 JUMPI PUSH1 0x40 MLOAD SWAP2 POP PUSH1 0x1F NOT PUSH1 0x3F RETURNDATASIZE ADD AND DUP3 ADD PUSH1 0x40 MSTORE RETURNDATASIZE DUP3 MSTORE RETURNDATASIZE PUSH0 PUSH1 0x20 DUP5 ADD RETURNDATACOPY PUSH2 0x2526 JUMP JUMPDEST PUSH1 0x60 SWAP2 POP JUMPDEST POP PUSH0 DUP2 MLOAD SUB PUSH2 0x256A JUMPI PUSH1 0x40 MLOAD PUSH32 0x8C379A000000000000000000000000000000000000000000000000000000000 DUP2 MSTORE PUSH1 0x4 ADD PUSH2 0x2561 SWAP1 PUSH2 0x438E JUMP JUMPDEST PUSH1 0x40 MLOAD DUP1 SWAP2 SUB SWAP1 REVERT JUMPDEST DUP1 MLOAD DUP2 PUSH1 0x20 ADD REVERT JUMPDEST PUSH4 0x150B7A02 PUSH1 0xE0 SHL PUSH28 0xFFFFFFFFFFFFFFFFFFFFFFFFFFFFFFFFFFFFFFFFFFFFFFFFFFFFFFFF NOT AND DUP2 PUSH28 0xFFFFFFFFFFFFFFFFFFFFFFFFFFFFFFFFFFFFFFFFFFFFFFFFFFFFFFFF NOT AND EQ SWAP2 POP POP PUSH2 0x25C7 JUMP JUMPDEST PUSH1 0x1 SWAP1 POP JUMPDEST SWAP5 SWAP4 POP POP POP POP JUMP JUMPDEST PUSH0 DUP3 PUSH2 0x25DB DUP6 DUP5 PUSH2 0x2A0E JUMP JUMPDEST EQ SWAP1 POP SWAP4 SWAP3 POP POP POP JUMP JUMPDEST PUSH0 DUP1 PUSH0 SWAP1 POP PUSH27 0x184F03E93FF9F4DAA797ED6E38ED64BF6A1F010000000000000000 DUP4 LT PUSH2 0x2641 JUMPI PUSH27 0x184F03E93FF9F4DAA797ED6E38ED64BF6A1F010000000000000000 DUP4 DUP2 PUSH2 0x2637 JUMPI PUSH2 0x2636 PUSH2 0x444D JUMP JUMPDEST JUMPDEST DIV SWAP3 POP PUSH1 0x40 DUP2 ADD SWAP1 POP JUMPDEST PUSH14 0x4EE2D6D415B85ACEF8100000000 DUP4 LT PUSH2 0x267E JUMPI PUSH14 0x4EE2D6D415B85ACEF8100000000 DUP4 DUP2 PUSH2 0x2674 JUMPI PUSH2 0x2673 PUSH2 0x444D JUMP JUMPDEST JUMPDEST DIV SWAP3 POP PUSH1 0x20 DUP2 ADD SWAP1 POP JUMPDEST PUSH7 0x2386F26FC10000 DUP4 LT PUSH2 0x26AD JUMPI PUSH7 0x2386F26FC10000 DUP4 DUP2 PUSH2 0x26A3 JUMPI PUSH2 0x26A2 PUSH2 0x444D JUMP JUMPDEST JUMPDEST DIV SWAP3 POP PUSH1 0x10 DUP2 ADD SWAP1 POP JUMPDEST PUSH4 0x5F5E100 DUP4 LT PUSH2 0x26D6 JUMPI PUSH4 0x5F5E100 DUP4 DUP2 PUSH2 0x26CC JUMPI PUSH2 0x26CB PUSH2 0x444D JUMP JUMPDEST JUMPDEST DIV SWAP3 POP PUSH1 0x8 DUP2 ADD SWAP1 POP JUMPDEST PUSH2 0x2710 DUP4 LT PUSH2 0x26FB JUMPI PUSH2 0x2710 DUP4 DUP2 PUSH2 0x26F1 JUMPI PUSH2 0x26F0 PUSH2 0x444D JUMP JUMPDEST JUMPDEST DIV SWAP3 POP PUSH1 0x4 DUP2 ADD SWAP1 POP JUMPDEST PUSH1 0x64 DUP4 LT PUSH2 0x271E JUMPI PUSH1 0x64 DUP4 DUP2 PUSH2 0x2714 JUMPI PUSH2 0x2713 PUSH2 0x444D JUMP JUMPDEST JUMPDEST DIV SWAP3 POP PUSH1 0x2 DUP2 ADD SWAP1 POP JUMPDEST PUSH1 0xA DUP4 LT PUSH2 0x272D JUMPI PUSH1 0x1 DUP2 ADD SWAP1 POP JUMPDEST DUP1 SWAP2 POP POP SWAP2 SWAP1 POP JUMP JUMPDEST POP POP POP POP JUMP JUMPDEST PUSH1 0x8 DUP1 SLOAD SWAP1 POP PUSH1 0x9 PUSH0 DUP4 DUP2 MSTORE PUSH1 0x20 ADD SWAP1 DUP2 MSTORE PUSH1 0x20 ADD PUSH0 KECCAK256 DUP2 SWAP1 SSTORE POP PUSH1 0x8 DUP2 SWAP1 DUP1 PUSH1 0x1 DUP2 SLOAD ADD DUP1 DUP3 SSTORE DUP1 SWAP2 POP POP PUSH1 0x1 SWAP1 SUB SWAP1 PUSH0 MSTORE PUSH1 0x20 PUSH0 KECCAK256 ADD PUSH0 SWAP1 SWAP2 SWAP1 SWAP2 SWAP1 SWAP2 POP SSTORE POP JUMP JUMPDEST PUSH0 PUSH1 0x1 PUSH2 0x278C DUP5 PUSH2 0xDCF JUMP JUMPDEST PUSH2 0x2796 SWAP2 SWAP1 PUSH2 0x4552 JUMP JUMPDEST SWAP1 POP PUSH0 PUSH1 0x7 PUSH0 DUP5 DUP2 MSTORE PUSH1 0x20 ADD SWAP1 DUP2 MSTORE PUSH1 0x20 ADD PUSH0 KECCAK256 SLOAD SWAP1 POP DUP2 DUP2 EQ PUSH2 0x286D JUMPI PUSH0 PUSH1 0x6 PUSH0 DUP7 PUSH20 0xFFFFFFFFFFFFFFFFFFFFFFFFFFFFFFFFFFFFFFFF AND PUSH20 0xFFFFFFFFFFFFFFFFFFFFFFFFFFFFFFFFFFFFFFFF AND DUP2 MSTORE PUSH1 0x20 ADD SWAP1 DUP2 MSTORE PUSH1 0x20 ADD PUSH0 KECCAK256 PUSH0 DUP5 DUP2 MSTORE PUSH1 0x20 ADD SWAP1 DUP2 MSTORE PUSH1 0x20 ADD PUSH0 KECCAK256 SLOAD SWAP1 POP DUP1 PUSH1 0x6 PUSH0 DUP8 PUSH20 0xFFFFFFFFFFFFFFFFFFFFFFFFFFFFFFFFFFFFFFFF AND PUSH20 0xFFFFFFFFFFFFFFFFFFFFFFFFFFFFFFFFFFFFFFFF AND DUP2 MSTORE PUSH1 0x20 ADD SWAP1 DUP2 MSTORE PUSH1 0x20 ADD PUSH0 KECCAK256 PUSH0 DUP5 DUP2 MSTORE PUSH1 0x20 ADD SWAP1 DUP2 MSTORE PUSH1 0x20 ADD PUSH0 KECCAK256 DUP2 SWAP1 SSTORE POP DUP2 PUSH1 0x7 PUSH0 DUP4 DUP2 MSTORE PUSH1 0x20 ADD SWAP1 DUP2 MSTORE PUSH1 0x20 ADD PUSH0 KECCAK256 DUP2 SWAP1 SSTORE POP POP JUMPDEST PUSH1 0x7 PUSH0 DUP5 DUP2 MSTORE PUSH1 0x20 ADD SWAP1 DUP2 MSTORE PUSH1 0x20 ADD PUSH0 KECCAK256 PUSH0 SWAP1 SSTORE PUSH1 0x6 PUSH0 DUP6 PUSH20 0xFFFFFFFFFFFFFFFFFFFFFFFFFFFFFFFFFFFFFFFF AND PUSH20 0xFFFFFFFFFFFFFFFFFFFFFFFFFFFFFFFFFFFFFFFF AND DUP2 MSTORE PUSH1 0x20 ADD SWAP1 DUP2 MSTORE PUSH1 0x20 ADD PUSH0 KECCAK256 PUSH0 DUP4 DUP2 MSTORE PUSH1 0x20 ADD SWAP1 DUP2 MSTORE PUSH1 0x20 ADD PUSH0 KECCAK256 PUSH0 SWAP1 SSTORE POP POP POP POP JUMP JUMPDEST PUSH0 PUSH1 0x1 PUSH1 0x8 DUP1 SLOAD SWAP1 POP PUSH2 0x28E9 SWAP2 SWAP1 PUSH2 0x4552 JUMP JUMPDEST SWAP1 POP PUSH0 PUSH1 0x9 PUSH0 DUP5 DUP2 MSTORE PUSH1 0x20 ADD SWAP1 DUP2 MSTORE PUSH1 0x20 ADD PUSH0 KECCAK256 SLOAD SWAP1 POP PUSH0 PUSH1 0x8 DUP4 DUP2 SLOAD DUP2 LT PUSH2 0x2915 JUMPI PUSH2 0x2914 PUSH2 0x3745 JUMP JUMPDEST JUMPDEST SWAP1 PUSH0 MSTORE PUSH1 0x20 PUSH0 KECCAK256 ADD SLOAD SWAP1 POP DUP1 PUSH1 0x8 DUP4 DUP2 SLOAD DUP2 LT PUSH2 0x2935 JUMPI PUSH2 0x2934 PUSH2 0x3745 JUMP JUMPDEST JUMPDEST SWAP1 PUSH0 MSTORE PUSH1 0x20 PUSH0 KECCAK256 ADD DUP2 SWAP1 SSTORE POP DUP2 PUSH1 0x9 PUSH0 DUP4 DUP2 MSTORE PUSH1 0x20 ADD SWAP1 DUP2 MSTORE PUSH1 0x20 ADD PUSH0 KECCAK256 DUP2 SWAP1 SSTORE POP PUSH1 0x9 PUSH0 DUP6 DUP2 MSTORE PUSH1 0x20 ADD SWAP1 DUP2 MSTORE PUSH1 0x20 ADD PUSH0 KECCAK256 PUSH0 SWAP1 SSTORE PUSH1 0x8 DUP1 SLOAD DUP1 PUSH2 0x297D JUMPI PUSH2 0x297C PUSH2 0x4585 JUMP JUMPDEST JUMPDEST PUSH1 0x1 SWAP1 SUB DUP2 DUP2 SWAP1 PUSH0 MSTORE PUSH1 0x20 PUSH0 KECCAK256 ADD PUSH0 SWAP1 SSTORE SWAP1 SSTORE POP POP POP POP JUMP JUMPDEST PUSH0 PUSH2 0x29A0 DUP4 PUSH2 0xDCF JUMP JUMPDEST SWAP1 POP DUP2 PUSH1 0x6 PUSH0 DUP6 PUSH20 0xFFFFFFFFFFFFFFFFFFFFFFFFFFFFFFFFFFFFFFFF AND PUSH20 0xFFFFFFFFFFFFFFFFFFFFFFFFFFFFFFFFFFFFFFFF AND DUP2 MSTORE PUSH1 0x20 ADD SWAP1 DUP2 MSTORE PUSH1 0x20 ADD PUSH0 KECCAK256 PUSH0 DUP4 DUP2 MSTORE PUSH1 0x20 ADD SWAP1 DUP2 MSTORE PUSH1 0x20 ADD PUSH0 KECCAK256 DUP2 SWAP1 SSTORE POP DUP1 PUSH1 0x7 PUSH0 DUP5 DUP2 MSTORE PUSH1 0x20 ADD SWAP1 DUP2 MSTORE PUSH1 0x20 ADD PUSH0 KECCAK256 DUP2 SWAP1 SSTORE POP POP POP POP JUMP JUMPDEST PUSH0 DUP1 DUP3 SWAP1 POP PUSH0 JUMPDEST DUP5 MLOAD DUP2 LT ISZERO PUSH2 0x2A57 JUMPI PUSH2 0x2A42 DUP3 DUP7 DUP4 DUP2 MLOAD DUP2 LT PUSH2 0x2A35 JUMPI PUSH2 0x2A34 PUSH2 0x3745 JUMP JUMPDEST JUMPDEST PUSH1 0x20 MUL PUSH1 0x20 ADD ADD MLOAD PUSH2 0x2A62 JUMP JUMPDEST SWAP2 POP DUP1 DUP1 PUSH2 0x2A4F SWAP1 PUSH2 0x426F JUMP JUMPDEST SWAP2 POP POP PUSH2 0x2A15 JUMP JUMPDEST POP DUP1 SWAP2 POP POP SWAP3 SWAP2 POP POP JUMP JUMPDEST PUSH0 DUP2 DUP4 LT PUSH2 0x2A79 JUMPI PUSH2 0x2A74 DUP3 DUP5 PUSH2 0x2A8C JUMP JUMPDEST PUSH2 0x2A84 JUMP JUMPDEST PUSH2 0x2A83 DUP4 DUP4 PUSH2 0x2A8C JUMP JUMPDEST JUMPDEST SWAP1 POP SWAP3 SWAP2 POP POP JUMP JUMPDEST PUSH0 DUP3 PUSH0 MSTORE DUP2 PUSH1 0x20 MSTORE PUSH1 0x40 PUSH0 KECCAK256 SWAP1 POP SWAP3 SWAP2 POP POP JUMP JUMPDEST PUSH0 PUSH1 0x40 MLOAD SWAP1 POP SWAP1 JUMP JUMPDEST PUSH0 DUP1 REVERT JUMPDEST PUSH0 DUP1 REVERT JUMPDEST PUSH0 PUSH32 0xFFFFFFFF00000000000000000000000000000000000000000000000000000000 DUP3 AND SWAP1 POP SWAP2 SWAP1 POP JUMP JUMPDEST PUSH2 0x2AE5 DUP2 PUSH2 0x2AB1 JUMP JUMPDEST DUP2 EQ PUSH2 0x2AEF JUMPI PUSH0 DUP1 REVERT JUMPDEST POP JUMP JUMPDEST PUSH0 DUP2 CALLDATALOAD SWAP1 POP PUSH2 0x2B00 DUP2 PUSH2 0x2ADC JUMP JUMPDEST SWAP3 SWAP2 POP POP JUMP JUMPDEST PUSH0 PUSH1 0x20 DUP3 DUP5 SUB SLT ISZERO PUSH2 0x2B1B JUMPI PUSH2 0x2B1A PUSH2 0x2AA9 JUMP JUMPDEST JUMPDEST PUSH0 PUSH2 0x2B28 DUP5 DUP3 DUP6 ADD PUSH2 0x2AF2 JUMP JUMPDEST SWAP2 POP POP SWAP3 SWAP2 POP POP JUMP JUMPDEST PUSH0 DUP2 ISZERO ISZERO SWAP1 POP SWAP2 SWAP1 POP JUMP JUMPDEST PUSH2 0x2B45 DUP2 PUSH2 0x2B31 JUMP JUMPDEST DUP3 MSTORE POP POP JUMP JUMPDEST PUSH0 PUSH1 0x20 DUP3 ADD SWAP1 POP PUSH2 0x2B5E PUSH0 DUP4 ADD DUP5 PUSH2 0x2B3C JUMP JUMPDEST SWAP3 SWAP2 POP POP JUMP JUMPDEST PUSH0 DUP2 MLOAD SWAP1 POP SWAP2 SWAP1 POP JUMP JUMPDEST PUSH0 DUP3 DUP3 MSTORE PUSH1 0x20 DUP3 ADD SWAP1 POP SWAP3 SWAP2 POP POP JUMP JUMPDEST PUSH0 JUMPDEST DUP4 DUP2 LT ISZERO PUSH2 0x2B9B JUMPI DUP1 DUP3 ADD MLOAD DUP2 DUP5 ADD MSTORE PUSH1 0x20 DUP2 ADD SWAP1 POP PUSH2 0x2B80 JUMP JUMPDEST PUSH0 DUP5 DUP5 ADD MSTORE POP POP POP POP JUMP JUMPDEST PUSH0 PUSH1 0x1F NOT PUSH1 0x1F DUP4 ADD AND SWAP1 POP SWAP2 SWAP1 POP JUMP JUMPDEST PUSH0 PUSH2 0x2BC0 DUP3 PUSH2 0x2B64 JUMP JUMPDEST PUSH2 0x2BCA DUP2 DUP6 PUSH2 0x2B6E JUMP JUMPDEST SWAP4 POP PUSH2 0x2BDA DUP2 DUP6 PUSH1 0x20 DUP7 ADD PUSH2 0x2B7E JUMP JUMPDEST PUSH2 0x2BE3 DUP2 PUSH2 0x2BA6 JUMP JUMPDEST DUP5 ADD SWAP2 POP POP SWAP3 SWAP2 POP POP JUMP JUMPDEST PUSH0 PUSH1 0x20 DUP3 ADD SWAP1 POP DUP2 DUP2 SUB PUSH0 DUP4 ADD MSTORE PUSH2 0x2C06 DUP2 DUP5 PUSH2 0x2BB6 JUMP JUMPDEST SWAP1 POP SWAP3 SWAP2 POP POP JUMP JUMPDEST PUSH0 DUP2 SWAP1 POP SWAP2 SWAP1 POP JUMP JUMPDEST PUSH2 0x2C20 DUP2 PUSH2 0x2C0E JUMP JUMPDEST DUP2 EQ PUSH2 0x2C2A JUMPI PUSH0 DUP1 REVERT JUMPDEST POP JUMP JUMPDEST PUSH0 DUP2 CALLDATALOAD SWAP1 POP PUSH2 0x2C3B DUP2 PUSH2 0x2C17 JUMP JUMPDEST SWAP3 SWAP2 POP POP JUMP JUMPDEST PUSH0 PUSH1 0x20 DUP3 DUP5 SUB SLT ISZERO PUSH2 0x2C56 JUMPI PUSH2 0x2C55 PUSH2 0x2AA9 JUMP JUMPDEST JUMPDEST PUSH0 PUSH2 0x2C63 DUP5 DUP3 DUP6 ADD PUSH2 0x2C2D JUMP JUMPDEST SWAP2 POP POP SWAP3 SWAP2 POP POP JUMP JUMPDEST PUSH0 PUSH20 0xFFFFFFFFFFFFFFFFFFFFFFFFFFFFFFFFFFFFFFFF DUP3 AND SWAP1 POP SWAP2 SWAP1 POP JUMP JUMPDEST PUSH0 PUSH2 0x2C95 DUP3 PUSH2 0x2C6C JUMP JUMPDEST SWAP1 POP SWAP2 SWAP1 POP JUMP JUMPDEST PUSH2 0x2CA5 DUP2 PUSH2 0x2C8B JUMP JUMPDEST DUP3 MSTORE POP POP JUMP JUMPDEST PUSH0 PUSH1 0x20 DUP3 ADD SWAP1 POP PUSH2 0x2CBE PUSH0 DUP4 ADD DUP5 PUSH2 0x2C9C JUMP JUMPDEST SWAP3 SWAP2 POP POP JUMP JUMPDEST PUSH2 0x2CCD DUP2 PUSH2 0x2C8B JUMP JUMPDEST DUP2 EQ PUSH2 0x2CD7 JUMPI PUSH0 DUP1 REVERT JUMPDEST POP JUMP JUMPDEST PUSH0 DUP2 CALLDATALOAD SWAP1 POP PUSH2 0x2CE8 DUP2 PUSH2 0x2CC4 JUMP JUMPDEST SWAP3 SWAP2 POP POP JUMP JUMPDEST PUSH0 DUP1 PUSH1 0x40 DUP4 DUP6 SUB SLT ISZERO PUSH2 0x2D04 JUMPI PUSH2 0x2D03 PUSH2 0x2AA9 JUMP JUMPDEST JUMPDEST PUSH0 PUSH2 0x2D11 DUP6 DUP3 DUP7 ADD PUSH2 0x2CDA JUMP JUMPDEST SWAP3 POP POP PUSH1 0x20 PUSH2 0x2D22 DUP6 DUP3 DUP7 ADD PUSH2 0x2C2D JUMP JUMPDEST SWAP2 POP POP SWAP3 POP SWAP3 SWAP1 POP JUMP JUMPDEST PUSH2 0x2D35 DUP2 PUSH2 0x2C0E JUMP JUMPDEST DUP3 MSTORE POP POP JUMP JUMPDEST PUSH0 PUSH1 0x20 DUP3 ADD SWAP1 POP PUSH2 0x2D4E PUSH0 DUP4 ADD DUP5 PUSH2 0x2D2C JUMP JUMPDEST SWAP3 SWAP2 POP POP JUMP JUMPDEST PUSH0 DUP1 PUSH0 PUSH1 0x60 DUP5 DUP7 SUB SLT ISZERO PUSH2 0x2D6B JUMPI PUSH2 0x2D6A PUSH2 0x2AA9 JUMP JUMPDEST JUMPDEST PUSH0 PUSH2 0x2D78 DUP7 DUP3 DUP8 ADD PUSH2 0x2CDA JUMP JUMPDEST SWAP4 POP POP PUSH1 0x20 PUSH2 0x2D89 DUP7 DUP3 DUP8 ADD PUSH2 0x2CDA JUMP JUMPDEST SWAP3 POP POP PUSH1 0x40 PUSH2 0x2D9A DUP7 DUP3 DUP8 ADD PUSH2 0x2C2D JUMP JUMPDEST SWAP2 POP POP SWAP3 POP SWAP3 POP SWAP3 JUMP JUMPDEST PUSH0 DUP2 SWAP1 POP SWAP2 SWAP1 POP JUMP JUMPDEST PUSH2 0x2DB6 DUP2 PUSH2 0x2DA4 JUMP JUMPDEST DUP3 MSTORE POP POP JUMP JUMPDEST PUSH0 PUSH1 0x20 DUP3 ADD SWAP1 POP PUSH2 0x2DCF PUSH0 DUP4 ADD DUP5 PUSH2 0x2DAD JUMP JUMPDEST SWAP3 SWAP2 POP POP JUMP JUMPDEST PUSH0 DUP1 REVERT JUMPDEST PUSH0 DUP1 REVERT JUMPDEST PUSH32 0x4E487B7100000000000000000000000000000000000000000000000000000000 PUSH0 MSTORE PUSH1 0x41 PUSH1 0x4 MSTORE PUSH1 0x24 PUSH0 REVERT JUMPDEST PUSH2 0x2E13 DUP3 PUSH2 0x2BA6 JUMP JUMPDEST DUP2 ADD DUP2 DUP2 LT PUSH8 0xFFFFFFFFFFFFFFFF DUP3 GT OR ISZERO PUSH2 0x2E32 JUMPI PUSH2 0x2E31 PUSH2 0x2DDD JUMP JUMPDEST JUMPDEST DUP1 PUSH1 0x40 MSTORE POP POP POP JUMP JUMPDEST PUSH0 PUSH2 0x2E44 PUSH2 0x2AA0 JUMP JUMPDEST SWAP1 POP PUSH2 0x2E50 DUP3 DUP3 PUSH2 0x2E0A JUMP JUMPDEST SWAP2 SWAP1 POP JUMP JUMPDEST PUSH0 PUSH8 0xFFFFFFFFFFFFFFFF DUP3 GT ISZERO PUSH2 0x2E6F JUMPI PUSH2 0x2E6E PUSH2 0x2DDD JUMP JUMPDEST JUMPDEST PUSH2 0x2E78 DUP3 PUSH2 0x2BA6 JUMP JUMPDEST SWAP1 POP PUSH1 0x20 DUP2 ADD SWAP1 POP SWAP2 SWAP1 POP JUMP JUMPDEST DUP3 DUP2 DUP4 CALLDATACOPY PUSH0 DUP4 DUP4 ADD MSTORE POP POP POP JUMP JUMPDEST PUSH0 PUSH2 0x2EA5 PUSH2 0x2EA0 DUP5 PUSH2 0x2E55 JUMP JUMPDEST PUSH2 0x2E3B JUMP JUMPDEST SWAP1 POP DUP3 DUP2 MSTORE PUSH1 0x20 DUP2 ADD DUP5 DUP5 DUP5 ADD GT ISZERO PUSH2 0x2EC1 JUMPI PUSH2 0x2EC0 PUSH2 0x2DD9 JUMP JUMPDEST JUMPDEST PUSH2 0x2ECC DUP5 DUP3 DUP6 PUSH2 0x2E85 JUMP JUMPDEST POP SWAP4 SWAP3 POP POP POP JUMP JUMPDEST PUSH0 DUP3 PUSH1 0x1F DUP4 ADD SLT PUSH2 0x2EE8 JUMPI PUSH2 0x2EE7 PUSH2 0x2DD5 JUMP JUMPDEST JUMPDEST DUP2 CALLDATALOAD PUSH2 0x2EF8 DUP5 DUP3 PUSH1 0x20 DUP7 ADD PUSH2 0x2E93 JUMP JUMPDEST SWAP2 POP POP SWAP3 SWAP2 POP POP JUMP JUMPDEST PUSH0 PUSH1 0x20 DUP3 DUP5 SUB SLT ISZERO PUSH2 0x2F16 JUMPI PUSH2 0x2F15 PUSH2 0x2AA9 JUMP JUMPDEST JUMPDEST PUSH0 DUP3 ADD CALLDATALOAD PUSH8 0xFFFFFFFFFFFFFFFF DUP2 GT ISZERO PUSH2 0x2F33 JUMPI PUSH2 0x2F32 PUSH2 0x2AAD JUMP JUMPDEST JUMPDEST PUSH2 0x2F3F DUP5 DUP3 DUP6 ADD PUSH2 0x2ED4 JUMP JUMPDEST SWAP2 POP POP SWAP3 SWAP2 POP POP JUMP JUMPDEST PUSH0 PUSH1 0x20 DUP3 DUP5 SUB SLT ISZERO PUSH2 0x2F5D JUMPI PUSH2 0x2F5C PUSH2 0x2AA9 JUMP JUMPDEST JUMPDEST PUSH0 PUSH2 0x2F6A DUP5 DUP3 DUP6 ADD PUSH2 0x2CDA JUMP JUMPDEST SWAP2 POP POP SWAP3 SWAP2 POP POP JUMP JUMPDEST PUSH0 PUSH1 0xFF DUP3 AND SWAP1 POP SWAP2 SWAP1 POP JUMP JUMPDEST PUSH2 0x2F88 DUP2 PUSH2 0x2F73 JUMP JUMPDEST DUP2 EQ PUSH2 0x2F92 JUMPI PUSH0 DUP1 REVERT JUMPDEST POP JUMP JUMPDEST PUSH0 DUP2 CALLDATALOAD SWAP1 POP PUSH2 0x2FA3 DUP2 PUSH2 0x2F7F JUMP JUMPDEST SWAP3 SWAP2 POP POP JUMP JUMPDEST PUSH2 0x2FB2 DUP2 PUSH2 0x2DA4 JUMP JUMPDEST DUP2 EQ PUSH2 0x2FBC JUMPI PUSH0 DUP1 REVERT JUMPDEST POP JUMP JUMPDEST PUSH0 DUP2 CALLDATALOAD SWAP1 POP PUSH2 0x2FCD DUP2 PUSH2 0x2FA9 JUMP JUMPDEST SWAP3 SWAP2 POP POP JUMP JUMPDEST PUSH0 DUP1 PUSH0 DUP1 PUSH0 DUP1 PUSH1 0xC0 DUP8 DUP10 SUB SLT ISZERO PUSH2 0x2FED JUMPI PUSH2 0x2FEC PUSH2 0x2AA9 JUMP JUMPDEST JUMPDEST PUSH0 PUSH2 0x2FFA DUP10 DUP3 DUP11 ADD PUSH2 0x2CDA JUMP JUMPDEST SWAP7 POP POP PUSH1 0x20 PUSH2 0x300B DUP10 DUP3 DUP11 ADD PUSH2 0x2C2D JUMP JUMPDEST SWAP6 POP POP PUSH1 0x40 PUSH2 0x301C DUP10 DUP3 DUP11 ADD PUSH2 0x2C2D JUMP JUMPDEST SWAP5 POP POP PUSH1 0x60 PUSH2 0x302D DUP10 DUP3 DUP11 ADD PUSH2 0x2F95 JUMP JUMPDEST SWAP4 POP POP PUSH1 0x80 PUSH2 0x303E DUP10 DUP3 DUP11 ADD PUSH2 0x2FBF JUMP JUMPDEST SWAP3 POP POP PUSH1 0xA0 PUSH2 0x304F DUP10 DUP3 DUP11 ADD PUSH2 0x2FBF JUMP JUMPDEST SWAP2 POP POP SWAP3 SWAP6 POP SWAP3 SWAP6 POP SWAP3 SWAP6 JUMP JUMPDEST PUSH2 0x3065 DUP2 PUSH2 0x2B31 JUMP JUMPDEST DUP2 EQ PUSH2 0x306F JUMPI PUSH0 DUP1 REVERT JUMPDEST POP JUMP JUMPDEST PUSH0 DUP2 CALLDATALOAD SWAP1 POP PUSH2 0x3080 DUP2 PUSH2 0x305C JUMP JUMPDEST SWAP3 SWAP2 POP POP JUMP JUMPDEST PUSH0 DUP1 PUSH1 0x40 DUP4 DUP6 SUB SLT ISZERO PUSH2 0x309C JUMPI PUSH2 0x309B PUSH2 0x2AA9 JUMP JUMPDEST JUMPDEST PUSH0 PUSH2 0x30A9 DUP6 DUP3 DUP7 ADD PUSH2 0x2CDA JUMP JUMPDEST SWAP3 POP POP PUSH1 0x20 PUSH2 0x30BA DUP6 DUP3 DUP7 ADD PUSH2 0x3072 JUMP JUMPDEST SWAP2 POP POP SWAP3 POP SWAP3 SWAP1 POP JUMP JUMPDEST PUSH0 PUSH8 0xFFFFFFFFFFFFFFFF DUP3 GT ISZERO PUSH2 0x30DE JUMPI PUSH2 0x30DD PUSH2 0x2DDD JUMP JUMPDEST JUMPDEST PUSH2 0x30E7 DUP3 PUSH2 0x2BA6 JUMP JUMPDEST SWAP1 POP PUSH1 0x20 DUP2 ADD SWAP1 POP SWAP2 SWAP1 POP JUMP JUMPDEST PUSH0 PUSH2 0x3106 PUSH2 0x3101 DUP5 PUSH2 0x30C4 JUMP JUMPDEST PUSH2 0x2E3B JUMP JUMPDEST SWAP1 POP DUP3 DUP2 MSTORE PUSH1 0x20 DUP2 ADD DUP5 DUP5 DUP5 ADD GT ISZERO PUSH2 0x3122 JUMPI PUSH2 0x3121 PUSH2 0x2DD9 JUMP JUMPDEST JUMPDEST PUSH2 0x312D DUP5 DUP3 DUP6 PUSH2 0x2E85 JUMP JUMPDEST POP SWAP4 SWAP3 POP POP POP JUMP JUMPDEST PUSH0 DUP3 PUSH1 0x1F DUP4 ADD SLT PUSH2 0x3149 JUMPI PUSH2 0x3148 PUSH2 0x2DD5 JUMP JUMPDEST JUMPDEST DUP2 CALLDATALOAD PUSH2 0x3159 DUP5 DUP3 PUSH1 0x20 DUP7 ADD PUSH2 0x30F4 JUMP JUMPDEST SWAP2 POP POP SWAP3 SWAP2 POP POP JUMP JUMPDEST PUSH0 DUP1 PUSH0 DUP1 PUSH1 0x80 DUP6 DUP8 SUB SLT ISZERO PUSH2 0x317A JUMPI PUSH2 0x3179 PUSH2 0x2AA9 JUMP JUMPDEST JUMPDEST PUSH0 PUSH2 0x3187 DUP8 DUP3 DUP9 ADD PUSH2 0x2CDA JUMP JUMPDEST SWAP5 POP POP PUSH1 0x20 PUSH2 0x3198 DUP8 DUP3 DUP9 ADD PUSH2 0x2CDA JUMP JUMPDEST SWAP4 POP POP PUSH1 0x40 PUSH2 0x31A9 DUP8 DUP3 DUP9 ADD PUSH2 0x2C2D JUMP JUMPDEST SWAP3 POP POP PUSH1 0x60 DUP6 ADD CALLDATALOAD PUSH8 0xFFFFFFFFFFFFFFFF DUP2 GT ISZERO PUSH2 0x31CA JUMPI PUSH2 0x31C9 PUSH2 0x2AAD JUMP JUMPDEST JUMPDEST PUSH2 0x31D6 DUP8 DUP3 DUP9 ADD PUSH2 0x3135 JUMP JUMPDEST SWAP2 POP POP SWAP3 SWAP6 SWAP2 SWAP5 POP SWAP3 POP JUMP JUMPDEST PUSH0 PUSH1 0x20 DUP3 DUP5 SUB SLT ISZERO PUSH2 0x31F7 JUMPI PUSH2 0x31F6 PUSH2 0x2AA9 JUMP JUMPDEST JUMPDEST PUSH0 PUSH2 0x3204 DUP5 DUP3 DUP6 ADD PUSH2 0x2FBF JUMP JUMPDEST SWAP2 POP POP SWAP3 SWAP2 POP POP JUMP JUMPDEST PUSH0 PUSH8 0xFFFFFFFFFFFFFFFF DUP3 GT ISZERO PUSH2 0x3227 JUMPI PUSH2 0x3226 PUSH2 0x2DDD JUMP JUMPDEST JUMPDEST PUSH1 0x20 DUP3 MUL SWAP1 POP PUSH1 0x20 DUP2 ADD SWAP1 POP SWAP2 SWAP1 POP JUMP JUMPDEST PUSH0 DUP1 REVERT JUMPDEST PUSH0 PUSH2 0x324E PUSH2 0x3249 DUP5 PUSH2 0x320D JUMP JUMPDEST PUSH2 0x2E3B JUMP JUMPDEST SWAP1 POP DUP1 DUP4 DUP3 MSTORE PUSH1 0x20 DUP3 ADD SWAP1 POP PUSH1 0x20 DUP5 MUL DUP4 ADD DUP6 DUP2 GT ISZERO PUSH2 0x3271 JUMPI PUSH2 0x3270 PUSH2 0x3238 JUMP JUMPDEST JUMPDEST DUP4 JUMPDEST DUP2 DUP2 LT ISZERO PUSH2 0x329A JUMPI DUP1 PUSH2 0x3286 DUP9 DUP3 PUSH2 0x2FBF JUMP JUMPDEST DUP5 MSTORE PUSH1 0x20 DUP5 ADD SWAP4 POP POP PUSH1 0x20 DUP2 ADD SWAP1 POP PUSH2 0x3273 JUMP JUMPDEST POP POP POP SWAP4 SWAP3 POP POP POP JUMP JUMPDEST PUSH0 DUP3 PUSH1 0x1F DUP4 ADD SLT PUSH2 0x32B8 JUMPI PUSH2 0x32B7 PUSH2 0x2DD5 JUMP JUMPDEST JUMPDEST DUP2 CALLDATALOAD PUSH2 0x32C8 DUP5 DUP3 PUSH1 0x20 DUP7 ADD PUSH2 0x323C JUMP JUMPDEST SWAP2 POP POP SWAP3 SWAP2 POP POP JUMP JUMPDEST PUSH0 DUP1 PUSH0 DUP1 PUSH1 0x80 DUP6 DUP8 SUB SLT ISZERO PUSH2 0x32E9 JUMPI PUSH2 0x32E8 PUSH2 0x2AA9 JUMP JUMPDEST JUMPDEST PUSH0 PUSH2 0x32F6 DUP8 DUP3 DUP9 ADD PUSH2 0x2C2D JUMP JUMPDEST SWAP5 POP POP PUSH1 0x20 PUSH2 0x3307 DUP8 DUP3 DUP9 ADD PUSH2 0x2CDA JUMP JUMPDEST SWAP4 POP POP PUSH1 0x40 PUSH2 0x3318 DUP8 DUP3 DUP9 ADD PUSH2 0x2C2D JUMP JUMPDEST SWAP3 POP POP PUSH1 0x60 DUP6 ADD CALLDATALOAD PUSH8 0xFFFFFFFFFFFFFFFF DUP2 GT ISZERO PUSH2 0x3339 JUMPI PUSH2 0x3338 PUSH2 0x2AAD JUMP JUMPDEST JUMPDEST PUSH2 0x3345 DUP8 DUP3 DUP9 ADD PUSH2 0x32A4 JUMP JUMPDEST SWAP2 POP POP SWAP3 SWAP6 SWAP2 SWAP5 POP SWAP3 POP JUMP JUMPDEST PUSH0 DUP1 PUSH1 0x40 DUP4 DUP6 SUB SLT ISZERO PUSH2 0x3367 JUMPI PUSH2 0x3366 PUSH2 0x2AA9 JUMP JUMPDEST JUMPDEST PUSH0 PUSH2 0x3374 DUP6 DUP3 DUP7 ADD PUSH2 0x2CDA JUMP JUMPDEST SWAP3 POP POP PUSH1 0x20 PUSH2 0x3385 DUP6 DUP3 DUP7 ADD PUSH2 0x2CDA JUMP JUMPDEST SWAP2 POP POP SWAP3 POP SWAP3 SWAP1 POP JUMP JUMPDEST PUSH32 0x4E487B7100000000000000000000000000000000000000000000000000000000 PUSH0 MSTORE PUSH1 0x22 PUSH1 0x4 MSTORE PUSH1 0x24 PUSH0 REVERT JUMPDEST PUSH0 PUSH1 0x2 DUP3 DIV SWAP1 POP PUSH1 0x1 DUP3 AND DUP1 PUSH2 0x33D3 JUMPI PUSH1 0x7F DUP3 AND SWAP2 POP JUMPDEST PUSH1 0x20 DUP3 LT DUP2 SUB PUSH2 0x33E6 JUMPI PUSH2 0x33E5 PUSH2 0x338F JUMP JUMPDEST JUMPDEST POP SWAP2 SWAP1 POP JUMP JUMPDEST PUSH32 0x4552433732313A20617070726F76616C20746F2063757272656E74206F776E65 PUSH0 DUP3 ADD MSTORE PUSH32 0x7200000000000000000000000000000000000000000000000000000000000000 PUSH1 0x20 DUP3 ADD MSTORE POP JUMP JUMPDEST PUSH0 PUSH2 0x3446 PUSH1 0x21 DUP4 PUSH2 0x2B6E JUMP JUMPDEST SWAP2 POP PUSH2 0x3451 DUP3 PUSH2 0x33EC JUMP JUMPDEST PUSH1 0x40 DUP3 ADD SWAP1 POP SWAP2 SWAP1 POP JUMP JUMPDEST PUSH0 PUSH1 0x20 DUP3 ADD SWAP1 POP DUP2 DUP2 SUB PUSH0 DUP4 ADD MSTORE PUSH2 0x3473 DUP2 PUSH2 0x343A JUMP JUMPDEST SWAP1 POP SWAP2 SWAP1 POP JUMP JUMPDEST PUSH32 0x4552433732313A20617070726F76652063616C6C6572206973206E6F7420746F PUSH0 DUP3 ADD MSTORE PUSH32 0x6B656E206F776E6572206F7220617070726F76656420666F7220616C6C000000 PUSH1 0x20 DUP3 ADD MSTORE POP JUMP JUMPDEST PUSH0 PUSH2 0x34D4 PUSH1 0x3D DUP4 PUSH2 0x2B6E JUMP JUMPDEST SWAP2 POP PUSH2 0x34DF DUP3 PUSH2 0x347A JUMP JUMPDEST PUSH1 0x40 DUP3 ADD SWAP1 POP SWAP2 SWAP1 POP JUMP JUMPDEST PUSH0 PUSH1 0x20 DUP3 ADD SWAP1 POP DUP2 DUP2 SUB PUSH0 DUP4 ADD MSTORE PUSH2 0x3501 DUP2 PUSH2 0x34C8 JUMP JUMPDEST SWAP1 POP SWAP2 SWAP1 POP JUMP JUMPDEST PUSH32 0x4552433732313A2063616C6C6572206973206E6F7420746F6B656E206F776E65 PUSH0 DUP3 ADD MSTORE PUSH32 0x72206F7220617070726F76656400000000000000000000000000000000000000 PUSH1 0x20 DUP3 ADD MSTORE POP JUMP JUMPDEST PUSH0 PUSH2 0x3562 PUSH1 0x2D DUP4 PUSH2 0x2B6E JUMP JUMPDEST SWAP2 POP PUSH2 0x356D DUP3 PUSH2 0x3508 JUMP JUMPDEST PUSH1 0x40 DUP3 ADD SWAP1 POP SWAP2 SWAP1 POP JUMP JUMPDEST PUSH0 PUSH1 0x20 DUP3 ADD SWAP1 POP DUP2 DUP2 SUB PUSH0 DUP4 ADD MSTORE PUSH2 0x358F DUP2 PUSH2 0x3556 JUMP JUMPDEST SWAP1 POP SWAP2 SWAP1 POP JUMP JUMPDEST PUSH32 0x455243373231456E756D657261626C653A206F776E657220696E646578206F75 PUSH0 DUP3 ADD MSTORE PUSH32 0x74206F6620626F756E6473000000000000000000000000000000000000000000 PUSH1 0x20 DUP3 ADD MSTORE POP JUMP JUMPDEST PUSH0 PUSH2 0x35F0 PUSH1 0x2B DUP4 PUSH2 0x2B6E JUMP JUMPDEST SWAP2 POP PUSH2 0x35FB DUP3 PUSH2 0x3596 JUMP JUMPDEST PUSH1 0x40 DUP3 ADD SWAP1 POP SWAP2 SWAP1 POP JUMP JUMPDEST PUSH0 PUSH1 0x20 DUP3 ADD SWAP1 POP DUP2 DUP2 SUB PUSH0 DUP4 ADD MSTORE PUSH2 0x361D DUP2 PUSH2 0x35E4 JUMP JUMPDEST SWAP1 POP SWAP2 SWAP1 POP JUMP JUMPDEST PUSH0 DUP2 SWAP1 POP SWAP2 SWAP1 POP JUMP JUMPDEST PUSH0 DUP2 SWAP1 POP SWAP2 SWAP1 POP JUMP JUMPDEST PUSH0 PUSH2 0x3650 PUSH2 0x364B PUSH2 0x3646 DUP5 PUSH2 0x3624 JUMP JUMPDEST PUSH2 0x362D JUMP JUMPDEST PUSH2 0x2C0E JUMP JUMPDEST SWAP1 POP SWAP2 SWAP1 POP JUMP JUMPDEST PUSH2 0x3660 DUP2 PUSH2 0x3636 JUMP JUMPDEST DUP3 MSTORE POP POP JUMP JUMPDEST PUSH0 PUSH1 0xA0 DUP3 ADD SWAP1 POP PUSH2 0x3679 PUSH0 DUP4 ADD DUP9 PUSH2 0x3657 JUMP JUMPDEST PUSH2 0x3686 PUSH1 0x20 DUP4 ADD DUP8 PUSH2 0x2DAD JUMP JUMPDEST PUSH2 0x3693 PUSH1 0x40 DUP4 ADD DUP7 PUSH2 0x2DAD JUMP JUMPDEST PUSH2 0x36A0 PUSH1 0x60 DUP4 ADD DUP6 PUSH2 0x2D2C JUMP JUMPDEST PUSH2 0x36AD PUSH1 0x80 DUP4 ADD DUP5 PUSH2 0x2C9C JUMP JUMPDEST SWAP7 SWAP6 POP POP POP POP POP POP JUMP JUMPDEST PUSH32 0x455243373231456E756D657261626C653A20676C6F62616C20696E646578206F PUSH0 DUP3 ADD MSTORE PUSH32 0x7574206F6620626F756E64730000000000000000000000000000000000000000 PUSH1 0x20 DUP3 ADD MSTORE POP JUMP JUMPDEST PUSH0 PUSH2 0x3711 PUSH1 0x2C DUP4 PUSH2 0x2B6E JUMP JUMPDEST SWAP2 POP PUSH2 0x371C DUP3 PUSH2 0x36B7 JUMP JUMPDEST PUSH1 0x40 DUP3 ADD SWAP1 POP SWAP2 SWAP1 POP JUMP JUMPDEST PUSH0 PUSH1 0x20 DUP3 ADD SWAP1 POP DUP2 DUP2 SUB PUSH0 DUP4 ADD MSTORE PUSH2 0x373E DUP2 PUSH2 0x3705 JUMP JUMPDEST SWAP1 POP SWAP2 SWAP1 POP JUMP JUMPDEST PUSH32 0x4E487B7100000000000000000000000000000000000000000000000000000000 PUSH0 MSTORE PUSH1 0x32 PUSH1 0x4 MSTORE PUSH1 0x24 PUSH0 REVERT JUMPDEST PUSH32 0x4552433732313A20696E76616C696420746F6B656E2049440000000000000000 PUSH0 DUP3 ADD MSTORE POP JUMP JUMPDEST PUSH0 PUSH2 0x37A6 PUSH1 0x18 DUP4 PUSH2 0x2B6E JUMP JUMPDEST SWAP2 POP PUSH2 0x37B1 DUP3 PUSH2 0x3772 JUMP JUMPDEST PUSH1 0x20 DUP3 ADD SWAP1 POP SWAP2 SWAP1 POP JUMP JUMPDEST PUSH0 PUSH1 0x20 DUP3 ADD SWAP1 POP DUP2 DUP2 SUB PUSH0 DUP4 ADD MSTORE PUSH2 0x37D3 DUP2 PUSH2 0x379A JUMP JUMPDEST SWAP1 POP SWAP2 SWAP1 POP JUMP JUMPDEST PUSH32 0x4552433732313A2061646472657373207A65726F206973206E6F742061207661 PUSH0 DUP3 ADD MSTORE PUSH32 0x6C6964206F776E65720000000000000000000000000000000000000000000000 PUSH1 0x20 DUP3 ADD MSTORE POP JUMP JUMPDEST PUSH0 PUSH2 0x3834 PUSH1 0x29 DUP4 PUSH2 0x2B6E JUMP JUMPDEST SWAP2 POP PUSH2 0x383F DUP3 PUSH2 0x37DA JUMP JUMPDEST PUSH1 0x40 DUP3 ADD SWAP1 POP SWAP2 SWAP1 POP JUMP JUMPDEST PUSH0 PUSH1 0x20 DUP3 ADD SWAP1 POP DUP2 DUP2 SUB PUSH0 DUP4 ADD MSTORE PUSH2 0x3861 DUP2 PUSH2 0x3828 JUMP JUMPDEST SWAP1 POP SWAP2 SWAP1 POP JUMP JUMPDEST PUSH32 0x5065726D69742065787069726564000000000000000000000000000000000000 PUSH0 DUP3 ADD MSTORE POP JUMP JUMPDEST PUSH0 PUSH2 0x389C PUSH1 0xE DUP4 PUSH2 0x2B6E JUMP JUMPDEST SWAP2 POP PUSH2 0x38A7 DUP3 PUSH2 0x3868 JUMP JUMPDEST PUSH1 0x20 DUP3 ADD SWAP1 POP SWAP2 SWAP1 POP JUMP JUMPDEST PUSH0 PUSH1 0x20 DUP3 ADD SWAP1 POP DUP2 DUP2 SUB PUSH0 DUP4 ADD MSTORE PUSH2 0x38C9 DUP2 PUSH2 0x3890 JUMP JUMPDEST SWAP1 POP SWAP2 SWAP1 POP JUMP JUMPDEST PUSH0 PUSH1 0xA0 DUP3 ADD SWAP1 POP PUSH2 0x38E3 PUSH0 DUP4 ADD DUP9 PUSH2 0x2DAD JUMP JUMPDEST PUSH2 0x38F0 PUSH1 0x20 DUP4 ADD DUP8 PUSH2 0x2C9C JUMP JUMPDEST PUSH2 0x38FD PUSH1 0x40 DUP4 ADD DUP7 PUSH2 0x2D2C JUMP JUMPDEST PUSH2 0x390A PUSH1 0x60 DUP4 ADD DUP6 PUSH2 0x2D2C JUMP JUMPDEST PUSH2 0x3917 PUSH1 0x80 DUP4 ADD DUP5 PUSH2 0x2D2C JUMP JUMPDEST SWAP7 SWAP6 POP POP POP POP POP POP JUMP JUMPDEST PUSH0 DUP2 SWAP1 POP SWAP3 SWAP2 POP POP JUMP JUMPDEST PUSH32 0x1901000000000000000000000000000000000000000000000000000000000000 PUSH0 DUP3 ADD MSTORE POP JUMP JUMPDEST PUSH0 PUSH2 0x395F PUSH1 0x2 DUP4 PUSH2 0x3921 JUMP JUMPDEST SWAP2 POP PUSH2 0x396A DUP3 PUSH2 0x392B JUMP JUMPDEST PUSH1 0x2 DUP3 ADD SWAP1 POP SWAP2 SWAP1 POP JUMP JUMPDEST PUSH0 DUP2 SWAP1 POP SWAP2 SWAP1 POP JUMP JUMPDEST PUSH2 0x398F PUSH2 0x398A DUP3 PUSH2 0x2DA4 JUMP JUMPDEST PUSH2 0x3975 JUMP JUMPDEST DUP3 MSTORE POP POP JUMP JUMPDEST PUSH0 PUSH2 0x399F DUP3 PUSH2 0x3953 JUMP JUMPDEST SWAP2 POP PUSH2 0x39AB DUP3 DUP6 PUSH2 0x397E JUMP JUMPDEST PUSH1 0x20 DUP3 ADD SWAP2 POP PUSH2 0x39BB DUP3 DUP5 PUSH2 0x397E JUMP JUMPDEST PUSH1 0x20 DUP3 ADD SWAP2 POP DUP2 SWAP1 POP SWAP4 SWAP3 POP POP POP JUMP JUMPDEST PUSH32 0x4552433732315065726D69743A20617070726F76616C20746F2063757272656E PUSH0 DUP3 ADD MSTORE PUSH32 0x74206F776E657200000000000000000000000000000000000000000000000000 PUSH1 0x20 DUP3 ADD MSTORE POP JUMP JUMPDEST PUSH0 PUSH2 0x3A25 PUSH1 0x27 DUP4 PUSH2 0x2B6E JUMP JUMPDEST SWAP2 POP PUSH2 0x3A30 DUP3 PUSH2 0x39CB JUMP JUMPDEST PUSH1 0x40 DUP3 ADD SWAP1 POP SWAP2 SWAP1 POP JUMP JUMPDEST PUSH0 PUSH1 0x20 DUP3 ADD SWAP1 POP DUP2 DUP2 SUB PUSH0 DUP4 ADD MSTORE PUSH2 0x3A52 DUP2 PUSH2 0x3A19 JUMP JUMPDEST SWAP1 POP SWAP2 SWAP1 POP JUMP JUMPDEST PUSH0 DUP2 PUSH1 0xF8 SHL SWAP1 POP SWAP2 SWAP1 POP JUMP JUMPDEST PUSH0 PUSH2 0x3A6F DUP3 PUSH2 0x3A59 JUMP JUMPDEST SWAP1 POP SWAP2 SWAP1 POP JUMP JUMPDEST PUSH2 0x3A87 PUSH2 0x3A82 DUP3 PUSH2 0x2F73 JUMP JUMPDEST PUSH2 0x3A65 JUMP JUMPDEST DUP3 MSTORE POP POP JUMP JUMPDEST PUSH0 PUSH2 0x3A98 DUP3 DUP7 PUSH2 0x397E JUMP JUMPDEST PUSH1 0x20 DUP3 ADD SWAP2 POP PUSH2 0x3AA8 DUP3 DUP6 PUSH2 0x397E JUMP JUMPDEST PUSH1 0x20 DUP3 ADD SWAP2 POP PUSH2 0x3AB8 DUP3 DUP5 PUSH2 0x3A76 JUMP JUMPDEST PUSH1 0x1 DUP3 ADD SWAP2 POP DUP2 SWAP1 POP SWAP5 SWAP4 POP POP POP POP JUMP JUMPDEST PUSH0 DUP2 MLOAD SWAP1 POP SWAP2 SWAP1 POP JUMP JUMPDEST PUSH0 DUP3 DUP3 MSTORE PUSH1 0x20 DUP3 ADD SWAP1 POP SWAP3 SWAP2 POP POP JUMP JUMPDEST PUSH0 PUSH2 0x3AED DUP3 PUSH2 0x3AC9 JUMP JUMPDEST PUSH2 0x3AF7 DUP2 DUP6 PUSH2 0x3AD3 JUMP JUMPDEST SWAP4 POP PUSH2 0x3B07 DUP2 DUP6 PUSH1 0x20 DUP7 ADD PUSH2 0x2B7E JUMP JUMPDEST PUSH2 0x3B10 DUP2 PUSH2 0x2BA6 JUMP JUMPDEST DUP5 ADD SWAP2 POP POP SWAP3 SWAP2 POP POP JUMP JUMPDEST PUSH0 PUSH1 0x40 DUP3 ADD SWAP1 POP PUSH2 0x3B2E PUSH0 DUP4 ADD DUP6 PUSH2 0x2DAD JUMP JUMPDEST DUP2 DUP2 SUB PUSH1 0x20 DUP4 ADD MSTORE PUSH2 0x3B40 DUP2 DUP5 PUSH2 0x3AE3 JUMP JUMPDEST SWAP1 POP SWAP4 SWAP3 POP POP POP JUMP JUMPDEST PUSH0 DUP2 MLOAD SWAP1 POP PUSH2 0x3B57 DUP2 PUSH2 0x2ADC JUMP JUMPDEST SWAP3 SWAP2 POP POP JUMP JUMPDEST PUSH0 PUSH1 0x20 DUP3 DUP5 SUB SLT ISZERO PUSH2 0x3B72 JUMPI PUSH2 0x3B71 PUSH2 0x2AA9 JUMP JUMPDEST JUMPDEST PUSH0 PUSH2 0x3B7F DUP5 DUP3 DUP6 ADD PUSH2 0x3B49 JUMP JUMPDEST SWAP2 POP POP SWAP3 SWAP2 POP POP JUMP JUMPDEST PUSH32 0x556E617574686F72697A65640000000000000000000000000000000000000000 PUSH0 DUP3 ADD MSTORE POP JUMP JUMPDEST PUSH0 PUSH2 0x3BBC PUSH1 0xC DUP4 PUSH2 0x2B6E JUMP JUMPDEST SWAP2 POP PUSH2 0x3BC7 DUP3 PUSH2 0x3B88 JUMP JUMPDEST PUSH1 0x20 DUP3 ADD SWAP1 POP SWAP2 SWAP1 POP JUMP JUMPDEST PUSH0 PUSH1 0x20 DUP3 ADD SWAP1 POP DUP2 DUP2 SUB PUSH0 DUP4 ADD MSTORE PUSH2 0x3BE9 DUP2 PUSH2 0x3BB0 JUMP JUMPDEST SWAP1 POP SWAP2 SWAP1 POP JUMP JUMPDEST PUSH2 0x3BF9 DUP2 PUSH2 0x2F73 JUMP JUMPDEST DUP3 MSTORE POP POP JUMP JUMPDEST PUSH0 PUSH1 0x80 DUP3 ADD SWAP1 POP PUSH2 0x3C12 PUSH0 DUP4 ADD DUP8 PUSH2 0x2DAD JUMP JUMPDEST PUSH2 0x3C1F PUSH1 0x20 DUP4 ADD DUP7 PUSH2 0x3BF0 JUMP JUMPDEST PUSH2 0x3C2C PUSH1 0x40 DUP4 ADD DUP6 PUSH2 0x2DAD JUMP JUMPDEST PUSH2 0x3C39 PUSH1 0x60 DUP4 ADD DUP5 PUSH2 0x2DAD JUMP JUMPDEST SWAP6 SWAP5 POP POP POP POP POP JUMP JUMPDEST PUSH32 0x496E76616C6964207369676E6174757265000000000000000000000000000000 PUSH0 DUP3 ADD MSTORE POP JUMP JUMPDEST PUSH0 PUSH2 0x3C76 PUSH1 0x11 DUP4 PUSH2 0x2B6E JUMP JUMPDEST SWAP2 POP PUSH2 0x3C81 DUP3 PUSH2 0x3C42 JUMP JUMPDEST PUSH1 0x20 DUP3 ADD SWAP1 POP SWAP2 SWAP1 POP JUMP JUMPDEST PUSH0 PUSH1 0x20 DUP3 ADD SWAP1 POP DUP2 DUP2 SUB PUSH0 DUP4 ADD MSTORE PUSH2 0x3CA3 DUP2 PUSH2 0x3C6A JUMP JUMPDEST SWAP1 POP SWAP2 SWAP1 POP JUMP JUMPDEST PUSH0 PUSH2 0x3CB4 DUP3 PUSH2 0x2B64 JUMP JUMPDEST PUSH2 0x3CBE DUP2 DUP6 PUSH2 0x3921 JUMP JUMPDEST SWAP4 POP PUSH2 0x3CCE DUP2 DUP6 PUSH1 0x20 DUP7 ADD PUSH2 0x2B7E JUMP JUMPDEST DUP1 DUP5 ADD SWAP2 POP POP SWAP3 SWAP2 POP POP JUMP JUMPDEST PUSH0 PUSH2 0x3CE5 DUP3 DUP6 PUSH2 0x3CAA JUMP JUMPDEST SWAP2 POP PUSH2 0x3CF1 DUP3 DUP5 PUSH2 0x3CAA JUMP JUMPDEST SWAP2 POP DUP2 SWAP1 POP SWAP4 SWAP3 POP POP POP JUMP JUMPDEST PUSH32 0x4F776E61626C653A206E6577206F776E657220697320746865207A65726F2061 PUSH0 DUP3 ADD MSTORE PUSH32 0x6464726573730000000000000000000000000000000000000000000000000000 PUSH1 0x20 DUP3 ADD MSTORE POP JUMP JUMPDEST PUSH0 PUSH2 0x3D57 PUSH1 0x26 DUP4 PUSH2 0x2B6E JUMP JUMPDEST SWAP2 POP PUSH2 0x3D62 DUP3 PUSH2 0x3CFD JUMP JUMPDEST PUSH1 0x40 DUP3 ADD SWAP1 POP SWAP2 SWAP1 POP JUMP JUMPDEST PUSH0 PUSH1 0x20 DUP3 ADD SWAP1 POP DUP2 DUP2 SUB PUSH0 DUP4 ADD MSTORE PUSH2 0x3D84 DUP2 PUSH2 0x3D4B JUMP JUMPDEST SWAP1 POP SWAP2 SWAP1 POP JUMP JUMPDEST PUSH32 0x4552433732313A207472616E736665722066726F6D20696E636F727265637420 PUSH0 DUP3 ADD MSTORE PUSH32 0x6F776E6572000000000000000000000000000000000000000000000000000000 PUSH1 0x20 DUP3 ADD MSTORE POP JUMP JUMPDEST PUSH0 PUSH2 0x3DE5 PUSH1 0x25 DUP4 PUSH2 0x2B6E JUMP JUMPDEST SWAP2 POP PUSH2 0x3DF0 DUP3 PUSH2 0x3D8B JUMP JUMPDEST PUSH1 0x40 DUP3 ADD SWAP1 POP SWAP2 SWAP1 POP JUMP JUMPDEST PUSH0 PUSH1 0x20 DUP3 ADD SWAP1 POP DUP2 DUP2 SUB PUSH0 DUP4 ADD MSTORE PUSH2 0x3E12 DUP2 PUSH2 0x3DD9 JUMP JUMPDEST SWAP1 POP SWAP2 SWAP1 POP JUMP JUMPDEST PUSH32 0x4552433732313A207472616E7366657220746F20746865207A65726F20616464 PUSH0 DUP3 ADD MSTORE PUSH32 0x7265737300000000000000000000000000000000000000000000000000000000 PUSH1 0x20 DUP3 ADD MSTORE POP JUMP JUMPDEST PUSH0 PUSH2 0x3E73 PUSH1 0x24 DUP4 PUSH2 0x2B6E JUMP JUMPDEST SWAP2 POP PUSH2 0x3E7E DUP3 PUSH2 0x3E19 JUMP JUMPDEST PUSH1 0x40 DUP3 ADD SWAP1 POP SWAP2 SWAP1 POP JUMP JUMPDEST PUSH0 PUSH1 0x20 DUP3 ADD SWAP1 POP DUP2 DUP2 SUB PUSH0 DUP4 ADD MSTORE PUSH2 0x3EA0 DUP2 PUSH2 0x3E67 JUMP JUMPDEST SWAP1 POP SWAP2 SWAP1 POP JUMP JUMPDEST PUSH32 0x4F776E61626C653A2063616C6C6572206973206E6F7420746865206F776E6572 PUSH0 DUP3 ADD MSTORE POP JUMP JUMPDEST PUSH0 PUSH2 0x3EDB PUSH1 0x20 DUP4 PUSH2 0x2B6E JUMP JUMPDEST SWAP2 POP PUSH2 0x3EE6 DUP3 PUSH2 0x3EA7 JUMP JUMPDEST PUSH1 0x20 DUP3 ADD SWAP1 POP SWAP2 SWAP1 POP JUMP JUMPDEST PUSH0 PUSH1 0x20 DUP3 ADD SWAP1 POP DUP2 DUP2 SUB PUSH0 DUP4 ADD MSTORE PUSH2 0x3F08 DUP2 PUSH2 0x3ECF JUMP JUMPDEST SWAP1 POP SWAP2 SWAP1 POP JUMP JUMPDEST PUSH32 0x4552433732313A206D696E7420746F20746865207A65726F2061646472657373 PUSH0 DUP3 ADD MSTORE POP JUMP JUMPDEST PUSH0 PUSH2 0x3F43 PUSH1 0x20 DUP4 PUSH2 0x2B6E JUMP JUMPDEST SWAP2 POP PUSH2 0x3F4E DUP3 PUSH2 0x3F0F JUMP JUMPDEST PUSH1 0x20 DUP3 ADD SWAP1 POP SWAP2 SWAP1 POP JUMP JUMPDEST PUSH0 PUSH1 0x20 DUP3 ADD SWAP1 POP DUP2 DUP2 SUB PUSH0 DUP4 ADD MSTORE PUSH2 0x3F70 DUP2 PUSH2 0x3F37 JUMP JUMPDEST SWAP1 POP SWAP2 SWAP1 POP JUMP JUMPDEST PUSH32 0x4552433732313A20746F6B656E20616C7265616479206D696E74656400000000 PUSH0 DUP3 ADD MSTORE POP JUMP JUMPDEST PUSH0 PUSH2 0x3FAB PUSH1 0x1C DUP4 PUSH2 0x2B6E JUMP JUMPDEST SWAP2 POP PUSH2 0x3FB6 DUP3 PUSH2 0x3F77 JUMP JUMPDEST PUSH1 0x20 DUP3 ADD SWAP1 POP SWAP2 SWAP1 POP JUMP JUMPDEST PUSH0 PUSH1 0x20 DUP3 ADD SWAP1 POP DUP2 DUP2 SUB PUSH0 DUP4 ADD MSTORE PUSH2 0x3FD8 DUP2 PUSH2 0x3F9F JUMP JUMPDEST SWAP1 POP SWAP2 SWAP1 POP JUMP JUMPDEST PUSH0 DUP2 SWAP1 POP DUP2 PUSH0 MSTORE PUSH1 0x20 PUSH0 KECCAK256 SWAP1 POP SWAP2 SWAP1 POP JUMP JUMPDEST PUSH0 PUSH1 0x20 PUSH1 0x1F DUP4 ADD DIV SWAP1 POP SWAP2 SWAP1 POP JUMP JUMPDEST PUSH0 DUP3 DUP3 SHL SWAP1 POP SWAP3 SWAP2 POP POP JUMP JUMPDEST PUSH0 PUSH1 0x8 DUP4 MUL PUSH2 0x403B PUSH32 0xFFFFFFFFFFFFFFFFFFFFFFFFFFFFFFFFFFFFFFFFFFFFFFFFFFFFFFFFFFFFFFFF DUP3 PUSH2 0x4000 JUMP JUMPDEST PUSH2 0x4045 DUP7 DUP4 PUSH2 0x4000 JUMP JUMPDEST SWAP6 POP DUP1 NOT DUP5 AND SWAP4 POP DUP1 DUP7 AND DUP5 OR SWAP3 POP POP POP SWAP4 SWAP3 POP POP POP JUMP JUMPDEST PUSH0 PUSH2 0x4077 PUSH2 0x4072 PUSH2 0x406D DUP5 PUSH2 0x2C0E JUMP JUMPDEST PUSH2 0x362D JUMP JUMPDEST PUSH2 0x2C0E JUMP JUMPDEST SWAP1 POP SWAP2 SWAP1 POP JUMP JUMPDEST PUSH0 DUP2 SWAP1 POP SWAP2 SWAP1 POP JUMP JUMPDEST PUSH2 0x4090 DUP4 PUSH2 0x405D JUMP JUMPDEST PUSH2 0x40A4 PUSH2 0x409C DUP3 PUSH2 0x407E JUMP JUMPDEST DUP5 DUP5 SLOAD PUSH2 0x400C JUMP JUMPDEST DUP3 SSTORE POP POP POP POP JUMP JUMPDEST PUSH0 SWAP1 JUMP JUMPDEST PUSH2 0x40B8 PUSH2 0x40AC JUMP JUMPDEST PUSH2 0x40C3 DUP2 DUP5 DUP5 PUSH2 0x4087 JUMP JUMPDEST POP POP POP JUMP JUMPDEST JUMPDEST DUP2 DUP2 LT ISZERO PUSH2 0x40E6 JUMPI PUSH2 0x40DB PUSH0 DUP3 PUSH2 0x40B0 JUMP JUMPDEST PUSH1 0x1 DUP2 ADD SWAP1 POP PUSH2 0x40C9 JUMP JUMPDEST POP POP JUMP JUMPDEST PUSH1 0x1F DUP3 GT ISZERO PUSH2 0x412B JUMPI PUSH2 0x40FC DUP2 PUSH2 0x3FDF JUMP JUMPDEST PUSH2 0x4105 DUP5 PUSH2 0x3FF1 JUMP JUMPDEST DUP2 ADD PUSH1 0x20 DUP6 LT ISZERO PUSH2 0x4114 JUMPI DUP2 SWAP1 POP JUMPDEST PUSH2 0x4128 PUSH2 0x4120 DUP6 PUSH2 0x3FF1 JUMP JUMPDEST DUP4 ADD DUP3 PUSH2 0x40C8 JUMP JUMPDEST POP POP JUMPDEST POP POP POP JUMP JUMPDEST PUSH0 DUP3 DUP3 SHR SWAP1 POP SWAP3 SWAP2 POP POP JUMP JUMPDEST PUSH0 PUSH2 0x414B PUSH0 NOT DUP5 PUSH1 0x8 MUL PUSH2 0x4130 JUMP JUMPDEST NOT DUP1 DUP4 AND SWAP2 POP POP SWAP3 SWAP2 POP POP JUMP JUMPDEST PUSH0 PUSH2 0x4163 DUP4 DUP4 PUSH2 0x413C JUMP JUMPDEST SWAP2 POP DUP3 PUSH1 0x2 MUL DUP3 OR SWAP1 POP SWAP3 SWAP2 POP POP JUMP JUMPDEST PUSH2 0x417C DUP3 PUSH2 0x2B64 JUMP JUMPDEST PUSH8 0xFFFFFFFFFFFFFFFF DUP2 GT ISZERO PUSH2 0x4195 JUMPI PUSH2 0x4194 PUSH2 0x2DDD JUMP JUMPDEST JUMPDEST PUSH2 0x419F DUP3 SLOAD PUSH2 0x33BC JUMP JUMPDEST PUSH2 0x41AA DUP3 DUP3 DUP6 PUSH2 0x40EA JUMP JUMPDEST PUSH0 PUSH1 0x20 SWAP1 POP PUSH1 0x1F DUP4 GT PUSH1 0x1 DUP2 EQ PUSH2 0x41DB JUMPI PUSH0 DUP5 ISZERO PUSH2 0x41C9 JUMPI DUP3 DUP8 ADD MLOAD SWAP1 POP JUMPDEST PUSH2 0x41D3 DUP6 DUP3 PUSH2 0x4158 JUMP JUMPDEST DUP7 SSTORE POP PUSH2 0x423A JUMP JUMPDEST PUSH1 0x1F NOT DUP5 AND PUSH2 0x41E9 DUP7 PUSH2 0x3FDF JUMP JUMPDEST PUSH0 JUMPDEST DUP3 DUP2 LT ISZERO PUSH2 0x4210 JUMPI DUP5 DUP10 ADD MLOAD DUP3 SSTORE PUSH1 0x1 DUP3 ADD SWAP2 POP PUSH1 0x20 DUP6 ADD SWAP5 POP PUSH1 0x20 DUP2 ADD SWAP1 POP PUSH2 0x41EB JUMP JUMPDEST DUP7 DUP4 LT ISZERO PUSH2 0x422D JUMPI DUP5 DUP10 ADD MLOAD PUSH2 0x4229 PUSH1 0x1F DUP10 AND DUP3 PUSH2 0x413C JUMP JUMPDEST DUP4 SSTORE POP JUMPDEST PUSH1 0x1 PUSH1 0x2 DUP9 MUL ADD DUP9 SSTORE POP POP POP JUMPDEST POP POP POP POP POP POP JUMP JUMPDEST PUSH32 0x4E487B7100000000000000000000000000000000000000000000000000000000 PUSH0 MSTORE PUSH1 0x11 PUSH1 0x4 MSTORE PUSH1 0x24 PUSH0 REVERT JUMPDEST PUSH0 PUSH2 0x4279 DUP3 PUSH2 0x2C0E JUMP JUMPDEST SWAP2 POP PUSH32 0xFFFFFFFFFFFFFFFFFFFFFFFFFFFFFFFFFFFFFFFFFFFFFFFFFFFFFFFFFFFFFFFF DUP3 SUB PUSH2 0x42AB JUMPI PUSH2 0x42AA PUSH2 0x4242 JUMP JUMPDEST JUMPDEST PUSH1 0x1 DUP3 ADD SWAP1 POP SWAP2 SWAP1 POP JUMP JUMPDEST PUSH32 0x4552433732313A20617070726F766520746F2063616C6C657200000000000000 PUSH0 DUP3 ADD MSTORE POP JUMP JUMPDEST PUSH0 PUSH2 0x42EA PUSH1 0x19 DUP4 PUSH2 0x2B6E JUMP JUMPDEST SWAP2 POP PUSH2 0x42F5 DUP3 PUSH2 0x42B6 JUMP JUMPDEST PUSH1 0x20 DUP3 ADD SWAP1 POP SWAP2 SWAP1 POP JUMP JUMPDEST PUSH0 PUSH1 0x20 DUP3 ADD SWAP1 POP DUP2 DUP2 SUB PUSH0 DUP4 ADD MSTORE PUSH2 0x4317 DUP2 PUSH2 0x42DE JUMP JUMPDEST SWAP1 POP SWAP2 SWAP1 POP JUMP JUMPDEST PUSH32 0x4552433732313A207472616E7366657220746F206E6F6E204552433732315265 PUSH0 DUP3 ADD MSTORE PUSH32 0x63656976657220696D706C656D656E7465720000000000000000000000000000 PUSH1 0x20 DUP3 ADD MSTORE POP JUMP JUMPDEST PUSH0 PUSH2 0x4378 PUSH1 0x32 DUP4 PUSH2 0x2B6E JUMP JUMPDEST SWAP2 POP PUSH2 0x4383 DUP3 PUSH2 0x431E JUMP JUMPDEST PUSH1 0x40 DUP3 ADD SWAP1 POP SWAP2 SWAP1 POP JUMP JUMPDEST PUSH0 PUSH1 0x20 DUP3 ADD SWAP1 POP DUP2 DUP2 SUB PUSH0 DUP4 ADD MSTORE PUSH2 0x43A5 DUP2 PUSH2 0x436C JUMP JUMPDEST SWAP1 POP SWAP2 SWAP1 POP JUMP JUMPDEST PUSH0 DUP2 SWAP1 POP SWAP2 SWAP1 POP JUMP JUMPDEST PUSH2 0x43C6 PUSH2 0x43C1 DUP3 PUSH2 0x2C0E JUMP JUMPDEST PUSH2 0x43AC JUMP JUMPDEST DUP3 MSTORE POP POP JUMP JUMPDEST PUSH0 DUP2 PUSH1 0x60 SHL SWAP1 POP SWAP2 SWAP1 POP JUMP JUMPDEST PUSH0 PUSH2 0x43E2 DUP3 PUSH2 0x43CC JUMP JUMPDEST SWAP1 POP SWAP2 SWAP1 POP JUMP JUMPDEST PUSH0 PUSH2 0x43F3 DUP3 PUSH2 0x43D8 JUMP JUMPDEST SWAP1 POP SWAP2 SWAP1 POP JUMP JUMPDEST PUSH2 0x440B PUSH2 0x4406 DUP3 PUSH2 0x2C8B JUMP JUMPDEST PUSH2 0x43E9 JUMP JUMPDEST DUP3 MSTORE POP POP JUMP JUMPDEST PUSH0 PUSH2 0x441C DUP3 DUP7 PUSH2 0x43B5 JUMP JUMPDEST PUSH1 0x20 DUP3 ADD SWAP2 POP PUSH2 0x442C DUP3 DUP6 PUSH2 0x43FA JUMP JUMPDEST PUSH1 0x14 DUP3 ADD SWAP2 POP PUSH2 0x443C DUP3 DUP5 PUSH2 0x43B5 JUMP JUMPDEST PUSH1 0x20 DUP3 ADD SWAP2 POP DUP2 SWAP1 POP SWAP5 SWAP4 POP POP POP POP JUMP JUMPDEST PUSH32 0x4E487B7100000000000000000000000000000000000000000000000000000000 PUSH0 MSTORE PUSH1 0x12 PUSH1 0x4 MSTORE PUSH1 0x24 PUSH0 REVERT JUMPDEST PUSH32 0x455243373231456E756D657261626C653A20636F6E7365637574697665207472 PUSH0 DUP3 ADD MSTORE PUSH32 0x616E7366657273206E6F7420737570706F727465640000000000000000000000 PUSH1 0x20 DUP3 ADD MSTORE POP JUMP JUMPDEST PUSH0 PUSH2 0x44D4 PUSH1 0x35 DUP4 PUSH2 0x2B6E JUMP JUMPDEST SWAP2 POP PUSH2 0x44DF DUP3 PUSH2 0x447A JUMP JUMPDEST PUSH1 0x40 DUP3 ADD SWAP1 POP SWAP2 SWAP1 POP JUMP JUMPDEST PUSH0 PUSH1 0x20 DUP3 ADD SWAP1 POP DUP2 DUP2 SUB PUSH0 DUP4 ADD MSTORE PUSH2 0x4501 DUP2 PUSH2 0x44C8 JUMP JUMPDEST SWAP1 POP SWAP2 SWAP1 POP JUMP JUMPDEST PUSH0 PUSH1 0x80 DUP3 ADD SWAP1 POP PUSH2 0x451B PUSH0 DUP4 ADD DUP8 PUSH2 0x2C9C JUMP JUMPDEST PUSH2 0x4528 PUSH1 0x20 DUP4 ADD DUP7 PUSH2 0x2C9C JUMP JUMPDEST PUSH2 0x4535 PUSH1 0x40 DUP4 ADD DUP6 PUSH2 0x2D2C JUMP JUMPDEST DUP2 DUP2 SUB PUSH1 0x60 DUP4 ADD MSTORE PUSH2 0x4547 DUP2 DUP5 PUSH2 0x3AE3 JUMP JUMPDEST SWAP1 POP SWAP6 SWAP5 POP POP POP POP POP JUMP JUMPDEST PUSH0 PUSH2 0x455C DUP3 PUSH2 0x2C0E JUMP JUMPDEST SWAP2 POP PUSH2 0x4567 DUP4 PUSH2 0x2C0E JUMP JUMPDEST SWAP3 POP DUP3 DUP3 SUB SWAP1 POP DUP2 DUP2 GT ISZERO PUSH2 0x457F JUMPI PUSH2 0x457E PUSH2 0x4242 JUMP JUMPDEST JUMPDEST SWAP3 SWAP2 POP POP JUMP JUMPDEST PUSH32 0x4E487B7100000000000000000000000000000000000000000000000000000000 PUSH0 MSTORE PUSH1 0x31 PUSH1 0x4 MSTORE PUSH1 0x24 PUSH0 REVERT INVALID LOG2 PUSH5 0x6970667358 0x22 SLT KECCAK256 DUP14 0xC1 0xB0 NUMBER PUSH18 0x1F73E7A4EEEFD56F7B874DC6EBF5B21AEC2F 0xBA 0xA5 0x2A 0xE6 KECCAK256 CREATE2 0x23 0xD0 PUSH10 0x64736F6C634300081400 CALLER PUSH10 0x7066733A2F2F62616679 PUSH3 0x656965 PUSH27 0x7062717136666176707337346572776E3335697263616532787171 PUSH5 0x6D637A786A PUSH20 0x37696D6F73646B6E3661686D75786D652F000000 "},"gasEstimates":{"creation":{"codeDepositCost":"3579200","executionCost":"infinite","totalCost":"infinite"},"external":{"DOMAIN_SEPARATOR()":"infinite","PERMIT_TYPEHASH()":"376","__baseURI()":"infinite","approve(address,uint256)":"infinite","balanceOf(address)":"2954","getApproved(uint256)":"5305","isApprovedForAll(address,address)":"infinite","isWhitelistActive()":"2591","mint(address,uint256)":"infinite","name()":"infinite","nonces(uint256)":"infinite","owner()":"2582","ownerOf(uint256)":"3029","permit(address,uint256,uint256,uint8,bytes32,bytes32)":"infinite","renounceOwnership()":"30502","safeTransferFrom(address,address,uint256)":"infinite","safeTransferFrom(address,address,uint256,bytes)":"infinite","setApprovalForAll(address,bool)":"infinite","setBaseURI(string)":"infinite","setWhitelistMerkleRoot(bytes32)":"24887","startWhitelistMint()":"26788","supportsInterface(bytes4)":"898","symbol()":"infinite","tokenByIndex(uint256)":"infinite","tokenOfOwnerByIndex(address,uint256)":"infinite","tokenURI(uint256)":"infinite","totalSupply()":"2508","transferFrom(address,address,uint256)":"infinite","transferOwnership(address)":"30841","version()":"infinite","whitelistMerkleRoot()":"2470","whitelistMint(uint256,address,uint256,bytes32[])":"infinite"},"internal":{"_baseURI()":"infinite","_getAndIncrementNonce(uint256)":"26652","_setBaseURI(string memory)":"infinite","isAddressWhitelisted(bytes32[] memory,uint256,address,uint256)":"infinite"}},"methodIdentifiers":{"DOMAIN_SEPARATOR()":"3644e515","PERMIT_TYPEHASH()":"30adf81f","__baseURI()":"6e34a482","approve(address,uint256)":"095ea7b3","balanceOf(address)":"70a08231","getApproved(uint256)":"081812fc","isApprovedForAll(address,address)":"e985e9c5","isWhitelistActive()":"524513d6","mint(address,uint256)":"40c10f19","name()":"06fdde03","nonces(uint256)":"141a468c","owner()":"8da5cb5b","ownerOf(uint256)":"6352211e","permit(address,uint256,uint256,uint8,bytes32,bytes32)":"7ac2ff7b","renounceOwnership()":"715018a6","safeTransferFrom(address,address,uint256)":"42842e0e","safeTransferFrom(address,address,uint256,bytes)":"b88d4fde","setApprovalForAll(address,bool)":"a22cb465","setBaseURI(string)":"55f804b3","setWhitelistMerkleRoot(bytes32)":"bd32fb66","startWhitelistMint()":"b70196d7","supportsInterface(bytes4)":"01ffc9a7","symbol()":"95d89b41","tokenByIndex(uint256)":"4f6ccce7","tokenOfOwnerByIndex(address,uint256)":"2f745c59","tokenURI(uint256)":"c87b56dd","totalSupply()":"18160ddd","transferFrom(address,address,uint256)":"23b872dd","transferOwnership(address)":"f2fde38b","version()":"54fd4d50","whitelistMerkleRoot()":"aa98e0c6","whitelistMint(uint256,address,uint256,bytes32[])":"bf477c16"}},"storageLayout":{"storage":[{"astId":138,"contract":"contracts/TRIS.sol:TRIS","label":"_name","offset":0,"slot":"0","type":"t_string_storage"},{"astId":140,"contract":"contracts/TRIS.sol:TRIS","label":"_symbol","offset":0,"slot":"1","type":"t_string_storage"},{"astId":144,"contract":"contracts/TRIS.sol:TRIS","label":"_owners","offset":0,"slot":"2","type":"t_mapping(t_uint256,t_address)"},{"astId":148,"contract":"contracts/TRIS.sol:TRIS","label":"_balances","offset":0,"slot":"3","type":"t_mapping(t_address,t_uint256)"},{"astId":152,"contract":"contracts/TRIS.sol:TRIS","label":"_tokenApprovals","offset":0,"slot":"4","type":"t_mapping(t_uint256,t_address)"},{"astId":158,"contract":"contracts/TRIS.sol:TRIS","label":"_operatorApprovals","offset":0,"slot":"5","type":"t_mapping(t_address,t_mapping(t_address,t_bool))"},{"astId":1188,"contract":"contracts/TRIS.sol:TRIS","label":"_ownedTokens","offset":0,"slot":"6","type":"t_mapping(t_address,t_mapping(t_uint256,t_uint256))"},{"astId":1192,"contract":"contracts/TRIS.sol:TRIS","label":"_ownedTokensIndex","offset":0,"slot":"7","type":"t_mapping(t_uint256,t_uint256)"},{"astId":1195,"contract":"contracts/TRIS.sol:TRIS","label":"_allTokens","offset":0,"slot":"8","type":"t_array(t_uint256)dyn_storage"},{"astId":1199,"contract":"contracts/TRIS.sol:TRIS","label":"_allTokensIndex","offset":0,"slot":"9","type":"t_mapping(t_uint256,t_uint256)"},{"astId":7,"contract":"contracts/TRIS.sol:TRIS","label":"_owner","offset":0,"slot":"10","type":"t_address"},{"astId":3696,"contract":"contracts/TRIS.sol:TRIS","label":"whitelistMintStarted","offset":20,"slot":"10","type":"t_bool"},{"astId":3698,"contract":"contracts/TRIS.sol:TRIS","label":"whitelistMerkleRoot","offset":0,"slot":"11","type":"t_bytes32"},{"astId":3702,"contract":"contracts/TRIS.sol:TRIS","label":"nonces","offset":0,"slot":"12","type":"t_mapping(t_uint256,t_uint256)"},{"astId":3704,"contract":"contracts/TRIS.sol:TRIS","label":"__baseURI","offset":0,"slot":"13","type":"t_string_storage"}],"types":{"t_address":{"encoding":"inplace","label":"address","numberOfBytes":"20"},"t_array(t_uint256)dyn_storage":{"base":"t_uint256","encoding":"dynamic_array","label":"uint256[]","numberOfBytes":"32"},"t_bool":{"encoding":"inplace","label":"bool","numberOfBytes":"1"},"t_bytes32":{"encoding":"inplace","label":"bytes32","numberOfBytes":"32"},"t_mapping(t_address,t_bool)":{"encoding":"mapping","key":"t_address","label":"mapping(address => bool)","numberOfBytes":"32","value":"t_bool"},"t_mapping(t_address,t_mapping(t_address,t_bool))":{"encoding":"mapping","key":"t_address","label":"mapping(address => mapping(address => bool))","numberOfBytes":"32","value":"t_mapping(t_address,t_bool)"},"t_mapping(t_address,t_mapping(t_uint256,t_uint256))":{"encoding":"mapping","key":"t_address","label":"mapping(address => mapping(uint256 => uint256))","numberOfBytes":"32","value":"t_mapping(t_uint256,t_uint256)"},"t_mapping(t_address,t_uint256)":{"encoding":"mapping","key":"t_address","label":"mapping(address => uint256)","numberOfBytes":"32","value":"t_uint256"},"t_mapping(t_uint256,t_address)":{"encoding":"mapping","key":"t_uint256","label":"mapping(uint256 => address)","numberOfBytes":"32","value":"t_address"},"t_mapping(t_uint256,t_uint256)":{"encoding":"mapping","key":"t_uint256","label":"mapping(uint256 => uint256)","numberOfBytes":"32","value":"t_uint256"},"t_string_storage":{"encoding":"bytes","label":"string","numberOfBytes":"32"},"t_uint256":{"encoding":"inplace","label":"uint256","numberOfBytes":"32"}}},"userdoc":{"kind":"user","methods":{"DOMAIN_SEPARATOR()":{"notice":"The domain separator used in the permit signature"},"PERMIT_TYPEHASH()":{"notice":"The permit typehash used in the permit signature"},"permit(address,uint256,uint256,uint8,bytes32,bytes32)":{"notice":"Approve of a specific token ID for spending by spender via signature"}},"version":1}}}}