{
  "address": "0x5FbDB2315678afecb367f032d93F642f64180aa3",
  "abi": [
    {
      "inputs": [],
      "stateMutability": "nonpayable",
      "type": "constructor"
    },
    {
      "anonymous": false,
      "inputs": [
        {
          "indexed": true,
          "internalType": "address",
          "name": "owner",
          "type": "address"
        },
        {
          "indexed": true,
          "internalType": "address",
          "name": "approved",
          "type": "address"
        },
        {
          "indexed": true,
          "internalType": "uint256",
          "name": "tokenId",
          "type": "uint256"
        }
      ],
      "name": "Approval",
      "type": "event"
    },
    {
      "anonymous": false,
      "inputs": [
        {
          "indexed": true,
          "internalType": "address",
          "name": "owner",
          "type": "address"
        },
        {
          "indexed": true,
          "internalType": "address",
          "name": "operator",
          "type": "address"
        },
        {
          "indexed": false,
          "internalType": "bool",
          "name": "approved",
          "type": "bool"
        }
      ],
      "name": "ApprovalForAll",
      "type": "event"
    },
    {
      "anonymous": false,
      "inputs": [
        {
          "indexed": true,
          "internalType": "address",
          "name": "previousOwner",
          "type": "address"
        },
        {
          "indexed": true,
          "internalType": "address",
          "name": "newOwner",
          "type": "address"
        }
      ],
      "name": "OwnershipTransferred",
      "type": "event"
    },
    {
      "anonymous": false,
      "inputs": [
        {
          "indexed": true,
          "internalType": "address",
          "name": "from",
          "type": "address"
        },
        {
          "indexed": true,
          "internalType": "address",
          "name": "to",
          "type": "address"
        },
        {
          "indexed": true,
          "internalType": "uint256",
          "name": "tokenId",
          "type": "uint256"
        }
      ],
      "name": "Transfer",
      "type": "event"
    },
    {
      "inputs": [],
      "name": "DOMAIN_SEPARATOR",
      "outputs": [
        {
          "internalType": "bytes32",
          "name": "",
          "type": "bytes32"
        }
      ],
      "stateMutability": "view",
      "type": "function"
    },
    {
      "inputs": [],
      "name": "PERMIT_TYPEHASH",
      "outputs": [
        {
          "internalType": "bytes32",
          "name": "",
          "type": "bytes32"
        }
      ],
      "stateMutability": "view",
      "type": "function"
    },
    {
      "inputs": [],
      "name": "__baseURI",
      "outputs": [
        {
          "internalType": "string",
          "name": "",
          "type": "string"
        }
      ],
      "stateMutability": "view",
      "type": "function"
    },
    {
      "inputs": [
        {
          "internalType": "address",
          "name": "to",
          "type": "address"
        },
        {
          "internalType": "uint256",
          "name": "tokenId",
          "type": "uint256"
        }
      ],
      "name": "approve",
      "outputs": [],
      "stateMutability": "nonpayable",
      "type": "function"
    },
    {
      "inputs": [
        {
          "internalType": "address",
          "name": "owner",
          "type": "address"
        }
      ],
      "name": "balanceOf",
      "outputs": [
        {
          "internalType": "uint256",
          "name": "",
          "type": "uint256"
        }
      ],
      "stateMutability": "view",
      "type": "function"
    },
    {
      "inputs": [],
      "name": "cap",
      "outputs": [
        {
          "internalType": "uint256",
          "name": "",
          "type": "uint256"
        }
      ],
      "stateMutability": "view",
      "type": "function"
    },
    {
      "inputs": [
        {
          "internalType": "uint256",
          "name": "tokenId",
          "type": "uint256"
        }
      ],
      "name": "getApproved",
      "outputs": [
        {
          "internalType": "address",
          "name": "",
          "type": "address"
        }
      ],
      "stateMutability": "view",
      "type": "function"
    },
    {
      "inputs": [
        {
          "internalType": "address",
          "name": "owner",
          "type": "address"
        },
        {
          "internalType": "address",
          "name": "operator",
          "type": "address"
        }
      ],
      "name": "isApprovedForAll",
      "outputs": [
        {
          "internalType": "bool",
          "name": "",
          "type": "bool"
        }
      ],
      "stateMutability": "view",
      "type": "function"
    },
    {
      "inputs": [],
      "name": "isWhitelistActive",
      "outputs": [
        {
          "internalType": "bool",
          "name": "",
          "type": "bool"
        }
      ],
      "stateMutability": "view",
      "type": "function"
    },
    {
      "inputs": [
        {
          "internalType": "address",
          "name": "_to",
          "type": "address"
        },
        {
          "internalType": "uint256",
          "name": "_tokenId",
          "type": "uint256"
        }
      ],
      "name": "mint",
      "outputs": [],
      "stateMutability": "nonpayable",
      "type": "function"
    },
    {
      "inputs": [],
      "name": "name",
      "outputs": [
        {
          "internalType": "string",
          "name": "",
          "type": "string"
        }
      ],
      "stateMutability": "view",
      "type": "function"
    },
    {
      "inputs": [
        {
          "internalType": "uint256",
          "name": "",
          "type": "uint256"
        }
      ],
      "name": "nonces",
      "outputs": [
        {
          "internalType": "uint256",
          "name": "",
          "type": "uint256"
        }
      ],
      "stateMutability": "view",
      "type": "function"
    },
    {
      "inputs": [],
      "name": "owner",
      "outputs": [
        {
          "internalType": "address",
          "name": "",
          "type": "address"
        }
      ],
      "stateMutability": "view",
      "type": "function"
    },
    {
      "inputs": [
        {
          "internalType": "uint256",
          "name": "tokenId",
          "type": "uint256"
        }
      ],
      "name": "ownerOf",
      "outputs": [
        {
          "internalType": "address",
          "name": "",
          "type": "address"
        }
      ],
      "stateMutability": "view",
      "type": "function"
    },
    {
      "inputs": [
        {
          "internalType": "address",
          "name": "spender",
          "type": "address"
        },
        {
          "internalType": "uint256",
          "name": "tokenId",
          "type": "uint256"
        },
        {
          "internalType": "uint256",
          "name": "deadline",
          "type": "uint256"
        },
        {
          "internalType": "uint8",
          "name": "v",
          "type": "uint8"
        },
        {
          "internalType": "bytes32",
          "name": "r",
          "type": "bytes32"
        },
        {
          "internalType": "bytes32",
          "name": "s",
          "type": "bytes32"
        }
      ],
      "name": "permit",
      "outputs": [],
      "stateMutability": "payable",
      "type": "function"
    },
    {
      "inputs": [],
      "name": "renounceOwnership",
      "outputs": [],
      "stateMutability": "nonpayable",
      "type": "function"
    },
    {
      "inputs": [
        {
          "internalType": "address",
          "name": "from",
          "type": "address"
        },
        {
          "internalType": "address",
          "name": "to",
          "type": "address"
        },
        {
          "internalType": "uint256",
          "name": "tokenId",
          "type": "uint256"
        }
      ],
      "name": "safeTransferFrom",
      "outputs": [],
      "stateMutability": "nonpayable",
      "type": "function"
    },
    {
      "inputs": [
        {
          "internalType": "address",
          "name": "from",
          "type": "address"
        },
        {
          "internalType": "address",
          "name": "to",
          "type": "address"
        },
        {
          "internalType": "uint256",
          "name": "tokenId",
          "type": "uint256"
        },
        {
          "internalType": "bytes",
          "name": "data",
          "type": "bytes"
        }
      ],
      "name": "safeTransferFrom",
      "outputs": [],
      "stateMutability": "nonpayable",
      "type": "function"
    },
    {
      "inputs": [
        {
          "internalType": "address",
          "name": "operator",
          "type": "address"
        },
        {
          "internalType": "bool",
          "name": "approved",
          "type": "bool"
        }
      ],
      "name": "setApprovalForAll",
      "outputs": [],
      "stateMutability": "nonpayable",
      "type": "function"
    },
    {
      "inputs": [
        {
          "internalType": "string",
          "name": "_uri",
          "type": "string"
        }
      ],
      "name": "setBaseURI",
      "outputs": [],
      "stateMutability": "nonpayable",
      "type": "function"
    },
    {
      "inputs": [
        {
          "internalType": "uint256",
          "name": "_cap",
          "type": "uint256"
        }
      ],
      "name": "setCap",
      "outputs": [],
      "stateMutability": "nonpayable",
      "type": "function"
    },
    {
      "inputs": [
        {
          "internalType": "bytes32",
          "name": "value",
          "type": "bytes32"
        }
      ],
      "name": "setWhitelistMerkleRoot",
      "outputs": [],
      "stateMutability": "nonpayable",
      "type": "function"
    },
    {
      "inputs": [],
      "name": "startWhitelistMint",
      "outputs": [],
      "stateMutability": "nonpayable",
      "type": "function"
    },
    {
      "inputs": [
        {
          "internalType": "bytes4",
          "name": "interfaceId",
          "type": "bytes4"
        }
      ],
      "name": "supportsInterface",
      "outputs": [
        {
          "internalType": "bool",
          "name": "",
          "type": "bool"
        }
      ],
      "stateMutability": "view",
      "type": "function"
    },
    {
      "inputs": [],
      "name": "symbol",
      "outputs": [
        {
          "internalType": "string",
          "name": "",
          "type": "string"
        }
      ],
      "stateMutability": "view",
      "type": "function"
    },
    {
      "inputs": [
        {
          "internalType": "uint256",
          "name": "index",
          "type": "uint256"
        }
      ],
      "name": "tokenByIndex",
      "outputs": [
        {
          "internalType": "uint256",
          "name": "",
          "type": "uint256"
        }
      ],
      "stateMutability": "view",
      "type": "function"
    },
    {
      "inputs": [
        {
          "internalType": "address",
          "name": "owner",
          "type": "address"
        },
        {
          "internalType": "uint256",
          "name": "index",
          "type": "uint256"
        }
      ],
      "name": "tokenOfOwnerByIndex",
      "outputs": [
        {
          "internalType": "uint256",
          "name": "",
          "type": "uint256"
        }
      ],
      "stateMutability": "view",
      "type": "function"
    },
    {
      "inputs": [
        {
          "internalType": "uint256",
          "name": "tokenId",
          "type": "uint256"
        }
      ],
      "name": "tokenURI",
      "outputs": [
        {
          "internalType": "string",
          "name": "",
          "type": "string"
        }
      ],
      "stateMutability": "view",
      "type": "function"
    },
    {
      "inputs": [],
      "name": "totalSupply",
      "outputs": [
        {
          "internalType": "uint256",
          "name": "",
          "type": "uint256"
        }
      ],
      "stateMutability": "view",
      "type": "function"
    },
    {
      "inputs": [
        {
          "internalType": "address",
          "name": "from",
          "type": "address"
        },
        {
          "internalType": "address",
          "name": "to",
          "type": "address"
        },
        {
          "internalType": "uint256",
          "name": "tokenId",
          "type": "uint256"
        }
      ],
      "name": "transferFrom",
      "outputs": [],
      "stateMutability": "nonpayable",
      "type": "function"
    },
    {
      "inputs": [
        {
          "internalType": "address",
          "name": "newOwner",
          "type": "address"
        }
      ],
      "name": "transferOwnership",
      "outputs": [],
      "stateMutability": "nonpayable",
      "type": "function"
    },
    {
      "inputs": [],
      "name": "version",
      "outputs": [
        {
          "internalType": "string",
          "name": "",
          "type": "string"
        }
      ],
      "stateMutability": "pure",
      "type": "function"
    },
    {
      "inputs": [],
      "name": "whitelistMerkleRoot",
      "outputs": [
        {
          "internalType": "bytes32",
          "name": "",
          "type": "bytes32"
        }
      ],
      "stateMutability": "view",
      "type": "function"
    },
    {
      "inputs": [
        {
          "internalType": "address",
          "name": "_to",
          "type": "address"
        },
        {
          "internalType": "uint256",
          "name": "_amountAllocated",
          "type": "uint256"
        },
        {
          "internalType": "uint256",
          "name": "_amountToMint",
          "type": "uint256"
        },
        {
          "internalType": "bytes32[]",
          "name": "proof",
          "type": "bytes32[]"
        }
      ],
      "name": "whitelistMint",
      "outputs": [],
      "stateMutability": "payable",
      "type": "function"
    },
    {
      "inputs": [
        {
          "internalType": "address",
          "name": "",
          "type": "address"
        }
      ],
      "name": "whitelistMinted",
      "outputs": [
        {
          "internalType": "uint256",
          "name": "",
          "type": "uint256"
        }
      ],
      "stateMutability": "view",
      "type": "function"
    }
  ],
  "transactionHash": "0x12476ad76fbba4137fc939b770c06c761a57f8bd9aa0085bef96ac9596c2da0e",
  "args": [],
  "numDeployments": 1,
  "solcInputHash": "a0f9c6c9bf4143b44ae7211f74fd9eba",
  "bytecode": "0x60c06040526103e8600c5534801562000016575f80fd5b506040518060400160405280600481526020017f54524953000000000000000000000000000000000000000000000000000000008152506040518060400160405280600481526020017f54524953000000000000000000000000000000000000000000000000000000008152506040518060400160405280600181526020017f31000000000000000000000000000000000000000000000000000000000000008152508282815f9081620000cb919062000494565b508060019081620000dd919062000494565b505050828051906020012060808181525050808051906020012060a0818152505050505062000121620001156200015160201b60201c565b6200015860201b60201c565b6200014b60405180608001604052806043815260200162004efc604391396200021b60201b60201c565b62000578565b5f33905090565b5f600a5f9054906101000a900473ffffffffffffffffffffffffffffffffffffffff16905081600a5f6101000a81548173ffffffffffffffffffffffffffffffffffffffff021916908373ffffffffffffffffffffffffffffffffffffffff1602179055508173ffffffffffffffffffffffffffffffffffffffff168173ffffffffffffffffffffffffffffffffffffffff167f8be0079c531659141344cd1fd0a4f28419497f9722a3daafe3b4186f6b6457e060405160405180910390a35050565b80600e90816200022c919062000494565b5050565b5f81519050919050565b7f4e487b71000000000000000000000000000000000000000000000000000000005f52604160045260245ffd5b7f4e487b71000000000000000000000000000000000000000000000000000000005f52602260045260245ffd5b5f6002820490506001821680620002ac57607f821691505b602082108103620002c257620002c162000267565b5b50919050565b5f819050815f5260205f209050919050565b5f6020601f8301049050919050565b5f82821b905092915050565b5f60088302620003267fffffffffffffffffffffffffffffffffffffffffffffffffffffffffffffffff82620002e9565b620003328683620002e9565b95508019841693508086168417925050509392505050565b5f819050919050565b5f819050919050565b5f6200037c6200037662000370846200034a565b62000353565b6200034a565b9050919050565b5f819050919050565b62000397836200035c565b620003af620003a68262000383565b848454620002f5565b825550505050565b5f90565b620003c5620003b7565b620003d28184846200038c565b505050565b5b81811015620003f957620003ed5f82620003bb565b600181019050620003d8565b5050565b601f82111562000448576200041281620002c8565b6200041d84620002da565b810160208510156200042d578190505b620004456200043c85620002da565b830182620003d7565b50505b505050565b5f82821c905092915050565b5f6200046a5f19846008026200044d565b1980831691505092915050565b5f62000484838362000459565b9150826002028217905092915050565b6200049f8262000230565b67ffffffffffffffff811115620004bb57620004ba6200023a565b5b620004c7825462000294565b620004d4828285620003fd565b5f60209050601f8311600181146200050a575f8415620004f5578287015190505b62000501858262000477565b86555062000570565b601f1984166200051a86620002c8565b5f5b8281101562000543578489015182556001820191506020850194506020810190506200051c565b868310156200056357848901516200055f601f89168262000459565b8355505b6001600288020188555050505b505050505050565b60805160a0516149626200059a5f395f610db401525f610d9301526149625ff3fe608060405260043610610203575f3560e01c806354fd4d501161011757806398a8cffe1161009f578063b88d4fde1161006e578063b88d4fde14610731578063bd32fb6614610759578063c87b56dd14610781578063e985e9c5146107bd578063f2fde38b146107f957610203565b806398a8cffe1461068d578063a22cb465146106c9578063aa98e0c6146106f1578063b70196d71461071b57610203565b806370a08231116100e657806370a08231146105cb578063715018a6146106075780637ac2ff7b1461061d5780638da5cb5b1461063957806395d89b411461066357610203565b806354fd4d501461051357806355f804b31461053d5780636352211e146105655780636e34a482146105a157610203565b80632f745c591161019a57806340c10f191161016957806340c10f191461043557806342842e0e1461045d57806347786d37146104855780634f6ccce7146104ad578063524513d6146104e957610203565b80632f745c591461037b57806330adf81f146103b7578063355274ea146103e15780633644e5151461040b57610203565b8063141a468c116101d6578063141a468c146102d157806318160ddd1461030d57806323b872dd146103375780632ad2cd841461035f57610203565b806301ffc9a71461020757806306fdde0314610243578063081812fc1461026d578063095ea7b3146102a9575b5f80fd5b348015610212575f80fd5b5061022d60048036038101906102289190612d8e565b610821565b60405161023a9190612dd3565b60405180910390f35b34801561024e575f80fd5b5061025761089a565b6040516102649190612e76565b60405180910390f35b348015610278575f80fd5b50610293600480360381019061028e9190612ec9565b610929565b6040516102a09190612f33565b60405180910390f35b3480156102b4575f80fd5b506102cf60048036038101906102ca9190612f76565b61096b565b005b3480156102dc575f80fd5b506102f760048036038101906102f29190612ec9565b610a81565b6040516103049190612fc3565b60405180910390f35b348015610318575f80fd5b50610321610a96565b60405161032e9190612fc3565b60405180910390f35b348015610342575f80fd5b5061035d60048036038101906103589190612fdc565b610aa2565b005b6103796004803603810190610374919061319f565b610b02565b005b348015610386575f80fd5b506103a1600480360381019061039c9190612f76565b610ca3565b6040516103ae9190612fc3565b60405180910390f35b3480156103c2575f80fd5b506103cb610d43565b6040516103d8919061322e565b60405180910390f35b3480156103ec575f80fd5b506103f5610d69565b6040516104029190612fc3565b60405180910390f35b348015610416575f80fd5b5061041f610d6f565b60405161042c919061322e565b60405180910390f35b348015610440575f80fd5b5061045b60048036038101906104569190612f76565b610e0b565b005b348015610468575f80fd5b50610483600480360381019061047e9190612fdc565b610e6c565b005b348015610490575f80fd5b506104ab60048036038101906104a69190612ec9565b610e8b565b005b3480156104b8575f80fd5b506104d360048036038101906104ce9190612ec9565b610e9d565b6040516104e09190612fc3565b60405180910390f35b3480156104f4575f80fd5b506104fd610f0b565b60405161050a9190612dd3565b60405180910390f35b34801561051e575f80fd5b50610527610f21565b6040516105349190612e76565b60405180910390f35b348015610548575f80fd5b50610563600480360381019061055e91906132f7565b610f5e565b005b348015610570575f80fd5b5061058b60048036038101906105869190612ec9565b610f72565b6040516105989190612f33565b60405180910390f35b3480156105ac575f80fd5b506105b5610ff6565b6040516105c29190612e76565b60405180910390f35b3480156105d6575f80fd5b506105f160048036038101906105ec919061333e565b611082565b6040516105fe9190612fc3565b60405180910390f35b348015610612575f80fd5b5061061b611136565b005b6106376004803603810190610632919061339f565b611149565b005b348015610644575f80fd5b5061064d6114f0565b60405161065a9190612f33565b60405180910390f35b34801561066e575f80fd5b50610677611518565b6040516106849190612e76565b60405180910390f35b348015610698575f80fd5b506106b360048036038101906106ae919061333e565b6115a8565b6040516106c09190612fc3565b60405180910390f35b3480156106d4575f80fd5b506106ef60048036038101906106ea9190613452565b6115bd565b005b3480156106fc575f80fd5b506107056115d3565b604051610712919061322e565b60405180910390f35b348015610726575f80fd5b5061072f6115d9565b005b34801561073c575f80fd5b506107576004803603810190610752919061352e565b6115fe565b005b348015610764575f80fd5b5061077f600480360381019061077a91906135ae565b611660565b005b34801561078c575f80fd5b506107a760048036038101906107a29190612ec9565b611672565b6040516107b49190612e76565b60405180910390f35b3480156107c8575f80fd5b506107e360048036038101906107de91906135d9565b6116d7565b6040516107f09190612dd3565b60405180910390f35b348015610804575f80fd5b5061081f600480360381019061081a919061333e565b611765565b005b5f7f780e9d63000000000000000000000000000000000000000000000000000000007bffffffffffffffffffffffffffffffffffffffffffffffffffffffff1916827bffffffffffffffffffffffffffffffffffffffffffffffffffffffff191614806108935750610892826117e7565b5b9050919050565b60605f80546108a890613644565b80601f01602080910402602001604051908101604052809291908181526020018280546108d490613644565b801561091f5780601f106108f65761010080835404028352916020019161091f565b820191905f5260205f20905b81548152906001019060200180831161090257829003601f168201915b5050505050905090565b5f610933826118c8565b60045f8381526020019081526020015f205f9054906101000a900473ffffffffffffffffffffffffffffffffffffffff169050919050565b5f61097582610f72565b90508073ffffffffffffffffffffffffffffffffffffffff168373ffffffffffffffffffffffffffffffffffffffff16036109e5576040517f08c379a00000000000000000000000000000000000000000000000000000000081526004016109dc906136e4565b60405180910390fd5b8073ffffffffffffffffffffffffffffffffffffffff16610a04611913565b73ffffffffffffffffffffffffffffffffffffffff161480610a335750610a3281610a2d611913565b6116d7565b5b610a72576040517f08c379a0000000000000000000000000000000000000000000000000000000008152600401610a6990613772565b60405180910390fd5b610a7c838361191a565b505050565b600d602052805f5260405f205f915090505481565b5f600880549050905090565b610ab3610aad611913565b826119d0565b610af2576040517f08c379a0000000000000000000000000000000000000000000000000000000008152600401610ae990613800565b60405180910390fd5b610afd838383611a64565b505050565b600a60149054906101000a900460ff1615610b1b575f80fd5b610b26818585611d50565b610b2e575f80fd5b5f600f5f8673ffffffffffffffffffffffffffffffffffffffff1673ffffffffffffffffffffffffffffffffffffffff1681526020019081526020015f20549050838382610b7c919061384b565b1115610bbd576040517f08c379a0000000000000000000000000000000000000000000000000000000008152600401610bb4906138c8565b60405180910390fd5b82600f5f8773ffffffffffffffffffffffffffffffffffffffff1673ffffffffffffffffffffffffffffffffffffffff1681526020019081526020015f205f828254610c09919061384b565b925050819055505f610c19610a96565b90505f8582610c28919061384b565b9050600c54811115610c6f576040517f08c379a0000000000000000000000000000000000000000000000000000000008152600401610c6690613930565b60405180910390fd5b5f8290505b81811015610c9957610c868882611d99565b8080610c919061394e565b915050610c74565b5050505050505050565b5f610cad83611082565b8210610cee576040517f08c379a0000000000000000000000000000000000000000000000000000000008152600401610ce590613a05565b60405180910390fd5b60065f8473ffffffffffffffffffffffffffffffffffffffff1673ffffffffffffffffffffffffffffffffffffffff1681526020019081526020015f205f8381526020019081526020015f2054905092915050565b7f49ecf333e5b8c95c40fdafc95c1ad136e8914a8fb55e9dc8bb01eaa83a2df9ad5f1b81565b600c5481565b5f7f8b73c3c69bb8fe3d512ecc4cf759cc79239f7b179b0ffacaa9a75d522b39400f7f00000000000000000000000000000000000000000000000000000000000000007f0000000000000000000000000000000000000000000000000000000000000000610ddb611fac565b30604051602001610df0959493929190613a65565b60405160208183030381529060405280519060200120905090565b610e13611fb3565b600c54610e1e610a96565b10610e5e576040517f08c379a0000000000000000000000000000000000000000000000000000000008152600401610e5590613930565b60405180910390fd5b610e688282611d99565b5050565b610e8683838360405180602001604052805f8152506115fe565b505050565b610e93611fb3565b80600c8190555050565b5f610ea6610a96565b8210610ee7576040517f08c379a0000000000000000000000000000000000000000000000000000000008152600401610ede90613b26565b60405180910390fd5b60088281548110610efb57610efa613b44565b5b905f5260205f2001549050919050565b5f600a60149054906101000a900460ff16905090565b60606040518060400160405280600181526020017f3100000000000000000000000000000000000000000000000000000000000000815250905090565b610f66611fb3565b610f6f81612031565b50565b5f80610f7d83612044565b90505f73ffffffffffffffffffffffffffffffffffffffff168173ffffffffffffffffffffffffffffffffffffffff1603610fed576040517f08c379a0000000000000000000000000000000000000000000000000000000008152600401610fe490613bbb565b60405180910390fd5b80915050919050565b600e805461100390613644565b80601f016020809104026020016040519081016040528092919081815260200182805461102f90613644565b801561107a5780601f106110515761010080835404028352916020019161107a565b820191905f5260205f20905b81548152906001019060200180831161105d57829003601f168201915b505050505081565b5f8073ffffffffffffffffffffffffffffffffffffffff168273ffffffffffffffffffffffffffffffffffffffff16036110f1576040517f08c379a00000000000000000000000000000000000000000000000000000000081526004016110e890613c49565b60405180910390fd5b60035f8373ffffffffffffffffffffffffffffffffffffffff1673ffffffffffffffffffffffffffffffffffffffff1681526020019081526020015f20549050919050565b61113e611fb3565b6111475f61207d565b565b83611152612140565b1115611193576040517f08c379a000000000000000000000000000000000000000000000000000000000815260040161118a90613cb1565b60405180910390fd5b5f61119c610d6f565b7f49ecf333e5b8c95c40fdafc95c1ad136e8914a8fb55e9dc8bb01eaa83a2df9ad5f1b88886111ca8a612147565b896040516020016111df959493929190613ccf565b60405160208183030381529060405280519060200120604051602001611206929190613d94565b6040516020818303038152906040528051906020012090505f61122887610f72565b90508073ffffffffffffffffffffffffffffffffffffffff168873ffffffffffffffffffffffffffffffffffffffff1603611298576040517f08c379a000000000000000000000000000000000000000000000000000000000815260040161128f90613e3a565b60405180910390fd5b6112a18161218c565b156113af57631626ba7e60e01b8173ffffffffffffffffffffffffffffffffffffffff16631626ba7e8487878a6040516020016112e093929190613e8c565b6040516020818303038152906040526040518363ffffffff1660e01b815260040161130c929190613f1a565b602060405180830381865afa158015611327573d5f803e3d5ffd5b505050506040513d601f19601f8201168201806040525081019061134b9190613f5c565b7bffffffffffffffffffffffffffffffffffffffffffffffffffffffff1916146113aa576040517f08c379a00000000000000000000000000000000000000000000000000000000081526004016113a190613fd1565b60405180910390fd5b6114dc565b5f6001838787876040515f81526020016040526040516113d29493929190613ffe565b6020604051602081039080840390855afa1580156113f2573d5f803e3d5ffd5b5050506020604051035190505f73ffffffffffffffffffffffffffffffffffffffff168173ffffffffffffffffffffffffffffffffffffffff160361146c576040517f08c379a00000000000000000000000000000000000000000000000000000000081526004016114639061408b565b60405180910390fd5b8173ffffffffffffffffffffffffffffffffffffffff168173ffffffffffffffffffffffffffffffffffffffff16146114da576040517f08c379a00000000000000000000000000000000000000000000000000000000081526004016114d190613fd1565b60405180910390fd5b505b6114e6888861191a565b5050505050505050565b5f600a5f9054906101000a900473ffffffffffffffffffffffffffffffffffffffff16905090565b60606001805461152790613644565b80601f016020809104026020016040519081016040528092919081815260200182805461155390613644565b801561159e5780601f106115755761010080835404028352916020019161159e565b820191905f5260205f20905b81548152906001019060200180831161158157829003601f168201915b5050505050905090565b600f602052805f5260405f205f915090505481565b6115cf6115c8611913565b83836121ae565b5050565b600b5481565b6115e1611fb3565b6001600a60146101000a81548160ff021916908315150217905550565b61160f611609611913565b836119d0565b61164e576040517f08c379a000000000000000000000000000000000000000000000000000000000815260040161164590613800565b60405180910390fd5b61165a84848484612315565b50505050565b611668611fb3565b80600b8190555050565b606061167d826118c8565b5f611686612371565b90505f8151116116a45760405180602001604052805f8152506116cf565b806116ae84612401565b6040516020016116bf9291906140d9565b6040516020818303038152906040525b915050919050565b5f60055f8473ffffffffffffffffffffffffffffffffffffffff1673ffffffffffffffffffffffffffffffffffffffff1681526020019081526020015f205f8373ffffffffffffffffffffffffffffffffffffffff1673ffffffffffffffffffffffffffffffffffffffff1681526020019081526020015f205f9054906101000a900460ff16905092915050565b61176d611fb3565b5f73ffffffffffffffffffffffffffffffffffffffff168173ffffffffffffffffffffffffffffffffffffffff16036117db576040517f08c379a00000000000000000000000000000000000000000000000000000000081526004016117d29061416c565b60405180910390fd5b6117e48161207d565b50565b5f7f80ac58cd000000000000000000000000000000000000000000000000000000007bffffffffffffffffffffffffffffffffffffffffffffffffffffffff1916827bffffffffffffffffffffffffffffffffffffffffffffffffffffffff191614806118b157507f5b5e139f000000000000000000000000000000000000000000000000000000007bffffffffffffffffffffffffffffffffffffffffffffffffffffffff1916827bffffffffffffffffffffffffffffffffffffffffffffffffffffffff1916145b806118c157506118c0826124cb565b5b9050919050565b6118d181612534565b611910576040517f08c379a000000000000000000000000000000000000000000000000000000000815260040161190790613bbb565b60405180910390fd5b50565b5f33905090565b8160045f8381526020019081526020015f205f6101000a81548173ffffffffffffffffffffffffffffffffffffffff021916908373ffffffffffffffffffffffffffffffffffffffff160217905550808273ffffffffffffffffffffffffffffffffffffffff1661198a83610f72565b73ffffffffffffffffffffffffffffffffffffffff167f8c5be1e5ebec7d5bd14f71427d1e84f3dd0314c0f7b2291e5b200ac8c7c3b92560405160405180910390a45050565b5f806119db83610f72565b90508073ffffffffffffffffffffffffffffffffffffffff168473ffffffffffffffffffffffffffffffffffffffff161480611a1d5750611a1c81856116d7565b5b80611a5b57508373ffffffffffffffffffffffffffffffffffffffff16611a4384610929565b73ffffffffffffffffffffffffffffffffffffffff16145b91505092915050565b8273ffffffffffffffffffffffffffffffffffffffff16611a8482610f72565b73ffffffffffffffffffffffffffffffffffffffff1614611ada576040517f08c379a0000000000000000000000000000000000000000000000000000000008152600401611ad1906141fa565b60405180910390fd5b5f73ffffffffffffffffffffffffffffffffffffffff168273ffffffffffffffffffffffffffffffffffffffff1603611b48576040517f08c379a0000000000000000000000000000000000000000000000000000000008152600401611b3f90614288565b60405180910390fd5b611b558383836001612574565b8273ffffffffffffffffffffffffffffffffffffffff16611b7582610f72565b73ffffffffffffffffffffffffffffffffffffffff1614611bcb576040517f08c379a0000000000000000000000000000000000000000000000000000000008152600401611bc2906141fa565b60405180910390fd5b60045f8281526020019081526020015f205f6101000a81549073ffffffffffffffffffffffffffffffffffffffff0219169055600160035f8573ffffffffffffffffffffffffffffffffffffffff1673ffffffffffffffffffffffffffffffffffffffff1681526020019081526020015f205f8282540392505081905550600160035f8473ffffffffffffffffffffffffffffffffffffffff1673ffffffffffffffffffffffffffffffffffffffff1681526020019081526020015f205f82825401925050819055508160025f8381526020019081526020015f205f6101000a81548173ffffffffffffffffffffffffffffffffffffffff021916908373ffffffffffffffffffffffffffffffffffffffff160217905550808273ffffffffffffffffffffffffffffffffffffffff168473ffffffffffffffffffffffffffffffffffffffff167fddf252ad1be2c89b69c2b068fc378daa952ba7f163c4a11628f55a4df523b3ef60405160405180910390a4611d4b83838360016126cf565b505050565b5f611d90600b548484604051602001611d6a92919061430b565b60405160208183030381529060405280519060200120866126d59092919063ffffffff16565b90509392505050565b5f73ffffffffffffffffffffffffffffffffffffffff168273ffffffffffffffffffffffffffffffffffffffff1603611e07576040517f08c379a0000000000000000000000000000000000000000000000000000000008152600401611dfe90614380565b60405180910390fd5b611e1081612534565b15611e50576040517f08c379a0000000000000000000000000000000000000000000000000000000008152600401611e47906143e8565b60405180910390fd5b611e5d5f83836001612574565b611e6681612534565b15611ea6576040517f08c379a0000000000000000000000000000000000000000000000000000000008152600401611e9d906143e8565b60405180910390fd5b600160035f8473ffffffffffffffffffffffffffffffffffffffff1673ffffffffffffffffffffffffffffffffffffffff1681526020019081526020015f205f82825401925050819055508160025f8381526020019081526020015f205f6101000a81548173ffffffffffffffffffffffffffffffffffffffff021916908373ffffffffffffffffffffffffffffffffffffffff160217905550808273ffffffffffffffffffffffffffffffffffffffff165f73ffffffffffffffffffffffffffffffffffffffff167fddf252ad1be2c89b69c2b068fc378daa952ba7f163c4a11628f55a4df523b3ef60405160405180910390a4611fa85f838360016126cf565b5050565b5f46905090565b611fbb611913565b73ffffffffffffffffffffffffffffffffffffffff16611fd96114f0565b73ffffffffffffffffffffffffffffffffffffffff161461202f576040517f08c379a000000000000000000000000000000000000000000000000000000000815260040161202690614450565b60405180910390fd5b565b80600e90816120409190614602565b5050565b5f60025f8381526020019081526020015f205f9054906101000a900473ffffffffffffffffffffffffffffffffffffffff169050919050565b5f600a5f9054906101000a900473ffffffffffffffffffffffffffffffffffffffff16905081600a5f6101000a81548173ffffffffffffffffffffffffffffffffffffffff021916908373ffffffffffffffffffffffffffffffffffffffff1602179055508173ffffffffffffffffffffffffffffffffffffffff168173ffffffffffffffffffffffffffffffffffffffff167f8be0079c531659141344cd1fd0a4f28419497f9722a3daafe3b4186f6b6457e060405160405180910390a35050565b5f42905090565b5f80600d5f8481526020019081526020015f20549050600d5f8481526020019081526020015f205f81548092919061217e9061394e565b919050555080915050919050565b5f808273ffffffffffffffffffffffffffffffffffffffff163b119050919050565b8173ffffffffffffffffffffffffffffffffffffffff168373ffffffffffffffffffffffffffffffffffffffff160361221c576040517f08c379a00000000000000000000000000000000000000000000000000000000081526004016122139061471b565b60405180910390fd5b8060055f8573ffffffffffffffffffffffffffffffffffffffff1673ffffffffffffffffffffffffffffffffffffffff1681526020019081526020015f205f8473ffffffffffffffffffffffffffffffffffffffff1673ffffffffffffffffffffffffffffffffffffffff1681526020019081526020015f205f6101000a81548160ff0219169083151502179055508173ffffffffffffffffffffffffffffffffffffffff168373ffffffffffffffffffffffffffffffffffffffff167f17307eab39ab6107e8899845ad3d59bd9653f200f220920489ca2b5937696c31836040516123089190612dd3565b60405180910390a3505050565b612320848484611a64565b61232c848484846126eb565b61236b576040517f08c379a0000000000000000000000000000000000000000000000000000000008152600401612362906147a9565b60405180910390fd5b50505050565b6060600e805461238090613644565b80601f01602080910402602001604051908101604052809291908181526020018280546123ac90613644565b80156123f75780601f106123ce576101008083540402835291602001916123f7565b820191905f5260205f20905b8154815290600101906020018083116123da57829003601f168201915b5050505050905090565b60605f600161240f8461286d565b0190505f8167ffffffffffffffff81111561242d5761242c613030565b5b6040519080825280601f01601f19166020018201604052801561245f5781602001600182028036833780820191505090505b5090505f82602001820190505b6001156124c0578080600190039150507f3031323334353637383961626364656600000000000000000000000000000000600a86061a8153600a85816124b5576124b46147c7565b5b0494505f850361246c575b819350505050919050565b5f7f01ffc9a7000000000000000000000000000000000000000000000000000000007bffffffffffffffffffffffffffffffffffffffffffffffffffffffff1916827bffffffffffffffffffffffffffffffffffffffffffffffffffffffff1916149050919050565b5f8073ffffffffffffffffffffffffffffffffffffffff1661255583612044565b73ffffffffffffffffffffffffffffffffffffffff1614159050919050565b612580848484846129be565b60018111156125c4576040517f08c379a00000000000000000000000000000000000000000000000000000000081526004016125bb90614864565b60405180910390fd5b5f8290505f73ffffffffffffffffffffffffffffffffffffffff168573ffffffffffffffffffffffffffffffffffffffff160361260957612604816129c4565b612648565b8373ffffffffffffffffffffffffffffffffffffffff168573ffffffffffffffffffffffffffffffffffffffff1614612647576126468582612a08565b5b5b5f73ffffffffffffffffffffffffffffffffffffffff168473ffffffffffffffffffffffffffffffffffffffff16036126895761268481612b5e565b6126c8565b8473ffffffffffffffffffffffffffffffffffffffff168473ffffffffffffffffffffffffffffffffffffffff16146126c7576126c68482612c1e565b5b5b5050505050565b50505050565b5f826126e18584612c96565b1490509392505050565b5f61270b8473ffffffffffffffffffffffffffffffffffffffff1661218c565b15612860578373ffffffffffffffffffffffffffffffffffffffff1663150b7a02612734611913565b8786866040518563ffffffff1660e01b81526004016127569493929190614882565b6020604051808303815f875af192505050801561279157506040513d601f19601f8201168201806040525081019061278e9190613f5c565b60015b612810573d805f81146127bf576040519150601f19603f3d011682016040523d82523d5f602084013e6127c4565b606091505b505f815103612808576040517f08c379a00000000000000000000000000000000000000000000000000000000081526004016127ff906147a9565b60405180910390fd5b805181602001fd5b63150b7a0260e01b7bffffffffffffffffffffffffffffffffffffffffffffffffffffffff1916817bffffffffffffffffffffffffffffffffffffffffffffffffffffffff191614915050612865565b600190505b949350505050565b5f805f90507a184f03e93ff9f4daa797ed6e38ed64bf6a1f01000000000000000083106128c9577a184f03e93ff9f4daa797ed6e38ed64bf6a1f01000000000000000083816128bf576128be6147c7565b5b0492506040810190505b6d04ee2d6d415b85acef81000000008310612906576d04ee2d6d415b85acef810000000083816128fc576128fb6147c7565b5b0492506020810190505b662386f26fc10000831061293557662386f26fc10000838161292b5761292a6147c7565b5b0492506010810190505b6305f5e100831061295e576305f5e1008381612954576129536147c7565b5b0492506008810190505b6127108310612983576127108381612979576129786147c7565b5b0492506004810190505b606483106129a6576064838161299c5761299b6147c7565b5b0492506002810190505b600a83106129b5576001810190505b80915050919050565b50505050565b60088054905060095f8381526020019081526020015f2081905550600881908060018154018082558091505060019003905f5260205f20015f909190919091505550565b5f6001612a1484611082565b612a1e91906148cc565b90505f60075f8481526020019081526020015f20549050818114612af5575f60065f8673ffffffffffffffffffffffffffffffffffffffff1673ffffffffffffffffffffffffffffffffffffffff1681526020019081526020015f205f8481526020019081526020015f205490508060065f8773ffffffffffffffffffffffffffffffffffffffff1673ffffffffffffffffffffffffffffffffffffffff1681526020019081526020015f205f8481526020019081526020015f20819055508160075f8381526020019081526020015f2081905550505b60075f8481526020019081526020015f205f905560065f8573ffffffffffffffffffffffffffffffffffffffff1673ffffffffffffffffffffffffffffffffffffffff1681526020019081526020015f205f8381526020019081526020015f205f905550505050565b5f6001600880549050612b7191906148cc565b90505f60095f8481526020019081526020015f205490505f60088381548110612b9d57612b9c613b44565b5b905f5260205f20015490508060088381548110612bbd57612bbc613b44565b5b905f5260205f2001819055508160095f8381526020019081526020015f208190555060095f8581526020019081526020015f205f90556008805480612c0557612c046148ff565b5b600190038181905f5260205f20015f9055905550505050565b5f612c2883611082565b90508160065f8573ffffffffffffffffffffffffffffffffffffffff1673ffffffffffffffffffffffffffffffffffffffff1681526020019081526020015f205f8381526020019081526020015f20819055508060075f8481526020019081526020015f2081905550505050565b5f808290505f5b8451811015612cdf57612cca82868381518110612cbd57612cbc613b44565b5b6020026020010151612cea565b91508080612cd79061394e565b915050612c9d565b508091505092915050565b5f818310612d0157612cfc8284612d14565b612d0c565b612d0b8383612d14565b5b905092915050565b5f825f528160205260405f20905092915050565b5f604051905090565b5f80fd5b5f80fd5b5f7fffffffff0000000000000000000000000000000000000000000000000000000082169050919050565b612d6d81612d39565b8114612d77575f80fd5b50565b5f81359050612d8881612d64565b92915050565b5f60208284031215612da357612da2612d31565b5b5f612db084828501612d7a565b91505092915050565b5f8115159050919050565b612dcd81612db9565b82525050565b5f602082019050612de65f830184612dc4565b92915050565b5f81519050919050565b5f82825260208201905092915050565b5f5b83811015612e23578082015181840152602081019050612e08565b5f8484015250505050565b5f601f19601f8301169050919050565b5f612e4882612dec565b612e528185612df6565b9350612e62818560208601612e06565b612e6b81612e2e565b840191505092915050565b5f6020820190508181035f830152612e8e8184612e3e565b905092915050565b5f819050919050565b612ea881612e96565b8114612eb2575f80fd5b50565b5f81359050612ec381612e9f565b92915050565b5f60208284031215612ede57612edd612d31565b5b5f612eeb84828501612eb5565b91505092915050565b5f73ffffffffffffffffffffffffffffffffffffffff82169050919050565b5f612f1d82612ef4565b9050919050565b612f2d81612f13565b82525050565b5f602082019050612f465f830184612f24565b92915050565b612f5581612f13565b8114612f5f575f80fd5b50565b5f81359050612f7081612f4c565b92915050565b5f8060408385031215612f8c57612f8b612d31565b5b5f612f9985828601612f62565b9250506020612faa85828601612eb5565b9150509250929050565b612fbd81612e96565b82525050565b5f602082019050612fd65f830184612fb4565b92915050565b5f805f60608486031215612ff357612ff2612d31565b5b5f61300086828701612f62565b935050602061301186828701612f62565b925050604061302286828701612eb5565b9150509250925092565b5f80fd5b7f4e487b71000000000000000000000000000000000000000000000000000000005f52604160045260245ffd5b61306682612e2e565b810181811067ffffffffffffffff8211171561308557613084613030565b5b80604052505050565b5f613097612d28565b90506130a3828261305d565b919050565b5f67ffffffffffffffff8211156130c2576130c1613030565b5b602082029050602081019050919050565b5f80fd5b5f819050919050565b6130e9816130d7565b81146130f3575f80fd5b50565b5f81359050613104816130e0565b92915050565b5f61311c613117846130a8565b61308e565b9050808382526020820190506020840283018581111561313f5761313e6130d3565b5b835b81811015613168578061315488826130f6565b845260208401935050602081019050613141565b5050509392505050565b5f82601f8301126131865761318561302c565b5b813561319684826020860161310a565b91505092915050565b5f805f80608085870312156131b7576131b6612d31565b5b5f6131c487828801612f62565b94505060206131d587828801612eb5565b93505060406131e687828801612eb5565b925050606085013567ffffffffffffffff81111561320757613206612d35565b5b61321387828801613172565b91505092959194509250565b613228816130d7565b82525050565b5f6020820190506132415f83018461321f565b92915050565b5f80fd5b5f67ffffffffffffffff82111561326557613264613030565b5b61326e82612e2e565b9050602081019050919050565b828183375f83830152505050565b5f61329b6132968461324b565b61308e565b9050828152602081018484840111156132b7576132b6613247565b5b6132c284828561327b565b509392505050565b5f82601f8301126132de576132dd61302c565b5b81356132ee848260208601613289565b91505092915050565b5f6020828403121561330c5761330b612d31565b5b5f82013567ffffffffffffffff81111561332957613328612d35565b5b613335848285016132ca565b91505092915050565b5f6020828403121561335357613352612d31565b5b5f61336084828501612f62565b91505092915050565b5f60ff82169050919050565b61337e81613369565b8114613388575f80fd5b50565b5f8135905061339981613375565b92915050565b5f805f805f8060c087890312156133b9576133b8612d31565b5b5f6133c689828a01612f62565b96505060206133d789828a01612eb5565b95505060406133e889828a01612eb5565b94505060606133f989828a0161338b565b935050608061340a89828a016130f6565b92505060a061341b89828a016130f6565b9150509295509295509295565b61343181612db9565b811461343b575f80fd5b50565b5f8135905061344c81613428565b92915050565b5f806040838503121561346857613467612d31565b5b5f61347585828601612f62565b92505060206134868582860161343e565b9150509250929050565b5f67ffffffffffffffff8211156134aa576134a9613030565b5b6134b382612e2e565b9050602081019050919050565b5f6134d26134cd84613490565b61308e565b9050828152602081018484840111156134ee576134ed613247565b5b6134f984828561327b565b509392505050565b5f82601f8301126135155761351461302c565b5b81356135258482602086016134c0565b91505092915050565b5f805f806080858703121561354657613545612d31565b5b5f61355387828801612f62565b945050602061356487828801612f62565b935050604061357587828801612eb5565b925050606085013567ffffffffffffffff81111561359657613595612d35565b5b6135a287828801613501565b91505092959194509250565b5f602082840312156135c3576135c2612d31565b5b5f6135d0848285016130f6565b91505092915050565b5f80604083850312156135ef576135ee612d31565b5b5f6135fc85828601612f62565b925050602061360d85828601612f62565b9150509250929050565b7f4e487b71000000000000000000000000000000000000000000000000000000005f52602260045260245ffd5b5f600282049050600182168061365b57607f821691505b60208210810361366e5761366d613617565b5b50919050565b7f4552433732313a20617070726f76616c20746f2063757272656e74206f776e655f8201527f7200000000000000000000000000000000000000000000000000000000000000602082015250565b5f6136ce602183612df6565b91506136d982613674565b604082019050919050565b5f6020820190508181035f8301526136fb816136c2565b9050919050565b7f4552433732313a20617070726f76652063616c6c6572206973206e6f7420746f5f8201527f6b656e206f776e6572206f7220617070726f76656420666f7220616c6c000000602082015250565b5f61375c603d83612df6565b915061376782613702565b604082019050919050565b5f6020820190508181035f83015261378981613750565b9050919050565b7f4552433732313a2063616c6c6572206973206e6f7420746f6b656e206f776e655f8201527f72206f7220617070726f76656400000000000000000000000000000000000000602082015250565b5f6137ea602d83612df6565b91506137f582613790565b604082019050919050565b5f6020820190508181035f830152613817816137de565b9050919050565b7f4e487b71000000000000000000000000000000000000000000000000000000005f52601160045260245ffd5b5f61385582612e96565b915061386083612e96565b92508282019050808211156138785761387761381e565b5b92915050565b7f21616c6c6f6361746564000000000000000000000000000000000000000000005f82015250565b5f6138b2600a83612df6565b91506138bd8261387e565b602082019050919050565b5f6020820190508181035f8301526138df816138a6565b9050919050565b7f21636170000000000000000000000000000000000000000000000000000000005f82015250565b5f61391a600483612df6565b9150613925826138e6565b602082019050919050565b5f6020820190508181035f8301526139478161390e565b9050919050565b5f61395882612e96565b91507fffffffffffffffffffffffffffffffffffffffffffffffffffffffffffffffff820361398a5761398961381e565b5b600182019050919050565b7f455243373231456e756d657261626c653a206f776e657220696e646578206f755f8201527f74206f6620626f756e6473000000000000000000000000000000000000000000602082015250565b5f6139ef602b83612df6565b91506139fa82613995565b604082019050919050565b5f6020820190508181035f830152613a1c816139e3565b9050919050565b5f819050919050565b5f819050919050565b5f613a4f613a4a613a4584613a23565b613a2c565b612e96565b9050919050565b613a5f81613a35565b82525050565b5f60a082019050613a785f830188613a56565b613a85602083018761321f565b613a92604083018661321f565b613a9f6060830185612fb4565b613aac6080830184612f24565b9695505050505050565b7f455243373231456e756d657261626c653a20676c6f62616c20696e646578206f5f8201527f7574206f6620626f756e64730000000000000000000000000000000000000000602082015250565b5f613b10602c83612df6565b9150613b1b82613ab6565b604082019050919050565b5f6020820190508181035f830152613b3d81613b04565b9050919050565b7f4e487b71000000000000000000000000000000000000000000000000000000005f52603260045260245ffd5b7f4552433732313a20696e76616c696420746f6b656e20494400000000000000005f82015250565b5f613ba5601883612df6565b9150613bb082613b71565b602082019050919050565b5f6020820190508181035f830152613bd281613b99565b9050919050565b7f4552433732313a2061646472657373207a65726f206973206e6f7420612076615f8201527f6c6964206f776e65720000000000000000000000000000000000000000000000602082015250565b5f613c33602983612df6565b9150613c3e82613bd9565b604082019050919050565b5f6020820190508181035f830152613c6081613c27565b9050919050565b7f5065726d697420657870697265640000000000000000000000000000000000005f82015250565b5f613c9b600e83612df6565b9150613ca682613c67565b602082019050919050565b5f6020820190508181035f830152613cc881613c8f565b9050919050565b5f60a082019050613ce25f83018861321f565b613cef6020830187612f24565b613cfc6040830186612fb4565b613d096060830185612fb4565b613d166080830184612fb4565b9695505050505050565b5f81905092915050565b7f19010000000000000000000000000000000000000000000000000000000000005f82015250565b5f613d5e600283613d20565b9150613d6982613d2a565b600282019050919050565b5f819050919050565b613d8e613d89826130d7565b613d74565b82525050565b5f613d9e82613d52565b9150613daa8285613d7d565b602082019150613dba8284613d7d565b6020820191508190509392505050565b7f4552433732315065726d69743a20617070726f76616c20746f2063757272656e5f8201527f74206f776e657200000000000000000000000000000000000000000000000000602082015250565b5f613e24602783612df6565b9150613e2f82613dca565b604082019050919050565b5f6020820190508181035f830152613e5181613e18565b9050919050565b5f8160f81b9050919050565b5f613e6e82613e58565b9050919050565b613e86613e8182613369565b613e64565b82525050565b5f613e978286613d7d565b602082019150613ea78285613d7d565b602082019150613eb78284613e75565b600182019150819050949350505050565b5f81519050919050565b5f82825260208201905092915050565b5f613eec82613ec8565b613ef68185613ed2565b9350613f06818560208601612e06565b613f0f81612e2e565b840191505092915050565b5f604082019050613f2d5f83018561321f565b8181036020830152613f3f8184613ee2565b90509392505050565b5f81519050613f5681612d64565b92915050565b5f60208284031215613f7157613f70612d31565b5b5f613f7e84828501613f48565b91505092915050565b7f556e617574686f72697a656400000000000000000000000000000000000000005f82015250565b5f613fbb600c83612df6565b9150613fc682613f87565b602082019050919050565b5f6020820190508181035f830152613fe881613faf565b9050919050565b613ff881613369565b82525050565b5f6080820190506140115f83018761321f565b61401e6020830186613fef565b61402b604083018561321f565b614038606083018461321f565b95945050505050565b7f496e76616c6964207369676e61747572650000000000000000000000000000005f82015250565b5f614075601183612df6565b915061408082614041565b602082019050919050565b5f6020820190508181035f8301526140a281614069565b9050919050565b5f6140b382612dec565b6140bd8185613d20565b93506140cd818560208601612e06565b80840191505092915050565b5f6140e482856140a9565b91506140f082846140a9565b91508190509392505050565b7f4f776e61626c653a206e6577206f776e657220697320746865207a65726f20615f8201527f6464726573730000000000000000000000000000000000000000000000000000602082015250565b5f614156602683612df6565b9150614161826140fc565b604082019050919050565b5f6020820190508181035f8301526141838161414a565b9050919050565b7f4552433732313a207472616e736665722066726f6d20696e636f7272656374205f8201527f6f776e6572000000000000000000000000000000000000000000000000000000602082015250565b5f6141e4602583612df6565b91506141ef8261418a565b604082019050919050565b5f6020820190508181035f830152614211816141d8565b9050919050565b7f4552433732313a207472616e7366657220746f20746865207a65726f206164645f8201527f7265737300000000000000000000000000000000000000000000000000000000602082015250565b5f614272602483612df6565b915061427d82614218565b604082019050919050565b5f6020820190508181035f83015261429f81614266565b9050919050565b5f8160601b9050919050565b5f6142bc826142a6565b9050919050565b5f6142cd826142b2565b9050919050565b6142e56142e082612f13565b6142c3565b82525050565b5f819050919050565b61430561430082612e96565b6142eb565b82525050565b5f61431682856142d4565b60148201915061432682846142f4565b6020820191508190509392505050565b7f4552433732313a206d696e7420746f20746865207a65726f20616464726573735f82015250565b5f61436a602083612df6565b915061437582614336565b602082019050919050565b5f6020820190508181035f8301526143978161435e565b9050919050565b7f4552433732313a20746f6b656e20616c7265616479206d696e746564000000005f82015250565b5f6143d2601c83612df6565b91506143dd8261439e565b602082019050919050565b5f6020820190508181035f8301526143ff816143c6565b9050919050565b7f4f776e61626c653a2063616c6c6572206973206e6f7420746865206f776e65725f82015250565b5f61443a602083612df6565b915061444582614406565b602082019050919050565b5f6020820190508181035f8301526144678161442e565b9050919050565b5f819050815f5260205f209050919050565b5f6020601f8301049050919050565b5f82821b905092915050565b5f600883026144ca7fffffffffffffffffffffffffffffffffffffffffffffffffffffffffffffffff8261448f565b6144d4868361448f565b95508019841693508086168417925050509392505050565b5f6145066145016144fc84612e96565b613a2c565b612e96565b9050919050565b5f819050919050565b61451f836144ec565b61453361452b8261450d565b84845461449b565b825550505050565b5f90565b61454761453b565b614552818484614516565b505050565b5b818110156145755761456a5f8261453f565b600181019050614558565b5050565b601f8211156145ba5761458b8161446e565b61459484614480565b810160208510156145a3578190505b6145b76145af85614480565b830182614557565b50505b505050565b5f82821c905092915050565b5f6145da5f19846008026145bf565b1980831691505092915050565b5f6145f283836145cb565b9150826002028217905092915050565b61460b82612dec565b67ffffffffffffffff81111561462457614623613030565b5b61462e8254613644565b614639828285614579565b5f60209050601f83116001811461466a575f8415614658578287015190505b61466285826145e7565b8655506146c9565b601f1984166146788661446e565b5f5b8281101561469f5784890151825560018201915060208501945060208101905061467a565b868310156146bc57848901516146b8601f8916826145cb565b8355505b6001600288020188555050505b505050505050565b7f4552433732313a20617070726f766520746f2063616c6c6572000000000000005f82015250565b5f614705601983612df6565b9150614710826146d1565b602082019050919050565b5f6020820190508181035f830152614732816146f9565b9050919050565b7f4552433732313a207472616e7366657220746f206e6f6e2045524337323152655f8201527f63656976657220696d706c656d656e7465720000000000000000000000000000602082015250565b5f614793603283612df6565b915061479e82614739565b604082019050919050565b5f6020820190508181035f8301526147c081614787565b9050919050565b7f4e487b71000000000000000000000000000000000000000000000000000000005f52601260045260245ffd5b7f455243373231456e756d657261626c653a20636f6e73656375746976652074725f8201527f616e7366657273206e6f7420737570706f727465640000000000000000000000602082015250565b5f61484e603583612df6565b9150614859826147f4565b604082019050919050565b5f6020820190508181035f83015261487b81614842565b9050919050565b5f6080820190506148955f830187612f24565b6148a26020830186612f24565b6148af6040830185612fb4565b81810360608301526148c18184613ee2565b905095945050505050565b5f6148d682612e96565b91506148e183612e96565b92508282039050818111156148f9576148f861381e565b5b92915050565b7f4e487b71000000000000000000000000000000000000000000000000000000005f52603160045260245ffdfea26469706673582212201b0754ef5b9fae46a536d1c550b2a5a841f79b65fd839214d46b268c1f2facbf64736f6c63430008140033697066733a2f2f62616679626569657a7062717136666176707337346572776e3335697263616532787171646d637a786a7337696d6f73646b6e3661686d75786d652f",
  "devdoc": {
    "events": {
      "Approval(address,address,uint256)": {
        "details": "Emitted when `owner` enables `approved` to manage the `tokenId` token."
      },
      "ApprovalForAll(address,address,bool)": {
        "details": "Emitted when `owner` enables or disables (`approved`) `operator` to manage all of its assets."
      },
      "Transfer(address,address,uint256)": {
        "details": "Emitted when `tokenId` token is transferred from `from` to `to`."
      }
    },
    "kind": "dev",
    "methods": {
      "DOMAIN_SEPARATOR()": {
        "returns": {
          "_0": "The domain seperator used in encoding of permit signature"
        }
      },
      "approve(address,uint256)": {
        "details": "See {IERC721-approve}."
      },
      "balanceOf(address)": {
        "details": "See {IERC721-balanceOf}."
      },
      "getApproved(uint256)": {
        "details": "See {IERC721-getApproved}."
      },
      "isApprovedForAll(address,address)": {
        "details": "See {IERC721-isApprovedForAll}."
      },
      "name()": {
        "details": "See {IERC721Metadata-name}."
      },
      "owner()": {
        "details": "Returns the address of the current owner."
      },
      "ownerOf(uint256)": {
        "details": "See {IERC721-ownerOf}."
      },
      "permit(address,uint256,uint256,uint8,bytes32,bytes32)": {
        "params": {
          "deadline": "The deadline timestamp by which the call must be mined for the approve to work",
          "r": "Must produce valid secp256k1 signature from the holder along with `v` and `s`",
          "s": "Must produce valid secp256k1 signature from the holder along with `r` and `v`",
          "spender": "The account that is being approved",
          "tokenId": "The ID of the token that is being approved for spending",
          "v": "Must produce valid secp256k1 signature from the holder along with `r` and `s`"
        }
      },
      "renounceOwnership()": {
        "details": "Leaves the contract without owner. It will not be possible to call `onlyOwner` functions. Can only be called by the current owner. NOTE: Renouncing ownership will leave the contract without an owner, thereby disabling any functionality that is only available to the owner."
      },
      "safeTransferFrom(address,address,uint256)": {
        "details": "See {IERC721-safeTransferFrom}."
      },
      "safeTransferFrom(address,address,uint256,bytes)": {
        "details": "See {IERC721-safeTransferFrom}."
      },
      "setApprovalForAll(address,bool)": {
        "details": "See {IERC721-setApprovalForAll}."
      },
      "supportsInterface(bytes4)": {
        "details": "See {IERC165-supportsInterface}."
      },
      "symbol()": {
        "details": "See {IERC721Metadata-symbol}."
      },
      "tokenByIndex(uint256)": {
        "details": "See {IERC721Enumerable-tokenByIndex}."
      },
      "tokenOfOwnerByIndex(address,uint256)": {
        "details": "See {IERC721Enumerable-tokenOfOwnerByIndex}."
      },
      "tokenURI(uint256)": {
        "details": "See {IERC721Metadata-tokenURI}."
      },
      "totalSupply()": {
        "details": "See {IERC721Enumerable-totalSupply}."
      },
      "transferFrom(address,address,uint256)": {
        "details": "See {IERC721-transferFrom}."
      },
      "transferOwnership(address)": {
        "details": "Transfers ownership of the contract to a new account (`newOwner`). Can only be called by the current owner."
      }
    },
    "version": 1
  },
  "userdoc": {
    "kind": "user",
    "methods": {
      "DOMAIN_SEPARATOR()": {
        "notice": "The domain separator used in the permit signature"
      },
      "PERMIT_TYPEHASH()": {
        "notice": "The permit typehash used in the permit signature"
      },
      "permit(address,uint256,uint256,uint8,bytes32,bytes32)": {
        "notice": "Approve of a specific token ID for spending by spender via signature"
      }
    },
    "version": 1
  },
  "storageLayout": {
    "storage": [
      {
        "astId": 138,
        "contract": "contracts/TRIS.sol:TRIS",
        "label": "_name",
        "offset": 0,
        "slot": "0",
        "type": "t_string_storage"
      },
      {
        "astId": 140,
        "contract": "contracts/TRIS.sol:TRIS",
        "label": "_symbol",
        "offset": 0,
        "slot": "1",
        "type": "t_string_storage"
      },
      {
        "astId": 144,
        "contract": "contracts/TRIS.sol:TRIS",
        "label": "_owners",
        "offset": 0,
        "slot": "2",
        "type": "t_mapping(t_uint256,t_address)"
      },
      {
        "astId": 148,
        "contract": "contracts/TRIS.sol:TRIS",
        "label": "_balances",
        "offset": 0,
        "slot": "3",
        "type": "t_mapping(t_address,t_uint256)"
      },
      {
        "astId": 152,
        "contract": "contracts/TRIS.sol:TRIS",
        "label": "_tokenApprovals",
        "offset": 0,
        "slot": "4",
        "type": "t_mapping(t_uint256,t_address)"
      },
      {
        "astId": 158,
        "contract": "contracts/TRIS.sol:TRIS",
        "label": "_operatorApprovals",
        "offset": 0,
        "slot": "5",
        "type": "t_mapping(t_address,t_mapping(t_address,t_bool))"
      },
      {
        "astId": 1188,
        "contract": "contracts/TRIS.sol:TRIS",
        "label": "_ownedTokens",
        "offset": 0,
        "slot": "6",
        "type": "t_mapping(t_address,t_mapping(t_uint256,t_uint256))"
      },
      {
        "astId": 1192,
        "contract": "contracts/TRIS.sol:TRIS",
        "label": "_ownedTokensIndex",
        "offset": 0,
        "slot": "7",
        "type": "t_mapping(t_uint256,t_uint256)"
      },
      {
        "astId": 1195,
        "contract": "contracts/TRIS.sol:TRIS",
        "label": "_allTokens",
        "offset": 0,
        "slot": "8",
        "type": "t_array(t_uint256)dyn_storage"
      },
      {
        "astId": 1199,
        "contract": "contracts/TRIS.sol:TRIS",
        "label": "_allTokensIndex",
        "offset": 0,
        "slot": "9",
        "type": "t_mapping(t_uint256,t_uint256)"
      },
      {
        "astId": 7,
        "contract": "contracts/TRIS.sol:TRIS",
        "label": "_owner",
        "offset": 0,
        "slot": "10",
        "type": "t_address"
      },
      {
        "astId": 3696,
        "contract": "contracts/TRIS.sol:TRIS",
        "label": "whitelistMintStarted",
        "offset": 20,
        "slot": "10",
        "type": "t_bool"
      },
      {
        "astId": 3698,
        "contract": "contracts/TRIS.sol:TRIS",
        "label": "whitelistMerkleRoot",
        "offset": 0,
        "slot": "11",
        "type": "t_bytes32"
      },
      {
        "astId": 3704,
        "contract": "contracts/TRIS.sol:TRIS",
        "label": "cap",
        "offset": 0,
        "slot": "12",
        "type": "t_uint256"
      },
      {
        "astId": 3708,
        "contract": "contracts/TRIS.sol:TRIS",
        "label": "nonces",
        "offset": 0,
        "slot": "13",
        "type": "t_mapping(t_uint256,t_uint256)"
      },
      {
        "astId": 3710,
        "contract": "contracts/TRIS.sol:TRIS",
        "label": "__baseURI",
        "offset": 0,
        "slot": "14",
        "type": "t_string_storage"
      },
      {
        "astId": 3791,
        "contract": "contracts/TRIS.sol:TRIS",
        "label": "whitelistMinted",
        "offset": 0,
        "slot": "15",
        "type": "t_mapping(t_address,t_uint256)"
      }
    ],
    "types": {
      "t_address": {
        "encoding": "inplace",
        "label": "address",
        "numberOfBytes": "20"
      },
      "t_array(t_uint256)dyn_storage": {
        "base": "t_uint256",
        "encoding": "dynamic_array",
        "label": "uint256[]",
        "numberOfBytes": "32"
      },
      "t_bool": {
        "encoding": "inplace",
        "label": "bool",
        "numberOfBytes": "1"
      },
      "t_bytes32": {
        "encoding": "inplace",
        "label": "bytes32",
        "numberOfBytes": "32"
      },
      "t_mapping(t_address,t_bool)": {
        "encoding": "mapping",
        "key": "t_address",
        "label": "mapping(address => bool)",
        "numberOfBytes": "32",
        "value": "t_bool"
      },
      "t_mapping(t_address,t_mapping(t_address,t_bool))": {
        "encoding": "mapping",
        "key": "t_address",
        "label": "mapping(address => mapping(address => bool))",
        "numberOfBytes": "32",
        "value": "t_mapping(t_address,t_bool)"
      },
      "t_mapping(t_address,t_mapping(t_uint256,t_uint256))": {
        "encoding": "mapping",
        "key": "t_address",
        "label": "mapping(address => mapping(uint256 => uint256))",
        "numberOfBytes": "32",
        "value": "t_mapping(t_uint256,t_uint256)"
      },
      "t_mapping(t_address,t_uint256)": {
        "encoding": "mapping",
        "key": "t_address",
        "label": "mapping(address => uint256)",
        "numberOfBytes": "32",
        "value": "t_uint256"
      },
      "t_mapping(t_uint256,t_address)": {
        "encoding": "mapping",
        "key": "t_uint256",
        "label": "mapping(uint256 => address)",
        "numberOfBytes": "32",
        "value": "t_address"
      },
      "t_mapping(t_uint256,t_uint256)": {
        "encoding": "mapping",
        "key": "t_uint256",
        "label": "mapping(uint256 => uint256)",
        "numberOfBytes": "32",
        "value": "t_uint256"
      },
      "t_string_storage": {
        "encoding": "bytes",
        "label": "string",
        "numberOfBytes": "32"
      },
      "t_uint256": {
        "encoding": "inplace",
        "label": "uint256",
        "numberOfBytes": "32"
      }
    }
  }
}