{
  "_format": "hh-sol-artifact-1",
  "contractName": "TRIS",
  "sourceName": "contracts/TRIS.sol",
  "abi": [
    {
      "inputs": [
        {
          "internalType": "bytes32",
          "name": "_merkleRoot",
          "type": "bytes32"
        }
      ],
      "stateMutability": "nonpayable",
      "type": "constructor"
    },
    {
      "anonymous": false,
      "inputs": [
        {
          "indexed": true,
          "internalType": "address",
          "name": "owner",
          "type": "address"
        },
        {
          "indexed": true,
          "internalType": "address",
          "name": "approved",
          "type": "address"
        },
        {
          "indexed": true,
          "internalType": "uint256",
          "name": "tokenId",
          "type": "uint256"
        }
      ],
      "name": "Approval",
      "type": "event"
    },
    {
      "anonymous": false,
      "inputs": [
        {
          "indexed": true,
          "internalType": "address",
          "name": "owner",
          "type": "address"
        },
        {
          "indexed": true,
          "internalType": "address",
          "name": "operator",
          "type": "address"
        },
        {
          "indexed": false,
          "internalType": "bool",
          "name": "approved",
          "type": "bool"
        }
      ],
      "name": "ApprovalForAll",
      "type": "event"
    },
    {
      "anonymous": false,
      "inputs": [
        {
          "indexed": true,
          "internalType": "address",
          "name": "previousOwner",
          "type": "address"
        },
        {
          "indexed": true,
          "internalType": "address",
          "name": "newOwner",
          "type": "address"
        }
      ],
      "name": "OwnershipTransferred",
      "type": "event"
    },
    {
      "anonymous": false,
      "inputs": [
        {
          "indexed": true,
          "internalType": "address",
          "name": "from",
          "type": "address"
        },
        {
          "indexed": true,
          "internalType": "address",
          "name": "to",
          "type": "address"
        },
        {
          "indexed": true,
          "internalType": "uint256",
          "name": "tokenId",
          "type": "uint256"
        }
      ],
      "name": "Transfer",
      "type": "event"
    },
    {
      "inputs": [],
      "name": "DOMAIN_SEPARATOR",
      "outputs": [
        {
          "internalType": "bytes32",
          "name": "",
          "type": "bytes32"
        }
      ],
      "stateMutability": "view",
      "type": "function"
    },
    {
      "inputs": [],
      "name": "PERMIT_TYPEHASH",
      "outputs": [
        {
          "internalType": "bytes32",
          "name": "",
          "type": "bytes32"
        }
      ],
      "stateMutability": "view",
      "type": "function"
    },
    {
      "inputs": [],
      "name": "__baseURI",
      "outputs": [
        {
          "internalType": "string",
          "name": "",
          "type": "string"
        }
      ],
      "stateMutability": "view",
      "type": "function"
    },
    {
      "inputs": [
        {
          "internalType": "address",
          "name": "_to",
          "type": "address"
        },
        {
          "internalType": "uint256",
          "name": "_tokenId",
          "type": "uint256"
        }
      ],
      "name": "adminMint",
      "outputs": [],
      "stateMutability": "nonpayable",
      "type": "function"
    },
    {
      "inputs": [
        {
          "internalType": "address",
          "name": "to",
          "type": "address"
        },
        {
          "internalType": "uint256",
          "name": "tokenId",
          "type": "uint256"
        }
      ],
      "name": "approve",
      "outputs": [],
      "stateMutability": "nonpayable",
      "type": "function"
    },
    {
      "inputs": [
        {
          "internalType": "address",
          "name": "owner",
          "type": "address"
        }
      ],
      "name": "balanceOf",
      "outputs": [
        {
          "internalType": "uint256",
          "name": "",
          "type": "uint256"
        }
      ],
      "stateMutability": "view",
      "type": "function"
    },
    {
      "inputs": [
        {
          "internalType": "address",
          "name": "",
          "type": "address"
        }
      ],
      "name": "claimed",
      "outputs": [
        {
          "internalType": "bool",
          "name": "",
          "type": "bool"
        }
      ],
      "stateMutability": "view",
      "type": "function"
    },
    {
      "inputs": [
        {
          "internalType": "uint256",
          "name": "tokenId",
          "type": "uint256"
        }
      ],
      "name": "getApproved",
      "outputs": [
        {
          "internalType": "address",
          "name": "",
          "type": "address"
        }
      ],
      "stateMutability": "view",
      "type": "function"
    },
    {
      "inputs": [
        {
          "internalType": "address",
          "name": "owner",
          "type": "address"
        },
        {
          "internalType": "address",
          "name": "operator",
          "type": "address"
        }
      ],
      "name": "isApprovedForAll",
      "outputs": [
        {
          "internalType": "bool",
          "name": "",
          "type": "bool"
        }
      ],
      "stateMutability": "view",
      "type": "function"
    },
    {
      "inputs": [],
      "name": "merkleRoot",
      "outputs": [
        {
          "internalType": "bytes32",
          "name": "",
          "type": "bytes32"
        }
      ],
      "stateMutability": "view",
      "type": "function"
    },
    {
      "inputs": [
        {
          "internalType": "bytes32[]",
          "name": "merkleProof",
          "type": "bytes32[]"
        }
      ],
      "name": "mint",
      "outputs": [],
      "stateMutability": "payable",
      "type": "function"
    },
    {
      "inputs": [],
      "name": "name",
      "outputs": [
        {
          "internalType": "string",
          "name": "",
          "type": "string"
        }
      ],
      "stateMutability": "view",
      "type": "function"
    },
    {
      "inputs": [],
      "name": "nextTokenId",
      "outputs": [
        {
          "internalType": "uint256",
          "name": "",
          "type": "uint256"
        }
      ],
      "stateMutability": "view",
      "type": "function"
    },
    {
      "inputs": [
        {
          "internalType": "uint256",
          "name": "",
          "type": "uint256"
        }
      ],
      "name": "nonces",
      "outputs": [
        {
          "internalType": "uint256",
          "name": "",
          "type": "uint256"
        }
      ],
      "stateMutability": "view",
      "type": "function"
    },
    {
      "inputs": [],
      "name": "owner",
      "outputs": [
        {
          "internalType": "address",
          "name": "",
          "type": "address"
        }
      ],
      "stateMutability": "view",
      "type": "function"
    },
    {
      "inputs": [
        {
          "internalType": "uint256",
          "name": "tokenId",
          "type": "uint256"
        }
      ],
      "name": "ownerOf",
      "outputs": [
        {
          "internalType": "address",
          "name": "",
          "type": "address"
        }
      ],
      "stateMutability": "view",
      "type": "function"
    },
    {
      "inputs": [
        {
          "internalType": "address",
          "name": "spender",
          "type": "address"
        },
        {
          "internalType": "uint256",
          "name": "tokenId",
          "type": "uint256"
        },
        {
          "internalType": "uint256",
          "name": "deadline",
          "type": "uint256"
        },
        {
          "internalType": "uint8",
          "name": "v",
          "type": "uint8"
        },
        {
          "internalType": "bytes32",
          "name": "r",
          "type": "bytes32"
        },
        {
          "internalType": "bytes32",
          "name": "s",
          "type": "bytes32"
        }
      ],
      "name": "permit",
      "outputs": [],
      "stateMutability": "payable",
      "type": "function"
    },
    {
      "inputs": [],
      "name": "renounceOwnership",
      "outputs": [],
      "stateMutability": "nonpayable",
      "type": "function"
    },
    {
      "inputs": [
        {
          "internalType": "address",
          "name": "from",
          "type": "address"
        },
        {
          "internalType": "address",
          "name": "to",
          "type": "address"
        },
        {
          "internalType": "uint256",
          "name": "tokenId",
          "type": "uint256"
        }
      ],
      "name": "safeTransferFrom",
      "outputs": [],
      "stateMutability": "nonpayable",
      "type": "function"
    },
    {
      "inputs": [
        {
          "internalType": "address",
          "name": "from",
          "type": "address"
        },
        {
          "internalType": "address",
          "name": "to",
          "type": "address"
        },
        {
          "internalType": "uint256",
          "name": "tokenId",
          "type": "uint256"
        },
        {
          "internalType": "bytes",
          "name": "data",
          "type": "bytes"
        }
      ],
      "name": "safeTransferFrom",
      "outputs": [],
      "stateMutability": "nonpayable",
      "type": "function"
    },
    {
      "inputs": [
        {
          "internalType": "address",
          "name": "operator",
          "type": "address"
        },
        {
          "internalType": "bool",
          "name": "approved",
          "type": "bool"
        }
      ],
      "name": "setApprovalForAll",
      "outputs": [],
      "stateMutability": "nonpayable",
      "type": "function"
    },
    {
      "inputs": [
        {
          "internalType": "string",
          "name": "_uri",
          "type": "string"
        }
      ],
      "name": "setBaseURI",
      "outputs": [],
      "stateMutability": "nonpayable",
      "type": "function"
    },
    {
      "inputs": [
        {
          "internalType": "bytes4",
          "name": "interfaceId",
          "type": "bytes4"
        }
      ],
      "name": "supportsInterface",
      "outputs": [
        {
          "internalType": "bool",
          "name": "",
          "type": "bool"
        }
      ],
      "stateMutability": "view",
      "type": "function"
    },
    {
      "inputs": [],
      "name": "symbol",
      "outputs": [
        {
          "internalType": "string",
          "name": "",
          "type": "string"
        }
      ],
      "stateMutability": "view",
      "type": "function"
    },
    {
      "inputs": [
        {
          "internalType": "uint256",
          "name": "index",
          "type": "uint256"
        }
      ],
      "name": "tokenByIndex",
      "outputs": [
        {
          "internalType": "uint256",
          "name": "",
          "type": "uint256"
        }
      ],
      "stateMutability": "view",
      "type": "function"
    },
    {
      "inputs": [
        {
          "internalType": "address",
          "name": "owner",
          "type": "address"
        },
        {
          "internalType": "uint256",
          "name": "index",
          "type": "uint256"
        }
      ],
      "name": "tokenOfOwnerByIndex",
      "outputs": [
        {
          "internalType": "uint256",
          "name": "",
          "type": "uint256"
        }
      ],
      "stateMutability": "view",
      "type": "function"
    },
    {
      "inputs": [
        {
          "internalType": "uint256",
          "name": "tokenId",
          "type": "uint256"
        }
      ],
      "name": "tokenURI",
      "outputs": [
        {
          "internalType": "string",
          "name": "",
          "type": "string"
        }
      ],
      "stateMutability": "view",
      "type": "function"
    },
    {
      "inputs": [],
      "name": "totalSupply",
      "outputs": [
        {
          "internalType": "uint256",
          "name": "",
          "type": "uint256"
        }
      ],
      "stateMutability": "view",
      "type": "function"
    },
    {
      "inputs": [
        {
          "internalType": "address",
          "name": "from",
          "type": "address"
        },
        {
          "internalType": "address",
          "name": "to",
          "type": "address"
        },
        {
          "internalType": "uint256",
          "name": "tokenId",
          "type": "uint256"
        }
      ],
      "name": "transferFrom",
      "outputs": [],
      "stateMutability": "nonpayable",
      "type": "function"
    },
    {
      "inputs": [
        {
          "internalType": "address",
          "name": "newOwner",
          "type": "address"
        }
      ],
      "name": "transferOwnership",
      "outputs": [],
      "stateMutability": "nonpayable",
      "type": "function"
    },
    {
      "inputs": [],
      "name": "version",
      "outputs": [
        {
          "internalType": "string",
          "name": "",
          "type": "string"
        }
      ],
      "stateMutability": "pure",
      "type": "function"
    }
  ],
  "bytecode": "0x60e060405234801562000010575f80fd5b5060405162004d1438038062004d14833981810160405281019062000036919062000294565b6040518060400160405280600481526020017f54524953000000000000000000000000000000000000000000000000000000008152506040518060400160405280600481526020017f54524953000000000000000000000000000000000000000000000000000000008152506040518060400160405280600181526020017f31000000000000000000000000000000000000000000000000000000000000008152508282815f9081620000ea919062000528565b508060019081620000fc919062000528565b505050828051906020012060808181525050808051906020012060a0818152505050505062000140620001346200017960201b60201c565b6200018060201b60201c565b8060c081815250506200017260405180608001604052806043815260200162004cd1604391396200024360201b60201c565b506200060c565b5f33905090565b5f600a5f9054906101000a900473ffffffffffffffffffffffffffffffffffffffff16905081600a5f6101000a81548173ffffffffffffffffffffffffffffffffffffffff021916908373ffffffffffffffffffffffffffffffffffffffff1602179055508173ffffffffffffffffffffffffffffffffffffffff168173ffffffffffffffffffffffffffffffffffffffff167f8be0079c531659141344cd1fd0a4f28419497f9722a3daafe3b4186f6b6457e060405160405180910390a35050565b80600e908162000254919062000528565b5050565b5f80fd5b5f819050919050565b62000270816200025c565b81146200027b575f80fd5b50565b5f815190506200028e8162000265565b92915050565b5f60208284031215620002ac57620002ab62000258565b5b5f620002bb848285016200027e565b91505092915050565b5f81519050919050565b7f4e487b71000000000000000000000000000000000000000000000000000000005f52604160045260245ffd5b7f4e487b71000000000000000000000000000000000000000000000000000000005f52602260045260245ffd5b5f60028204905060018216806200034057607f821691505b602082108103620003565762000355620002fb565b5b50919050565b5f819050815f5260205f209050919050565b5f6020601f8301049050919050565b5f82821b905092915050565b5f60088302620003ba7fffffffffffffffffffffffffffffffffffffffffffffffffffffffffffffffff826200037d565b620003c686836200037d565b95508019841693508086168417925050509392505050565b5f819050919050565b5f819050919050565b5f620004106200040a6200040484620003de565b620003e7565b620003de565b9050919050565b5f819050919050565b6200042b83620003f0565b620004436200043a8262000417565b84845462000389565b825550505050565b5f90565b620004596200044b565b6200046681848462000420565b505050565b5b818110156200048d57620004815f826200044f565b6001810190506200046c565b5050565b601f821115620004dc57620004a6816200035c565b620004b1846200036e565b81016020851015620004c1578190505b620004d9620004d0856200036e565b8301826200046b565b50505b505050565b5f82821c905092915050565b5f620004fe5f1984600802620004e1565b1980831691505092915050565b5f620005188383620004ed565b9150826002028217905092915050565b6200053382620002c4565b67ffffffffffffffff8111156200054f576200054e620002ce565b5b6200055b825462000328565b6200056882828562000491565b5f60209050601f8311600181146200059e575f841562000589578287015190505b6200059585826200050b565b86555062000604565b601f198416620005ae866200035c565b5f5b82811015620005d757848901518255600182019150602085019450602081019050620005b0565b86831015620005f75784890151620005f3601f891682620004ed565b8355505b6001600288020188555050505b505050505050565b60805160a05160c0516146936200063e5f395f8181610a48015261142a01525f610b7501525f610b5401526146935ff3fe6080604052600436106101d7575f3560e01c80636352211e11610101578063a22cb46511610094578063c884ef8311610063578063c884ef831461069d578063e58306f9146106d9578063e985e9c514610701578063f2fde38b1461073d576101d7565b8063a22cb465146105f5578063b77a147b1461061d578063b88d4fde14610639578063c87b56dd14610661576101d7565b806375794a3c116100d057806375794a3c1461055b5780637ac2ff7b146105855780638da5cb5b146105a157806395d89b41146105cb576101d7565b80636352211e146104a35780636e34a482146104df57806370a0823114610509578063715018a614610545576101d7565b80632eb4a7ab1161017957806342842e0e1161014857806342842e0e146103ed5780634f6ccce71461041557806354fd4d501461045157806355f804b31461047b576101d7565b80632eb4a7ab146103335780632f745c591461035d57806330adf81f146103995780633644e515146103c3576101d7565b8063095ea7b3116101b5578063095ea7b31461027d578063141a468c146102a557806318160ddd146102e157806323b872dd1461030b576101d7565b806301ffc9a7146101db57806306fdde0314610217578063081812fc14610241575b5f80fd5b3480156101e6575f80fd5b5061020160048036038101906101fc9190612c49565b610765565b60405161020e9190612c8e565b60405180910390f35b348015610222575f80fd5b5061022b6107de565b6040516102389190612d31565b60405180910390f35b34801561024c575f80fd5b5061026760048036038101906102629190612d84565b61086d565b6040516102749190612dee565b60405180910390f35b348015610288575f80fd5b506102a3600480360381019061029e9190612e31565b6108af565b005b3480156102b0575f80fd5b506102cb60048036038101906102c69190612d84565b6109c5565b6040516102d89190612e7e565b60405180910390f35b3480156102ec575f80fd5b506102f56109da565b6040516103029190612e7e565b60405180910390f35b348015610316575f80fd5b50610331600480360381019061032c9190612e97565b6109e6565b005b34801561033e575f80fd5b50610347610a46565b6040516103549190612eff565b60405180910390f35b348015610368575f80fd5b50610383600480360381019061037e9190612e31565b610a6a565b6040516103909190612e7e565b60405180910390f35b3480156103a4575f80fd5b506103ad610b0a565b6040516103ba9190612eff565b60405180910390f35b3480156103ce575f80fd5b506103d7610b30565b6040516103e49190612eff565b60405180910390f35b3480156103f8575f80fd5b50610413600480360381019061040e9190612e97565b610bcc565b005b348015610420575f80fd5b5061043b60048036038101906104369190612d84565b610beb565b6040516104489190612e7e565b60405180910390f35b34801561045c575f80fd5b50610465610c59565b6040516104729190612d31565b60405180910390f35b348015610486575f80fd5b506104a1600480360381019061049c9190613044565b610c96565b005b3480156104ae575f80fd5b506104c960048036038101906104c49190612d84565b610caa565b6040516104d69190612dee565b60405180910390f35b3480156104ea575f80fd5b506104f3610d2e565b6040516105009190612d31565b60405180910390f35b348015610514575f80fd5b5061052f600480360381019061052a919061308b565b610dba565b60405161053c9190612e7e565b60405180910390f35b348015610550575f80fd5b50610559610e6e565b005b348015610566575f80fd5b5061056f610e81565b60405161057c9190612e7e565b60405180910390f35b61059f600480360381019061059a9190613116565b610e87565b005b3480156105ac575f80fd5b506105b561122e565b6040516105c29190612dee565b60405180910390f35b3480156105d6575f80fd5b506105df611256565b6040516105ec9190612d31565b60405180910390f35b348015610600575f80fd5b5061061b600480360381019061061691906131c9565b6112e6565b005b61063760048036038101906106329190613264565b6112fc565b005b348015610644575f80fd5b5061065f600480360381019061065a919061334d565b6114c0565b005b34801561066c575f80fd5b5061068760048036038101906106829190612d84565b611522565b6040516106949190612d31565b60405180910390f35b3480156106a8575f80fd5b506106c360048036038101906106be919061308b565b611587565b6040516106d09190612c8e565b60405180910390f35b3480156106e4575f80fd5b506106ff60048036038101906106fa9190612e31565b6115a4565b005b34801561070c575f80fd5b50610727600480360381019061072291906133cd565b6115ba565b6040516107349190612c8e565b60405180910390f35b348015610748575f80fd5b50610763600480360381019061075e919061308b565b611648565b005b5f7f780e9d63000000000000000000000000000000000000000000000000000000007bffffffffffffffffffffffffffffffffffffffffffffffffffffffff1916827bffffffffffffffffffffffffffffffffffffffffffffffffffffffff191614806107d757506107d6826116ca565b5b9050919050565b60605f80546107ec90613438565b80601f016020809104026020016040519081016040528092919081815260200182805461081890613438565b80156108635780601f1061083a57610100808354040283529160200191610863565b820191905f5260205f20905b81548152906001019060200180831161084657829003601f168201915b5050505050905090565b5f610877826117ab565b60045f8381526020019081526020015f205f9054906101000a900473ffffffffffffffffffffffffffffffffffffffff169050919050565b5f6108b982610caa565b90508073ffffffffffffffffffffffffffffffffffffffff168373ffffffffffffffffffffffffffffffffffffffff1603610929576040517f08c379a0000000000000000000000000000000000000000000000000000000008152600401610920906134d8565b60405180910390fd5b8073ffffffffffffffffffffffffffffffffffffffff166109486117f6565b73ffffffffffffffffffffffffffffffffffffffff1614806109775750610976816109716117f6565b6115ba565b5b6109b6576040517f08c379a00000000000000000000000000000000000000000000000000000000081526004016109ad90613566565b60405180910390fd5b6109c083836117fd565b505050565b600d602052805f5260405f205f915090505481565b5f600880549050905090565b6109f76109f16117f6565b826118b3565b610a36576040517f08c379a0000000000000000000000000000000000000000000000000000000008152600401610a2d906135f4565b60405180910390fd5b610a41838383611947565b505050565b7f000000000000000000000000000000000000000000000000000000000000000081565b5f610a7483610dba565b8210610ab5576040517f08c379a0000000000000000000000000000000000000000000000000000000008152600401610aac90613682565b60405180910390fd5b60065f8473ffffffffffffffffffffffffffffffffffffffff1673ffffffffffffffffffffffffffffffffffffffff1681526020019081526020015f205f8381526020019081526020015f2054905092915050565b7f49ecf333e5b8c95c40fdafc95c1ad136e8914a8fb55e9dc8bb01eaa83a2df9ad5f1b81565b5f7f8b73c3c69bb8fe3d512ecc4cf759cc79239f7b179b0ffacaa9a75d522b39400f7f00000000000000000000000000000000000000000000000000000000000000007f0000000000000000000000000000000000000000000000000000000000000000610b9c611c33565b30604051602001610bb19594939291906136e2565b60405160208183030381529060405280519060200120905090565b610be683838360405180602001604052805f8152506114c0565b505050565b5f610bf46109da565b8210610c35576040517f08c379a0000000000000000000000000000000000000000000000000000000008152600401610c2c906137a3565b60405180910390fd5b60088281548110610c4957610c486137c1565b5b905f5260205f2001549050919050565b60606040518060400160405280600181526020017f3100000000000000000000000000000000000000000000000000000000000000815250905090565b610c9e611c3a565b610ca781611cb8565b50565b5f80610cb583611ccb565b90505f73ffffffffffffffffffffffffffffffffffffffff168173ffffffffffffffffffffffffffffffffffffffff1603610d25576040517f08c379a0000000000000000000000000000000000000000000000000000000008152600401610d1c90613838565b60405180910390fd5b80915050919050565b600e8054610d3b90613438565b80601f0160208091040260200160405190810160405280929190818152602001828054610d6790613438565b8015610db25780601f10610d8957610100808354040283529160200191610db2565b820191905f5260205f20905b815481529060010190602001808311610d9557829003601f168201915b505050505081565b5f8073ffffffffffffffffffffffffffffffffffffffff168273ffffffffffffffffffffffffffffffffffffffff1603610e29576040517f08c379a0000000000000000000000000000000000000000000000000000000008152600401610e20906138c6565b60405180910390fd5b60035f8373ffffffffffffffffffffffffffffffffffffffff1673ffffffffffffffffffffffffffffffffffffffff1681526020019081526020015f20549050919050565b610e76611c3a565b610e7f5f611d04565b565b600b5481565b83610e90611dc7565b1115610ed1576040517f08c379a0000000000000000000000000000000000000000000000000000000008152600401610ec89061392e565b60405180910390fd5b5f610eda610b30565b7f49ecf333e5b8c95c40fdafc95c1ad136e8914a8fb55e9dc8bb01eaa83a2df9ad5f1b8888610f088a611dce565b89604051602001610f1d95949392919061394c565b60405160208183030381529060405280519060200120604051602001610f44929190613a11565b6040516020818303038152906040528051906020012090505f610f6687610caa565b90508073ffffffffffffffffffffffffffffffffffffffff168873ffffffffffffffffffffffffffffffffffffffff1603610fd6576040517f08c379a0000000000000000000000000000000000000000000000000000000008152600401610fcd90613ab7565b60405180910390fd5b610fdf81611e13565b156110ed57631626ba7e60e01b8173ffffffffffffffffffffffffffffffffffffffff16631626ba7e8487878a60405160200161101e93929190613b09565b6040516020818303038152906040526040518363ffffffff1660e01b815260040161104a929190613b97565b602060405180830381865afa158015611065573d5f803e3d5ffd5b505050506040513d601f19601f820116820180604052508101906110899190613bd9565b7bffffffffffffffffffffffffffffffffffffffffffffffffffffffff1916146110e8576040517f08c379a00000000000000000000000000000000000000000000000000000000081526004016110df90613c4e565b60405180910390fd5b61121a565b5f6001838787876040515f81526020016040526040516111109493929190613c7b565b6020604051602081039080840390855afa158015611130573d5f803e3d5ffd5b5050506020604051035190505f73ffffffffffffffffffffffffffffffffffffffff168173ffffffffffffffffffffffffffffffffffffffff16036111aa576040517f08c379a00000000000000000000000000000000000000000000000000000000081526004016111a190613d08565b60405180910390fd5b8173ffffffffffffffffffffffffffffffffffffffff168173ffffffffffffffffffffffffffffffffffffffff1614611218576040517f08c379a000000000000000000000000000000000000000000000000000000000815260040161120f90613c4e565b60405180910390fd5b505b61122488886117fd565b5050505050505050565b5f600a5f9054906101000a900473ffffffffffffffffffffffffffffffffffffffff16905090565b60606001805461126590613438565b80601f016020809104026020016040519081016040528092919081815260200182805461129190613438565b80156112dc5780601f106112b3576101008083540402835291602001916112dc565b820191905f5260205f20905b8154815290600101906020018083116112bf57829003601f168201915b5050505050905090565b6112f86112f16117f6565b8383611e35565b5050565b5f1515600c5f3373ffffffffffffffffffffffffffffffffffffffff1673ffffffffffffffffffffffffffffffffffffffff1681526020019081526020015f205f9054906101000a900460ff1615151461138b576040517f08c379a000000000000000000000000000000000000000000000000000000000815260040161138290613d70565b60405180910390fd5b6001600c5f3373ffffffffffffffffffffffffffffffffffffffff1673ffffffffffffffffffffffffffffffffffffffff1681526020019081526020015f205f6101000a81548160ff021916908315150217905550600115156114578383808060200260200160405190810160405280939291908181526020018383602002808284375f81840152601f19601f820116905080830192505050505050507f000000000000000000000000000000000000000000000000000000000000000061145233611f9c565b611fbd565b151514611499576040517f08c379a000000000000000000000000000000000000000000000000000000000815260040161149090613dd8565b60405180910390fd5b600b5f8154809291906114ab90613e23565b91905055506114bc33600b54611fd3565b5050565b6114d16114cb6117f6565b836118b3565b611510576040517f08c379a0000000000000000000000000000000000000000000000000000000008152600401611507906135f4565b60405180910390fd5b61151c848484846121e6565b50505050565b606061152d826117ab565b5f611536612242565b90505f8151116115545760405180602001604052805f81525061157f565b8061155e846122d2565b60405160200161156f929190613e9a565b6040516020818303038152906040525b915050919050565b600c602052805f5260405f205f915054906101000a900460ff1681565b6115ac611c3a565b6115b68282611fd3565b5050565b5f60055f8473ffffffffffffffffffffffffffffffffffffffff1673ffffffffffffffffffffffffffffffffffffffff1681526020019081526020015f205f8373ffffffffffffffffffffffffffffffffffffffff1673ffffffffffffffffffffffffffffffffffffffff1681526020019081526020015f205f9054906101000a900460ff16905092915050565b611650611c3a565b5f73ffffffffffffffffffffffffffffffffffffffff168173ffffffffffffffffffffffffffffffffffffffff16036116be576040517f08c379a00000000000000000000000000000000000000000000000000000000081526004016116b590613f2d565b60405180910390fd5b6116c781611d04565b50565b5f7f80ac58cd000000000000000000000000000000000000000000000000000000007bffffffffffffffffffffffffffffffffffffffffffffffffffffffff1916827bffffffffffffffffffffffffffffffffffffffffffffffffffffffff1916148061179457507f5b5e139f000000000000000000000000000000000000000000000000000000007bffffffffffffffffffffffffffffffffffffffffffffffffffffffff1916827bffffffffffffffffffffffffffffffffffffffffffffffffffffffff1916145b806117a457506117a38261239c565b5b9050919050565b6117b481612405565b6117f3576040517f08c379a00000000000000000000000000000000000000000000000000000000081526004016117ea90613838565b60405180910390fd5b50565b5f33905090565b8160045f8381526020019081526020015f205f6101000a81548173ffffffffffffffffffffffffffffffffffffffff021916908373ffffffffffffffffffffffffffffffffffffffff160217905550808273ffffffffffffffffffffffffffffffffffffffff1661186d83610caa565b73ffffffffffffffffffffffffffffffffffffffff167f8c5be1e5ebec7d5bd14f71427d1e84f3dd0314c0f7b2291e5b200ac8c7c3b92560405160405180910390a45050565b5f806118be83610caa565b90508073ffffffffffffffffffffffffffffffffffffffff168473ffffffffffffffffffffffffffffffffffffffff16148061190057506118ff81856115ba565b5b8061193e57508373ffffffffffffffffffffffffffffffffffffffff166119268461086d565b73ffffffffffffffffffffffffffffffffffffffff16145b91505092915050565b8273ffffffffffffffffffffffffffffffffffffffff1661196782610caa565b73ffffffffffffffffffffffffffffffffffffffff16146119bd576040517f08c379a00000000000000000000000000000000000000000000000000000000081526004016119b490613fbb565b60405180910390fd5b5f73ffffffffffffffffffffffffffffffffffffffff168273ffffffffffffffffffffffffffffffffffffffff1603611a2b576040517f08c379a0000000000000000000000000000000000000000000000000000000008152600401611a2290614049565b60405180910390fd5b611a388383836001612445565b8273ffffffffffffffffffffffffffffffffffffffff16611a5882610caa565b73ffffffffffffffffffffffffffffffffffffffff1614611aae576040517f08c379a0000000000000000000000000000000000000000000000000000000008152600401611aa590613fbb565b60405180910390fd5b60045f8281526020019081526020015f205f6101000a81549073ffffffffffffffffffffffffffffffffffffffff0219169055600160035f8573ffffffffffffffffffffffffffffffffffffffff1673ffffffffffffffffffffffffffffffffffffffff1681526020019081526020015f205f8282540392505081905550600160035f8473ffffffffffffffffffffffffffffffffffffffff1673ffffffffffffffffffffffffffffffffffffffff1681526020019081526020015f205f82825401925050819055508160025f8381526020019081526020015f205f6101000a81548173ffffffffffffffffffffffffffffffffffffffff021916908373ffffffffffffffffffffffffffffffffffffffff160217905550808273ffffffffffffffffffffffffffffffffffffffff168473ffffffffffffffffffffffffffffffffffffffff167fddf252ad1be2c89b69c2b068fc378daa952ba7f163c4a11628f55a4df523b3ef60405160405180910390a4611c2e83838360016125a0565b505050565b5f46905090565b611c426117f6565b73ffffffffffffffffffffffffffffffffffffffff16611c6061122e565b73ffffffffffffffffffffffffffffffffffffffff1614611cb6576040517f08c379a0000000000000000000000000000000000000000000000000000000008152600401611cad906140b1565b60405180910390fd5b565b80600e9081611cc79190614263565b5050565b5f60025f8381526020019081526020015f205f9054906101000a900473ffffffffffffffffffffffffffffffffffffffff169050919050565b5f600a5f9054906101000a900473ffffffffffffffffffffffffffffffffffffffff16905081600a5f6101000a81548173ffffffffffffffffffffffffffffffffffffffff021916908373ffffffffffffffffffffffffffffffffffffffff1602179055508173ffffffffffffffffffffffffffffffffffffffff168173ffffffffffffffffffffffffffffffffffffffff167f8be0079c531659141344cd1fd0a4f28419497f9722a3daafe3b4186f6b6457e060405160405180910390a35050565b5f42905090565b5f80600d5f8481526020019081526020015f20549050600d5f8481526020019081526020015f205f815480929190611e0590613e23565b919050555080915050919050565b5f808273ffffffffffffffffffffffffffffffffffffffff163b119050919050565b8173ffffffffffffffffffffffffffffffffffffffff168373ffffffffffffffffffffffffffffffffffffffff1603611ea3576040517f08c379a0000000000000000000000000000000000000000000000000000000008152600401611e9a9061437c565b60405180910390fd5b8060055f8573ffffffffffffffffffffffffffffffffffffffff1673ffffffffffffffffffffffffffffffffffffffff1681526020019081526020015f205f8473ffffffffffffffffffffffffffffffffffffffff1673ffffffffffffffffffffffffffffffffffffffff1681526020019081526020015f205f6101000a81548160ff0219169083151502179055508173ffffffffffffffffffffffffffffffffffffffff168373ffffffffffffffffffffffffffffffffffffffff167f17307eab39ab6107e8899845ad3d59bd9653f200f220920489ca2b5937696c3183604051611f8f9190612c8e565b60405180910390a3505050565b5f8173ffffffffffffffffffffffffffffffffffffffff165f1b9050919050565b5f82611fc985846125a6565b1490509392505050565b5f73ffffffffffffffffffffffffffffffffffffffff168273ffffffffffffffffffffffffffffffffffffffff1603612041576040517f08c379a0000000000000000000000000000000000000000000000000000000008152600401612038906143e4565b60405180910390fd5b61204a81612405565b1561208a576040517f08c379a00000000000000000000000000000000000000000000000000000000081526004016120819061444c565b60405180910390fd5b6120975f83836001612445565b6120a081612405565b156120e0576040517f08c379a00000000000000000000000000000000000000000000000000000000081526004016120d79061444c565b60405180910390fd5b600160035f8473ffffffffffffffffffffffffffffffffffffffff1673ffffffffffffffffffffffffffffffffffffffff1681526020019081526020015f205f82825401925050819055508160025f8381526020019081526020015f205f6101000a81548173ffffffffffffffffffffffffffffffffffffffff021916908373ffffffffffffffffffffffffffffffffffffffff160217905550808273ffffffffffffffffffffffffffffffffffffffff165f73ffffffffffffffffffffffffffffffffffffffff167fddf252ad1be2c89b69c2b068fc378daa952ba7f163c4a11628f55a4df523b3ef60405160405180910390a46121e25f838360016125a0565b5050565b6121f1848484611947565b6121fd848484846125fa565b61223c576040517f08c379a0000000000000000000000000000000000000000000000000000000008152600401612233906144da565b60405180910390fd5b50505050565b6060600e805461225190613438565b80601f016020809104026020016040519081016040528092919081815260200182805461227d90613438565b80156122c85780601f1061229f576101008083540402835291602001916122c8565b820191905f5260205f20905b8154815290600101906020018083116122ab57829003601f168201915b5050505050905090565b60605f60016122e08461277c565b0190505f8167ffffffffffffffff8111156122fe576122fd612f20565b5b6040519080825280601f01601f1916602001820160405280156123305781602001600182028036833780820191505090505b5090505f82602001820190505b600115612391578080600190039150507f3031323334353637383961626364656600000000000000000000000000000000600a86061a8153600a8581612386576123856144f8565b5b0494505f850361233d575b819350505050919050565b5f7f01ffc9a7000000000000000000000000000000000000000000000000000000007bffffffffffffffffffffffffffffffffffffffffffffffffffffffff1916827bffffffffffffffffffffffffffffffffffffffffffffffffffffffff1916149050919050565b5f8073ffffffffffffffffffffffffffffffffffffffff1661242683611ccb565b73ffffffffffffffffffffffffffffffffffffffff1614159050919050565b612451848484846128cd565b6001811115612495576040517f08c379a000000000000000000000000000000000000000000000000000000000815260040161248c90614595565b60405180910390fd5b5f8290505f73ffffffffffffffffffffffffffffffffffffffff168573ffffffffffffffffffffffffffffffffffffffff16036124da576124d5816128d3565b612519565b8373ffffffffffffffffffffffffffffffffffffffff168573ffffffffffffffffffffffffffffffffffffffff1614612518576125178582612917565b5b5b5f73ffffffffffffffffffffffffffffffffffffffff168473ffffffffffffffffffffffffffffffffffffffff160361255a5761255581612a6d565b612599565b8473ffffffffffffffffffffffffffffffffffffffff168473ffffffffffffffffffffffffffffffffffffffff1614612598576125978482612b2d565b5b5b5050505050565b50505050565b5f808290505f5b84518110156125ef576125da828683815181106125cd576125cc6137c1565b5b6020026020010151612ba5565b915080806125e790613e23565b9150506125ad565b508091505092915050565b5f61261a8473ffffffffffffffffffffffffffffffffffffffff16611e13565b1561276f578373ffffffffffffffffffffffffffffffffffffffff1663150b7a026126436117f6565b8786866040518563ffffffff1660e01b815260040161266594939291906145b3565b6020604051808303815f875af19250505080156126a057506040513d601f19601f8201168201806040525081019061269d9190613bd9565b60015b61271f573d805f81146126ce576040519150601f19603f3d011682016040523d82523d5f602084013e6126d3565b606091505b505f815103612717576040517f08c379a000000000000000000000000000000000000000000000000000000000815260040161270e906144da565b60405180910390fd5b805181602001fd5b63150b7a0260e01b7bffffffffffffffffffffffffffffffffffffffffffffffffffffffff1916817bffffffffffffffffffffffffffffffffffffffffffffffffffffffff191614915050612774565b600190505b949350505050565b5f805f90507a184f03e93ff9f4daa797ed6e38ed64bf6a1f01000000000000000083106127d8577a184f03e93ff9f4daa797ed6e38ed64bf6a1f01000000000000000083816127ce576127cd6144f8565b5b0492506040810190505b6d04ee2d6d415b85acef81000000008310612815576d04ee2d6d415b85acef8100000000838161280b5761280a6144f8565b5b0492506020810190505b662386f26fc10000831061284457662386f26fc10000838161283a576128396144f8565b5b0492506010810190505b6305f5e100831061286d576305f5e1008381612863576128626144f8565b5b0492506008810190505b6127108310612892576127108381612888576128876144f8565b5b0492506004810190505b606483106128b557606483816128ab576128aa6144f8565b5b0492506002810190505b600a83106128c4576001810190505b80915050919050565b50505050565b60088054905060095f8381526020019081526020015f2081905550600881908060018154018082558091505060019003905f5260205f20015f909190919091505550565b5f600161292384610dba565b61292d91906145fd565b90505f60075f8481526020019081526020015f20549050818114612a04575f60065f8673ffffffffffffffffffffffffffffffffffffffff1673ffffffffffffffffffffffffffffffffffffffff1681526020019081526020015f205f8481526020019081526020015f205490508060065f8773ffffffffffffffffffffffffffffffffffffffff1673ffffffffffffffffffffffffffffffffffffffff1681526020019081526020015f205f8481526020019081526020015f20819055508160075f8381526020019081526020015f2081905550505b60075f8481526020019081526020015f205f905560065f8573ffffffffffffffffffffffffffffffffffffffff1673ffffffffffffffffffffffffffffffffffffffff1681526020019081526020015f205f8381526020019081526020015f205f905550505050565b5f6001600880549050612a8091906145fd565b90505f60095f8481526020019081526020015f205490505f60088381548110612aac57612aab6137c1565b5b905f5260205f20015490508060088381548110612acc57612acb6137c1565b5b905f5260205f2001819055508160095f8381526020019081526020015f208190555060095f8581526020019081526020015f205f90556008805480612b1457612b13614630565b5b600190038181905f5260205f20015f9055905550505050565b5f612b3783610dba565b90508160065f8573ffffffffffffffffffffffffffffffffffffffff1673ffffffffffffffffffffffffffffffffffffffff1681526020019081526020015f205f8381526020019081526020015f20819055508060075f8481526020019081526020015f2081905550505050565b5f818310612bbc57612bb78284612bcf565b612bc7565b612bc68383612bcf565b5b905092915050565b5f825f528160205260405f20905092915050565b5f604051905090565b5f80fd5b5f80fd5b5f7fffffffff0000000000000000000000000000000000000000000000000000000082169050919050565b612c2881612bf4565b8114612c32575f80fd5b50565b5f81359050612c4381612c1f565b92915050565b5f60208284031215612c5e57612c5d612bec565b5b5f612c6b84828501612c35565b91505092915050565b5f8115159050919050565b612c8881612c74565b82525050565b5f602082019050612ca15f830184612c7f565b92915050565b5f81519050919050565b5f82825260208201905092915050565b5f5b83811015612cde578082015181840152602081019050612cc3565b5f8484015250505050565b5f601f19601f8301169050919050565b5f612d0382612ca7565b612d0d8185612cb1565b9350612d1d818560208601612cc1565b612d2681612ce9565b840191505092915050565b5f6020820190508181035f830152612d498184612cf9565b905092915050565b5f819050919050565b612d6381612d51565b8114612d6d575f80fd5b50565b5f81359050612d7e81612d5a565b92915050565b5f60208284031215612d9957612d98612bec565b5b5f612da684828501612d70565b91505092915050565b5f73ffffffffffffffffffffffffffffffffffffffff82169050919050565b5f612dd882612daf565b9050919050565b612de881612dce565b82525050565b5f602082019050612e015f830184612ddf565b92915050565b612e1081612dce565b8114612e1a575f80fd5b50565b5f81359050612e2b81612e07565b92915050565b5f8060408385031215612e4757612e46612bec565b5b5f612e5485828601612e1d565b9250506020612e6585828601612d70565b9150509250929050565b612e7881612d51565b82525050565b5f602082019050612e915f830184612e6f565b92915050565b5f805f60608486031215612eae57612ead612bec565b5b5f612ebb86828701612e1d565b9350506020612ecc86828701612e1d565b9250506040612edd86828701612d70565b9150509250925092565b5f819050919050565b612ef981612ee7565b82525050565b5f602082019050612f125f830184612ef0565b92915050565b5f80fd5b5f80fd5b7f4e487b71000000000000000000000000000000000000000000000000000000005f52604160045260245ffd5b612f5682612ce9565b810181811067ffffffffffffffff82111715612f7557612f74612f20565b5b80604052505050565b5f612f87612be3565b9050612f938282612f4d565b919050565b5f67ffffffffffffffff821115612fb257612fb1612f20565b5b612fbb82612ce9565b9050602081019050919050565b828183375f83830152505050565b5f612fe8612fe384612f98565b612f7e565b90508281526020810184848401111561300457613003612f1c565b5b61300f848285612fc8565b509392505050565b5f82601f83011261302b5761302a612f18565b5b813561303b848260208601612fd6565b91505092915050565b5f6020828403121561305957613058612bec565b5b5f82013567ffffffffffffffff81111561307657613075612bf0565b5b61308284828501613017565b91505092915050565b5f602082840312156130a05761309f612bec565b5b5f6130ad84828501612e1d565b91505092915050565b5f60ff82169050919050565b6130cb816130b6565b81146130d5575f80fd5b50565b5f813590506130e6816130c2565b92915050565b6130f581612ee7565b81146130ff575f80fd5b50565b5f81359050613110816130ec565b92915050565b5f805f805f8060c087890312156131305761312f612bec565b5b5f61313d89828a01612e1d565b965050602061314e89828a01612d70565b955050604061315f89828a01612d70565b945050606061317089828a016130d8565b935050608061318189828a01613102565b92505060a061319289828a01613102565b9150509295509295509295565b6131a881612c74565b81146131b2575f80fd5b50565b5f813590506131c38161319f565b92915050565b5f80604083850312156131df576131de612bec565b5b5f6131ec85828601612e1d565b92505060206131fd858286016131b5565b9150509250929050565b5f80fd5b5f80fd5b5f8083601f84011261322457613223612f18565b5b8235905067ffffffffffffffff81111561324157613240613207565b5b60208301915083602082028301111561325d5761325c61320b565b5b9250929050565b5f806020838503121561327a57613279612bec565b5b5f83013567ffffffffffffffff81111561329757613296612bf0565b5b6132a38582860161320f565b92509250509250929050565b5f67ffffffffffffffff8211156132c9576132c8612f20565b5b6132d282612ce9565b9050602081019050919050565b5f6132f16132ec846132af565b612f7e565b90508281526020810184848401111561330d5761330c612f1c565b5b613318848285612fc8565b509392505050565b5f82601f83011261333457613333612f18565b5b81356133448482602086016132df565b91505092915050565b5f805f806080858703121561336557613364612bec565b5b5f61337287828801612e1d565b945050602061338387828801612e1d565b935050604061339487828801612d70565b925050606085013567ffffffffffffffff8111156133b5576133b4612bf0565b5b6133c187828801613320565b91505092959194509250565b5f80604083850312156133e3576133e2612bec565b5b5f6133f085828601612e1d565b925050602061340185828601612e1d565b9150509250929050565b7f4e487b71000000000000000000000000000000000000000000000000000000005f52602260045260245ffd5b5f600282049050600182168061344f57607f821691505b6020821081036134625761346161340b565b5b50919050565b7f4552433732313a20617070726f76616c20746f2063757272656e74206f776e655f8201527f7200000000000000000000000000000000000000000000000000000000000000602082015250565b5f6134c2602183612cb1565b91506134cd82613468565b604082019050919050565b5f6020820190508181035f8301526134ef816134b6565b9050919050565b7f4552433732313a20617070726f76652063616c6c6572206973206e6f7420746f5f8201527f6b656e206f776e6572206f7220617070726f76656420666f7220616c6c000000602082015250565b5f613550603d83612cb1565b915061355b826134f6565b604082019050919050565b5f6020820190508181035f83015261357d81613544565b9050919050565b7f4552433732313a2063616c6c6572206973206e6f7420746f6b656e206f776e655f8201527f72206f7220617070726f76656400000000000000000000000000000000000000602082015250565b5f6135de602d83612cb1565b91506135e982613584565b604082019050919050565b5f6020820190508181035f83015261360b816135d2565b9050919050565b7f455243373231456e756d657261626c653a206f776e657220696e646578206f755f8201527f74206f6620626f756e6473000000000000000000000000000000000000000000602082015250565b5f61366c602b83612cb1565b915061367782613612565b604082019050919050565b5f6020820190508181035f83015261369981613660565b9050919050565b5f819050919050565b5f819050919050565b5f6136cc6136c76136c2846136a0565b6136a9565b612d51565b9050919050565b6136dc816136b2565b82525050565b5f60a0820190506136f55f8301886136d3565b6137026020830187612ef0565b61370f6040830186612ef0565b61371c6060830185612e6f565b6137296080830184612ddf565b9695505050505050565b7f455243373231456e756d657261626c653a20676c6f62616c20696e646578206f5f8201527f7574206f6620626f756e64730000000000000000000000000000000000000000602082015250565b5f61378d602c83612cb1565b915061379882613733565b604082019050919050565b5f6020820190508181035f8301526137ba81613781565b9050919050565b7f4e487b71000000000000000000000000000000000000000000000000000000005f52603260045260245ffd5b7f4552433732313a20696e76616c696420746f6b656e20494400000000000000005f82015250565b5f613822601883612cb1565b915061382d826137ee565b602082019050919050565b5f6020820190508181035f83015261384f81613816565b9050919050565b7f4552433732313a2061646472657373207a65726f206973206e6f7420612076615f8201527f6c6964206f776e65720000000000000000000000000000000000000000000000602082015250565b5f6138b0602983612cb1565b91506138bb82613856565b604082019050919050565b5f6020820190508181035f8301526138dd816138a4565b9050919050565b7f5065726d697420657870697265640000000000000000000000000000000000005f82015250565b5f613918600e83612cb1565b9150613923826138e4565b602082019050919050565b5f6020820190508181035f8301526139458161390c565b9050919050565b5f60a08201905061395f5f830188612ef0565b61396c6020830187612ddf565b6139796040830186612e6f565b6139866060830185612e6f565b6139936080830184612e6f565b9695505050505050565b5f81905092915050565b7f19010000000000000000000000000000000000000000000000000000000000005f82015250565b5f6139db60028361399d565b91506139e6826139a7565b600282019050919050565b5f819050919050565b613a0b613a0682612ee7565b6139f1565b82525050565b5f613a1b826139cf565b9150613a2782856139fa565b602082019150613a3782846139fa565b6020820191508190509392505050565b7f4552433732315065726d69743a20617070726f76616c20746f2063757272656e5f8201527f74206f776e657200000000000000000000000000000000000000000000000000602082015250565b5f613aa1602783612cb1565b9150613aac82613a47565b604082019050919050565b5f6020820190508181035f830152613ace81613a95565b9050919050565b5f8160f81b9050919050565b5f613aeb82613ad5565b9050919050565b613b03613afe826130b6565b613ae1565b82525050565b5f613b1482866139fa565b602082019150613b2482856139fa565b602082019150613b348284613af2565b600182019150819050949350505050565b5f81519050919050565b5f82825260208201905092915050565b5f613b6982613b45565b613b738185613b4f565b9350613b83818560208601612cc1565b613b8c81612ce9565b840191505092915050565b5f604082019050613baa5f830185612ef0565b8181036020830152613bbc8184613b5f565b90509392505050565b5f81519050613bd381612c1f565b92915050565b5f60208284031215613bee57613bed612bec565b5b5f613bfb84828501613bc5565b91505092915050565b7f556e617574686f72697a656400000000000000000000000000000000000000005f82015250565b5f613c38600c83612cb1565b9150613c4382613c04565b602082019050919050565b5f6020820190508181035f830152613c6581613c2c565b9050919050565b613c75816130b6565b82525050565b5f608082019050613c8e5f830187612ef0565b613c9b6020830186613c6c565b613ca86040830185612ef0565b613cb56060830184612ef0565b95945050505050565b7f496e76616c6964207369676e61747572650000000000000000000000000000005f82015250565b5f613cf2601183612cb1565b9150613cfd82613cbe565b602082019050919050565b5f6020820190508181035f830152613d1f81613ce6565b9050919050565b7f616c726561647920636c61696d656400000000000000000000000000000000005f82015250565b5f613d5a600f83612cb1565b9150613d6582613d26565b602082019050919050565b5f6020820190508181035f830152613d8781613d4e565b9050919050565b7f696e76616c6964206d65726b6c652070726f6f660000000000000000000000005f82015250565b5f613dc2601483612cb1565b9150613dcd82613d8e565b602082019050919050565b5f6020820190508181035f830152613def81613db6565b9050919050565b7f4e487b71000000000000000000000000000000000000000000000000000000005f52601160045260245ffd5b5f613e2d82612d51565b91507fffffffffffffffffffffffffffffffffffffffffffffffffffffffffffffffff8203613e5f57613e5e613df6565b5b600182019050919050565b5f613e7482612ca7565b613e7e818561399d565b9350613e8e818560208601612cc1565b80840191505092915050565b5f613ea58285613e6a565b9150613eb18284613e6a565b91508190509392505050565b7f4f776e61626c653a206e6577206f776e657220697320746865207a65726f20615f8201527f6464726573730000000000000000000000000000000000000000000000000000602082015250565b5f613f17602683612cb1565b9150613f2282613ebd565b604082019050919050565b5f6020820190508181035f830152613f4481613f0b565b9050919050565b7f4552433732313a207472616e736665722066726f6d20696e636f7272656374205f8201527f6f776e6572000000000000000000000000000000000000000000000000000000602082015250565b5f613fa5602583612cb1565b9150613fb082613f4b565b604082019050919050565b5f6020820190508181035f830152613fd281613f99565b9050919050565b7f4552433732313a207472616e7366657220746f20746865207a65726f206164645f8201527f7265737300000000000000000000000000000000000000000000000000000000602082015250565b5f614033602483612cb1565b915061403e82613fd9565b604082019050919050565b5f6020820190508181035f83015261406081614027565b9050919050565b7f4f776e61626c653a2063616c6c6572206973206e6f7420746865206f776e65725f82015250565b5f61409b602083612cb1565b91506140a682614067565b602082019050919050565b5f6020820190508181035f8301526140c88161408f565b9050919050565b5f819050815f5260205f209050919050565b5f6020601f8301049050919050565b5f82821b905092915050565b5f6008830261412b7fffffffffffffffffffffffffffffffffffffffffffffffffffffffffffffffff826140f0565b61413586836140f0565b95508019841693508086168417925050509392505050565b5f61416761416261415d84612d51565b6136a9565b612d51565b9050919050565b5f819050919050565b6141808361414d565b61419461418c8261416e565b8484546140fc565b825550505050565b5f90565b6141a861419c565b6141b3818484614177565b505050565b5b818110156141d6576141cb5f826141a0565b6001810190506141b9565b5050565b601f82111561421b576141ec816140cf565b6141f5846140e1565b81016020851015614204578190505b614218614210856140e1565b8301826141b8565b50505b505050565b5f82821c905092915050565b5f61423b5f1984600802614220565b1980831691505092915050565b5f614253838361422c565b9150826002028217905092915050565b61426c82612ca7565b67ffffffffffffffff81111561428557614284612f20565b5b61428f8254613438565b61429a8282856141da565b5f60209050601f8311600181146142cb575f84156142b9578287015190505b6142c38582614248565b86555061432a565b601f1984166142d9866140cf565b5f5b82811015614300578489015182556001820191506020850194506020810190506142db565b8683101561431d5784890151614319601f89168261422c565b8355505b6001600288020188555050505b505050505050565b7f4552433732313a20617070726f766520746f2063616c6c6572000000000000005f82015250565b5f614366601983612cb1565b915061437182614332565b602082019050919050565b5f6020820190508181035f8301526143938161435a565b9050919050565b7f4552433732313a206d696e7420746f20746865207a65726f20616464726573735f82015250565b5f6143ce602083612cb1565b91506143d98261439a565b602082019050919050565b5f6020820190508181035f8301526143fb816143c2565b9050919050565b7f4552433732313a20746f6b656e20616c7265616479206d696e746564000000005f82015250565b5f614436601c83612cb1565b915061444182614402565b602082019050919050565b5f6020820190508181035f8301526144638161442a565b9050919050565b7f4552433732313a207472616e7366657220746f206e6f6e2045524337323152655f8201527f63656976657220696d706c656d656e7465720000000000000000000000000000602082015250565b5f6144c4603283612cb1565b91506144cf8261446a565b604082019050919050565b5f6020820190508181035f8301526144f1816144b8565b9050919050565b7f4e487b71000000000000000000000000000000000000000000000000000000005f52601260045260245ffd5b7f455243373231456e756d657261626c653a20636f6e73656375746976652074725f8201527f616e7366657273206e6f7420737570706f727465640000000000000000000000602082015250565b5f61457f603583612cb1565b915061458a82614525565b604082019050919050565b5f6020820190508181035f8301526145ac81614573565b9050919050565b5f6080820190506145c65f830187612ddf565b6145d36020830186612ddf565b6145e06040830185612e6f565b81810360608301526145f28184613b5f565b905095945050505050565b5f61460782612d51565b915061461283612d51565b925082820390508181111561462a57614629613df6565b5b92915050565b7f4e487b71000000000000000000000000000000000000000000000000000000005f52603160045260245ffdfea2646970667358221220a8e996ddcb78d0307ed367171e521d0935191dfe9bfd506939edb9e3be28564a64736f6c63430008140033697066733a2f2f62616679626569656e69616c6b6472707076646664616e7a7569776e7434356d346868636b617978727676686b747272766d6f77776b77723435612f",
  "linkReferences": {},
  "deployedLinkReferences": {}
}