{
  "_format": "hh-sol-artifact-1",
  "contractName": "TRIS",
  "sourceName": "contracts/TRIS.sol",
  "abi": [
    {
      "inputs": [
        {
          "internalType": "bytes32",
          "name": "_merkleRoot",
          "type": "bytes32"
        }
      ],
      "stateMutability": "nonpayable",
      "type": "constructor"
    },
    {
      "anonymous": false,
      "inputs": [
        {
          "indexed": true,
          "internalType": "address",
          "name": "owner",
          "type": "address"
        },
        {
          "indexed": true,
          "internalType": "address",
          "name": "approved",
          "type": "address"
        },
        {
          "indexed": true,
          "internalType": "uint256",
          "name": "tokenId",
          "type": "uint256"
        }
      ],
      "name": "Approval",
      "type": "event"
    },
    {
      "anonymous": false,
      "inputs": [
        {
          "indexed": true,
          "internalType": "address",
          "name": "owner",
          "type": "address"
        },
        {
          "indexed": true,
          "internalType": "address",
          "name": "operator",
          "type": "address"
        },
        {
          "indexed": false,
          "internalType": "bool",
          "name": "approved",
          "type": "bool"
        }
      ],
      "name": "ApprovalForAll",
      "type": "event"
    },
    {
      "anonymous": false,
      "inputs": [
        {
          "indexed": true,
          "internalType": "address",
          "name": "previousOwner",
          "type": "address"
        },
        {
          "indexed": true,
          "internalType": "address",
          "name": "newOwner",
          "type": "address"
        }
      ],
      "name": "OwnershipTransferred",
      "type": "event"
    },
    {
      "anonymous": false,
      "inputs": [
        {
          "indexed": true,
          "internalType": "address",
          "name": "from",
          "type": "address"
        },
        {
          "indexed": true,
          "internalType": "address",
          "name": "to",
          "type": "address"
        },
        {
          "indexed": true,
          "internalType": "uint256",
          "name": "tokenId",
          "type": "uint256"
        }
      ],
      "name": "Transfer",
      "type": "event"
    },
    {
      "inputs": [],
      "name": "DOMAIN_SEPARATOR",
      "outputs": [
        {
          "internalType": "bytes32",
          "name": "",
          "type": "bytes32"
        }
      ],
      "stateMutability": "view",
      "type": "function"
    },
    {
      "inputs": [],
      "name": "PERMIT_TYPEHASH",
      "outputs": [
        {
          "internalType": "bytes32",
          "name": "",
          "type": "bytes32"
        }
      ],
      "stateMutability": "view",
      "type": "function"
    },
    {
      "inputs": [],
      "name": "__baseURI",
      "outputs": [
        {
          "internalType": "string",
          "name": "",
          "type": "string"
        }
      ],
      "stateMutability": "view",
      "type": "function"
    },
    {
      "inputs": [
        {
          "internalType": "address",
          "name": "_to",
          "type": "address"
        },
        {
          "internalType": "uint256",
          "name": "_tokenId",
          "type": "uint256"
        }
      ],
      "name": "adminMint",
      "outputs": [],
      "stateMutability": "nonpayable",
      "type": "function"
    },
    {
      "inputs": [
        {
          "internalType": "address",
          "name": "to",
          "type": "address"
        },
        {
          "internalType": "uint256",
          "name": "tokenId",
          "type": "uint256"
        }
      ],
      "name": "approve",
      "outputs": [],
      "stateMutability": "nonpayable",
      "type": "function"
    },
    {
      "inputs": [
        {
          "internalType": "address",
          "name": "owner",
          "type": "address"
        }
      ],
      "name": "balanceOf",
      "outputs": [
        {
          "internalType": "uint256",
          "name": "",
          "type": "uint256"
        }
      ],
      "stateMutability": "view",
      "type": "function"
    },
    {
      "inputs": [
        {
          "internalType": "address",
          "name": "",
          "type": "address"
        }
      ],
      "name": "claimed",
      "outputs": [
        {
          "internalType": "bool",
          "name": "",
          "type": "bool"
        }
      ],
      "stateMutability": "view",
      "type": "function"
    },
    {
      "inputs": [
        {
          "internalType": "uint256",
          "name": "tokenId",
          "type": "uint256"
        }
      ],
      "name": "getApproved",
      "outputs": [
        {
          "internalType": "address",
          "name": "",
          "type": "address"
        }
      ],
      "stateMutability": "view",
      "type": "function"
    },
    {
      "inputs": [
        {
          "internalType": "address",
          "name": "owner",
          "type": "address"
        },
        {
          "internalType": "address",
          "name": "operator",
          "type": "address"
        }
      ],
      "name": "isApprovedForAll",
      "outputs": [
        {
          "internalType": "bool",
          "name": "",
          "type": "bool"
        }
      ],
      "stateMutability": "view",
      "type": "function"
    },
    {
      "inputs": [],
      "name": "isPublicMint",
      "outputs": [
        {
          "internalType": "bool",
          "name": "",
          "type": "bool"
        }
      ],
      "stateMutability": "view",
      "type": "function"
    },
    {
      "inputs": [],
      "name": "merkleRoot",
      "outputs": [
        {
          "internalType": "bytes32",
          "name": "",
          "type": "bytes32"
        }
      ],
      "stateMutability": "view",
      "type": "function"
    },
    {
      "inputs": [
        {
          "internalType": "bytes32[]",
          "name": "merkleProof",
          "type": "bytes32[]"
        }
      ],
      "name": "mint",
      "outputs": [],
      "stateMutability": "payable",
      "type": "function"
    },
    {
      "inputs": [],
      "name": "name",
      "outputs": [
        {
          "internalType": "string",
          "name": "",
          "type": "string"
        }
      ],
      "stateMutability": "view",
      "type": "function"
    },
    {
      "inputs": [],
      "name": "nextTokenId",
      "outputs": [
        {
          "internalType": "uint256",
          "name": "",
          "type": "uint256"
        }
      ],
      "stateMutability": "view",
      "type": "function"
    },
    {
      "inputs": [
        {
          "internalType": "uint256",
          "name": "",
          "type": "uint256"
        }
      ],
      "name": "nonces",
      "outputs": [
        {
          "internalType": "uint256",
          "name": "",
          "type": "uint256"
        }
      ],
      "stateMutability": "view",
      "type": "function"
    },
    {
      "inputs": [],
      "name": "owner",
      "outputs": [
        {
          "internalType": "address",
          "name": "",
          "type": "address"
        }
      ],
      "stateMutability": "view",
      "type": "function"
    },
    {
      "inputs": [
        {
          "internalType": "uint256",
          "name": "tokenId",
          "type": "uint256"
        }
      ],
      "name": "ownerOf",
      "outputs": [
        {
          "internalType": "address",
          "name": "",
          "type": "address"
        }
      ],
      "stateMutability": "view",
      "type": "function"
    },
    {
      "inputs": [
        {
          "internalType": "address",
          "name": "spender",
          "type": "address"
        },
        {
          "internalType": "uint256",
          "name": "tokenId",
          "type": "uint256"
        },
        {
          "internalType": "uint256",
          "name": "deadline",
          "type": "uint256"
        },
        {
          "internalType": "uint8",
          "name": "v",
          "type": "uint8"
        },
        {
          "internalType": "bytes32",
          "name": "r",
          "type": "bytes32"
        },
        {
          "internalType": "bytes32",
          "name": "s",
          "type": "bytes32"
        }
      ],
      "name": "permit",
      "outputs": [],
      "stateMutability": "payable",
      "type": "function"
    },
    {
      "inputs": [],
      "name": "publicMint",
      "outputs": [
        {
          "internalType": "bool",
          "name": "",
          "type": "bool"
        }
      ],
      "stateMutability": "view",
      "type": "function"
    },
    {
      "inputs": [],
      "name": "renounceOwnership",
      "outputs": [],
      "stateMutability": "nonpayable",
      "type": "function"
    },
    {
      "inputs": [
        {
          "internalType": "address",
          "name": "from",
          "type": "address"
        },
        {
          "internalType": "address",
          "name": "to",
          "type": "address"
        },
        {
          "internalType": "uint256",
          "name": "tokenId",
          "type": "uint256"
        }
      ],
      "name": "safeTransferFrom",
      "outputs": [],
      "stateMutability": "nonpayable",
      "type": "function"
    },
    {
      "inputs": [
        {
          "internalType": "address",
          "name": "from",
          "type": "address"
        },
        {
          "internalType": "address",
          "name": "to",
          "type": "address"
        },
        {
          "internalType": "uint256",
          "name": "tokenId",
          "type": "uint256"
        },
        {
          "internalType": "bytes",
          "name": "data",
          "type": "bytes"
        }
      ],
      "name": "safeTransferFrom",
      "outputs": [],
      "stateMutability": "nonpayable",
      "type": "function"
    },
    {
      "inputs": [
        {
          "internalType": "address",
          "name": "operator",
          "type": "address"
        },
        {
          "internalType": "bool",
          "name": "approved",
          "type": "bool"
        }
      ],
      "name": "setApprovalForAll",
      "outputs": [],
      "stateMutability": "nonpayable",
      "type": "function"
    },
    {
      "inputs": [
        {
          "internalType": "string",
          "name": "_uri",
          "type": "string"
        }
      ],
      "name": "setBaseURI",
      "outputs": [],
      "stateMutability": "nonpayable",
      "type": "function"
    },
    {
      "inputs": [],
      "name": "startPublicMint",
      "outputs": [],
      "stateMutability": "nonpayable",
      "type": "function"
    },
    {
      "inputs": [
        {
          "internalType": "bytes4",
          "name": "interfaceId",
          "type": "bytes4"
        }
      ],
      "name": "supportsInterface",
      "outputs": [
        {
          "internalType": "bool",
          "name": "",
          "type": "bool"
        }
      ],
      "stateMutability": "view",
      "type": "function"
    },
    {
      "inputs": [],
      "name": "symbol",
      "outputs": [
        {
          "internalType": "string",
          "name": "",
          "type": "string"
        }
      ],
      "stateMutability": "view",
      "type": "function"
    },
    {
      "inputs": [
        {
          "internalType": "uint256",
          "name": "index",
          "type": "uint256"
        }
      ],
      "name": "tokenByIndex",
      "outputs": [
        {
          "internalType": "uint256",
          "name": "",
          "type": "uint256"
        }
      ],
      "stateMutability": "view",
      "type": "function"
    },
    {
      "inputs": [
        {
          "internalType": "address",
          "name": "owner",
          "type": "address"
        },
        {
          "internalType": "uint256",
          "name": "index",
          "type": "uint256"
        }
      ],
      "name": "tokenOfOwnerByIndex",
      "outputs": [
        {
          "internalType": "uint256",
          "name": "",
          "type": "uint256"
        }
      ],
      "stateMutability": "view",
      "type": "function"
    },
    {
      "inputs": [
        {
          "internalType": "uint256",
          "name": "tokenId",
          "type": "uint256"
        }
      ],
      "name": "tokenURI",
      "outputs": [
        {
          "internalType": "string",
          "name": "",
          "type": "string"
        }
      ],
      "stateMutability": "view",
      "type": "function"
    },
    {
      "inputs": [],
      "name": "totalSupply",
      "outputs": [
        {
          "internalType": "uint256",
          "name": "",
          "type": "uint256"
        }
      ],
      "stateMutability": "view",
      "type": "function"
    },
    {
      "inputs": [
        {
          "internalType": "address",
          "name": "from",
          "type": "address"
        },
        {
          "internalType": "address",
          "name": "to",
          "type": "address"
        },
        {
          "internalType": "uint256",
          "name": "tokenId",
          "type": "uint256"
        }
      ],
      "name": "transferFrom",
      "outputs": [],
      "stateMutability": "nonpayable",
      "type": "function"
    },
    {
      "inputs": [
        {
          "internalType": "address",
          "name": "newOwner",
          "type": "address"
        }
      ],
      "name": "transferOwnership",
      "outputs": [],
      "stateMutability": "nonpayable",
      "type": "function"
    },
    {
      "inputs": [],
      "name": "version",
      "outputs": [
        {
          "internalType": "string",
          "name": "",
          "type": "string"
        }
      ],
      "stateMutability": "pure",
      "type": "function"
    }
  ],
  "bytecode": "0x60e06040525f600f5f6101000a81548160ff0219169083151502179055506703bf3b91c95b000060105534801562000035575f80fd5b506040516200503e3803806200503e83398181016040528101906200005b9190620002b9565b6040518060400160405280600481526020017f54524953000000000000000000000000000000000000000000000000000000008152506040518060400160405280600481526020017f54524953000000000000000000000000000000000000000000000000000000008152506040518060400160405280600181526020017f31000000000000000000000000000000000000000000000000000000000000008152508282815f90816200010f91906200054d565b5080600190816200012191906200054d565b505050828051906020012060808181525050808051906020012060a0818152505050505062000165620001596200019e60201b60201c565b620001a560201b60201c565b8060c081815250506200019760405180608001604052806043815260200162004ffb604391396200026860201b60201c565b5062000631565b5f33905090565b5f600a5f9054906101000a900473ffffffffffffffffffffffffffffffffffffffff16905081600a5f6101000a81548173ffffffffffffffffffffffffffffffffffffffff021916908373ffffffffffffffffffffffffffffffffffffffff1602179055508173ffffffffffffffffffffffffffffffffffffffff168173ffffffffffffffffffffffffffffffffffffffff167f8be0079c531659141344cd1fd0a4f28419497f9722a3daafe3b4186f6b6457e060405160405180910390a35050565b80600c90816200027991906200054d565b5050565b5f80fd5b5f819050919050565b620002958162000281565b8114620002a0575f80fd5b50565b5f81519050620002b3816200028a565b92915050565b5f60208284031215620002d157620002d06200027d565b5b5f620002e084828501620002a3565b91505092915050565b5f81519050919050565b7f4e487b71000000000000000000000000000000000000000000000000000000005f52604160045260245ffd5b7f4e487b71000000000000000000000000000000000000000000000000000000005f52602260045260245ffd5b5f60028204905060018216806200036557607f821691505b6020821081036200037b576200037a62000320565b5b50919050565b5f819050815f5260205f209050919050565b5f6020601f8301049050919050565b5f82821b905092915050565b5f60088302620003df7fffffffffffffffffffffffffffffffffffffffffffffffffffffffffffffffff82620003a2565b620003eb8683620003a2565b95508019841693508086168417925050509392505050565b5f819050919050565b5f819050919050565b5f620004356200042f620004298462000403565b6200040c565b62000403565b9050919050565b5f819050919050565b620004508362000415565b620004686200045f826200043c565b848454620003ae565b825550505050565b5f90565b6200047e62000470565b6200048b81848462000445565b505050565b5b81811015620004b257620004a65f8262000474565b60018101905062000491565b5050565b601f8211156200050157620004cb8162000381565b620004d68462000393565b81016020851015620004e6578190505b620004fe620004f58562000393565b83018262000490565b50505b505050565b5f82821c905092915050565b5f620005235f198460080262000506565b1980831691505092915050565b5f6200053d838362000512565b9150826002028217905092915050565b6200055882620002e9565b67ffffffffffffffff811115620005745762000573620002f3565b5b6200058082546200034d565b6200058d828285620004b6565b5f60209050601f831160018114620005c3575f8415620005ae578287015190505b620005ba858262000530565b86555062000629565b601f198416620005d38662000381565b5f5b82811015620005fc57848901518255600182019150602085019450602081019050620005d5565b868310156200061c578489015162000618601f89168262000512565b8355505b6001600288020188555050505b505050505050565b60805160a05160c051614998620006635f395f8181610ae801526115a101525f610c2701525f610c0601526149985ff3fe6080604052600436106101f8575f3560e01c80636352211e1161010c57806395d89b411161009f578063c87b56dd1161006e578063c87b56dd146106ec578063c884ef8314610728578063e58306f914610764578063e985e9c51461078c578063f2fde38b146107c8576101f8565b806395d89b4114610656578063a22cb46514610680578063b77a147b146106a8578063b88d4fde146106c4576101f8565b806375794a3c116100db57806375794a3c146105d057806376c64c62146105fa5780637ac2ff7b146106105780638da5cb5b1461062c576101f8565b80636352211e146105185780636e34a4821461055457806370a082311461057e578063715018a6146105ba576101f8565b80632eb4a7ab1161018f5780633644e5151161015e5780633644e5151461043857806342842e0e146104625780634f6ccce71461048a57806354fd4d50146104c657806355f804b3146104f0576101f8565b80632eb4a7ab1461037e5780632f745c59146103a85780633057931f146103e457806330adf81f1461040e576101f8565b8063141a468c116101cb578063141a468c146102c657806318160ddd1461030257806323b872dd1461032c57806326092b8314610354576101f8565b806301ffc9a7146101fc57806306fdde0314610238578063081812fc14610262578063095ea7b31461029e575b5f80fd5b348015610207575f80fd5b50610222600480360381019061021d9190612e16565b6107f0565b60405161022f9190612e5b565b60405180910390f35b348015610243575f80fd5b5061024c610869565b6040516102599190612efe565b60405180910390f35b34801561026d575f80fd5b5061028860048036038101906102839190612f51565b6108f8565b6040516102959190612fbb565b60405180910390f35b3480156102a9575f80fd5b506102c460048036038101906102bf9190612ffe565b61093a565b005b3480156102d1575f80fd5b506102ec60048036038101906102e79190612f51565b610a50565b6040516102f9919061304b565b60405180910390f35b34801561030d575f80fd5b50610316610a65565b604051610323919061304b565b60405180910390f35b348015610337575f80fd5b50610352600480360381019061034d9190613064565b610a71565b005b34801561035f575f80fd5b50610368610ad1565b6040516103759190612e5b565b60405180910390f35b348015610389575f80fd5b50610392610ae6565b60405161039f91906130cc565b60405180910390f35b3480156103b3575f80fd5b506103ce60048036038101906103c99190612ffe565b610b0a565b6040516103db919061304b565b60405180910390f35b3480156103ef575f80fd5b506103f8610baa565b6040516104059190612e5b565b60405180910390f35b348015610419575f80fd5b50610422610bbc565b60405161042f91906130cc565b60405180910390f35b348015610443575f80fd5b5061044c610be2565b60405161045991906130cc565b60405180910390f35b34801561046d575f80fd5b5061048860048036038101906104839190613064565b610c7e565b005b348015610495575f80fd5b506104b060048036038101906104ab9190612f51565b610c9d565b6040516104bd919061304b565b60405180910390f35b3480156104d1575f80fd5b506104da610d0b565b6040516104e79190612efe565b60405180910390f35b3480156104fb575f80fd5b5061051660048036038101906105119190613211565b610d48565b005b348015610523575f80fd5b5061053e60048036038101906105399190612f51565b610d5c565b60405161054b9190612fbb565b60405180910390f35b34801561055f575f80fd5b50610568610de0565b6040516105759190612efe565b60405180910390f35b348015610589575f80fd5b506105a4600480360381019061059f9190613258565b610e6c565b6040516105b1919061304b565b60405180910390f35b3480156105c5575f80fd5b506105ce610f20565b005b3480156105db575f80fd5b506105e4610f33565b6040516105f1919061304b565b60405180910390f35b348015610605575f80fd5b5061060e610f39565b005b61062a600480360381019061062591906132e3565b610fb1565b005b348015610637575f80fd5b50610640611358565b60405161064d9190612fbb565b60405180910390f35b348015610661575f80fd5b5061066a611380565b6040516106779190612efe565b60405180910390f35b34801561068b575f80fd5b506106a660048036038101906106a19190613396565b611410565b005b6106c260048036038101906106bd9190613431565b611426565b005b3480156106cf575f80fd5b506106ea60048036038101906106e5919061351a565b61168d565b005b3480156106f7575f80fd5b50610712600480360381019061070d9190612f51565b6116ef565b60405161071f9190612efe565b60405180910390f35b348015610733575f80fd5b5061074e60048036038101906107499190613258565b611754565b60405161075b9190612e5b565b60405180910390f35b34801561076f575f80fd5b5061078a60048036038101906107859190612ffe565b611771565b005b348015610797575f80fd5b506107b260048036038101906107ad919061359a565b611787565b6040516107bf9190612e5b565b60405180910390f35b3480156107d3575f80fd5b506107ee60048036038101906107e99190613258565b611815565b005b5f7f780e9d63000000000000000000000000000000000000000000000000000000007bffffffffffffffffffffffffffffffffffffffffffffffffffffffff1916827bffffffffffffffffffffffffffffffffffffffffffffffffffffffff19161480610862575061086182611897565b5b9050919050565b60605f805461087790613605565b80601f01602080910402602001604051908101604052809291908181526020018280546108a390613605565b80156108ee5780601f106108c5576101008083540402835291602001916108ee565b820191905f5260205f20905b8154815290600101906020018083116108d157829003601f168201915b5050505050905090565b5f61090282611978565b60045f8381526020019081526020015f205f9054906101000a900473ffffffffffffffffffffffffffffffffffffffff169050919050565b5f61094482610d5c565b90508073ffffffffffffffffffffffffffffffffffffffff168373ffffffffffffffffffffffffffffffffffffffff16036109b4576040517f08c379a00000000000000000000000000000000000000000000000000000000081526004016109ab906136a5565b60405180910390fd5b8073ffffffffffffffffffffffffffffffffffffffff166109d36119c3565b73ffffffffffffffffffffffffffffffffffffffff161480610a025750610a01816109fc6119c3565b611787565b5b610a41576040517f08c379a0000000000000000000000000000000000000000000000000000000008152600401610a3890613733565b60405180910390fd5b610a4b83836119ca565b505050565b600e602052805f5260405f205f915090505481565b5f600880549050905090565b610a82610a7c6119c3565b82611a80565b610ac1576040517f08c379a0000000000000000000000000000000000000000000000000000000008152600401610ab8906137c1565b60405180910390fd5b610acc838383611b14565b505050565b5f600f5f9054906101000a900460ff16905090565b7f000000000000000000000000000000000000000000000000000000000000000081565b5f610b1483610e6c565b8210610b55576040517f08c379a0000000000000000000000000000000000000000000000000000000008152600401610b4c9061384f565b60405180910390fd5b60065f8473ffffffffffffffffffffffffffffffffffffffff1673ffffffffffffffffffffffffffffffffffffffff1681526020019081526020015f205f8381526020019081526020015f2054905092915050565b600f5f9054906101000a900460ff1681565b7f49ecf333e5b8c95c40fdafc95c1ad136e8914a8fb55e9dc8bb01eaa83a2df9ad5f1b81565b5f7f8b73c3c69bb8fe3d512ecc4cf759cc79239f7b179b0ffacaa9a75d522b39400f7f00000000000000000000000000000000000000000000000000000000000000007f0000000000000000000000000000000000000000000000000000000000000000610c4e611e00565b30604051602001610c639594939291906138af565b60405160208183030381529060405280519060200120905090565b610c9883838360405180602001604052805f81525061168d565b505050565b5f610ca6610a65565b8210610ce7576040517f08c379a0000000000000000000000000000000000000000000000000000000008152600401610cde90613970565b60405180910390fd5b60088281548110610cfb57610cfa61398e565b5b905f5260205f2001549050919050565b60606040518060400160405280600181526020017f3100000000000000000000000000000000000000000000000000000000000000815250905090565b610d50611e07565b610d5981611e85565b50565b5f80610d6783611e98565b90505f73ffffffffffffffffffffffffffffffffffffffff168173ffffffffffffffffffffffffffffffffffffffff1603610dd7576040517f08c379a0000000000000000000000000000000000000000000000000000000008152600401610dce90613a05565b60405180910390fd5b80915050919050565b600c8054610ded90613605565b80601f0160208091040260200160405190810160405280929190818152602001828054610e1990613605565b8015610e645780601f10610e3b57610100808354040283529160200191610e64565b820191905f5260205f20905b815481529060010190602001808311610e4757829003601f168201915b505050505081565b5f8073ffffffffffffffffffffffffffffffffffffffff168273ffffffffffffffffffffffffffffffffffffffff1603610edb576040517f08c379a0000000000000000000000000000000000000000000000000000000008152600401610ed290613a93565b60405180910390fd5b60035f8373ffffffffffffffffffffffffffffffffffffffff1673ffffffffffffffffffffffffffffffffffffffff1681526020019081526020015f20549050919050565b610f28611e07565b610f315f611ed1565b565b600b5481565b610f41611e07565b5f1515600f5f9054906101000a900460ff16151514610f95576040517f08c379a0000000000000000000000000000000000000000000000000000000008152600401610f8c90613afb565b60405180910390fd5b6001600f5f6101000a81548160ff021916908315150217905550565b83610fba611f94565b1115610ffb576040517f08c379a0000000000000000000000000000000000000000000000000000000008152600401610ff290613b63565b60405180910390fd5b5f611004610be2565b7f49ecf333e5b8c95c40fdafc95c1ad136e8914a8fb55e9dc8bb01eaa83a2df9ad5f1b88886110328a611f9b565b89604051602001611047959493929190613b81565b6040516020818303038152906040528051906020012060405160200161106e929190613c46565b6040516020818303038152906040528051906020012090505f61109087610d5c565b90508073ffffffffffffffffffffffffffffffffffffffff168873ffffffffffffffffffffffffffffffffffffffff1603611100576040517f08c379a00000000000000000000000000000000000000000000000000000000081526004016110f790613cec565b60405180910390fd5b61110981611fe0565b1561121757631626ba7e60e01b8173ffffffffffffffffffffffffffffffffffffffff16631626ba7e8487878a60405160200161114893929190613d3e565b6040516020818303038152906040526040518363ffffffff1660e01b8152600401611174929190613dcc565b602060405180830381865afa15801561118f573d5f803e3d5ffd5b505050506040513d601f19601f820116820180604052508101906111b39190613e0e565b7bffffffffffffffffffffffffffffffffffffffffffffffffffffffff191614611212576040517f08c379a000000000000000000000000000000000000000000000000000000000815260040161120990613e83565b60405180910390fd5b611344565b5f6001838787876040515f815260200160405260405161123a9493929190613eb0565b6020604051602081039080840390855afa15801561125a573d5f803e3d5ffd5b5050506020604051035190505f73ffffffffffffffffffffffffffffffffffffffff168173ffffffffffffffffffffffffffffffffffffffff16036112d4576040517f08c379a00000000000000000000000000000000000000000000000000000000081526004016112cb90613f3d565b60405180910390fd5b8173ffffffffffffffffffffffffffffffffffffffff168173ffffffffffffffffffffffffffffffffffffffff1614611342576040517f08c379a000000000000000000000000000000000000000000000000000000000815260040161133990613e83565b60405180910390fd5b505b61134e88886119ca565b5050505050505050565b5f600a5f9054906101000a900473ffffffffffffffffffffffffffffffffffffffff16905090565b60606001805461138f90613605565b80601f01602080910402602001604051908101604052809291908181526020018280546113bb90613605565b80156114065780601f106113dd57610100808354040283529160200191611406565b820191905f5260205f20905b8154815290600101906020018083116113e957829003601f168201915b5050505050905090565b61142261141b6119c3565b8383612002565b5050565b60105434101561146b576040517f08c379a000000000000000000000000000000000000000000000000000000000815260040161146290613fa5565b60405180910390fd5b6103e861ffff16600b54106114b5576040517f08c379a00000000000000000000000000000000000000000000000000000000081526004016114ac9061400d565b60405180910390fd5b5f1515600d5f3373ffffffffffffffffffffffffffffffffffffffff1673ffffffffffffffffffffffffffffffffffffffff1681526020019081526020015f205f9054906101000a900460ff16151514611544576040517f08c379a000000000000000000000000000000000000000000000000000000000815260040161153b90614075565b60405180910390fd5b600f5f9054906101000a900460ff1661161157600115156115ce8383808060200260200160405190810160405280939291908181526020018383602002808284375f81840152601f19601f820116905080830192505050505050507f00000000000000000000000000000000000000000000000000000000000000006115c933612169565b61218a565b151514611610576040517f08c379a0000000000000000000000000000000000000000000000000000000008152600401611607906140dd565b60405180910390fd5b5b6001600d5f3373ffffffffffffffffffffffffffffffffffffffff1673ffffffffffffffffffffffffffffffffffffffff1681526020019081526020015f205f6101000a81548160ff021916908315150217905550600b5f81548092919061167890614128565b919050555061168933600b546121a0565b5050565b61169e6116986119c3565b83611a80565b6116dd576040517f08c379a00000000000000000000000000000000000000000000000000000000081526004016116d4906137c1565b60405180910390fd5b6116e9848484846123b3565b50505050565b60606116fa82611978565b5f61170361240f565b90505f8151116117215760405180602001604052805f81525061174c565b8061172b8461249f565b60405160200161173c92919061419f565b6040516020818303038152906040525b915050919050565b600d602052805f5260405f205f915054906101000a900460ff1681565b611779611e07565b61178382826121a0565b5050565b5f60055f8473ffffffffffffffffffffffffffffffffffffffff1673ffffffffffffffffffffffffffffffffffffffff1681526020019081526020015f205f8373ffffffffffffffffffffffffffffffffffffffff1673ffffffffffffffffffffffffffffffffffffffff1681526020019081526020015f205f9054906101000a900460ff16905092915050565b61181d611e07565b5f73ffffffffffffffffffffffffffffffffffffffff168173ffffffffffffffffffffffffffffffffffffffff160361188b576040517f08c379a000000000000000000000000000000000000000000000000000000000815260040161188290614232565b60405180910390fd5b61189481611ed1565b50565b5f7f80ac58cd000000000000000000000000000000000000000000000000000000007bffffffffffffffffffffffffffffffffffffffffffffffffffffffff1916827bffffffffffffffffffffffffffffffffffffffffffffffffffffffff1916148061196157507f5b5e139f000000000000000000000000000000000000000000000000000000007bffffffffffffffffffffffffffffffffffffffffffffffffffffffff1916827bffffffffffffffffffffffffffffffffffffffffffffffffffffffff1916145b80611971575061197082612569565b5b9050919050565b611981816125d2565b6119c0576040517f08c379a00000000000000000000000000000000000000000000000000000000081526004016119b790613a05565b60405180910390fd5b50565b5f33905090565b8160045f8381526020019081526020015f205f6101000a81548173ffffffffffffffffffffffffffffffffffffffff021916908373ffffffffffffffffffffffffffffffffffffffff160217905550808273ffffffffffffffffffffffffffffffffffffffff16611a3a83610d5c565b73ffffffffffffffffffffffffffffffffffffffff167f8c5be1e5ebec7d5bd14f71427d1e84f3dd0314c0f7b2291e5b200ac8c7c3b92560405160405180910390a45050565b5f80611a8b83610d5c565b90508073ffffffffffffffffffffffffffffffffffffffff168473ffffffffffffffffffffffffffffffffffffffff161480611acd5750611acc8185611787565b5b80611b0b57508373ffffffffffffffffffffffffffffffffffffffff16611af3846108f8565b73ffffffffffffffffffffffffffffffffffffffff16145b91505092915050565b8273ffffffffffffffffffffffffffffffffffffffff16611b3482610d5c565b73ffffffffffffffffffffffffffffffffffffffff1614611b8a576040517f08c379a0000000000000000000000000000000000000000000000000000000008152600401611b81906142c0565b60405180910390fd5b5f73ffffffffffffffffffffffffffffffffffffffff168273ffffffffffffffffffffffffffffffffffffffff1603611bf8576040517f08c379a0000000000000000000000000000000000000000000000000000000008152600401611bef9061434e565b60405180910390fd5b611c058383836001612612565b8273ffffffffffffffffffffffffffffffffffffffff16611c2582610d5c565b73ffffffffffffffffffffffffffffffffffffffff1614611c7b576040517f08c379a0000000000000000000000000000000000000000000000000000000008152600401611c72906142c0565b60405180910390fd5b60045f8281526020019081526020015f205f6101000a81549073ffffffffffffffffffffffffffffffffffffffff0219169055600160035f8573ffffffffffffffffffffffffffffffffffffffff1673ffffffffffffffffffffffffffffffffffffffff1681526020019081526020015f205f8282540392505081905550600160035f8473ffffffffffffffffffffffffffffffffffffffff1673ffffffffffffffffffffffffffffffffffffffff1681526020019081526020015f205f82825401925050819055508160025f8381526020019081526020015f205f6101000a81548173ffffffffffffffffffffffffffffffffffffffff021916908373ffffffffffffffffffffffffffffffffffffffff160217905550808273ffffffffffffffffffffffffffffffffffffffff168473ffffffffffffffffffffffffffffffffffffffff167fddf252ad1be2c89b69c2b068fc378daa952ba7f163c4a11628f55a4df523b3ef60405160405180910390a4611dfb838383600161276d565b505050565b5f46905090565b611e0f6119c3565b73ffffffffffffffffffffffffffffffffffffffff16611e2d611358565b73ffffffffffffffffffffffffffffffffffffffff1614611e83576040517f08c379a0000000000000000000000000000000000000000000000000000000008152600401611e7a906143b6565b60405180910390fd5b565b80600c9081611e949190614568565b5050565b5f60025f8381526020019081526020015f205f9054906101000a900473ffffffffffffffffffffffffffffffffffffffff169050919050565b5f600a5f9054906101000a900473ffffffffffffffffffffffffffffffffffffffff16905081600a5f6101000a81548173ffffffffffffffffffffffffffffffffffffffff021916908373ffffffffffffffffffffffffffffffffffffffff1602179055508173ffffffffffffffffffffffffffffffffffffffff168173ffffffffffffffffffffffffffffffffffffffff167f8be0079c531659141344cd1fd0a4f28419497f9722a3daafe3b4186f6b6457e060405160405180910390a35050565b5f42905090565b5f80600e5f8481526020019081526020015f20549050600e5f8481526020019081526020015f205f815480929190611fd290614128565b919050555080915050919050565b5f808273ffffffffffffffffffffffffffffffffffffffff163b119050919050565b8173ffffffffffffffffffffffffffffffffffffffff168373ffffffffffffffffffffffffffffffffffffffff1603612070576040517f08c379a000000000000000000000000000000000000000000000000000000000815260040161206790614681565b60405180910390fd5b8060055f8573ffffffffffffffffffffffffffffffffffffffff1673ffffffffffffffffffffffffffffffffffffffff1681526020019081526020015f205f8473ffffffffffffffffffffffffffffffffffffffff1673ffffffffffffffffffffffffffffffffffffffff1681526020019081526020015f205f6101000a81548160ff0219169083151502179055508173ffffffffffffffffffffffffffffffffffffffff168373ffffffffffffffffffffffffffffffffffffffff167f17307eab39ab6107e8899845ad3d59bd9653f200f220920489ca2b5937696c318360405161215c9190612e5b565b60405180910390a3505050565b5f8173ffffffffffffffffffffffffffffffffffffffff165f1b9050919050565b5f826121968584612773565b1490509392505050565b5f73ffffffffffffffffffffffffffffffffffffffff168273ffffffffffffffffffffffffffffffffffffffff160361220e576040517f08c379a0000000000000000000000000000000000000000000000000000000008152600401612205906146e9565b60405180910390fd5b612217816125d2565b15612257576040517f08c379a000000000000000000000000000000000000000000000000000000000815260040161224e90614751565b60405180910390fd5b6122645f83836001612612565b61226d816125d2565b156122ad576040517f08c379a00000000000000000000000000000000000000000000000000000000081526004016122a490614751565b60405180910390fd5b600160035f8473ffffffffffffffffffffffffffffffffffffffff1673ffffffffffffffffffffffffffffffffffffffff1681526020019081526020015f205f82825401925050819055508160025f8381526020019081526020015f205f6101000a81548173ffffffffffffffffffffffffffffffffffffffff021916908373ffffffffffffffffffffffffffffffffffffffff160217905550808273ffffffffffffffffffffffffffffffffffffffff165f73ffffffffffffffffffffffffffffffffffffffff167fddf252ad1be2c89b69c2b068fc378daa952ba7f163c4a11628f55a4df523b3ef60405160405180910390a46123af5f8383600161276d565b5050565b6123be848484611b14565b6123ca848484846127c7565b612409576040517f08c379a0000000000000000000000000000000000000000000000000000000008152600401612400906147df565b60405180910390fd5b50505050565b6060600c805461241e90613605565b80601f016020809104026020016040519081016040528092919081815260200182805461244a90613605565b80156124955780601f1061246c57610100808354040283529160200191612495565b820191905f5260205f20905b81548152906001019060200180831161247857829003601f168201915b5050505050905090565b60605f60016124ad84612949565b0190505f8167ffffffffffffffff8111156124cb576124ca6130ed565b5b6040519080825280601f01601f1916602001820160405280156124fd5781602001600182028036833780820191505090505b5090505f82602001820190505b60011561255e578080600190039150507f3031323334353637383961626364656600000000000000000000000000000000600a86061a8153600a8581612553576125526147fd565b5b0494505f850361250a575b819350505050919050565b5f7f01ffc9a7000000000000000000000000000000000000000000000000000000007bffffffffffffffffffffffffffffffffffffffffffffffffffffffff1916827bffffffffffffffffffffffffffffffffffffffffffffffffffffffff1916149050919050565b5f8073ffffffffffffffffffffffffffffffffffffffff166125f383611e98565b73ffffffffffffffffffffffffffffffffffffffff1614159050919050565b61261e84848484612a9a565b6001811115612662576040517f08c379a00000000000000000000000000000000000000000000000000000000081526004016126599061489a565b60405180910390fd5b5f8290505f73ffffffffffffffffffffffffffffffffffffffff168573ffffffffffffffffffffffffffffffffffffffff16036126a7576126a281612aa0565b6126e6565b8373ffffffffffffffffffffffffffffffffffffffff168573ffffffffffffffffffffffffffffffffffffffff16146126e5576126e48582612ae4565b5b5b5f73ffffffffffffffffffffffffffffffffffffffff168473ffffffffffffffffffffffffffffffffffffffff16036127275761272281612c3a565b612766565b8473ffffffffffffffffffffffffffffffffffffffff168473ffffffffffffffffffffffffffffffffffffffff1614612765576127648482612cfa565b5b5b5050505050565b50505050565b5f808290505f5b84518110156127bc576127a78286838151811061279a5761279961398e565b5b6020026020010151612d72565b915080806127b490614128565b91505061277a565b508091505092915050565b5f6127e78473ffffffffffffffffffffffffffffffffffffffff16611fe0565b1561293c578373ffffffffffffffffffffffffffffffffffffffff1663150b7a026128106119c3565b8786866040518563ffffffff1660e01b815260040161283294939291906148b8565b6020604051808303815f875af192505050801561286d57506040513d601f19601f8201168201806040525081019061286a9190613e0e565b60015b6128ec573d805f811461289b576040519150601f19603f3d011682016040523d82523d5f602084013e6128a0565b606091505b505f8151036128e4576040517f08c379a00000000000000000000000000000000000000000000000000000000081526004016128db906147df565b60405180910390fd5b805181602001fd5b63150b7a0260e01b7bffffffffffffffffffffffffffffffffffffffffffffffffffffffff1916817bffffffffffffffffffffffffffffffffffffffffffffffffffffffff191614915050612941565b600190505b949350505050565b5f805f90507a184f03e93ff9f4daa797ed6e38ed64bf6a1f01000000000000000083106129a5577a184f03e93ff9f4daa797ed6e38ed64bf6a1f010000000000000000838161299b5761299a6147fd565b5b0492506040810190505b6d04ee2d6d415b85acef810000000083106129e2576d04ee2d6d415b85acef810000000083816129d8576129d76147fd565b5b0492506020810190505b662386f26fc100008310612a1157662386f26fc100008381612a0757612a066147fd565b5b0492506010810190505b6305f5e1008310612a3a576305f5e1008381612a3057612a2f6147fd565b5b0492506008810190505b6127108310612a5f576127108381612a5557612a546147fd565b5b0492506004810190505b60648310612a825760648381612a7857612a776147fd565b5b0492506002810190505b600a8310612a91576001810190505b80915050919050565b50505050565b60088054905060095f8381526020019081526020015f2081905550600881908060018154018082558091505060019003905f5260205f20015f909190919091505550565b5f6001612af084610e6c565b612afa9190614902565b90505f60075f8481526020019081526020015f20549050818114612bd1575f60065f8673ffffffffffffffffffffffffffffffffffffffff1673ffffffffffffffffffffffffffffffffffffffff1681526020019081526020015f205f8481526020019081526020015f205490508060065f8773ffffffffffffffffffffffffffffffffffffffff1673ffffffffffffffffffffffffffffffffffffffff1681526020019081526020015f205f8481526020019081526020015f20819055508160075f8381526020019081526020015f2081905550505b60075f8481526020019081526020015f205f905560065f8573ffffffffffffffffffffffffffffffffffffffff1673ffffffffffffffffffffffffffffffffffffffff1681526020019081526020015f205f8381526020019081526020015f205f905550505050565b5f6001600880549050612c4d9190614902565b90505f60095f8481526020019081526020015f205490505f60088381548110612c7957612c7861398e565b5b905f5260205f20015490508060088381548110612c9957612c9861398e565b5b905f5260205f2001819055508160095f8381526020019081526020015f208190555060095f8581526020019081526020015f205f90556008805480612ce157612ce0614935565b5b600190038181905f5260205f20015f9055905550505050565b5f612d0483610e6c565b90508160065f8573ffffffffffffffffffffffffffffffffffffffff1673ffffffffffffffffffffffffffffffffffffffff1681526020019081526020015f205f8381526020019081526020015f20819055508060075f8481526020019081526020015f2081905550505050565b5f818310612d8957612d848284612d9c565b612d94565b612d938383612d9c565b5b905092915050565b5f825f528160205260405f20905092915050565b5f604051905090565b5f80fd5b5f80fd5b5f7fffffffff0000000000000000000000000000000000000000000000000000000082169050919050565b612df581612dc1565b8114612dff575f80fd5b50565b5f81359050612e1081612dec565b92915050565b5f60208284031215612e2b57612e2a612db9565b5b5f612e3884828501612e02565b91505092915050565b5f8115159050919050565b612e5581612e41565b82525050565b5f602082019050612e6e5f830184612e4c565b92915050565b5f81519050919050565b5f82825260208201905092915050565b5f5b83811015612eab578082015181840152602081019050612e90565b5f8484015250505050565b5f601f19601f8301169050919050565b5f612ed082612e74565b612eda8185612e7e565b9350612eea818560208601612e8e565b612ef381612eb6565b840191505092915050565b5f6020820190508181035f830152612f168184612ec6565b905092915050565b5f819050919050565b612f3081612f1e565b8114612f3a575f80fd5b50565b5f81359050612f4b81612f27565b92915050565b5f60208284031215612f6657612f65612db9565b5b5f612f7384828501612f3d565b91505092915050565b5f73ffffffffffffffffffffffffffffffffffffffff82169050919050565b5f612fa582612f7c565b9050919050565b612fb581612f9b565b82525050565b5f602082019050612fce5f830184612fac565b92915050565b612fdd81612f9b565b8114612fe7575f80fd5b50565b5f81359050612ff881612fd4565b92915050565b5f806040838503121561301457613013612db9565b5b5f61302185828601612fea565b925050602061303285828601612f3d565b9150509250929050565b61304581612f1e565b82525050565b5f60208201905061305e5f83018461303c565b92915050565b5f805f6060848603121561307b5761307a612db9565b5b5f61308886828701612fea565b935050602061309986828701612fea565b92505060406130aa86828701612f3d565b9150509250925092565b5f819050919050565b6130c6816130b4565b82525050565b5f6020820190506130df5f8301846130bd565b92915050565b5f80fd5b5f80fd5b7f4e487b71000000000000000000000000000000000000000000000000000000005f52604160045260245ffd5b61312382612eb6565b810181811067ffffffffffffffff82111715613142576131416130ed565b5b80604052505050565b5f613154612db0565b9050613160828261311a565b919050565b5f67ffffffffffffffff82111561317f5761317e6130ed565b5b61318882612eb6565b9050602081019050919050565b828183375f83830152505050565b5f6131b56131b084613165565b61314b565b9050828152602081018484840111156131d1576131d06130e9565b5b6131dc848285613195565b509392505050565b5f82601f8301126131f8576131f76130e5565b5b81356132088482602086016131a3565b91505092915050565b5f6020828403121561322657613225612db9565b5b5f82013567ffffffffffffffff81111561324357613242612dbd565b5b61324f848285016131e4565b91505092915050565b5f6020828403121561326d5761326c612db9565b5b5f61327a84828501612fea565b91505092915050565b5f60ff82169050919050565b61329881613283565b81146132a2575f80fd5b50565b5f813590506132b38161328f565b92915050565b6132c2816130b4565b81146132cc575f80fd5b50565b5f813590506132dd816132b9565b92915050565b5f805f805f8060c087890312156132fd576132fc612db9565b5b5f61330a89828a01612fea565b965050602061331b89828a01612f3d565b955050604061332c89828a01612f3d565b945050606061333d89828a016132a5565b935050608061334e89828a016132cf565b92505060a061335f89828a016132cf565b9150509295509295509295565b61337581612e41565b811461337f575f80fd5b50565b5f813590506133908161336c565b92915050565b5f80604083850312156133ac576133ab612db9565b5b5f6133b985828601612fea565b92505060206133ca85828601613382565b9150509250929050565b5f80fd5b5f80fd5b5f8083601f8401126133f1576133f06130e5565b5b8235905067ffffffffffffffff81111561340e5761340d6133d4565b5b60208301915083602082028301111561342a576134296133d8565b5b9250929050565b5f806020838503121561344757613446612db9565b5b5f83013567ffffffffffffffff81111561346457613463612dbd565b5b613470858286016133dc565b92509250509250929050565b5f67ffffffffffffffff821115613496576134956130ed565b5b61349f82612eb6565b9050602081019050919050565b5f6134be6134b98461347c565b61314b565b9050828152602081018484840111156134da576134d96130e9565b5b6134e5848285613195565b509392505050565b5f82601f830112613501576135006130e5565b5b81356135118482602086016134ac565b91505092915050565b5f805f806080858703121561353257613531612db9565b5b5f61353f87828801612fea565b945050602061355087828801612fea565b935050604061356187828801612f3d565b925050606085013567ffffffffffffffff81111561358257613581612dbd565b5b61358e878288016134ed565b91505092959194509250565b5f80604083850312156135b0576135af612db9565b5b5f6135bd85828601612fea565b92505060206135ce85828601612fea565b9150509250929050565b7f4e487b71000000000000000000000000000000000000000000000000000000005f52602260045260245ffd5b5f600282049050600182168061361c57607f821691505b60208210810361362f5761362e6135d8565b5b50919050565b7f4552433732313a20617070726f76616c20746f2063757272656e74206f776e655f8201527f7200000000000000000000000000000000000000000000000000000000000000602082015250565b5f61368f602183612e7e565b915061369a82613635565b604082019050919050565b5f6020820190508181035f8301526136bc81613683565b9050919050565b7f4552433732313a20617070726f76652063616c6c6572206973206e6f7420746f5f8201527f6b656e206f776e6572206f7220617070726f76656420666f7220616c6c000000602082015250565b5f61371d603d83612e7e565b9150613728826136c3565b604082019050919050565b5f6020820190508181035f83015261374a81613711565b9050919050565b7f4552433732313a2063616c6c6572206973206e6f7420746f6b656e206f776e655f8201527f72206f7220617070726f76656400000000000000000000000000000000000000602082015250565b5f6137ab602d83612e7e565b91506137b682613751565b604082019050919050565b5f6020820190508181035f8301526137d88161379f565b9050919050565b7f455243373231456e756d657261626c653a206f776e657220696e646578206f755f8201527f74206f6620626f756e6473000000000000000000000000000000000000000000602082015250565b5f613839602b83612e7e565b9150613844826137df565b604082019050919050565b5f6020820190508181035f8301526138668161382d565b9050919050565b5f819050919050565b5f819050919050565b5f61389961389461388f8461386d565b613876565b612f1e565b9050919050565b6138a98161387f565b82525050565b5f60a0820190506138c25f8301886138a0565b6138cf60208301876130bd565b6138dc60408301866130bd565b6138e9606083018561303c565b6138f66080830184612fac565b9695505050505050565b7f455243373231456e756d657261626c653a20676c6f62616c20696e646578206f5f8201527f7574206f6620626f756e64730000000000000000000000000000000000000000602082015250565b5f61395a602c83612e7e565b915061396582613900565b604082019050919050565b5f6020820190508181035f8301526139878161394e565b9050919050565b7f4e487b71000000000000000000000000000000000000000000000000000000005f52603260045260245ffd5b7f4552433732313a20696e76616c696420746f6b656e20494400000000000000005f82015250565b5f6139ef601883612e7e565b91506139fa826139bb565b602082019050919050565b5f6020820190508181035f830152613a1c816139e3565b9050919050565b7f4552433732313a2061646472657373207a65726f206973206e6f7420612076615f8201527f6c6964206f776e65720000000000000000000000000000000000000000000000602082015250565b5f613a7d602983612e7e565b9150613a8882613a23565b604082019050919050565b5f6020820190508181035f830152613aaa81613a71565b9050919050565b7f5075626c6963206d696e7420697320616c726561647920656e61626c656400005f82015250565b5f613ae5601e83612e7e565b9150613af082613ab1565b602082019050919050565b5f6020820190508181035f830152613b1281613ad9565b9050919050565b7f5065726d697420657870697265640000000000000000000000000000000000005f82015250565b5f613b4d600e83612e7e565b9150613b5882613b19565b602082019050919050565b5f6020820190508181035f830152613b7a81613b41565b9050919050565b5f60a082019050613b945f8301886130bd565b613ba16020830187612fac565b613bae604083018661303c565b613bbb606083018561303c565b613bc8608083018461303c565b9695505050505050565b5f81905092915050565b7f19010000000000000000000000000000000000000000000000000000000000005f82015250565b5f613c10600283613bd2565b9150613c1b82613bdc565b600282019050919050565b5f819050919050565b613c40613c3b826130b4565b613c26565b82525050565b5f613c5082613c04565b9150613c5c8285613c2f565b602082019150613c6c8284613c2f565b6020820191508190509392505050565b7f4552433732315065726d69743a20617070726f76616c20746f2063757272656e5f8201527f74206f776e657200000000000000000000000000000000000000000000000000602082015250565b5f613cd6602783612e7e565b9150613ce182613c7c565b604082019050919050565b5f6020820190508181035f830152613d0381613cca565b9050919050565b5f8160f81b9050919050565b5f613d2082613d0a565b9050919050565b613d38613d3382613283565b613d16565b82525050565b5f613d498286613c2f565b602082019150613d598285613c2f565b602082019150613d698284613d27565b600182019150819050949350505050565b5f81519050919050565b5f82825260208201905092915050565b5f613d9e82613d7a565b613da88185613d84565b9350613db8818560208601612e8e565b613dc181612eb6565b840191505092915050565b5f604082019050613ddf5f8301856130bd565b8181036020830152613df18184613d94565b90509392505050565b5f81519050613e0881612dec565b92915050565b5f60208284031215613e2357613e22612db9565b5b5f613e3084828501613dfa565b91505092915050565b7f556e617574686f72697a656400000000000000000000000000000000000000005f82015250565b5f613e6d600c83612e7e565b9150613e7882613e39565b602082019050919050565b5f6020820190508181035f830152613e9a81613e61565b9050919050565b613eaa81613283565b82525050565b5f608082019050613ec35f8301876130bd565b613ed06020830186613ea1565b613edd60408301856130bd565b613eea60608301846130bd565b95945050505050565b7f496e76616c6964207369676e61747572650000000000000000000000000000005f82015250565b5f613f27601183612e7e565b9150613f3282613ef3565b602082019050919050565b5f6020820190508181035f830152613f5481613f1b565b9050919050565b7f4e6f7420656e6f756768204554482073656e74000000000000000000000000005f82015250565b5f613f8f601383612e7e565b9150613f9a82613f5b565b602082019050919050565b5f6020820190508181035f830152613fbc81613f83565b9050919050565b7f4578636565647320746f6b656e20737570706c790000000000000000000000005f82015250565b5f613ff7601483612e7e565b915061400282613fc3565b602082019050919050565b5f6020820190508181035f83015261402481613feb565b9050919050565b7f5573657220616c726561647920636c61696d65640000000000000000000000005f82015250565b5f61405f601483612e7e565b915061406a8261402b565b602082019050919050565b5f6020820190508181035f83015261408c81614053565b9050919050565b7f496e76616c6964206d65726b6c652070726f6f660000000000000000000000005f82015250565b5f6140c7601483612e7e565b91506140d282614093565b602082019050919050565b5f6020820190508181035f8301526140f4816140bb565b9050919050565b7f4e487b71000000000000000000000000000000000000000000000000000000005f52601160045260245ffd5b5f61413282612f1e565b91507fffffffffffffffffffffffffffffffffffffffffffffffffffffffffffffffff8203614164576141636140fb565b5b600182019050919050565b5f61417982612e74565b6141838185613bd2565b9350614193818560208601612e8e565b80840191505092915050565b5f6141aa828561416f565b91506141b6828461416f565b91508190509392505050565b7f4f776e61626c653a206e6577206f776e657220697320746865207a65726f20615f8201527f6464726573730000000000000000000000000000000000000000000000000000602082015250565b5f61421c602683612e7e565b9150614227826141c2565b604082019050919050565b5f6020820190508181035f83015261424981614210565b9050919050565b7f4552433732313a207472616e736665722066726f6d20696e636f7272656374205f8201527f6f776e6572000000000000000000000000000000000000000000000000000000602082015250565b5f6142aa602583612e7e565b91506142b582614250565b604082019050919050565b5f6020820190508181035f8301526142d78161429e565b9050919050565b7f4552433732313a207472616e7366657220746f20746865207a65726f206164645f8201527f7265737300000000000000000000000000000000000000000000000000000000602082015250565b5f614338602483612e7e565b9150614343826142de565b604082019050919050565b5f6020820190508181035f8301526143658161432c565b9050919050565b7f4f776e61626c653a2063616c6c6572206973206e6f7420746865206f776e65725f82015250565b5f6143a0602083612e7e565b91506143ab8261436c565b602082019050919050565b5f6020820190508181035f8301526143cd81614394565b9050919050565b5f819050815f5260205f209050919050565b5f6020601f8301049050919050565b5f82821b905092915050565b5f600883026144307fffffffffffffffffffffffffffffffffffffffffffffffffffffffffffffffff826143f5565b61443a86836143f5565b95508019841693508086168417925050509392505050565b5f61446c61446761446284612f1e565b613876565b612f1e565b9050919050565b5f819050919050565b61448583614452565b61449961449182614473565b848454614401565b825550505050565b5f90565b6144ad6144a1565b6144b881848461447c565b505050565b5b818110156144db576144d05f826144a5565b6001810190506144be565b5050565b601f821115614520576144f1816143d4565b6144fa846143e6565b81016020851015614509578190505b61451d614515856143e6565b8301826144bd565b50505b505050565b5f82821c905092915050565b5f6145405f1984600802614525565b1980831691505092915050565b5f6145588383614531565b9150826002028217905092915050565b61457182612e74565b67ffffffffffffffff81111561458a576145896130ed565b5b6145948254613605565b61459f8282856144df565b5f60209050601f8311600181146145d0575f84156145be578287015190505b6145c8858261454d565b86555061462f565b601f1984166145de866143d4565b5f5b82811015614605578489015182556001820191506020850194506020810190506145e0565b86831015614622578489015161461e601f891682614531565b8355505b6001600288020188555050505b505050505050565b7f4552433732313a20617070726f766520746f2063616c6c6572000000000000005f82015250565b5f61466b601983612e7e565b915061467682614637565b602082019050919050565b5f6020820190508181035f8301526146988161465f565b9050919050565b7f4552433732313a206d696e7420746f20746865207a65726f20616464726573735f82015250565b5f6146d3602083612e7e565b91506146de8261469f565b602082019050919050565b5f6020820190508181035f830152614700816146c7565b9050919050565b7f4552433732313a20746f6b656e20616c7265616479206d696e746564000000005f82015250565b5f61473b601c83612e7e565b915061474682614707565b602082019050919050565b5f6020820190508181035f8301526147688161472f565b9050919050565b7f4552433732313a207472616e7366657220746f206e6f6e2045524337323152655f8201527f63656976657220696d706c656d656e7465720000000000000000000000000000602082015250565b5f6147c9603283612e7e565b91506147d48261476f565b604082019050919050565b5f6020820190508181035f8301526147f6816147bd565b9050919050565b7f4e487b71000000000000000000000000000000000000000000000000000000005f52601260045260245ffd5b7f455243373231456e756d657261626c653a20636f6e73656375746976652074725f8201527f616e7366657273206e6f7420737570706f727465640000000000000000000000602082015250565b5f614884603583612e7e565b915061488f8261482a565b604082019050919050565b5f6020820190508181035f8301526148b181614878565b9050919050565b5f6080820190506148cb5f830187612fac565b6148d86020830186612fac565b6148e5604083018561303c565b81810360608301526148f78184613d94565b905095945050505050565b5f61490c82612f1e565b915061491783612f1e565b925082820390508181111561492f5761492e6140fb565b5b92915050565b7f4e487b71000000000000000000000000000000000000000000000000000000005f52603160045260245ffdfea2646970667358221220ab2d33a15e9e9aac6c140783ee512e78931a8b3ecf4b131bfa60bb21adb4a59964736f6c63430008140033697066733a2f2f62616679626569656e69616c6b6472707076646664616e7a7569776e7434356d346868636b617978727676686b747272766d6f77776b77723435612f",
  "linkReferences": {},
  "deployedLinkReferences": {}
}