{
  "_format": "hh-sol-artifact-1",
  "contractName": "TRIS",
  "sourceName": "contracts/TRIS.sol",
  "abi": [
    {
      "inputs": [],
      "stateMutability": "nonpayable",
      "type": "constructor"
    },
    {
      "anonymous": false,
      "inputs": [
        {
          "indexed": true,
          "internalType": "address",
          "name": "owner",
          "type": "address"
        },
        {
          "indexed": true,
          "internalType": "address",
          "name": "approved",
          "type": "address"
        },
        {
          "indexed": true,
          "internalType": "uint256",
          "name": "tokenId",
          "type": "uint256"
        }
      ],
      "name": "Approval",
      "type": "event"
    },
    {
      "anonymous": false,
      "inputs": [
        {
          "indexed": true,
          "internalType": "address",
          "name": "owner",
          "type": "address"
        },
        {
          "indexed": true,
          "internalType": "address",
          "name": "operator",
          "type": "address"
        },
        {
          "indexed": false,
          "internalType": "bool",
          "name": "approved",
          "type": "bool"
        }
      ],
      "name": "ApprovalForAll",
      "type": "event"
    },
    {
      "anonymous": false,
      "inputs": [
        {
          "indexed": true,
          "internalType": "address",
          "name": "previousOwner",
          "type": "address"
        },
        {
          "indexed": true,
          "internalType": "address",
          "name": "newOwner",
          "type": "address"
        }
      ],
      "name": "OwnershipTransferred",
      "type": "event"
    },
    {
      "anonymous": false,
      "inputs": [
        {
          "indexed": true,
          "internalType": "address",
          "name": "from",
          "type": "address"
        },
        {
          "indexed": true,
          "internalType": "address",
          "name": "to",
          "type": "address"
        },
        {
          "indexed": true,
          "internalType": "uint256",
          "name": "tokenId",
          "type": "uint256"
        }
      ],
      "name": "Transfer",
      "type": "event"
    },
    {
      "inputs": [],
      "name": "DOMAIN_SEPARATOR",
      "outputs": [
        {
          "internalType": "bytes32",
          "name": "",
          "type": "bytes32"
        }
      ],
      "stateMutability": "view",
      "type": "function"
    },
    {
      "inputs": [],
      "name": "PERMIT_TYPEHASH",
      "outputs": [
        {
          "internalType": "bytes32",
          "name": "",
          "type": "bytes32"
        }
      ],
      "stateMutability": "view",
      "type": "function"
    },
    {
      "inputs": [],
      "name": "__baseURI",
      "outputs": [
        {
          "internalType": "string",
          "name": "",
          "type": "string"
        }
      ],
      "stateMutability": "view",
      "type": "function"
    },
    {
      "inputs": [
        {
          "internalType": "address",
          "name": "to",
          "type": "address"
        },
        {
          "internalType": "uint256",
          "name": "tokenId",
          "type": "uint256"
        }
      ],
      "name": "approve",
      "outputs": [],
      "stateMutability": "nonpayable",
      "type": "function"
    },
    {
      "inputs": [
        {
          "internalType": "address",
          "name": "owner",
          "type": "address"
        }
      ],
      "name": "balanceOf",
      "outputs": [
        {
          "internalType": "uint256",
          "name": "",
          "type": "uint256"
        }
      ],
      "stateMutability": "view",
      "type": "function"
    },
    {
      "inputs": [],
      "name": "cap",
      "outputs": [
        {
          "internalType": "uint256",
          "name": "",
          "type": "uint256"
        }
      ],
      "stateMutability": "view",
      "type": "function"
    },
    {
      "inputs": [
        {
          "internalType": "uint256",
          "name": "tokenId",
          "type": "uint256"
        }
      ],
      "name": "getApproved",
      "outputs": [
        {
          "internalType": "address",
          "name": "",
          "type": "address"
        }
      ],
      "stateMutability": "view",
      "type": "function"
    },
    {
      "inputs": [
        {
          "internalType": "address",
          "name": "owner",
          "type": "address"
        },
        {
          "internalType": "address",
          "name": "operator",
          "type": "address"
        }
      ],
      "name": "isApprovedForAll",
      "outputs": [
        {
          "internalType": "bool",
          "name": "",
          "type": "bool"
        }
      ],
      "stateMutability": "view",
      "type": "function"
    },
    {
      "inputs": [],
      "name": "isWhitelistActive",
      "outputs": [
        {
          "internalType": "bool",
          "name": "",
          "type": "bool"
        }
      ],
      "stateMutability": "view",
      "type": "function"
    },
    {
      "inputs": [
        {
          "internalType": "address",
          "name": "_to",
          "type": "address"
        },
        {
          "internalType": "uint256",
          "name": "_tokenId",
          "type": "uint256"
        }
      ],
      "name": "mint",
      "outputs": [],
      "stateMutability": "nonpayable",
      "type": "function"
    },
    {
      "inputs": [],
      "name": "name",
      "outputs": [
        {
          "internalType": "string",
          "name": "",
          "type": "string"
        }
      ],
      "stateMutability": "view",
      "type": "function"
    },
    {
      "inputs": [
        {
          "internalType": "uint256",
          "name": "",
          "type": "uint256"
        }
      ],
      "name": "nonces",
      "outputs": [
        {
          "internalType": "uint256",
          "name": "",
          "type": "uint256"
        }
      ],
      "stateMutability": "view",
      "type": "function"
    },
    {
      "inputs": [],
      "name": "owner",
      "outputs": [
        {
          "internalType": "address",
          "name": "",
          "type": "address"
        }
      ],
      "stateMutability": "view",
      "type": "function"
    },
    {
      "inputs": [
        {
          "internalType": "uint256",
          "name": "tokenId",
          "type": "uint256"
        }
      ],
      "name": "ownerOf",
      "outputs": [
        {
          "internalType": "address",
          "name": "",
          "type": "address"
        }
      ],
      "stateMutability": "view",
      "type": "function"
    },
    {
      "inputs": [
        {
          "internalType": "address",
          "name": "spender",
          "type": "address"
        },
        {
          "internalType": "uint256",
          "name": "tokenId",
          "type": "uint256"
        },
        {
          "internalType": "uint256",
          "name": "deadline",
          "type": "uint256"
        },
        {
          "internalType": "uint8",
          "name": "v",
          "type": "uint8"
        },
        {
          "internalType": "bytes32",
          "name": "r",
          "type": "bytes32"
        },
        {
          "internalType": "bytes32",
          "name": "s",
          "type": "bytes32"
        }
      ],
      "name": "permit",
      "outputs": [],
      "stateMutability": "payable",
      "type": "function"
    },
    {
      "inputs": [],
      "name": "renounceOwnership",
      "outputs": [],
      "stateMutability": "nonpayable",
      "type": "function"
    },
    {
      "inputs": [
        {
          "internalType": "address",
          "name": "from",
          "type": "address"
        },
        {
          "internalType": "address",
          "name": "to",
          "type": "address"
        },
        {
          "internalType": "uint256",
          "name": "tokenId",
          "type": "uint256"
        }
      ],
      "name": "safeTransferFrom",
      "outputs": [],
      "stateMutability": "nonpayable",
      "type": "function"
    },
    {
      "inputs": [
        {
          "internalType": "address",
          "name": "from",
          "type": "address"
        },
        {
          "internalType": "address",
          "name": "to",
          "type": "address"
        },
        {
          "internalType": "uint256",
          "name": "tokenId",
          "type": "uint256"
        },
        {
          "internalType": "bytes",
          "name": "data",
          "type": "bytes"
        }
      ],
      "name": "safeTransferFrom",
      "outputs": [],
      "stateMutability": "nonpayable",
      "type": "function"
    },
    {
      "inputs": [
        {
          "internalType": "address",
          "name": "operator",
          "type": "address"
        },
        {
          "internalType": "bool",
          "name": "approved",
          "type": "bool"
        }
      ],
      "name": "setApprovalForAll",
      "outputs": [],
      "stateMutability": "nonpayable",
      "type": "function"
    },
    {
      "inputs": [
        {
          "internalType": "string",
          "name": "_uri",
          "type": "string"
        }
      ],
      "name": "setBaseURI",
      "outputs": [],
      "stateMutability": "nonpayable",
      "type": "function"
    },
    {
      "inputs": [
        {
          "internalType": "uint256",
          "name": "_cap",
          "type": "uint256"
        }
      ],
      "name": "setCap",
      "outputs": [],
      "stateMutability": "nonpayable",
      "type": "function"
    },
    {
      "inputs": [
        {
          "internalType": "bytes32",
          "name": "value",
          "type": "bytes32"
        }
      ],
      "name": "setWhitelistMerkleRoot",
      "outputs": [],
      "stateMutability": "nonpayable",
      "type": "function"
    },
    {
      "inputs": [],
      "name": "startWhitelistMint",
      "outputs": [],
      "stateMutability": "nonpayable",
      "type": "function"
    },
    {
      "inputs": [
        {
          "internalType": "bytes4",
          "name": "interfaceId",
          "type": "bytes4"
        }
      ],
      "name": "supportsInterface",
      "outputs": [
        {
          "internalType": "bool",
          "name": "",
          "type": "bool"
        }
      ],
      "stateMutability": "view",
      "type": "function"
    },
    {
      "inputs": [],
      "name": "symbol",
      "outputs": [
        {
          "internalType": "string",
          "name": "",
          "type": "string"
        }
      ],
      "stateMutability": "view",
      "type": "function"
    },
    {
      "inputs": [
        {
          "internalType": "uint256",
          "name": "index",
          "type": "uint256"
        }
      ],
      "name": "tokenByIndex",
      "outputs": [
        {
          "internalType": "uint256",
          "name": "",
          "type": "uint256"
        }
      ],
      "stateMutability": "view",
      "type": "function"
    },
    {
      "inputs": [
        {
          "internalType": "address",
          "name": "owner",
          "type": "address"
        },
        {
          "internalType": "uint256",
          "name": "index",
          "type": "uint256"
        }
      ],
      "name": "tokenOfOwnerByIndex",
      "outputs": [
        {
          "internalType": "uint256",
          "name": "",
          "type": "uint256"
        }
      ],
      "stateMutability": "view",
      "type": "function"
    },
    {
      "inputs": [
        {
          "internalType": "uint256",
          "name": "tokenId",
          "type": "uint256"
        }
      ],
      "name": "tokenURI",
      "outputs": [
        {
          "internalType": "string",
          "name": "",
          "type": "string"
        }
      ],
      "stateMutability": "view",
      "type": "function"
    },
    {
      "inputs": [],
      "name": "totalSupply",
      "outputs": [
        {
          "internalType": "uint256",
          "name": "",
          "type": "uint256"
        }
      ],
      "stateMutability": "view",
      "type": "function"
    },
    {
      "inputs": [
        {
          "internalType": "address",
          "name": "from",
          "type": "address"
        },
        {
          "internalType": "address",
          "name": "to",
          "type": "address"
        },
        {
          "internalType": "uint256",
          "name": "tokenId",
          "type": "uint256"
        }
      ],
      "name": "transferFrom",
      "outputs": [],
      "stateMutability": "nonpayable",
      "type": "function"
    },
    {
      "inputs": [
        {
          "internalType": "address",
          "name": "newOwner",
          "type": "address"
        }
      ],
      "name": "transferOwnership",
      "outputs": [],
      "stateMutability": "nonpayable",
      "type": "function"
    },
    {
      "inputs": [],
      "name": "version",
      "outputs": [
        {
          "internalType": "string",
          "name": "",
          "type": "string"
        }
      ],
      "stateMutability": "pure",
      "type": "function"
    },
    {
      "inputs": [],
      "name": "whitelistMerkleRoot",
      "outputs": [
        {
          "internalType": "bytes32",
          "name": "",
          "type": "bytes32"
        }
      ],
      "stateMutability": "view",
      "type": "function"
    },
    {
      "inputs": [
        {
          "internalType": "address",
          "name": "_to",
          "type": "address"
        },
        {
          "internalType": "uint256",
          "name": "_amountAllocated",
          "type": "uint256"
        },
        {
          "internalType": "uint256",
          "name": "_amountToMint",
          "type": "uint256"
        },
        {
          "internalType": "bytes32[]",
          "name": "proof",
          "type": "bytes32[]"
        }
      ],
      "name": "whitelistMint",
      "outputs": [],
      "stateMutability": "payable",
      "type": "function"
    },
    {
      "inputs": [
        {
          "internalType": "address",
          "name": "",
          "type": "address"
        }
      ],
      "name": "whitelistMinted",
      "outputs": [
        {
          "internalType": "uint256",
          "name": "",
          "type": "uint256"
        }
      ],
      "stateMutability": "view",
      "type": "function"
    }
  ],
  "bytecode": "0x60c06040526103e8600c5534801562000016575f80fd5b506040518060400160405280600481526020017f54524953000000000000000000000000000000000000000000000000000000008152506040518060400160405280600481526020017f54524953000000000000000000000000000000000000000000000000000000008152506040518060400160405280600181526020017f31000000000000000000000000000000000000000000000000000000000000008152508282815f9081620000cb919062000494565b508060019081620000dd919062000494565b505050828051906020012060808181525050808051906020012060a0818152505050505062000121620001156200015160201b60201c565b6200015860201b60201c565b6200014b60405180608001604052806043815260200162004f9a604391396200021b60201b60201c565b62000578565b5f33905090565b5f600a5f9054906101000a900473ffffffffffffffffffffffffffffffffffffffff16905081600a5f6101000a81548173ffffffffffffffffffffffffffffffffffffffff021916908373ffffffffffffffffffffffffffffffffffffffff1602179055508173ffffffffffffffffffffffffffffffffffffffff168173ffffffffffffffffffffffffffffffffffffffff167f8be0079c531659141344cd1fd0a4f28419497f9722a3daafe3b4186f6b6457e060405160405180910390a35050565b80600e90816200022c919062000494565b5050565b5f81519050919050565b7f4e487b71000000000000000000000000000000000000000000000000000000005f52604160045260245ffd5b7f4e487b71000000000000000000000000000000000000000000000000000000005f52602260045260245ffd5b5f6002820490506001821680620002ac57607f821691505b602082108103620002c257620002c162000267565b5b50919050565b5f819050815f5260205f209050919050565b5f6020601f8301049050919050565b5f82821b905092915050565b5f60088302620003267fffffffffffffffffffffffffffffffffffffffffffffffffffffffffffffffff82620002e9565b620003328683620002e9565b95508019841693508086168417925050509392505050565b5f819050919050565b5f819050919050565b5f6200037c6200037662000370846200034a565b62000353565b6200034a565b9050919050565b5f819050919050565b62000397836200035c565b620003af620003a68262000383565b848454620002f5565b825550505050565b5f90565b620003c5620003b7565b620003d28184846200038c565b505050565b5b81811015620003f957620003ed5f82620003bb565b600181019050620003d8565b5050565b601f82111562000448576200041281620002c8565b6200041d84620002da565b810160208510156200042d578190505b620004456200043c85620002da565b830182620003d7565b50505b505050565b5f82821c905092915050565b5f6200046a5f19846008026200044d565b1980831691505092915050565b5f62000484838362000459565b9150826002028217905092915050565b6200049f8262000230565b67ffffffffffffffff811115620004bb57620004ba6200023a565b5b620004c7825462000294565b620004d4828285620003fd565b5f60209050601f8311600181146200050a575f8415620004f5578287015190505b62000501858262000477565b86555062000570565b601f1984166200051a86620002c8565b5f5b8281101562000543578489015182556001820191506020850194506020810190506200051c565b868310156200056357848901516200055f601f89168262000459565b8355505b6001600288020188555050505b505050505050565b60805160a051614a006200059a5f395f610dea01525f610dc90152614a005ff3fe608060405260043610610203575f3560e01c806354fd4d501161011757806398a8cffe1161009f578063b88d4fde1161006e578063b88d4fde14610731578063bd32fb6614610759578063c87b56dd14610781578063e985e9c5146107bd578063f2fde38b146107f957610203565b806398a8cffe1461068d578063a22cb465146106c9578063aa98e0c6146106f1578063b70196d71461071b57610203565b806370a08231116100e657806370a08231146105cb578063715018a6146106075780637ac2ff7b1461061d5780638da5cb5b1461063957806395d89b411461066357610203565b806354fd4d501461051357806355f804b31461053d5780636352211e146105655780636e34a482146105a157610203565b80632f745c591161019a57806340c10f191161016957806340c10f191461043557806342842e0e1461045d57806347786d37146104855780634f6ccce7146104ad578063524513d6146104e957610203565b80632f745c591461037b57806330adf81f146103b7578063355274ea146103e15780633644e5151461040b57610203565b8063141a468c116101d6578063141a468c146102d157806318160ddd1461030d57806323b872dd146103375780632ad2cd841461035f57610203565b806301ffc9a71461020757806306fdde0314610243578063081812fc1461026d578063095ea7b3146102a9575b5f80fd5b348015610212575f80fd5b5061022d60048036038101906102289190612dc4565b610821565b60405161023a9190612e09565b60405180910390f35b34801561024e575f80fd5b5061025761089a565b6040516102649190612eac565b60405180910390f35b348015610278575f80fd5b50610293600480360381019061028e9190612eff565b610929565b6040516102a09190612f69565b60405180910390f35b3480156102b4575f80fd5b506102cf60048036038101906102ca9190612fac565b61096b565b005b3480156102dc575f80fd5b506102f760048036038101906102f29190612eff565b610a81565b6040516103049190612ff9565b60405180910390f35b348015610318575f80fd5b50610321610a96565b60405161032e9190612ff9565b60405180910390f35b348015610342575f80fd5b5061035d60048036038101906103589190613012565b610aa2565b005b610379600480360381019061037491906131d5565b610b02565b005b348015610386575f80fd5b506103a1600480360381019061039c9190612fac565b610cd9565b6040516103ae9190612ff9565b60405180910390f35b3480156103c2575f80fd5b506103cb610d79565b6040516103d89190613264565b60405180910390f35b3480156103ec575f80fd5b506103f5610d9f565b6040516104029190612ff9565b60405180910390f35b348015610416575f80fd5b5061041f610da5565b60405161042c9190613264565b60405180910390f35b348015610440575f80fd5b5061045b60048036038101906104569190612fac565b610e41565b005b348015610468575f80fd5b50610483600480360381019061047e9190613012565b610ea2565b005b348015610490575f80fd5b506104ab60048036038101906104a69190612eff565b610ec1565b005b3480156104b8575f80fd5b506104d360048036038101906104ce9190612eff565b610ed3565b6040516104e09190612ff9565b60405180910390f35b3480156104f4575f80fd5b506104fd610f41565b60405161050a9190612e09565b60405180910390f35b34801561051e575f80fd5b50610527610f57565b6040516105349190612eac565b60405180910390f35b348015610548575f80fd5b50610563600480360381019061055e919061332d565b610f94565b005b348015610570575f80fd5b5061058b60048036038101906105869190612eff565b610fa8565b6040516105989190612f69565b60405180910390f35b3480156105ac575f80fd5b506105b561102c565b6040516105c29190612eac565b60405180910390f35b3480156105d6575f80fd5b506105f160048036038101906105ec9190613374565b6110b8565b6040516105fe9190612ff9565b60405180910390f35b348015610612575f80fd5b5061061b61116c565b005b610637600480360381019061063291906133d5565b61117f565b005b348015610644575f80fd5b5061064d611526565b60405161065a9190612f69565b60405180910390f35b34801561066e575f80fd5b5061067761154e565b6040516106849190612eac565b60405180910390f35b348015610698575f80fd5b506106b360048036038101906106ae9190613374565b6115de565b6040516106c09190612ff9565b60405180910390f35b3480156106d4575f80fd5b506106ef60048036038101906106ea9190613488565b6115f3565b005b3480156106fc575f80fd5b50610705611609565b6040516107129190613264565b60405180910390f35b348015610726575f80fd5b5061072f61160f565b005b34801561073c575f80fd5b5061075760048036038101906107529190613564565b611634565b005b348015610764575f80fd5b5061077f600480360381019061077a91906135e4565b611696565b005b34801561078c575f80fd5b506107a760048036038101906107a29190612eff565b6116a8565b6040516107b49190612eac565b60405180910390f35b3480156107c8575f80fd5b506107e360048036038101906107de919061360f565b61170d565b6040516107f09190612e09565b60405180910390f35b348015610804575f80fd5b5061081f600480360381019061081a9190613374565b61179b565b005b5f7f780e9d63000000000000000000000000000000000000000000000000000000007bffffffffffffffffffffffffffffffffffffffffffffffffffffffff1916827bffffffffffffffffffffffffffffffffffffffffffffffffffffffff1916148061089357506108928261181d565b5b9050919050565b60605f80546108a89061367a565b80601f01602080910402602001604051908101604052809291908181526020018280546108d49061367a565b801561091f5780601f106108f65761010080835404028352916020019161091f565b820191905f5260205f20905b81548152906001019060200180831161090257829003601f168201915b5050505050905090565b5f610933826118fe565b60045f8381526020019081526020015f205f9054906101000a900473ffffffffffffffffffffffffffffffffffffffff169050919050565b5f61097582610fa8565b90508073ffffffffffffffffffffffffffffffffffffffff168373ffffffffffffffffffffffffffffffffffffffff16036109e5576040517f08c379a00000000000000000000000000000000000000000000000000000000081526004016109dc9061371a565b60405180910390fd5b8073ffffffffffffffffffffffffffffffffffffffff16610a04611949565b73ffffffffffffffffffffffffffffffffffffffff161480610a335750610a3281610a2d611949565b61170d565b5b610a72576040517f08c379a0000000000000000000000000000000000000000000000000000000008152600401610a69906137a8565b60405180910390fd5b610a7c8383611950565b505050565b600d602052805f5260405f205f915090505481565b5f600880549050905090565b610ab3610aad611949565b82611a06565b610af2576040517f08c379a0000000000000000000000000000000000000000000000000000000008152600401610ae990613836565b60405180910390fd5b610afd838383611a9a565b505050565b600a60149054906101000a900460ff16610b51576040517f08c379a0000000000000000000000000000000000000000000000000000000008152600401610b489061389e565b60405180910390fd5b610b5c818585611d86565b610b64575f80fd5b5f600f5f8673ffffffffffffffffffffffffffffffffffffffff1673ffffffffffffffffffffffffffffffffffffffff1681526020019081526020015f20549050838382610bb291906138e9565b1115610bf3576040517f08c379a0000000000000000000000000000000000000000000000000000000008152600401610bea90613966565b60405180910390fd5b82600f5f8773ffffffffffffffffffffffffffffffffffffffff1673ffffffffffffffffffffffffffffffffffffffff1681526020019081526020015f205f828254610c3f91906138e9565b925050819055505f610c4f610a96565b90505f8582610c5e91906138e9565b9050600c54811115610ca5576040517f08c379a0000000000000000000000000000000000000000000000000000000008152600401610c9c906139ce565b60405180910390fd5b5f8290505b81811015610ccf57610cbc8882611dcf565b8080610cc7906139ec565b915050610caa565b5050505050505050565b5f610ce3836110b8565b8210610d24576040517f08c379a0000000000000000000000000000000000000000000000000000000008152600401610d1b90613aa3565b60405180910390fd5b60065f8473ffffffffffffffffffffffffffffffffffffffff1673ffffffffffffffffffffffffffffffffffffffff1681526020019081526020015f205f8381526020019081526020015f2054905092915050565b7f49ecf333e5b8c95c40fdafc95c1ad136e8914a8fb55e9dc8bb01eaa83a2df9ad5f1b81565b600c5481565b5f7f8b73c3c69bb8fe3d512ecc4cf759cc79239f7b179b0ffacaa9a75d522b39400f7f00000000000000000000000000000000000000000000000000000000000000007f0000000000000000000000000000000000000000000000000000000000000000610e11611fe2565b30604051602001610e26959493929190613b03565b60405160208183030381529060405280519060200120905090565b610e49611fe9565b600c54610e54610a96565b10610e94576040517f08c379a0000000000000000000000000000000000000000000000000000000008152600401610e8b906139ce565b60405180910390fd5b610e9e8282611dcf565b5050565b610ebc83838360405180602001604052805f815250611634565b505050565b610ec9611fe9565b80600c8190555050565b5f610edc610a96565b8210610f1d576040517f08c379a0000000000000000000000000000000000000000000000000000000008152600401610f1490613bc4565b60405180910390fd5b60088281548110610f3157610f30613be2565b5b905f5260205f2001549050919050565b5f600a60149054906101000a900460ff16905090565b60606040518060400160405280600181526020017f3100000000000000000000000000000000000000000000000000000000000000815250905090565b610f9c611fe9565b610fa581612067565b50565b5f80610fb38361207a565b90505f73ffffffffffffffffffffffffffffffffffffffff168173ffffffffffffffffffffffffffffffffffffffff1603611023576040517f08c379a000000000000000000000000000000000000000000000000000000000815260040161101a90613c59565b60405180910390fd5b80915050919050565b600e80546110399061367a565b80601f01602080910402602001604051908101604052809291908181526020018280546110659061367a565b80156110b05780601f10611087576101008083540402835291602001916110b0565b820191905f5260205f20905b81548152906001019060200180831161109357829003601f168201915b505050505081565b5f8073ffffffffffffffffffffffffffffffffffffffff168273ffffffffffffffffffffffffffffffffffffffff1603611127576040517f08c379a000000000000000000000000000000000000000000000000000000000815260040161111e90613ce7565b60405180910390fd5b60035f8373ffffffffffffffffffffffffffffffffffffffff1673ffffffffffffffffffffffffffffffffffffffff1681526020019081526020015f20549050919050565b611174611fe9565b61117d5f6120b3565b565b83611188612176565b11156111c9576040517f08c379a00000000000000000000000000000000000000000000000000000000081526004016111c090613d4f565b60405180910390fd5b5f6111d2610da5565b7f49ecf333e5b8c95c40fdafc95c1ad136e8914a8fb55e9dc8bb01eaa83a2df9ad5f1b88886112008a61217d565b89604051602001611215959493929190613d6d565b6040516020818303038152906040528051906020012060405160200161123c929190613e32565b6040516020818303038152906040528051906020012090505f61125e87610fa8565b90508073ffffffffffffffffffffffffffffffffffffffff168873ffffffffffffffffffffffffffffffffffffffff16036112ce576040517f08c379a00000000000000000000000000000000000000000000000000000000081526004016112c590613ed8565b60405180910390fd5b6112d7816121c2565b156113e557631626ba7e60e01b8173ffffffffffffffffffffffffffffffffffffffff16631626ba7e8487878a60405160200161131693929190613f2a565b6040516020818303038152906040526040518363ffffffff1660e01b8152600401611342929190613fb8565b602060405180830381865afa15801561135d573d5f803e3d5ffd5b505050506040513d601f19601f820116820180604052508101906113819190613ffa565b7bffffffffffffffffffffffffffffffffffffffffffffffffffffffff1916146113e0576040517f08c379a00000000000000000000000000000000000000000000000000000000081526004016113d79061406f565b60405180910390fd5b611512565b5f6001838787876040515f8152602001604052604051611408949392919061409c565b6020604051602081039080840390855afa158015611428573d5f803e3d5ffd5b5050506020604051035190505f73ffffffffffffffffffffffffffffffffffffffff168173ffffffffffffffffffffffffffffffffffffffff16036114a2576040517f08c379a000000000000000000000000000000000000000000000000000000000815260040161149990614129565b60405180910390fd5b8173ffffffffffffffffffffffffffffffffffffffff168173ffffffffffffffffffffffffffffffffffffffff1614611510576040517f08c379a00000000000000000000000000000000000000000000000000000000081526004016115079061406f565b60405180910390fd5b505b61151c8888611950565b5050505050505050565b5f600a5f9054906101000a900473ffffffffffffffffffffffffffffffffffffffff16905090565b60606001805461155d9061367a565b80601f01602080910402602001604051908101604052809291908181526020018280546115899061367a565b80156115d45780601f106115ab576101008083540402835291602001916115d4565b820191905f5260205f20905b8154815290600101906020018083116115b757829003601f168201915b5050505050905090565b600f602052805f5260405f205f915090505481565b6116056115fe611949565b83836121e4565b5050565b600b5481565b611617611fe9565b6001600a60146101000a81548160ff021916908315150217905550565b61164561163f611949565b83611a06565b611684576040517f08c379a000000000000000000000000000000000000000000000000000000000815260040161167b90613836565b60405180910390fd5b6116908484848461234b565b50505050565b61169e611fe9565b80600b8190555050565b60606116b3826118fe565b5f6116bc6123a7565b90505f8151116116da5760405180602001604052805f815250611705565b806116e484612437565b6040516020016116f5929190614177565b6040516020818303038152906040525b915050919050565b5f60055f8473ffffffffffffffffffffffffffffffffffffffff1673ffffffffffffffffffffffffffffffffffffffff1681526020019081526020015f205f8373ffffffffffffffffffffffffffffffffffffffff1673ffffffffffffffffffffffffffffffffffffffff1681526020019081526020015f205f9054906101000a900460ff16905092915050565b6117a3611fe9565b5f73ffffffffffffffffffffffffffffffffffffffff168173ffffffffffffffffffffffffffffffffffffffff1603611811576040517f08c379a00000000000000000000000000000000000000000000000000000000081526004016118089061420a565b60405180910390fd5b61181a816120b3565b50565b5f7f80ac58cd000000000000000000000000000000000000000000000000000000007bffffffffffffffffffffffffffffffffffffffffffffffffffffffff1916827bffffffffffffffffffffffffffffffffffffffffffffffffffffffff191614806118e757507f5b5e139f000000000000000000000000000000000000000000000000000000007bffffffffffffffffffffffffffffffffffffffffffffffffffffffff1916827bffffffffffffffffffffffffffffffffffffffffffffffffffffffff1916145b806118f757506118f682612501565b5b9050919050565b6119078161256a565b611946576040517f08c379a000000000000000000000000000000000000000000000000000000000815260040161193d90613c59565b60405180910390fd5b50565b5f33905090565b8160045f8381526020019081526020015f205f6101000a81548173ffffffffffffffffffffffffffffffffffffffff021916908373ffffffffffffffffffffffffffffffffffffffff160217905550808273ffffffffffffffffffffffffffffffffffffffff166119c083610fa8565b73ffffffffffffffffffffffffffffffffffffffff167f8c5be1e5ebec7d5bd14f71427d1e84f3dd0314c0f7b2291e5b200ac8c7c3b92560405160405180910390a45050565b5f80611a1183610fa8565b90508073ffffffffffffffffffffffffffffffffffffffff168473ffffffffffffffffffffffffffffffffffffffff161480611a535750611a52818561170d565b5b80611a9157508373ffffffffffffffffffffffffffffffffffffffff16611a7984610929565b73ffffffffffffffffffffffffffffffffffffffff16145b91505092915050565b8273ffffffffffffffffffffffffffffffffffffffff16611aba82610fa8565b73ffffffffffffffffffffffffffffffffffffffff1614611b10576040517f08c379a0000000000000000000000000000000000000000000000000000000008152600401611b0790614298565b60405180910390fd5b5f73ffffffffffffffffffffffffffffffffffffffff168273ffffffffffffffffffffffffffffffffffffffff1603611b7e576040517f08c379a0000000000000000000000000000000000000000000000000000000008152600401611b7590614326565b60405180910390fd5b611b8b83838360016125aa565b8273ffffffffffffffffffffffffffffffffffffffff16611bab82610fa8565b73ffffffffffffffffffffffffffffffffffffffff1614611c01576040517f08c379a0000000000000000000000000000000000000000000000000000000008152600401611bf890614298565b60405180910390fd5b60045f8281526020019081526020015f205f6101000a81549073ffffffffffffffffffffffffffffffffffffffff0219169055600160035f8573ffffffffffffffffffffffffffffffffffffffff1673ffffffffffffffffffffffffffffffffffffffff1681526020019081526020015f205f8282540392505081905550600160035f8473ffffffffffffffffffffffffffffffffffffffff1673ffffffffffffffffffffffffffffffffffffffff1681526020019081526020015f205f82825401925050819055508160025f8381526020019081526020015f205f6101000a81548173ffffffffffffffffffffffffffffffffffffffff021916908373ffffffffffffffffffffffffffffffffffffffff160217905550808273ffffffffffffffffffffffffffffffffffffffff168473ffffffffffffffffffffffffffffffffffffffff167fddf252ad1be2c89b69c2b068fc378daa952ba7f163c4a11628f55a4df523b3ef60405160405180910390a4611d818383836001612705565b505050565b5f611dc6600b548484604051602001611da09291906143a9565b604051602081830303815290604052805190602001208661270b9092919063ffffffff16565b90509392505050565b5f73ffffffffffffffffffffffffffffffffffffffff168273ffffffffffffffffffffffffffffffffffffffff1603611e3d576040517f08c379a0000000000000000000000000000000000000000000000000000000008152600401611e349061441e565b60405180910390fd5b611e468161256a565b15611e86576040517f08c379a0000000000000000000000000000000000000000000000000000000008152600401611e7d90614486565b60405180910390fd5b611e935f838360016125aa565b611e9c8161256a565b15611edc576040517f08c379a0000000000000000000000000000000000000000000000000000000008152600401611ed390614486565b60405180910390fd5b600160035f8473ffffffffffffffffffffffffffffffffffffffff1673ffffffffffffffffffffffffffffffffffffffff1681526020019081526020015f205f82825401925050819055508160025f8381526020019081526020015f205f6101000a81548173ffffffffffffffffffffffffffffffffffffffff021916908373ffffffffffffffffffffffffffffffffffffffff160217905550808273ffffffffffffffffffffffffffffffffffffffff165f73ffffffffffffffffffffffffffffffffffffffff167fddf252ad1be2c89b69c2b068fc378daa952ba7f163c4a11628f55a4df523b3ef60405160405180910390a4611fde5f83836001612705565b5050565b5f46905090565b611ff1611949565b73ffffffffffffffffffffffffffffffffffffffff1661200f611526565b73ffffffffffffffffffffffffffffffffffffffff1614612065576040517f08c379a000000000000000000000000000000000000000000000000000000000815260040161205c906144ee565b60405180910390fd5b565b80600e908161207691906146a0565b5050565b5f60025f8381526020019081526020015f205f9054906101000a900473ffffffffffffffffffffffffffffffffffffffff169050919050565b5f600a5f9054906101000a900473ffffffffffffffffffffffffffffffffffffffff16905081600a5f6101000a81548173ffffffffffffffffffffffffffffffffffffffff021916908373ffffffffffffffffffffffffffffffffffffffff1602179055508173ffffffffffffffffffffffffffffffffffffffff168173ffffffffffffffffffffffffffffffffffffffff167f8be0079c531659141344cd1fd0a4f28419497f9722a3daafe3b4186f6b6457e060405160405180910390a35050565b5f42905090565b5f80600d5f8481526020019081526020015f20549050600d5f8481526020019081526020015f205f8154809291906121b4906139ec565b919050555080915050919050565b5f808273ffffffffffffffffffffffffffffffffffffffff163b119050919050565b8173ffffffffffffffffffffffffffffffffffffffff168373ffffffffffffffffffffffffffffffffffffffff1603612252576040517f08c379a0000000000000000000000000000000000000000000000000000000008152600401612249906147b9565b60405180910390fd5b8060055f8573ffffffffffffffffffffffffffffffffffffffff1673ffffffffffffffffffffffffffffffffffffffff1681526020019081526020015f205f8473ffffffffffffffffffffffffffffffffffffffff1673ffffffffffffffffffffffffffffffffffffffff1681526020019081526020015f205f6101000a81548160ff0219169083151502179055508173ffffffffffffffffffffffffffffffffffffffff168373ffffffffffffffffffffffffffffffffffffffff167f17307eab39ab6107e8899845ad3d59bd9653f200f220920489ca2b5937696c318360405161233e9190612e09565b60405180910390a3505050565b612356848484611a9a565b61236284848484612721565b6123a1576040517f08c379a000000000000000000000000000000000000000000000000000000000815260040161239890614847565b60405180910390fd5b50505050565b6060600e80546123b69061367a565b80601f01602080910402602001604051908101604052809291908181526020018280546123e29061367a565b801561242d5780601f106124045761010080835404028352916020019161242d565b820191905f5260205f20905b81548152906001019060200180831161241057829003601f168201915b5050505050905090565b60605f6001612445846128a3565b0190505f8167ffffffffffffffff81111561246357612462613066565b5b6040519080825280601f01601f1916602001820160405280156124955781602001600182028036833780820191505090505b5090505f82602001820190505b6001156124f6578080600190039150507f3031323334353637383961626364656600000000000000000000000000000000600a86061a8153600a85816124eb576124ea614865565b5b0494505f85036124a2575b819350505050919050565b5f7f01ffc9a7000000000000000000000000000000000000000000000000000000007bffffffffffffffffffffffffffffffffffffffffffffffffffffffff1916827bffffffffffffffffffffffffffffffffffffffffffffffffffffffff1916149050919050565b5f8073ffffffffffffffffffffffffffffffffffffffff1661258b8361207a565b73ffffffffffffffffffffffffffffffffffffffff1614159050919050565b6125b6848484846129f4565b60018111156125fa576040517f08c379a00000000000000000000000000000000000000000000000000000000081526004016125f190614902565b60405180910390fd5b5f8290505f73ffffffffffffffffffffffffffffffffffffffff168573ffffffffffffffffffffffffffffffffffffffff160361263f5761263a816129fa565b61267e565b8373ffffffffffffffffffffffffffffffffffffffff168573ffffffffffffffffffffffffffffffffffffffff161461267d5761267c8582612a3e565b5b5b5f73ffffffffffffffffffffffffffffffffffffffff168473ffffffffffffffffffffffffffffffffffffffff16036126bf576126ba81612b94565b6126fe565b8473ffffffffffffffffffffffffffffffffffffffff168473ffffffffffffffffffffffffffffffffffffffff16146126fd576126fc8482612c54565b5b5b5050505050565b50505050565b5f826127178584612ccc565b1490509392505050565b5f6127418473ffffffffffffffffffffffffffffffffffffffff166121c2565b15612896578373ffffffffffffffffffffffffffffffffffffffff1663150b7a0261276a611949565b8786866040518563ffffffff1660e01b815260040161278c9493929190614920565b6020604051808303815f875af19250505080156127c757506040513d601f19601f820116820180604052508101906127c49190613ffa565b60015b612846573d805f81146127f5576040519150601f19603f3d011682016040523d82523d5f602084013e6127fa565b606091505b505f81510361283e576040517f08c379a000000000000000000000000000000000000000000000000000000000815260040161283590614847565b60405180910390fd5b805181602001fd5b63150b7a0260e01b7bffffffffffffffffffffffffffffffffffffffffffffffffffffffff1916817bffffffffffffffffffffffffffffffffffffffffffffffffffffffff19161491505061289b565b600190505b949350505050565b5f805f90507a184f03e93ff9f4daa797ed6e38ed64bf6a1f01000000000000000083106128ff577a184f03e93ff9f4daa797ed6e38ed64bf6a1f01000000000000000083816128f5576128f4614865565b5b0492506040810190505b6d04ee2d6d415b85acef8100000000831061293c576d04ee2d6d415b85acef8100000000838161293257612931614865565b5b0492506020810190505b662386f26fc10000831061296b57662386f26fc10000838161296157612960614865565b5b0492506010810190505b6305f5e1008310612994576305f5e100838161298a57612989614865565b5b0492506008810190505b61271083106129b95761271083816129af576129ae614865565b5b0492506004810190505b606483106129dc57606483816129d2576129d1614865565b5b0492506002810190505b600a83106129eb576001810190505b80915050919050565b50505050565b60088054905060095f8381526020019081526020015f2081905550600881908060018154018082558091505060019003905f5260205f20015f909190919091505550565b5f6001612a4a846110b8565b612a54919061496a565b90505f60075f8481526020019081526020015f20549050818114612b2b575f60065f8673ffffffffffffffffffffffffffffffffffffffff1673ffffffffffffffffffffffffffffffffffffffff1681526020019081526020015f205f8481526020019081526020015f205490508060065f8773ffffffffffffffffffffffffffffffffffffffff1673ffffffffffffffffffffffffffffffffffffffff1681526020019081526020015f205f8481526020019081526020015f20819055508160075f8381526020019081526020015f2081905550505b60075f8481526020019081526020015f205f905560065f8573ffffffffffffffffffffffffffffffffffffffff1673ffffffffffffffffffffffffffffffffffffffff1681526020019081526020015f205f8381526020019081526020015f205f905550505050565b5f6001600880549050612ba7919061496a565b90505f60095f8481526020019081526020015f205490505f60088381548110612bd357612bd2613be2565b5b905f5260205f20015490508060088381548110612bf357612bf2613be2565b5b905f5260205f2001819055508160095f8381526020019081526020015f208190555060095f8581526020019081526020015f205f90556008805480612c3b57612c3a61499d565b5b600190038181905f5260205f20015f9055905550505050565b5f612c5e836110b8565b90508160065f8573ffffffffffffffffffffffffffffffffffffffff1673ffffffffffffffffffffffffffffffffffffffff1681526020019081526020015f205f8381526020019081526020015f20819055508060075f8481526020019081526020015f2081905550505050565b5f808290505f5b8451811015612d1557612d0082868381518110612cf357612cf2613be2565b5b6020026020010151612d20565b91508080612d0d906139ec565b915050612cd3565b508091505092915050565b5f818310612d3757612d328284612d4a565b612d42565b612d418383612d4a565b5b905092915050565b5f825f528160205260405f20905092915050565b5f604051905090565b5f80fd5b5f80fd5b5f7fffffffff0000000000000000000000000000000000000000000000000000000082169050919050565b612da381612d6f565b8114612dad575f80fd5b50565b5f81359050612dbe81612d9a565b92915050565b5f60208284031215612dd957612dd8612d67565b5b5f612de684828501612db0565b91505092915050565b5f8115159050919050565b612e0381612def565b82525050565b5f602082019050612e1c5f830184612dfa565b92915050565b5f81519050919050565b5f82825260208201905092915050565b5f5b83811015612e59578082015181840152602081019050612e3e565b5f8484015250505050565b5f601f19601f8301169050919050565b5f612e7e82612e22565b612e888185612e2c565b9350612e98818560208601612e3c565b612ea181612e64565b840191505092915050565b5f6020820190508181035f830152612ec48184612e74565b905092915050565b5f819050919050565b612ede81612ecc565b8114612ee8575f80fd5b50565b5f81359050612ef981612ed5565b92915050565b5f60208284031215612f1457612f13612d67565b5b5f612f2184828501612eeb565b91505092915050565b5f73ffffffffffffffffffffffffffffffffffffffff82169050919050565b5f612f5382612f2a565b9050919050565b612f6381612f49565b82525050565b5f602082019050612f7c5f830184612f5a565b92915050565b612f8b81612f49565b8114612f95575f80fd5b50565b5f81359050612fa681612f82565b92915050565b5f8060408385031215612fc257612fc1612d67565b5b5f612fcf85828601612f98565b9250506020612fe085828601612eeb565b9150509250929050565b612ff381612ecc565b82525050565b5f60208201905061300c5f830184612fea565b92915050565b5f805f6060848603121561302957613028612d67565b5b5f61303686828701612f98565b935050602061304786828701612f98565b925050604061305886828701612eeb565b9150509250925092565b5f80fd5b7f4e487b71000000000000000000000000000000000000000000000000000000005f52604160045260245ffd5b61309c82612e64565b810181811067ffffffffffffffff821117156130bb576130ba613066565b5b80604052505050565b5f6130cd612d5e565b90506130d98282613093565b919050565b5f67ffffffffffffffff8211156130f8576130f7613066565b5b602082029050602081019050919050565b5f80fd5b5f819050919050565b61311f8161310d565b8114613129575f80fd5b50565b5f8135905061313a81613116565b92915050565b5f61315261314d846130de565b6130c4565b9050808382526020820190506020840283018581111561317557613174613109565b5b835b8181101561319e578061318a888261312c565b845260208401935050602081019050613177565b5050509392505050565b5f82601f8301126131bc576131bb613062565b5b81356131cc848260208601613140565b91505092915050565b5f805f80608085870312156131ed576131ec612d67565b5b5f6131fa87828801612f98565b945050602061320b87828801612eeb565b935050604061321c87828801612eeb565b925050606085013567ffffffffffffffff81111561323d5761323c612d6b565b5b613249878288016131a8565b91505092959194509250565b61325e8161310d565b82525050565b5f6020820190506132775f830184613255565b92915050565b5f80fd5b5f67ffffffffffffffff82111561329b5761329a613066565b5b6132a482612e64565b9050602081019050919050565b828183375f83830152505050565b5f6132d16132cc84613281565b6130c4565b9050828152602081018484840111156132ed576132ec61327d565b5b6132f88482856132b1565b509392505050565b5f82601f83011261331457613313613062565b5b81356133248482602086016132bf565b91505092915050565b5f6020828403121561334257613341612d67565b5b5f82013567ffffffffffffffff81111561335f5761335e612d6b565b5b61336b84828501613300565b91505092915050565b5f6020828403121561338957613388612d67565b5b5f61339684828501612f98565b91505092915050565b5f60ff82169050919050565b6133b48161339f565b81146133be575f80fd5b50565b5f813590506133cf816133ab565b92915050565b5f805f805f8060c087890312156133ef576133ee612d67565b5b5f6133fc89828a01612f98565b965050602061340d89828a01612eeb565b955050604061341e89828a01612eeb565b945050606061342f89828a016133c1565b935050608061344089828a0161312c565b92505060a061345189828a0161312c565b9150509295509295509295565b61346781612def565b8114613471575f80fd5b50565b5f813590506134828161345e565b92915050565b5f806040838503121561349e5761349d612d67565b5b5f6134ab85828601612f98565b92505060206134bc85828601613474565b9150509250929050565b5f67ffffffffffffffff8211156134e0576134df613066565b5b6134e982612e64565b9050602081019050919050565b5f613508613503846134c6565b6130c4565b9050828152602081018484840111156135245761352361327d565b5b61352f8482856132b1565b509392505050565b5f82601f83011261354b5761354a613062565b5b813561355b8482602086016134f6565b91505092915050565b5f805f806080858703121561357c5761357b612d67565b5b5f61358987828801612f98565b945050602061359a87828801612f98565b93505060406135ab87828801612eeb565b925050606085013567ffffffffffffffff8111156135cc576135cb612d6b565b5b6135d887828801613537565b91505092959194509250565b5f602082840312156135f9576135f8612d67565b5b5f6136068482850161312c565b91505092915050565b5f806040838503121561362557613624612d67565b5b5f61363285828601612f98565b925050602061364385828601612f98565b9150509250929050565b7f4e487b71000000000000000000000000000000000000000000000000000000005f52602260045260245ffd5b5f600282049050600182168061369157607f821691505b6020821081036136a4576136a361364d565b5b50919050565b7f4552433732313a20617070726f76616c20746f2063757272656e74206f776e655f8201527f7200000000000000000000000000000000000000000000000000000000000000602082015250565b5f613704602183612e2c565b915061370f826136aa565b604082019050919050565b5f6020820190508181035f830152613731816136f8565b9050919050565b7f4552433732313a20617070726f76652063616c6c6572206973206e6f7420746f5f8201527f6b656e206f776e6572206f7220617070726f76656420666f7220616c6c000000602082015250565b5f613792603d83612e2c565b915061379d82613738565b604082019050919050565b5f6020820190508181035f8301526137bf81613786565b9050919050565b7f4552433732313a2063616c6c6572206973206e6f7420746f6b656e206f776e655f8201527f72206f7220617070726f76656400000000000000000000000000000000000000602082015250565b5f613820602d83612e2c565b915061382b826137c6565b604082019050919050565b5f6020820190508181035f83015261384d81613814565b9050919050565b7f21737461727465640000000000000000000000000000000000000000000000005f82015250565b5f613888600883612e2c565b915061389382613854565b602082019050919050565b5f6020820190508181035f8301526138b58161387c565b9050919050565b7f4e487b71000000000000000000000000000000000000000000000000000000005f52601160045260245ffd5b5f6138f382612ecc565b91506138fe83612ecc565b9250828201905080821115613916576139156138bc565b5b92915050565b7f21616c6c6f6361746564000000000000000000000000000000000000000000005f82015250565b5f613950600a83612e2c565b915061395b8261391c565b602082019050919050565b5f6020820190508181035f83015261397d81613944565b9050919050565b7f21636170000000000000000000000000000000000000000000000000000000005f82015250565b5f6139b8600483612e2c565b91506139c382613984565b602082019050919050565b5f6020820190508181035f8301526139e5816139ac565b9050919050565b5f6139f682612ecc565b91507fffffffffffffffffffffffffffffffffffffffffffffffffffffffffffffffff8203613a2857613a276138bc565b5b600182019050919050565b7f455243373231456e756d657261626c653a206f776e657220696e646578206f755f8201527f74206f6620626f756e6473000000000000000000000000000000000000000000602082015250565b5f613a8d602b83612e2c565b9150613a9882613a33565b604082019050919050565b5f6020820190508181035f830152613aba81613a81565b9050919050565b5f819050919050565b5f819050919050565b5f613aed613ae8613ae384613ac1565b613aca565b612ecc565b9050919050565b613afd81613ad3565b82525050565b5f60a082019050613b165f830188613af4565b613b236020830187613255565b613b306040830186613255565b613b3d6060830185612fea565b613b4a6080830184612f5a565b9695505050505050565b7f455243373231456e756d657261626c653a20676c6f62616c20696e646578206f5f8201527f7574206f6620626f756e64730000000000000000000000000000000000000000602082015250565b5f613bae602c83612e2c565b9150613bb982613b54565b604082019050919050565b5f6020820190508181035f830152613bdb81613ba2565b9050919050565b7f4e487b71000000000000000000000000000000000000000000000000000000005f52603260045260245ffd5b7f4552433732313a20696e76616c696420746f6b656e20494400000000000000005f82015250565b5f613c43601883612e2c565b9150613c4e82613c0f565b602082019050919050565b5f6020820190508181035f830152613c7081613c37565b9050919050565b7f4552433732313a2061646472657373207a65726f206973206e6f7420612076615f8201527f6c6964206f776e65720000000000000000000000000000000000000000000000602082015250565b5f613cd1602983612e2c565b9150613cdc82613c77565b604082019050919050565b5f6020820190508181035f830152613cfe81613cc5565b9050919050565b7f5065726d697420657870697265640000000000000000000000000000000000005f82015250565b5f613d39600e83612e2c565b9150613d4482613d05565b602082019050919050565b5f6020820190508181035f830152613d6681613d2d565b9050919050565b5f60a082019050613d805f830188613255565b613d8d6020830187612f5a565b613d9a6040830186612fea565b613da76060830185612fea565b613db46080830184612fea565b9695505050505050565b5f81905092915050565b7f19010000000000000000000000000000000000000000000000000000000000005f82015250565b5f613dfc600283613dbe565b9150613e0782613dc8565b600282019050919050565b5f819050919050565b613e2c613e278261310d565b613e12565b82525050565b5f613e3c82613df0565b9150613e488285613e1b565b602082019150613e588284613e1b565b6020820191508190509392505050565b7f4552433732315065726d69743a20617070726f76616c20746f2063757272656e5f8201527f74206f776e657200000000000000000000000000000000000000000000000000602082015250565b5f613ec2602783612e2c565b9150613ecd82613e68565b604082019050919050565b5f6020820190508181035f830152613eef81613eb6565b9050919050565b5f8160f81b9050919050565b5f613f0c82613ef6565b9050919050565b613f24613f1f8261339f565b613f02565b82525050565b5f613f358286613e1b565b602082019150613f458285613e1b565b602082019150613f558284613f13565b600182019150819050949350505050565b5f81519050919050565b5f82825260208201905092915050565b5f613f8a82613f66565b613f948185613f70565b9350613fa4818560208601612e3c565b613fad81612e64565b840191505092915050565b5f604082019050613fcb5f830185613255565b8181036020830152613fdd8184613f80565b90509392505050565b5f81519050613ff481612d9a565b92915050565b5f6020828403121561400f5761400e612d67565b5b5f61401c84828501613fe6565b91505092915050565b7f556e617574686f72697a656400000000000000000000000000000000000000005f82015250565b5f614059600c83612e2c565b915061406482614025565b602082019050919050565b5f6020820190508181035f8301526140868161404d565b9050919050565b6140968161339f565b82525050565b5f6080820190506140af5f830187613255565b6140bc602083018661408d565b6140c96040830185613255565b6140d66060830184613255565b95945050505050565b7f496e76616c6964207369676e61747572650000000000000000000000000000005f82015250565b5f614113601183612e2c565b915061411e826140df565b602082019050919050565b5f6020820190508181035f83015261414081614107565b9050919050565b5f61415182612e22565b61415b8185613dbe565b935061416b818560208601612e3c565b80840191505092915050565b5f6141828285614147565b915061418e8284614147565b91508190509392505050565b7f4f776e61626c653a206e6577206f776e657220697320746865207a65726f20615f8201527f6464726573730000000000000000000000000000000000000000000000000000602082015250565b5f6141f4602683612e2c565b91506141ff8261419a565b604082019050919050565b5f6020820190508181035f830152614221816141e8565b9050919050565b7f4552433732313a207472616e736665722066726f6d20696e636f7272656374205f8201527f6f776e6572000000000000000000000000000000000000000000000000000000602082015250565b5f614282602583612e2c565b915061428d82614228565b604082019050919050565b5f6020820190508181035f8301526142af81614276565b9050919050565b7f4552433732313a207472616e7366657220746f20746865207a65726f206164645f8201527f7265737300000000000000000000000000000000000000000000000000000000602082015250565b5f614310602483612e2c565b915061431b826142b6565b604082019050919050565b5f6020820190508181035f83015261433d81614304565b9050919050565b5f8160601b9050919050565b5f61435a82614344565b9050919050565b5f61436b82614350565b9050919050565b61438361437e82612f49565b614361565b82525050565b5f819050919050565b6143a361439e82612ecc565b614389565b82525050565b5f6143b48285614372565b6014820191506143c48284614392565b6020820191508190509392505050565b7f4552433732313a206d696e7420746f20746865207a65726f20616464726573735f82015250565b5f614408602083612e2c565b9150614413826143d4565b602082019050919050565b5f6020820190508181035f830152614435816143fc565b9050919050565b7f4552433732313a20746f6b656e20616c7265616479206d696e746564000000005f82015250565b5f614470601c83612e2c565b915061447b8261443c565b602082019050919050565b5f6020820190508181035f83015261449d81614464565b9050919050565b7f4f776e61626c653a2063616c6c6572206973206e6f7420746865206f776e65725f82015250565b5f6144d8602083612e2c565b91506144e3826144a4565b602082019050919050565b5f6020820190508181035f830152614505816144cc565b9050919050565b5f819050815f5260205f209050919050565b5f6020601f8301049050919050565b5f82821b905092915050565b5f600883026145687fffffffffffffffffffffffffffffffffffffffffffffffffffffffffffffffff8261452d565b614572868361452d565b95508019841693508086168417925050509392505050565b5f6145a461459f61459a84612ecc565b613aca565b612ecc565b9050919050565b5f819050919050565b6145bd8361458a565b6145d16145c9826145ab565b848454614539565b825550505050565b5f90565b6145e56145d9565b6145f08184846145b4565b505050565b5b81811015614613576146085f826145dd565b6001810190506145f6565b5050565b601f821115614658576146298161450c565b6146328461451e565b81016020851015614641578190505b61465561464d8561451e565b8301826145f5565b50505b505050565b5f82821c905092915050565b5f6146785f198460080261465d565b1980831691505092915050565b5f6146908383614669565b9150826002028217905092915050565b6146a982612e22565b67ffffffffffffffff8111156146c2576146c1613066565b5b6146cc825461367a565b6146d7828285614617565b5f60209050601f831160018114614708575f84156146f6578287015190505b6147008582614685565b865550614767565b601f1984166147168661450c565b5f5b8281101561473d57848901518255600182019150602085019450602081019050614718565b8683101561475a5784890151614756601f891682614669565b8355505b6001600288020188555050505b505050505050565b7f4552433732313a20617070726f766520746f2063616c6c6572000000000000005f82015250565b5f6147a3601983612e2c565b91506147ae8261476f565b602082019050919050565b5f6020820190508181035f8301526147d081614797565b9050919050565b7f4552433732313a207472616e7366657220746f206e6f6e2045524337323152655f8201527f63656976657220696d706c656d656e7465720000000000000000000000000000602082015250565b5f614831603283612e2c565b915061483c826147d7565b604082019050919050565b5f6020820190508181035f83015261485e81614825565b9050919050565b7f4e487b71000000000000000000000000000000000000000000000000000000005f52601260045260245ffd5b7f455243373231456e756d657261626c653a20636f6e73656375746976652074725f8201527f616e7366657273206e6f7420737570706f727465640000000000000000000000602082015250565b5f6148ec603583612e2c565b91506148f782614892565b604082019050919050565b5f6020820190508181035f830152614919816148e0565b9050919050565b5f6080820190506149335f830187612f5a565b6149406020830186612f5a565b61494d6040830185612fea565b818103606083015261495f8184613f80565b905095945050505050565b5f61497482612ecc565b915061497f83612ecc565b9250828203905081811115614997576149966138bc565b5b92915050565b7f4e487b71000000000000000000000000000000000000000000000000000000005f52603160045260245ffdfea264697066735822122047db165d35f5dbbddc0e627764cb9c8a40ecbfaea4786c4b68d48e1594af2dff64736f6c63430008140033697066733a2f2f62616679626569657a7062717136666176707337346572776e3335697263616532787171646d637a786a7337696d6f73646b6e3661686d75786d652f",
  "linkReferences": {},
  "deployedLinkReferences": {}
}