{
  "_format": "hh-sol-artifact-1",
  "contractName": "TRIS",
  "sourceName": "contracts/TRIS.sol",
  "abi": [
    {
      "inputs": [],
      "stateMutability": "nonpayable",
      "type": "constructor"
    },
    {
      "anonymous": false,
      "inputs": [
        {
          "indexed": true,
          "internalType": "address",
          "name": "owner",
          "type": "address"
        },
        {
          "indexed": true,
          "internalType": "address",
          "name": "approved",
          "type": "address"
        },
        {
          "indexed": true,
          "internalType": "uint256",
          "name": "tokenId",
          "type": "uint256"
        }
      ],
      "name": "Approval",
      "type": "event"
    },
    {
      "anonymous": false,
      "inputs": [
        {
          "indexed": true,
          "internalType": "address",
          "name": "owner",
          "type": "address"
        },
        {
          "indexed": true,
          "internalType": "address",
          "name": "operator",
          "type": "address"
        },
        {
          "indexed": false,
          "internalType": "bool",
          "name": "approved",
          "type": "bool"
        }
      ],
      "name": "ApprovalForAll",
      "type": "event"
    },
    {
      "anonymous": false,
      "inputs": [
        {
          "indexed": true,
          "internalType": "address",
          "name": "previousOwner",
          "type": "address"
        },
        {
          "indexed": true,
          "internalType": "address",
          "name": "newOwner",
          "type": "address"
        }
      ],
      "name": "OwnershipTransferred",
      "type": "event"
    },
    {
      "anonymous": false,
      "inputs": [
        {
          "indexed": true,
          "internalType": "address",
          "name": "from",
          "type": "address"
        },
        {
          "indexed": true,
          "internalType": "address",
          "name": "to",
          "type": "address"
        },
        {
          "indexed": true,
          "internalType": "uint256",
          "name": "tokenId",
          "type": "uint256"
        }
      ],
      "name": "Transfer",
      "type": "event"
    },
    {
      "inputs": [],
      "name": "DOMAIN_SEPARATOR",
      "outputs": [
        {
          "internalType": "bytes32",
          "name": "",
          "type": "bytes32"
        }
      ],
      "stateMutability": "view",
      "type": "function"
    },
    {
      "inputs": [],
      "name": "PERMIT_TYPEHASH",
      "outputs": [
        {
          "internalType": "bytes32",
          "name": "",
          "type": "bytes32"
        }
      ],
      "stateMutability": "view",
      "type": "function"
    },
    {
      "inputs": [
        {
          "internalType": "address",
          "name": "to",
          "type": "address"
        },
        {
          "internalType": "uint256",
          "name": "tokenId",
          "type": "uint256"
        }
      ],
      "name": "approve",
      "outputs": [],
      "stateMutability": "nonpayable",
      "type": "function"
    },
    {
      "inputs": [
        {
          "internalType": "address",
          "name": "owner",
          "type": "address"
        }
      ],
      "name": "balanceOf",
      "outputs": [
        {
          "internalType": "uint256",
          "name": "",
          "type": "uint256"
        }
      ],
      "stateMutability": "view",
      "type": "function"
    },
    {
      "inputs": [],
      "name": "baseURI",
      "outputs": [
        {
          "internalType": "string",
          "name": "",
          "type": "string"
        }
      ],
      "stateMutability": "view",
      "type": "function"
    },
    {
      "inputs": [
        {
          "internalType": "uint256",
          "name": "tokenId",
          "type": "uint256"
        }
      ],
      "name": "getApproved",
      "outputs": [
        {
          "internalType": "address",
          "name": "",
          "type": "address"
        }
      ],
      "stateMutability": "view",
      "type": "function"
    },
    {
      "inputs": [
        {
          "internalType": "address",
          "name": "owner",
          "type": "address"
        },
        {
          "internalType": "address",
          "name": "operator",
          "type": "address"
        }
      ],
      "name": "isApprovedForAll",
      "outputs": [
        {
          "internalType": "bool",
          "name": "",
          "type": "bool"
        }
      ],
      "stateMutability": "view",
      "type": "function"
    },
    {
      "inputs": [],
      "name": "isWhitelistActive",
      "outputs": [
        {
          "internalType": "bool",
          "name": "",
          "type": "bool"
        }
      ],
      "stateMutability": "view",
      "type": "function"
    },
    {
      "inputs": [
        {
          "internalType": "address",
          "name": "_to",
          "type": "address"
        },
        {
          "internalType": "uint256",
          "name": "_tokenId",
          "type": "uint256"
        }
      ],
      "name": "mint",
      "outputs": [],
      "stateMutability": "nonpayable",
      "type": "function"
    },
    {
      "inputs": [],
      "name": "name",
      "outputs": [
        {
          "internalType": "string",
          "name": "",
          "type": "string"
        }
      ],
      "stateMutability": "view",
      "type": "function"
    },
    {
      "inputs": [
        {
          "internalType": "uint256",
          "name": "",
          "type": "uint256"
        }
      ],
      "name": "nonces",
      "outputs": [
        {
          "internalType": "uint256",
          "name": "",
          "type": "uint256"
        }
      ],
      "stateMutability": "view",
      "type": "function"
    },
    {
      "inputs": [],
      "name": "owner",
      "outputs": [
        {
          "internalType": "address",
          "name": "",
          "type": "address"
        }
      ],
      "stateMutability": "view",
      "type": "function"
    },
    {
      "inputs": [
        {
          "internalType": "uint256",
          "name": "tokenId",
          "type": "uint256"
        }
      ],
      "name": "ownerOf",
      "outputs": [
        {
          "internalType": "address",
          "name": "",
          "type": "address"
        }
      ],
      "stateMutability": "view",
      "type": "function"
    },
    {
      "inputs": [
        {
          "internalType": "address",
          "name": "spender",
          "type": "address"
        },
        {
          "internalType": "uint256",
          "name": "tokenId",
          "type": "uint256"
        },
        {
          "internalType": "uint256",
          "name": "deadline",
          "type": "uint256"
        },
        {
          "internalType": "uint8",
          "name": "v",
          "type": "uint8"
        },
        {
          "internalType": "bytes32",
          "name": "r",
          "type": "bytes32"
        },
        {
          "internalType": "bytes32",
          "name": "s",
          "type": "bytes32"
        }
      ],
      "name": "permit",
      "outputs": [],
      "stateMutability": "payable",
      "type": "function"
    },
    {
      "inputs": [],
      "name": "renounceOwnership",
      "outputs": [],
      "stateMutability": "nonpayable",
      "type": "function"
    },
    {
      "inputs": [
        {
          "internalType": "address",
          "name": "from",
          "type": "address"
        },
        {
          "internalType": "address",
          "name": "to",
          "type": "address"
        },
        {
          "internalType": "uint256",
          "name": "tokenId",
          "type": "uint256"
        }
      ],
      "name": "safeTransferFrom",
      "outputs": [],
      "stateMutability": "nonpayable",
      "type": "function"
    },
    {
      "inputs": [
        {
          "internalType": "address",
          "name": "from",
          "type": "address"
        },
        {
          "internalType": "address",
          "name": "to",
          "type": "address"
        },
        {
          "internalType": "uint256",
          "name": "tokenId",
          "type": "uint256"
        },
        {
          "internalType": "bytes",
          "name": "_data",
          "type": "bytes"
        }
      ],
      "name": "safeTransferFrom",
      "outputs": [],
      "stateMutability": "nonpayable",
      "type": "function"
    },
    {
      "inputs": [
        {
          "internalType": "address",
          "name": "operator",
          "type": "address"
        },
        {
          "internalType": "bool",
          "name": "approved",
          "type": "bool"
        }
      ],
      "name": "setApprovalForAll",
      "outputs": [],
      "stateMutability": "nonpayable",
      "type": "function"
    },
    {
      "inputs": [
        {
          "internalType": "string",
          "name": "_baseUri",
          "type": "string"
        }
      ],
      "name": "setBaseURI",
      "outputs": [],
      "stateMutability": "nonpayable",
      "type": "function"
    },
    {
      "inputs": [
        {
          "internalType": "bytes32",
          "name": "value",
          "type": "bytes32"
        }
      ],
      "name": "setWhitelistMerkleRoot",
      "outputs": [],
      "stateMutability": "nonpayable",
      "type": "function"
    },
    {
      "inputs": [],
      "name": "startWhitelistMint",
      "outputs": [],
      "stateMutability": "nonpayable",
      "type": "function"
    },
    {
      "inputs": [
        {
          "internalType": "bytes4",
          "name": "interfaceId",
          "type": "bytes4"
        }
      ],
      "name": "supportsInterface",
      "outputs": [
        {
          "internalType": "bool",
          "name": "",
          "type": "bool"
        }
      ],
      "stateMutability": "view",
      "type": "function"
    },
    {
      "inputs": [],
      "name": "symbol",
      "outputs": [
        {
          "internalType": "string",
          "name": "",
          "type": "string"
        }
      ],
      "stateMutability": "view",
      "type": "function"
    },
    {
      "inputs": [
        {
          "internalType": "uint256",
          "name": "index",
          "type": "uint256"
        }
      ],
      "name": "tokenByIndex",
      "outputs": [
        {
          "internalType": "uint256",
          "name": "",
          "type": "uint256"
        }
      ],
      "stateMutability": "view",
      "type": "function"
    },
    {
      "inputs": [
        {
          "internalType": "address",
          "name": "owner",
          "type": "address"
        },
        {
          "internalType": "uint256",
          "name": "index",
          "type": "uint256"
        }
      ],
      "name": "tokenOfOwnerByIndex",
      "outputs": [
        {
          "internalType": "uint256",
          "name": "",
          "type": "uint256"
        }
      ],
      "stateMutability": "view",
      "type": "function"
    },
    {
      "inputs": [
        {
          "internalType": "uint256",
          "name": "tokenId",
          "type": "uint256"
        }
      ],
      "name": "tokenURI",
      "outputs": [
        {
          "internalType": "string",
          "name": "",
          "type": "string"
        }
      ],
      "stateMutability": "view",
      "type": "function"
    },
    {
      "inputs": [],
      "name": "totalSupply",
      "outputs": [
        {
          "internalType": "uint256",
          "name": "",
          "type": "uint256"
        }
      ],
      "stateMutability": "view",
      "type": "function"
    },
    {
      "inputs": [
        {
          "internalType": "address",
          "name": "from",
          "type": "address"
        },
        {
          "internalType": "address",
          "name": "to",
          "type": "address"
        },
        {
          "internalType": "uint256",
          "name": "tokenId",
          "type": "uint256"
        }
      ],
      "name": "transferFrom",
      "outputs": [],
      "stateMutability": "nonpayable",
      "type": "function"
    },
    {
      "inputs": [
        {
          "internalType": "address",
          "name": "newOwner",
          "type": "address"
        }
      ],
      "name": "transferOwnership",
      "outputs": [],
      "stateMutability": "nonpayable",
      "type": "function"
    },
    {
      "inputs": [],
      "name": "version",
      "outputs": [
        {
          "internalType": "string",
          "name": "",
          "type": "string"
        }
      ],
      "stateMutability": "pure",
      "type": "function"
    },
    {
      "inputs": [],
      "name": "whitelistMerkleRoot",
      "outputs": [
        {
          "internalType": "bytes32",
          "name": "",
          "type": "bytes32"
        }
      ],
      "stateMutability": "view",
      "type": "function"
    },
    {
      "inputs": [
        {
          "internalType": "uint256",
          "name": "_index",
          "type": "uint256"
        },
        {
          "internalType": "address",
          "name": "_to",
          "type": "address"
        },
        {
          "internalType": "uint256",
          "name": "_tokenId",
          "type": "uint256"
        },
        {
          "internalType": "bytes32[]",
          "name": "proof",
          "type": "bytes32[]"
        }
      ],
      "name": "whitelistMint",
      "outputs": [],
      "stateMutability": "payable",
      "type": "function"
    }
  ],
  "bytecode": "0x60c06040523480156200001157600080fd5b506040518060400160405280600481526020017f54524953000000000000000000000000000000000000000000000000000000008152506040518060400160405280600481526020017f54524953000000000000000000000000000000000000000000000000000000008152506040518060400160405280600181526020017f31000000000000000000000000000000000000000000000000000000000000008152508282620000ce6301ffc9a760e01b6200024c60201b60201c565b8160069080519060200190620000e692919062000379565b508060079080519060200190620000ff92919062000379565b50620001186380ac58cd60e01b6200024c60201b60201c565b62000130635b5e139f60e01b6200024c60201b60201c565b6200014863780e9d6360e01b6200024c60201b60201c565b5050828051906020012060808181525050808051906020012060a0818152505050505060006200017d6200035560201b60201c565b905080600a60006101000a81548173ffffffffffffffffffffffffffffffffffffffff021916908373ffffffffffffffffffffffffffffffffffffffff1602179055508073ffffffffffffffffffffffffffffffffffffffff16600073ffffffffffffffffffffffffffffffffffffffff167f8be0079c531659141344cd1fd0a4f28419497f9722a3daafe3b4186f6b6457e060405160405180910390a3506200024660405180608001604052806043815260200162004482604391396200035d60201b60201c565b6200042f565b63ffffffff60e01b817bffffffffffffffffffffffffffffffffffffffffffffffffffffffff19161415620002e9576040517f08c379a000000000000000000000000000000000000000000000000000000000815260040180806020018281038252601c8152602001807f4552433136353a20696e76616c696420696e746572666163652069640000000081525060200191505060405180910390fd5b6001600080837bffffffffffffffffffffffffffffffffffffffffffffffffffffffff19167bffffffffffffffffffffffffffffffffffffffffffffffffffffffff1916815260200190815260200160002060006101000a81548160ff02191690831515021790555050565b600033905090565b80600990805190602001906200037592919062000379565b5050565b828054600181600116156101000203166002900490600052602060002090601f016020900481019282620003b15760008555620003fd565b82601f10620003cc57805160ff1916838001178555620003fd565b82800160010185558215620003fd579182015b82811115620003fc578251825591602001919060010190620003df565b5b5090506200040c919062000410565b5090565b5b808211156200042b57600081600090555060010162000411565b5090565b60805160a05161402f620004536000398061137a525080611359525061402f6000f3fe6080604052600436106101e35760003560e01c80636352211e11610102578063aa98e0c611610095578063bf477c1611610064578063bf477c1614610cb3578063c87b56dd14610d9f578063e985e9c514610e53578063f2fde38b14610eda576101e3565b8063aa98e0c614610b24578063b70196d714610b4f578063b88d4fde14610b66578063bd32fb6614610c78576101e3565b80637ac2ff7b116100d15780637ac2ff7b1461097d5780638da5cb5b146109f657806395d89b4114610a37578063a22cb46514610ac7576101e3565b80636352211e1461080c5780636c0360eb1461087157806370a0823114610901578063715018a614610966576101e3565b806330adf81f1161017a5780634f6ccce7116101495780634f6ccce714610638578063524513d61461068757806354fd4d50146106b457806355f804b314610744576101e3565b806330adf81f1461050c5780633644e5151461053757806340c10f191461056257806342842e0e146105bd576101e3565b8063141a468c116101b6578063141a468c146103a857806318160ddd146103f757806323b872dd146104225780632f745c591461049d576101e3565b806301ffc9a7146101e857806306fdde0314610258578063081812fc146102e8578063095ea7b31461034d575b600080fd5b3480156101f457600080fd5b506102406004803603602081101561020b57600080fd5b8101908080357bffffffffffffffffffffffffffffffffffffffffffffffffffffffff19169060200190929190505050610f2b565b60405180821515815260200191505060405180910390f35b34801561026457600080fd5b5061026d610f92565b6040518080602001828103825283818151815260200191508051906020019080838360005b838110156102ad578082015181840152602081019050610292565b50505050905090810190601f1680156102da5780820380516001836020036101000a031916815260200191505b509250505060405180910390f35b3480156102f457600080fd5b506103216004803603602081101561030b57600080fd5b8101908080359060200190929190505050611034565b604051808273ffffffffffffffffffffffffffffffffffffffff16815260200191505060405180910390f35b34801561035957600080fd5b506103a66004803603604081101561037057600080fd5b81019080803573ffffffffffffffffffffffffffffffffffffffff169060200190929190803590602001909291905050506110cf565b005b3480156103b457600080fd5b506103e1600480360360208110156103cb57600080fd5b8101908080359060200190929190505050611213565b6040518082815260200191505060405180910390f35b34801561040357600080fd5b5061040c61122b565b6040518082815260200191505060405180910390f35b34801561042e57600080fd5b5061049b6004803603606081101561044557600080fd5b81019080803573ffffffffffffffffffffffffffffffffffffffff169060200190929190803573ffffffffffffffffffffffffffffffffffffffff1690602001909291908035906020019092919050505061123c565b005b3480156104a957600080fd5b506104f6600480360360408110156104c057600080fd5b81019080803573ffffffffffffffffffffffffffffffffffffffff169060200190929190803590602001909291905050506112b2565b6040518082815260200191505060405180910390f35b34801561051857600080fd5b5061052161130d565b6040518082815260200191505060405180910390f35b34801561054357600080fd5b5061054c611334565b6040518082815260200191505060405180910390f35b34801561056e57600080fd5b506105bb6004803603604081101561058557600080fd5b81019080803573ffffffffffffffffffffffffffffffffffffffff169060200190929190803590602001909291905050506113ff565b005b3480156105c957600080fd5b50610636600480360360608110156105e057600080fd5b81019080803573ffffffffffffffffffffffffffffffffffffffff169060200190929190803573ffffffffffffffffffffffffffffffffffffffff169060200190929190803590602001909291905050506114bc565b005b34801561064457600080fd5b506106716004803603602081101561065b57600080fd5b81019080803590602001909291905050506114dc565b6040518082815260200191505060405180910390f35b34801561069357600080fd5b5061069c6114ff565b60405180821515815260200191505060405180910390f35b3480156106c057600080fd5b506106c9611516565b6040518080602001828103825283818151815260200191508051906020019080838360005b838110156107095780820151818401526020810190506106ee565b50505050905090810190601f1680156107365780820380516001836020036101000a031916815260200191505b509250505060405180910390f35b34801561075057600080fd5b5061080a6004803603602081101561076757600080fd5b810190808035906020019064010000000081111561078457600080fd5b82018360208201111561079657600080fd5b803590602001918460018302840111640100000000831117156107b857600080fd5b91908080601f016020809104026020016040519081016040528093929190818152602001838380828437600081840152601f19601f820116905080830192505050505050509192919290505050611553565b005b34801561081857600080fd5b506108456004803603602081101561082f57600080fd5b810190808035906020019092919050505061160e565b604051808273ffffffffffffffffffffffffffffffffffffffff16815260200191505060405180910390f35b34801561087d57600080fd5b50610886611645565b6040518080602001828103825283818151815260200191508051906020019080838360005b838110156108c65780820151818401526020810190506108ab565b50505050905090810190601f1680156108f35780820380516001836020036101000a031916815260200191505b509250505060405180910390f35b34801561090d57600080fd5b506109506004803603602081101561092457600080fd5b81019080803573ffffffffffffffffffffffffffffffffffffffff1690602001909291905050506116e7565b6040518082815260200191505060405180910390f35b34801561097257600080fd5b5061097b6117bc565b005b6109f4600480360360c081101561099357600080fd5b81019080803573ffffffffffffffffffffffffffffffffffffffff1690602001909291908035906020019092919080359060200190929190803560ff169060200190929190803590602001909291908035906020019092919050505061192c565b005b348015610a0257600080fd5b50610a0b611ec1565b604051808273ffffffffffffffffffffffffffffffffffffffff16815260200191505060405180910390f35b348015610a4357600080fd5b50610a4c611eeb565b6040518080602001828103825283818151815260200191508051906020019080838360005b83811015610a8c578082015181840152602081019050610a71565b50505050905090810190601f168015610ab95780820380516001836020036101000a031916815260200191505b509250505060405180910390f35b348015610ad357600080fd5b50610b2260048036036040811015610aea57600080fd5b81019080803573ffffffffffffffffffffffffffffffffffffffff169060200190929190803515159060200190929190505050611f8d565b005b348015610b3057600080fd5b50610b39612143565b6040518082815260200191505060405180910390f35b348015610b5b57600080fd5b50610b64612149565b005b348015610b7257600080fd5b50610c7660048036036080811015610b8957600080fd5b81019080803573ffffffffffffffffffffffffffffffffffffffff169060200190929190803573ffffffffffffffffffffffffffffffffffffffff1690602001909291908035906020019092919080359060200190640100000000811115610bf057600080fd5b820183602082011115610c0257600080fd5b80359060200191846001830284011164010000000083111715610c2457600080fd5b91908080601f016020809104026020016040519081016040528093929190818152602001838380828437600081840152601f19601f820116905080830192505050505050509192919290505050612215565b005b348015610c8457600080fd5b50610cb160048036036020811015610c9b57600080fd5b810190808035906020019092919050505061228d565b005b610d9d60048036036080811015610cc957600080fd5b8101908080359060200190929190803573ffffffffffffffffffffffffffffffffffffffff1690602001909291908035906020019092919080359060200190640100000000811115610d1a57600080fd5b820183602082011115610d2c57600080fd5b80359060200191846020830284011164010000000083111715610d4e57600080fd5b919080806020026020016040519081016040528093929190818152602001838360200280828437600081840152601f19601f820116905080830192505050505050509192919290505050612346565b005b348015610dab57600080fd5b50610dd860048036036020811015610dc257600080fd5b8101908080359060200190929190505050612385565b6040518080602001828103825283818151815260200191508051906020019080838360005b83811015610e18578082015181840152602081019050610dfd565b50505050905090810190601f168015610e455780820380516001836020036101000a031916815260200191505b509250505060405180910390f35b348015610e5f57600080fd5b50610ec260048036036040811015610e7657600080fd5b81019080803573ffffffffffffffffffffffffffffffffffffffff169060200190929190803573ffffffffffffffffffffffffffffffffffffffff169060200190929190505050612656565b60405180821515815260200191505060405180910390f35b348015610ee657600080fd5b50610f2960048036036020811015610efd57600080fd5b81019080803573ffffffffffffffffffffffffffffffffffffffff1690602001909291905050506126ea565b005b6000806000837bffffffffffffffffffffffffffffffffffffffffffffffffffffffff19167bffffffffffffffffffffffffffffffffffffffffffffffffffffffff1916815260200190815260200160002060009054906101000a900460ff169050919050565b606060068054600181600116156101000203166002900480601f01602080910402602001604051908101604052809291908181526020018280546001816001161561010002031660029004801561102a5780601f10610fff5761010080835404028352916020019161102a565b820191906000526020600020905b81548152906001019060200180831161100d57829003601f168201915b5050505050905090565b600061103f826128df565b611094576040517f08c379a000000000000000000000000000000000000000000000000000000000815260040180806020018281038252602c815260200180613f24602c913960400191505060405180910390fd5b6004600083815260200190815260200160002060009054906101000a900473ffffffffffffffffffffffffffffffffffffffff169050919050565b60006110da8261160e565b90508073ffffffffffffffffffffffffffffffffffffffff168373ffffffffffffffffffffffffffffffffffffffff161415611161576040517f08c379a0000000000000000000000000000000000000000000000000000000008152600401808060200182810382526021815260200180613fa86021913960400191505060405180910390fd5b8073ffffffffffffffffffffffffffffffffffffffff166111806128fc565b73ffffffffffffffffffffffffffffffffffffffff1614806111af57506111ae816111a96128fc565b612656565b5b611204576040517f08c379a0000000000000000000000000000000000000000000000000000000008152600401808060200182810382526038815260200180613e776038913960400191505060405180910390fd5b61120e8383612904565b505050565b600c6020528060005260406000206000915090505481565b600061123760026129bd565b905090565b61124d6112476128fc565b826129d2565b6112a2576040517f08c379a0000000000000000000000000000000000000000000000000000000008152600401808060200182810382526031815260200180613fc96031913960400191505060405180910390fd5b6112ad838383612ac6565b505050565b600061130582600160008673ffffffffffffffffffffffffffffffffffffffff1673ffffffffffffffffffffffffffffffffffffffff168152602001908152602001600020612d0990919063ffffffff16565b905092915050565b7f49ecf333e5b8c95c40fdafc95c1ad136e8914a8fb55e9dc8bb01eaa83a2df9ad60001b81565b60007f8b73c3c69bb8fe3d512ecc4cf759cc79239f7b179b0ffacaa9a75d522b39400f7f00000000000000000000000000000000000000000000000000000000000000007f00000000000000000000000000000000000000000000000000000000000000006113a1612d23565b30604051602001808681526020018581526020018481526020018381526020018273ffffffffffffffffffffffffffffffffffffffff1681526020019550505050505060405160208183030381529060405280519060200120905090565b6114076128fc565b73ffffffffffffffffffffffffffffffffffffffff16611425611ec1565b73ffffffffffffffffffffffffffffffffffffffff16146114ae576040517f08c379a00000000000000000000000000000000000000000000000000000000081526004018080602001828103825260208152602001807f4f776e61626c653a2063616c6c6572206973206e6f7420746865206f776e657281525060200191505060405180910390fd5b6114b88282612d2b565b5050565b6114d783838360405180602001604052806000815250612215565b505050565b6000806114f3836002612f1f90919063ffffffff16565b50905080915050919050565b6000600a60149054906101000a900460ff16905090565b60606040518060400160405280600181526020017f3100000000000000000000000000000000000000000000000000000000000000815250905090565b61155b6128fc565b73ffffffffffffffffffffffffffffffffffffffff16611579611ec1565b73ffffffffffffffffffffffffffffffffffffffff1614611602576040517f08c379a00000000000000000000000000000000000000000000000000000000081526004018080602001828103825260208152602001807f4f776e61626c653a2063616c6c6572206973206e6f7420746865206f776e657281525060200191505060405180910390fd5b61160b81612f4b565b50565b600061163e82604051806060016040528060298152602001613ed9602991396002612f659092919063ffffffff16565b9050919050565b606060098054600181600116156101000203166002900480601f0160208091040260200160405190810160405280929190818152602001828054600181600116156101000203166002900480156116dd5780601f106116b2576101008083540402835291602001916116dd565b820191906000526020600020905b8154815290600101906020018083116116c057829003601f168201915b5050505050905090565b60008073ffffffffffffffffffffffffffffffffffffffff168273ffffffffffffffffffffffffffffffffffffffff16141561176e576040517f08c379a000000000000000000000000000000000000000000000000000000000815260040180806020018281038252602a815260200180613eaf602a913960400191505060405180910390fd5b6117b5600160008473ffffffffffffffffffffffffffffffffffffffff1673ffffffffffffffffffffffffffffffffffffffff168152602001908152602001600020612f84565b9050919050565b6117c46128fc565b73ffffffffffffffffffffffffffffffffffffffff166117e2611ec1565b73ffffffffffffffffffffffffffffffffffffffff161461186b576040517f08c379a00000000000000000000000000000000000000000000000000000000081526004018080602001828103825260208152602001807f4f776e61626c653a2063616c6c6572206973206e6f7420746865206f776e657281525060200191505060405180910390fd5b600073ffffffffffffffffffffffffffffffffffffffff16600a60009054906101000a900473ffffffffffffffffffffffffffffffffffffffff1673ffffffffffffffffffffffffffffffffffffffff167f8be0079c531659141344cd1fd0a4f28419497f9722a3daafe3b4186f6b6457e060405160405180910390a36000600a60006101000a81548173ffffffffffffffffffffffffffffffffffffffff021916908373ffffffffffffffffffffffffffffffffffffffff160217905550565b83611935612f99565b11156119a9576040517f08c379a000000000000000000000000000000000000000000000000000000000815260040180806020018281038252600e8152602001807f5065726d6974206578706972656400000000000000000000000000000000000081525060200191505060405180910390fd5b60006119b3611334565b7f49ecf333e5b8c95c40fdafc95c1ad136e8914a8fb55e9dc8bb01eaa83a2df9ad60001b88886119e28a612fa1565b89604051602001808681526020018573ffffffffffffffffffffffffffffffffffffffff168152602001848152602001838152602001828152602001955050505050506040516020818303038152906040528051906020012060405160200180807f1901000000000000000000000000000000000000000000000000000000000000815250600201838152602001828152602001925050506040516020818303038152906040528051906020012090506000611a9d8761160e565b90508073ffffffffffffffffffffffffffffffffffffffff168873ffffffffffffffffffffffffffffffffffffffff161415611b24576040517f08c379a0000000000000000000000000000000000000000000000000000000008152600401808060200182810382526027815260200180613dda6027913960400191505060405180910390fd5b611b2d81612fe6565b15611cff57631626ba7e60e01b8173ffffffffffffffffffffffffffffffffffffffff16631626ba7e8487878a604051602001808481526020018381526020018260ff1660f81b815260010193505050506040516020818303038152906040526040518363ffffffff1660e01b81526004018083815260200180602001828103825283818151815260200191508051906020019080838360005b83811015611be2578082015181840152602081019050611bc7565b50505050905090810190601f168015611c0f5780820380516001836020036101000a031916815260200191505b50935050505060206040518083038186803b158015611c2d57600080fd5b505afa158015611c41573d6000803e3d6000fd5b505050506040513d6020811015611c5757600080fd5b81019080805190602001909291905050507bffffffffffffffffffffffffffffffffffffffffffffffffffffffff191614611cfa576040517f08c379a000000000000000000000000000000000000000000000000000000000815260040180806020018281038252600c8152602001807f556e617574686f72697a6564000000000000000000000000000000000000000081525060200191505060405180910390fd5b611ead565b600060018387878760405160008152602001604052604051808581526020018460ff1681526020018381526020018281526020019450505050506020604051602081039080840390855afa158015611d5b573d6000803e3d6000fd5b505050602060405103519050600073ffffffffffffffffffffffffffffffffffffffff168173ffffffffffffffffffffffffffffffffffffffff161415611e0a576040517f08c379a00000000000000000000000000000000000000000000000000000000081526004018080602001828103825260118152602001807f496e76616c6964207369676e617475726500000000000000000000000000000081525060200191505060405180910390fd5b8173ffffffffffffffffffffffffffffffffffffffff168173ffffffffffffffffffffffffffffffffffffffff1614611eab576040517f08c379a000000000000000000000000000000000000000000000000000000000815260040180806020018281038252600c8152602001807f556e617574686f72697a6564000000000000000000000000000000000000000081525060200191505060405180910390fd5b505b611eb78888612904565b5050505050505050565b6000600a60009054906101000a900473ffffffffffffffffffffffffffffffffffffffff16905090565b606060078054600181600116156101000203166002900480601f016020809104026020016040519081016040528092919081815260200182805460018160011615610100020316600290048015611f835780601f10611f5857610100808354040283529160200191611f83565b820191906000526020600020905b815481529060010190602001808311611f6657829003601f168201915b5050505050905090565b611f956128fc565b73ffffffffffffffffffffffffffffffffffffffff168273ffffffffffffffffffffffffffffffffffffffff161415612036576040517f08c379a00000000000000000000000000000000000000000000000000000000081526004018080602001828103825260198152602001807f4552433732313a20617070726f766520746f2063616c6c65720000000000000081525060200191505060405180910390fd5b80600560006120436128fc565b73ffffffffffffffffffffffffffffffffffffffff1673ffffffffffffffffffffffffffffffffffffffff16815260200190815260200160002060008473ffffffffffffffffffffffffffffffffffffffff1673ffffffffffffffffffffffffffffffffffffffff16815260200190815260200160002060006101000a81548160ff0219169083151502179055508173ffffffffffffffffffffffffffffffffffffffff166120f06128fc565b73ffffffffffffffffffffffffffffffffffffffff167f17307eab39ab6107e8899845ad3d59bd9653f200f220920489ca2b5937696c318360405180821515815260200191505060405180910390a35050565b600b5481565b6121516128fc565b73ffffffffffffffffffffffffffffffffffffffff1661216f611ec1565b73ffffffffffffffffffffffffffffffffffffffff16146121f8576040517f08c379a00000000000000000000000000000000000000000000000000000000081526004018080602001828103825260208152602001807f4f776e61626c653a2063616c6c6572206973206e6f7420746865206f776e657281525060200191505060405180910390fd5b6001600a60146101000a81548160ff021916908315150217905550565b6122266122206128fc565b836129d2565b61227b576040517f08c379a0000000000000000000000000000000000000000000000000000000008152600401808060200182810382526031815260200180613fc96031913960400191505060405180910390fd5b61228784848484612ff9565b50505050565b6122956128fc565b73ffffffffffffffffffffffffffffffffffffffff166122b3611ec1565b73ffffffffffffffffffffffffffffffffffffffff161461233c576040517f08c379a00000000000000000000000000000000000000000000000000000000081526004018080602001828103825260208152602001807f4f776e61626c653a2063616c6c6572206973206e6f7420746865206f776e657281525060200191505060405180910390fd5b80600b8190555050565b600a60149054906101000a900460ff161561236057600080fd5b61236c8185858561306b565b61237557600080fd5b61237f8383612d2b565b50505050565b6060612390826128df565b6123e5576040517f08c379a000000000000000000000000000000000000000000000000000000000815260040180806020018281038252602f815260200180613f79602f913960400191505060405180910390fd5b6000600860008481526020019081526020016000208054600181600116156101000203166002900480601f01602080910402602001604051908101604052809291908181526020018280546001816001161561010002031660029004801561248e5780601f106124635761010080835404028352916020019161248e565b820191906000526020600020905b81548152906001019060200180831161247157829003601f168201915b50505050509050600061249f611645565b90506000815114156124b5578192505050612651565b6000825111156125865780826040516020018083805190602001908083835b602083106124f757805182526020820191506020810190506020830392506124d4565b6001836020036101000a03801982511681845116808217855250505050505090500182805190602001908083835b602083106125485780518252602082019150602081019050602083039250612525565b6001836020036101000a0380198251168184511680821785525050505050509050019250505060405160208183030381529060405292505050612651565b80612590856130dd565b6040516020018083805190602001908083835b602083106125c657805182526020820191506020810190506020830392506125a3565b6001836020036101000a03801982511681845116808217855250505050505090500182805190602001908083835b6020831061261757805182526020820191506020810190506020830392506125f4565b6001836020036101000a03801982511681845116808217855250505050505090500192505050604051602081830303815290604052925050505b919050565b6000600560008473ffffffffffffffffffffffffffffffffffffffff1673ffffffffffffffffffffffffffffffffffffffff16815260200190815260200160002060008373ffffffffffffffffffffffffffffffffffffffff1673ffffffffffffffffffffffffffffffffffffffff16815260200190815260200160002060009054906101000a900460ff16905092915050565b6126f26128fc565b73ffffffffffffffffffffffffffffffffffffffff16612710611ec1565b73ffffffffffffffffffffffffffffffffffffffff1614612799576040517f08c379a00000000000000000000000000000000000000000000000000000000081526004018080602001828103825260208152602001807f4f776e61626c653a2063616c6c6572206973206e6f7420746865206f776e657281525060200191505060405180910390fd5b600073ffffffffffffffffffffffffffffffffffffffff168173ffffffffffffffffffffffffffffffffffffffff16141561281f576040517f08c379a0000000000000000000000000000000000000000000000000000000008152600401808060200182810382526026815260200180613db46026913960400191505060405180910390fd5b8073ffffffffffffffffffffffffffffffffffffffff16600a60009054906101000a900473ffffffffffffffffffffffffffffffffffffffff1673ffffffffffffffffffffffffffffffffffffffff167f8be0079c531659141344cd1fd0a4f28419497f9722a3daafe3b4186f6b6457e060405160405180910390a380600a60006101000a81548173ffffffffffffffffffffffffffffffffffffffff021916908373ffffffffffffffffffffffffffffffffffffffff16021790555050565b60006128f582600261322490919063ffffffff16565b9050919050565b600033905090565b816004600083815260200190815260200160002060006101000a81548173ffffffffffffffffffffffffffffffffffffffff021916908373ffffffffffffffffffffffffffffffffffffffff160217905550808273ffffffffffffffffffffffffffffffffffffffff166129778361160e565b73ffffffffffffffffffffffffffffffffffffffff167f8c5be1e5ebec7d5bd14f71427d1e84f3dd0314c0f7b2291e5b200ac8c7c3b92560405160405180910390a45050565b60006129cb8260000161323e565b9050919050565b60006129dd826128df565b612a32576040517f08c379a000000000000000000000000000000000000000000000000000000000815260040180806020018281038252602c815260200180613e4b602c913960400191505060405180910390fd5b6000612a3d8361160e565b90508073ffffffffffffffffffffffffffffffffffffffff168473ffffffffffffffffffffffffffffffffffffffff161480612aac57508373ffffffffffffffffffffffffffffffffffffffff16612a9484611034565b73ffffffffffffffffffffffffffffffffffffffff16145b80612abd5750612abc8185612656565b5b91505092915050565b8273ffffffffffffffffffffffffffffffffffffffff16612ae68261160e565b73ffffffffffffffffffffffffffffffffffffffff1614612b52576040517f08c379a0000000000000000000000000000000000000000000000000000000008152600401808060200182810382526029815260200180613f506029913960400191505060405180910390fd5b600073ffffffffffffffffffffffffffffffffffffffff168273ffffffffffffffffffffffffffffffffffffffff161415612bd8576040517f08c379a0000000000000000000000000000000000000000000000000000000008152600401808060200182810382526024815260200180613e016024913960400191505060405180910390fd5b612be383838361324f565b612bee600082612904565b612c3f81600160008673ffffffffffffffffffffffffffffffffffffffff1673ffffffffffffffffffffffffffffffffffffffff16815260200190815260200160002061325490919063ffffffff16565b50612c9181600160008573ffffffffffffffffffffffffffffffffffffffff1673ffffffffffffffffffffffffffffffffffffffff16815260200190815260200160002061326e90919063ffffffff16565b50612ca8818360026132889092919063ffffffff16565b50808273ffffffffffffffffffffffffffffffffffffffff168473ffffffffffffffffffffffffffffffffffffffff167fddf252ad1be2c89b69c2b068fc378daa952ba7f163c4a11628f55a4df523b3ef60405160405180910390a4505050565b6000612d1883600001836132bd565b60001c905092915050565b600046905090565b600073ffffffffffffffffffffffffffffffffffffffff168273ffffffffffffffffffffffffffffffffffffffff161415612dce576040517f08c379a00000000000000000000000000000000000000000000000000000000081526004018080602001828103825260208152602001807f4552433732313a206d696e7420746f20746865207a65726f206164647265737381525060200191505060405180910390fd5b612dd7816128df565b15612e4a576040517f08c379a000000000000000000000000000000000000000000000000000000000815260040180806020018281038252601c8152602001807f4552433732313a20746f6b656e20616c7265616479206d696e7465640000000081525060200191505060405180910390fd5b612e566000838361324f565b612ea781600160008573ffffffffffffffffffffffffffffffffffffffff1673ffffffffffffffffffffffffffffffffffffffff16815260200190815260200160002061326e90919063ffffffff16565b50612ebe818360026132889092919063ffffffff16565b50808273ffffffffffffffffffffffffffffffffffffffff16600073ffffffffffffffffffffffffffffffffffffffff167fddf252ad1be2c89b69c2b068fc378daa952ba7f163c4a11628f55a4df523b3ef60405160405180910390a45050565b600080600080612f328660000186613340565b915091508160001c8160001c9350935050509250929050565b8060099080519060200190612f61929190613cb4565b5050565b6000612f78846000018460001b846133d9565b60001c90509392505050565b6000612f92826000016134cf565b9050919050565b600042905090565b600080600c6000848152602001908152602001600020549050600c60008481526020019081526020016000206000815480929190600101919050555080915050919050565b600080823b905060008111915050919050565b613004848484612ac6565b613010848484846134e0565b613065576040517f08c379a0000000000000000000000000000000000000000000000000000000008152600401808060200182810382526032815260200180613d826032913960400191505060405180910390fd5b50505050565b60006130d3600b54858585604051602001808481526020018373ffffffffffffffffffffffffffffffffffffffff1660601b8152601401828152602001935050505060405160208183030381529060405280519060200120876136f99092919063ffffffff16565b9050949350505050565b60606000821415613125576040518060400160405280600181526020017f3000000000000000000000000000000000000000000000000000000000000000815250905061321f565b600082905060005b6000821461314f578080600101915050600a828161314757fe5b04915061312d565b60008167ffffffffffffffff8111801561316857600080fd5b506040519080825280601f01601f19166020018201604052801561319b5781602001600182028036833780820191505090505b50905060006001830390508593505b6000841461321757600a84816131bc57fe5b0660300160f81b828280600190039350815181106131d657fe5b60200101907effffffffffffffffffffffffffffffffffffffffffffffffffffffffffffff1916908160001a905350600a848161320f57fe5b0493506131aa565b819450505050505b919050565b6000613236836000018360001b6137ae565b905092915050565b600081600001805490509050919050565b505050565b6000613266836000018360001b6137d1565b905092915050565b6000613280836000018360001b6138b9565b905092915050565b60006132b4846000018460001b8473ffffffffffffffffffffffffffffffffffffffff1660001b613929565b90509392505050565b60008183600001805490501161331e576040517f08c379a0000000000000000000000000000000000000000000000000000000008152600401808060200182810382526022815260200180613d606022913960400191505060405180910390fd5b82600001828154811061332d57fe5b9060005260206000200154905092915050565b600080828460000180549050116133a2576040517f08c379a0000000000000000000000000000000000000000000000000000000008152600401808060200182810382526022815260200180613f026022913960400191505060405180910390fd5b60008460000184815481106133b357fe5b906000526020600020906002020190508060000154816001015492509250509250929050565b600080846001016000858152602001908152602001600020549050600081141583906134a0576040517f08c379a00000000000000000000000000000000000000000000000000000000081526004018080602001828103825283818151815260200191508051906020019080838360005b8381101561346557808201518184015260208101905061344a565b50505050905090810190601f1680156134925780820380516001836020036101000a031916815260200191505b509250505060405180910390fd5b508460000160018203815481106134b357fe5b9060005260206000209060020201600101549150509392505050565b600081600001805490509050919050565b60006135018473ffffffffffffffffffffffffffffffffffffffff16612fe6565b61350e57600190506136f1565b600061367863150b7a0260e01b6135236128fc565b888787604051602401808573ffffffffffffffffffffffffffffffffffffffff1681526020018473ffffffffffffffffffffffffffffffffffffffff16815260200183815260200180602001828103825283818151815260200191508051906020019080838360005b838110156135a757808201518184015260208101905061358c565b50505050905090810190601f1680156135d45780820380516001836020036101000a031916815260200191505b5095505050505050604051602081830303815290604052907bffffffffffffffffffffffffffffffffffffffffffffffffffffffff19166020820180517bffffffffffffffffffffffffffffffffffffffffffffffffffffffff8381831617835250505050604051806060016040528060328152602001613d82603291398773ffffffffffffffffffffffffffffffffffffffff16613a059092919063ffffffff16565b9050600081806020019051602081101561369157600080fd5b8101908080519060200190929190505050905063150b7a0260e01b7bffffffffffffffffffffffffffffffffffffffffffffffffffffffff1916817bffffffffffffffffffffffffffffffffffffffffffffffffffffffff191614925050505b949350505050565b60008082905060005b85518110156137a057600086828151811061371957fe5b602002602001015190508083116137605782816040516020018083815260200182815260200192505050604051602081830303815290604052805190602001209250613792565b808360405160200180838152602001828152602001925050506040516020818303038152906040528051906020012092505b508080600101915050613702565b508381149150509392505050565b600080836001016000848152602001908152602001600020541415905092915050565b600080836001016000848152602001908152602001600020549050600081146138ad576000600182039050600060018660000180549050039050600086600001828154811061381c57fe5b906000526020600020015490508087600001848154811061383957fe5b906000526020600020018190555060018301876001016000838152602001908152602001600020819055508660000180548061387157fe5b600190038181906000526020600020016000905590558660010160008781526020019081526020016000206000905560019450505050506138b3565b60009150505b92915050565b60006138c58383613a1d565b61391e578260000182908060018154018082558091505060019003906000526020600020016000909190919091505582600001805490508360010160008481526020019081526020016000208190555060019050613923565b600090505b92915050565b60008084600101600085815260200190815260200160002054905060008114156139d0578460000160405180604001604052808681526020018581525090806001815401808255809150506001900390600052602060002090600202016000909190919091506000820151816000015560208201518160010155505084600001805490508560010160008681526020019081526020016000208190555060019150506139fe565b828560000160018303815481106139e357fe5b90600052602060002090600202016001018190555060009150505b9392505050565b6060613a148484600085613a40565b90509392505050565b600080836001016000848152602001908152602001600020541415905092915050565b606082471015613a9b576040517f08c379a0000000000000000000000000000000000000000000000000000000008152600401808060200182810382526026815260200180613e256026913960400191505060405180910390fd5b613aa485612fe6565b613b16576040517f08c379a000000000000000000000000000000000000000000000000000000000815260040180806020018281038252601d8152602001807f416464726573733a2063616c6c20746f206e6f6e2d636f6e747261637400000081525060200191505060405180910390fd5b6000808673ffffffffffffffffffffffffffffffffffffffff1685876040518082805190602001908083835b60208310613b655780518252602082019150602081019050602083039250613b42565b6001836020036101000a03801982511681845116808217855250505050505090500191505060006040518083038185875af1925050503d8060008114613bc7576040519150601f19603f3d011682016040523d82523d6000602084013e613bcc565b606091505b5091509150613bdc828286613be8565b92505050949350505050565b60608315613bf857829050613cad565b600083511115613c0b5782518084602001fd5b816040517f08c379a00000000000000000000000000000000000000000000000000000000081526004018080602001828103825283818151815260200191508051906020019080838360005b83811015613c72578082015181840152602081019050613c57565b50505050905090810190601f168015613c9f5780820380516001836020036101000a031916815260200191505b509250505060405180910390fd5b9392505050565b828054600181600116156101000203166002900490600052602060002090601f016020900481019282613cea5760008555613d31565b82601f10613d0357805160ff1916838001178555613d31565b82800160010185558215613d31579182015b82811115613d30578251825591602001919060010190613d15565b5b509050613d3e9190613d42565b5090565b5b80821115613d5b576000816000905550600101613d43565b509056fe456e756d657261626c655365743a20696e646578206f7574206f6620626f756e64734552433732313a207472616e7366657220746f206e6f6e20455243373231526563656976657220696d706c656d656e7465724f776e61626c653a206e6577206f776e657220697320746865207a65726f20616464726573734552433732315065726d69743a20617070726f76616c20746f2063757272656e74206f776e65724552433732313a207472616e7366657220746f20746865207a65726f2061646472657373416464726573733a20696e73756666696369656e742062616c616e636520666f722063616c6c4552433732313a206f70657261746f7220717565727920666f72206e6f6e6578697374656e7420746f6b656e4552433732313a20617070726f76652063616c6c6572206973206e6f74206f776e6572206e6f7220617070726f76656420666f7220616c6c4552433732313a2062616c616e636520717565727920666f7220746865207a65726f20616464726573734552433732313a206f776e657220717565727920666f72206e6f6e6578697374656e7420746f6b656e456e756d657261626c654d61703a20696e646578206f7574206f6620626f756e64734552433732313a20617070726f76656420717565727920666f72206e6f6e6578697374656e7420746f6b656e4552433732313a207472616e73666572206f6620746f6b656e2074686174206973206e6f74206f776e4552433732314d657461646174613a2055524920717565727920666f72206e6f6e6578697374656e7420746f6b656e4552433732313a20617070726f76616c20746f2063757272656e74206f776e65724552433732313a207472616e736665722063616c6c6572206973206e6f74206f776e6572206e6f7220617070726f766564a26469706673582212200a9049b48bb1ff45ae84deb17ec8fce219dc209385f3f49bab2344f752f4be4e64736f6c63430007060033697066733a2f2f62616679626569657a7062717136666176707337346572776e3335697263616532787171646d637a786a7337696d6f73646b6e3661686d75786d652f",
  "linkReferences": {},
  "deployedLinkReferences": {}
}