{
  "_format": "hh-sol-artifact-1",
  "contractName": "TRIS",
  "sourceName": "contracts/TRIS.sol",
  "abi": [
    {
      "inputs": [
        {
          "internalType": "bytes32",
          "name": "_merkleRoot",
          "type": "bytes32"
        }
      ],
      "stateMutability": "nonpayable",
      "type": "constructor"
    },
    {
      "anonymous": false,
      "inputs": [
        {
          "indexed": true,
          "internalType": "address",
          "name": "owner",
          "type": "address"
        },
        {
          "indexed": true,
          "internalType": "address",
          "name": "approved",
          "type": "address"
        },
        {
          "indexed": true,
          "internalType": "uint256",
          "name": "tokenId",
          "type": "uint256"
        }
      ],
      "name": "Approval",
      "type": "event"
    },
    {
      "anonymous": false,
      "inputs": [
        {
          "indexed": true,
          "internalType": "address",
          "name": "owner",
          "type": "address"
        },
        {
          "indexed": true,
          "internalType": "address",
          "name": "operator",
          "type": "address"
        },
        {
          "indexed": false,
          "internalType": "bool",
          "name": "approved",
          "type": "bool"
        }
      ],
      "name": "ApprovalForAll",
      "type": "event"
    },
    {
      "anonymous": false,
      "inputs": [
        {
          "indexed": true,
          "internalType": "address",
          "name": "previousOwner",
          "type": "address"
        },
        {
          "indexed": true,
          "internalType": "address",
          "name": "newOwner",
          "type": "address"
        }
      ],
      "name": "OwnershipTransferred",
      "type": "event"
    },
    {
      "anonymous": false,
      "inputs": [
        {
          "indexed": true,
          "internalType": "address",
          "name": "from",
          "type": "address"
        },
        {
          "indexed": true,
          "internalType": "address",
          "name": "to",
          "type": "address"
        },
        {
          "indexed": true,
          "internalType": "uint256",
          "name": "tokenId",
          "type": "uint256"
        }
      ],
      "name": "Transfer",
      "type": "event"
    },
    {
      "inputs": [],
      "name": "DOMAIN_SEPARATOR",
      "outputs": [
        {
          "internalType": "bytes32",
          "name": "",
          "type": "bytes32"
        }
      ],
      "stateMutability": "view",
      "type": "function"
    },
    {
      "inputs": [],
      "name": "PERMIT_TYPEHASH",
      "outputs": [
        {
          "internalType": "bytes32",
          "name": "",
          "type": "bytes32"
        }
      ],
      "stateMutability": "view",
      "type": "function"
    },
    {
      "inputs": [],
      "name": "__baseURI",
      "outputs": [
        {
          "internalType": "string",
          "name": "",
          "type": "string"
        }
      ],
      "stateMutability": "view",
      "type": "function"
    },
    {
      "inputs": [
        {
          "internalType": "address",
          "name": "_to",
          "type": "address"
        },
        {
          "internalType": "uint256",
          "name": "_tokenId",
          "type": "uint256"
        }
      ],
      "name": "adminMint",
      "outputs": [],
      "stateMutability": "nonpayable",
      "type": "function"
    },
    {
      "inputs": [
        {
          "internalType": "address",
          "name": "to",
          "type": "address"
        },
        {
          "internalType": "uint256",
          "name": "tokenId",
          "type": "uint256"
        }
      ],
      "name": "approve",
      "outputs": [],
      "stateMutability": "nonpayable",
      "type": "function"
    },
    {
      "inputs": [
        {
          "internalType": "address",
          "name": "owner",
          "type": "address"
        }
      ],
      "name": "balanceOf",
      "outputs": [
        {
          "internalType": "uint256",
          "name": "",
          "type": "uint256"
        }
      ],
      "stateMutability": "view",
      "type": "function"
    },
    {
      "inputs": [
        {
          "internalType": "address",
          "name": "",
          "type": "address"
        }
      ],
      "name": "claimed",
      "outputs": [
        {
          "internalType": "bool",
          "name": "",
          "type": "bool"
        }
      ],
      "stateMutability": "view",
      "type": "function"
    },
    {
      "inputs": [
        {
          "internalType": "uint256",
          "name": "tokenId",
          "type": "uint256"
        }
      ],
      "name": "getApproved",
      "outputs": [
        {
          "internalType": "address",
          "name": "",
          "type": "address"
        }
      ],
      "stateMutability": "view",
      "type": "function"
    },
    {
      "inputs": [
        {
          "internalType": "address",
          "name": "owner",
          "type": "address"
        },
        {
          "internalType": "address",
          "name": "operator",
          "type": "address"
        }
      ],
      "name": "isApprovedForAll",
      "outputs": [
        {
          "internalType": "bool",
          "name": "",
          "type": "bool"
        }
      ],
      "stateMutability": "view",
      "type": "function"
    },
    {
      "inputs": [],
      "name": "isMintingEnabled",
      "outputs": [
        {
          "internalType": "bool",
          "name": "",
          "type": "bool"
        }
      ],
      "stateMutability": "view",
      "type": "function"
    },
    {
      "inputs": [],
      "name": "isPublicMint",
      "outputs": [
        {
          "internalType": "bool",
          "name": "",
          "type": "bool"
        }
      ],
      "stateMutability": "view",
      "type": "function"
    },
    {
      "inputs": [],
      "name": "merkleRoot",
      "outputs": [
        {
          "internalType": "bytes32",
          "name": "",
          "type": "bytes32"
        }
      ],
      "stateMutability": "view",
      "type": "function"
    },
    {
      "inputs": [
        {
          "internalType": "bytes32[]",
          "name": "merkleProof",
          "type": "bytes32[]"
        }
      ],
      "name": "mint",
      "outputs": [],
      "stateMutability": "payable",
      "type": "function"
    },
    {
      "inputs": [],
      "name": "mintingEnabled",
      "outputs": [
        {
          "internalType": "bool",
          "name": "",
          "type": "bool"
        }
      ],
      "stateMutability": "view",
      "type": "function"
    },
    {
      "inputs": [],
      "name": "name",
      "outputs": [
        {
          "internalType": "string",
          "name": "",
          "type": "string"
        }
      ],
      "stateMutability": "view",
      "type": "function"
    },
    {
      "inputs": [],
      "name": "nextTokenId",
      "outputs": [
        {
          "internalType": "uint256",
          "name": "",
          "type": "uint256"
        }
      ],
      "stateMutability": "view",
      "type": "function"
    },
    {
      "inputs": [
        {
          "internalType": "uint256",
          "name": "",
          "type": "uint256"
        }
      ],
      "name": "nonces",
      "outputs": [
        {
          "internalType": "uint256",
          "name": "",
          "type": "uint256"
        }
      ],
      "stateMutability": "view",
      "type": "function"
    },
    {
      "inputs": [],
      "name": "owner",
      "outputs": [
        {
          "internalType": "address",
          "name": "",
          "type": "address"
        }
      ],
      "stateMutability": "view",
      "type": "function"
    },
    {
      "inputs": [
        {
          "internalType": "uint256",
          "name": "tokenId",
          "type": "uint256"
        }
      ],
      "name": "ownerOf",
      "outputs": [
        {
          "internalType": "address",
          "name": "",
          "type": "address"
        }
      ],
      "stateMutability": "view",
      "type": "function"
    },
    {
      "inputs": [
        {
          "internalType": "address",
          "name": "spender",
          "type": "address"
        },
        {
          "internalType": "uint256",
          "name": "tokenId",
          "type": "uint256"
        },
        {
          "internalType": "uint256",
          "name": "deadline",
          "type": "uint256"
        },
        {
          "internalType": "uint8",
          "name": "v",
          "type": "uint8"
        },
        {
          "internalType": "bytes32",
          "name": "r",
          "type": "bytes32"
        },
        {
          "internalType": "bytes32",
          "name": "s",
          "type": "bytes32"
        }
      ],
      "name": "permit",
      "outputs": [],
      "stateMutability": "payable",
      "type": "function"
    },
    {
      "inputs": [],
      "name": "publicMint",
      "outputs": [
        {
          "internalType": "bool",
          "name": "",
          "type": "bool"
        }
      ],
      "stateMutability": "view",
      "type": "function"
    },
    {
      "inputs": [],
      "name": "renounceOwnership",
      "outputs": [],
      "stateMutability": "nonpayable",
      "type": "function"
    },
    {
      "inputs": [
        {
          "internalType": "address",
          "name": "from",
          "type": "address"
        },
        {
          "internalType": "address",
          "name": "to",
          "type": "address"
        },
        {
          "internalType": "uint256",
          "name": "tokenId",
          "type": "uint256"
        }
      ],
      "name": "safeTransferFrom",
      "outputs": [],
      "stateMutability": "nonpayable",
      "type": "function"
    },
    {
      "inputs": [
        {
          "internalType": "address",
          "name": "from",
          "type": "address"
        },
        {
          "internalType": "address",
          "name": "to",
          "type": "address"
        },
        {
          "internalType": "uint256",
          "name": "tokenId",
          "type": "uint256"
        },
        {
          "internalType": "bytes",
          "name": "data",
          "type": "bytes"
        }
      ],
      "name": "safeTransferFrom",
      "outputs": [],
      "stateMutability": "nonpayable",
      "type": "function"
    },
    {
      "inputs": [
        {
          "internalType": "address",
          "name": "operator",
          "type": "address"
        },
        {
          "internalType": "bool",
          "name": "approved",
          "type": "bool"
        }
      ],
      "name": "setApprovalForAll",
      "outputs": [],
      "stateMutability": "nonpayable",
      "type": "function"
    },
    {
      "inputs": [
        {
          "internalType": "string",
          "name": "_uri",
          "type": "string"
        }
      ],
      "name": "setBaseURI",
      "outputs": [],
      "stateMutability": "nonpayable",
      "type": "function"
    },
    {
      "inputs": [],
      "name": "startMinting",
      "outputs": [],
      "stateMutability": "nonpayable",
      "type": "function"
    },
    {
      "inputs": [],
      "name": "startPublicMint",
      "outputs": [],
      "stateMutability": "nonpayable",
      "type": "function"
    },
    {
      "inputs": [
        {
          "internalType": "bytes4",
          "name": "interfaceId",
          "type": "bytes4"
        }
      ],
      "name": "supportsInterface",
      "outputs": [
        {
          "internalType": "bool",
          "name": "",
          "type": "bool"
        }
      ],
      "stateMutability": "view",
      "type": "function"
    },
    {
      "inputs": [],
      "name": "symbol",
      "outputs": [
        {
          "internalType": "string",
          "name": "",
          "type": "string"
        }
      ],
      "stateMutability": "view",
      "type": "function"
    },
    {
      "inputs": [
        {
          "internalType": "uint256",
          "name": "index",
          "type": "uint256"
        }
      ],
      "name": "tokenByIndex",
      "outputs": [
        {
          "internalType": "uint256",
          "name": "",
          "type": "uint256"
        }
      ],
      "stateMutability": "view",
      "type": "function"
    },
    {
      "inputs": [
        {
          "internalType": "address",
          "name": "owner",
          "type": "address"
        },
        {
          "internalType": "uint256",
          "name": "index",
          "type": "uint256"
        }
      ],
      "name": "tokenOfOwnerByIndex",
      "outputs": [
        {
          "internalType": "uint256",
          "name": "",
          "type": "uint256"
        }
      ],
      "stateMutability": "view",
      "type": "function"
    },
    {
      "inputs": [
        {
          "internalType": "uint256",
          "name": "tokenId",
          "type": "uint256"
        }
      ],
      "name": "tokenURI",
      "outputs": [
        {
          "internalType": "string",
          "name": "",
          "type": "string"
        }
      ],
      "stateMutability": "view",
      "type": "function"
    },
    {
      "inputs": [],
      "name": "totalSupply",
      "outputs": [
        {
          "internalType": "uint256",
          "name": "",
          "type": "uint256"
        }
      ],
      "stateMutability": "view",
      "type": "function"
    },
    {
      "inputs": [
        {
          "internalType": "address",
          "name": "from",
          "type": "address"
        },
        {
          "internalType": "address",
          "name": "to",
          "type": "address"
        },
        {
          "internalType": "uint256",
          "name": "tokenId",
          "type": "uint256"
        }
      ],
      "name": "transferFrom",
      "outputs": [],
      "stateMutability": "nonpayable",
      "type": "function"
    },
    {
      "inputs": [
        {
          "internalType": "address",
          "name": "newOwner",
          "type": "address"
        }
      ],
      "name": "transferOwnership",
      "outputs": [],
      "stateMutability": "nonpayable",
      "type": "function"
    },
    {
      "inputs": [],
      "name": "version",
      "outputs": [
        {
          "internalType": "string",
          "name": "",
          "type": "string"
        }
      ],
      "stateMutability": "pure",
      "type": "function"
    }
  ],
  "bytecode": "0x60e06040525f600f5f6101000a81548160ff0219169083151502179055505f600f60016101000a81548160ff0219169083151502179055506703bf3b91c95b00006010553480156200004f575f80fd5b50604051620052a5380380620052a58339818101604052810190620000759190620002d3565b6040518060400160405280600481526020017f54524953000000000000000000000000000000000000000000000000000000008152506040518060400160405280600481526020017f54524953000000000000000000000000000000000000000000000000000000008152506040518060400160405280600181526020017f31000000000000000000000000000000000000000000000000000000000000008152508282815f908162000129919062000567565b5080600190816200013b919062000567565b505050828051906020012060808181525050808051906020012060a081815250505050506200017f62000173620001b860201b60201c565b620001bf60201b60201c565b8060c08181525050620001b160405180608001604052806043815260200162005262604391396200028260201b60201c565b506200064b565b5f33905090565b5f600a5f9054906101000a900473ffffffffffffffffffffffffffffffffffffffff16905081600a5f6101000a81548173ffffffffffffffffffffffffffffffffffffffff021916908373ffffffffffffffffffffffffffffffffffffffff1602179055508173ffffffffffffffffffffffffffffffffffffffff168173ffffffffffffffffffffffffffffffffffffffff167f8be0079c531659141344cd1fd0a4f28419497f9722a3daafe3b4186f6b6457e060405160405180910390a35050565b80600c908162000293919062000567565b5050565b5f80fd5b5f819050919050565b620002af816200029b565b8114620002ba575f80fd5b50565b5f81519050620002cd81620002a4565b92915050565b5f60208284031215620002eb57620002ea62000297565b5b5f620002fa84828501620002bd565b91505092915050565b5f81519050919050565b7f4e487b71000000000000000000000000000000000000000000000000000000005f52604160045260245ffd5b7f4e487b71000000000000000000000000000000000000000000000000000000005f52602260045260245ffd5b5f60028204905060018216806200037f57607f821691505b6020821081036200039557620003946200033a565b5b50919050565b5f819050815f5260205f209050919050565b5f6020601f8301049050919050565b5f82821b905092915050565b5f60088302620003f97fffffffffffffffffffffffffffffffffffffffffffffffffffffffffffffffff82620003bc565b620004058683620003bc565b95508019841693508086168417925050509392505050565b5f819050919050565b5f819050919050565b5f6200044f6200044962000443846200041d565b62000426565b6200041d565b9050919050565b5f819050919050565b6200046a836200042f565b62000482620004798262000456565b848454620003c8565b825550505050565b5f90565b620004986200048a565b620004a58184846200045f565b505050565b5b81811015620004cc57620004c05f826200048e565b600181019050620004ab565b5050565b601f8211156200051b57620004e5816200039b565b620004f084620003ad565b8101602085101562000500578190505b620005186200050f85620003ad565b830182620004aa565b50505b505050565b5f82821c905092915050565b5f6200053d5f198460080262000520565b1980831691505092915050565b5f6200055783836200052c565b9150826002028217905092915050565b620005728262000303565b67ffffffffffffffff8111156200058e576200058d6200030d565b5b6200059a825462000367565b620005a7828285620004d0565b5f60209050601f831160018114620005dd575f8415620005c8578287015190505b620005d485826200054a565b86555062000643565b601f198416620005ed866200039b565b5f5b828110156200061657848901518255600182019150602085019450602081019050620005ef565b8683101562000636578489015162000632601f8916826200052c565b8355505b6001600288020188555050505b505050505050565b60805160a05160c051614be56200067d5f395f8181610b74015261171e01525f610cb401525f610c930152614be55ff3fe608060405260043610610219575f3560e01c80636352211e116101225780639a65ea26116100aa578063c87b56dd1161006e578063c87b56dd14610777578063c884ef83146107b3578063e58306f9146107ef578063e985e9c514610817578063f2fde38b1461085357610219565b80639a65ea26146106cb5780639fd6db12146106e1578063a22cb4651461070b578063b77a147b14610733578063b88d4fde1461074f57610219565b806375794a3c116100f157806375794a3c1461061b57806376c64c62146106455780637ac2ff7b1461065b5780638da5cb5b1461067757806395d89b41146106a157610219565b80636352211e146105635780636e34a4821461059f57806370a08231146105c9578063715018a61461060557610219565b80632f745c59116101a557806342842e0e1161017457806342842e0e146104835780634f6ccce7146104ab57806354fd4d50146104e757806355c7ba141461051157806355f804b31461053b57610219565b80632f745c59146103c95780633057931f1461040557806330adf81f1461042f5780633644e5151461045957610219565b8063141a468c116101ec578063141a468c146102e757806318160ddd1461032357806323b872dd1461034d57806326092b83146103755780632eb4a7ab1461039f57610219565b806301ffc9a71461021d57806306fdde0314610259578063081812fc14610283578063095ea7b3146102bf575b5f80fd5b348015610228575f80fd5b50610243600480360381019061023e9190612f93565b61087b565b6040516102509190612fd8565b60405180910390f35b348015610264575f80fd5b5061026d6108f4565b60405161027a919061307b565b60405180910390f35b34801561028e575f80fd5b506102a960048036038101906102a491906130ce565b610983565b6040516102b69190613138565b60405180910390f35b3480156102ca575f80fd5b506102e560048036038101906102e0919061317b565b6109c5565b005b3480156102f2575f80fd5b5061030d600480360381019061030891906130ce565b610adb565b60405161031a91906131c8565b60405180910390f35b34801561032e575f80fd5b50610337610af0565b60405161034491906131c8565b60405180910390f35b348015610358575f80fd5b50610373600480360381019061036e91906131e1565b610afc565b005b348015610380575f80fd5b50610389610b5c565b6040516103969190612fd8565b60405180910390f35b3480156103aa575f80fd5b506103b3610b72565b6040516103c09190613249565b60405180910390f35b3480156103d4575f80fd5b506103ef60048036038101906103ea919061317b565b610b96565b6040516103fc91906131c8565b60405180910390f35b348015610410575f80fd5b50610419610c36565b6040516104269190612fd8565b60405180910390f35b34801561043a575f80fd5b50610443610c49565b6040516104509190613249565b60405180910390f35b348015610464575f80fd5b5061046d610c6f565b60405161047a9190613249565b60405180910390f35b34801561048e575f80fd5b506104a960048036038101906104a491906131e1565b610d0b565b005b3480156104b6575f80fd5b506104d160048036038101906104cc91906130ce565b610d2a565b6040516104de91906131c8565b60405180910390f35b3480156104f2575f80fd5b506104fb610d98565b604051610508919061307b565b60405180910390f35b34801561051c575f80fd5b50610525610dd5565b6040516105329190612fd8565b60405180910390f35b348015610546575f80fd5b50610561600480360381019061055c919061338e565b610de7565b005b34801561056e575f80fd5b50610589600480360381019061058491906130ce565b610dfb565b6040516105969190613138565b60405180910390f35b3480156105aa575f80fd5b506105b3610e7f565b6040516105c0919061307b565b60405180910390f35b3480156105d4575f80fd5b506105ef60048036038101906105ea91906133d5565b610f0b565b6040516105fc91906131c8565b60405180910390f35b348015610610575f80fd5b50610619610fbf565b005b348015610626575f80fd5b5061062f610fd2565b60405161063c91906131c8565b60405180910390f35b348015610650575f80fd5b50610659610fd8565b005b61067560048036038101906106709190613460565b611052565b005b348015610682575f80fd5b5061068b6113f9565b6040516106989190613138565b60405180910390f35b3480156106ac575f80fd5b506106b5611421565b6040516106c2919061307b565b60405180910390f35b3480156106d6575f80fd5b506106df6114b1565b005b3480156106ec575f80fd5b506106f5611529565b6040516107029190612fd8565b60405180910390f35b348015610716575f80fd5b50610731600480360381019061072c9190613513565b61153e565b005b61074d600480360381019061074891906135ae565b611554565b005b34801561075a575f80fd5b5061077560048036038101906107709190613697565b61180a565b005b348015610782575f80fd5b5061079d600480360381019061079891906130ce565b61186c565b6040516107aa919061307b565b60405180910390f35b3480156107be575f80fd5b506107d960048036038101906107d491906133d5565b6118d1565b6040516107e69190612fd8565b60405180910390f35b3480156107fa575f80fd5b506108156004803603810190610810919061317b565b6118ee565b005b348015610822575f80fd5b5061083d60048036038101906108389190613717565b611904565b60405161084a9190612fd8565b60405180910390f35b34801561085e575f80fd5b50610879600480360381019061087491906133d5565b611992565b005b5f7f780e9d63000000000000000000000000000000000000000000000000000000007bffffffffffffffffffffffffffffffffffffffffffffffffffffffff1916827bffffffffffffffffffffffffffffffffffffffffffffffffffffffff191614806108ed57506108ec82611a14565b5b9050919050565b60605f805461090290613782565b80601f016020809104026020016040519081016040528092919081815260200182805461092e90613782565b80156109795780601f1061095057610100808354040283529160200191610979565b820191905f5260205f20905b81548152906001019060200180831161095c57829003601f168201915b5050505050905090565b5f61098d82611af5565b60045f8381526020019081526020015f205f9054906101000a900473ffffffffffffffffffffffffffffffffffffffff169050919050565b5f6109cf82610dfb565b90508073ffffffffffffffffffffffffffffffffffffffff168373ffffffffffffffffffffffffffffffffffffffff1603610a3f576040517f08c379a0000000000000000000000000000000000000000000000000000000008152600401610a3690613822565b60405180910390fd5b8073ffffffffffffffffffffffffffffffffffffffff16610a5e611b40565b73ffffffffffffffffffffffffffffffffffffffff161480610a8d5750610a8c81610a87611b40565b611904565b5b610acc576040517f08c379a0000000000000000000000000000000000000000000000000000000008152600401610ac3906138b0565b60405180910390fd5b610ad68383611b47565b505050565b600e602052805f5260405f205f915090505481565b5f600880549050905090565b610b0d610b07611b40565b82611bfd565b610b4c576040517f08c379a0000000000000000000000000000000000000000000000000000000008152600401610b439061393e565b60405180910390fd5b610b57838383611c91565b505050565b5f600f60019054906101000a900460ff16905090565b7f000000000000000000000000000000000000000000000000000000000000000081565b5f610ba083610f0b565b8210610be1576040517f08c379a0000000000000000000000000000000000000000000000000000000008152600401610bd8906139cc565b60405180910390fd5b60065f8473ffffffffffffffffffffffffffffffffffffffff1673ffffffffffffffffffffffffffffffffffffffff1681526020019081526020015f205f8381526020019081526020015f2054905092915050565b600f60019054906101000a900460ff1681565b7f49ecf333e5b8c95c40fdafc95c1ad136e8914a8fb55e9dc8bb01eaa83a2df9ad5f1b81565b5f7f8b73c3c69bb8fe3d512ecc4cf759cc79239f7b179b0ffacaa9a75d522b39400f7f00000000000000000000000000000000000000000000000000000000000000007f0000000000000000000000000000000000000000000000000000000000000000610cdb611f7d565b30604051602001610cf0959493929190613a2c565b60405160208183030381529060405280519060200120905090565b610d2583838360405180602001604052805f81525061180a565b505050565b5f610d33610af0565b8210610d74576040517f08c379a0000000000000000000000000000000000000000000000000000000008152600401610d6b90613aed565b60405180910390fd5b60088281548110610d8857610d87613b0b565b5b905f5260205f2001549050919050565b60606040518060400160405280600181526020017f3100000000000000000000000000000000000000000000000000000000000000815250905090565b600f5f9054906101000a900460ff1681565b610def611f84565b610df881612002565b50565b5f80610e0683612015565b90505f73ffffffffffffffffffffffffffffffffffffffff168173ffffffffffffffffffffffffffffffffffffffff1603610e76576040517f08c379a0000000000000000000000000000000000000000000000000000000008152600401610e6d90613b82565b60405180910390fd5b80915050919050565b600c8054610e8c90613782565b80601f0160208091040260200160405190810160405280929190818152602001828054610eb890613782565b8015610f035780601f10610eda57610100808354040283529160200191610f03565b820191905f5260205f20905b815481529060010190602001808311610ee657829003601f168201915b505050505081565b5f8073ffffffffffffffffffffffffffffffffffffffff168273ffffffffffffffffffffffffffffffffffffffff1603610f7a576040517f08c379a0000000000000000000000000000000000000000000000000000000008152600401610f7190613c10565b60405180910390fd5b60035f8373ffffffffffffffffffffffffffffffffffffffff1673ffffffffffffffffffffffffffffffffffffffff1681526020019081526020015f20549050919050565b610fc7611f84565b610fd05f61204e565b565b600b5481565b610fe0611f84565b5f1515600f60019054906101000a900460ff16151514611035576040517f08c379a000000000000000000000000000000000000000000000000000000000815260040161102c90613c78565b60405180910390fd5b6001600f60016101000a81548160ff021916908315150217905550565b8361105b612111565b111561109c576040517f08c379a000000000000000000000000000000000000000000000000000000000815260040161109390613ce0565b60405180910390fd5b5f6110a5610c6f565b7f49ecf333e5b8c95c40fdafc95c1ad136e8914a8fb55e9dc8bb01eaa83a2df9ad5f1b88886110d38a612118565b896040516020016110e8959493929190613cfe565b6040516020818303038152906040528051906020012060405160200161110f929190613dc3565b6040516020818303038152906040528051906020012090505f61113187610dfb565b90508073ffffffffffffffffffffffffffffffffffffffff168873ffffffffffffffffffffffffffffffffffffffff16036111a1576040517f08c379a000000000000000000000000000000000000000000000000000000000815260040161119890613e69565b60405180910390fd5b6111aa8161215d565b156112b857631626ba7e60e01b8173ffffffffffffffffffffffffffffffffffffffff16631626ba7e8487878a6040516020016111e993929190613ebb565b6040516020818303038152906040526040518363ffffffff1660e01b8152600401611215929190613f49565b602060405180830381865afa158015611230573d5f803e3d5ffd5b505050506040513d601f19601f820116820180604052508101906112549190613f8b565b7bffffffffffffffffffffffffffffffffffffffffffffffffffffffff1916146112b3576040517f08c379a00000000000000000000000000000000000000000000000000000000081526004016112aa90614000565b60405180910390fd5b6113e5565b5f6001838787876040515f81526020016040526040516112db949392919061402d565b6020604051602081039080840390855afa1580156112fb573d5f803e3d5ffd5b5050506020604051035190505f73ffffffffffffffffffffffffffffffffffffffff168173ffffffffffffffffffffffffffffffffffffffff1603611375576040517f08c379a000000000000000000000000000000000000000000000000000000000815260040161136c906140ba565b60405180910390fd5b8173ffffffffffffffffffffffffffffffffffffffff168173ffffffffffffffffffffffffffffffffffffffff16146113e3576040517f08c379a00000000000000000000000000000000000000000000000000000000081526004016113da90614000565b60405180910390fd5b505b6113ef8888611b47565b5050505050505050565b5f600a5f9054906101000a900473ffffffffffffffffffffffffffffffffffffffff16905090565b60606001805461143090613782565b80601f016020809104026020016040519081016040528092919081815260200182805461145c90613782565b80156114a75780601f1061147e576101008083540402835291602001916114a7565b820191905f5260205f20905b81548152906001019060200180831161148a57829003601f168201915b5050505050905090565b6114b9611f84565b5f1515600f5f9054906101000a900460ff1615151461150d576040517f08c379a000000000000000000000000000000000000000000000000000000000815260040161150490614122565b60405180910390fd5b6001600f5f6101000a81548160ff021916908315150217905550565b5f600f5f9054906101000a900460ff16905090565b611550611549611b40565b838361217f565b5050565b600f5f9054906101000a900460ff166115a2576040517f08c379a00000000000000000000000000000000000000000000000000000000081526004016115999061418a565b60405180910390fd5b6010543410156115e7576040517f08c379a00000000000000000000000000000000000000000000000000000000081526004016115de906141f2565b60405180910390fd5b6103e861ffff16600b5410611631576040517f08c379a00000000000000000000000000000000000000000000000000000000081526004016116289061425a565b60405180910390fd5b5f1515600d5f3373ffffffffffffffffffffffffffffffffffffffff1673ffffffffffffffffffffffffffffffffffffffff1681526020019081526020015f205f9054906101000a900460ff161515146116c0576040517f08c379a00000000000000000000000000000000000000000000000000000000081526004016116b7906142c2565b60405180910390fd5b600f60019054906101000a900460ff1661178e576001151561174b8383808060200260200160405190810160405280939291908181526020018383602002808284375f81840152601f19601f820116905080830192505050505050507f0000000000000000000000000000000000000000000000000000000000000000611746336122e6565b612307565b15151461178d576040517f08c379a00000000000000000000000000000000000000000000000000000000081526004016117849061432a565b60405180910390fd5b5b6001600d5f3373ffffffffffffffffffffffffffffffffffffffff1673ffffffffffffffffffffffffffffffffffffffff1681526020019081526020015f205f6101000a81548160ff021916908315150217905550600b5f8154809291906117f590614375565b919050555061180633600b5461231d565b5050565b61181b611815611b40565b83611bfd565b61185a576040517f08c379a00000000000000000000000000000000000000000000000000000000081526004016118519061393e565b60405180910390fd5b61186684848484612530565b50505050565b606061187782611af5565b5f61188061258c565b90505f81511161189e5760405180602001604052805f8152506118c9565b806118a88461261c565b6040516020016118b99291906143ec565b6040516020818303038152906040525b915050919050565b600d602052805f5260405f205f915054906101000a900460ff1681565b6118f6611f84565b611900828261231d565b5050565b5f60055f8473ffffffffffffffffffffffffffffffffffffffff1673ffffffffffffffffffffffffffffffffffffffff1681526020019081526020015f205f8373ffffffffffffffffffffffffffffffffffffffff1673ffffffffffffffffffffffffffffffffffffffff1681526020019081526020015f205f9054906101000a900460ff16905092915050565b61199a611f84565b5f73ffffffffffffffffffffffffffffffffffffffff168173ffffffffffffffffffffffffffffffffffffffff1603611a08576040517f08c379a00000000000000000000000000000000000000000000000000000000081526004016119ff9061447f565b60405180910390fd5b611a118161204e565b50565b5f7f80ac58cd000000000000000000000000000000000000000000000000000000007bffffffffffffffffffffffffffffffffffffffffffffffffffffffff1916827bffffffffffffffffffffffffffffffffffffffffffffffffffffffff19161480611ade57507f5b5e139f000000000000000000000000000000000000000000000000000000007bffffffffffffffffffffffffffffffffffffffffffffffffffffffff1916827bffffffffffffffffffffffffffffffffffffffffffffffffffffffff1916145b80611aee5750611aed826126e6565b5b9050919050565b611afe8161274f565b611b3d576040517f08c379a0000000000000000000000000000000000000000000000000000000008152600401611b3490613b82565b60405180910390fd5b50565b5f33905090565b8160045f8381526020019081526020015f205f6101000a81548173ffffffffffffffffffffffffffffffffffffffff021916908373ffffffffffffffffffffffffffffffffffffffff160217905550808273ffffffffffffffffffffffffffffffffffffffff16611bb783610dfb565b73ffffffffffffffffffffffffffffffffffffffff167f8c5be1e5ebec7d5bd14f71427d1e84f3dd0314c0f7b2291e5b200ac8c7c3b92560405160405180910390a45050565b5f80611c0883610dfb565b90508073ffffffffffffffffffffffffffffffffffffffff168473ffffffffffffffffffffffffffffffffffffffff161480611c4a5750611c498185611904565b5b80611c8857508373ffffffffffffffffffffffffffffffffffffffff16611c7084610983565b73ffffffffffffffffffffffffffffffffffffffff16145b91505092915050565b8273ffffffffffffffffffffffffffffffffffffffff16611cb182610dfb565b73ffffffffffffffffffffffffffffffffffffffff1614611d07576040517f08c379a0000000000000000000000000000000000000000000000000000000008152600401611cfe9061450d565b60405180910390fd5b5f73ffffffffffffffffffffffffffffffffffffffff168273ffffffffffffffffffffffffffffffffffffffff1603611d75576040517f08c379a0000000000000000000000000000000000000000000000000000000008152600401611d6c9061459b565b60405180910390fd5b611d82838383600161278f565b8273ffffffffffffffffffffffffffffffffffffffff16611da282610dfb565b73ffffffffffffffffffffffffffffffffffffffff1614611df8576040517f08c379a0000000000000000000000000000000000000000000000000000000008152600401611def9061450d565b60405180910390fd5b60045f8281526020019081526020015f205f6101000a81549073ffffffffffffffffffffffffffffffffffffffff0219169055600160035f8573ffffffffffffffffffffffffffffffffffffffff1673ffffffffffffffffffffffffffffffffffffffff1681526020019081526020015f205f8282540392505081905550600160035f8473ffffffffffffffffffffffffffffffffffffffff1673ffffffffffffffffffffffffffffffffffffffff1681526020019081526020015f205f82825401925050819055508160025f8381526020019081526020015f205f6101000a81548173ffffffffffffffffffffffffffffffffffffffff021916908373ffffffffffffffffffffffffffffffffffffffff160217905550808273ffffffffffffffffffffffffffffffffffffffff168473ffffffffffffffffffffffffffffffffffffffff167fddf252ad1be2c89b69c2b068fc378daa952ba7f163c4a11628f55a4df523b3ef60405160405180910390a4611f7883838360016128ea565b505050565b5f46905090565b611f8c611b40565b73ffffffffffffffffffffffffffffffffffffffff16611faa6113f9565b73ffffffffffffffffffffffffffffffffffffffff1614612000576040517f08c379a0000000000000000000000000000000000000000000000000000000008152600401611ff790614603565b60405180910390fd5b565b80600c908161201191906147b5565b5050565b5f60025f8381526020019081526020015f205f9054906101000a900473ffffffffffffffffffffffffffffffffffffffff169050919050565b5f600a5f9054906101000a900473ffffffffffffffffffffffffffffffffffffffff16905081600a5f6101000a81548173ffffffffffffffffffffffffffffffffffffffff021916908373ffffffffffffffffffffffffffffffffffffffff1602179055508173ffffffffffffffffffffffffffffffffffffffff168173ffffffffffffffffffffffffffffffffffffffff167f8be0079c531659141344cd1fd0a4f28419497f9722a3daafe3b4186f6b6457e060405160405180910390a35050565b5f42905090565b5f80600e5f8481526020019081526020015f20549050600e5f8481526020019081526020015f205f81548092919061214f90614375565b919050555080915050919050565b5f808273ffffffffffffffffffffffffffffffffffffffff163b119050919050565b8173ffffffffffffffffffffffffffffffffffffffff168373ffffffffffffffffffffffffffffffffffffffff16036121ed576040517f08c379a00000000000000000000000000000000000000000000000000000000081526004016121e4906148ce565b60405180910390fd5b8060055f8573ffffffffffffffffffffffffffffffffffffffff1673ffffffffffffffffffffffffffffffffffffffff1681526020019081526020015f205f8473ffffffffffffffffffffffffffffffffffffffff1673ffffffffffffffffffffffffffffffffffffffff1681526020019081526020015f205f6101000a81548160ff0219169083151502179055508173ffffffffffffffffffffffffffffffffffffffff168373ffffffffffffffffffffffffffffffffffffffff167f17307eab39ab6107e8899845ad3d59bd9653f200f220920489ca2b5937696c31836040516122d99190612fd8565b60405180910390a3505050565b5f8173ffffffffffffffffffffffffffffffffffffffff165f1b9050919050565b5f8261231385846128f0565b1490509392505050565b5f73ffffffffffffffffffffffffffffffffffffffff168273ffffffffffffffffffffffffffffffffffffffff160361238b576040517f08c379a000000000000000000000000000000000000000000000000000000000815260040161238290614936565b60405180910390fd5b6123948161274f565b156123d4576040517f08c379a00000000000000000000000000000000000000000000000000000000081526004016123cb9061499e565b60405180910390fd5b6123e15f8383600161278f565b6123ea8161274f565b1561242a576040517f08c379a00000000000000000000000000000000000000000000000000000000081526004016124219061499e565b60405180910390fd5b600160035f8473ffffffffffffffffffffffffffffffffffffffff1673ffffffffffffffffffffffffffffffffffffffff1681526020019081526020015f205f82825401925050819055508160025f8381526020019081526020015f205f6101000a81548173ffffffffffffffffffffffffffffffffffffffff021916908373ffffffffffffffffffffffffffffffffffffffff160217905550808273ffffffffffffffffffffffffffffffffffffffff165f73ffffffffffffffffffffffffffffffffffffffff167fddf252ad1be2c89b69c2b068fc378daa952ba7f163c4a11628f55a4df523b3ef60405160405180910390a461252c5f838360016128ea565b5050565b61253b848484611c91565b61254784848484612944565b612586576040517f08c379a000000000000000000000000000000000000000000000000000000000815260040161257d90614a2c565b60405180910390fd5b50505050565b6060600c805461259b90613782565b80601f01602080910402602001604051908101604052809291908181526020018280546125c790613782565b80156126125780601f106125e957610100808354040283529160200191612612565b820191905f5260205f20905b8154815290600101906020018083116125f557829003601f168201915b5050505050905090565b60605f600161262a84612ac6565b0190505f8167ffffffffffffffff8111156126485761264761326a565b5b6040519080825280601f01601f19166020018201604052801561267a5781602001600182028036833780820191505090505b5090505f82602001820190505b6001156126db578080600190039150507f3031323334353637383961626364656600000000000000000000000000000000600a86061a8153600a85816126d0576126cf614a4a565b5b0494505f8503612687575b819350505050919050565b5f7f01ffc9a7000000000000000000000000000000000000000000000000000000007bffffffffffffffffffffffffffffffffffffffffffffffffffffffff1916827bffffffffffffffffffffffffffffffffffffffffffffffffffffffff1916149050919050565b5f8073ffffffffffffffffffffffffffffffffffffffff1661277083612015565b73ffffffffffffffffffffffffffffffffffffffff1614159050919050565b61279b84848484612c17565b60018111156127df576040517f08c379a00000000000000000000000000000000000000000000000000000000081526004016127d690614ae7565b60405180910390fd5b5f8290505f73ffffffffffffffffffffffffffffffffffffffff168573ffffffffffffffffffffffffffffffffffffffff16036128245761281f81612c1d565b612863565b8373ffffffffffffffffffffffffffffffffffffffff168573ffffffffffffffffffffffffffffffffffffffff1614612862576128618582612c61565b5b5b5f73ffffffffffffffffffffffffffffffffffffffff168473ffffffffffffffffffffffffffffffffffffffff16036128a45761289f81612db7565b6128e3565b8473ffffffffffffffffffffffffffffffffffffffff168473ffffffffffffffffffffffffffffffffffffffff16146128e2576128e18482612e77565b5b5b5050505050565b50505050565b5f808290505f5b8451811015612939576129248286838151811061291757612916613b0b565b5b6020026020010151612eef565b9150808061293190614375565b9150506128f7565b508091505092915050565b5f6129648473ffffffffffffffffffffffffffffffffffffffff1661215d565b15612ab9578373ffffffffffffffffffffffffffffffffffffffff1663150b7a0261298d611b40565b8786866040518563ffffffff1660e01b81526004016129af9493929190614b05565b6020604051808303815f875af19250505080156129ea57506040513d601f19601f820116820180604052508101906129e79190613f8b565b60015b612a69573d805f8114612a18576040519150601f19603f3d011682016040523d82523d5f602084013e612a1d565b606091505b505f815103612a61576040517f08c379a0000000000000000000000000000000000000000000000000000000008152600401612a5890614a2c565b60405180910390fd5b805181602001fd5b63150b7a0260e01b7bffffffffffffffffffffffffffffffffffffffffffffffffffffffff1916817bffffffffffffffffffffffffffffffffffffffffffffffffffffffff191614915050612abe565b600190505b949350505050565b5f805f90507a184f03e93ff9f4daa797ed6e38ed64bf6a1f0100000000000000008310612b22577a184f03e93ff9f4daa797ed6e38ed64bf6a1f0100000000000000008381612b1857612b17614a4a565b5b0492506040810190505b6d04ee2d6d415b85acef81000000008310612b5f576d04ee2d6d415b85acef81000000008381612b5557612b54614a4a565b5b0492506020810190505b662386f26fc100008310612b8e57662386f26fc100008381612b8457612b83614a4a565b5b0492506010810190505b6305f5e1008310612bb7576305f5e1008381612bad57612bac614a4a565b5b0492506008810190505b6127108310612bdc576127108381612bd257612bd1614a4a565b5b0492506004810190505b60648310612bff5760648381612bf557612bf4614a4a565b5b0492506002810190505b600a8310612c0e576001810190505b80915050919050565b50505050565b60088054905060095f8381526020019081526020015f2081905550600881908060018154018082558091505060019003905f5260205f20015f909190919091505550565b5f6001612c6d84610f0b565b612c779190614b4f565b90505f60075f8481526020019081526020015f20549050818114612d4e575f60065f8673ffffffffffffffffffffffffffffffffffffffff1673ffffffffffffffffffffffffffffffffffffffff1681526020019081526020015f205f8481526020019081526020015f205490508060065f8773ffffffffffffffffffffffffffffffffffffffff1673ffffffffffffffffffffffffffffffffffffffff1681526020019081526020015f205f8481526020019081526020015f20819055508160075f8381526020019081526020015f2081905550505b60075f8481526020019081526020015f205f905560065f8573ffffffffffffffffffffffffffffffffffffffff1673ffffffffffffffffffffffffffffffffffffffff1681526020019081526020015f205f8381526020019081526020015f205f905550505050565b5f6001600880549050612dca9190614b4f565b90505f60095f8481526020019081526020015f205490505f60088381548110612df657612df5613b0b565b5b905f5260205f20015490508060088381548110612e1657612e15613b0b565b5b905f5260205f2001819055508160095f8381526020019081526020015f208190555060095f8581526020019081526020015f205f90556008805480612e5e57612e5d614b82565b5b600190038181905f5260205f20015f9055905550505050565b5f612e8183610f0b565b90508160065f8573ffffffffffffffffffffffffffffffffffffffff1673ffffffffffffffffffffffffffffffffffffffff1681526020019081526020015f205f8381526020019081526020015f20819055508060075f8481526020019081526020015f2081905550505050565b5f818310612f0657612f018284612f19565b612f11565b612f108383612f19565b5b905092915050565b5f825f528160205260405f20905092915050565b5f604051905090565b5f80fd5b5f80fd5b5f7fffffffff0000000000000000000000000000000000000000000000000000000082169050919050565b612f7281612f3e565b8114612f7c575f80fd5b50565b5f81359050612f8d81612f69565b92915050565b5f60208284031215612fa857612fa7612f36565b5b5f612fb584828501612f7f565b91505092915050565b5f8115159050919050565b612fd281612fbe565b82525050565b5f602082019050612feb5f830184612fc9565b92915050565b5f81519050919050565b5f82825260208201905092915050565b5f5b8381101561302857808201518184015260208101905061300d565b5f8484015250505050565b5f601f19601f8301169050919050565b5f61304d82612ff1565b6130578185612ffb565b935061306781856020860161300b565b61307081613033565b840191505092915050565b5f6020820190508181035f8301526130938184613043565b905092915050565b5f819050919050565b6130ad8161309b565b81146130b7575f80fd5b50565b5f813590506130c8816130a4565b92915050565b5f602082840312156130e3576130e2612f36565b5b5f6130f0848285016130ba565b91505092915050565b5f73ffffffffffffffffffffffffffffffffffffffff82169050919050565b5f613122826130f9565b9050919050565b61313281613118565b82525050565b5f60208201905061314b5f830184613129565b92915050565b61315a81613118565b8114613164575f80fd5b50565b5f8135905061317581613151565b92915050565b5f806040838503121561319157613190612f36565b5b5f61319e85828601613167565b92505060206131af858286016130ba565b9150509250929050565b6131c28161309b565b82525050565b5f6020820190506131db5f8301846131b9565b92915050565b5f805f606084860312156131f8576131f7612f36565b5b5f61320586828701613167565b935050602061321686828701613167565b9250506040613227868287016130ba565b9150509250925092565b5f819050919050565b61324381613231565b82525050565b5f60208201905061325c5f83018461323a565b92915050565b5f80fd5b5f80fd5b7f4e487b71000000000000000000000000000000000000000000000000000000005f52604160045260245ffd5b6132a082613033565b810181811067ffffffffffffffff821117156132bf576132be61326a565b5b80604052505050565b5f6132d1612f2d565b90506132dd8282613297565b919050565b5f67ffffffffffffffff8211156132fc576132fb61326a565b5b61330582613033565b9050602081019050919050565b828183375f83830152505050565b5f61333261332d846132e2565b6132c8565b90508281526020810184848401111561334e5761334d613266565b5b613359848285613312565b509392505050565b5f82601f83011261337557613374613262565b5b8135613385848260208601613320565b91505092915050565b5f602082840312156133a3576133a2612f36565b5b5f82013567ffffffffffffffff8111156133c0576133bf612f3a565b5b6133cc84828501613361565b91505092915050565b5f602082840312156133ea576133e9612f36565b5b5f6133f784828501613167565b91505092915050565b5f60ff82169050919050565b61341581613400565b811461341f575f80fd5b50565b5f813590506134308161340c565b92915050565b61343f81613231565b8114613449575f80fd5b50565b5f8135905061345a81613436565b92915050565b5f805f805f8060c0878903121561347a57613479612f36565b5b5f61348789828a01613167565b965050602061349889828a016130ba565b95505060406134a989828a016130ba565b94505060606134ba89828a01613422565b93505060806134cb89828a0161344c565b92505060a06134dc89828a0161344c565b9150509295509295509295565b6134f281612fbe565b81146134fc575f80fd5b50565b5f8135905061350d816134e9565b92915050565b5f806040838503121561352957613528612f36565b5b5f61353685828601613167565b9250506020613547858286016134ff565b9150509250929050565b5f80fd5b5f80fd5b5f8083601f84011261356e5761356d613262565b5b8235905067ffffffffffffffff81111561358b5761358a613551565b5b6020830191508360208202830111156135a7576135a6613555565b5b9250929050565b5f80602083850312156135c4576135c3612f36565b5b5f83013567ffffffffffffffff8111156135e1576135e0612f3a565b5b6135ed85828601613559565b92509250509250929050565b5f67ffffffffffffffff8211156136135761361261326a565b5b61361c82613033565b9050602081019050919050565b5f61363b613636846135f9565b6132c8565b90508281526020810184848401111561365757613656613266565b5b613662848285613312565b509392505050565b5f82601f83011261367e5761367d613262565b5b813561368e848260208601613629565b91505092915050565b5f805f80608085870312156136af576136ae612f36565b5b5f6136bc87828801613167565b94505060206136cd87828801613167565b93505060406136de878288016130ba565b925050606085013567ffffffffffffffff8111156136ff576136fe612f3a565b5b61370b8782880161366a565b91505092959194509250565b5f806040838503121561372d5761372c612f36565b5b5f61373a85828601613167565b925050602061374b85828601613167565b9150509250929050565b7f4e487b71000000000000000000000000000000000000000000000000000000005f52602260045260245ffd5b5f600282049050600182168061379957607f821691505b6020821081036137ac576137ab613755565b5b50919050565b7f4552433732313a20617070726f76616c20746f2063757272656e74206f776e655f8201527f7200000000000000000000000000000000000000000000000000000000000000602082015250565b5f61380c602183612ffb565b9150613817826137b2565b604082019050919050565b5f6020820190508181035f83015261383981613800565b9050919050565b7f4552433732313a20617070726f76652063616c6c6572206973206e6f7420746f5f8201527f6b656e206f776e6572206f7220617070726f76656420666f7220616c6c000000602082015250565b5f61389a603d83612ffb565b91506138a582613840565b604082019050919050565b5f6020820190508181035f8301526138c78161388e565b9050919050565b7f4552433732313a2063616c6c6572206973206e6f7420746f6b656e206f776e655f8201527f72206f7220617070726f76656400000000000000000000000000000000000000602082015250565b5f613928602d83612ffb565b9150613933826138ce565b604082019050919050565b5f6020820190508181035f8301526139558161391c565b9050919050565b7f455243373231456e756d657261626c653a206f776e657220696e646578206f755f8201527f74206f6620626f756e6473000000000000000000000000000000000000000000602082015250565b5f6139b6602b83612ffb565b91506139c18261395c565b604082019050919050565b5f6020820190508181035f8301526139e3816139aa565b9050919050565b5f819050919050565b5f819050919050565b5f613a16613a11613a0c846139ea565b6139f3565b61309b565b9050919050565b613a26816139fc565b82525050565b5f60a082019050613a3f5f830188613a1d565b613a4c602083018761323a565b613a59604083018661323a565b613a6660608301856131b9565b613a736080830184613129565b9695505050505050565b7f455243373231456e756d657261626c653a20676c6f62616c20696e646578206f5f8201527f7574206f6620626f756e64730000000000000000000000000000000000000000602082015250565b5f613ad7602c83612ffb565b9150613ae282613a7d565b604082019050919050565b5f6020820190508181035f830152613b0481613acb565b9050919050565b7f4e487b71000000000000000000000000000000000000000000000000000000005f52603260045260245ffd5b7f4552433732313a20696e76616c696420746f6b656e20494400000000000000005f82015250565b5f613b6c601883612ffb565b9150613b7782613b38565b602082019050919050565b5f6020820190508181035f830152613b9981613b60565b9050919050565b7f4552433732313a2061646472657373207a65726f206973206e6f7420612076615f8201527f6c6964206f776e65720000000000000000000000000000000000000000000000602082015250565b5f613bfa602983612ffb565b9150613c0582613ba0565b604082019050919050565b5f6020820190508181035f830152613c2781613bee565b9050919050565b7f5075626c6963206d696e7420697320616c726561647920656e61626c656400005f82015250565b5f613c62601e83612ffb565b9150613c6d82613c2e565b602082019050919050565b5f6020820190508181035f830152613c8f81613c56565b9050919050565b7f5065726d697420657870697265640000000000000000000000000000000000005f82015250565b5f613cca600e83612ffb565b9150613cd582613c96565b602082019050919050565b5f6020820190508181035f830152613cf781613cbe565b9050919050565b5f60a082019050613d115f83018861323a565b613d1e6020830187613129565b613d2b60408301866131b9565b613d3860608301856131b9565b613d4560808301846131b9565b9695505050505050565b5f81905092915050565b7f19010000000000000000000000000000000000000000000000000000000000005f82015250565b5f613d8d600283613d4f565b9150613d9882613d59565b600282019050919050565b5f819050919050565b613dbd613db882613231565b613da3565b82525050565b5f613dcd82613d81565b9150613dd98285613dac565b602082019150613de98284613dac565b6020820191508190509392505050565b7f4552433732315065726d69743a20617070726f76616c20746f2063757272656e5f8201527f74206f776e657200000000000000000000000000000000000000000000000000602082015250565b5f613e53602783612ffb565b9150613e5e82613df9565b604082019050919050565b5f6020820190508181035f830152613e8081613e47565b9050919050565b5f8160f81b9050919050565b5f613e9d82613e87565b9050919050565b613eb5613eb082613400565b613e93565b82525050565b5f613ec68286613dac565b602082019150613ed68285613dac565b602082019150613ee68284613ea4565b600182019150819050949350505050565b5f81519050919050565b5f82825260208201905092915050565b5f613f1b82613ef7565b613f258185613f01565b9350613f3581856020860161300b565b613f3e81613033565b840191505092915050565b5f604082019050613f5c5f83018561323a565b8181036020830152613f6e8184613f11565b90509392505050565b5f81519050613f8581612f69565b92915050565b5f60208284031215613fa057613f9f612f36565b5b5f613fad84828501613f77565b91505092915050565b7f556e617574686f72697a656400000000000000000000000000000000000000005f82015250565b5f613fea600c83612ffb565b9150613ff582613fb6565b602082019050919050565b5f6020820190508181035f83015261401781613fde565b9050919050565b61402781613400565b82525050565b5f6080820190506140405f83018761323a565b61404d602083018661401e565b61405a604083018561323a565b614067606083018461323a565b95945050505050565b7f496e76616c6964207369676e61747572650000000000000000000000000000005f82015250565b5f6140a4601183612ffb565b91506140af82614070565b602082019050919050565b5f6020820190508181035f8301526140d181614098565b9050919050565b7f4d696e74696e6720697320616c726561647920656e61626c65640000000000005f82015250565b5f61410c601a83612ffb565b9150614117826140d8565b602082019050919050565b5f6020820190508181035f83015261413981614100565b9050919050565b7f4d696e74696e67206973206e6f7420656e61626c6564000000000000000000005f82015250565b5f614174601683612ffb565b915061417f82614140565b602082019050919050565b5f6020820190508181035f8301526141a181614168565b9050919050565b7f4e6f7420656e6f756768204554482073656e74000000000000000000000000005f82015250565b5f6141dc601383612ffb565b91506141e7826141a8565b602082019050919050565b5f6020820190508181035f830152614209816141d0565b9050919050565b7f4578636565647320746f6b656e20737570706c790000000000000000000000005f82015250565b5f614244601483612ffb565b915061424f82614210565b602082019050919050565b5f6020820190508181035f83015261427181614238565b9050919050565b7f5573657220616c726561647920636c61696d65640000000000000000000000005f82015250565b5f6142ac601483612ffb565b91506142b782614278565b602082019050919050565b5f6020820190508181035f8301526142d9816142a0565b9050919050565b7f496e76616c6964206d65726b6c652070726f6f660000000000000000000000005f82015250565b5f614314601483612ffb565b915061431f826142e0565b602082019050919050565b5f6020820190508181035f83015261434181614308565b9050919050565b7f4e487b71000000000000000000000000000000000000000000000000000000005f52601160045260245ffd5b5f61437f8261309b565b91507fffffffffffffffffffffffffffffffffffffffffffffffffffffffffffffffff82036143b1576143b0614348565b5b600182019050919050565b5f6143c682612ff1565b6143d08185613d4f565b93506143e081856020860161300b565b80840191505092915050565b5f6143f782856143bc565b915061440382846143bc565b91508190509392505050565b7f4f776e61626c653a206e6577206f776e657220697320746865207a65726f20615f8201527f6464726573730000000000000000000000000000000000000000000000000000602082015250565b5f614469602683612ffb565b91506144748261440f565b604082019050919050565b5f6020820190508181035f8301526144968161445d565b9050919050565b7f4552433732313a207472616e736665722066726f6d20696e636f7272656374205f8201527f6f776e6572000000000000000000000000000000000000000000000000000000602082015250565b5f6144f7602583612ffb565b91506145028261449d565b604082019050919050565b5f6020820190508181035f830152614524816144eb565b9050919050565b7f4552433732313a207472616e7366657220746f20746865207a65726f206164645f8201527f7265737300000000000000000000000000000000000000000000000000000000602082015250565b5f614585602483612ffb565b91506145908261452b565b604082019050919050565b5f6020820190508181035f8301526145b281614579565b9050919050565b7f4f776e61626c653a2063616c6c6572206973206e6f7420746865206f776e65725f82015250565b5f6145ed602083612ffb565b91506145f8826145b9565b602082019050919050565b5f6020820190508181035f83015261461a816145e1565b9050919050565b5f819050815f5260205f209050919050565b5f6020601f8301049050919050565b5f82821b905092915050565b5f6008830261467d7fffffffffffffffffffffffffffffffffffffffffffffffffffffffffffffffff82614642565b6146878683614642565b95508019841693508086168417925050509392505050565b5f6146b96146b46146af8461309b565b6139f3565b61309b565b9050919050565b5f819050919050565b6146d28361469f565b6146e66146de826146c0565b84845461464e565b825550505050565b5f90565b6146fa6146ee565b6147058184846146c9565b505050565b5b818110156147285761471d5f826146f2565b60018101905061470b565b5050565b601f82111561476d5761473e81614621565b61474784614633565b81016020851015614756578190505b61476a61476285614633565b83018261470a565b50505b505050565b5f82821c905092915050565b5f61478d5f1984600802614772565b1980831691505092915050565b5f6147a5838361477e565b9150826002028217905092915050565b6147be82612ff1565b67ffffffffffffffff8111156147d7576147d661326a565b5b6147e18254613782565b6147ec82828561472c565b5f60209050601f83116001811461481d575f841561480b578287015190505b614815858261479a565b86555061487c565b601f19841661482b86614621565b5f5b828110156148525784890151825560018201915060208501945060208101905061482d565b8683101561486f578489015161486b601f89168261477e565b8355505b6001600288020188555050505b505050505050565b7f4552433732313a20617070726f766520746f2063616c6c6572000000000000005f82015250565b5f6148b8601983612ffb565b91506148c382614884565b602082019050919050565b5f6020820190508181035f8301526148e5816148ac565b9050919050565b7f4552433732313a206d696e7420746f20746865207a65726f20616464726573735f82015250565b5f614920602083612ffb565b915061492b826148ec565b602082019050919050565b5f6020820190508181035f83015261494d81614914565b9050919050565b7f4552433732313a20746f6b656e20616c7265616479206d696e746564000000005f82015250565b5f614988601c83612ffb565b915061499382614954565b602082019050919050565b5f6020820190508181035f8301526149b58161497c565b9050919050565b7f4552433732313a207472616e7366657220746f206e6f6e2045524337323152655f8201527f63656976657220696d706c656d656e7465720000000000000000000000000000602082015250565b5f614a16603283612ffb565b9150614a21826149bc565b604082019050919050565b5f6020820190508181035f830152614a4381614a0a565b9050919050565b7f4e487b71000000000000000000000000000000000000000000000000000000005f52601260045260245ffd5b7f455243373231456e756d657261626c653a20636f6e73656375746976652074725f8201527f616e7366657273206e6f7420737570706f727465640000000000000000000000602082015250565b5f614ad1603583612ffb565b9150614adc82614a77565b604082019050919050565b5f6020820190508181035f830152614afe81614ac5565b9050919050565b5f608082019050614b185f830187613129565b614b256020830186613129565b614b3260408301856131b9565b8181036060830152614b448184613f11565b905095945050505050565b5f614b598261309b565b9150614b648361309b565b9250828203905081811115614b7c57614b7b614348565b5b92915050565b7f4e487b71000000000000000000000000000000000000000000000000000000005f52603160045260245ffdfea2646970667358221220d3be81269270b37fb73e93057d67bfb0dccb580205fbffa65a1b763428e676f664736f6c63430008140033697066733a2f2f62616679626569656e69616c6b6472707076646664616e7a7569776e7434356d346868636b617978727676686b747272766d6f77776b77723435612f",
  "linkReferences": {},
  "deployedLinkReferences": {}
}