{
  "_format": "hh-sol-artifact-1",
  "contractName": "TRIS",
  "sourceName": "contracts/TRIS.sol",
  "abi": [
    {
      "inputs": [],
      "stateMutability": "nonpayable",
      "type": "constructor"
    },
    {
      "anonymous": false,
      "inputs": [
        {
          "indexed": true,
          "internalType": "address",
          "name": "owner",
          "type": "address"
        },
        {
          "indexed": true,
          "internalType": "address",
          "name": "approved",
          "type": "address"
        },
        {
          "indexed": true,
          "internalType": "uint256",
          "name": "tokenId",
          "type": "uint256"
        }
      ],
      "name": "Approval",
      "type": "event"
    },
    {
      "anonymous": false,
      "inputs": [
        {
          "indexed": true,
          "internalType": "address",
          "name": "owner",
          "type": "address"
        },
        {
          "indexed": true,
          "internalType": "address",
          "name": "operator",
          "type": "address"
        },
        {
          "indexed": false,
          "internalType": "bool",
          "name": "approved",
          "type": "bool"
        }
      ],
      "name": "ApprovalForAll",
      "type": "event"
    },
    {
      "anonymous": false,
      "inputs": [
        {
          "indexed": true,
          "internalType": "address",
          "name": "previousOwner",
          "type": "address"
        },
        {
          "indexed": true,
          "internalType": "address",
          "name": "newOwner",
          "type": "address"
        }
      ],
      "name": "OwnershipTransferred",
      "type": "event"
    },
    {
      "anonymous": false,
      "inputs": [
        {
          "indexed": true,
          "internalType": "address",
          "name": "from",
          "type": "address"
        },
        {
          "indexed": true,
          "internalType": "address",
          "name": "to",
          "type": "address"
        },
        {
          "indexed": true,
          "internalType": "uint256",
          "name": "tokenId",
          "type": "uint256"
        }
      ],
      "name": "Transfer",
      "type": "event"
    },
    {
      "inputs": [],
      "name": "DOMAIN_SEPARATOR",
      "outputs": [
        {
          "internalType": "bytes32",
          "name": "",
          "type": "bytes32"
        }
      ],
      "stateMutability": "view",
      "type": "function"
    },
    {
      "inputs": [],
      "name": "PERMIT_TYPEHASH",
      "outputs": [
        {
          "internalType": "bytes32",
          "name": "",
          "type": "bytes32"
        }
      ],
      "stateMutability": "view",
      "type": "function"
    },
    {
      "inputs": [],
      "name": "__baseURI",
      "outputs": [
        {
          "internalType": "string",
          "name": "",
          "type": "string"
        }
      ],
      "stateMutability": "view",
      "type": "function"
    },
    {
      "inputs": [
        {
          "internalType": "address",
          "name": "to",
          "type": "address"
        },
        {
          "internalType": "uint256",
          "name": "tokenId",
          "type": "uint256"
        }
      ],
      "name": "approve",
      "outputs": [],
      "stateMutability": "nonpayable",
      "type": "function"
    },
    {
      "inputs": [
        {
          "internalType": "address",
          "name": "owner",
          "type": "address"
        }
      ],
      "name": "balanceOf",
      "outputs": [
        {
          "internalType": "uint256",
          "name": "",
          "type": "uint256"
        }
      ],
      "stateMutability": "view",
      "type": "function"
    },
    {
      "inputs": [
        {
          "internalType": "uint256",
          "name": "tokenId",
          "type": "uint256"
        }
      ],
      "name": "getApproved",
      "outputs": [
        {
          "internalType": "address",
          "name": "",
          "type": "address"
        }
      ],
      "stateMutability": "view",
      "type": "function"
    },
    {
      "inputs": [
        {
          "internalType": "address",
          "name": "owner",
          "type": "address"
        },
        {
          "internalType": "address",
          "name": "operator",
          "type": "address"
        }
      ],
      "name": "isApprovedForAll",
      "outputs": [
        {
          "internalType": "bool",
          "name": "",
          "type": "bool"
        }
      ],
      "stateMutability": "view",
      "type": "function"
    },
    {
      "inputs": [],
      "name": "isWhitelistActive",
      "outputs": [
        {
          "internalType": "bool",
          "name": "",
          "type": "bool"
        }
      ],
      "stateMutability": "view",
      "type": "function"
    },
    {
      "inputs": [
        {
          "internalType": "address",
          "name": "_to",
          "type": "address"
        },
        {
          "internalType": "uint256",
          "name": "_tokenId",
          "type": "uint256"
        }
      ],
      "name": "mint",
      "outputs": [],
      "stateMutability": "nonpayable",
      "type": "function"
    },
    {
      "inputs": [],
      "name": "name",
      "outputs": [
        {
          "internalType": "string",
          "name": "",
          "type": "string"
        }
      ],
      "stateMutability": "view",
      "type": "function"
    },
    {
      "inputs": [
        {
          "internalType": "uint256",
          "name": "",
          "type": "uint256"
        }
      ],
      "name": "nonces",
      "outputs": [
        {
          "internalType": "uint256",
          "name": "",
          "type": "uint256"
        }
      ],
      "stateMutability": "view",
      "type": "function"
    },
    {
      "inputs": [],
      "name": "owner",
      "outputs": [
        {
          "internalType": "address",
          "name": "",
          "type": "address"
        }
      ],
      "stateMutability": "view",
      "type": "function"
    },
    {
      "inputs": [
        {
          "internalType": "uint256",
          "name": "tokenId",
          "type": "uint256"
        }
      ],
      "name": "ownerOf",
      "outputs": [
        {
          "internalType": "address",
          "name": "",
          "type": "address"
        }
      ],
      "stateMutability": "view",
      "type": "function"
    },
    {
      "inputs": [
        {
          "internalType": "address",
          "name": "spender",
          "type": "address"
        },
        {
          "internalType": "uint256",
          "name": "tokenId",
          "type": "uint256"
        },
        {
          "internalType": "uint256",
          "name": "deadline",
          "type": "uint256"
        },
        {
          "internalType": "uint8",
          "name": "v",
          "type": "uint8"
        },
        {
          "internalType": "bytes32",
          "name": "r",
          "type": "bytes32"
        },
        {
          "internalType": "bytes32",
          "name": "s",
          "type": "bytes32"
        }
      ],
      "name": "permit",
      "outputs": [],
      "stateMutability": "payable",
      "type": "function"
    },
    {
      "inputs": [],
      "name": "renounceOwnership",
      "outputs": [],
      "stateMutability": "nonpayable",
      "type": "function"
    },
    {
      "inputs": [
        {
          "internalType": "address",
          "name": "from",
          "type": "address"
        },
        {
          "internalType": "address",
          "name": "to",
          "type": "address"
        },
        {
          "internalType": "uint256",
          "name": "tokenId",
          "type": "uint256"
        }
      ],
      "name": "safeTransferFrom",
      "outputs": [],
      "stateMutability": "nonpayable",
      "type": "function"
    },
    {
      "inputs": [
        {
          "internalType": "address",
          "name": "from",
          "type": "address"
        },
        {
          "internalType": "address",
          "name": "to",
          "type": "address"
        },
        {
          "internalType": "uint256",
          "name": "tokenId",
          "type": "uint256"
        },
        {
          "internalType": "bytes",
          "name": "data",
          "type": "bytes"
        }
      ],
      "name": "safeTransferFrom",
      "outputs": [],
      "stateMutability": "nonpayable",
      "type": "function"
    },
    {
      "inputs": [
        {
          "internalType": "address",
          "name": "operator",
          "type": "address"
        },
        {
          "internalType": "bool",
          "name": "approved",
          "type": "bool"
        }
      ],
      "name": "setApprovalForAll",
      "outputs": [],
      "stateMutability": "nonpayable",
      "type": "function"
    },
    {
      "inputs": [
        {
          "internalType": "string",
          "name": "_uri",
          "type": "string"
        }
      ],
      "name": "setBaseURI",
      "outputs": [],
      "stateMutability": "nonpayable",
      "type": "function"
    },
    {
      "inputs": [
        {
          "internalType": "bytes32",
          "name": "value",
          "type": "bytes32"
        }
      ],
      "name": "setWhitelistMerkleRoot",
      "outputs": [],
      "stateMutability": "nonpayable",
      "type": "function"
    },
    {
      "inputs": [],
      "name": "startWhitelistMint",
      "outputs": [],
      "stateMutability": "nonpayable",
      "type": "function"
    },
    {
      "inputs": [
        {
          "internalType": "bytes4",
          "name": "interfaceId",
          "type": "bytes4"
        }
      ],
      "name": "supportsInterface",
      "outputs": [
        {
          "internalType": "bool",
          "name": "",
          "type": "bool"
        }
      ],
      "stateMutability": "view",
      "type": "function"
    },
    {
      "inputs": [],
      "name": "symbol",
      "outputs": [
        {
          "internalType": "string",
          "name": "",
          "type": "string"
        }
      ],
      "stateMutability": "view",
      "type": "function"
    },
    {
      "inputs": [
        {
          "internalType": "uint256",
          "name": "index",
          "type": "uint256"
        }
      ],
      "name": "tokenByIndex",
      "outputs": [
        {
          "internalType": "uint256",
          "name": "",
          "type": "uint256"
        }
      ],
      "stateMutability": "view",
      "type": "function"
    },
    {
      "inputs": [
        {
          "internalType": "address",
          "name": "owner",
          "type": "address"
        },
        {
          "internalType": "uint256",
          "name": "index",
          "type": "uint256"
        }
      ],
      "name": "tokenOfOwnerByIndex",
      "outputs": [
        {
          "internalType": "uint256",
          "name": "",
          "type": "uint256"
        }
      ],
      "stateMutability": "view",
      "type": "function"
    },
    {
      "inputs": [
        {
          "internalType": "uint256",
          "name": "tokenId",
          "type": "uint256"
        }
      ],
      "name": "tokenURI",
      "outputs": [
        {
          "internalType": "string",
          "name": "",
          "type": "string"
        }
      ],
      "stateMutability": "view",
      "type": "function"
    },
    {
      "inputs": [],
      "name": "totalSupply",
      "outputs": [
        {
          "internalType": "uint256",
          "name": "",
          "type": "uint256"
        }
      ],
      "stateMutability": "view",
      "type": "function"
    },
    {
      "inputs": [
        {
          "internalType": "address",
          "name": "from",
          "type": "address"
        },
        {
          "internalType": "address",
          "name": "to",
          "type": "address"
        },
        {
          "internalType": "uint256",
          "name": "tokenId",
          "type": "uint256"
        }
      ],
      "name": "transferFrom",
      "outputs": [],
      "stateMutability": "nonpayable",
      "type": "function"
    },
    {
      "inputs": [
        {
          "internalType": "address",
          "name": "newOwner",
          "type": "address"
        }
      ],
      "name": "transferOwnership",
      "outputs": [],
      "stateMutability": "nonpayable",
      "type": "function"
    },
    {
      "inputs": [],
      "name": "version",
      "outputs": [
        {
          "internalType": "string",
          "name": "",
          "type": "string"
        }
      ],
      "stateMutability": "pure",
      "type": "function"
    },
    {
      "inputs": [],
      "name": "whitelistMerkleRoot",
      "outputs": [
        {
          "internalType": "bytes32",
          "name": "",
          "type": "bytes32"
        }
      ],
      "stateMutability": "view",
      "type": "function"
    },
    {
      "inputs": [
        {
          "internalType": "uint256",
          "name": "_index",
          "type": "uint256"
        },
        {
          "internalType": "address",
          "name": "_to",
          "type": "address"
        },
        {
          "internalType": "uint256",
          "name": "_tokenId",
          "type": "uint256"
        },
        {
          "internalType": "bytes32[]",
          "name": "proof",
          "type": "bytes32[]"
        }
      ],
      "name": "whitelistMint",
      "outputs": [],
      "stateMutability": "payable",
      "type": "function"
    }
  ],
  "bytecode": "0x60c060405234801562000010575f80fd5b506040518060400160405280600481526020017f54524953000000000000000000000000000000000000000000000000000000008152506040518060400160405280600481526020017f54524953000000000000000000000000000000000000000000000000000000008152506040518060400160405280600181526020017f31000000000000000000000000000000000000000000000000000000000000008152508282815f9081620000c591906200048e565b508060019081620000d791906200048e565b505050828051906020012060808181525050808051906020012060a081815250505050506200011b6200010f6200014b60201b60201c565b6200015260201b60201c565b6200014560405180608001604052806043815260200162004b7c604391396200021560201b60201c565b62000572565b5f33905090565b5f600a5f9054906101000a900473ffffffffffffffffffffffffffffffffffffffff16905081600a5f6101000a81548173ffffffffffffffffffffffffffffffffffffffff021916908373ffffffffffffffffffffffffffffffffffffffff1602179055508173ffffffffffffffffffffffffffffffffffffffff168173ffffffffffffffffffffffffffffffffffffffff167f8be0079c531659141344cd1fd0a4f28419497f9722a3daafe3b4186f6b6457e060405160405180910390a35050565b80600d90816200022691906200048e565b5050565b5f81519050919050565b7f4e487b71000000000000000000000000000000000000000000000000000000005f52604160045260245ffd5b7f4e487b71000000000000000000000000000000000000000000000000000000005f52602260045260245ffd5b5f6002820490506001821680620002a657607f821691505b602082108103620002bc57620002bb62000261565b5b50919050565b5f819050815f5260205f209050919050565b5f6020601f8301049050919050565b5f82821b905092915050565b5f60088302620003207fffffffffffffffffffffffffffffffffffffffffffffffffffffffffffffffff82620002e3565b6200032c8683620002e3565b95508019841693508086168417925050509392505050565b5f819050919050565b5f819050919050565b5f62000376620003706200036a8462000344565b6200034d565b62000344565b9050919050565b5f819050919050565b620003918362000356565b620003a9620003a0826200037d565b848454620002ef565b825550505050565b5f90565b620003bf620003b1565b620003cc81848462000386565b505050565b5b81811015620003f357620003e75f82620003b5565b600181019050620003d2565b5050565b601f82111562000442576200040c81620002c2565b6200041784620002d4565b8101602085101562000427578190505b6200043f6200043685620002d4565b830182620003d1565b50505b505050565b5f82821c905092915050565b5f620004645f198460080262000447565b1980831691505092915050565b5f6200047e838362000453565b9150826002028217905092915050565b62000499826200022a565b67ffffffffffffffff811115620004b557620004b462000234565b5b620004c182546200028e565b620004ce828285620003f7565b5f60209050601f83116001811462000504575f8415620004ef578287015190505b620004fb858262000471565b8655506200056a565b601f1984166200051486620002c2565b5f5b828110156200053d5784890151825560018201915060208501945060208101905062000516565b868310156200055d578489015162000559601f89168262000453565b8355505b6001600288020188555050505b505050505050565b60805160a0516145e8620005945f395f610b5e01525f610b3d01526145e85ff3fe6080604052600436106101e2575f3560e01c80636352211e11610101578063aa98e0c611610094578063bf477c1611610063578063bf477c16146106b6578063c87b56dd146106d2578063e985e9c51461070e578063f2fde38b1461074a576101e2565b8063aa98e0c614610626578063b70196d714610650578063b88d4fde14610666578063bd32fb661461068e576101e2565b80637ac2ff7b116100d05780637ac2ff7b1461058e5780638da5cb5b146105aa57806395d89b41146105d4578063a22cb465146105fe576101e2565b80636352211e146104d65780636e34a4821461051257806370a082311461053c578063715018a614610578576101e2565b806330adf81f116101795780634f6ccce7116101485780634f6ccce71461041e578063524513d61461045a57806354fd4d501461048457806355f804b3146104ae576101e2565b806330adf81f1461037a5780633644e515146103a457806340c10f19146103ce57806342842e0e146103f6576101e2565b8063141a468c116101b5578063141a468c146102b057806318160ddd146102ec57806323b872dd146103165780632f745c591461033e576101e2565b806301ffc9a7146101e657806306fdde0314610222578063081812fc1461024c578063095ea7b314610288575b5f80fd5b3480156101f1575f80fd5b5061020c60048036038101906102079190612b06565b610772565b6040516102199190612b4b565b60405180910390f35b34801561022d575f80fd5b506102366107eb565b6040516102439190612bee565b60405180910390f35b348015610257575f80fd5b50610272600480360381019061026d9190612c41565b61087a565b60405161027f9190612cab565b60405180910390f35b348015610293575f80fd5b506102ae60048036038101906102a99190612cee565b6108bc565b005b3480156102bb575f80fd5b506102d660048036038101906102d19190612c41565b6109d2565b6040516102e39190612d3b565b60405180910390f35b3480156102f7575f80fd5b506103006109e7565b60405161030d9190612d3b565b60405180910390f35b348015610321575f80fd5b5061033c60048036038101906103379190612d54565b6109f3565b005b348015610349575f80fd5b50610364600480360381019061035f9190612cee565b610a53565b6040516103719190612d3b565b60405180910390f35b348015610385575f80fd5b5061038e610af3565b60405161039b9190612dbc565b60405180910390f35b3480156103af575f80fd5b506103b8610b19565b6040516103c59190612dbc565b60405180910390f35b3480156103d9575f80fd5b506103f460048036038101906103ef9190612cee565b610bb5565b005b348015610401575f80fd5b5061041c60048036038101906104179190612d54565b610bcb565b005b348015610429575f80fd5b50610444600480360381019061043f9190612c41565b610bea565b6040516104519190612d3b565b60405180910390f35b348015610465575f80fd5b5061046e610c58565b60405161047b9190612b4b565b60405180910390f35b34801561048f575f80fd5b50610498610c6e565b6040516104a59190612bee565b60405180910390f35b3480156104b9575f80fd5b506104d460048036038101906104cf9190612f01565b610cab565b005b3480156104e1575f80fd5b506104fc60048036038101906104f79190612c41565b610cbf565b6040516105099190612cab565b60405180910390f35b34801561051d575f80fd5b50610526610d43565b6040516105339190612bee565b60405180910390f35b348015610547575f80fd5b50610562600480360381019061055d9190612f48565b610dcf565b60405161056f9190612d3b565b60405180910390f35b348015610583575f80fd5b5061058c610e83565b005b6105a860048036038101906105a39190612fd3565b610e96565b005b3480156105b5575f80fd5b506105be61123d565b6040516105cb9190612cab565b60405180910390f35b3480156105df575f80fd5b506105e8611265565b6040516105f59190612bee565b60405180910390f35b348015610609575f80fd5b50610624600480360381019061061f9190613086565b6112f5565b005b348015610631575f80fd5b5061063a61130b565b6040516106479190612dbc565b60405180910390f35b34801561065b575f80fd5b50610664611311565b005b348015610671575f80fd5b5061068c60048036038101906106879190613162565b611336565b005b348015610699575f80fd5b506106b460048036038101906106af91906131e2565b611398565b005b6106d060048036038101906106cb91906132d1565b6113aa565b005b3480156106dd575f80fd5b506106f860048036038101906106f39190612c41565b6113e7565b6040516107059190612bee565b60405180910390f35b348015610719575f80fd5b50610734600480360381019061072f9190613351565b61144c565b6040516107419190612b4b565b60405180910390f35b348015610755575f80fd5b50610770600480360381019061076b9190612f48565b6114da565b005b5f7f780e9d63000000000000000000000000000000000000000000000000000000007bffffffffffffffffffffffffffffffffffffffffffffffffffffffff1916827bffffffffffffffffffffffffffffffffffffffffffffffffffffffff191614806107e457506107e38261155c565b5b9050919050565b60605f80546107f9906133bc565b80601f0160208091040260200160405190810160405280929190818152602001828054610825906133bc565b80156108705780601f1061084757610100808354040283529160200191610870565b820191905f5260205f20905b81548152906001019060200180831161085357829003601f168201915b5050505050905090565b5f6108848261163d565b60045f8381526020019081526020015f205f9054906101000a900473ffffffffffffffffffffffffffffffffffffffff169050919050565b5f6108c682610cbf565b90508073ffffffffffffffffffffffffffffffffffffffff168373ffffffffffffffffffffffffffffffffffffffff1603610936576040517f08c379a000000000000000000000000000000000000000000000000000000000815260040161092d9061345c565b60405180910390fd5b8073ffffffffffffffffffffffffffffffffffffffff16610955611688565b73ffffffffffffffffffffffffffffffffffffffff16148061098457506109838161097e611688565b61144c565b5b6109c3576040517f08c379a00000000000000000000000000000000000000000000000000000000081526004016109ba906134ea565b60405180910390fd5b6109cd838361168f565b505050565b600c602052805f5260405f205f915090505481565b5f600880549050905090565b610a046109fe611688565b82611745565b610a43576040517f08c379a0000000000000000000000000000000000000000000000000000000008152600401610a3a90613578565b60405180910390fd5b610a4e8383836117d9565b505050565b5f610a5d83610dcf565b8210610a9e576040517f08c379a0000000000000000000000000000000000000000000000000000000008152600401610a9590613606565b60405180910390fd5b60065f8473ffffffffffffffffffffffffffffffffffffffff1673ffffffffffffffffffffffffffffffffffffffff1681526020019081526020015f205f8381526020019081526020015f2054905092915050565b7f49ecf333e5b8c95c40fdafc95c1ad136e8914a8fb55e9dc8bb01eaa83a2df9ad5f1b81565b5f7f8b73c3c69bb8fe3d512ecc4cf759cc79239f7b179b0ffacaa9a75d522b39400f7f00000000000000000000000000000000000000000000000000000000000000007f0000000000000000000000000000000000000000000000000000000000000000610b85611ac5565b30604051602001610b9a959493929190613666565b60405160208183030381529060405280519060200120905090565b610bbd611acc565b610bc78282611b4a565b5050565b610be583838360405180602001604052805f815250611336565b505050565b5f610bf36109e7565b8210610c34576040517f08c379a0000000000000000000000000000000000000000000000000000000008152600401610c2b90613727565b60405180910390fd5b60088281548110610c4857610c47613745565b5b905f5260205f2001549050919050565b5f600a60149054906101000a900460ff16905090565b60606040518060400160405280600181526020017f3100000000000000000000000000000000000000000000000000000000000000815250905090565b610cb3611acc565b610cbc81611d5d565b50565b5f80610cca83611d70565b90505f73ffffffffffffffffffffffffffffffffffffffff168173ffffffffffffffffffffffffffffffffffffffff1603610d3a576040517f08c379a0000000000000000000000000000000000000000000000000000000008152600401610d31906137bc565b60405180910390fd5b80915050919050565b600d8054610d50906133bc565b80601f0160208091040260200160405190810160405280929190818152602001828054610d7c906133bc565b8015610dc75780601f10610d9e57610100808354040283529160200191610dc7565b820191905f5260205f20905b815481529060010190602001808311610daa57829003601f168201915b505050505081565b5f8073ffffffffffffffffffffffffffffffffffffffff168273ffffffffffffffffffffffffffffffffffffffff1603610e3e576040517f08c379a0000000000000000000000000000000000000000000000000000000008152600401610e359061384a565b60405180910390fd5b60035f8373ffffffffffffffffffffffffffffffffffffffff1673ffffffffffffffffffffffffffffffffffffffff1681526020019081526020015f20549050919050565b610e8b611acc565b610e945f611da9565b565b83610e9f611e6c565b1115610ee0576040517f08c379a0000000000000000000000000000000000000000000000000000000008152600401610ed7906138b2565b60405180910390fd5b5f610ee9610b19565b7f49ecf333e5b8c95c40fdafc95c1ad136e8914a8fb55e9dc8bb01eaa83a2df9ad5f1b8888610f178a611e73565b89604051602001610f2c9594939291906138d0565b60405160208183030381529060405280519060200120604051602001610f53929190613995565b6040516020818303038152906040528051906020012090505f610f7587610cbf565b90508073ffffffffffffffffffffffffffffffffffffffff168873ffffffffffffffffffffffffffffffffffffffff1603610fe5576040517f08c379a0000000000000000000000000000000000000000000000000000000008152600401610fdc90613a3b565b60405180910390fd5b610fee81611eb8565b156110fc57631626ba7e60e01b8173ffffffffffffffffffffffffffffffffffffffff16631626ba7e8487878a60405160200161102d93929190613a8d565b6040516020818303038152906040526040518363ffffffff1660e01b8152600401611059929190613b1b565b602060405180830381865afa158015611074573d5f803e3d5ffd5b505050506040513d601f19601f820116820180604052508101906110989190613b5d565b7bffffffffffffffffffffffffffffffffffffffffffffffffffffffff1916146110f7576040517f08c379a00000000000000000000000000000000000000000000000000000000081526004016110ee90613bd2565b60405180910390fd5b611229565b5f6001838787876040515f815260200160405260405161111f9493929190613bff565b6020604051602081039080840390855afa15801561113f573d5f803e3d5ffd5b5050506020604051035190505f73ffffffffffffffffffffffffffffffffffffffff168173ffffffffffffffffffffffffffffffffffffffff16036111b9576040517f08c379a00000000000000000000000000000000000000000000000000000000081526004016111b090613c8c565b60405180910390fd5b8173ffffffffffffffffffffffffffffffffffffffff168173ffffffffffffffffffffffffffffffffffffffff1614611227576040517f08c379a000000000000000000000000000000000000000000000000000000000815260040161121e90613bd2565b60405180910390fd5b505b611233888861168f565b5050505050505050565b5f600a5f9054906101000a900473ffffffffffffffffffffffffffffffffffffffff16905090565b606060018054611274906133bc565b80601f01602080910402602001604051908101604052809291908181526020018280546112a0906133bc565b80156112eb5780601f106112c2576101008083540402835291602001916112eb565b820191905f5260205f20905b8154815290600101906020018083116112ce57829003601f168201915b5050505050905090565b611307611300611688565b8383611eda565b5050565b600b5481565b611319611acc565b6001600a60146101000a81548160ff021916908315150217905550565b611347611341611688565b83611745565b611386576040517f08c379a000000000000000000000000000000000000000000000000000000000815260040161137d90613578565b60405180910390fd5b61139284848484612041565b50505050565b6113a0611acc565b80600b8190555050565b600a60149054906101000a900460ff16156113c3575f80fd5b6113cf8185858561209d565b6113d7575f80fd5b6113e18383611b4a565b50505050565b60606113f28261163d565b5f6113fb6120e9565b90505f8151116114195760405180602001604052805f815250611444565b8061142384612179565b604051602001611434929190613cda565b6040516020818303038152906040525b915050919050565b5f60055f8473ffffffffffffffffffffffffffffffffffffffff1673ffffffffffffffffffffffffffffffffffffffff1681526020019081526020015f205f8373ffffffffffffffffffffffffffffffffffffffff1673ffffffffffffffffffffffffffffffffffffffff1681526020019081526020015f205f9054906101000a900460ff16905092915050565b6114e2611acc565b5f73ffffffffffffffffffffffffffffffffffffffff168173ffffffffffffffffffffffffffffffffffffffff1603611550576040517f08c379a000000000000000000000000000000000000000000000000000000000815260040161154790613d6d565b60405180910390fd5b61155981611da9565b50565b5f7f80ac58cd000000000000000000000000000000000000000000000000000000007bffffffffffffffffffffffffffffffffffffffffffffffffffffffff1916827bffffffffffffffffffffffffffffffffffffffffffffffffffffffff1916148061162657507f5b5e139f000000000000000000000000000000000000000000000000000000007bffffffffffffffffffffffffffffffffffffffffffffffffffffffff1916827bffffffffffffffffffffffffffffffffffffffffffffffffffffffff1916145b80611636575061163582612243565b5b9050919050565b611646816122ac565b611685576040517f08c379a000000000000000000000000000000000000000000000000000000000815260040161167c906137bc565b60405180910390fd5b50565b5f33905090565b8160045f8381526020019081526020015f205f6101000a81548173ffffffffffffffffffffffffffffffffffffffff021916908373ffffffffffffffffffffffffffffffffffffffff160217905550808273ffffffffffffffffffffffffffffffffffffffff166116ff83610cbf565b73ffffffffffffffffffffffffffffffffffffffff167f8c5be1e5ebec7d5bd14f71427d1e84f3dd0314c0f7b2291e5b200ac8c7c3b92560405160405180910390a45050565b5f8061175083610cbf565b90508073ffffffffffffffffffffffffffffffffffffffff168473ffffffffffffffffffffffffffffffffffffffff1614806117925750611791818561144c565b5b806117d057508373ffffffffffffffffffffffffffffffffffffffff166117b88461087a565b73ffffffffffffffffffffffffffffffffffffffff16145b91505092915050565b8273ffffffffffffffffffffffffffffffffffffffff166117f982610cbf565b73ffffffffffffffffffffffffffffffffffffffff161461184f576040517f08c379a000000000000000000000000000000000000000000000000000000000815260040161184690613dfb565b60405180910390fd5b5f73ffffffffffffffffffffffffffffffffffffffff168273ffffffffffffffffffffffffffffffffffffffff16036118bd576040517f08c379a00000000000000000000000000000000000000000000000000000000081526004016118b490613e89565b60405180910390fd5b6118ca83838360016122ec565b8273ffffffffffffffffffffffffffffffffffffffff166118ea82610cbf565b73ffffffffffffffffffffffffffffffffffffffff1614611940576040517f08c379a000000000000000000000000000000000000000000000000000000000815260040161193790613dfb565b60405180910390fd5b60045f8281526020019081526020015f205f6101000a81549073ffffffffffffffffffffffffffffffffffffffff0219169055600160035f8573ffffffffffffffffffffffffffffffffffffffff1673ffffffffffffffffffffffffffffffffffffffff1681526020019081526020015f205f8282540392505081905550600160035f8473ffffffffffffffffffffffffffffffffffffffff1673ffffffffffffffffffffffffffffffffffffffff1681526020019081526020015f205f82825401925050819055508160025f8381526020019081526020015f205f6101000a81548173ffffffffffffffffffffffffffffffffffffffff021916908373ffffffffffffffffffffffffffffffffffffffff160217905550808273ffffffffffffffffffffffffffffffffffffffff168473ffffffffffffffffffffffffffffffffffffffff167fddf252ad1be2c89b69c2b068fc378daa952ba7f163c4a11628f55a4df523b3ef60405160405180910390a4611ac08383836001612447565b505050565b5f46905090565b611ad4611688565b73ffffffffffffffffffffffffffffffffffffffff16611af261123d565b73ffffffffffffffffffffffffffffffffffffffff1614611b48576040517f08c379a0000000000000000000000000000000000000000000000000000000008152600401611b3f90613ef1565b60405180910390fd5b565b5f73ffffffffffffffffffffffffffffffffffffffff168273ffffffffffffffffffffffffffffffffffffffff1603611bb8576040517f08c379a0000000000000000000000000000000000000000000000000000000008152600401611baf90613f59565b60405180910390fd5b611bc1816122ac565b15611c01576040517f08c379a0000000000000000000000000000000000000000000000000000000008152600401611bf890613fc1565b60405180910390fd5b611c0e5f838360016122ec565b611c17816122ac565b15611c57576040517f08c379a0000000000000000000000000000000000000000000000000000000008152600401611c4e90613fc1565b60405180910390fd5b600160035f8473ffffffffffffffffffffffffffffffffffffffff1673ffffffffffffffffffffffffffffffffffffffff1681526020019081526020015f205f82825401925050819055508160025f8381526020019081526020015f205f6101000a81548173ffffffffffffffffffffffffffffffffffffffff021916908373ffffffffffffffffffffffffffffffffffffffff160217905550808273ffffffffffffffffffffffffffffffffffffffff165f73ffffffffffffffffffffffffffffffffffffffff167fddf252ad1be2c89b69c2b068fc378daa952ba7f163c4a11628f55a4df523b3ef60405160405180910390a4611d595f83836001612447565b5050565b80600d9081611d6c9190614173565b5050565b5f60025f8381526020019081526020015f205f9054906101000a900473ffffffffffffffffffffffffffffffffffffffff169050919050565b5f600a5f9054906101000a900473ffffffffffffffffffffffffffffffffffffffff16905081600a5f6101000a81548173ffffffffffffffffffffffffffffffffffffffff021916908373ffffffffffffffffffffffffffffffffffffffff1602179055508173ffffffffffffffffffffffffffffffffffffffff168173ffffffffffffffffffffffffffffffffffffffff167f8be0079c531659141344cd1fd0a4f28419497f9722a3daafe3b4186f6b6457e060405160405180910390a35050565b5f42905090565b5f80600c5f8481526020019081526020015f20549050600c5f8481526020019081526020015f205f815480929190611eaa9061426f565b919050555080915050919050565b5f808273ffffffffffffffffffffffffffffffffffffffff163b119050919050565b8173ffffffffffffffffffffffffffffffffffffffff168373ffffffffffffffffffffffffffffffffffffffff1603611f48576040517f08c379a0000000000000000000000000000000000000000000000000000000008152600401611f3f90614300565b60405180910390fd5b8060055f8573ffffffffffffffffffffffffffffffffffffffff1673ffffffffffffffffffffffffffffffffffffffff1681526020019081526020015f205f8473ffffffffffffffffffffffffffffffffffffffff1673ffffffffffffffffffffffffffffffffffffffff1681526020019081526020015f205f6101000a81548160ff0219169083151502179055508173ffffffffffffffffffffffffffffffffffffffff168373ffffffffffffffffffffffffffffffffffffffff167f17307eab39ab6107e8899845ad3d59bd9653f200f220920489ca2b5937696c31836040516120349190612b4b565b60405180910390a3505050565b61204c8484846117d9565b6120588484848461244d565b612097576040517f08c379a000000000000000000000000000000000000000000000000000000000815260040161208e9061438e565b60405180910390fd5b50505050565b5f6120df600b548585856040516020016120b993929190614411565b60405160208183030381529060405280519060200120876125cf9092919063ffffffff16565b9050949350505050565b6060600d80546120f8906133bc565b80601f0160208091040260200160405190810160405280929190818152602001828054612124906133bc565b801561216f5780601f106121465761010080835404028352916020019161216f565b820191905f5260205f20905b81548152906001019060200180831161215257829003601f168201915b5050505050905090565b60605f6001612187846125e5565b0190505f8167ffffffffffffffff8111156121a5576121a4612ddd565b5b6040519080825280601f01601f1916602001820160405280156121d75781602001600182028036833780820191505090505b5090505f82602001820190505b600115612238578080600190039150507f3031323334353637383961626364656600000000000000000000000000000000600a86061a8153600a858161222d5761222c61444d565b5b0494505f85036121e4575b819350505050919050565b5f7f01ffc9a7000000000000000000000000000000000000000000000000000000007bffffffffffffffffffffffffffffffffffffffffffffffffffffffff1916827bffffffffffffffffffffffffffffffffffffffffffffffffffffffff1916149050919050565b5f8073ffffffffffffffffffffffffffffffffffffffff166122cd83611d70565b73ffffffffffffffffffffffffffffffffffffffff1614159050919050565b6122f884848484612736565b600181111561233c576040517f08c379a0000000000000000000000000000000000000000000000000000000008152600401612333906144ea565b60405180910390fd5b5f8290505f73ffffffffffffffffffffffffffffffffffffffff168573ffffffffffffffffffffffffffffffffffffffff16036123815761237c8161273c565b6123c0565b8373ffffffffffffffffffffffffffffffffffffffff168573ffffffffffffffffffffffffffffffffffffffff16146123bf576123be8582612780565b5b5b5f73ffffffffffffffffffffffffffffffffffffffff168473ffffffffffffffffffffffffffffffffffffffff1603612401576123fc816128d6565b612440565b8473ffffffffffffffffffffffffffffffffffffffff168473ffffffffffffffffffffffffffffffffffffffff161461243f5761243e8482612996565b5b5b5050505050565b50505050565b5f61246d8473ffffffffffffffffffffffffffffffffffffffff16611eb8565b156125c2578373ffffffffffffffffffffffffffffffffffffffff1663150b7a02612496611688565b8786866040518563ffffffff1660e01b81526004016124b89493929190614508565b6020604051808303815f875af19250505080156124f357506040513d601f19601f820116820180604052508101906124f09190613b5d565b60015b612572573d805f8114612521576040519150601f19603f3d011682016040523d82523d5f602084013e612526565b606091505b505f81510361256a576040517f08c379a00000000000000000000000000000000000000000000000000000000081526004016125619061438e565b60405180910390fd5b805181602001fd5b63150b7a0260e01b7bffffffffffffffffffffffffffffffffffffffffffffffffffffffff1916817bffffffffffffffffffffffffffffffffffffffffffffffffffffffff1916149150506125c7565b600190505b949350505050565b5f826125db8584612a0e565b1490509392505050565b5f805f90507a184f03e93ff9f4daa797ed6e38ed64bf6a1f0100000000000000008310612641577a184f03e93ff9f4daa797ed6e38ed64bf6a1f01000000000000000083816126375761263661444d565b5b0492506040810190505b6d04ee2d6d415b85acef8100000000831061267e576d04ee2d6d415b85acef810000000083816126745761267361444d565b5b0492506020810190505b662386f26fc1000083106126ad57662386f26fc1000083816126a3576126a261444d565b5b0492506010810190505b6305f5e10083106126d6576305f5e10083816126cc576126cb61444d565b5b0492506008810190505b61271083106126fb5761271083816126f1576126f061444d565b5b0492506004810190505b6064831061271e57606483816127145761271361444d565b5b0492506002810190505b600a831061272d576001810190505b80915050919050565b50505050565b60088054905060095f8381526020019081526020015f2081905550600881908060018154018082558091505060019003905f5260205f20015f909190919091505550565b5f600161278c84610dcf565b6127969190614552565b90505f60075f8481526020019081526020015f2054905081811461286d575f60065f8673ffffffffffffffffffffffffffffffffffffffff1673ffffffffffffffffffffffffffffffffffffffff1681526020019081526020015f205f8481526020019081526020015f205490508060065f8773ffffffffffffffffffffffffffffffffffffffff1673ffffffffffffffffffffffffffffffffffffffff1681526020019081526020015f205f8481526020019081526020015f20819055508160075f8381526020019081526020015f2081905550505b60075f8481526020019081526020015f205f905560065f8573ffffffffffffffffffffffffffffffffffffffff1673ffffffffffffffffffffffffffffffffffffffff1681526020019081526020015f205f8381526020019081526020015f205f905550505050565b5f60016008805490506128e99190614552565b90505f60095f8481526020019081526020015f205490505f6008838154811061291557612914613745565b5b905f5260205f2001549050806008838154811061293557612934613745565b5b905f5260205f2001819055508160095f8381526020019081526020015f208190555060095f8581526020019081526020015f205f9055600880548061297d5761297c614585565b5b600190038181905f5260205f20015f9055905550505050565b5f6129a083610dcf565b90508160065f8573ffffffffffffffffffffffffffffffffffffffff1673ffffffffffffffffffffffffffffffffffffffff1681526020019081526020015f205f8381526020019081526020015f20819055508060075f8481526020019081526020015f2081905550505050565b5f808290505f5b8451811015612a5757612a4282868381518110612a3557612a34613745565b5b6020026020010151612a62565b91508080612a4f9061426f565b915050612a15565b508091505092915050565b5f818310612a7957612a748284612a8c565b612a84565b612a838383612a8c565b5b905092915050565b5f825f528160205260405f20905092915050565b5f604051905090565b5f80fd5b5f80fd5b5f7fffffffff0000000000000000000000000000000000000000000000000000000082169050919050565b612ae581612ab1565b8114612aef575f80fd5b50565b5f81359050612b0081612adc565b92915050565b5f60208284031215612b1b57612b1a612aa9565b5b5f612b2884828501612af2565b91505092915050565b5f8115159050919050565b612b4581612b31565b82525050565b5f602082019050612b5e5f830184612b3c565b92915050565b5f81519050919050565b5f82825260208201905092915050565b5f5b83811015612b9b578082015181840152602081019050612b80565b5f8484015250505050565b5f601f19601f8301169050919050565b5f612bc082612b64565b612bca8185612b6e565b9350612bda818560208601612b7e565b612be381612ba6565b840191505092915050565b5f6020820190508181035f830152612c068184612bb6565b905092915050565b5f819050919050565b612c2081612c0e565b8114612c2a575f80fd5b50565b5f81359050612c3b81612c17565b92915050565b5f60208284031215612c5657612c55612aa9565b5b5f612c6384828501612c2d565b91505092915050565b5f73ffffffffffffffffffffffffffffffffffffffff82169050919050565b5f612c9582612c6c565b9050919050565b612ca581612c8b565b82525050565b5f602082019050612cbe5f830184612c9c565b92915050565b612ccd81612c8b565b8114612cd7575f80fd5b50565b5f81359050612ce881612cc4565b92915050565b5f8060408385031215612d0457612d03612aa9565b5b5f612d1185828601612cda565b9250506020612d2285828601612c2d565b9150509250929050565b612d3581612c0e565b82525050565b5f602082019050612d4e5f830184612d2c565b92915050565b5f805f60608486031215612d6b57612d6a612aa9565b5b5f612d7886828701612cda565b9350506020612d8986828701612cda565b9250506040612d9a86828701612c2d565b9150509250925092565b5f819050919050565b612db681612da4565b82525050565b5f602082019050612dcf5f830184612dad565b92915050565b5f80fd5b5f80fd5b7f4e487b71000000000000000000000000000000000000000000000000000000005f52604160045260245ffd5b612e1382612ba6565b810181811067ffffffffffffffff82111715612e3257612e31612ddd565b5b80604052505050565b5f612e44612aa0565b9050612e508282612e0a565b919050565b5f67ffffffffffffffff821115612e6f57612e6e612ddd565b5b612e7882612ba6565b9050602081019050919050565b828183375f83830152505050565b5f612ea5612ea084612e55565b612e3b565b905082815260208101848484011115612ec157612ec0612dd9565b5b612ecc848285612e85565b509392505050565b5f82601f830112612ee857612ee7612dd5565b5b8135612ef8848260208601612e93565b91505092915050565b5f60208284031215612f1657612f15612aa9565b5b5f82013567ffffffffffffffff811115612f3357612f32612aad565b5b612f3f84828501612ed4565b91505092915050565b5f60208284031215612f5d57612f5c612aa9565b5b5f612f6a84828501612cda565b91505092915050565b5f60ff82169050919050565b612f8881612f73565b8114612f92575f80fd5b50565b5f81359050612fa381612f7f565b92915050565b612fb281612da4565b8114612fbc575f80fd5b50565b5f81359050612fcd81612fa9565b92915050565b5f805f805f8060c08789031215612fed57612fec612aa9565b5b5f612ffa89828a01612cda565b965050602061300b89828a01612c2d565b955050604061301c89828a01612c2d565b945050606061302d89828a01612f95565b935050608061303e89828a01612fbf565b92505060a061304f89828a01612fbf565b9150509295509295509295565b61306581612b31565b811461306f575f80fd5b50565b5f813590506130808161305c565b92915050565b5f806040838503121561309c5761309b612aa9565b5b5f6130a985828601612cda565b92505060206130ba85828601613072565b9150509250929050565b5f67ffffffffffffffff8211156130de576130dd612ddd565b5b6130e782612ba6565b9050602081019050919050565b5f613106613101846130c4565b612e3b565b90508281526020810184848401111561312257613121612dd9565b5b61312d848285612e85565b509392505050565b5f82601f83011261314957613148612dd5565b5b81356131598482602086016130f4565b91505092915050565b5f805f806080858703121561317a57613179612aa9565b5b5f61318787828801612cda565b945050602061319887828801612cda565b93505060406131a987828801612c2d565b925050606085013567ffffffffffffffff8111156131ca576131c9612aad565b5b6131d687828801613135565b91505092959194509250565b5f602082840312156131f7576131f6612aa9565b5b5f61320484828501612fbf565b91505092915050565b5f67ffffffffffffffff82111561322757613226612ddd565b5b602082029050602081019050919050565b5f80fd5b5f61324e6132498461320d565b612e3b565b9050808382526020820190506020840283018581111561327157613270613238565b5b835b8181101561329a57806132868882612fbf565b845260208401935050602081019050613273565b5050509392505050565b5f82601f8301126132b8576132b7612dd5565b5b81356132c884826020860161323c565b91505092915050565b5f805f80608085870312156132e9576132e8612aa9565b5b5f6132f687828801612c2d565b945050602061330787828801612cda565b935050604061331887828801612c2d565b925050606085013567ffffffffffffffff81111561333957613338612aad565b5b613345878288016132a4565b91505092959194509250565b5f806040838503121561336757613366612aa9565b5b5f61337485828601612cda565b925050602061338585828601612cda565b9150509250929050565b7f4e487b71000000000000000000000000000000000000000000000000000000005f52602260045260245ffd5b5f60028204905060018216806133d357607f821691505b6020821081036133e6576133e561338f565b5b50919050565b7f4552433732313a20617070726f76616c20746f2063757272656e74206f776e655f8201527f7200000000000000000000000000000000000000000000000000000000000000602082015250565b5f613446602183612b6e565b9150613451826133ec565b604082019050919050565b5f6020820190508181035f8301526134738161343a565b9050919050565b7f4552433732313a20617070726f76652063616c6c6572206973206e6f7420746f5f8201527f6b656e206f776e6572206f7220617070726f76656420666f7220616c6c000000602082015250565b5f6134d4603d83612b6e565b91506134df8261347a565b604082019050919050565b5f6020820190508181035f830152613501816134c8565b9050919050565b7f4552433732313a2063616c6c6572206973206e6f7420746f6b656e206f776e655f8201527f72206f7220617070726f76656400000000000000000000000000000000000000602082015250565b5f613562602d83612b6e565b915061356d82613508565b604082019050919050565b5f6020820190508181035f83015261358f81613556565b9050919050565b7f455243373231456e756d657261626c653a206f776e657220696e646578206f755f8201527f74206f6620626f756e6473000000000000000000000000000000000000000000602082015250565b5f6135f0602b83612b6e565b91506135fb82613596565b604082019050919050565b5f6020820190508181035f83015261361d816135e4565b9050919050565b5f819050919050565b5f819050919050565b5f61365061364b61364684613624565b61362d565b612c0e565b9050919050565b61366081613636565b82525050565b5f60a0820190506136795f830188613657565b6136866020830187612dad565b6136936040830186612dad565b6136a06060830185612d2c565b6136ad6080830184612c9c565b9695505050505050565b7f455243373231456e756d657261626c653a20676c6f62616c20696e646578206f5f8201527f7574206f6620626f756e64730000000000000000000000000000000000000000602082015250565b5f613711602c83612b6e565b915061371c826136b7565b604082019050919050565b5f6020820190508181035f83015261373e81613705565b9050919050565b7f4e487b71000000000000000000000000000000000000000000000000000000005f52603260045260245ffd5b7f4552433732313a20696e76616c696420746f6b656e20494400000000000000005f82015250565b5f6137a6601883612b6e565b91506137b182613772565b602082019050919050565b5f6020820190508181035f8301526137d38161379a565b9050919050565b7f4552433732313a2061646472657373207a65726f206973206e6f7420612076615f8201527f6c6964206f776e65720000000000000000000000000000000000000000000000602082015250565b5f613834602983612b6e565b915061383f826137da565b604082019050919050565b5f6020820190508181035f83015261386181613828565b9050919050565b7f5065726d697420657870697265640000000000000000000000000000000000005f82015250565b5f61389c600e83612b6e565b91506138a782613868565b602082019050919050565b5f6020820190508181035f8301526138c981613890565b9050919050565b5f60a0820190506138e35f830188612dad565b6138f06020830187612c9c565b6138fd6040830186612d2c565b61390a6060830185612d2c565b6139176080830184612d2c565b9695505050505050565b5f81905092915050565b7f19010000000000000000000000000000000000000000000000000000000000005f82015250565b5f61395f600283613921565b915061396a8261392b565b600282019050919050565b5f819050919050565b61398f61398a82612da4565b613975565b82525050565b5f61399f82613953565b91506139ab828561397e565b6020820191506139bb828461397e565b6020820191508190509392505050565b7f4552433732315065726d69743a20617070726f76616c20746f2063757272656e5f8201527f74206f776e657200000000000000000000000000000000000000000000000000602082015250565b5f613a25602783612b6e565b9150613a30826139cb565b604082019050919050565b5f6020820190508181035f830152613a5281613a19565b9050919050565b5f8160f81b9050919050565b5f613a6f82613a59565b9050919050565b613a87613a8282612f73565b613a65565b82525050565b5f613a98828661397e565b602082019150613aa8828561397e565b602082019150613ab88284613a76565b600182019150819050949350505050565b5f81519050919050565b5f82825260208201905092915050565b5f613aed82613ac9565b613af78185613ad3565b9350613b07818560208601612b7e565b613b1081612ba6565b840191505092915050565b5f604082019050613b2e5f830185612dad565b8181036020830152613b408184613ae3565b90509392505050565b5f81519050613b5781612adc565b92915050565b5f60208284031215613b7257613b71612aa9565b5b5f613b7f84828501613b49565b91505092915050565b7f556e617574686f72697a656400000000000000000000000000000000000000005f82015250565b5f613bbc600c83612b6e565b9150613bc782613b88565b602082019050919050565b5f6020820190508181035f830152613be981613bb0565b9050919050565b613bf981612f73565b82525050565b5f608082019050613c125f830187612dad565b613c1f6020830186613bf0565b613c2c6040830185612dad565b613c396060830184612dad565b95945050505050565b7f496e76616c6964207369676e61747572650000000000000000000000000000005f82015250565b5f613c76601183612b6e565b9150613c8182613c42565b602082019050919050565b5f6020820190508181035f830152613ca381613c6a565b9050919050565b5f613cb482612b64565b613cbe8185613921565b9350613cce818560208601612b7e565b80840191505092915050565b5f613ce58285613caa565b9150613cf18284613caa565b91508190509392505050565b7f4f776e61626c653a206e6577206f776e657220697320746865207a65726f20615f8201527f6464726573730000000000000000000000000000000000000000000000000000602082015250565b5f613d57602683612b6e565b9150613d6282613cfd565b604082019050919050565b5f6020820190508181035f830152613d8481613d4b565b9050919050565b7f4552433732313a207472616e736665722066726f6d20696e636f7272656374205f8201527f6f776e6572000000000000000000000000000000000000000000000000000000602082015250565b5f613de5602583612b6e565b9150613df082613d8b565b604082019050919050565b5f6020820190508181035f830152613e1281613dd9565b9050919050565b7f4552433732313a207472616e7366657220746f20746865207a65726f206164645f8201527f7265737300000000000000000000000000000000000000000000000000000000602082015250565b5f613e73602483612b6e565b9150613e7e82613e19565b604082019050919050565b5f6020820190508181035f830152613ea081613e67565b9050919050565b7f4f776e61626c653a2063616c6c6572206973206e6f7420746865206f776e65725f82015250565b5f613edb602083612b6e565b9150613ee682613ea7565b602082019050919050565b5f6020820190508181035f830152613f0881613ecf565b9050919050565b7f4552433732313a206d696e7420746f20746865207a65726f20616464726573735f82015250565b5f613f43602083612b6e565b9150613f4e82613f0f565b602082019050919050565b5f6020820190508181035f830152613f7081613f37565b9050919050565b7f4552433732313a20746f6b656e20616c7265616479206d696e746564000000005f82015250565b5f613fab601c83612b6e565b9150613fb682613f77565b602082019050919050565b5f6020820190508181035f830152613fd881613f9f565b9050919050565b5f819050815f5260205f209050919050565b5f6020601f8301049050919050565b5f82821b905092915050565b5f6008830261403b7fffffffffffffffffffffffffffffffffffffffffffffffffffffffffffffffff82614000565b6140458683614000565b95508019841693508086168417925050509392505050565b5f61407761407261406d84612c0e565b61362d565b612c0e565b9050919050565b5f819050919050565b6140908361405d565b6140a461409c8261407e565b84845461400c565b825550505050565b5f90565b6140b86140ac565b6140c3818484614087565b505050565b5b818110156140e6576140db5f826140b0565b6001810190506140c9565b5050565b601f82111561412b576140fc81613fdf565b61410584613ff1565b81016020851015614114578190505b61412861412085613ff1565b8301826140c8565b50505b505050565b5f82821c905092915050565b5f61414b5f1984600802614130565b1980831691505092915050565b5f614163838361413c565b9150826002028217905092915050565b61417c82612b64565b67ffffffffffffffff81111561419557614194612ddd565b5b61419f82546133bc565b6141aa8282856140ea565b5f60209050601f8311600181146141db575f84156141c9578287015190505b6141d38582614158565b86555061423a565b601f1984166141e986613fdf565b5f5b82811015614210578489015182556001820191506020850194506020810190506141eb565b8683101561422d5784890151614229601f89168261413c565b8355505b6001600288020188555050505b505050505050565b7f4e487b71000000000000000000000000000000000000000000000000000000005f52601160045260245ffd5b5f61427982612c0e565b91507fffffffffffffffffffffffffffffffffffffffffffffffffffffffffffffffff82036142ab576142aa614242565b5b600182019050919050565b7f4552433732313a20617070726f766520746f2063616c6c6572000000000000005f82015250565b5f6142ea601983612b6e565b91506142f5826142b6565b602082019050919050565b5f6020820190508181035f830152614317816142de565b9050919050565b7f4552433732313a207472616e7366657220746f206e6f6e2045524337323152655f8201527f63656976657220696d706c656d656e7465720000000000000000000000000000602082015250565b5f614378603283612b6e565b91506143838261431e565b604082019050919050565b5f6020820190508181035f8301526143a58161436c565b9050919050565b5f819050919050565b6143c66143c182612c0e565b6143ac565b82525050565b5f8160601b9050919050565b5f6143e2826143cc565b9050919050565b5f6143f3826143d8565b9050919050565b61440b61440682612c8b565b6143e9565b82525050565b5f61441c82866143b5565b60208201915061442c82856143fa565b60148201915061443c82846143b5565b602082019150819050949350505050565b7f4e487b71000000000000000000000000000000000000000000000000000000005f52601260045260245ffd5b7f455243373231456e756d657261626c653a20636f6e73656375746976652074725f8201527f616e7366657273206e6f7420737570706f727465640000000000000000000000602082015250565b5f6144d4603583612b6e565b91506144df8261447a565b604082019050919050565b5f6020820190508181035f830152614501816144c8565b9050919050565b5f60808201905061451b5f830187612c9c565b6145286020830186612c9c565b6145356040830185612d2c565b81810360608301526145478184613ae3565b905095945050505050565b5f61455c82612c0e565b915061456783612c0e565b925082820390508181111561457f5761457e614242565b5b92915050565b7f4e487b71000000000000000000000000000000000000000000000000000000005f52603160045260245ffdfea26469706673582212208dc1b043711f73e7a4eeefd56f7b874dc6ebf5b21aec2fbaa52ae620f523d06964736f6c63430008140033697066733a2f2f62616679626569657a7062717136666176707337346572776e3335697263616532787171646d637a786a7337696d6f73646b6e3661686d75786d652f",
  "linkReferences": {},
  "deployedLinkReferences": {}
}