{
  "_format": "hh-sol-artifact-1",
  "contractName": "TRIS",
  "sourceName": "contracts/TRIS.sol",
  "abi": [
    {
      "inputs": [
        {
          "internalType": "bytes32",
          "name": "_merkleRoot",
          "type": "bytes32"
        }
      ],
      "stateMutability": "nonpayable",
      "type": "constructor"
    },
    {
      "anonymous": false,
      "inputs": [
        {
          "indexed": true,
          "internalType": "address",
          "name": "owner",
          "type": "address"
        },
        {
          "indexed": true,
          "internalType": "address",
          "name": "approved",
          "type": "address"
        },
        {
          "indexed": true,
          "internalType": "uint256",
          "name": "tokenId",
          "type": "uint256"
        }
      ],
      "name": "Approval",
      "type": "event"
    },
    {
      "anonymous": false,
      "inputs": [
        {
          "indexed": true,
          "internalType": "address",
          "name": "owner",
          "type": "address"
        },
        {
          "indexed": true,
          "internalType": "address",
          "name": "operator",
          "type": "address"
        },
        {
          "indexed": false,
          "internalType": "bool",
          "name": "approved",
          "type": "bool"
        }
      ],
      "name": "ApprovalForAll",
      "type": "event"
    },
    {
      "anonymous": false,
      "inputs": [
        {
          "indexed": true,
          "internalType": "address",
          "name": "previousOwner",
          "type": "address"
        },
        {
          "indexed": true,
          "internalType": "address",
          "name": "newOwner",
          "type": "address"
        }
      ],
      "name": "OwnershipTransferred",
      "type": "event"
    },
    {
      "anonymous": false,
      "inputs": [
        {
          "indexed": true,
          "internalType": "address",
          "name": "from",
          "type": "address"
        },
        {
          "indexed": true,
          "internalType": "address",
          "name": "to",
          "type": "address"
        },
        {
          "indexed": true,
          "internalType": "uint256",
          "name": "tokenId",
          "type": "uint256"
        }
      ],
      "name": "Transfer",
      "type": "event"
    },
    {
      "inputs": [],
      "name": "DOMAIN_SEPARATOR",
      "outputs": [
        {
          "internalType": "bytes32",
          "name": "",
          "type": "bytes32"
        }
      ],
      "stateMutability": "view",
      "type": "function"
    },
    {
      "inputs": [],
      "name": "PERMIT_TYPEHASH",
      "outputs": [
        {
          "internalType": "bytes32",
          "name": "",
          "type": "bytes32"
        }
      ],
      "stateMutability": "view",
      "type": "function"
    },
    {
      "inputs": [],
      "name": "__baseURI",
      "outputs": [
        {
          "internalType": "string",
          "name": "",
          "type": "string"
        }
      ],
      "stateMutability": "view",
      "type": "function"
    },
    {
      "inputs": [
        {
          "internalType": "address",
          "name": "_to",
          "type": "address"
        },
        {
          "internalType": "uint256",
          "name": "_tokenId",
          "type": "uint256"
        }
      ],
      "name": "adminMint",
      "outputs": [],
      "stateMutability": "nonpayable",
      "type": "function"
    },
    {
      "inputs": [
        {
          "internalType": "address",
          "name": "to",
          "type": "address"
        },
        {
          "internalType": "uint256",
          "name": "tokenId",
          "type": "uint256"
        }
      ],
      "name": "approve",
      "outputs": [],
      "stateMutability": "nonpayable",
      "type": "function"
    },
    {
      "inputs": [
        {
          "internalType": "address",
          "name": "owner",
          "type": "address"
        }
      ],
      "name": "balanceOf",
      "outputs": [
        {
          "internalType": "uint256",
          "name": "",
          "type": "uint256"
        }
      ],
      "stateMutability": "view",
      "type": "function"
    },
    {
      "inputs": [
        {
          "internalType": "address",
          "name": "",
          "type": "address"
        }
      ],
      "name": "claimed",
      "outputs": [
        {
          "internalType": "bool",
          "name": "",
          "type": "bool"
        }
      ],
      "stateMutability": "view",
      "type": "function"
    },
    {
      "inputs": [
        {
          "internalType": "uint256",
          "name": "tokenId",
          "type": "uint256"
        }
      ],
      "name": "getApproved",
      "outputs": [
        {
          "internalType": "address",
          "name": "",
          "type": "address"
        }
      ],
      "stateMutability": "view",
      "type": "function"
    },
    {
      "inputs": [
        {
          "internalType": "address",
          "name": "owner",
          "type": "address"
        },
        {
          "internalType": "address",
          "name": "operator",
          "type": "address"
        }
      ],
      "name": "isApprovedForAll",
      "outputs": [
        {
          "internalType": "bool",
          "name": "",
          "type": "bool"
        }
      ],
      "stateMutability": "view",
      "type": "function"
    },
    {
      "inputs": [],
      "name": "isMintingEnabled",
      "outputs": [
        {
          "internalType": "bool",
          "name": "",
          "type": "bool"
        }
      ],
      "stateMutability": "view",
      "type": "function"
    },
    {
      "inputs": [],
      "name": "isPublicMint",
      "outputs": [
        {
          "internalType": "bool",
          "name": "",
          "type": "bool"
        }
      ],
      "stateMutability": "view",
      "type": "function"
    },
    {
      "inputs": [],
      "name": "merkleRoot",
      "outputs": [
        {
          "internalType": "bytes32",
          "name": "",
          "type": "bytes32"
        }
      ],
      "stateMutability": "view",
      "type": "function"
    },
    {
      "inputs": [
        {
          "internalType": "bytes32[]",
          "name": "merkleProof",
          "type": "bytes32[]"
        }
      ],
      "name": "mint",
      "outputs": [],
      "stateMutability": "payable",
      "type": "function"
    },
    {
      "inputs": [],
      "name": "mintingEnabled",
      "outputs": [
        {
          "internalType": "bool",
          "name": "",
          "type": "bool"
        }
      ],
      "stateMutability": "view",
      "type": "function"
    },
    {
      "inputs": [],
      "name": "name",
      "outputs": [
        {
          "internalType": "string",
          "name": "",
          "type": "string"
        }
      ],
      "stateMutability": "view",
      "type": "function"
    },
    {
      "inputs": [],
      "name": "nextTokenId",
      "outputs": [
        {
          "internalType": "uint256",
          "name": "",
          "type": "uint256"
        }
      ],
      "stateMutability": "view",
      "type": "function"
    },
    {
      "inputs": [
        {
          "internalType": "uint256",
          "name": "",
          "type": "uint256"
        }
      ],
      "name": "nonces",
      "outputs": [
        {
          "internalType": "uint256",
          "name": "",
          "type": "uint256"
        }
      ],
      "stateMutability": "view",
      "type": "function"
    },
    {
      "inputs": [],
      "name": "owner",
      "outputs": [
        {
          "internalType": "address",
          "name": "",
          "type": "address"
        }
      ],
      "stateMutability": "view",
      "type": "function"
    },
    {
      "inputs": [
        {
          "internalType": "uint256",
          "name": "tokenId",
          "type": "uint256"
        }
      ],
      "name": "ownerOf",
      "outputs": [
        {
          "internalType": "address",
          "name": "",
          "type": "address"
        }
      ],
      "stateMutability": "view",
      "type": "function"
    },
    {
      "inputs": [
        {
          "internalType": "address",
          "name": "spender",
          "type": "address"
        },
        {
          "internalType": "uint256",
          "name": "tokenId",
          "type": "uint256"
        },
        {
          "internalType": "uint256",
          "name": "deadline",
          "type": "uint256"
        },
        {
          "internalType": "uint8",
          "name": "v",
          "type": "uint8"
        },
        {
          "internalType": "bytes32",
          "name": "r",
          "type": "bytes32"
        },
        {
          "internalType": "bytes32",
          "name": "s",
          "type": "bytes32"
        }
      ],
      "name": "permit",
      "outputs": [],
      "stateMutability": "payable",
      "type": "function"
    },
    {
      "inputs": [],
      "name": "publicMint",
      "outputs": [
        {
          "internalType": "bool",
          "name": "",
          "type": "bool"
        }
      ],
      "stateMutability": "view",
      "type": "function"
    },
    {
      "inputs": [],
      "name": "renounceOwnership",
      "outputs": [],
      "stateMutability": "nonpayable",
      "type": "function"
    },
    {
      "inputs": [
        {
          "internalType": "address",
          "name": "from",
          "type": "address"
        },
        {
          "internalType": "address",
          "name": "to",
          "type": "address"
        },
        {
          "internalType": "uint256",
          "name": "tokenId",
          "type": "uint256"
        }
      ],
      "name": "safeTransferFrom",
      "outputs": [],
      "stateMutability": "nonpayable",
      "type": "function"
    },
    {
      "inputs": [
        {
          "internalType": "address",
          "name": "from",
          "type": "address"
        },
        {
          "internalType": "address",
          "name": "to",
          "type": "address"
        },
        {
          "internalType": "uint256",
          "name": "tokenId",
          "type": "uint256"
        },
        {
          "internalType": "bytes",
          "name": "data",
          "type": "bytes"
        }
      ],
      "name": "safeTransferFrom",
      "outputs": [],
      "stateMutability": "nonpayable",
      "type": "function"
    },
    {
      "inputs": [
        {
          "internalType": "address",
          "name": "operator",
          "type": "address"
        },
        {
          "internalType": "bool",
          "name": "approved",
          "type": "bool"
        }
      ],
      "name": "setApprovalForAll",
      "outputs": [],
      "stateMutability": "nonpayable",
      "type": "function"
    },
    {
      "inputs": [
        {
          "internalType": "string",
          "name": "_uri",
          "type": "string"
        }
      ],
      "name": "setBaseURI",
      "outputs": [],
      "stateMutability": "nonpayable",
      "type": "function"
    },
    {
      "inputs": [],
      "name": "startMinting",
      "outputs": [],
      "stateMutability": "nonpayable",
      "type": "function"
    },
    {
      "inputs": [],
      "name": "startPublicMint",
      "outputs": [],
      "stateMutability": "nonpayable",
      "type": "function"
    },
    {
      "inputs": [
        {
          "internalType": "bytes4",
          "name": "interfaceId",
          "type": "bytes4"
        }
      ],
      "name": "supportsInterface",
      "outputs": [
        {
          "internalType": "bool",
          "name": "",
          "type": "bool"
        }
      ],
      "stateMutability": "view",
      "type": "function"
    },
    {
      "inputs": [],
      "name": "symbol",
      "outputs": [
        {
          "internalType": "string",
          "name": "",
          "type": "string"
        }
      ],
      "stateMutability": "view",
      "type": "function"
    },
    {
      "inputs": [
        {
          "internalType": "uint256",
          "name": "index",
          "type": "uint256"
        }
      ],
      "name": "tokenByIndex",
      "outputs": [
        {
          "internalType": "uint256",
          "name": "",
          "type": "uint256"
        }
      ],
      "stateMutability": "view",
      "type": "function"
    },
    {
      "inputs": [
        {
          "internalType": "address",
          "name": "owner",
          "type": "address"
        },
        {
          "internalType": "uint256",
          "name": "index",
          "type": "uint256"
        }
      ],
      "name": "tokenOfOwnerByIndex",
      "outputs": [
        {
          "internalType": "uint256",
          "name": "",
          "type": "uint256"
        }
      ],
      "stateMutability": "view",
      "type": "function"
    },
    {
      "inputs": [
        {
          "internalType": "uint256",
          "name": "tokenId",
          "type": "uint256"
        }
      ],
      "name": "tokenURI",
      "outputs": [
        {
          "internalType": "string",
          "name": "",
          "type": "string"
        }
      ],
      "stateMutability": "view",
      "type": "function"
    },
    {
      "inputs": [],
      "name": "totalSupply",
      "outputs": [
        {
          "internalType": "uint256",
          "name": "",
          "type": "uint256"
        }
      ],
      "stateMutability": "view",
      "type": "function"
    },
    {
      "inputs": [
        {
          "internalType": "address",
          "name": "from",
          "type": "address"
        },
        {
          "internalType": "address",
          "name": "to",
          "type": "address"
        },
        {
          "internalType": "uint256",
          "name": "tokenId",
          "type": "uint256"
        }
      ],
      "name": "transferFrom",
      "outputs": [],
      "stateMutability": "nonpayable",
      "type": "function"
    },
    {
      "inputs": [
        {
          "internalType": "address",
          "name": "newOwner",
          "type": "address"
        }
      ],
      "name": "transferOwnership",
      "outputs": [],
      "stateMutability": "nonpayable",
      "type": "function"
    },
    {
      "inputs": [],
      "name": "version",
      "outputs": [
        {
          "internalType": "string",
          "name": "",
          "type": "string"
        }
      ],
      "stateMutability": "pure",
      "type": "function"
    }
  ],
  "bytecode": "0x60e06040525f600f5f6101000a81548160ff0219169083151502179055505f600f60016101000a81548160ff0219169083151502179055506703bf3b91c95b00006010553480156200004f575f80fd5b506040516200540e3803806200540e8339818101604052810190620000759190620002d3565b6040518060400160405280600481526020017f54524953000000000000000000000000000000000000000000000000000000008152506040518060400160405280600481526020017f54524953000000000000000000000000000000000000000000000000000000008152506040518060400160405280600181526020017f31000000000000000000000000000000000000000000000000000000000000008152508282815f908162000129919062000567565b5080600190816200013b919062000567565b505050828051906020012060808181525050808051906020012060a081815250505050506200017f62000173620001b860201b60201c565b620001bf60201b60201c565b8060c08181525050620001b1604051806080016040528060438152602001620053cb604391396200028260201b60201c565b506200064b565b5f33905090565b5f600a5f9054906101000a900473ffffffffffffffffffffffffffffffffffffffff16905081600a5f6101000a81548173ffffffffffffffffffffffffffffffffffffffff021916908373ffffffffffffffffffffffffffffffffffffffff1602179055508173ffffffffffffffffffffffffffffffffffffffff168173ffffffffffffffffffffffffffffffffffffffff167f8be0079c531659141344cd1fd0a4f28419497f9722a3daafe3b4186f6b6457e060405160405180910390a35050565b80600c908162000293919062000567565b5050565b5f80fd5b5f819050919050565b620002af816200029b565b8114620002ba575f80fd5b50565b5f81519050620002cd81620002a4565b92915050565b5f60208284031215620002eb57620002ea62000297565b5b5f620002fa84828501620002bd565b91505092915050565b5f81519050919050565b7f4e487b71000000000000000000000000000000000000000000000000000000005f52604160045260245ffd5b7f4e487b71000000000000000000000000000000000000000000000000000000005f52602260045260245ffd5b5f60028204905060018216806200037f57607f821691505b6020821081036200039557620003946200033a565b5b50919050565b5f819050815f5260205f209050919050565b5f6020601f8301049050919050565b5f82821b905092915050565b5f60088302620003f97fffffffffffffffffffffffffffffffffffffffffffffffffffffffffffffffff82620003bc565b620004058683620003bc565b95508019841693508086168417925050509392505050565b5f819050919050565b5f819050919050565b5f6200044f6200044962000443846200041d565b62000426565b6200041d565b9050919050565b5f819050919050565b6200046a836200042f565b62000482620004798262000456565b848454620003c8565b825550505050565b5f90565b620004986200048a565b620004a58184846200045f565b505050565b5b81811015620004cc57620004c05f826200048e565b600181019050620004ab565b5050565b601f8211156200051b57620004e5816200039b565b620004f084620003ad565b8101602085101562000500578190505b620005186200050f85620003ad565b830182620004aa565b50505b505050565b5f82821c905092915050565b5f6200053d5f198460080262000520565b1980831691505092915050565b5f6200055783836200052c565b9150826002028217905092915050565b620005728262000303565b67ffffffffffffffff8111156200058e576200058d6200030d565b5b6200059a825462000367565b620005a7828285620004d0565b5f60209050601f831160018114620005dd575f8415620005c8578287015190505b620005d485826200054a565b86555062000643565b601f198416620005ed866200039b565b5f5b828110156200061657848901518255600182019150602085019450602081019050620005ef565b8683101562000636578489015162000632601f8916826200052c565b8355505b6001600288020188555050505b505050505050565b60805160a05160c051614d4e6200067d5f395f8181610b74015261171e01525f610cb401525f610c930152614d4e5ff3fe608060405260043610610219575f3560e01c80636352211e116101225780639a65ea26116100aa578063c87b56dd1161006e578063c87b56dd14610777578063c884ef83146107b3578063e58306f9146107ef578063e985e9c514610817578063f2fde38b1461085357610219565b80639a65ea26146106cb5780639fd6db12146106e1578063a22cb4651461070b578063b77a147b14610733578063b88d4fde1461074f57610219565b806375794a3c116100f157806375794a3c1461061b57806376c64c62146106455780637ac2ff7b1461065b5780638da5cb5b1461067757806395d89b41146106a157610219565b80636352211e146105635780636e34a4821461059f57806370a08231146105c9578063715018a61461060557610219565b80632f745c59116101a557806342842e0e1161017457806342842e0e146104835780634f6ccce7146104ab57806354fd4d50146104e757806355c7ba141461051157806355f804b31461053b57610219565b80632f745c59146103c95780633057931f1461040557806330adf81f1461042f5780633644e5151461045957610219565b8063141a468c116101ec578063141a468c146102e757806318160ddd1461032357806323b872dd1461034d57806326092b83146103755780632eb4a7ab1461039f57610219565b806301ffc9a71461021d57806306fdde0314610259578063081812fc14610283578063095ea7b3146102bf575b5f80fd5b348015610228575f80fd5b50610243600480360381019061023e9190613053565b61087b565b6040516102509190613098565b60405180910390f35b348015610264575f80fd5b5061026d6108f4565b60405161027a919061313b565b60405180910390f35b34801561028e575f80fd5b506102a960048036038101906102a4919061318e565b610983565b6040516102b691906131f8565b60405180910390f35b3480156102ca575f80fd5b506102e560048036038101906102e0919061323b565b6109c5565b005b3480156102f2575f80fd5b5061030d6004803603810190610308919061318e565b610adb565b60405161031a9190613288565b60405180910390f35b34801561032e575f80fd5b50610337610af0565b6040516103449190613288565b60405180910390f35b348015610358575f80fd5b50610373600480360381019061036e91906132a1565b610afc565b005b348015610380575f80fd5b50610389610b5c565b6040516103969190613098565b60405180910390f35b3480156103aa575f80fd5b506103b3610b72565b6040516103c09190613309565b60405180910390f35b3480156103d4575f80fd5b506103ef60048036038101906103ea919061323b565b610b96565b6040516103fc9190613288565b60405180910390f35b348015610410575f80fd5b50610419610c36565b6040516104269190613098565b60405180910390f35b34801561043a575f80fd5b50610443610c49565b6040516104509190613309565b60405180910390f35b348015610464575f80fd5b5061046d610c6f565b60405161047a9190613309565b60405180910390f35b34801561048e575f80fd5b506104a960048036038101906104a491906132a1565b610d0b565b005b3480156104b6575f80fd5b506104d160048036038101906104cc919061318e565b610d2a565b6040516104de9190613288565b60405180910390f35b3480156104f2575f80fd5b506104fb610d98565b604051610508919061313b565b60405180910390f35b34801561051c575f80fd5b50610525610dd5565b6040516105329190613098565b60405180910390f35b348015610546575f80fd5b50610561600480360381019061055c919061344e565b610de7565b005b34801561056e575f80fd5b506105896004803603810190610584919061318e565b610dfb565b60405161059691906131f8565b60405180910390f35b3480156105aa575f80fd5b506105b3610e7f565b6040516105c0919061313b565b60405180910390f35b3480156105d4575f80fd5b506105ef60048036038101906105ea9190613495565b610f0b565b6040516105fc9190613288565b60405180910390f35b348015610610575f80fd5b50610619610fbf565b005b348015610626575f80fd5b5061062f610fd2565b60405161063c9190613288565b60405180910390f35b348015610650575f80fd5b50610659610fd8565b005b61067560048036038101906106709190613520565b611052565b005b348015610682575f80fd5b5061068b6113f9565b60405161069891906131f8565b60405180910390f35b3480156106ac575f80fd5b506106b5611421565b6040516106c2919061313b565b60405180910390f35b3480156106d6575f80fd5b506106df6114b1565b005b3480156106ec575f80fd5b506106f5611529565b6040516107029190613098565b60405180910390f35b348015610716575f80fd5b50610731600480360381019061072c91906135d3565b61153e565b005b61074d6004803603810190610748919061366e565b611554565b005b34801561075a575f80fd5b5061077560048036038101906107709190613757565b6118ca565b005b348015610782575f80fd5b5061079d6004803603810190610798919061318e565b61192c565b6040516107aa919061313b565b60405180910390f35b3480156107be575f80fd5b506107d960048036038101906107d49190613495565b611991565b6040516107e69190613098565b60405180910390f35b3480156107fa575f80fd5b506108156004803603810190610810919061323b565b6119ae565b005b348015610822575f80fd5b5061083d600480360381019061083891906137d7565b6119c4565b60405161084a9190613098565b60405180910390f35b34801561085e575f80fd5b5061087960048036038101906108749190613495565b611a52565b005b5f7f780e9d63000000000000000000000000000000000000000000000000000000007bffffffffffffffffffffffffffffffffffffffffffffffffffffffff1916827bffffffffffffffffffffffffffffffffffffffffffffffffffffffff191614806108ed57506108ec82611ad4565b5b9050919050565b60605f805461090290613842565b80601f016020809104026020016040519081016040528092919081815260200182805461092e90613842565b80156109795780601f1061095057610100808354040283529160200191610979565b820191905f5260205f20905b81548152906001019060200180831161095c57829003601f168201915b5050505050905090565b5f61098d82611bb5565b60045f8381526020019081526020015f205f9054906101000a900473ffffffffffffffffffffffffffffffffffffffff169050919050565b5f6109cf82610dfb565b90508073ffffffffffffffffffffffffffffffffffffffff168373ffffffffffffffffffffffffffffffffffffffff1603610a3f576040517f08c379a0000000000000000000000000000000000000000000000000000000008152600401610a36906138e2565b60405180910390fd5b8073ffffffffffffffffffffffffffffffffffffffff16610a5e611c00565b73ffffffffffffffffffffffffffffffffffffffff161480610a8d5750610a8c81610a87611c00565b6119c4565b5b610acc576040517f08c379a0000000000000000000000000000000000000000000000000000000008152600401610ac390613970565b60405180910390fd5b610ad68383611c07565b505050565b600e602052805f5260405f205f915090505481565b5f600880549050905090565b610b0d610b07611c00565b82611cbd565b610b4c576040517f08c379a0000000000000000000000000000000000000000000000000000000008152600401610b43906139fe565b60405180910390fd5b610b57838383611d51565b505050565b5f600f60019054906101000a900460ff16905090565b7f000000000000000000000000000000000000000000000000000000000000000081565b5f610ba083610f0b565b8210610be1576040517f08c379a0000000000000000000000000000000000000000000000000000000008152600401610bd890613a8c565b60405180910390fd5b60065f8473ffffffffffffffffffffffffffffffffffffffff1673ffffffffffffffffffffffffffffffffffffffff1681526020019081526020015f205f8381526020019081526020015f2054905092915050565b600f60019054906101000a900460ff1681565b7f49ecf333e5b8c95c40fdafc95c1ad136e8914a8fb55e9dc8bb01eaa83a2df9ad5f1b81565b5f7f8b73c3c69bb8fe3d512ecc4cf759cc79239f7b179b0ffacaa9a75d522b39400f7f00000000000000000000000000000000000000000000000000000000000000007f0000000000000000000000000000000000000000000000000000000000000000610cdb61203d565b30604051602001610cf0959493929190613aec565b60405160208183030381529060405280519060200120905090565b610d2583838360405180602001604052805f8152506118ca565b505050565b5f610d33610af0565b8210610d74576040517f08c379a0000000000000000000000000000000000000000000000000000000008152600401610d6b90613bad565b60405180910390fd5b60088281548110610d8857610d87613bcb565b5b905f5260205f2001549050919050565b60606040518060400160405280600181526020017f3100000000000000000000000000000000000000000000000000000000000000815250905090565b600f5f9054906101000a900460ff1681565b610def612044565b610df8816120c2565b50565b5f80610e06836120d5565b90505f73ffffffffffffffffffffffffffffffffffffffff168173ffffffffffffffffffffffffffffffffffffffff1603610e76576040517f08c379a0000000000000000000000000000000000000000000000000000000008152600401610e6d90613c42565b60405180910390fd5b80915050919050565b600c8054610e8c90613842565b80601f0160208091040260200160405190810160405280929190818152602001828054610eb890613842565b8015610f035780601f10610eda57610100808354040283529160200191610f03565b820191905f5260205f20905b815481529060010190602001808311610ee657829003601f168201915b505050505081565b5f8073ffffffffffffffffffffffffffffffffffffffff168273ffffffffffffffffffffffffffffffffffffffff1603610f7a576040517f08c379a0000000000000000000000000000000000000000000000000000000008152600401610f7190613cd0565b60405180910390fd5b60035f8373ffffffffffffffffffffffffffffffffffffffff1673ffffffffffffffffffffffffffffffffffffffff1681526020019081526020015f20549050919050565b610fc7612044565b610fd05f61210e565b565b600b5481565b610fe0612044565b5f1515600f60019054906101000a900460ff16151514611035576040517f08c379a000000000000000000000000000000000000000000000000000000000815260040161102c90613d38565b60405180910390fd5b6001600f60016101000a81548160ff021916908315150217905550565b8361105b6121d1565b111561109c576040517f08c379a000000000000000000000000000000000000000000000000000000000815260040161109390613da0565b60405180910390fd5b5f6110a5610c6f565b7f49ecf333e5b8c95c40fdafc95c1ad136e8914a8fb55e9dc8bb01eaa83a2df9ad5f1b88886110d38a6121d8565b896040516020016110e8959493929190613dbe565b6040516020818303038152906040528051906020012060405160200161110f929190613e83565b6040516020818303038152906040528051906020012090505f61113187610dfb565b90508073ffffffffffffffffffffffffffffffffffffffff168873ffffffffffffffffffffffffffffffffffffffff16036111a1576040517f08c379a000000000000000000000000000000000000000000000000000000000815260040161119890613f29565b60405180910390fd5b6111aa8161221d565b156112b857631626ba7e60e01b8173ffffffffffffffffffffffffffffffffffffffff16631626ba7e8487878a6040516020016111e993929190613f7b565b6040516020818303038152906040526040518363ffffffff1660e01b8152600401611215929190614009565b602060405180830381865afa158015611230573d5f803e3d5ffd5b505050506040513d601f19601f82011682018060405250810190611254919061404b565b7bffffffffffffffffffffffffffffffffffffffffffffffffffffffff1916146112b3576040517f08c379a00000000000000000000000000000000000000000000000000000000081526004016112aa906140c0565b60405180910390fd5b6113e5565b5f6001838787876040515f81526020016040526040516112db94939291906140ed565b6020604051602081039080840390855afa1580156112fb573d5f803e3d5ffd5b5050506020604051035190505f73ffffffffffffffffffffffffffffffffffffffff168173ffffffffffffffffffffffffffffffffffffffff1603611375576040517f08c379a000000000000000000000000000000000000000000000000000000000815260040161136c9061417a565b60405180910390fd5b8173ffffffffffffffffffffffffffffffffffffffff168173ffffffffffffffffffffffffffffffffffffffff16146113e3576040517f08c379a00000000000000000000000000000000000000000000000000000000081526004016113da906140c0565b60405180910390fd5b505b6113ef8888611c07565b5050505050505050565b5f600a5f9054906101000a900473ffffffffffffffffffffffffffffffffffffffff16905090565b60606001805461143090613842565b80601f016020809104026020016040519081016040528092919081815260200182805461145c90613842565b80156114a75780601f1061147e576101008083540402835291602001916114a7565b820191905f5260205f20905b81548152906001019060200180831161148a57829003601f168201915b5050505050905090565b6114b9612044565b5f1515600f5f9054906101000a900460ff1615151461150d576040517f08c379a0000000000000000000000000000000000000000000000000000000008152600401611504906141e2565b60405180910390fd5b6001600f5f6101000a81548160ff021916908315150217905550565b5f600f5f9054906101000a900460ff16905090565b611550611549611c00565b838361223f565b5050565b600f5f9054906101000a900460ff166115a2576040517f08c379a00000000000000000000000000000000000000000000000000000000081526004016115999061424a565b60405180910390fd5b6010543410156115e7576040517f08c379a00000000000000000000000000000000000000000000000000000000081526004016115de906142b2565b60405180910390fd5b6103e861ffff16600b5410611631576040517f08c379a00000000000000000000000000000000000000000000000000000000081526004016116289061431a565b60405180910390fd5b5f1515600d5f3373ffffffffffffffffffffffffffffffffffffffff1673ffffffffffffffffffffffffffffffffffffffff1681526020019081526020015f205f9054906101000a900460ff161515146116c0576040517f08c379a00000000000000000000000000000000000000000000000000000000081526004016116b790614382565b60405180910390fd5b600f60019054906101000a900460ff1661178e576001151561174b8383808060200260200160405190810160405280939291908181526020018383602002808284375f81840152601f19601f820116905080830192505050505050507f0000000000000000000000000000000000000000000000000000000000000000611746336123a6565b6123c7565b15151461178d576040517f08c379a0000000000000000000000000000000000000000000000000000000008152600401611784906143ea565b60405180910390fd5b5b6001600d5f3373ffffffffffffffffffffffffffffffffffffffff1673ffffffffffffffffffffffffffffffffffffffff1681526020019081526020015f205f6101000a81548160ff021916908315150217905550600b5f8154809291906117f590614435565b919050555061180633600b546123dd565b5f73ec3de41d5ead4cebffd656f7fc9d1a8d8ff0f8c073ffffffffffffffffffffffffffffffffffffffff16345a90604051611841906144a9565b5f60405180830381858888f193505050503d805f811461187c576040519150601f19603f3d011682016040523d82523d5f602084013e611881565b606091505b50509050806118c5576040517f08c379a00000000000000000000000000000000000000000000000000000000081526004016118bc90614507565b60405180910390fd5b505050565b6118db6118d5611c00565b83611cbd565b61191a576040517f08c379a0000000000000000000000000000000000000000000000000000000008152600401611911906139fe565b60405180910390fd5b611926848484846125f0565b50505050565b606061193782611bb5565b5f61194061264c565b90505f81511161195e5760405180602001604052805f815250611989565b80611968846126dc565b604051602001611979929190614555565b6040516020818303038152906040525b915050919050565b600d602052805f5260405f205f915054906101000a900460ff1681565b6119b6612044565b6119c082826123dd565b5050565b5f60055f8473ffffffffffffffffffffffffffffffffffffffff1673ffffffffffffffffffffffffffffffffffffffff1681526020019081526020015f205f8373ffffffffffffffffffffffffffffffffffffffff1673ffffffffffffffffffffffffffffffffffffffff1681526020019081526020015f205f9054906101000a900460ff16905092915050565b611a5a612044565b5f73ffffffffffffffffffffffffffffffffffffffff168173ffffffffffffffffffffffffffffffffffffffff1603611ac8576040517f08c379a0000000000000000000000000000000000000000000000000000000008152600401611abf906145e8565b60405180910390fd5b611ad18161210e565b50565b5f7f80ac58cd000000000000000000000000000000000000000000000000000000007bffffffffffffffffffffffffffffffffffffffffffffffffffffffff1916827bffffffffffffffffffffffffffffffffffffffffffffffffffffffff19161480611b9e57507f5b5e139f000000000000000000000000000000000000000000000000000000007bffffffffffffffffffffffffffffffffffffffffffffffffffffffff1916827bffffffffffffffffffffffffffffffffffffffffffffffffffffffff1916145b80611bae5750611bad826127a6565b5b9050919050565b611bbe8161280f565b611bfd576040517f08c379a0000000000000000000000000000000000000000000000000000000008152600401611bf490613c42565b60405180910390fd5b50565b5f33905090565b8160045f8381526020019081526020015f205f6101000a81548173ffffffffffffffffffffffffffffffffffffffff021916908373ffffffffffffffffffffffffffffffffffffffff160217905550808273ffffffffffffffffffffffffffffffffffffffff16611c7783610dfb565b73ffffffffffffffffffffffffffffffffffffffff167f8c5be1e5ebec7d5bd14f71427d1e84f3dd0314c0f7b2291e5b200ac8c7c3b92560405160405180910390a45050565b5f80611cc883610dfb565b90508073ffffffffffffffffffffffffffffffffffffffff168473ffffffffffffffffffffffffffffffffffffffff161480611d0a5750611d0981856119c4565b5b80611d4857508373ffffffffffffffffffffffffffffffffffffffff16611d3084610983565b73ffffffffffffffffffffffffffffffffffffffff16145b91505092915050565b8273ffffffffffffffffffffffffffffffffffffffff16611d7182610dfb565b73ffffffffffffffffffffffffffffffffffffffff1614611dc7576040517f08c379a0000000000000000000000000000000000000000000000000000000008152600401611dbe90614676565b60405180910390fd5b5f73ffffffffffffffffffffffffffffffffffffffff168273ffffffffffffffffffffffffffffffffffffffff1603611e35576040517f08c379a0000000000000000000000000000000000000000000000000000000008152600401611e2c90614704565b60405180910390fd5b611e42838383600161284f565b8273ffffffffffffffffffffffffffffffffffffffff16611e6282610dfb565b73ffffffffffffffffffffffffffffffffffffffff1614611eb8576040517f08c379a0000000000000000000000000000000000000000000000000000000008152600401611eaf90614676565b60405180910390fd5b60045f8281526020019081526020015f205f6101000a81549073ffffffffffffffffffffffffffffffffffffffff0219169055600160035f8573ffffffffffffffffffffffffffffffffffffffff1673ffffffffffffffffffffffffffffffffffffffff1681526020019081526020015f205f8282540392505081905550600160035f8473ffffffffffffffffffffffffffffffffffffffff1673ffffffffffffffffffffffffffffffffffffffff1681526020019081526020015f205f82825401925050819055508160025f8381526020019081526020015f205f6101000a81548173ffffffffffffffffffffffffffffffffffffffff021916908373ffffffffffffffffffffffffffffffffffffffff160217905550808273ffffffffffffffffffffffffffffffffffffffff168473ffffffffffffffffffffffffffffffffffffffff167fddf252ad1be2c89b69c2b068fc378daa952ba7f163c4a11628f55a4df523b3ef60405160405180910390a461203883838360016129aa565b505050565b5f46905090565b61204c611c00565b73ffffffffffffffffffffffffffffffffffffffff1661206a6113f9565b73ffffffffffffffffffffffffffffffffffffffff16146120c0576040517f08c379a00000000000000000000000000000000000000000000000000000000081526004016120b79061476c565b60405180910390fd5b565b80600c90816120d1919061491e565b5050565b5f60025f8381526020019081526020015f205f9054906101000a900473ffffffffffffffffffffffffffffffffffffffff169050919050565b5f600a5f9054906101000a900473ffffffffffffffffffffffffffffffffffffffff16905081600a5f6101000a81548173ffffffffffffffffffffffffffffffffffffffff021916908373ffffffffffffffffffffffffffffffffffffffff1602179055508173ffffffffffffffffffffffffffffffffffffffff168173ffffffffffffffffffffffffffffffffffffffff167f8be0079c531659141344cd1fd0a4f28419497f9722a3daafe3b4186f6b6457e060405160405180910390a35050565b5f42905090565b5f80600e5f8481526020019081526020015f20549050600e5f8481526020019081526020015f205f81548092919061220f90614435565b919050555080915050919050565b5f808273ffffffffffffffffffffffffffffffffffffffff163b119050919050565b8173ffffffffffffffffffffffffffffffffffffffff168373ffffffffffffffffffffffffffffffffffffffff16036122ad576040517f08c379a00000000000000000000000000000000000000000000000000000000081526004016122a490614a37565b60405180910390fd5b8060055f8573ffffffffffffffffffffffffffffffffffffffff1673ffffffffffffffffffffffffffffffffffffffff1681526020019081526020015f205f8473ffffffffffffffffffffffffffffffffffffffff1673ffffffffffffffffffffffffffffffffffffffff1681526020019081526020015f205f6101000a81548160ff0219169083151502179055508173ffffffffffffffffffffffffffffffffffffffff168373ffffffffffffffffffffffffffffffffffffffff167f17307eab39ab6107e8899845ad3d59bd9653f200f220920489ca2b5937696c31836040516123999190613098565b60405180910390a3505050565b5f8173ffffffffffffffffffffffffffffffffffffffff165f1b9050919050565b5f826123d385846129b0565b1490509392505050565b5f73ffffffffffffffffffffffffffffffffffffffff168273ffffffffffffffffffffffffffffffffffffffff160361244b576040517f08c379a000000000000000000000000000000000000000000000000000000000815260040161244290614a9f565b60405180910390fd5b6124548161280f565b15612494576040517f08c379a000000000000000000000000000000000000000000000000000000000815260040161248b90614b07565b60405180910390fd5b6124a15f8383600161284f565b6124aa8161280f565b156124ea576040517f08c379a00000000000000000000000000000000000000000000000000000000081526004016124e190614b07565b60405180910390fd5b600160035f8473ffffffffffffffffffffffffffffffffffffffff1673ffffffffffffffffffffffffffffffffffffffff1681526020019081526020015f205f82825401925050819055508160025f8381526020019081526020015f205f6101000a81548173ffffffffffffffffffffffffffffffffffffffff021916908373ffffffffffffffffffffffffffffffffffffffff160217905550808273ffffffffffffffffffffffffffffffffffffffff165f73ffffffffffffffffffffffffffffffffffffffff167fddf252ad1be2c89b69c2b068fc378daa952ba7f163c4a11628f55a4df523b3ef60405160405180910390a46125ec5f838360016129aa565b5050565b6125fb848484611d51565b61260784848484612a04565b612646576040517f08c379a000000000000000000000000000000000000000000000000000000000815260040161263d90614b95565b60405180910390fd5b50505050565b6060600c805461265b90613842565b80601f016020809104026020016040519081016040528092919081815260200182805461268790613842565b80156126d25780601f106126a9576101008083540402835291602001916126d2565b820191905f5260205f20905b8154815290600101906020018083116126b557829003601f168201915b5050505050905090565b60605f60016126ea84612b86565b0190505f8167ffffffffffffffff8111156127085761270761332a565b5b6040519080825280601f01601f19166020018201604052801561273a5781602001600182028036833780820191505090505b5090505f82602001820190505b60011561279b578080600190039150507f3031323334353637383961626364656600000000000000000000000000000000600a86061a8153600a85816127905761278f614bb3565b5b0494505f8503612747575b819350505050919050565b5f7f01ffc9a7000000000000000000000000000000000000000000000000000000007bffffffffffffffffffffffffffffffffffffffffffffffffffffffff1916827bffffffffffffffffffffffffffffffffffffffffffffffffffffffff1916149050919050565b5f8073ffffffffffffffffffffffffffffffffffffffff16612830836120d5565b73ffffffffffffffffffffffffffffffffffffffff1614159050919050565b61285b84848484612cd7565b600181111561289f576040517f08c379a000000000000000000000000000000000000000000000000000000000815260040161289690614c50565b60405180910390fd5b5f8290505f73ffffffffffffffffffffffffffffffffffffffff168573ffffffffffffffffffffffffffffffffffffffff16036128e4576128df81612cdd565b612923565b8373ffffffffffffffffffffffffffffffffffffffff168573ffffffffffffffffffffffffffffffffffffffff1614612922576129218582612d21565b5b5b5f73ffffffffffffffffffffffffffffffffffffffff168473ffffffffffffffffffffffffffffffffffffffff16036129645761295f81612e77565b6129a3565b8473ffffffffffffffffffffffffffffffffffffffff168473ffffffffffffffffffffffffffffffffffffffff16146129a2576129a18482612f37565b5b5b5050505050565b50505050565b5f808290505f5b84518110156129f9576129e4828683815181106129d7576129d6613bcb565b5b6020026020010151612faf565b915080806129f190614435565b9150506129b7565b508091505092915050565b5f612a248473ffffffffffffffffffffffffffffffffffffffff1661221d565b15612b79578373ffffffffffffffffffffffffffffffffffffffff1663150b7a02612a4d611c00565b8786866040518563ffffffff1660e01b8152600401612a6f9493929190614c6e565b6020604051808303815f875af1925050508015612aaa57506040513d601f19601f82011682018060405250810190612aa7919061404b565b60015b612b29573d805f8114612ad8576040519150601f19603f3d011682016040523d82523d5f602084013e612add565b606091505b505f815103612b21576040517f08c379a0000000000000000000000000000000000000000000000000000000008152600401612b1890614b95565b60405180910390fd5b805181602001fd5b63150b7a0260e01b7bffffffffffffffffffffffffffffffffffffffffffffffffffffffff1916817bffffffffffffffffffffffffffffffffffffffffffffffffffffffff191614915050612b7e565b600190505b949350505050565b5f805f90507a184f03e93ff9f4daa797ed6e38ed64bf6a1f0100000000000000008310612be2577a184f03e93ff9f4daa797ed6e38ed64bf6a1f0100000000000000008381612bd857612bd7614bb3565b5b0492506040810190505b6d04ee2d6d415b85acef81000000008310612c1f576d04ee2d6d415b85acef81000000008381612c1557612c14614bb3565b5b0492506020810190505b662386f26fc100008310612c4e57662386f26fc100008381612c4457612c43614bb3565b5b0492506010810190505b6305f5e1008310612c77576305f5e1008381612c6d57612c6c614bb3565b5b0492506008810190505b6127108310612c9c576127108381612c9257612c91614bb3565b5b0492506004810190505b60648310612cbf5760648381612cb557612cb4614bb3565b5b0492506002810190505b600a8310612cce576001810190505b80915050919050565b50505050565b60088054905060095f8381526020019081526020015f2081905550600881908060018154018082558091505060019003905f5260205f20015f909190919091505550565b5f6001612d2d84610f0b565b612d379190614cb8565b90505f60075f8481526020019081526020015f20549050818114612e0e575f60065f8673ffffffffffffffffffffffffffffffffffffffff1673ffffffffffffffffffffffffffffffffffffffff1681526020019081526020015f205f8481526020019081526020015f205490508060065f8773ffffffffffffffffffffffffffffffffffffffff1673ffffffffffffffffffffffffffffffffffffffff1681526020019081526020015f205f8481526020019081526020015f20819055508160075f8381526020019081526020015f2081905550505b60075f8481526020019081526020015f205f905560065f8573ffffffffffffffffffffffffffffffffffffffff1673ffffffffffffffffffffffffffffffffffffffff1681526020019081526020015f205f8381526020019081526020015f205f905550505050565b5f6001600880549050612e8a9190614cb8565b90505f60095f8481526020019081526020015f205490505f60088381548110612eb657612eb5613bcb565b5b905f5260205f20015490508060088381548110612ed657612ed5613bcb565b5b905f5260205f2001819055508160095f8381526020019081526020015f208190555060095f8581526020019081526020015f205f90556008805480612f1e57612f1d614ceb565b5b600190038181905f5260205f20015f9055905550505050565b5f612f4183610f0b565b90508160065f8573ffffffffffffffffffffffffffffffffffffffff1673ffffffffffffffffffffffffffffffffffffffff1681526020019081526020015f205f8381526020019081526020015f20819055508060075f8481526020019081526020015f2081905550505050565b5f818310612fc657612fc18284612fd9565b612fd1565b612fd08383612fd9565b5b905092915050565b5f825f528160205260405f20905092915050565b5f604051905090565b5f80fd5b5f80fd5b5f7fffffffff0000000000000000000000000000000000000000000000000000000082169050919050565b61303281612ffe565b811461303c575f80fd5b50565b5f8135905061304d81613029565b92915050565b5f6020828403121561306857613067612ff6565b5b5f6130758482850161303f565b91505092915050565b5f8115159050919050565b6130928161307e565b82525050565b5f6020820190506130ab5f830184613089565b92915050565b5f81519050919050565b5f82825260208201905092915050565b5f5b838110156130e85780820151818401526020810190506130cd565b5f8484015250505050565b5f601f19601f8301169050919050565b5f61310d826130b1565b61311781856130bb565b93506131278185602086016130cb565b613130816130f3565b840191505092915050565b5f6020820190508181035f8301526131538184613103565b905092915050565b5f819050919050565b61316d8161315b565b8114613177575f80fd5b50565b5f8135905061318881613164565b92915050565b5f602082840312156131a3576131a2612ff6565b5b5f6131b08482850161317a565b91505092915050565b5f73ffffffffffffffffffffffffffffffffffffffff82169050919050565b5f6131e2826131b9565b9050919050565b6131f2816131d8565b82525050565b5f60208201905061320b5f8301846131e9565b92915050565b61321a816131d8565b8114613224575f80fd5b50565b5f8135905061323581613211565b92915050565b5f806040838503121561325157613250612ff6565b5b5f61325e85828601613227565b925050602061326f8582860161317a565b9150509250929050565b6132828161315b565b82525050565b5f60208201905061329b5f830184613279565b92915050565b5f805f606084860312156132b8576132b7612ff6565b5b5f6132c586828701613227565b93505060206132d686828701613227565b92505060406132e78682870161317a565b9150509250925092565b5f819050919050565b613303816132f1565b82525050565b5f60208201905061331c5f8301846132fa565b92915050565b5f80fd5b5f80fd5b7f4e487b71000000000000000000000000000000000000000000000000000000005f52604160045260245ffd5b613360826130f3565b810181811067ffffffffffffffff8211171561337f5761337e61332a565b5b80604052505050565b5f613391612fed565b905061339d8282613357565b919050565b5f67ffffffffffffffff8211156133bc576133bb61332a565b5b6133c5826130f3565b9050602081019050919050565b828183375f83830152505050565b5f6133f26133ed846133a2565b613388565b90508281526020810184848401111561340e5761340d613326565b5b6134198482856133d2565b509392505050565b5f82601f83011261343557613434613322565b5b81356134458482602086016133e0565b91505092915050565b5f6020828403121561346357613462612ff6565b5b5f82013567ffffffffffffffff8111156134805761347f612ffa565b5b61348c84828501613421565b91505092915050565b5f602082840312156134aa576134a9612ff6565b5b5f6134b784828501613227565b91505092915050565b5f60ff82169050919050565b6134d5816134c0565b81146134df575f80fd5b50565b5f813590506134f0816134cc565b92915050565b6134ff816132f1565b8114613509575f80fd5b50565b5f8135905061351a816134f6565b92915050565b5f805f805f8060c0878903121561353a57613539612ff6565b5b5f61354789828a01613227565b965050602061355889828a0161317a565b955050604061356989828a0161317a565b945050606061357a89828a016134e2565b935050608061358b89828a0161350c565b92505060a061359c89828a0161350c565b9150509295509295509295565b6135b28161307e565b81146135bc575f80fd5b50565b5f813590506135cd816135a9565b92915050565b5f80604083850312156135e9576135e8612ff6565b5b5f6135f685828601613227565b9250506020613607858286016135bf565b9150509250929050565b5f80fd5b5f80fd5b5f8083601f84011261362e5761362d613322565b5b8235905067ffffffffffffffff81111561364b5761364a613611565b5b60208301915083602082028301111561366757613666613615565b5b9250929050565b5f806020838503121561368457613683612ff6565b5b5f83013567ffffffffffffffff8111156136a1576136a0612ffa565b5b6136ad85828601613619565b92509250509250929050565b5f67ffffffffffffffff8211156136d3576136d261332a565b5b6136dc826130f3565b9050602081019050919050565b5f6136fb6136f6846136b9565b613388565b90508281526020810184848401111561371757613716613326565b5b6137228482856133d2565b509392505050565b5f82601f83011261373e5761373d613322565b5b813561374e8482602086016136e9565b91505092915050565b5f805f806080858703121561376f5761376e612ff6565b5b5f61377c87828801613227565b945050602061378d87828801613227565b935050604061379e8782880161317a565b925050606085013567ffffffffffffffff8111156137bf576137be612ffa565b5b6137cb8782880161372a565b91505092959194509250565b5f80604083850312156137ed576137ec612ff6565b5b5f6137fa85828601613227565b925050602061380b85828601613227565b9150509250929050565b7f4e487b71000000000000000000000000000000000000000000000000000000005f52602260045260245ffd5b5f600282049050600182168061385957607f821691505b60208210810361386c5761386b613815565b5b50919050565b7f4552433732313a20617070726f76616c20746f2063757272656e74206f776e655f8201527f7200000000000000000000000000000000000000000000000000000000000000602082015250565b5f6138cc6021836130bb565b91506138d782613872565b604082019050919050565b5f6020820190508181035f8301526138f9816138c0565b9050919050565b7f4552433732313a20617070726f76652063616c6c6572206973206e6f7420746f5f8201527f6b656e206f776e6572206f7220617070726f76656420666f7220616c6c000000602082015250565b5f61395a603d836130bb565b915061396582613900565b604082019050919050565b5f6020820190508181035f8301526139878161394e565b9050919050565b7f4552433732313a2063616c6c6572206973206e6f7420746f6b656e206f776e655f8201527f72206f7220617070726f76656400000000000000000000000000000000000000602082015250565b5f6139e8602d836130bb565b91506139f38261398e565b604082019050919050565b5f6020820190508181035f830152613a15816139dc565b9050919050565b7f455243373231456e756d657261626c653a206f776e657220696e646578206f755f8201527f74206f6620626f756e6473000000000000000000000000000000000000000000602082015250565b5f613a76602b836130bb565b9150613a8182613a1c565b604082019050919050565b5f6020820190508181035f830152613aa381613a6a565b9050919050565b5f819050919050565b5f819050919050565b5f613ad6613ad1613acc84613aaa565b613ab3565b61315b565b9050919050565b613ae681613abc565b82525050565b5f60a082019050613aff5f830188613add565b613b0c60208301876132fa565b613b1960408301866132fa565b613b266060830185613279565b613b3360808301846131e9565b9695505050505050565b7f455243373231456e756d657261626c653a20676c6f62616c20696e646578206f5f8201527f7574206f6620626f756e64730000000000000000000000000000000000000000602082015250565b5f613b97602c836130bb565b9150613ba282613b3d565b604082019050919050565b5f6020820190508181035f830152613bc481613b8b565b9050919050565b7f4e487b71000000000000000000000000000000000000000000000000000000005f52603260045260245ffd5b7f4552433732313a20696e76616c696420746f6b656e20494400000000000000005f82015250565b5f613c2c6018836130bb565b9150613c3782613bf8565b602082019050919050565b5f6020820190508181035f830152613c5981613c20565b9050919050565b7f4552433732313a2061646472657373207a65726f206973206e6f7420612076615f8201527f6c6964206f776e65720000000000000000000000000000000000000000000000602082015250565b5f613cba6029836130bb565b9150613cc582613c60565b604082019050919050565b5f6020820190508181035f830152613ce781613cae565b9050919050565b7f5075626c6963206d696e7420697320616c726561647920656e61626c656400005f82015250565b5f613d22601e836130bb565b9150613d2d82613cee565b602082019050919050565b5f6020820190508181035f830152613d4f81613d16565b9050919050565b7f5065726d697420657870697265640000000000000000000000000000000000005f82015250565b5f613d8a600e836130bb565b9150613d9582613d56565b602082019050919050565b5f6020820190508181035f830152613db781613d7e565b9050919050565b5f60a082019050613dd15f8301886132fa565b613dde60208301876131e9565b613deb6040830186613279565b613df86060830185613279565b613e056080830184613279565b9695505050505050565b5f81905092915050565b7f19010000000000000000000000000000000000000000000000000000000000005f82015250565b5f613e4d600283613e0f565b9150613e5882613e19565b600282019050919050565b5f819050919050565b613e7d613e78826132f1565b613e63565b82525050565b5f613e8d82613e41565b9150613e998285613e6c565b602082019150613ea98284613e6c565b6020820191508190509392505050565b7f4552433732315065726d69743a20617070726f76616c20746f2063757272656e5f8201527f74206f776e657200000000000000000000000000000000000000000000000000602082015250565b5f613f136027836130bb565b9150613f1e82613eb9565b604082019050919050565b5f6020820190508181035f830152613f4081613f07565b9050919050565b5f8160f81b9050919050565b5f613f5d82613f47565b9050919050565b613f75613f70826134c0565b613f53565b82525050565b5f613f868286613e6c565b602082019150613f968285613e6c565b602082019150613fa68284613f64565b600182019150819050949350505050565b5f81519050919050565b5f82825260208201905092915050565b5f613fdb82613fb7565b613fe58185613fc1565b9350613ff58185602086016130cb565b613ffe816130f3565b840191505092915050565b5f60408201905061401c5f8301856132fa565b818103602083015261402e8184613fd1565b90509392505050565b5f8151905061404581613029565b92915050565b5f602082840312156140605761405f612ff6565b5b5f61406d84828501614037565b91505092915050565b7f556e617574686f72697a656400000000000000000000000000000000000000005f82015250565b5f6140aa600c836130bb565b91506140b582614076565b602082019050919050565b5f6020820190508181035f8301526140d78161409e565b9050919050565b6140e7816134c0565b82525050565b5f6080820190506141005f8301876132fa565b61410d60208301866140de565b61411a60408301856132fa565b61412760608301846132fa565b95945050505050565b7f496e76616c6964207369676e61747572650000000000000000000000000000005f82015250565b5f6141646011836130bb565b915061416f82614130565b602082019050919050565b5f6020820190508181035f83015261419181614158565b9050919050565b7f4d696e74696e6720697320616c726561647920656e61626c65640000000000005f82015250565b5f6141cc601a836130bb565b91506141d782614198565b602082019050919050565b5f6020820190508181035f8301526141f9816141c0565b9050919050565b7f4d696e74696e67206973206e6f7420656e61626c6564000000000000000000005f82015250565b5f6142346016836130bb565b915061423f82614200565b602082019050919050565b5f6020820190508181035f83015261426181614228565b9050919050565b7f4e6f7420656e6f756768204554482073656e74000000000000000000000000005f82015250565b5f61429c6013836130bb565b91506142a782614268565b602082019050919050565b5f6020820190508181035f8301526142c981614290565b9050919050565b7f4578636565647320746f6b656e20737570706c790000000000000000000000005f82015250565b5f6143046014836130bb565b915061430f826142d0565b602082019050919050565b5f6020820190508181035f830152614331816142f8565b9050919050565b7f5573657220616c726561647920636c61696d65640000000000000000000000005f82015250565b5f61436c6014836130bb565b915061437782614338565b602082019050919050565b5f6020820190508181035f83015261439981614360565b9050919050565b7f496e76616c6964206d65726b6c652070726f6f660000000000000000000000005f82015250565b5f6143d46014836130bb565b91506143df826143a0565b602082019050919050565b5f6020820190508181035f830152614401816143c8565b9050919050565b7f4e487b71000000000000000000000000000000000000000000000000000000005f52601160045260245ffd5b5f61443f8261315b565b91507fffffffffffffffffffffffffffffffffffffffffffffffffffffffffffffffff820361447157614470614408565b5b600182019050919050565b5f81905092915050565b50565b5f6144945f8361447c565b915061449f82614486565b5f82019050919050565b5f6144b382614489565b9150819050919050565b7f4661696c656420746f20666f72776172642045544800000000000000000000005f82015250565b5f6144f16015836130bb565b91506144fc826144bd565b602082019050919050565b5f6020820190508181035f83015261451e816144e5565b9050919050565b5f61452f826130b1565b6145398185613e0f565b93506145498185602086016130cb565b80840191505092915050565b5f6145608285614525565b915061456c8284614525565b91508190509392505050565b7f4f776e61626c653a206e6577206f776e657220697320746865207a65726f20615f8201527f6464726573730000000000000000000000000000000000000000000000000000602082015250565b5f6145d26026836130bb565b91506145dd82614578565b604082019050919050565b5f6020820190508181035f8301526145ff816145c6565b9050919050565b7f4552433732313a207472616e736665722066726f6d20696e636f7272656374205f8201527f6f776e6572000000000000000000000000000000000000000000000000000000602082015250565b5f6146606025836130bb565b915061466b82614606565b604082019050919050565b5f6020820190508181035f83015261468d81614654565b9050919050565b7f4552433732313a207472616e7366657220746f20746865207a65726f206164645f8201527f7265737300000000000000000000000000000000000000000000000000000000602082015250565b5f6146ee6024836130bb565b91506146f982614694565b604082019050919050565b5f6020820190508181035f83015261471b816146e2565b9050919050565b7f4f776e61626c653a2063616c6c6572206973206e6f7420746865206f776e65725f82015250565b5f6147566020836130bb565b915061476182614722565b602082019050919050565b5f6020820190508181035f8301526147838161474a565b9050919050565b5f819050815f5260205f209050919050565b5f6020601f8301049050919050565b5f82821b905092915050565b5f600883026147e67fffffffffffffffffffffffffffffffffffffffffffffffffffffffffffffffff826147ab565b6147f086836147ab565b95508019841693508086168417925050509392505050565b5f61482261481d6148188461315b565b613ab3565b61315b565b9050919050565b5f819050919050565b61483b83614808565b61484f61484782614829565b8484546147b7565b825550505050565b5f90565b614863614857565b61486e818484614832565b505050565b5b81811015614891576148865f8261485b565b600181019050614874565b5050565b601f8211156148d6576148a78161478a565b6148b08461479c565b810160208510156148bf578190505b6148d36148cb8561479c565b830182614873565b50505b505050565b5f82821c905092915050565b5f6148f65f19846008026148db565b1980831691505092915050565b5f61490e83836148e7565b9150826002028217905092915050565b614927826130b1565b67ffffffffffffffff8111156149405761493f61332a565b5b61494a8254613842565b614955828285614895565b5f60209050601f831160018114614986575f8415614974578287015190505b61497e8582614903565b8655506149e5565b601f1984166149948661478a565b5f5b828110156149bb57848901518255600182019150602085019450602081019050614996565b868310156149d857848901516149d4601f8916826148e7565b8355505b6001600288020188555050505b505050505050565b7f4552433732313a20617070726f766520746f2063616c6c6572000000000000005f82015250565b5f614a216019836130bb565b9150614a2c826149ed565b602082019050919050565b5f6020820190508181035f830152614a4e81614a15565b9050919050565b7f4552433732313a206d696e7420746f20746865207a65726f20616464726573735f82015250565b5f614a896020836130bb565b9150614a9482614a55565b602082019050919050565b5f6020820190508181035f830152614ab681614a7d565b9050919050565b7f4552433732313a20746f6b656e20616c7265616479206d696e746564000000005f82015250565b5f614af1601c836130bb565b9150614afc82614abd565b602082019050919050565b5f6020820190508181035f830152614b1e81614ae5565b9050919050565b7f4552433732313a207472616e7366657220746f206e6f6e2045524337323152655f8201527f63656976657220696d706c656d656e7465720000000000000000000000000000602082015250565b5f614b7f6032836130bb565b9150614b8a82614b25565b604082019050919050565b5f6020820190508181035f830152614bac81614b73565b9050919050565b7f4e487b71000000000000000000000000000000000000000000000000000000005f52601260045260245ffd5b7f455243373231456e756d657261626c653a20636f6e73656375746976652074725f8201527f616e7366657273206e6f7420737570706f727465640000000000000000000000602082015250565b5f614c3a6035836130bb565b9150614c4582614be0565b604082019050919050565b5f6020820190508181035f830152614c6781614c2e565b9050919050565b5f608082019050614c815f8301876131e9565b614c8e60208301866131e9565b614c9b6040830185613279565b8181036060830152614cad8184613fd1565b905095945050505050565b5f614cc28261315b565b9150614ccd8361315b565b9250828203905081811115614ce557614ce4614408565b5b92915050565b7f4e487b71000000000000000000000000000000000000000000000000000000005f52603160045260245ffdfea26469706673582212203811bfff0a098ca9acc2a702a101d4b251ed32550eed4501dc670edaa8d2e9c964736f6c63430008140033697066733a2f2f62616679626569656e69616c6b6472707076646664616e7a7569776e7434356d346868636b617978727676686b747272766d6f77776b77723435612f",
  "linkReferences": {},
  "deployedLinkReferences": {}
}