{
  "_format": "hh-sol-artifact-1",
  "contractName": "TRIS",
  "sourceName": "contracts/TRIS.sol",
  "abi": [
    {
      "inputs": [],
      "stateMutability": "nonpayable",
      "type": "constructor"
    },
    {
      "anonymous": false,
      "inputs": [
        {
          "indexed": true,
          "internalType": "address",
          "name": "owner",
          "type": "address"
        },
        {
          "indexed": true,
          "internalType": "address",
          "name": "approved",
          "type": "address"
        },
        {
          "indexed": true,
          "internalType": "uint256",
          "name": "tokenId",
          "type": "uint256"
        }
      ],
      "name": "Approval",
      "type": "event"
    },
    {
      "anonymous": false,
      "inputs": [
        {
          "indexed": true,
          "internalType": "address",
          "name": "owner",
          "type": "address"
        },
        {
          "indexed": true,
          "internalType": "address",
          "name": "operator",
          "type": "address"
        },
        {
          "indexed": false,
          "internalType": "bool",
          "name": "approved",
          "type": "bool"
        }
      ],
      "name": "ApprovalForAll",
      "type": "event"
    },
    {
      "anonymous": false,
      "inputs": [
        {
          "indexed": true,
          "internalType": "address",
          "name": "previousOwner",
          "type": "address"
        },
        {
          "indexed": true,
          "internalType": "address",
          "name": "newOwner",
          "type": "address"
        }
      ],
      "name": "OwnershipTransferred",
      "type": "event"
    },
    {
      "anonymous": false,
      "inputs": [
        {
          "indexed": true,
          "internalType": "address",
          "name": "from",
          "type": "address"
        },
        {
          "indexed": true,
          "internalType": "address",
          "name": "to",
          "type": "address"
        },
        {
          "indexed": true,
          "internalType": "uint256",
          "name": "tokenId",
          "type": "uint256"
        }
      ],
      "name": "Transfer",
      "type": "event"
    },
    {
      "inputs": [],
      "name": "DOMAIN_SEPARATOR",
      "outputs": [
        {
          "internalType": "bytes32",
          "name": "",
          "type": "bytes32"
        }
      ],
      "stateMutability": "view",
      "type": "function"
    },
    {
      "inputs": [],
      "name": "PERMIT_TYPEHASH",
      "outputs": [
        {
          "internalType": "bytes32",
          "name": "",
          "type": "bytes32"
        }
      ],
      "stateMutability": "view",
      "type": "function"
    },
    {
      "inputs": [],
      "name": "__baseURI",
      "outputs": [
        {
          "internalType": "string",
          "name": "",
          "type": "string"
        }
      ],
      "stateMutability": "view",
      "type": "function"
    },
    {
      "inputs": [
        {
          "internalType": "address",
          "name": "to",
          "type": "address"
        },
        {
          "internalType": "uint256",
          "name": "tokenId",
          "type": "uint256"
        }
      ],
      "name": "approve",
      "outputs": [],
      "stateMutability": "nonpayable",
      "type": "function"
    },
    {
      "inputs": [
        {
          "internalType": "address",
          "name": "owner",
          "type": "address"
        }
      ],
      "name": "balanceOf",
      "outputs": [
        {
          "internalType": "uint256",
          "name": "",
          "type": "uint256"
        }
      ],
      "stateMutability": "view",
      "type": "function"
    },
    {
      "inputs": [],
      "name": "cap",
      "outputs": [
        {
          "internalType": "uint256",
          "name": "",
          "type": "uint256"
        }
      ],
      "stateMutability": "view",
      "type": "function"
    },
    {
      "inputs": [
        {
          "internalType": "uint256",
          "name": "tokenId",
          "type": "uint256"
        }
      ],
      "name": "getApproved",
      "outputs": [
        {
          "internalType": "address",
          "name": "",
          "type": "address"
        }
      ],
      "stateMutability": "view",
      "type": "function"
    },
    {
      "inputs": [
        {
          "internalType": "address",
          "name": "owner",
          "type": "address"
        },
        {
          "internalType": "address",
          "name": "operator",
          "type": "address"
        }
      ],
      "name": "isApprovedForAll",
      "outputs": [
        {
          "internalType": "bool",
          "name": "",
          "type": "bool"
        }
      ],
      "stateMutability": "view",
      "type": "function"
    },
    {
      "inputs": [],
      "name": "isWhitelistActive",
      "outputs": [
        {
          "internalType": "bool",
          "name": "",
          "type": "bool"
        }
      ],
      "stateMutability": "view",
      "type": "function"
    },
    {
      "inputs": [
        {
          "internalType": "address",
          "name": "_to",
          "type": "address"
        },
        {
          "internalType": "uint256",
          "name": "_tokenId",
          "type": "uint256"
        }
      ],
      "name": "mint",
      "outputs": [],
      "stateMutability": "nonpayable",
      "type": "function"
    },
    {
      "inputs": [],
      "name": "name",
      "outputs": [
        {
          "internalType": "string",
          "name": "",
          "type": "string"
        }
      ],
      "stateMutability": "view",
      "type": "function"
    },
    {
      "inputs": [
        {
          "internalType": "uint256",
          "name": "",
          "type": "uint256"
        }
      ],
      "name": "nonces",
      "outputs": [
        {
          "internalType": "uint256",
          "name": "",
          "type": "uint256"
        }
      ],
      "stateMutability": "view",
      "type": "function"
    },
    {
      "inputs": [],
      "name": "owner",
      "outputs": [
        {
          "internalType": "address",
          "name": "",
          "type": "address"
        }
      ],
      "stateMutability": "view",
      "type": "function"
    },
    {
      "inputs": [
        {
          "internalType": "uint256",
          "name": "tokenId",
          "type": "uint256"
        }
      ],
      "name": "ownerOf",
      "outputs": [
        {
          "internalType": "address",
          "name": "",
          "type": "address"
        }
      ],
      "stateMutability": "view",
      "type": "function"
    },
    {
      "inputs": [
        {
          "internalType": "address",
          "name": "spender",
          "type": "address"
        },
        {
          "internalType": "uint256",
          "name": "tokenId",
          "type": "uint256"
        },
        {
          "internalType": "uint256",
          "name": "deadline",
          "type": "uint256"
        },
        {
          "internalType": "uint8",
          "name": "v",
          "type": "uint8"
        },
        {
          "internalType": "bytes32",
          "name": "r",
          "type": "bytes32"
        },
        {
          "internalType": "bytes32",
          "name": "s",
          "type": "bytes32"
        }
      ],
      "name": "permit",
      "outputs": [],
      "stateMutability": "payable",
      "type": "function"
    },
    {
      "inputs": [],
      "name": "renounceOwnership",
      "outputs": [],
      "stateMutability": "nonpayable",
      "type": "function"
    },
    {
      "inputs": [
        {
          "internalType": "address",
          "name": "from",
          "type": "address"
        },
        {
          "internalType": "address",
          "name": "to",
          "type": "address"
        },
        {
          "internalType": "uint256",
          "name": "tokenId",
          "type": "uint256"
        }
      ],
      "name": "safeTransferFrom",
      "outputs": [],
      "stateMutability": "nonpayable",
      "type": "function"
    },
    {
      "inputs": [
        {
          "internalType": "address",
          "name": "from",
          "type": "address"
        },
        {
          "internalType": "address",
          "name": "to",
          "type": "address"
        },
        {
          "internalType": "uint256",
          "name": "tokenId",
          "type": "uint256"
        },
        {
          "internalType": "bytes",
          "name": "data",
          "type": "bytes"
        }
      ],
      "name": "safeTransferFrom",
      "outputs": [],
      "stateMutability": "nonpayable",
      "type": "function"
    },
    {
      "inputs": [
        {
          "internalType": "address",
          "name": "operator",
          "type": "address"
        },
        {
          "internalType": "bool",
          "name": "approved",
          "type": "bool"
        }
      ],
      "name": "setApprovalForAll",
      "outputs": [],
      "stateMutability": "nonpayable",
      "type": "function"
    },
    {
      "inputs": [
        {
          "internalType": "string",
          "name": "_uri",
          "type": "string"
        }
      ],
      "name": "setBaseURI",
      "outputs": [],
      "stateMutability": "nonpayable",
      "type": "function"
    },
    {
      "inputs": [
        {
          "internalType": "uint256",
          "name": "_cap",
          "type": "uint256"
        }
      ],
      "name": "setCap",
      "outputs": [],
      "stateMutability": "nonpayable",
      "type": "function"
    },
    {
      "inputs": [
        {
          "internalType": "bytes32",
          "name": "value",
          "type": "bytes32"
        }
      ],
      "name": "setWhitelistMerkleRoot",
      "outputs": [],
      "stateMutability": "nonpayable",
      "type": "function"
    },
    {
      "inputs": [],
      "name": "startWhitelistMint",
      "outputs": [],
      "stateMutability": "nonpayable",
      "type": "function"
    },
    {
      "inputs": [
        {
          "internalType": "bytes4",
          "name": "interfaceId",
          "type": "bytes4"
        }
      ],
      "name": "supportsInterface",
      "outputs": [
        {
          "internalType": "bool",
          "name": "",
          "type": "bool"
        }
      ],
      "stateMutability": "view",
      "type": "function"
    },
    {
      "inputs": [],
      "name": "symbol",
      "outputs": [
        {
          "internalType": "string",
          "name": "",
          "type": "string"
        }
      ],
      "stateMutability": "view",
      "type": "function"
    },
    {
      "inputs": [
        {
          "internalType": "uint256",
          "name": "index",
          "type": "uint256"
        }
      ],
      "name": "tokenByIndex",
      "outputs": [
        {
          "internalType": "uint256",
          "name": "",
          "type": "uint256"
        }
      ],
      "stateMutability": "view",
      "type": "function"
    },
    {
      "inputs": [
        {
          "internalType": "address",
          "name": "owner",
          "type": "address"
        },
        {
          "internalType": "uint256",
          "name": "index",
          "type": "uint256"
        }
      ],
      "name": "tokenOfOwnerByIndex",
      "outputs": [
        {
          "internalType": "uint256",
          "name": "",
          "type": "uint256"
        }
      ],
      "stateMutability": "view",
      "type": "function"
    },
    {
      "inputs": [
        {
          "internalType": "uint256",
          "name": "tokenId",
          "type": "uint256"
        }
      ],
      "name": "tokenURI",
      "outputs": [
        {
          "internalType": "string",
          "name": "",
          "type": "string"
        }
      ],
      "stateMutability": "view",
      "type": "function"
    },
    {
      "inputs": [],
      "name": "totalSupply",
      "outputs": [
        {
          "internalType": "uint256",
          "name": "",
          "type": "uint256"
        }
      ],
      "stateMutability": "view",
      "type": "function"
    },
    {
      "inputs": [
        {
          "internalType": "address",
          "name": "from",
          "type": "address"
        },
        {
          "internalType": "address",
          "name": "to",
          "type": "address"
        },
        {
          "internalType": "uint256",
          "name": "tokenId",
          "type": "uint256"
        }
      ],
      "name": "transferFrom",
      "outputs": [],
      "stateMutability": "nonpayable",
      "type": "function"
    },
    {
      "inputs": [
        {
          "internalType": "address",
          "name": "newOwner",
          "type": "address"
        }
      ],
      "name": "transferOwnership",
      "outputs": [],
      "stateMutability": "nonpayable",
      "type": "function"
    },
    {
      "inputs": [],
      "name": "version",
      "outputs": [
        {
          "internalType": "string",
          "name": "",
          "type": "string"
        }
      ],
      "stateMutability": "pure",
      "type": "function"
    },
    {
      "inputs": [],
      "name": "whitelistMerkleRoot",
      "outputs": [
        {
          "internalType": "bytes32",
          "name": "",
          "type": "bytes32"
        }
      ],
      "stateMutability": "view",
      "type": "function"
    },
    {
      "inputs": [
        {
          "internalType": "uint256",
          "name": "_index",
          "type": "uint256"
        },
        {
          "internalType": "address",
          "name": "_to",
          "type": "address"
        },
        {
          "internalType": "uint256",
          "name": "_amountAllocated",
          "type": "uint256"
        },
        {
          "internalType": "uint256",
          "name": "_amountToMint",
          "type": "uint256"
        },
        {
          "internalType": "bytes32[]",
          "name": "proof",
          "type": "bytes32[]"
        }
      ],
      "name": "whitelistMint",
      "outputs": [],
      "stateMutability": "payable",
      "type": "function"
    },
    {
      "inputs": [
        {
          "internalType": "address",
          "name": "",
          "type": "address"
        }
      ],
      "name": "whitelistMinted",
      "outputs": [
        {
          "internalType": "uint256",
          "name": "",
          "type": "uint256"
        }
      ],
      "stateMutability": "view",
      "type": "function"
    }
  ],
  "bytecode": "0x60c06040526103e8600c5534801562000016575f80fd5b506040518060400160405280600481526020017f54524953000000000000000000000000000000000000000000000000000000008152506040518060400160405280600481526020017f54524953000000000000000000000000000000000000000000000000000000008152506040518060400160405280600181526020017f31000000000000000000000000000000000000000000000000000000000000008152508282815f9081620000cb919062000494565b508060019081620000dd919062000494565b505050828051906020012060808181525050808051906020012060a0818152505050505062000121620001156200015160201b60201c565b6200015860201b60201c565b6200014b60405180608001604052806043815260200162004f25604391396200021b60201b60201c565b62000578565b5f33905090565b5f600a5f9054906101000a900473ffffffffffffffffffffffffffffffffffffffff16905081600a5f6101000a81548173ffffffffffffffffffffffffffffffffffffffff021916908373ffffffffffffffffffffffffffffffffffffffff1602179055508173ffffffffffffffffffffffffffffffffffffffff168173ffffffffffffffffffffffffffffffffffffffff167f8be0079c531659141344cd1fd0a4f28419497f9722a3daafe3b4186f6b6457e060405160405180910390a35050565b80600e90816200022c919062000494565b5050565b5f81519050919050565b7f4e487b71000000000000000000000000000000000000000000000000000000005f52604160045260245ffd5b7f4e487b71000000000000000000000000000000000000000000000000000000005f52602260045260245ffd5b5f6002820490506001821680620002ac57607f821691505b602082108103620002c257620002c162000267565b5b50919050565b5f819050815f5260205f209050919050565b5f6020601f8301049050919050565b5f82821b905092915050565b5f60088302620003267fffffffffffffffffffffffffffffffffffffffffffffffffffffffffffffffff82620002e9565b620003328683620002e9565b95508019841693508086168417925050509392505050565b5f819050919050565b5f819050919050565b5f6200037c6200037662000370846200034a565b62000353565b6200034a565b9050919050565b5f819050919050565b62000397836200035c565b620003af620003a68262000383565b848454620002f5565b825550505050565b5f90565b620003c5620003b7565b620003d28184846200038c565b505050565b5b81811015620003f957620003ed5f82620003bb565b600181019050620003d8565b5050565b601f82111562000448576200041281620002c8565b6200041d84620002da565b810160208510156200042d578190505b620004456200043c85620002da565b830182620003d7565b50505b505050565b5f82821c905092915050565b5f6200046a5f19846008026200044d565b1980831691505092915050565b5f62000484838362000459565b9150826002028217905092915050565b6200049f8262000230565b67ffffffffffffffff811115620004bb57620004ba6200023a565b5b620004c7825462000294565b620004d4828285620003fd565b5f60209050601f8311600181146200050a575f8415620004f5578287015190505b62000501858262000477565b86555062000570565b601f1984166200051a86620002c8565b5f5b8281101562000543578489015182556001820191506020850194506020810190506200051c565b868310156200056357848901516200055f601f89168262000459565b8355505b6001600288020188555050505b505050505050565b60805160a05161498b6200059a5f395f610db601525f610d95015261498b5ff3fe608060405260043610610203575f3560e01c806354fd4d501161011757806398a8cffe1161009f578063b88d4fde1161006e578063b88d4fde14610731578063bd32fb6614610759578063c87b56dd14610781578063e985e9c5146107bd578063f2fde38b146107f957610203565b806398a8cffe1461068d578063a22cb465146106c9578063aa98e0c6146106f1578063b70196d71461071b57610203565b806370a08231116100e657806370a08231146105cb578063715018a6146106075780637ac2ff7b1461061d5780638da5cb5b1461063957806395d89b411461066357610203565b806354fd4d501461051357806355f804b31461053d5780636352211e146105655780636e34a482146105a157610203565b80632f745c591161019a57806340c10f191161016957806340c10f191461043557806342842e0e1461045d57806347786d37146104855780634f6ccce7146104ad578063524513d6146104e957610203565b80632f745c591461037b57806330adf81f146103b7578063355274ea146103e15780633644e5151461040b57610203565b8063141a468c116101d6578063141a468c146102d157806318160ddd1461030d5780631d68e8ce1461033757806323b872dd1461035357610203565b806301ffc9a71461020757806306fdde0314610243578063081812fc1461026d578063095ea7b3146102a9575b5f80fd5b348015610212575f80fd5b5061022d60048036038101906102289190612d93565b610821565b60405161023a9190612dd8565b60405180910390f35b34801561024e575f80fd5b5061025761089a565b6040516102649190612e7b565b60405180910390f35b348015610278575f80fd5b50610293600480360381019061028e9190612ece565b610929565b6040516102a09190612f38565b60405180910390f35b3480156102b4575f80fd5b506102cf60048036038101906102ca9190612f7b565b61096b565b005b3480156102dc575f80fd5b506102f760048036038101906102f29190612ece565b610a81565b6040516103049190612fc8565b60405180910390f35b348015610318575f80fd5b50610321610a96565b60405161032e9190612fc8565b60405180910390f35b610351600480360381019061034c9190613154565b610aa2565b005b34801561035e575f80fd5b50610379600480360381019061037491906131e7565b610c45565b005b348015610386575f80fd5b506103a1600480360381019061039c9190612f7b565b610ca5565b6040516103ae9190612fc8565b60405180910390f35b3480156103c2575f80fd5b506103cb610d45565b6040516103d89190613246565b60405180910390f35b3480156103ec575f80fd5b506103f5610d6b565b6040516104029190612fc8565b60405180910390f35b348015610416575f80fd5b5061041f610d71565b60405161042c9190613246565b60405180910390f35b348015610440575f80fd5b5061045b60048036038101906104569190612f7b565b610e0d565b005b348015610468575f80fd5b50610483600480360381019061047e91906131e7565b610e6e565b005b348015610490575f80fd5b506104ab60048036038101906104a69190612ece565b610e8d565b005b3480156104b8575f80fd5b506104d360048036038101906104ce9190612ece565b610e9f565b6040516104e09190612fc8565b60405180910390f35b3480156104f4575f80fd5b506104fd610f0d565b60405161050a9190612dd8565b60405180910390f35b34801561051e575f80fd5b50610527610f23565b6040516105349190612e7b565b60405180910390f35b348015610548575f80fd5b50610563600480360381019061055e919061330f565b610f60565b005b348015610570575f80fd5b5061058b60048036038101906105869190612ece565b610f74565b6040516105989190612f38565b60405180910390f35b3480156105ac575f80fd5b506105b5610ff8565b6040516105c29190612e7b565b60405180910390f35b3480156105d6575f80fd5b506105f160048036038101906105ec9190613356565b611084565b6040516105fe9190612fc8565b60405180910390f35b348015610612575f80fd5b5061061b611138565b005b610637600480360381019061063291906133b7565b61114b565b005b348015610644575f80fd5b5061064d6114f2565b60405161065a9190612f38565b60405180910390f35b34801561066e575f80fd5b5061067761151a565b6040516106849190612e7b565b60405180910390f35b348015610698575f80fd5b506106b360048036038101906106ae9190613356565b6115aa565b6040516106c09190612fc8565b60405180910390f35b3480156106d4575f80fd5b506106ef60048036038101906106ea919061346a565b6115bf565b005b3480156106fc575f80fd5b506107056115d5565b6040516107129190613246565b60405180910390f35b348015610726575f80fd5b5061072f6115db565b005b34801561073c575f80fd5b5061075760048036038101906107529190613546565b611600565b005b348015610764575f80fd5b5061077f600480360381019061077a91906135c6565b611662565b005b34801561078c575f80fd5b506107a760048036038101906107a29190612ece565b611674565b6040516107b49190612e7b565b60405180910390f35b3480156107c8575f80fd5b506107e360048036038101906107de91906135f1565b6116d9565b6040516107f09190612dd8565b60405180910390f35b348015610804575f80fd5b5061081f600480360381019061081a9190613356565b611767565b005b5f7f780e9d63000000000000000000000000000000000000000000000000000000007bffffffffffffffffffffffffffffffffffffffffffffffffffffffff1916827bffffffffffffffffffffffffffffffffffffffffffffffffffffffff191614806108935750610892826117e9565b5b9050919050565b60605f80546108a89061365c565b80601f01602080910402602001604051908101604052809291908181526020018280546108d49061365c565b801561091f5780601f106108f65761010080835404028352916020019161091f565b820191905f5260205f20905b81548152906001019060200180831161090257829003601f168201915b5050505050905090565b5f610933826118ca565b60045f8381526020019081526020015f205f9054906101000a900473ffffffffffffffffffffffffffffffffffffffff169050919050565b5f61097582610f74565b90508073ffffffffffffffffffffffffffffffffffffffff168373ffffffffffffffffffffffffffffffffffffffff16036109e5576040517f08c379a00000000000000000000000000000000000000000000000000000000081526004016109dc906136fc565b60405180910390fd5b8073ffffffffffffffffffffffffffffffffffffffff16610a04611915565b73ffffffffffffffffffffffffffffffffffffffff161480610a335750610a3281610a2d611915565b6116d9565b5b610a72576040517f08c379a0000000000000000000000000000000000000000000000000000000008152600401610a699061378a565b60405180910390fd5b610a7c838361191c565b505050565b600d602052805f5260405f205f915090505481565b5f600880549050905090565b600a60149054906101000a900460ff1615610abb575f80fd5b610ac7818686866119d2565b610acf575f80fd5b5f600f5f8673ffffffffffffffffffffffffffffffffffffffff1673ffffffffffffffffffffffffffffffffffffffff1681526020019081526020015f20549050838382610b1d91906137d5565b1115610b5e576040517f08c379a0000000000000000000000000000000000000000000000000000000008152600401610b5590613852565b60405180910390fd5b82600f5f8773ffffffffffffffffffffffffffffffffffffffff1673ffffffffffffffffffffffffffffffffffffffff1681526020019081526020015f205f828254610baa91906137d5565b925050819055505f610bba610a96565b90505f8582610bc991906137d5565b9050600c54811115610c10576040517f08c379a0000000000000000000000000000000000000000000000000000000008152600401610c07906138ba565b60405180910390fd5b5f8290505b81811015610c3a57610c278882611a1e565b8080610c32906138d8565b915050610c15565b505050505050505050565b610c56610c50611915565b82611c31565b610c95576040517f08c379a0000000000000000000000000000000000000000000000000000000008152600401610c8c9061398f565b60405180910390fd5b610ca0838383611cc5565b505050565b5f610caf83611084565b8210610cf0576040517f08c379a0000000000000000000000000000000000000000000000000000000008152600401610ce790613a1d565b60405180910390fd5b60065f8473ffffffffffffffffffffffffffffffffffffffff1673ffffffffffffffffffffffffffffffffffffffff1681526020019081526020015f205f8381526020019081526020015f2054905092915050565b7f49ecf333e5b8c95c40fdafc95c1ad136e8914a8fb55e9dc8bb01eaa83a2df9ad5f1b81565b600c5481565b5f7f8b73c3c69bb8fe3d512ecc4cf759cc79239f7b179b0ffacaa9a75d522b39400f7f00000000000000000000000000000000000000000000000000000000000000007f0000000000000000000000000000000000000000000000000000000000000000610ddd611fb1565b30604051602001610df2959493929190613a7d565b60405160208183030381529060405280519060200120905090565b610e15611fb8565b600c54610e20610a96565b10610e60576040517f08c379a0000000000000000000000000000000000000000000000000000000008152600401610e57906138ba565b60405180910390fd5b610e6a8282611a1e565b5050565b610e8883838360405180602001604052805f815250611600565b505050565b610e95611fb8565b80600c8190555050565b5f610ea8610a96565b8210610ee9576040517f08c379a0000000000000000000000000000000000000000000000000000000008152600401610ee090613b3e565b60405180910390fd5b60088281548110610efd57610efc613b5c565b5b905f5260205f2001549050919050565b5f600a60149054906101000a900460ff16905090565b60606040518060400160405280600181526020017f3100000000000000000000000000000000000000000000000000000000000000815250905090565b610f68611fb8565b610f7181612036565b50565b5f80610f7f83612049565b90505f73ffffffffffffffffffffffffffffffffffffffff168173ffffffffffffffffffffffffffffffffffffffff1603610fef576040517f08c379a0000000000000000000000000000000000000000000000000000000008152600401610fe690613bd3565b60405180910390fd5b80915050919050565b600e80546110059061365c565b80601f01602080910402602001604051908101604052809291908181526020018280546110319061365c565b801561107c5780601f106110535761010080835404028352916020019161107c565b820191905f5260205f20905b81548152906001019060200180831161105f57829003601f168201915b505050505081565b5f8073ffffffffffffffffffffffffffffffffffffffff168273ffffffffffffffffffffffffffffffffffffffff16036110f3576040517f08c379a00000000000000000000000000000000000000000000000000000000081526004016110ea90613c61565b60405180910390fd5b60035f8373ffffffffffffffffffffffffffffffffffffffff1673ffffffffffffffffffffffffffffffffffffffff1681526020019081526020015f20549050919050565b611140611fb8565b6111495f612082565b565b83611154612145565b1115611195576040517f08c379a000000000000000000000000000000000000000000000000000000000815260040161118c90613cc9565b60405180910390fd5b5f61119e610d71565b7f49ecf333e5b8c95c40fdafc95c1ad136e8914a8fb55e9dc8bb01eaa83a2df9ad5f1b88886111cc8a61214c565b896040516020016111e1959493929190613ce7565b60405160208183030381529060405280519060200120604051602001611208929190613dac565b6040516020818303038152906040528051906020012090505f61122a87610f74565b90508073ffffffffffffffffffffffffffffffffffffffff168873ffffffffffffffffffffffffffffffffffffffff160361129a576040517f08c379a000000000000000000000000000000000000000000000000000000000815260040161129190613e52565b60405180910390fd5b6112a381612191565b156113b157631626ba7e60e01b8173ffffffffffffffffffffffffffffffffffffffff16631626ba7e8487878a6040516020016112e293929190613ea4565b6040516020818303038152906040526040518363ffffffff1660e01b815260040161130e929190613f32565b602060405180830381865afa158015611329573d5f803e3d5ffd5b505050506040513d601f19601f8201168201806040525081019061134d9190613f74565b7bffffffffffffffffffffffffffffffffffffffffffffffffffffffff1916146113ac576040517f08c379a00000000000000000000000000000000000000000000000000000000081526004016113a390613fe9565b60405180910390fd5b6114de565b5f6001838787876040515f81526020016040526040516113d49493929190614016565b6020604051602081039080840390855afa1580156113f4573d5f803e3d5ffd5b5050506020604051035190505f73ffffffffffffffffffffffffffffffffffffffff168173ffffffffffffffffffffffffffffffffffffffff160361146e576040517f08c379a0000000000000000000000000000000000000000000000000000000008152600401611465906140a3565b60405180910390fd5b8173ffffffffffffffffffffffffffffffffffffffff168173ffffffffffffffffffffffffffffffffffffffff16146114dc576040517f08c379a00000000000000000000000000000000000000000000000000000000081526004016114d390613fe9565b60405180910390fd5b505b6114e8888861191c565b5050505050505050565b5f600a5f9054906101000a900473ffffffffffffffffffffffffffffffffffffffff16905090565b6060600180546115299061365c565b80601f01602080910402602001604051908101604052809291908181526020018280546115559061365c565b80156115a05780601f10611577576101008083540402835291602001916115a0565b820191905f5260205f20905b81548152906001019060200180831161158357829003601f168201915b5050505050905090565b600f602052805f5260405f205f915090505481565b6115d16115ca611915565b83836121b3565b5050565b600b5481565b6115e3611fb8565b6001600a60146101000a81548160ff021916908315150217905550565b61161161160b611915565b83611c31565b611650576040517f08c379a00000000000000000000000000000000000000000000000000000000081526004016116479061398f565b60405180910390fd5b61165c8484848461231a565b50505050565b61166a611fb8565b80600b8190555050565b606061167f826118ca565b5f611688612376565b90505f8151116116a65760405180602001604052805f8152506116d1565b806116b084612406565b6040516020016116c19291906140f1565b6040516020818303038152906040525b915050919050565b5f60055f8473ffffffffffffffffffffffffffffffffffffffff1673ffffffffffffffffffffffffffffffffffffffff1681526020019081526020015f205f8373ffffffffffffffffffffffffffffffffffffffff1673ffffffffffffffffffffffffffffffffffffffff1681526020019081526020015f205f9054906101000a900460ff16905092915050565b61176f611fb8565b5f73ffffffffffffffffffffffffffffffffffffffff168173ffffffffffffffffffffffffffffffffffffffff16036117dd576040517f08c379a00000000000000000000000000000000000000000000000000000000081526004016117d490614184565b60405180910390fd5b6117e681612082565b50565b5f7f80ac58cd000000000000000000000000000000000000000000000000000000007bffffffffffffffffffffffffffffffffffffffffffffffffffffffff1916827bffffffffffffffffffffffffffffffffffffffffffffffffffffffff191614806118b357507f5b5e139f000000000000000000000000000000000000000000000000000000007bffffffffffffffffffffffffffffffffffffffffffffffffffffffff1916827bffffffffffffffffffffffffffffffffffffffffffffffffffffffff1916145b806118c357506118c2826124d0565b5b9050919050565b6118d381612539565b611912576040517f08c379a000000000000000000000000000000000000000000000000000000000815260040161190990613bd3565b60405180910390fd5b50565b5f33905090565b8160045f8381526020019081526020015f205f6101000a81548173ffffffffffffffffffffffffffffffffffffffff021916908373ffffffffffffffffffffffffffffffffffffffff160217905550808273ffffffffffffffffffffffffffffffffffffffff1661198c83610f74565b73ffffffffffffffffffffffffffffffffffffffff167f8c5be1e5ebec7d5bd14f71427d1e84f3dd0314c0f7b2291e5b200ac8c7c3b92560405160405180910390a45050565b5f611a14600b548585856040516020016119ee93929190614207565b60405160208183030381529060405280519060200120876125799092919063ffffffff16565b9050949350505050565b5f73ffffffffffffffffffffffffffffffffffffffff168273ffffffffffffffffffffffffffffffffffffffff1603611a8c576040517f08c379a0000000000000000000000000000000000000000000000000000000008152600401611a839061428d565b60405180910390fd5b611a9581612539565b15611ad5576040517f08c379a0000000000000000000000000000000000000000000000000000000008152600401611acc906142f5565b60405180910390fd5b611ae25f8383600161258f565b611aeb81612539565b15611b2b576040517f08c379a0000000000000000000000000000000000000000000000000000000008152600401611b22906142f5565b60405180910390fd5b600160035f8473ffffffffffffffffffffffffffffffffffffffff1673ffffffffffffffffffffffffffffffffffffffff1681526020019081526020015f205f82825401925050819055508160025f8381526020019081526020015f205f6101000a81548173ffffffffffffffffffffffffffffffffffffffff021916908373ffffffffffffffffffffffffffffffffffffffff160217905550808273ffffffffffffffffffffffffffffffffffffffff165f73ffffffffffffffffffffffffffffffffffffffff167fddf252ad1be2c89b69c2b068fc378daa952ba7f163c4a11628f55a4df523b3ef60405160405180910390a4611c2d5f838360016126ea565b5050565b5f80611c3c83610f74565b90508073ffffffffffffffffffffffffffffffffffffffff168473ffffffffffffffffffffffffffffffffffffffff161480611c7e5750611c7d81856116d9565b5b80611cbc57508373ffffffffffffffffffffffffffffffffffffffff16611ca484610929565b73ffffffffffffffffffffffffffffffffffffffff16145b91505092915050565b8273ffffffffffffffffffffffffffffffffffffffff16611ce582610f74565b73ffffffffffffffffffffffffffffffffffffffff1614611d3b576040517f08c379a0000000000000000000000000000000000000000000000000000000008152600401611d3290614383565b60405180910390fd5b5f73ffffffffffffffffffffffffffffffffffffffff168273ffffffffffffffffffffffffffffffffffffffff1603611da9576040517f08c379a0000000000000000000000000000000000000000000000000000000008152600401611da090614411565b60405180910390fd5b611db6838383600161258f565b8273ffffffffffffffffffffffffffffffffffffffff16611dd682610f74565b73ffffffffffffffffffffffffffffffffffffffff1614611e2c576040517f08c379a0000000000000000000000000000000000000000000000000000000008152600401611e2390614383565b60405180910390fd5b60045f8281526020019081526020015f205f6101000a81549073ffffffffffffffffffffffffffffffffffffffff0219169055600160035f8573ffffffffffffffffffffffffffffffffffffffff1673ffffffffffffffffffffffffffffffffffffffff1681526020019081526020015f205f8282540392505081905550600160035f8473ffffffffffffffffffffffffffffffffffffffff1673ffffffffffffffffffffffffffffffffffffffff1681526020019081526020015f205f82825401925050819055508160025f8381526020019081526020015f205f6101000a81548173ffffffffffffffffffffffffffffffffffffffff021916908373ffffffffffffffffffffffffffffffffffffffff160217905550808273ffffffffffffffffffffffffffffffffffffffff168473ffffffffffffffffffffffffffffffffffffffff167fddf252ad1be2c89b69c2b068fc378daa952ba7f163c4a11628f55a4df523b3ef60405160405180910390a4611fac83838360016126ea565b505050565b5f46905090565b611fc0611915565b73ffffffffffffffffffffffffffffffffffffffff16611fde6114f2565b73ffffffffffffffffffffffffffffffffffffffff1614612034576040517f08c379a000000000000000000000000000000000000000000000000000000000815260040161202b90614479565b60405180910390fd5b565b80600e9081612045919061462b565b5050565b5f60025f8381526020019081526020015f205f9054906101000a900473ffffffffffffffffffffffffffffffffffffffff169050919050565b5f600a5f9054906101000a900473ffffffffffffffffffffffffffffffffffffffff16905081600a5f6101000a81548173ffffffffffffffffffffffffffffffffffffffff021916908373ffffffffffffffffffffffffffffffffffffffff1602179055508173ffffffffffffffffffffffffffffffffffffffff168173ffffffffffffffffffffffffffffffffffffffff167f8be0079c531659141344cd1fd0a4f28419497f9722a3daafe3b4186f6b6457e060405160405180910390a35050565b5f42905090565b5f80600d5f8481526020019081526020015f20549050600d5f8481526020019081526020015f205f815480929190612183906138d8565b919050555080915050919050565b5f808273ffffffffffffffffffffffffffffffffffffffff163b119050919050565b8173ffffffffffffffffffffffffffffffffffffffff168373ffffffffffffffffffffffffffffffffffffffff1603612221576040517f08c379a000000000000000000000000000000000000000000000000000000000815260040161221890614744565b60405180910390fd5b8060055f8573ffffffffffffffffffffffffffffffffffffffff1673ffffffffffffffffffffffffffffffffffffffff1681526020019081526020015f205f8473ffffffffffffffffffffffffffffffffffffffff1673ffffffffffffffffffffffffffffffffffffffff1681526020019081526020015f205f6101000a81548160ff0219169083151502179055508173ffffffffffffffffffffffffffffffffffffffff168373ffffffffffffffffffffffffffffffffffffffff167f17307eab39ab6107e8899845ad3d59bd9653f200f220920489ca2b5937696c318360405161230d9190612dd8565b60405180910390a3505050565b612325848484611cc5565b612331848484846126f0565b612370576040517f08c379a0000000000000000000000000000000000000000000000000000000008152600401612367906147d2565b60405180910390fd5b50505050565b6060600e80546123859061365c565b80601f01602080910402602001604051908101604052809291908181526020018280546123b19061365c565b80156123fc5780601f106123d3576101008083540402835291602001916123fc565b820191905f5260205f20905b8154815290600101906020018083116123df57829003601f168201915b5050505050905090565b60605f600161241484612872565b0190505f8167ffffffffffffffff81111561243257612431612fe5565b5b6040519080825280601f01601f1916602001820160405280156124645781602001600182028036833780820191505090505b5090505f82602001820190505b6001156124c5578080600190039150507f3031323334353637383961626364656600000000000000000000000000000000600a86061a8153600a85816124ba576124b96147f0565b5b0494505f8503612471575b819350505050919050565b5f7f01ffc9a7000000000000000000000000000000000000000000000000000000007bffffffffffffffffffffffffffffffffffffffffffffffffffffffff1916827bffffffffffffffffffffffffffffffffffffffffffffffffffffffff1916149050919050565b5f8073ffffffffffffffffffffffffffffffffffffffff1661255a83612049565b73ffffffffffffffffffffffffffffffffffffffff1614159050919050565b5f8261258585846129c3565b1490509392505050565b61259b84848484612a17565b60018111156125df576040517f08c379a00000000000000000000000000000000000000000000000000000000081526004016125d69061488d565b60405180910390fd5b5f8290505f73ffffffffffffffffffffffffffffffffffffffff168573ffffffffffffffffffffffffffffffffffffffff16036126245761261f81612a1d565b612663565b8373ffffffffffffffffffffffffffffffffffffffff168573ffffffffffffffffffffffffffffffffffffffff1614612662576126618582612a61565b5b5b5f73ffffffffffffffffffffffffffffffffffffffff168473ffffffffffffffffffffffffffffffffffffffff16036126a45761269f81612bb7565b6126e3565b8473ffffffffffffffffffffffffffffffffffffffff168473ffffffffffffffffffffffffffffffffffffffff16146126e2576126e18482612c77565b5b5b5050505050565b50505050565b5f6127108473ffffffffffffffffffffffffffffffffffffffff16612191565b15612865578373ffffffffffffffffffffffffffffffffffffffff1663150b7a02612739611915565b8786866040518563ffffffff1660e01b815260040161275b94939291906148ab565b6020604051808303815f875af192505050801561279657506040513d601f19601f820116820180604052508101906127939190613f74565b60015b612815573d805f81146127c4576040519150601f19603f3d011682016040523d82523d5f602084013e6127c9565b606091505b505f81510361280d576040517f08c379a0000000000000000000000000000000000000000000000000000000008152600401612804906147d2565b60405180910390fd5b805181602001fd5b63150b7a0260e01b7bffffffffffffffffffffffffffffffffffffffffffffffffffffffff1916817bffffffffffffffffffffffffffffffffffffffffffffffffffffffff19161491505061286a565b600190505b949350505050565b5f805f90507a184f03e93ff9f4daa797ed6e38ed64bf6a1f01000000000000000083106128ce577a184f03e93ff9f4daa797ed6e38ed64bf6a1f01000000000000000083816128c4576128c36147f0565b5b0492506040810190505b6d04ee2d6d415b85acef8100000000831061290b576d04ee2d6d415b85acef81000000008381612901576129006147f0565b5b0492506020810190505b662386f26fc10000831061293a57662386f26fc1000083816129305761292f6147f0565b5b0492506010810190505b6305f5e1008310612963576305f5e1008381612959576129586147f0565b5b0492506008810190505b612710831061298857612710838161297e5761297d6147f0565b5b0492506004810190505b606483106129ab57606483816129a1576129a06147f0565b5b0492506002810190505b600a83106129ba576001810190505b80915050919050565b5f808290505f5b8451811015612a0c576129f7828683815181106129ea576129e9613b5c565b5b6020026020010151612cef565b91508080612a04906138d8565b9150506129ca565b508091505092915050565b50505050565b60088054905060095f8381526020019081526020015f2081905550600881908060018154018082558091505060019003905f5260205f20015f909190919091505550565b5f6001612a6d84611084565b612a7791906148f5565b90505f60075f8481526020019081526020015f20549050818114612b4e575f60065f8673ffffffffffffffffffffffffffffffffffffffff1673ffffffffffffffffffffffffffffffffffffffff1681526020019081526020015f205f8481526020019081526020015f205490508060065f8773ffffffffffffffffffffffffffffffffffffffff1673ffffffffffffffffffffffffffffffffffffffff1681526020019081526020015f205f8481526020019081526020015f20819055508160075f8381526020019081526020015f2081905550505b60075f8481526020019081526020015f205f905560065f8573ffffffffffffffffffffffffffffffffffffffff1673ffffffffffffffffffffffffffffffffffffffff1681526020019081526020015f205f8381526020019081526020015f205f905550505050565b5f6001600880549050612bca91906148f5565b90505f60095f8481526020019081526020015f205490505f60088381548110612bf657612bf5613b5c565b5b905f5260205f20015490508060088381548110612c1657612c15613b5c565b5b905f5260205f2001819055508160095f8381526020019081526020015f208190555060095f8581526020019081526020015f205f90556008805480612c5e57612c5d614928565b5b600190038181905f5260205f20015f9055905550505050565b5f612c8183611084565b90508160065f8573ffffffffffffffffffffffffffffffffffffffff1673ffffffffffffffffffffffffffffffffffffffff1681526020019081526020015f205f8381526020019081526020015f20819055508060075f8481526020019081526020015f2081905550505050565b5f818310612d0657612d018284612d19565b612d11565b612d108383612d19565b5b905092915050565b5f825f528160205260405f20905092915050565b5f604051905090565b5f80fd5b5f80fd5b5f7fffffffff0000000000000000000000000000000000000000000000000000000082169050919050565b612d7281612d3e565b8114612d7c575f80fd5b50565b5f81359050612d8d81612d69565b92915050565b5f60208284031215612da857612da7612d36565b5b5f612db584828501612d7f565b91505092915050565b5f8115159050919050565b612dd281612dbe565b82525050565b5f602082019050612deb5f830184612dc9565b92915050565b5f81519050919050565b5f82825260208201905092915050565b5f5b83811015612e28578082015181840152602081019050612e0d565b5f8484015250505050565b5f601f19601f8301169050919050565b5f612e4d82612df1565b612e578185612dfb565b9350612e67818560208601612e0b565b612e7081612e33565b840191505092915050565b5f6020820190508181035f830152612e938184612e43565b905092915050565b5f819050919050565b612ead81612e9b565b8114612eb7575f80fd5b50565b5f81359050612ec881612ea4565b92915050565b5f60208284031215612ee357612ee2612d36565b5b5f612ef084828501612eba565b91505092915050565b5f73ffffffffffffffffffffffffffffffffffffffff82169050919050565b5f612f2282612ef9565b9050919050565b612f3281612f18565b82525050565b5f602082019050612f4b5f830184612f29565b92915050565b612f5a81612f18565b8114612f64575f80fd5b50565b5f81359050612f7581612f51565b92915050565b5f8060408385031215612f9157612f90612d36565b5b5f612f9e85828601612f67565b9250506020612faf85828601612eba565b9150509250929050565b612fc281612e9b565b82525050565b5f602082019050612fdb5f830184612fb9565b92915050565b5f80fd5b7f4e487b71000000000000000000000000000000000000000000000000000000005f52604160045260245ffd5b61301b82612e33565b810181811067ffffffffffffffff8211171561303a57613039612fe5565b5b80604052505050565b5f61304c612d2d565b90506130588282613012565b919050565b5f67ffffffffffffffff82111561307757613076612fe5565b5b602082029050602081019050919050565b5f80fd5b5f819050919050565b61309e8161308c565b81146130a8575f80fd5b50565b5f813590506130b981613095565b92915050565b5f6130d16130cc8461305d565b613043565b905080838252602082019050602084028301858111156130f4576130f3613088565b5b835b8181101561311d578061310988826130ab565b8452602084019350506020810190506130f6565b5050509392505050565b5f82601f83011261313b5761313a612fe1565b5b813561314b8482602086016130bf565b91505092915050565b5f805f805f60a0868803121561316d5761316c612d36565b5b5f61317a88828901612eba565b955050602061318b88828901612f67565b945050604061319c88828901612eba565b93505060606131ad88828901612eba565b925050608086013567ffffffffffffffff8111156131ce576131cd612d3a565b5b6131da88828901613127565b9150509295509295909350565b5f805f606084860312156131fe576131fd612d36565b5b5f61320b86828701612f67565b935050602061321c86828701612f67565b925050604061322d86828701612eba565b9150509250925092565b6132408161308c565b82525050565b5f6020820190506132595f830184613237565b92915050565b5f80fd5b5f67ffffffffffffffff82111561327d5761327c612fe5565b5b61328682612e33565b9050602081019050919050565b828183375f83830152505050565b5f6132b36132ae84613263565b613043565b9050828152602081018484840111156132cf576132ce61325f565b5b6132da848285613293565b509392505050565b5f82601f8301126132f6576132f5612fe1565b5b81356133068482602086016132a1565b91505092915050565b5f6020828403121561332457613323612d36565b5b5f82013567ffffffffffffffff81111561334157613340612d3a565b5b61334d848285016132e2565b91505092915050565b5f6020828403121561336b5761336a612d36565b5b5f61337884828501612f67565b91505092915050565b5f60ff82169050919050565b61339681613381565b81146133a0575f80fd5b50565b5f813590506133b18161338d565b92915050565b5f805f805f8060c087890312156133d1576133d0612d36565b5b5f6133de89828a01612f67565b96505060206133ef89828a01612eba565b955050604061340089828a01612eba565b945050606061341189828a016133a3565b935050608061342289828a016130ab565b92505060a061343389828a016130ab565b9150509295509295509295565b61344981612dbe565b8114613453575f80fd5b50565b5f8135905061346481613440565b92915050565b5f80604083850312156134805761347f612d36565b5b5f61348d85828601612f67565b925050602061349e85828601613456565b9150509250929050565b5f67ffffffffffffffff8211156134c2576134c1612fe5565b5b6134cb82612e33565b9050602081019050919050565b5f6134ea6134e5846134a8565b613043565b9050828152602081018484840111156135065761350561325f565b5b613511848285613293565b509392505050565b5f82601f83011261352d5761352c612fe1565b5b813561353d8482602086016134d8565b91505092915050565b5f805f806080858703121561355e5761355d612d36565b5b5f61356b87828801612f67565b945050602061357c87828801612f67565b935050604061358d87828801612eba565b925050606085013567ffffffffffffffff8111156135ae576135ad612d3a565b5b6135ba87828801613519565b91505092959194509250565b5f602082840312156135db576135da612d36565b5b5f6135e8848285016130ab565b91505092915050565b5f806040838503121561360757613606612d36565b5b5f61361485828601612f67565b925050602061362585828601612f67565b9150509250929050565b7f4e487b71000000000000000000000000000000000000000000000000000000005f52602260045260245ffd5b5f600282049050600182168061367357607f821691505b6020821081036136865761368561362f565b5b50919050565b7f4552433732313a20617070726f76616c20746f2063757272656e74206f776e655f8201527f7200000000000000000000000000000000000000000000000000000000000000602082015250565b5f6136e6602183612dfb565b91506136f18261368c565b604082019050919050565b5f6020820190508181035f830152613713816136da565b9050919050565b7f4552433732313a20617070726f76652063616c6c6572206973206e6f7420746f5f8201527f6b656e206f776e6572206f7220617070726f76656420666f7220616c6c000000602082015250565b5f613774603d83612dfb565b915061377f8261371a565b604082019050919050565b5f6020820190508181035f8301526137a181613768565b9050919050565b7f4e487b71000000000000000000000000000000000000000000000000000000005f52601160045260245ffd5b5f6137df82612e9b565b91506137ea83612e9b565b9250828201905080821115613802576138016137a8565b5b92915050565b7f21616c6c6f6361746564000000000000000000000000000000000000000000005f82015250565b5f61383c600a83612dfb565b915061384782613808565b602082019050919050565b5f6020820190508181035f83015261386981613830565b9050919050565b7f21636170000000000000000000000000000000000000000000000000000000005f82015250565b5f6138a4600483612dfb565b91506138af82613870565b602082019050919050565b5f6020820190508181035f8301526138d181613898565b9050919050565b5f6138e282612e9b565b91507fffffffffffffffffffffffffffffffffffffffffffffffffffffffffffffffff8203613914576139136137a8565b5b600182019050919050565b7f4552433732313a2063616c6c6572206973206e6f7420746f6b656e206f776e655f8201527f72206f7220617070726f76656400000000000000000000000000000000000000602082015250565b5f613979602d83612dfb565b91506139848261391f565b604082019050919050565b5f6020820190508181035f8301526139a68161396d565b9050919050565b7f455243373231456e756d657261626c653a206f776e657220696e646578206f755f8201527f74206f6620626f756e6473000000000000000000000000000000000000000000602082015250565b5f613a07602b83612dfb565b9150613a12826139ad565b604082019050919050565b5f6020820190508181035f830152613a34816139fb565b9050919050565b5f819050919050565b5f819050919050565b5f613a67613a62613a5d84613a3b565b613a44565b612e9b565b9050919050565b613a7781613a4d565b82525050565b5f60a082019050613a905f830188613a6e565b613a9d6020830187613237565b613aaa6040830186613237565b613ab76060830185612fb9565b613ac46080830184612f29565b9695505050505050565b7f455243373231456e756d657261626c653a20676c6f62616c20696e646578206f5f8201527f7574206f6620626f756e64730000000000000000000000000000000000000000602082015250565b5f613b28602c83612dfb565b9150613b3382613ace565b604082019050919050565b5f6020820190508181035f830152613b5581613b1c565b9050919050565b7f4e487b71000000000000000000000000000000000000000000000000000000005f52603260045260245ffd5b7f4552433732313a20696e76616c696420746f6b656e20494400000000000000005f82015250565b5f613bbd601883612dfb565b9150613bc882613b89565b602082019050919050565b5f6020820190508181035f830152613bea81613bb1565b9050919050565b7f4552433732313a2061646472657373207a65726f206973206e6f7420612076615f8201527f6c6964206f776e65720000000000000000000000000000000000000000000000602082015250565b5f613c4b602983612dfb565b9150613c5682613bf1565b604082019050919050565b5f6020820190508181035f830152613c7881613c3f565b9050919050565b7f5065726d697420657870697265640000000000000000000000000000000000005f82015250565b5f613cb3600e83612dfb565b9150613cbe82613c7f565b602082019050919050565b5f6020820190508181035f830152613ce081613ca7565b9050919050565b5f60a082019050613cfa5f830188613237565b613d076020830187612f29565b613d146040830186612fb9565b613d216060830185612fb9565b613d2e6080830184612fb9565b9695505050505050565b5f81905092915050565b7f19010000000000000000000000000000000000000000000000000000000000005f82015250565b5f613d76600283613d38565b9150613d8182613d42565b600282019050919050565b5f819050919050565b613da6613da18261308c565b613d8c565b82525050565b5f613db682613d6a565b9150613dc28285613d95565b602082019150613dd28284613d95565b6020820191508190509392505050565b7f4552433732315065726d69743a20617070726f76616c20746f2063757272656e5f8201527f74206f776e657200000000000000000000000000000000000000000000000000602082015250565b5f613e3c602783612dfb565b9150613e4782613de2565b604082019050919050565b5f6020820190508181035f830152613e6981613e30565b9050919050565b5f8160f81b9050919050565b5f613e8682613e70565b9050919050565b613e9e613e9982613381565b613e7c565b82525050565b5f613eaf8286613d95565b602082019150613ebf8285613d95565b602082019150613ecf8284613e8d565b600182019150819050949350505050565b5f81519050919050565b5f82825260208201905092915050565b5f613f0482613ee0565b613f0e8185613eea565b9350613f1e818560208601612e0b565b613f2781612e33565b840191505092915050565b5f604082019050613f455f830185613237565b8181036020830152613f578184613efa565b90509392505050565b5f81519050613f6e81612d69565b92915050565b5f60208284031215613f8957613f88612d36565b5b5f613f9684828501613f60565b91505092915050565b7f556e617574686f72697a656400000000000000000000000000000000000000005f82015250565b5f613fd3600c83612dfb565b9150613fde82613f9f565b602082019050919050565b5f6020820190508181035f83015261400081613fc7565b9050919050565b61401081613381565b82525050565b5f6080820190506140295f830187613237565b6140366020830186614007565b6140436040830185613237565b6140506060830184613237565b95945050505050565b7f496e76616c6964207369676e61747572650000000000000000000000000000005f82015250565b5f61408d601183612dfb565b915061409882614059565b602082019050919050565b5f6020820190508181035f8301526140ba81614081565b9050919050565b5f6140cb82612df1565b6140d58185613d38565b93506140e5818560208601612e0b565b80840191505092915050565b5f6140fc82856140c1565b915061410882846140c1565b91508190509392505050565b7f4f776e61626c653a206e6577206f776e657220697320746865207a65726f20615f8201527f6464726573730000000000000000000000000000000000000000000000000000602082015250565b5f61416e602683612dfb565b915061417982614114565b604082019050919050565b5f6020820190508181035f83015261419b81614162565b9050919050565b5f819050919050565b6141bc6141b782612e9b565b6141a2565b82525050565b5f8160601b9050919050565b5f6141d8826141c2565b9050919050565b5f6141e9826141ce565b9050919050565b6142016141fc82612f18565b6141df565b82525050565b5f61421282866141ab565b60208201915061422282856141f0565b60148201915061423282846141ab565b602082019150819050949350505050565b7f4552433732313a206d696e7420746f20746865207a65726f20616464726573735f82015250565b5f614277602083612dfb565b915061428282614243565b602082019050919050565b5f6020820190508181035f8301526142a48161426b565b9050919050565b7f4552433732313a20746f6b656e20616c7265616479206d696e746564000000005f82015250565b5f6142df601c83612dfb565b91506142ea826142ab565b602082019050919050565b5f6020820190508181035f83015261430c816142d3565b9050919050565b7f4552433732313a207472616e736665722066726f6d20696e636f7272656374205f8201527f6f776e6572000000000000000000000000000000000000000000000000000000602082015250565b5f61436d602583612dfb565b915061437882614313565b604082019050919050565b5f6020820190508181035f83015261439a81614361565b9050919050565b7f4552433732313a207472616e7366657220746f20746865207a65726f206164645f8201527f7265737300000000000000000000000000000000000000000000000000000000602082015250565b5f6143fb602483612dfb565b9150614406826143a1565b604082019050919050565b5f6020820190508181035f830152614428816143ef565b9050919050565b7f4f776e61626c653a2063616c6c6572206973206e6f7420746865206f776e65725f82015250565b5f614463602083612dfb565b915061446e8261442f565b602082019050919050565b5f6020820190508181035f83015261449081614457565b9050919050565b5f819050815f5260205f209050919050565b5f6020601f8301049050919050565b5f82821b905092915050565b5f600883026144f37fffffffffffffffffffffffffffffffffffffffffffffffffffffffffffffffff826144b8565b6144fd86836144b8565b95508019841693508086168417925050509392505050565b5f61452f61452a61452584612e9b565b613a44565b612e9b565b9050919050565b5f819050919050565b61454883614515565b61455c61455482614536565b8484546144c4565b825550505050565b5f90565b614570614564565b61457b81848461453f565b505050565b5b8181101561459e576145935f82614568565b600181019050614581565b5050565b601f8211156145e3576145b481614497565b6145bd846144a9565b810160208510156145cc578190505b6145e06145d8856144a9565b830182614580565b50505b505050565b5f82821c905092915050565b5f6146035f19846008026145e8565b1980831691505092915050565b5f61461b83836145f4565b9150826002028217905092915050565b61463482612df1565b67ffffffffffffffff81111561464d5761464c612fe5565b5b614657825461365c565b6146628282856145a2565b5f60209050601f831160018114614693575f8415614681578287015190505b61468b8582614610565b8655506146f2565b601f1984166146a186614497565b5f5b828110156146c8578489015182556001820191506020850194506020810190506146a3565b868310156146e557848901516146e1601f8916826145f4565b8355505b6001600288020188555050505b505050505050565b7f4552433732313a20617070726f766520746f2063616c6c6572000000000000005f82015250565b5f61472e601983612dfb565b9150614739826146fa565b602082019050919050565b5f6020820190508181035f83015261475b81614722565b9050919050565b7f4552433732313a207472616e7366657220746f206e6f6e2045524337323152655f8201527f63656976657220696d706c656d656e7465720000000000000000000000000000602082015250565b5f6147bc603283612dfb565b91506147c782614762565b604082019050919050565b5f6020820190508181035f8301526147e9816147b0565b9050919050565b7f4e487b71000000000000000000000000000000000000000000000000000000005f52601260045260245ffd5b7f455243373231456e756d657261626c653a20636f6e73656375746976652074725f8201527f616e7366657273206e6f7420737570706f727465640000000000000000000000602082015250565b5f614877603583612dfb565b91506148828261481d565b604082019050919050565b5f6020820190508181035f8301526148a48161486b565b9050919050565b5f6080820190506148be5f830187612f29565b6148cb6020830186612f29565b6148d86040830185612fb9565b81810360608301526148ea8184613efa565b905095945050505050565b5f6148ff82612e9b565b915061490a83612e9b565b9250828203905081811115614922576149216137a8565b5b92915050565b7f4e487b71000000000000000000000000000000000000000000000000000000005f52603160045260245ffdfea2646970667358221220bd83e7fc342a73e9c9c9c7cfaf4e8756c3528f986756e928babef327af0c147664736f6c63430008140033697066733a2f2f62616679626569657a7062717136666176707337346572776e3335697263616532787171646d637a786a7337696d6f73646b6e3661686d75786d652f",
  "linkReferences": {},
  "deployedLinkReferences": {}
}